{
	"contracts/RomanToInt.sol": {
		"RomanToInt": {
			"abi": [
				{
					"inputs": [
						{
							"internalType": "string",
							"name": "s",
							"type": "string"
						}
					],
					"name": "romanToInt",
					"outputs": [
						{
							"internalType": "uint256",
							"name": "",
							"type": "uint256"
						}
					],
					"stateMutability": "pure",
					"type": "function"
				}
			],
			"devdoc": {
				"kind": "dev",
				"methods": {},
				"version": 1
			},
			"evm": {
				"assembly": "    /* \"contracts/RomanToInt.sol\":57:1089  contract RomanToInt {... */\n  mstore(0x40, 0x80)\n  callvalue\n  dup1\n  iszero\n  tag_1\n  jumpi\n  revert(0x00, 0x00)\ntag_1:\n  pop\n  dataSize(sub_0)\n  dup1\n  dataOffset(sub_0)\n  0x00\n  codecopy\n  0x00\n  return\nstop\n\nsub_0: assembly {\n        /* \"contracts/RomanToInt.sol\":57:1089  contract RomanToInt {... */\n      mstore(0x40, 0x80)\n      callvalue\n      dup1\n      iszero\n      tag_1\n      jumpi\n      revert(0x00, 0x00)\n    tag_1:\n      pop\n      jumpi(tag_2, lt(calldatasize, 0x04))\n      shr(0xe0, calldataload(0x00))\n      dup1\n      0xcb159dfe\n      eq\n      tag_3\n      jumpi\n    tag_2:\n      revert(0x00, 0x00)\n        /* \"contracts/RomanToInt.sol\":83:743  function romanToInt(string memory s) public pure returns (uint) {... */\n    tag_3:\n      tag_4\n      0x04\n      dup1\n      calldatasize\n      sub\n      dup2\n      add\n      swap1\n      tag_5\n      swap2\n      swap1\n      tag_6\n      jump\t// in\n    tag_5:\n      tag_7\n      jump\t// in\n    tag_4:\n      mload(0x40)\n      tag_8\n      swap2\n      swap1\n      tag_9\n      jump\t// in\n    tag_8:\n      mload(0x40)\n      dup1\n      swap2\n      sub\n      swap1\n      return\n    tag_7:\n        /* \"contracts/RomanToInt.sol\":141:145  uint */\n      0x00\n        /* \"contracts/RomanToInt.sol\":157:174  bytes memory data */\n      0x00\n        /* \"contracts/RomanToInt.sol\":183:184  s */\n      dup3\n        /* \"contracts/RomanToInt.sol\":157:185  bytes memory data = bytes(s) */\n      swap1\n      pop\n        /* \"contracts/RomanToInt.sol\":195:205  uint total */\n      0x00\n        /* \"contracts/RomanToInt.sol\":208:209  0 */\n      0x00\n        /* \"contracts/RomanToInt.sol\":195:209  uint total = 0 */\n      swap1\n      pop\n        /* \"contracts/RomanToInt.sol\":219:225  uint i */\n      0x00\n        /* \"contracts/RomanToInt.sol\":228:229  0 */\n      0x00\n        /* \"contracts/RomanToInt.sol\":219:229  uint i = 0 */\n      swap1\n      pop\n        /* \"contracts/RomanToInt.sol\":240:714  while (i < data.length) {... */\n    tag_11:\n        /* \"contracts/RomanToInt.sol\":251:255  data */\n      dup3\n        /* \"contracts/RomanToInt.sol\":251:262  data.length */\n      mload\n        /* \"contracts/RomanToInt.sol\":247:248  i */\n      dup2\n        /* \"contracts/RomanToInt.sol\":247:262  i < data.length */\n      lt\n        /* \"contracts/RomanToInt.sol\":240:714  while (i < data.length) {... */\n      iszero\n      tag_12\n      jumpi\n        /* \"contracts/RomanToInt.sol\":278:287  uint curr */\n      0x00\n        /* \"contracts/RomanToInt.sol\":290:306  valueOf(data[i]) */\n      tag_13\n        /* \"contracts/RomanToInt.sol\":298:302  data */\n      dup5\n        /* \"contracts/RomanToInt.sol\":303:304  i */\n      dup4\n        /* \"contracts/RomanToInt.sol\":298:305  data[i] */\n      dup2\n      mload\n      dup2\n      lt\n      tag_14\n      jumpi\n      tag_15\n      tag_16\n      jump\t// in\n    tag_15:\n    tag_14:\n      0x20\n      add\n      add\n      mload\n      0xf8\n      shr\n      0xf8\n      shl\n        /* \"contracts/RomanToInt.sol\":290:297  valueOf */\n      tag_17\n        /* \"contracts/RomanToInt.sol\":290:306  valueOf(data[i]) */\n      jump\t// in\n    tag_13:\n        /* \"contracts/RomanToInt.sol\":278:306  uint curr = valueOf(data[i]) */\n      swap1\n      pop\n        /* \"contracts/RomanToInt.sol\":403:407  data */\n      dup4\n        /* \"contracts/RomanToInt.sol\":403:414  data.length */\n      mload\n        /* \"contracts/RomanToInt.sol\":399:400  1 */\n      0x01\n        /* \"contracts/RomanToInt.sol\":395:396  i */\n      dup4\n        /* \"contracts/RomanToInt.sol\":395:400  i + 1 */\n      tag_18\n      swap2\n      swap1\n      tag_19\n      jump\t// in\n    tag_18:\n        /* \"contracts/RomanToInt.sol\":395:414  i + 1 < data.length */\n      lt\n        /* \"contracts/RomanToInt.sol\":391:659  if (i + 1 < data.length) {... */\n      iszero\n      tag_20\n      jumpi\n        /* \"contracts/RomanToInt.sol\":434:443  uint next */\n      0x00\n        /* \"contracts/RomanToInt.sol\":446:466  valueOf(data[i + 1]) */\n      tag_21\n        /* \"contracts/RomanToInt.sol\":454:458  data */\n      dup6\n        /* \"contracts/RomanToInt.sol\":463:464  1 */\n      0x01\n        /* \"contracts/RomanToInt.sol\":459:460  i */\n      dup6\n        /* \"contracts/RomanToInt.sol\":459:464  i + 1 */\n      tag_22\n      swap2\n      swap1\n      tag_19\n      jump\t// in\n    tag_22:\n        /* \"contracts/RomanToInt.sol\":454:465  data[i + 1] */\n      dup2\n      mload\n      dup2\n      lt\n      tag_23\n      jumpi\n      tag_24\n      tag_16\n      jump\t// in\n    tag_24:\n    tag_23:\n      0x20\n      add\n      add\n      mload\n      0xf8\n      shr\n      0xf8\n      shl\n        /* \"contracts/RomanToInt.sol\":446:453  valueOf */\n      tag_17\n        /* \"contracts/RomanToInt.sol\":446:466  valueOf(data[i + 1]) */\n      jump\t// in\n    tag_21:\n        /* \"contracts/RomanToInt.sol\":434:466  uint next = valueOf(data[i + 1]) */\n      swap1\n      pop\n        /* \"contracts/RomanToInt.sol\":496:500  next */\n      dup1\n        /* \"contracts/RomanToInt.sol\":489:493  curr */\n      dup3\n        /* \"contracts/RomanToInt.sol\":489:500  curr < next */\n      lt\n        /* \"contracts/RomanToInt.sol\":485:645  if (curr < next) {... */\n      iszero\n      tag_25\n      jumpi\n        /* \"contracts/RomanToInt.sol\":541:545  curr */\n      dup2\n        /* \"contracts/RomanToInt.sol\":534:538  next */\n      dup2\n        /* \"contracts/RomanToInt.sol\":534:545  next - curr */\n      tag_26\n      swap2\n      swap1\n      tag_27\n      jump\t// in\n    tag_26:\n        /* \"contracts/RomanToInt.sol\":524:546  total += (next - curr) */\n      dup5\n      tag_28\n      swap2\n      swap1\n      tag_19\n      jump\t// in\n    tag_28:\n      swap4\n      pop\n        /* \"contracts/RomanToInt.sol\":573:574  2 */\n      0x02\n        /* \"contracts/RomanToInt.sol\":568:574  i += 2 */\n      dup4\n      tag_29\n      swap2\n      swap1\n      tag_19\n      jump\t// in\n    tag_29:\n      swap3\n      pop\n        /* \"contracts/RomanToInt.sol\":618:626  continue */\n      pop\n      pop\n      jump(tag_11)\n        /* \"contracts/RomanToInt.sol\":485:645  if (curr < next) {... */\n    tag_25:\n        /* \"contracts/RomanToInt.sol\":416:659  {... */\n      pop\n        /* \"contracts/RomanToInt.sol\":391:659  if (i + 1 < data.length) {... */\n    tag_20:\n        /* \"contracts/RomanToInt.sol\":682:686  curr */\n      dup1\n        /* \"contracts/RomanToInt.sol\":673:686  total += curr */\n      dup4\n      tag_30\n      swap2\n      swap1\n      tag_19\n      jump\t// in\n    tag_30:\n      swap3\n      pop\n        /* \"contracts/RomanToInt.sol\":700:703  i++ */\n      dup2\n      dup1\n      tag_31\n      swap1\n      tag_32\n      jump\t// in\n    tag_31:\n      swap3\n      pop\n      pop\n        /* \"contracts/RomanToInt.sol\":264:714  {... */\n      pop\n        /* \"contracts/RomanToInt.sol\":240:714  while (i < data.length) {... */\n      jump(tag_11)\n    tag_12:\n        /* \"contracts/RomanToInt.sol\":731:736  total */\n      dup2\n        /* \"contracts/RomanToInt.sol\":724:736  return total */\n      swap4\n      pop\n      pop\n      pop\n      pop\n        /* \"contracts/RomanToInt.sol\":83:743  function romanToInt(string memory s) public pure returns (uint) {... */\n      swap2\n      swap1\n      pop\n      jump\t// out\n        /* \"contracts/RomanToInt.sol\":749:1087  function valueOf(bytes1 c) private pure returns (uint) {... */\n    tag_17:\n        /* \"contracts/RomanToInt.sol\":798:802  uint */\n      0x00\n        /* \"contracts/RomanToInt.sol\":818:826  c == \"I\" */\n      0x4900000000000000000000000000000000000000000000000000000000000000\n        /* \"contracts/RomanToInt.sol\":818:819  c */\n      dup3\n        /* \"contracts/RomanToInt.sol\":818:826  c == \"I\" */\n      not(0xffffffffffffffffffffffffffffffffffffffffffffffffffffffffffffff)\n      and\n      sub\n        /* \"contracts/RomanToInt.sol\":814:836  if (c == \"I\") return 1 */\n      tag_34\n      jumpi\n        /* \"contracts/RomanToInt.sol\":835:836  1 */\n      0x01\n        /* \"contracts/RomanToInt.sol\":828:836  return 1 */\n      swap1\n      pop\n      jump(tag_33)\n        /* \"contracts/RomanToInt.sol\":814:836  if (c == \"I\") return 1 */\n    tag_34:\n        /* \"contracts/RomanToInt.sol\":850:858  c == \"V\" */\n      0x5600000000000000000000000000000000000000000000000000000000000000\n        /* \"contracts/RomanToInt.sol\":850:851  c */\n      dup3\n        /* \"contracts/RomanToInt.sol\":850:858  c == \"V\" */\n      not(0xffffffffffffffffffffffffffffffffffffffffffffffffffffffffffffff)\n      and\n      sub\n        /* \"contracts/RomanToInt.sol\":846:868  if (c == \"V\") return 5 */\n      tag_35\n      jumpi\n        /* \"contracts/RomanToInt.sol\":867:868  5 */\n      0x05\n        /* \"contracts/RomanToInt.sol\":860:868  return 5 */\n      swap1\n      pop\n      jump(tag_33)\n        /* \"contracts/RomanToInt.sol\":846:868  if (c == \"V\") return 5 */\n    tag_35:\n        /* \"contracts/RomanToInt.sol\":882:890  c == \"X\" */\n      0x5800000000000000000000000000000000000000000000000000000000000000\n        /* \"contracts/RomanToInt.sol\":882:883  c */\n      dup3\n        /* \"contracts/RomanToInt.sol\":882:890  c == \"X\" */\n      not(0xffffffffffffffffffffffffffffffffffffffffffffffffffffffffffffff)\n      and\n      sub\n        /* \"contracts/RomanToInt.sol\":878:901  if (c == \"X\") return 10 */\n      tag_36\n      jumpi\n        /* \"contracts/RomanToInt.sol\":899:901  10 */\n      0x0a\n        /* \"contracts/RomanToInt.sol\":892:901  return 10 */\n      swap1\n      pop\n      jump(tag_33)\n        /* \"contracts/RomanToInt.sol\":878:901  if (c == \"X\") return 10 */\n    tag_36:\n        /* \"contracts/RomanToInt.sol\":915:923  c == \"L\" */\n      0x4c00000000000000000000000000000000000000000000000000000000000000\n        /* \"contracts/RomanToInt.sol\":915:916  c */\n      dup3\n        /* \"contracts/RomanToInt.sol\":915:923  c == \"L\" */\n      not(0xffffffffffffffffffffffffffffffffffffffffffffffffffffffffffffff)\n      and\n      sub\n        /* \"contracts/RomanToInt.sol\":911:934  if (c == \"L\") return 50 */\n      tag_37\n      jumpi\n        /* \"contracts/RomanToInt.sol\":932:934  50 */\n      0x32\n        /* \"contracts/RomanToInt.sol\":925:934  return 50 */\n      swap1\n      pop\n      jump(tag_33)\n        /* \"contracts/RomanToInt.sol\":911:934  if (c == \"L\") return 50 */\n    tag_37:\n        /* \"contracts/RomanToInt.sol\":948:956  c == \"C\" */\n      0x4300000000000000000000000000000000000000000000000000000000000000\n        /* \"contracts/RomanToInt.sol\":948:949  c */\n      dup3\n        /* \"contracts/RomanToInt.sol\":948:956  c == \"C\" */\n      not(0xffffffffffffffffffffffffffffffffffffffffffffffffffffffffffffff)\n      and\n      sub\n        /* \"contracts/RomanToInt.sol\":944:968  if (c == \"C\") return 100 */\n      tag_38\n      jumpi\n        /* \"contracts/RomanToInt.sol\":965:968  100 */\n      0x64\n        /* \"contracts/RomanToInt.sol\":958:968  return 100 */\n      swap1\n      pop\n      jump(tag_33)\n        /* \"contracts/RomanToInt.sol\":944:968  if (c == \"C\") return 100 */\n    tag_38:\n        /* \"contracts/RomanToInt.sol\":982:990  c == \"D\" */\n      0x4400000000000000000000000000000000000000000000000000000000000000\n        /* \"contracts/RomanToInt.sol\":982:983  c */\n      dup3\n        /* \"contracts/RomanToInt.sol\":982:990  c == \"D\" */\n      not(0xffffffffffffffffffffffffffffffffffffffffffffffffffffffffffffff)\n      and\n      sub\n        /* \"contracts/RomanToInt.sol\":978:1002  if (c == \"D\") return 500 */\n      tag_39\n      jumpi\n        /* \"contracts/RomanToInt.sol\":999:1002  500 */\n      0x01f4\n        /* \"contracts/RomanToInt.sol\":992:1002  return 500 */\n      swap1\n      pop\n      jump(tag_33)\n        /* \"contracts/RomanToInt.sol\":978:1002  if (c == \"D\") return 500 */\n    tag_39:\n        /* \"contracts/RomanToInt.sol\":1016:1024  c == \"M\" */\n      0x4d00000000000000000000000000000000000000000000000000000000000000\n        /* \"contracts/RomanToInt.sol\":1016:1017  c */\n      dup3\n        /* \"contracts/RomanToInt.sol\":1016:1024  c == \"M\" */\n      not(0xffffffffffffffffffffffffffffffffffffffffffffffffffffffffffffff)\n      and\n      sub\n        /* \"contracts/RomanToInt.sol\":1012:1037  if (c == \"M\") return 1000 */\n      tag_40\n      jumpi\n        /* \"contracts/RomanToInt.sol\":1033:1037  1000 */\n      0x03e8\n        /* \"contracts/RomanToInt.sol\":1026:1037  return 1000 */\n      swap1\n      pop\n      jump(tag_33)\n        /* \"contracts/RomanToInt.sol\":1012:1037  if (c == \"M\") return 1000 */\n    tag_40:\n        /* \"contracts/RomanToInt.sol\":1047:1080  revert(\"Invalid Roman character\") */\n      mload(0x40)\n      0x08c379a000000000000000000000000000000000000000000000000000000000\n      dup2\n      mstore\n      0x04\n      add\n      tag_41\n      swap1\n      tag_42\n      jump\t// in\n    tag_41:\n      mload(0x40)\n      dup1\n      swap2\n      sub\n      swap1\n      revert\n        /* \"contracts/RomanToInt.sol\":749:1087  function valueOf(bytes1 c) private pure returns (uint) {... */\n    tag_33:\n      swap2\n      swap1\n      pop\n      jump\t// out\n        /* \"#utility.yul\":7:82   */\n    tag_43:\n        /* \"#utility.yul\":40:46   */\n      0x00\n        /* \"#utility.yul\":73:75   */\n      0x40\n        /* \"#utility.yul\":67:76   */\n      mload\n        /* \"#utility.yul\":57:76   */\n      swap1\n      pop\n        /* \"#utility.yul\":7:82   */\n      swap1\n      jump\t// out\n        /* \"#utility.yul\":88:205   */\n    tag_44:\n        /* \"#utility.yul\":197:198   */\n      0x00\n        /* \"#utility.yul\":194:195   */\n      0x00\n        /* \"#utility.yul\":187:199   */\n      revert\n        /* \"#utility.yul\":211:328   */\n    tag_45:\n        /* \"#utility.yul\":320:321   */\n      0x00\n        /* \"#utility.yul\":317:318   */\n      0x00\n        /* \"#utility.yul\":310:322   */\n      revert\n        /* \"#utility.yul\":334:451   */\n    tag_46:\n        /* \"#utility.yul\":443:444   */\n      0x00\n        /* \"#utility.yul\":440:441   */\n      0x00\n        /* \"#utility.yul\":433:445   */\n      revert\n        /* \"#utility.yul\":457:574   */\n    tag_47:\n        /* \"#utility.yul\":566:567   */\n      0x00\n        /* \"#utility.yul\":563:564   */\n      0x00\n        /* \"#utility.yul\":556:568   */\n      revert\n        /* \"#utility.yul\":580:682   */\n    tag_48:\n        /* \"#utility.yul\":621:627   */\n      0x00\n        /* \"#utility.yul\":672:674   */\n      0x1f\n        /* \"#utility.yul\":668:675   */\n      not\n        /* \"#utility.yul\":663:665   */\n      0x1f\n        /* \"#utility.yul\":656:661   */\n      dup4\n        /* \"#utility.yul\":652:666   */\n      add\n        /* \"#utility.yul\":648:676   */\n      and\n        /* \"#utility.yul\":638:676   */\n      swap1\n      pop\n        /* \"#utility.yul\":580:682   */\n      swap2\n      swap1\n      pop\n      jump\t// out\n        /* \"#utility.yul\":688:868   */\n    tag_49:\n        /* \"#utility.yul\":736:813   */\n      0x4e487b7100000000000000000000000000000000000000000000000000000000\n        /* \"#utility.yul\":733:734   */\n      0x00\n        /* \"#utility.yul\":726:814   */\n      mstore\n        /* \"#utility.yul\":833:837   */\n      0x41\n        /* \"#utility.yul\":830:831   */\n      0x04\n        /* \"#utility.yul\":823:838   */\n      mstore\n        /* \"#utility.yul\":857:861   */\n      0x24\n        /* \"#utility.yul\":854:855   */\n      0x00\n        /* \"#utility.yul\":847:862   */\n      revert\n        /* \"#utility.yul\":874:1155   */\n    tag_50:\n        /* \"#utility.yul\":957:984   */\n      tag_71\n        /* \"#utility.yul\":979:983   */\n      dup3\n        /* \"#utility.yul\":957:984   */\n      tag_48\n      jump\t// in\n    tag_71:\n        /* \"#utility.yul\":949:955   */\n      dup2\n        /* \"#utility.yul\":945:985   */\n      add\n        /* \"#utility.yul\":1087:1093   */\n      dup2\n        /* \"#utility.yul\":1075:1085   */\n      dup2\n        /* \"#utility.yul\":1072:1094   */\n      lt\n        /* \"#utility.yul\":1051:1069   */\n      0xffffffffffffffff\n        /* \"#utility.yul\":1039:1049   */\n      dup3\n        /* \"#utility.yul\":1036:1070   */\n      gt\n        /* \"#utility.yul\":1033:1095   */\n      or\n        /* \"#utility.yul\":1030:1118   */\n      iszero\n      tag_72\n      jumpi\n        /* \"#utility.yul\":1098:1116   */\n      tag_73\n      tag_49\n      jump\t// in\n    tag_73:\n        /* \"#utility.yul\":1030:1118   */\n    tag_72:\n        /* \"#utility.yul\":1138:1148   */\n      dup1\n        /* \"#utility.yul\":1134:1136   */\n      0x40\n        /* \"#utility.yul\":1127:1149   */\n      mstore\n        /* \"#utility.yul\":917:1155   */\n      pop\n        /* \"#utility.yul\":874:1155   */\n      pop\n      pop\n      jump\t// out\n        /* \"#utility.yul\":1161:1290   */\n    tag_51:\n        /* \"#utility.yul\":1195:1201   */\n      0x00\n        /* \"#utility.yul\":1222:1242   */\n      tag_75\n      tag_43\n      jump\t// in\n    tag_75:\n        /* \"#utility.yul\":1212:1242   */\n      swap1\n      pop\n        /* \"#utility.yul\":1251:1284   */\n      tag_76\n        /* \"#utility.yul\":1279:1283   */\n      dup3\n        /* \"#utility.yul\":1271:1277   */\n      dup3\n        /* \"#utility.yul\":1251:1284   */\n      tag_50\n      jump\t// in\n    tag_76:\n        /* \"#utility.yul\":1161:1290   */\n      swap2\n      swap1\n      pop\n      jump\t// out\n        /* \"#utility.yul\":1296:1604   */\n    tag_52:\n        /* \"#utility.yul\":1358:1362   */\n      0x00\n        /* \"#utility.yul\":1448:1466   */\n      0xffffffffffffffff\n        /* \"#utility.yul\":1440:1446   */\n      dup3\n        /* \"#utility.yul\":1437:1467   */\n      gt\n        /* \"#utility.yul\":1434:1490   */\n      iszero\n      tag_78\n      jumpi\n        /* \"#utility.yul\":1470:1488   */\n      tag_79\n      tag_49\n      jump\t// in\n    tag_79:\n        /* \"#utility.yul\":1434:1490   */\n    tag_78:\n        /* \"#utility.yul\":1508:1537   */\n      tag_80\n        /* \"#utility.yul\":1530:1536   */\n      dup3\n        /* \"#utility.yul\":1508:1537   */\n      tag_48\n      jump\t// in\n    tag_80:\n        /* \"#utility.yul\":1500:1537   */\n      swap1\n      pop\n        /* \"#utility.yul\":1592:1596   */\n      0x20\n        /* \"#utility.yul\":1586:1590   */\n      dup2\n        /* \"#utility.yul\":1582:1597   */\n      add\n        /* \"#utility.yul\":1574:1597   */\n      swap1\n      pop\n        /* \"#utility.yul\":1296:1604   */\n      swap2\n      swap1\n      pop\n      jump\t// out\n        /* \"#utility.yul\":1610:1758   */\n    tag_53:\n        /* \"#utility.yul\":1708:1714   */\n      dup3\n        /* \"#utility.yul\":1703:1706   */\n      dup2\n        /* \"#utility.yul\":1698:1701   */\n      dup4\n        /* \"#utility.yul\":1685:1715   */\n      calldatacopy\n        /* \"#utility.yul\":1749:1750   */\n      0x00\n        /* \"#utility.yul\":1740:1746   */\n      dup4\n        /* \"#utility.yul\":1735:1738   */\n      dup4\n        /* \"#utility.yul\":1731:1747   */\n      add\n        /* \"#utility.yul\":1724:1751   */\n      mstore\n        /* \"#utility.yul\":1610:1758   */\n      pop\n      pop\n      pop\n      jump\t// out\n        /* \"#utility.yul\":1764:2189   */\n    tag_54:\n        /* \"#utility.yul\":1842:1847   */\n      0x00\n        /* \"#utility.yul\":1867:1933   */\n      tag_83\n        /* \"#utility.yul\":1883:1932   */\n      tag_84\n        /* \"#utility.yul\":1925:1931   */\n      dup5\n        /* \"#utility.yul\":1883:1932   */\n      tag_52\n      jump\t// in\n    tag_84:\n        /* \"#utility.yul\":1867:1933   */\n      tag_51\n      jump\t// in\n    tag_83:\n        /* \"#utility.yul\":1858:1933   */\n      swap1\n      pop\n        /* \"#utility.yul\":1956:1962   */\n      dup3\n        /* \"#utility.yul\":1949:1954   */\n      dup2\n        /* \"#utility.yul\":1942:1963   */\n      mstore\n        /* \"#utility.yul\":1994:1998   */\n      0x20\n        /* \"#utility.yul\":1987:1992   */\n      dup2\n        /* \"#utility.yul\":1983:1999   */\n      add\n        /* \"#utility.yul\":2032:2035   */\n      dup5\n        /* \"#utility.yul\":2023:2029   */\n      dup5\n        /* \"#utility.yul\":2018:2021   */\n      dup5\n        /* \"#utility.yul\":2014:2030   */\n      add\n        /* \"#utility.yul\":2011:2036   */\n      gt\n        /* \"#utility.yul\":2008:2120   */\n      iszero\n      tag_85\n      jumpi\n        /* \"#utility.yul\":2039:2118   */\n      tag_86\n      tag_47\n      jump\t// in\n    tag_86:\n        /* \"#utility.yul\":2008:2120   */\n    tag_85:\n        /* \"#utility.yul\":2129:2183   */\n      tag_87\n        /* \"#utility.yul\":2176:2182   */\n      dup5\n        /* \"#utility.yul\":2171:2174   */\n      dup3\n        /* \"#utility.yul\":2166:2169   */\n      dup6\n        /* \"#utility.yul\":2129:2183   */\n      tag_53\n      jump\t// in\n    tag_87:\n        /* \"#utility.yul\":1848:2189   */\n      pop\n        /* \"#utility.yul\":1764:2189   */\n      swap4\n      swap3\n      pop\n      pop\n      pop\n      jump\t// out\n        /* \"#utility.yul\":2209:2549   */\n    tag_55:\n        /* \"#utility.yul\":2265:2270   */\n      0x00\n        /* \"#utility.yul\":2314:2317   */\n      dup3\n        /* \"#utility.yul\":2307:2311   */\n      0x1f\n        /* \"#utility.yul\":2299:2305   */\n      dup4\n        /* \"#utility.yul\":2295:2312   */\n      add\n        /* \"#utility.yul\":2291:2318   */\n      slt\n        /* \"#utility.yul\":2281:2403   */\n      tag_89\n      jumpi\n        /* \"#utility.yul\":2322:2401   */\n      tag_90\n      tag_46\n      jump\t// in\n    tag_90:\n        /* \"#utility.yul\":2281:2403   */\n    tag_89:\n        /* \"#utility.yul\":2439:2445   */\n      dup2\n        /* \"#utility.yul\":2426:2446   */\n      calldataload\n        /* \"#utility.yul\":2464:2543   */\n      tag_91\n        /* \"#utility.yul\":2539:2542   */\n      dup5\n        /* \"#utility.yul\":2531:2537   */\n      dup3\n        /* \"#utility.yul\":2524:2528   */\n      0x20\n        /* \"#utility.yul\":2516:2522   */\n      dup7\n        /* \"#utility.yul\":2512:2529   */\n      add\n        /* \"#utility.yul\":2464:2543   */\n      tag_54\n      jump\t// in\n    tag_91:\n        /* \"#utility.yul\":2455:2543   */\n      swap2\n      pop\n        /* \"#utility.yul\":2271:2549   */\n      pop\n        /* \"#utility.yul\":2209:2549   */\n      swap3\n      swap2\n      pop\n      pop\n      jump\t// out\n        /* \"#utility.yul\":2555:3064   */\n    tag_6:\n        /* \"#utility.yul\":2624:2630   */\n      0x00\n        /* \"#utility.yul\":2673:2675   */\n      0x20\n        /* \"#utility.yul\":2661:2670   */\n      dup3\n        /* \"#utility.yul\":2652:2659   */\n      dup5\n        /* \"#utility.yul\":2648:2671   */\n      sub\n        /* \"#utility.yul\":2644:2676   */\n      slt\n        /* \"#utility.yul\":2641:2760   */\n      iszero\n      tag_93\n      jumpi\n        /* \"#utility.yul\":2679:2758   */\n      tag_94\n      tag_44\n      jump\t// in\n    tag_94:\n        /* \"#utility.yul\":2641:2760   */\n    tag_93:\n        /* \"#utility.yul\":2827:2828   */\n      0x00\n        /* \"#utility.yul\":2816:2825   */\n      dup3\n        /* \"#utility.yul\":2812:2829   */\n      add\n        /* \"#utility.yul\":2799:2830   */\n      calldataload\n        /* \"#utility.yul\":2857:2875   */\n      0xffffffffffffffff\n        /* \"#utility.yul\":2849:2855   */\n      dup2\n        /* \"#utility.yul\":2846:2876   */\n      gt\n        /* \"#utility.yul\":2843:2960   */\n      iszero\n      tag_95\n      jumpi\n        /* \"#utility.yul\":2879:2958   */\n      tag_96\n      tag_45\n      jump\t// in\n    tag_96:\n        /* \"#utility.yul\":2843:2960   */\n    tag_95:\n        /* \"#utility.yul\":2984:3047   */\n      tag_97\n        /* \"#utility.yul\":3039:3046   */\n      dup5\n        /* \"#utility.yul\":3030:3036   */\n      dup3\n        /* \"#utility.yul\":3019:3028   */\n      dup6\n        /* \"#utility.yul\":3015:3037   */\n      add\n        /* \"#utility.yul\":2984:3047   */\n      tag_55\n      jump\t// in\n    tag_97:\n        /* \"#utility.yul\":2974:3047   */\n      swap2\n      pop\n        /* \"#utility.yul\":2770:3057   */\n      pop\n        /* \"#utility.yul\":2555:3064   */\n      swap3\n      swap2\n      pop\n      pop\n      jump\t// out\n        /* \"#utility.yul\":3070:3147   */\n    tag_56:\n        /* \"#utility.yul\":3107:3114   */\n      0x00\n        /* \"#utility.yul\":3136:3141   */\n      dup2\n        /* \"#utility.yul\":3125:3141   */\n      swap1\n      pop\n        /* \"#utility.yul\":3070:3147   */\n      swap2\n      swap1\n      pop\n      jump\t// out\n        /* \"#utility.yul\":3153:3271   */\n    tag_57:\n        /* \"#utility.yul\":3240:3264   */\n      tag_100\n        /* \"#utility.yul\":3258:3263   */\n      dup2\n        /* \"#utility.yul\":3240:3264   */\n      tag_56\n      jump\t// in\n    tag_100:\n        /* \"#utility.yul\":3235:3238   */\n      dup3\n        /* \"#utility.yul\":3228:3265   */\n      mstore\n        /* \"#utility.yul\":3153:3271   */\n      pop\n      pop\n      jump\t// out\n        /* \"#utility.yul\":3277:3499   */\n    tag_9:\n        /* \"#utility.yul\":3370:3374   */\n      0x00\n        /* \"#utility.yul\":3408:3410   */\n      0x20\n        /* \"#utility.yul\":3397:3406   */\n      dup3\n        /* \"#utility.yul\":3393:3411   */\n      add\n        /* \"#utility.yul\":3385:3411   */\n      swap1\n      pop\n        /* \"#utility.yul\":3421:3492   */\n      tag_102\n        /* \"#utility.yul\":3489:3490   */\n      0x00\n        /* \"#utility.yul\":3478:3487   */\n      dup4\n        /* \"#utility.yul\":3474:3491   */\n      add\n        /* \"#utility.yul\":3465:3471   */\n      dup5\n        /* \"#utility.yul\":3421:3492   */\n      tag_57\n      jump\t// in\n    tag_102:\n        /* \"#utility.yul\":3277:3499   */\n      swap3\n      swap2\n      pop\n      pop\n      jump\t// out\n        /* \"#utility.yul\":3505:3685   */\n    tag_16:\n        /* \"#utility.yul\":3553:3630   */\n      0x4e487b7100000000000000000000000000000000000000000000000000000000\n        /* \"#utility.yul\":3550:3551   */\n      0x00\n        /* \"#utility.yul\":3543:3631   */\n      mstore\n        /* \"#utility.yul\":3650:3654   */\n      0x32\n        /* \"#utility.yul\":3647:3648   */\n      0x04\n        /* \"#utility.yul\":3640:3655   */\n      mstore\n        /* \"#utility.yul\":3674:3678   */\n      0x24\n        /* \"#utility.yul\":3671:3672   */\n      0x00\n        /* \"#utility.yul\":3664:3679   */\n      revert\n        /* \"#utility.yul\":3691:3871   */\n    tag_58:\n        /* \"#utility.yul\":3739:3816   */\n      0x4e487b7100000000000000000000000000000000000000000000000000000000\n        /* \"#utility.yul\":3736:3737   */\n      0x00\n        /* \"#utility.yul\":3729:3817   */\n      mstore\n        /* \"#utility.yul\":3836:3840   */\n      0x11\n        /* \"#utility.yul\":3833:3834   */\n      0x04\n        /* \"#utility.yul\":3826:3841   */\n      mstore\n        /* \"#utility.yul\":3860:3864   */\n      0x24\n        /* \"#utility.yul\":3857:3858   */\n      0x00\n        /* \"#utility.yul\":3850:3865   */\n      revert\n        /* \"#utility.yul\":3877:4068   */\n    tag_19:\n        /* \"#utility.yul\":3917:3920   */\n      0x00\n        /* \"#utility.yul\":3936:3956   */\n      tag_106\n        /* \"#utility.yul\":3954:3955   */\n      dup3\n        /* \"#utility.yul\":3936:3956   */\n      tag_56\n      jump\t// in\n    tag_106:\n        /* \"#utility.yul\":3931:3956   */\n      swap2\n      pop\n        /* \"#utility.yul\":3970:3990   */\n      tag_107\n        /* \"#utility.yul\":3988:3989   */\n      dup4\n        /* \"#utility.yul\":3970:3990   */\n      tag_56\n      jump\t// in\n    tag_107:\n        /* \"#utility.yul\":3965:3990   */\n      swap3\n      pop\n        /* \"#utility.yul\":4013:4014   */\n      dup3\n        /* \"#utility.yul\":4010:4011   */\n      dup3\n        /* \"#utility.yul\":4006:4015   */\n      add\n        /* \"#utility.yul\":3999:4015   */\n      swap1\n      pop\n        /* \"#utility.yul\":4034:4037   */\n      dup1\n        /* \"#utility.yul\":4031:4032   */\n      dup3\n        /* \"#utility.yul\":4028:4038   */\n      gt\n        /* \"#utility.yul\":4025:4061   */\n      iszero\n      tag_108\n      jumpi\n        /* \"#utility.yul\":4041:4059   */\n      tag_109\n      tag_58\n      jump\t// in\n    tag_109:\n        /* \"#utility.yul\":4025:4061   */\n    tag_108:\n        /* \"#utility.yul\":3877:4068   */\n      swap3\n      swap2\n      pop\n      pop\n      jump\t// out\n        /* \"#utility.yul\":4074:4268   */\n    tag_27:\n        /* \"#utility.yul\":4114:4118   */\n      0x00\n        /* \"#utility.yul\":4134:4154   */\n      tag_111\n        /* \"#utility.yul\":4152:4153   */\n      dup3\n        /* \"#utility.yul\":4134:4154   */\n      tag_56\n      jump\t// in\n    tag_111:\n        /* \"#utility.yul\":4129:4154   */\n      swap2\n      pop\n        /* \"#utility.yul\":4168:4188   */\n      tag_112\n        /* \"#utility.yul\":4186:4187   */\n      dup4\n        /* \"#utility.yul\":4168:4188   */\n      tag_56\n      jump\t// in\n    tag_112:\n        /* \"#utility.yul\":4163:4188   */\n      swap3\n      pop\n        /* \"#utility.yul\":4212:4213   */\n      dup3\n        /* \"#utility.yul\":4209:4210   */\n      dup3\n        /* \"#utility.yul\":4205:4214   */\n      sub\n        /* \"#utility.yul\":4197:4214   */\n      swap1\n      pop\n        /* \"#utility.yul\":4236:4237   */\n      dup2\n        /* \"#utility.yul\":4230:4234   */\n      dup2\n        /* \"#utility.yul\":4227:4238   */\n      gt\n        /* \"#utility.yul\":4224:4261   */\n      iszero\n      tag_113\n      jumpi\n        /* \"#utility.yul\":4241:4259   */\n      tag_114\n      tag_58\n      jump\t// in\n    tag_114:\n        /* \"#utility.yul\":4224:4261   */\n    tag_113:\n        /* \"#utility.yul\":4074:4268   */\n      swap3\n      swap2\n      pop\n      pop\n      jump\t// out\n        /* \"#utility.yul\":4274:4507   */\n    tag_32:\n        /* \"#utility.yul\":4313:4316   */\n      0x00\n        /* \"#utility.yul\":4336:4360   */\n      tag_116\n        /* \"#utility.yul\":4354:4359   */\n      dup3\n        /* \"#utility.yul\":4336:4360   */\n      tag_56\n      jump\t// in\n    tag_116:\n        /* \"#utility.yul\":4327:4360   */\n      swap2\n      pop\n        /* \"#utility.yul\":4382:4448   */\n      0xffffffffffffffffffffffffffffffffffffffffffffffffffffffffffffffff\n        /* \"#utility.yul\":4375:4380   */\n      dup3\n        /* \"#utility.yul\":4372:4449   */\n      sub\n        /* \"#utility.yul\":4369:4472   */\n      tag_117\n      jumpi\n        /* \"#utility.yul\":4452:4470   */\n      tag_118\n      tag_58\n      jump\t// in\n    tag_118:\n        /* \"#utility.yul\":4369:4472   */\n    tag_117:\n        /* \"#utility.yul\":4499:4500   */\n      0x01\n        /* \"#utility.yul\":4492:4497   */\n      dup3\n        /* \"#utility.yul\":4488:4501   */\n      add\n        /* \"#utility.yul\":4481:4501   */\n      swap1\n      pop\n        /* \"#utility.yul\":4274:4507   */\n      swap2\n      swap1\n      pop\n      jump\t// out\n        /* \"#utility.yul\":4513:4682   */\n    tag_59:\n        /* \"#utility.yul\":4597:4608   */\n      0x00\n        /* \"#utility.yul\":4631:4637   */\n      dup3\n        /* \"#utility.yul\":4626:4629   */\n      dup3\n        /* \"#utility.yul\":4619:4638   */\n      mstore\n        /* \"#utility.yul\":4671:4675   */\n      0x20\n        /* \"#utility.yul\":4666:4669   */\n      dup3\n        /* \"#utility.yul\":4662:4676   */\n      add\n        /* \"#utility.yul\":4647:4676   */\n      swap1\n      pop\n        /* \"#utility.yul\":4513:4682   */\n      swap3\n      swap2\n      pop\n      pop\n      jump\t// out\n        /* \"#utility.yul\":4688:4861   */\n    tag_60:\n        /* \"#utility.yul\":4828:4853   */\n      0x496e76616c696420526f6d616e20636861726163746572000000000000000000\n        /* \"#utility.yul\":4824:4825   */\n      0x00\n        /* \"#utility.yul\":4816:4822   */\n      dup3\n        /* \"#utility.yul\":4812:4826   */\n      add\n        /* \"#utility.yul\":4805:4854   */\n      mstore\n        /* \"#utility.yul\":4688:4861   */\n      pop\n      jump\t// out\n        /* \"#utility.yul\":4867:5233   */\n    tag_61:\n        /* \"#utility.yul\":5009:5012   */\n      0x00\n        /* \"#utility.yul\":5030:5097   */\n      tag_122\n        /* \"#utility.yul\":5094:5096   */\n      0x17\n        /* \"#utility.yul\":5089:5092   */\n      dup4\n        /* \"#utility.yul\":5030:5097   */\n      tag_59\n      jump\t// in\n    tag_122:\n        /* \"#utility.yul\":5023:5097   */\n      swap2\n      pop\n        /* \"#utility.yul\":5106:5199   */\n      tag_123\n        /* \"#utility.yul\":5195:5198   */\n      dup3\n        /* \"#utility.yul\":5106:5199   */\n      tag_60\n      jump\t// in\n    tag_123:\n        /* \"#utility.yul\":5224:5226   */\n      0x20\n        /* \"#utility.yul\":5219:5222   */\n      dup3\n        /* \"#utility.yul\":5215:5227   */\n      add\n        /* \"#utility.yul\":5208:5227   */\n      swap1\n      pop\n        /* \"#utility.yul\":4867:5233   */\n      swap2\n      swap1\n      pop\n      jump\t// out\n        /* \"#utility.yul\":5239:5658   */\n    tag_42:\n        /* \"#utility.yul\":5405:5409   */\n      0x00\n        /* \"#utility.yul\":5443:5445   */\n      0x20\n        /* \"#utility.yul\":5432:5441   */\n      dup3\n        /* \"#utility.yul\":5428:5446   */\n      add\n        /* \"#utility.yul\":5420:5446   */\n      swap1\n      pop\n        /* \"#utility.yul\":5492:5501   */\n      dup2\n        /* \"#utility.yul\":5486:5490   */\n      dup2\n        /* \"#utility.yul\":5482:5502   */\n      sub\n        /* \"#utility.yul\":5478:5479   */\n      0x00\n        /* \"#utility.yul\":5467:5476   */\n      dup4\n        /* \"#utility.yul\":5463:5480   */\n      add\n        /* \"#utility.yul\":5456:5503   */\n      mstore\n        /* \"#utility.yul\":5520:5651   */\n      tag_125\n        /* \"#utility.yul\":5646:5650   */\n      dup2\n        /* \"#utility.yul\":5520:5651   */\n      tag_61\n      jump\t// in\n    tag_125:\n        /* \"#utility.yul\":5512:5651   */\n      swap1\n      pop\n        /* \"#utility.yul\":5239:5658   */\n      swap2\n      swap1\n      pop\n      jump\t// out\n\n    auxdata: 0xa2646970667358221220558f5ff7b89792862e9931d0654916713d65c0feeb8517dac2de7197969dd05864736f6c634300081e0033\n}\n",
				"bytecode": {
					"linkReferences": {},
					"object": "6080604052348015600e575f5ffd5b506107488061001c5f395ff3fe608060405234801561000f575f5ffd5b5060043610610029575f3560e01c8063cb159dfe1461002d575b5f5ffd5b6100476004803603810190610042919061051b565b61005d565b604051610054919061057a565b60405180910390f35b5f5f8290505f5f90505f5f90505b8251811015610142575f61009b84838151811061008b5761008a610593565b5b602001015160f81c60f81b61014d565b905083516001836100ac91906105ed565b1015610120575f6100e5856001856100c491906105ed565b815181106100d5576100d4610593565b5b602001015160f81c60f81b61014d565b90508082101561011e5781816100fb9190610620565b8461010691906105ed565b935060028361011591906105ed565b9250505061006b565b505b808361012c91906105ed565b9250818061013990610653565b9250505061006b565b819350505050919050565b5f7f4900000000000000000000000000000000000000000000000000000000000000827effffffffffffffffffffffffffffffffffffffffffffffffffffffffffffff1916036101a057600190506103c9565b7f5600000000000000000000000000000000000000000000000000000000000000827effffffffffffffffffffffffffffffffffffffffffffffffffffffffffffff1916036101f257600590506103c9565b7f5800000000000000000000000000000000000000000000000000000000000000827effffffffffffffffffffffffffffffffffffffffffffffffffffffffffffff19160361024457600a90506103c9565b7f4c00000000000000000000000000000000000000000000000000000000000000827effffffffffffffffffffffffffffffffffffffffffffffffffffffffffffff19160361029657603290506103c9565b7f4300000000000000000000000000000000000000000000000000000000000000827effffffffffffffffffffffffffffffffffffffffffffffffffffffffffffff1916036102e857606490506103c9565b7f4400000000000000000000000000000000000000000000000000000000000000827effffffffffffffffffffffffffffffffffffffffffffffffffffffffffffff19160361033b576101f490506103c9565b7f4d00000000000000000000000000000000000000000000000000000000000000827effffffffffffffffffffffffffffffffffffffffffffffffffffffffffffff19160361038e576103e890506103c9565b6040517f08c379a00000000000000000000000000000000000000000000000000000000081526004016103c0906106f4565b60405180910390fd5b919050565b5f604051905090565b5f5ffd5b5f5ffd5b5f5ffd5b5f5ffd5b5f601f19601f8301169050919050565b7f4e487b71000000000000000000000000000000000000000000000000000000005f52604160045260245ffd5b61042d826103e7565b810181811067ffffffffffffffff8211171561044c5761044b6103f7565b5b80604052505050565b5f61045e6103ce565b905061046a8282610424565b919050565b5f67ffffffffffffffff821115610489576104886103f7565b5b610492826103e7565b9050602081019050919050565b828183375f83830152505050565b5f6104bf6104ba8461046f565b610455565b9050828152602081018484840111156104db576104da6103e3565b5b6104e684828561049f565b509392505050565b5f82601f830112610502576105016103df565b5b81356105128482602086016104ad565b91505092915050565b5f602082840312156105305761052f6103d7565b5b5f82013567ffffffffffffffff81111561054d5761054c6103db565b5b610559848285016104ee565b91505092915050565b5f819050919050565b61057481610562565b82525050565b5f60208201905061058d5f83018461056b565b92915050565b7f4e487b71000000000000000000000000000000000000000000000000000000005f52603260045260245ffd5b7f4e487b71000000000000000000000000000000000000000000000000000000005f52601160045260245ffd5b5f6105f782610562565b915061060283610562565b925082820190508082111561061a576106196105c0565b5b92915050565b5f61062a82610562565b915061063583610562565b925082820390508181111561064d5761064c6105c0565b5b92915050565b5f61065d82610562565b91507fffffffffffffffffffffffffffffffffffffffffffffffffffffffffffffffff820361068f5761068e6105c0565b5b600182019050919050565b5f82825260208201905092915050565b7f496e76616c696420526f6d616e206368617261637465720000000000000000005f82015250565b5f6106de60178361069a565b91506106e9826106aa565b602082019050919050565b5f6020820190508181035f83015261070b816106d2565b905091905056fea2646970667358221220558f5ff7b89792862e9931d0654916713d65c0feeb8517dac2de7197969dd05864736f6c634300081e0033",
					"opcodes": "PUSH1 0x80 PUSH1 0x40 MSTORE CALLVALUE DUP1 ISZERO PUSH1 0xE JUMPI PUSH0 PUSH0 REVERT JUMPDEST POP PUSH2 0x748 DUP1 PUSH2 0x1C PUSH0 CODECOPY PUSH0 RETURN INVALID PUSH1 0x80 PUSH1 0x40 MSTORE CALLVALUE DUP1 ISZERO PUSH2 0xF JUMPI PUSH0 PUSH0 REVERT JUMPDEST POP PUSH1 0x4 CALLDATASIZE LT PUSH2 0x29 JUMPI PUSH0 CALLDATALOAD PUSH1 0xE0 SHR DUP1 PUSH4 0xCB159DFE EQ PUSH2 0x2D JUMPI JUMPDEST PUSH0 PUSH0 REVERT JUMPDEST PUSH2 0x47 PUSH1 0x4 DUP1 CALLDATASIZE SUB DUP2 ADD SWAP1 PUSH2 0x42 SWAP2 SWAP1 PUSH2 0x51B JUMP JUMPDEST PUSH2 0x5D JUMP JUMPDEST PUSH1 0x40 MLOAD PUSH2 0x54 SWAP2 SWAP1 PUSH2 0x57A JUMP JUMPDEST PUSH1 0x40 MLOAD DUP1 SWAP2 SUB SWAP1 RETURN JUMPDEST PUSH0 PUSH0 DUP3 SWAP1 POP PUSH0 PUSH0 SWAP1 POP PUSH0 PUSH0 SWAP1 POP JUMPDEST DUP3 MLOAD DUP2 LT ISZERO PUSH2 0x142 JUMPI PUSH0 PUSH2 0x9B DUP5 DUP4 DUP2 MLOAD DUP2 LT PUSH2 0x8B JUMPI PUSH2 0x8A PUSH2 0x593 JUMP JUMPDEST JUMPDEST PUSH1 0x20 ADD ADD MLOAD PUSH1 0xF8 SHR PUSH1 0xF8 SHL PUSH2 0x14D JUMP JUMPDEST SWAP1 POP DUP4 MLOAD PUSH1 0x1 DUP4 PUSH2 0xAC SWAP2 SWAP1 PUSH2 0x5ED JUMP JUMPDEST LT ISZERO PUSH2 0x120 JUMPI PUSH0 PUSH2 0xE5 DUP6 PUSH1 0x1 DUP6 PUSH2 0xC4 SWAP2 SWAP1 PUSH2 0x5ED JUMP JUMPDEST DUP2 MLOAD DUP2 LT PUSH2 0xD5 JUMPI PUSH2 0xD4 PUSH2 0x593 JUMP JUMPDEST JUMPDEST PUSH1 0x20 ADD ADD MLOAD PUSH1 0xF8 SHR PUSH1 0xF8 SHL PUSH2 0x14D JUMP JUMPDEST SWAP1 POP DUP1 DUP3 LT ISZERO PUSH2 0x11E JUMPI DUP2 DUP2 PUSH2 0xFB SWAP2 SWAP1 PUSH2 0x620 JUMP JUMPDEST DUP5 PUSH2 0x106 SWAP2 SWAP1 PUSH2 0x5ED JUMP JUMPDEST SWAP4 POP PUSH1 0x2 DUP4 PUSH2 0x115 SWAP2 SWAP1 PUSH2 0x5ED JUMP JUMPDEST SWAP3 POP POP POP PUSH2 0x6B JUMP JUMPDEST POP JUMPDEST DUP1 DUP4 PUSH2 0x12C SWAP2 SWAP1 PUSH2 0x5ED JUMP JUMPDEST SWAP3 POP DUP2 DUP1 PUSH2 0x139 SWAP1 PUSH2 0x653 JUMP JUMPDEST SWAP3 POP POP POP PUSH2 0x6B JUMP JUMPDEST DUP2 SWAP4 POP POP POP POP SWAP2 SWAP1 POP JUMP JUMPDEST PUSH0 PUSH32 0x4900000000000000000000000000000000000000000000000000000000000000 DUP3 PUSH31 0xFFFFFFFFFFFFFFFFFFFFFFFFFFFFFFFFFFFFFFFFFFFFFFFFFFFFFFFFFFFFFF NOT AND SUB PUSH2 0x1A0 JUMPI PUSH1 0x1 SWAP1 POP PUSH2 0x3C9 JUMP JUMPDEST PUSH32 0x5600000000000000000000000000000000000000000000000000000000000000 DUP3 PUSH31 0xFFFFFFFFFFFFFFFFFFFFFFFFFFFFFFFFFFFFFFFFFFFFFFFFFFFFFFFFFFFFFF NOT AND SUB PUSH2 0x1F2 JUMPI PUSH1 0x5 SWAP1 POP PUSH2 0x3C9 JUMP JUMPDEST PUSH32 0x5800000000000000000000000000000000000000000000000000000000000000 DUP3 PUSH31 0xFFFFFFFFFFFFFFFFFFFFFFFFFFFFFFFFFFFFFFFFFFFFFFFFFFFFFFFFFFFFFF NOT AND SUB PUSH2 0x244 JUMPI PUSH1 0xA SWAP1 POP PUSH2 0x3C9 JUMP JUMPDEST PUSH32 0x4C00000000000000000000000000000000000000000000000000000000000000 DUP3 PUSH31 0xFFFFFFFFFFFFFFFFFFFFFFFFFFFFFFFFFFFFFFFFFFFFFFFFFFFFFFFFFFFFFF NOT AND SUB PUSH2 0x296 JUMPI PUSH1 0x32 SWAP1 POP PUSH2 0x3C9 JUMP JUMPDEST PUSH32 0x4300000000000000000000000000000000000000000000000000000000000000 DUP3 PUSH31 0xFFFFFFFFFFFFFFFFFFFFFFFFFFFFFFFFFFFFFFFFFFFFFFFFFFFFFFFFFFFFFF NOT AND SUB PUSH2 0x2E8 JUMPI PUSH1 0x64 SWAP1 POP PUSH2 0x3C9 JUMP JUMPDEST PUSH32 0x4400000000000000000000000000000000000000000000000000000000000000 DUP3 PUSH31 0xFFFFFFFFFFFFFFFFFFFFFFFFFFFFFFFFFFFFFFFFFFFFFFFFFFFFFFFFFFFFFF NOT AND SUB PUSH2 0x33B JUMPI PUSH2 0x1F4 SWAP1 POP PUSH2 0x3C9 JUMP JUMPDEST PUSH32 0x4D00000000000000000000000000000000000000000000000000000000000000 DUP3 PUSH31 0xFFFFFFFFFFFFFFFFFFFFFFFFFFFFFFFFFFFFFFFFFFFFFFFFFFFFFFFFFFFFFF NOT AND SUB PUSH2 0x38E JUMPI PUSH2 0x3E8 SWAP1 POP PUSH2 0x3C9 JUMP JUMPDEST PUSH1 0x40 MLOAD PUSH32 0x8C379A000000000000000000000000000000000000000000000000000000000 DUP2 MSTORE PUSH1 0x4 ADD PUSH2 0x3C0 SWAP1 PUSH2 0x6F4 JUMP JUMPDEST PUSH1 0x40 MLOAD DUP1 SWAP2 SUB SWAP1 REVERT JUMPDEST SWAP2 SWAP1 POP JUMP JUMPDEST PUSH0 PUSH1 0x40 MLOAD SWAP1 POP SWAP1 JUMP JUMPDEST PUSH0 PUSH0 REVERT JUMPDEST PUSH0 PUSH0 REVERT JUMPDEST PUSH0 PUSH0 REVERT JUMPDEST PUSH0 PUSH0 REVERT JUMPDEST PUSH0 PUSH1 0x1F NOT PUSH1 0x1F DUP4 ADD AND SWAP1 POP SWAP2 SWAP1 POP JUMP JUMPDEST PUSH32 0x4E487B7100000000000000000000000000000000000000000000000000000000 PUSH0 MSTORE PUSH1 0x41 PUSH1 0x4 MSTORE PUSH1 0x24 PUSH0 REVERT JUMPDEST PUSH2 0x42D DUP3 PUSH2 0x3E7 JUMP JUMPDEST DUP2 ADD DUP2 DUP2 LT PUSH8 0xFFFFFFFFFFFFFFFF DUP3 GT OR ISZERO PUSH2 0x44C JUMPI PUSH2 0x44B PUSH2 0x3F7 JUMP JUMPDEST JUMPDEST DUP1 PUSH1 0x40 MSTORE POP POP POP JUMP JUMPDEST PUSH0 PUSH2 0x45E PUSH2 0x3CE JUMP JUMPDEST SWAP1 POP PUSH2 0x46A DUP3 DUP3 PUSH2 0x424 JUMP JUMPDEST SWAP2 SWAP1 POP JUMP JUMPDEST PUSH0 PUSH8 0xFFFFFFFFFFFFFFFF DUP3 GT ISZERO PUSH2 0x489 JUMPI PUSH2 0x488 PUSH2 0x3F7 JUMP JUMPDEST JUMPDEST PUSH2 0x492 DUP3 PUSH2 0x3E7 JUMP JUMPDEST SWAP1 POP PUSH1 0x20 DUP2 ADD SWAP1 POP SWAP2 SWAP1 POP JUMP JUMPDEST DUP3 DUP2 DUP4 CALLDATACOPY PUSH0 DUP4 DUP4 ADD MSTORE POP POP POP JUMP JUMPDEST PUSH0 PUSH2 0x4BF PUSH2 0x4BA DUP5 PUSH2 0x46F JUMP JUMPDEST PUSH2 0x455 JUMP JUMPDEST SWAP1 POP DUP3 DUP2 MSTORE PUSH1 0x20 DUP2 ADD DUP5 DUP5 DUP5 ADD GT ISZERO PUSH2 0x4DB JUMPI PUSH2 0x4DA PUSH2 0x3E3 JUMP JUMPDEST JUMPDEST PUSH2 0x4E6 DUP5 DUP3 DUP6 PUSH2 0x49F JUMP JUMPDEST POP SWAP4 SWAP3 POP POP POP JUMP JUMPDEST PUSH0 DUP3 PUSH1 0x1F DUP4 ADD SLT PUSH2 0x502 JUMPI PUSH2 0x501 PUSH2 0x3DF JUMP JUMPDEST JUMPDEST DUP2 CALLDATALOAD PUSH2 0x512 DUP5 DUP3 PUSH1 0x20 DUP7 ADD PUSH2 0x4AD JUMP JUMPDEST SWAP2 POP POP SWAP3 SWAP2 POP POP JUMP JUMPDEST PUSH0 PUSH1 0x20 DUP3 DUP5 SUB SLT ISZERO PUSH2 0x530 JUMPI PUSH2 0x52F PUSH2 0x3D7 JUMP JUMPDEST JUMPDEST PUSH0 DUP3 ADD CALLDATALOAD PUSH8 0xFFFFFFFFFFFFFFFF DUP2 GT ISZERO PUSH2 0x54D JUMPI PUSH2 0x54C PUSH2 0x3DB JUMP JUMPDEST JUMPDEST PUSH2 0x559 DUP5 DUP3 DUP6 ADD PUSH2 0x4EE JUMP JUMPDEST SWAP2 POP POP SWAP3 SWAP2 POP POP JUMP JUMPDEST PUSH0 DUP2 SWAP1 POP SWAP2 SWAP1 POP JUMP JUMPDEST PUSH2 0x574 DUP2 PUSH2 0x562 JUMP JUMPDEST DUP3 MSTORE POP POP JUMP JUMPDEST PUSH0 PUSH1 0x20 DUP3 ADD SWAP1 POP PUSH2 0x58D PUSH0 DUP4 ADD DUP5 PUSH2 0x56B JUMP JUMPDEST SWAP3 SWAP2 POP POP JUMP JUMPDEST PUSH32 0x4E487B7100000000000000000000000000000000000000000000000000000000 PUSH0 MSTORE PUSH1 0x32 PUSH1 0x4 MSTORE PUSH1 0x24 PUSH0 REVERT JUMPDEST PUSH32 0x4E487B7100000000000000000000000000000000000000000000000000000000 PUSH0 MSTORE PUSH1 0x11 PUSH1 0x4 MSTORE PUSH1 0x24 PUSH0 REVERT JUMPDEST PUSH0 PUSH2 0x5F7 DUP3 PUSH2 0x562 JUMP JUMPDEST SWAP2 POP PUSH2 0x602 DUP4 PUSH2 0x562 JUMP JUMPDEST SWAP3 POP DUP3 DUP3 ADD SWAP1 POP DUP1 DUP3 GT ISZERO PUSH2 0x61A JUMPI PUSH2 0x619 PUSH2 0x5C0 JUMP JUMPDEST JUMPDEST SWAP3 SWAP2 POP POP JUMP JUMPDEST PUSH0 PUSH2 0x62A DUP3 PUSH2 0x562 JUMP JUMPDEST SWAP2 POP PUSH2 0x635 DUP4 PUSH2 0x562 JUMP JUMPDEST SWAP3 POP DUP3 DUP3 SUB SWAP1 POP DUP2 DUP2 GT ISZERO PUSH2 0x64D JUMPI PUSH2 0x64C PUSH2 0x5C0 JUMP JUMPDEST JUMPDEST SWAP3 SWAP2 POP POP JUMP JUMPDEST PUSH0 PUSH2 0x65D DUP3 PUSH2 0x562 JUMP JUMPDEST SWAP2 POP PUSH32 0xFFFFFFFFFFFFFFFFFFFFFFFFFFFFFFFFFFFFFFFFFFFFFFFFFFFFFFFFFFFFFFFF DUP3 SUB PUSH2 0x68F JUMPI PUSH2 0x68E PUSH2 0x5C0 JUMP JUMPDEST JUMPDEST PUSH1 0x1 DUP3 ADD SWAP1 POP SWAP2 SWAP1 POP JUMP JUMPDEST PUSH0 DUP3 DUP3 MSTORE PUSH1 0x20 DUP3 ADD SWAP1 POP SWAP3 SWAP2 POP POP JUMP JUMPDEST PUSH32 0x496E76616C696420526F6D616E20636861726163746572000000000000000000 PUSH0 DUP3 ADD MSTORE POP JUMP JUMPDEST PUSH0 PUSH2 0x6DE PUSH1 0x17 DUP4 PUSH2 0x69A JUMP JUMPDEST SWAP2 POP PUSH2 0x6E9 DUP3 PUSH2 0x6AA JUMP JUMPDEST PUSH1 0x20 DUP3 ADD SWAP1 POP SWAP2 SWAP1 POP JUMP JUMPDEST PUSH0 PUSH1 0x20 DUP3 ADD SWAP1 POP DUP2 DUP2 SUB PUSH0 DUP4 ADD MSTORE PUSH2 0x70B DUP2 PUSH2 0x6D2 JUMP JUMPDEST SWAP1 POP SWAP2 SWAP1 POP JUMP INVALID LOG2 PUSH5 0x6970667358 0x22 SLT KECCAK256 SSTORE DUP16 PUSH0 0xF7 0xB8 SWAP8 SWAP3 DUP7 0x2E SWAP10 BALANCE 0xD0 PUSH6 0x4916713D65C0 INVALID 0xEB DUP6 OR 0xDA 0xC2 0xDE PUSH18 0x97969DD05864736F6C634300081E00330000 "
				},
				"gasEstimates": {
					"creation": {
						"codeDepositCost": "372800",
						"executionCost": "409",
						"totalCost": "373209"
					},
					"external": {
						"romanToInt(string)": "infinite"
					},
					"internal": {
						"valueOf(bytes1)": "infinite"
					}
				},
				"methodIdentifiers": {
					"romanToInt(string)": "cb159dfe"
				}
			},
			"storageLayout": {
				"storage": [],
				"types": null
			},
			"userdoc": {
				"kind": "user",
				"methods": {},
				"version": 1
			}
		}
	}
}