{
	"contracts/OptimizedContract.sol": {
		"UnoptimizedContract": {
			"abi": [
				{
					"inputs": [
						{
							"internalType": "uint256",
							"name": "",
							"type": "uint256"
						}
					],
					"name": "array",
					"outputs": [
						{
							"internalType": "uint256",
							"name": "",
							"type": "uint256"
						}
					],
					"stateMutability": "view",
					"type": "function"
				},
				{
					"inputs": [],
					"name": "getLength",
					"outputs": [
						{
							"internalType": "uint256",
							"name": "",
							"type": "uint256"
						}
					],
					"stateMutability": "view",
					"type": "function"
				},
				{
					"inputs": [
						{
							"internalType": "uint256[]",
							"name": "data",
							"type": "uint256[]"
						}
					],
					"name": "processArray",
					"outputs": [],
					"stateMutability": "nonpayable",
					"type": "function"
				}
			],
			"devdoc": {
				"kind": "dev",
				"methods": {},
				"version": 1
			},
			"evm": {
				"assembly": "    /* \"contracts/OptimizedContract.sol\":58:776  contract UnoptimizedContract {... */\n  mstore(0x40, 0x80)\n  callvalue\n  dup1\n  iszero\n  tag_1\n  jumpi\n  revert(0x00, 0x00)\ntag_1:\n  pop\n  dataSize(sub_0)\n  dup1\n  dataOffset(sub_0)\n  0x00\n  codecopy\n  0x00\n  return\nstop\n\nsub_0: assembly {\n        /* \"contracts/OptimizedContract.sol\":58:776  contract UnoptimizedContract {... */\n      mstore(0x40, 0x80)\n      callvalue\n      dup1\n      iszero\n      tag_1\n      jumpi\n      revert(0x00, 0x00)\n    tag_1:\n      pop\n      jumpi(tag_2, lt(calldatasize, 0x04))\n      shr(0xe0, calldataload(0x00))\n      dup1\n      0x38d94193\n      eq\n      tag_3\n      jumpi\n      dup1\n      0xbe1c766b\n      eq\n      tag_4\n      jumpi\n      dup1\n      0xe7e23780\n      eq\n      tag_5\n      jumpi\n    tag_2:\n      revert(0x00, 0x00)\n        /* \"contracts/OptimizedContract.sol\":93:115  uint256[] public array */\n    tag_3:\n      tag_6\n      0x04\n      dup1\n      calldatasize\n      sub\n      dup2\n      add\n      swap1\n      tag_7\n      swap2\n      swap1\n      tag_8\n      jump\t// in\n    tag_7:\n      tag_9\n      jump\t// in\n    tag_6:\n      mload(0x40)\n      tag_10\n      swap2\n      swap1\n      tag_11\n      jump\t// in\n    tag_10:\n      mload(0x40)\n      dup1\n      swap2\n      sub\n      swap1\n      return\n        /* \"contracts/OptimizedContract.sol\":526:774  function getLength() external view returns (uint256) {... */\n    tag_4:\n      tag_12\n      tag_13\n      jump\t// in\n    tag_12:\n      mload(0x40)\n      tag_14\n      swap2\n      swap1\n      tag_11\n      jump\t// in\n    tag_14:\n      mload(0x40)\n      dup1\n      swap2\n      sub\n      swap1\n      return\n        /* \"contracts/OptimizedContract.sol\":166:483  function processArray(... */\n    tag_5:\n      tag_15\n      0x04\n      dup1\n      calldatasize\n      sub\n      dup2\n      add\n      swap1\n      tag_16\n      swap2\n      swap1\n      tag_17\n      jump\t// in\n    tag_16:\n      tag_18\n      jump\t// in\n    tag_15:\n      stop\n        /* \"contracts/OptimizedContract.sol\":93:115  uint256[] public array */\n    tag_9:\n      0x00\n      dup2\n      dup2\n      sload\n      dup2\n      lt\n      tag_19\n      jumpi\n      0x00\n      dup1\n      revert\n    tag_19:\n      swap1\n      0x00\n      mstore\n      keccak256(0x00, 0x20)\n      add\n      0x00\n      swap2\n      pop\n      swap1\n      pop\n      sload\n      dup2\n      jump\t// out\n        /* \"contracts/OptimizedContract.sol\":526:774  function getLength() external view returns (uint256) {... */\n    tag_13:\n        /* \"contracts/OptimizedContract.sol\":570:577  uint256 */\n      0x00\n        /* \"contracts/OptimizedContract.sol\":589:600  uint256 sum */\n      0x00\n        /* \"contracts/OptimizedContract.sol\":603:604  0 */\n      0x00\n        /* \"contracts/OptimizedContract.sol\":589:604  uint256 sum = 0 */\n      swap1\n      pop\n        /* \"contracts/OptimizedContract.sol\":614:625  uint256 len */\n      0x00\n        /* \"contracts/OptimizedContract.sol\":628:633  array */\n      0x00\n        /* \"contracts/OptimizedContract.sol\":628:640  array.length */\n      dup1\n      sload\n      swap1\n      pop\n        /* \"contracts/OptimizedContract.sol\":614:640  uint256 len = array.length */\n      swap1\n      pop\n        /* \"contracts/OptimizedContract.sol\":682:688  uint i */\n      0x00\n        /* \"contracts/OptimizedContract.sol\":691:692  0 */\n      0x00\n        /* \"contracts/OptimizedContract.sol\":682:692  uint i = 0 */\n      swap1\n      pop\n        /* \"contracts/OptimizedContract.sol\":677:748  for (uint i = 0; i < len; i++) {... */\n    tag_22:\n        /* \"contracts/OptimizedContract.sol\":698:701  len */\n      dup2\n        /* \"contracts/OptimizedContract.sol\":694:695  i */\n      dup2\n        /* \"contracts/OptimizedContract.sol\":694:701  i < len */\n      lt\n        /* \"contracts/OptimizedContract.sol\":677:748  for (uint i = 0; i < len; i++) {... */\n      iszero\n      tag_23\n      jumpi\n        /* \"contracts/OptimizedContract.sol\":729:734  array */\n      0x00\n        /* \"contracts/OptimizedContract.sol\":735:736  i */\n      dup2\n        /* \"contracts/OptimizedContract.sol\":729:737  array[i] */\n      dup2\n      sload\n      dup2\n      lt\n      tag_25\n      jumpi\n      tag_26\n      tag_27\n      jump\t// in\n    tag_26:\n    tag_25:\n      swap1\n      0x00\n      mstore\n      keccak256(0x00, 0x20)\n      add\n      sload\n        /* \"contracts/OptimizedContract.sol\":722:737  sum += array[i] */\n      dup4\n      tag_29\n      swap2\n      swap1\n      tag_30\n      jump\t// in\n    tag_29:\n      swap3\n      pop\n        /* \"contracts/OptimizedContract.sol\":703:706  i++ */\n      dup1\n      dup1\n      0x01\n      add\n      swap2\n      pop\n      pop\n        /* \"contracts/OptimizedContract.sol\":677:748  for (uint i = 0; i < len; i++) {... */\n      jump(tag_22)\n    tag_23:\n      pop\n        /* \"contracts/OptimizedContract.sol\":764:767  sum */\n      dup2\n        /* \"contracts/OptimizedContract.sol\":757:767  return sum */\n      swap3\n      pop\n      pop\n      pop\n        /* \"contracts/OptimizedContract.sol\":526:774  function getLength() external view returns (uint256) {... */\n      swap1\n      jump\t// out\n        /* \"contracts/OptimizedContract.sol\":166:483  function processArray(... */\n    tag_18:\n        /* \"contracts/OptimizedContract.sol\":284:295  uint256 len */\n      0x00\n        /* \"contracts/OptimizedContract.sol\":298:302  data */\n      dup3\n      dup3\n        /* \"contracts/OptimizedContract.sol\":298:309  data.length */\n      swap1\n      pop\n        /* \"contracts/OptimizedContract.sol\":284:309  uint256 len = data.length */\n      swap1\n      pop\n        /* \"contracts/OptimizedContract.sol\":407:413  uint i */\n      0x00\n        /* \"contracts/OptimizedContract.sol\":416:417  0 */\n      0x00\n        /* \"contracts/OptimizedContract.sol\":407:417  uint i = 0 */\n      swap1\n      pop\n        /* \"contracts/OptimizedContract.sol\":402:477  for (uint i = 0; i < len; i++) {... */\n    tag_32:\n        /* \"contracts/OptimizedContract.sol\":423:426  len */\n      dup2\n        /* \"contracts/OptimizedContract.sol\":419:420  i */\n      dup2\n        /* \"contracts/OptimizedContract.sol\":419:426  i < len */\n      lt\n        /* \"contracts/OptimizedContract.sol\":402:477  for (uint i = 0; i < len; i++) {... */\n      iszero\n      tag_33\n      jumpi\n        /* \"contracts/OptimizedContract.sol\":447:452  array */\n      0x00\n        /* \"contracts/OptimizedContract.sol\":458:462  data */\n      dup5\n      dup5\n        /* \"contracts/OptimizedContract.sol\":463:464  i */\n      dup4\n        /* \"contracts/OptimizedContract.sol\":458:465  data[i] */\n      dup2\n      dup2\n      lt\n      tag_35\n      jumpi\n      tag_36\n      tag_27\n      jump\t// in\n    tag_36:\n    tag_35:\n      swap1\n      pop\n      0x20\n      mul\n      add\n      calldataload\n        /* \"contracts/OptimizedContract.sol\":447:466  array.push(data[i]) */\n      swap1\n      dup1\n      0x01\n      dup2\n      sload\n      add\n      dup1\n      dup3\n      sstore\n      dup1\n      swap2\n      pop\n      pop\n      0x01\n      swap1\n      sub\n      swap1\n      0x00\n      mstore\n      keccak256(0x00, 0x20)\n      add\n      0x00\n      swap1\n      swap2\n      swap1\n      swap2\n      swap1\n      swap2\n      pop\n      sstore\n        /* \"contracts/OptimizedContract.sol\":428:431  i++ */\n      dup1\n      dup1\n      0x01\n      add\n      swap2\n      pop\n      pop\n        /* \"contracts/OptimizedContract.sol\":402:477  for (uint i = 0; i < len; i++) {... */\n      jump(tag_32)\n    tag_33:\n      pop\n        /* \"contracts/OptimizedContract.sol\":274:483  {... */\n      pop\n        /* \"contracts/OptimizedContract.sol\":166:483  function processArray(... */\n      pop\n      pop\n      jump\t// out\n        /* \"#utility.yul\":88:205   */\n    tag_39:\n        /* \"#utility.yul\":197:198   */\n      0x00\n        /* \"#utility.yul\":194:195   */\n      0x00\n        /* \"#utility.yul\":187:199   */\n      revert\n        /* \"#utility.yul\":211:328   */\n    tag_40:\n        /* \"#utility.yul\":320:321   */\n      0x00\n        /* \"#utility.yul\":317:318   */\n      0x00\n        /* \"#utility.yul\":310:322   */\n      revert\n        /* \"#utility.yul\":334:411   */\n    tag_41:\n        /* \"#utility.yul\":371:378   */\n      0x00\n        /* \"#utility.yul\":400:405   */\n      dup2\n        /* \"#utility.yul\":389:405   */\n      swap1\n      pop\n        /* \"#utility.yul\":334:411   */\n      swap2\n      swap1\n      pop\n      jump\t// out\n        /* \"#utility.yul\":417:539   */\n    tag_42:\n        /* \"#utility.yul\":490:514   */\n      tag_56\n        /* \"#utility.yul\":508:513   */\n      dup2\n        /* \"#utility.yul\":490:514   */\n      tag_41\n      jump\t// in\n    tag_56:\n        /* \"#utility.yul\":483:488   */\n      dup2\n        /* \"#utility.yul\":480:515   */\n      eq\n        /* \"#utility.yul\":470:533   */\n      tag_57\n      jumpi\n        /* \"#utility.yul\":529:530   */\n      0x00\n        /* \"#utility.yul\":526:527   */\n      0x00\n        /* \"#utility.yul\":519:531   */\n      revert\n        /* \"#utility.yul\":470:533   */\n    tag_57:\n        /* \"#utility.yul\":417:539   */\n      pop\n      jump\t// out\n        /* \"#utility.yul\":545:684   */\n    tag_43:\n        /* \"#utility.yul\":591:596   */\n      0x00\n        /* \"#utility.yul\":629:635   */\n      dup2\n        /* \"#utility.yul\":616:636   */\n      calldataload\n        /* \"#utility.yul\":607:636   */\n      swap1\n      pop\n        /* \"#utility.yul\":645:678   */\n      tag_59\n        /* \"#utility.yul\":672:677   */\n      dup2\n        /* \"#utility.yul\":645:678   */\n      tag_42\n      jump\t// in\n    tag_59:\n        /* \"#utility.yul\":545:684   */\n      swap3\n      swap2\n      pop\n      pop\n      jump\t// out\n        /* \"#utility.yul\":690:1019   */\n    tag_8:\n        /* \"#utility.yul\":749:755   */\n      0x00\n        /* \"#utility.yul\":798:800   */\n      0x20\n        /* \"#utility.yul\":786:795   */\n      dup3\n        /* \"#utility.yul\":777:784   */\n      dup5\n        /* \"#utility.yul\":773:796   */\n      sub\n        /* \"#utility.yul\":769:801   */\n      slt\n        /* \"#utility.yul\":766:885   */\n      iszero\n      tag_61\n      jumpi\n        /* \"#utility.yul\":804:883   */\n      tag_62\n      tag_39\n      jump\t// in\n    tag_62:\n        /* \"#utility.yul\":766:885   */\n    tag_61:\n        /* \"#utility.yul\":924:925   */\n      0x00\n        /* \"#utility.yul\":949:1002   */\n      tag_63\n        /* \"#utility.yul\":994:1001   */\n      dup5\n        /* \"#utility.yul\":985:991   */\n      dup3\n        /* \"#utility.yul\":974:983   */\n      dup6\n        /* \"#utility.yul\":970:992   */\n      add\n        /* \"#utility.yul\":949:1002   */\n      tag_43\n      jump\t// in\n    tag_63:\n        /* \"#utility.yul\":939:1002   */\n      swap2\n      pop\n        /* \"#utility.yul\":895:1012   */\n      pop\n        /* \"#utility.yul\":690:1019   */\n      swap3\n      swap2\n      pop\n      pop\n      jump\t// out\n        /* \"#utility.yul\":1025:1143   */\n    tag_44:\n        /* \"#utility.yul\":1112:1136   */\n      tag_65\n        /* \"#utility.yul\":1130:1135   */\n      dup2\n        /* \"#utility.yul\":1112:1136   */\n      tag_41\n      jump\t// in\n    tag_65:\n        /* \"#utility.yul\":1107:1110   */\n      dup3\n        /* \"#utility.yul\":1100:1137   */\n      mstore\n        /* \"#utility.yul\":1025:1143   */\n      pop\n      pop\n      jump\t// out\n        /* \"#utility.yul\":1149:1371   */\n    tag_11:\n        /* \"#utility.yul\":1242:1246   */\n      0x00\n        /* \"#utility.yul\":1280:1282   */\n      0x20\n        /* \"#utility.yul\":1269:1278   */\n      dup3\n        /* \"#utility.yul\":1265:1283   */\n      add\n        /* \"#utility.yul\":1257:1283   */\n      swap1\n      pop\n        /* \"#utility.yul\":1293:1364   */\n      tag_67\n        /* \"#utility.yul\":1361:1362   */\n      0x00\n        /* \"#utility.yul\":1350:1359   */\n      dup4\n        /* \"#utility.yul\":1346:1363   */\n      add\n        /* \"#utility.yul\":1337:1343   */\n      dup5\n        /* \"#utility.yul\":1293:1364   */\n      tag_44\n      jump\t// in\n    tag_67:\n        /* \"#utility.yul\":1149:1371   */\n      swap3\n      swap2\n      pop\n      pop\n      jump\t// out\n        /* \"#utility.yul\":1377:1494   */\n    tag_45:\n        /* \"#utility.yul\":1486:1487   */\n      0x00\n        /* \"#utility.yul\":1483:1484   */\n      0x00\n        /* \"#utility.yul\":1476:1488   */\n      revert\n        /* \"#utility.yul\":1500:1617   */\n    tag_46:\n        /* \"#utility.yul\":1609:1610   */\n      0x00\n        /* \"#utility.yul\":1606:1607   */\n      0x00\n        /* \"#utility.yul\":1599:1611   */\n      revert\n        /* \"#utility.yul\":1623:1740   */\n    tag_47:\n        /* \"#utility.yul\":1732:1733   */\n      0x00\n        /* \"#utility.yul\":1729:1730   */\n      0x00\n        /* \"#utility.yul\":1722:1734   */\n      revert\n        /* \"#utility.yul\":1763:2331   */\n    tag_48:\n        /* \"#utility.yul\":1836:1844   */\n      0x00\n        /* \"#utility.yul\":1846:1852   */\n      0x00\n        /* \"#utility.yul\":1896:1899   */\n      dup4\n        /* \"#utility.yul\":1889:1893   */\n      0x1f\n        /* \"#utility.yul\":1881:1887   */\n      dup5\n        /* \"#utility.yul\":1877:1894   */\n      add\n        /* \"#utility.yul\":1873:1900   */\n      slt\n        /* \"#utility.yul\":1863:1985   */\n      tag_72\n      jumpi\n        /* \"#utility.yul\":1904:1983   */\n      tag_73\n      tag_45\n      jump\t// in\n    tag_73:\n        /* \"#utility.yul\":1863:1985   */\n    tag_72:\n        /* \"#utility.yul\":2017:2023   */\n      dup3\n        /* \"#utility.yul\":2004:2024   */\n      calldataload\n        /* \"#utility.yul\":1994:2024   */\n      swap1\n      pop\n        /* \"#utility.yul\":2047:2065   */\n      0xffffffffffffffff\n        /* \"#utility.yul\":2039:2045   */\n      dup2\n        /* \"#utility.yul\":2036:2066   */\n      gt\n        /* \"#utility.yul\":2033:2150   */\n      iszero\n      tag_74\n      jumpi\n        /* \"#utility.yul\":2069:2148   */\n      tag_75\n      tag_46\n      jump\t// in\n    tag_75:\n        /* \"#utility.yul\":2033:2150   */\n    tag_74:\n        /* \"#utility.yul\":2183:2187   */\n      0x20\n        /* \"#utility.yul\":2175:2181   */\n      dup4\n        /* \"#utility.yul\":2171:2188   */\n      add\n        /* \"#utility.yul\":2159:2188   */\n      swap2\n      pop\n        /* \"#utility.yul\":2237:2240   */\n      dup4\n        /* \"#utility.yul\":2229:2233   */\n      0x20\n        /* \"#utility.yul\":2221:2227   */\n      dup3\n        /* \"#utility.yul\":2217:2234   */\n      mul\n        /* \"#utility.yul\":2207:2215   */\n      dup4\n        /* \"#utility.yul\":2203:2235   */\n      add\n        /* \"#utility.yul\":2200:2241   */\n      gt\n        /* \"#utility.yul\":2197:2325   */\n      iszero\n      tag_76\n      jumpi\n        /* \"#utility.yul\":2244:2323   */\n      tag_77\n      tag_47\n      jump\t// in\n    tag_77:\n        /* \"#utility.yul\":2197:2325   */\n    tag_76:\n        /* \"#utility.yul\":1763:2331   */\n      swap3\n      pop\n      swap3\n      swap1\n      pop\n      jump\t// out\n        /* \"#utility.yul\":2337:2896   */\n    tag_17:\n        /* \"#utility.yul\":2423:2429   */\n      0x00\n        /* \"#utility.yul\":2431:2437   */\n      0x00\n        /* \"#utility.yul\":2480:2482   */\n      0x20\n        /* \"#utility.yul\":2468:2477   */\n      dup4\n        /* \"#utility.yul\":2459:2466   */\n      dup6\n        /* \"#utility.yul\":2455:2478   */\n      sub\n        /* \"#utility.yul\":2451:2483   */\n      slt\n        /* \"#utility.yul\":2448:2567   */\n      iszero\n      tag_79\n      jumpi\n        /* \"#utility.yul\":2486:2565   */\n      tag_80\n      tag_39\n      jump\t// in\n    tag_80:\n        /* \"#utility.yul\":2448:2567   */\n    tag_79:\n        /* \"#utility.yul\":2634:2635   */\n      0x00\n        /* \"#utility.yul\":2623:2632   */\n      dup4\n        /* \"#utility.yul\":2619:2636   */\n      add\n        /* \"#utility.yul\":2606:2637   */\n      calldataload\n        /* \"#utility.yul\":2664:2682   */\n      0xffffffffffffffff\n        /* \"#utility.yul\":2656:2662   */\n      dup2\n        /* \"#utility.yul\":2653:2683   */\n      gt\n        /* \"#utility.yul\":2650:2767   */\n      iszero\n      tag_81\n      jumpi\n        /* \"#utility.yul\":2686:2765   */\n      tag_82\n      tag_40\n      jump\t// in\n    tag_82:\n        /* \"#utility.yul\":2650:2767   */\n    tag_81:\n        /* \"#utility.yul\":2799:2879   */\n      tag_83\n        /* \"#utility.yul\":2871:2878   */\n      dup6\n        /* \"#utility.yul\":2862:2868   */\n      dup3\n        /* \"#utility.yul\":2851:2860   */\n      dup7\n        /* \"#utility.yul\":2847:2869   */\n      add\n        /* \"#utility.yul\":2799:2879   */\n      tag_48\n      jump\t// in\n    tag_83:\n        /* \"#utility.yul\":2781:2879   */\n      swap3\n      pop\n      swap3\n      pop\n        /* \"#utility.yul\":2577:2889   */\n      pop\n        /* \"#utility.yul\":2337:2896   */\n      swap3\n      pop\n      swap3\n      swap1\n      pop\n      jump\t// out\n        /* \"#utility.yul\":2902:3082   */\n    tag_27:\n        /* \"#utility.yul\":2950:3027   */\n      0x4e487b7100000000000000000000000000000000000000000000000000000000\n        /* \"#utility.yul\":2947:2948   */\n      0x00\n        /* \"#utility.yul\":2940:3028   */\n      mstore\n        /* \"#utility.yul\":3047:3051   */\n      0x32\n        /* \"#utility.yul\":3044:3045   */\n      0x04\n        /* \"#utility.yul\":3037:3052   */\n      mstore\n        /* \"#utility.yul\":3071:3075   */\n      0x24\n        /* \"#utility.yul\":3068:3069   */\n      0x00\n        /* \"#utility.yul\":3061:3076   */\n      revert\n        /* \"#utility.yul\":3088:3268   */\n    tag_49:\n        /* \"#utility.yul\":3136:3213   */\n      0x4e487b7100000000000000000000000000000000000000000000000000000000\n        /* \"#utility.yul\":3133:3134   */\n      0x00\n        /* \"#utility.yul\":3126:3214   */\n      mstore\n        /* \"#utility.yul\":3233:3237   */\n      0x11\n        /* \"#utility.yul\":3230:3231   */\n      0x04\n        /* \"#utility.yul\":3223:3238   */\n      mstore\n        /* \"#utility.yul\":3257:3261   */\n      0x24\n        /* \"#utility.yul\":3254:3255   */\n      0x00\n        /* \"#utility.yul\":3247:3262   */\n      revert\n        /* \"#utility.yul\":3274:3465   */\n    tag_30:\n        /* \"#utility.yul\":3314:3317   */\n      0x00\n        /* \"#utility.yul\":3333:3353   */\n      tag_87\n        /* \"#utility.yul\":3351:3352   */\n      dup3\n        /* \"#utility.yul\":3333:3353   */\n      tag_41\n      jump\t// in\n    tag_87:\n        /* \"#utility.yul\":3328:3353   */\n      swap2\n      pop\n        /* \"#utility.yul\":3367:3387   */\n      tag_88\n        /* \"#utility.yul\":3385:3386   */\n      dup4\n        /* \"#utility.yul\":3367:3387   */\n      tag_41\n      jump\t// in\n    tag_88:\n        /* \"#utility.yul\":3362:3387   */\n      swap3\n      pop\n        /* \"#utility.yul\":3410:3411   */\n      dup3\n        /* \"#utility.yul\":3407:3408   */\n      dup3\n        /* \"#utility.yul\":3403:3412   */\n      add\n        /* \"#utility.yul\":3396:3412   */\n      swap1\n      pop\n        /* \"#utility.yul\":3431:3434   */\n      dup1\n        /* \"#utility.yul\":3428:3429   */\n      dup3\n        /* \"#utility.yul\":3425:3435   */\n      gt\n        /* \"#utility.yul\":3422:3458   */\n      iszero\n      tag_89\n      jumpi\n        /* \"#utility.yul\":3438:3456   */\n      tag_90\n      tag_49\n      jump\t// in\n    tag_90:\n        /* \"#utility.yul\":3422:3458   */\n    tag_89:\n        /* \"#utility.yul\":3274:3465   */\n      swap3\n      swap2\n      pop\n      pop\n      jump\t// out\n\n    auxdata: 0xa2646970667358221220262b865bc4d1379a1fc34bd173d8cbfe4261f1dc9bd025af870354ef4acb99d664736f6c634300081e0033\n}\n",
				"bytecode": {
					"linkReferences": {},
					"object": "6080604052348015600e575f5ffd5b506103878061001c5f395ff3fe608060405234801561000f575f5ffd5b506004361061003f575f3560e01c806338d9419314610043578063be1c766b14610073578063e7e2378014610091575b5f5ffd5b61005d600480360381019061005891906101c5565b6100ad565b60405161006a91906101ff565b60405180910390f35b61007b6100cc565b60405161008891906101ff565b60405180910390f35b6100ab60048036038101906100a69190610279565b610125565b005b5f81815481106100bb575f80fd5b905f5260205f20015f915090505481565b5f5f5f90505f5f8054905090505f5f90505b8181101561011c575f81815481106100f9576100f86102c4565b5b905f5260205f2001548361010d919061031e565b925080806001019150506100de565b50819250505090565b5f8282905090505f5f90505b81811015610184575f84848381811061014d5761014c6102c4565b5b90506020020135908060018154018082558091505060019003905f5260205f20015f90919091909150558080600101915050610131565b50505050565b5f5ffd5b5f5ffd5b5f819050919050565b6101a481610192565b81146101ae575f5ffd5b50565b5f813590506101bf8161019b565b92915050565b5f602082840312156101da576101d961018a565b5b5f6101e7848285016101b1565b91505092915050565b6101f981610192565b82525050565b5f6020820190506102125f8301846101f0565b92915050565b5f5ffd5b5f5ffd5b5f5ffd5b5f5f83601f84011261023957610238610218565b5b8235905067ffffffffffffffff8111156102565761025561021c565b5b60208301915083602082028301111561027257610271610220565b5b9250929050565b5f5f6020838503121561028f5761028e61018a565b5b5f83013567ffffffffffffffff8111156102ac576102ab61018e565b5b6102b885828601610224565b92509250509250929050565b7f4e487b71000000000000000000000000000000000000000000000000000000005f52603260045260245ffd5b7f4e487b71000000000000000000000000000000000000000000000000000000005f52601160045260245ffd5b5f61032882610192565b915061033383610192565b925082820190508082111561034b5761034a6102f1565b5b9291505056fea2646970667358221220262b865bc4d1379a1fc34bd173d8cbfe4261f1dc9bd025af870354ef4acb99d664736f6c634300081e0033",
					"opcodes": "PUSH1 0x80 PUSH1 0x40 MSTORE CALLVALUE DUP1 ISZERO PUSH1 0xE JUMPI PUSH0 PUSH0 REVERT JUMPDEST POP PUSH2 0x387 DUP1 PUSH2 0x1C PUSH0 CODECOPY PUSH0 RETURN INVALID PUSH1 0x80 PUSH1 0x40 MSTORE CALLVALUE DUP1 ISZERO PUSH2 0xF JUMPI PUSH0 PUSH0 REVERT JUMPDEST POP PUSH1 0x4 CALLDATASIZE LT PUSH2 0x3F JUMPI PUSH0 CALLDATALOAD PUSH1 0xE0 SHR DUP1 PUSH4 0x38D94193 EQ PUSH2 0x43 JUMPI DUP1 PUSH4 0xBE1C766B EQ PUSH2 0x73 JUMPI DUP1 PUSH4 0xE7E23780 EQ PUSH2 0x91 JUMPI JUMPDEST PUSH0 PUSH0 REVERT JUMPDEST PUSH2 0x5D PUSH1 0x4 DUP1 CALLDATASIZE SUB DUP2 ADD SWAP1 PUSH2 0x58 SWAP2 SWAP1 PUSH2 0x1C5 JUMP JUMPDEST PUSH2 0xAD JUMP JUMPDEST PUSH1 0x40 MLOAD PUSH2 0x6A SWAP2 SWAP1 PUSH2 0x1FF JUMP JUMPDEST PUSH1 0x40 MLOAD DUP1 SWAP2 SUB SWAP1 RETURN JUMPDEST PUSH2 0x7B PUSH2 0xCC JUMP JUMPDEST PUSH1 0x40 MLOAD PUSH2 0x88 SWAP2 SWAP1 PUSH2 0x1FF JUMP JUMPDEST PUSH1 0x40 MLOAD DUP1 SWAP2 SUB SWAP1 RETURN JUMPDEST PUSH2 0xAB PUSH1 0x4 DUP1 CALLDATASIZE SUB DUP2 ADD SWAP1 PUSH2 0xA6 SWAP2 SWAP1 PUSH2 0x279 JUMP JUMPDEST PUSH2 0x125 JUMP JUMPDEST STOP JUMPDEST PUSH0 DUP2 DUP2 SLOAD DUP2 LT PUSH2 0xBB JUMPI PUSH0 DUP1 REVERT JUMPDEST SWAP1 PUSH0 MSTORE PUSH1 0x20 PUSH0 KECCAK256 ADD PUSH0 SWAP2 POP SWAP1 POP SLOAD DUP2 JUMP JUMPDEST PUSH0 PUSH0 PUSH0 SWAP1 POP PUSH0 PUSH0 DUP1 SLOAD SWAP1 POP SWAP1 POP PUSH0 PUSH0 SWAP1 POP JUMPDEST DUP2 DUP2 LT ISZERO PUSH2 0x11C JUMPI PUSH0 DUP2 DUP2 SLOAD DUP2 LT PUSH2 0xF9 JUMPI PUSH2 0xF8 PUSH2 0x2C4 JUMP JUMPDEST JUMPDEST SWAP1 PUSH0 MSTORE PUSH1 0x20 PUSH0 KECCAK256 ADD SLOAD DUP4 PUSH2 0x10D SWAP2 SWAP1 PUSH2 0x31E JUMP JUMPDEST SWAP3 POP DUP1 DUP1 PUSH1 0x1 ADD SWAP2 POP POP PUSH2 0xDE JUMP JUMPDEST POP DUP2 SWAP3 POP POP POP SWAP1 JUMP JUMPDEST PUSH0 DUP3 DUP3 SWAP1 POP SWAP1 POP PUSH0 PUSH0 SWAP1 POP JUMPDEST DUP2 DUP2 LT ISZERO PUSH2 0x184 JUMPI PUSH0 DUP5 DUP5 DUP4 DUP2 DUP2 LT PUSH2 0x14D JUMPI PUSH2 0x14C PUSH2 0x2C4 JUMP JUMPDEST JUMPDEST SWAP1 POP PUSH1 0x20 MUL ADD CALLDATALOAD SWAP1 DUP1 PUSH1 0x1 DUP2 SLOAD ADD DUP1 DUP3 SSTORE DUP1 SWAP2 POP POP PUSH1 0x1 SWAP1 SUB SWAP1 PUSH0 MSTORE PUSH1 0x20 PUSH0 KECCAK256 ADD PUSH0 SWAP1 SWAP2 SWAP1 SWAP2 SWAP1 SWAP2 POP SSTORE DUP1 DUP1 PUSH1 0x1 ADD SWAP2 POP POP PUSH2 0x131 JUMP JUMPDEST POP POP POP POP JUMP JUMPDEST PUSH0 PUSH0 REVERT JUMPDEST PUSH0 PUSH0 REVERT JUMPDEST PUSH0 DUP2 SWAP1 POP SWAP2 SWAP1 POP JUMP JUMPDEST PUSH2 0x1A4 DUP2 PUSH2 0x192 JUMP JUMPDEST DUP2 EQ PUSH2 0x1AE JUMPI PUSH0 PUSH0 REVERT JUMPDEST POP JUMP JUMPDEST PUSH0 DUP2 CALLDATALOAD SWAP1 POP PUSH2 0x1BF DUP2 PUSH2 0x19B JUMP JUMPDEST SWAP3 SWAP2 POP POP JUMP JUMPDEST PUSH0 PUSH1 0x20 DUP3 DUP5 SUB SLT ISZERO PUSH2 0x1DA JUMPI PUSH2 0x1D9 PUSH2 0x18A JUMP JUMPDEST JUMPDEST PUSH0 PUSH2 0x1E7 DUP5 DUP3 DUP6 ADD PUSH2 0x1B1 JUMP JUMPDEST SWAP2 POP POP SWAP3 SWAP2 POP POP JUMP JUMPDEST PUSH2 0x1F9 DUP2 PUSH2 0x192 JUMP JUMPDEST DUP3 MSTORE POP POP JUMP JUMPDEST PUSH0 PUSH1 0x20 DUP3 ADD SWAP1 POP PUSH2 0x212 PUSH0 DUP4 ADD DUP5 PUSH2 0x1F0 JUMP JUMPDEST SWAP3 SWAP2 POP POP JUMP JUMPDEST PUSH0 PUSH0 REVERT JUMPDEST PUSH0 PUSH0 REVERT JUMPDEST PUSH0 PUSH0 REVERT JUMPDEST PUSH0 PUSH0 DUP4 PUSH1 0x1F DUP5 ADD SLT PUSH2 0x239 JUMPI PUSH2 0x238 PUSH2 0x218 JUMP JUMPDEST JUMPDEST DUP3 CALLDATALOAD SWAP1 POP PUSH8 0xFFFFFFFFFFFFFFFF DUP2 GT ISZERO PUSH2 0x256 JUMPI PUSH2 0x255 PUSH2 0x21C JUMP JUMPDEST JUMPDEST PUSH1 0x20 DUP4 ADD SWAP2 POP DUP4 PUSH1 0x20 DUP3 MUL DUP4 ADD GT ISZERO PUSH2 0x272 JUMPI PUSH2 0x271 PUSH2 0x220 JUMP JUMPDEST JUMPDEST SWAP3 POP SWAP3 SWAP1 POP JUMP JUMPDEST PUSH0 PUSH0 PUSH1 0x20 DUP4 DUP6 SUB SLT ISZERO PUSH2 0x28F JUMPI PUSH2 0x28E PUSH2 0x18A JUMP JUMPDEST JUMPDEST PUSH0 DUP4 ADD CALLDATALOAD PUSH8 0xFFFFFFFFFFFFFFFF DUP2 GT ISZERO PUSH2 0x2AC JUMPI PUSH2 0x2AB PUSH2 0x18E JUMP JUMPDEST JUMPDEST PUSH2 0x2B8 DUP6 DUP3 DUP7 ADD PUSH2 0x224 JUMP JUMPDEST SWAP3 POP SWAP3 POP POP SWAP3 POP SWAP3 SWAP1 POP JUMP JUMPDEST PUSH32 0x4E487B7100000000000000000000000000000000000000000000000000000000 PUSH0 MSTORE PUSH1 0x32 PUSH1 0x4 MSTORE PUSH1 0x24 PUSH0 REVERT JUMPDEST PUSH32 0x4E487B7100000000000000000000000000000000000000000000000000000000 PUSH0 MSTORE PUSH1 0x11 PUSH1 0x4 MSTORE PUSH1 0x24 PUSH0 REVERT JUMPDEST PUSH0 PUSH2 0x328 DUP3 PUSH2 0x192 JUMP JUMPDEST SWAP2 POP PUSH2 0x333 DUP4 PUSH2 0x192 JUMP JUMPDEST SWAP3 POP DUP3 DUP3 ADD SWAP1 POP DUP1 DUP3 GT ISZERO PUSH2 0x34B JUMPI PUSH2 0x34A PUSH2 0x2F1 JUMP JUMPDEST JUMPDEST SWAP3 SWAP2 POP POP JUMP INVALID LOG2 PUSH5 0x6970667358 0x22 SLT KECCAK256 0x26 0x2B DUP7 JUMPDEST 0xC4 DATALOADN 0x379A 0x1F 0xC3 0x4B DATALOADN 0x73D8 0xCB INVALID TIMESTAMP PUSH2 0xF1DC SWAP12 0xD0 0x25 0xAF DUP8 SUB SLOAD 0xEF BLOBBASEFEE 0xCB SWAP10 0xD6 PUSH5 0x736F6C6343 STOP ADDMOD 0x1E STOP CALLER "
				},
				"gasEstimates": {
					"creation": {
						"codeDepositCost": "180600",
						"executionCost": "224",
						"totalCost": "180824"
					},
					"external": {
						"array(uint256)": "infinite",
						"getLength()": "infinite",
						"processArray(uint256[])": "infinite"
					}
				},
				"methodIdentifiers": {
					"array(uint256)": "38d94193",
					"getLength()": "be1c766b",
					"processArray(uint256[])": "e7e23780"
				}
			},
			"storageLayout": {
				"storage": [
					{
						"astId": 4,
						"contract": "contracts/OptimizedContract.sol:UnoptimizedContract",
						"label": "array",
						"offset": 0,
						"slot": "0",
						"type": "t_array(t_uint256)dyn_storage"
					}
				],
				"types": {
					"t_array(t_uint256)dyn_storage": {
						"base": "t_uint256",
						"encoding": "dynamic_array",
						"label": "uint256[]",
						"numberOfBytes": "32"
					},
					"t_uint256": {
						"encoding": "inplace",
						"label": "uint256",
						"numberOfBytes": "32"
					}
				}
			},
			"userdoc": {
				"kind": "user",
				"methods": {},
				"version": 1
			}
		}
	}
}