{
	"contracts/EnumDemo.sol": {
		"EnumDemo": {
			"abi": [
				{
					"anonymous": false,
					"inputs": [
						{
							"indexed": true,
							"internalType": "uint256",
							"name": "orderId",
							"type": "uint256"
						},
						{
							"indexed": false,
							"internalType": "enum EnumDemo.OrderStatus",
							"name": "newStatus",
							"type": "uint8"
						}
					],
					"name": "OrderStatusChanged",
					"type": "event"
				},
				{
					"inputs": [],
					"name": "createOrder",
					"outputs": [
						{
							"internalType": "uint256",
							"name": "",
							"type": "uint256"
						}
					],
					"stateMutability": "nonpayable",
					"type": "function"
				},
				{
					"inputs": [
						{
							"internalType": "uint256",
							"name": "orderId",
							"type": "uint256"
						}
					],
					"name": "getStatusValue",
					"outputs": [
						{
							"internalType": "uint256",
							"name": "",
							"type": "uint256"
						}
					],
					"stateMutability": "view",
					"type": "function"
				},
				{
					"inputs": [],
					"name": "orderCount",
					"outputs": [
						{
							"internalType": "uint256",
							"name": "",
							"type": "uint256"
						}
					],
					"stateMutability": "view",
					"type": "function"
				},
				{
					"inputs": [
						{
							"internalType": "uint256",
							"name": "",
							"type": "uint256"
						}
					],
					"name": "orders",
					"outputs": [
						{
							"internalType": "enum EnumDemo.OrderStatus",
							"name": "",
							"type": "uint8"
						}
					],
					"stateMutability": "view",
					"type": "function"
				},
				{
					"inputs": [
						{
							"internalType": "uint256",
							"name": "orderId",
							"type": "uint256"
						}
					],
					"name": "shipOrder",
					"outputs": [],
					"stateMutability": "nonpayable",
					"type": "function"
				},
				{
					"inputs": [
						{
							"internalType": "uint256",
							"name": "orderId",
							"type": "uint256"
						},
						{
							"internalType": "enum EnumDemo.OrderStatus",
							"name": "newStatus",
							"type": "uint8"
						}
					],
					"name": "updateStatus",
					"outputs": [],
					"stateMutability": "nonpayable",
					"type": "function"
				}
			],
			"devdoc": {
				"kind": "dev",
				"methods": {},
				"version": 1
			},
			"evm": {
				"assembly": "    /* \"contracts/EnumDemo.sol\":58:1221  contract EnumDemo {... */\n  mstore(0x40, 0x80)\n  callvalue\n  dup1\n  iszero\n  tag_1\n  jumpi\n  revert(0x00, 0x00)\ntag_1:\n  pop\n  dataSize(sub_0)\n  dup1\n  dataOffset(sub_0)\n  0x00\n  codecopy\n  0x00\n  return\nstop\n\nsub_0: assembly {\n        /* \"contracts/EnumDemo.sol\":58:1221  contract EnumDemo {... */\n      mstore(0x40, 0x80)\n      callvalue\n      dup1\n      iszero\n      tag_1\n      jumpi\n      revert(0x00, 0x00)\n    tag_1:\n      pop\n      jumpi(tag_2, lt(calldatasize, 0x04))\n      shr(0xe0, calldataload(0x00))\n      dup1\n      0x194c302c\n      eq\n      tag_3\n      jumpi\n      dup1\n      0x2453ffa8\n      eq\n      tag_4\n      jumpi\n      dup1\n      0x3a1b3d31\n      eq\n      tag_5\n      jumpi\n      dup1\n      0x4d0dac47\n      eq\n      tag_6\n      jumpi\n      dup1\n      0x6512e6ec\n      eq\n      tag_7\n      jumpi\n      dup1\n      0xa85c38ef\n      eq\n      tag_8\n      jumpi\n    tag_2:\n      revert(0x00, 0x00)\n        /* \"contracts/EnumDemo.sol\":850:1077  function shipOrder(uint orderId) public {... */\n    tag_3:\n      tag_9\n      0x04\n      dup1\n      calldatasize\n      sub\n      dup2\n      add\n      swap1\n      tag_10\n      swap2\n      swap1\n      tag_11\n      jump\t// in\n    tag_10:\n      tag_12\n      jump\t// in\n    tag_9:\n      stop\n        /* \"contracts/EnumDemo.sol\":245:267  uint public orderCount */\n    tag_4:\n      tag_13\n      tag_14\n      jump\t// in\n    tag_13:\n      mload(0x40)\n      tag_15\n      swap2\n      swap1\n      tag_16\n      jump\t// in\n    tag_15:\n      mload(0x40)\n      dup1\n      swap2\n      sub\n      swap1\n      return\n        /* \"contracts/EnumDemo.sol\":562:803  function updateStatus(uint orderId, OrderStatus newStatus) public {... */\n    tag_5:\n      tag_17\n      0x04\n      dup1\n      calldatasize\n      sub\n      dup2\n      add\n      swap1\n      tag_18\n      swap2\n      swap1\n      tag_19\n      jump\t// in\n    tag_18:\n      tag_20\n      jump\t// in\n    tag_17:\n      stop\n        /* \"contracts/EnumDemo.sol\":1109:1219  function getStatusValue(uint orderId) public view returns (uint) {... */\n    tag_6:\n      tag_21\n      0x04\n      dup1\n      calldatasize\n      sub\n      dup2\n      add\n      swap1\n      tag_22\n      swap2\n      swap1\n      tag_11\n      jump\t// in\n    tag_22:\n      tag_23\n      jump\t// in\n    tag_21:\n      mload(0x40)\n      tag_24\n      swap2\n      swap1\n      tag_16\n      jump\t// in\n    tag_24:\n      mload(0x40)\n      dup1\n      swap2\n      sub\n      swap1\n      return\n        /* \"contracts/EnumDemo.sol\":370:530  function createOrder() public returns (uint) {... */\n    tag_7:\n      tag_25\n      tag_26\n      jump\t// in\n    tag_25:\n      mload(0x40)\n      tag_27\n      swap2\n      swap1\n      tag_16\n      jump\t// in\n    tag_27:\n      mload(0x40)\n      dup1\n      swap2\n      sub\n      swap1\n      return\n        /* \"contracts/EnumDemo.sol\":197:239  mapping(uint => OrderStatus) public orders */\n    tag_8:\n      tag_28\n      0x04\n      dup1\n      calldatasize\n      sub\n      dup2\n      add\n      swap1\n      tag_29\n      swap2\n      swap1\n      tag_11\n      jump\t// in\n    tag_29:\n      tag_30\n      jump\t// in\n    tag_28:\n      mload(0x40)\n      tag_31\n      swap2\n      swap1\n      tag_32\n      jump\t// in\n    tag_31:\n      mload(0x40)\n      dup1\n      swap2\n      sub\n      swap1\n      return\n        /* \"contracts/EnumDemo.sol\":850:1077  function shipOrder(uint orderId) public {... */\n    tag_12:\n        /* \"contracts/EnumDemo.sol\":927:943  OrderStatus.Paid */\n      0x01\n        /* \"contracts/EnumDemo.sol\":908:943  orders[orderId] == OrderStatus.Paid */\n      0x04\n      dup2\n      gt\n      iszero\n      tag_34\n      jumpi\n      tag_35\n      tag_36\n      jump\t// in\n    tag_35:\n    tag_34:\n        /* \"contracts/EnumDemo.sol\":908:914  orders */\n      0x00\n        /* \"contracts/EnumDemo.sol\":908:923  orders[orderId] */\n      0x00\n        /* \"contracts/EnumDemo.sol\":915:922  orderId */\n      dup4\n        /* \"contracts/EnumDemo.sol\":908:923  orders[orderId] */\n      dup2\n      mstore\n      0x20\n      add\n      swap1\n      dup2\n      mstore\n      0x20\n      add\n      0x00\n      keccak256\n      0x00\n      swap1\n      sload\n      swap1\n      0x0100\n      exp\n      swap1\n      div\n      0xff\n      and\n        /* \"contracts/EnumDemo.sol\":908:943  orders[orderId] == OrderStatus.Paid */\n      0x04\n      dup2\n      gt\n      iszero\n      tag_37\n      jumpi\n      tag_38\n      tag_36\n      jump\t// in\n    tag_38:\n    tag_37:\n      eq\n        /* \"contracts/EnumDemo.sol\":900:960  require(orders[orderId] == OrderStatus.Paid, \"Must be paid\") */\n      tag_39\n      jumpi\n      mload(0x40)\n      0x08c379a000000000000000000000000000000000000000000000000000000000\n      dup2\n      mstore\n      0x04\n      add\n      tag_40\n      swap1\n      tag_41\n      jump\t// in\n    tag_40:\n      mload(0x40)\n      dup1\n      swap2\n      sub\n      swap1\n      revert\n    tag_39:\n        /* \"contracts/EnumDemo.sol\":988:1007  OrderStatus.Shipped */\n      0x02\n        /* \"contracts/EnumDemo.sol\":970:976  orders */\n      0x00\n        /* \"contracts/EnumDemo.sol\":970:985  orders[orderId] */\n      0x00\n        /* \"contracts/EnumDemo.sol\":977:984  orderId */\n      dup4\n        /* \"contracts/EnumDemo.sol\":970:985  orders[orderId] */\n      dup2\n      mstore\n      0x20\n      add\n      swap1\n      dup2\n      mstore\n      0x20\n      add\n      0x00\n      keccak256\n      0x00\n        /* \"contracts/EnumDemo.sol\":970:1007  orders[orderId] = OrderStatus.Shipped */\n      0x0100\n      exp\n      dup2\n      sload\n      dup2\n      0xff\n      mul\n      not\n      and\n      swap1\n      dup4\n      0x04\n      dup2\n      gt\n      iszero\n      tag_42\n      jumpi\n      tag_43\n      tag_36\n      jump\t// in\n    tag_43:\n    tag_42:\n      mul\n      or\n      swap1\n      sstore\n      pop\n        /* \"contracts/EnumDemo.sol\":1041:1048  orderId */\n      dup1\n        /* \"contracts/EnumDemo.sol\":1022:1070  OrderStatusChanged(orderId, OrderStatus.Shipped) */\n      0x15fe7663e318fda785235fa9e39aa6923ffd39fe53631991197fb842f34f6ba9\n        /* \"contracts/EnumDemo.sol\":1050:1069  OrderStatus.Shipped */\n      0x02\n        /* \"contracts/EnumDemo.sol\":1022:1070  OrderStatusChanged(orderId, OrderStatus.Shipped) */\n      mload(0x40)\n      tag_44\n      swap2\n      swap1\n      tag_32\n      jump\t// in\n    tag_44:\n      mload(0x40)\n      dup1\n      swap2\n      sub\n      swap1\n      log2\n        /* \"contracts/EnumDemo.sol\":850:1077  function shipOrder(uint orderId) public {... */\n      pop\n      jump\t// out\n        /* \"contracts/EnumDemo.sol\":245:267  uint public orderCount */\n    tag_14:\n      sload(0x01)\n      dup2\n      jump\t// out\n        /* \"contracts/EnumDemo.sol\":562:803  function updateStatus(uint orderId, OrderStatus newStatus) public {... */\n    tag_20:\n        /* \"contracts/EnumDemo.sol\":665:686  OrderStatus.Cancelled */\n      0x04\n        /* \"contracts/EnumDemo.sol\":646:686  orders[orderId] != OrderStatus.Cancelled */\n      dup1\n      dup2\n      gt\n      iszero\n      tag_46\n      jumpi\n      tag_47\n      tag_36\n      jump\t// in\n    tag_47:\n    tag_46:\n        /* \"contracts/EnumDemo.sol\":646:652  orders */\n      0x00\n        /* \"contracts/EnumDemo.sol\":646:661  orders[orderId] */\n      0x00\n        /* \"contracts/EnumDemo.sol\":653:660  orderId */\n      dup5\n        /* \"contracts/EnumDemo.sol\":646:661  orders[orderId] */\n      dup2\n      mstore\n      0x20\n      add\n      swap1\n      dup2\n      mstore\n      0x20\n      add\n      0x00\n      keccak256\n      0x00\n      swap1\n      sload\n      swap1\n      0x0100\n      exp\n      swap1\n      div\n      0xff\n      and\n        /* \"contracts/EnumDemo.sol\":646:686  orders[orderId] != OrderStatus.Cancelled */\n      0x04\n      dup2\n      gt\n      iszero\n      tag_48\n      jumpi\n      tag_49\n      tag_36\n      jump\t// in\n    tag_49:\n    tag_48:\n      sub\n        /* \"contracts/EnumDemo.sol\":638:706  require(orders[orderId] != OrderStatus.Cancelled, \"Order cancelled\") */\n      tag_50\n      jumpi\n      mload(0x40)\n      0x08c379a000000000000000000000000000000000000000000000000000000000\n      dup2\n      mstore\n      0x04\n      add\n      tag_51\n      swap1\n      tag_52\n      jump\t// in\n    tag_51:\n      mload(0x40)\n      dup1\n      swap2\n      sub\n      swap1\n      revert\n    tag_50:\n        /* \"contracts/EnumDemo.sol\":734:743  newStatus */\n      dup1\n        /* \"contracts/EnumDemo.sol\":716:722  orders */\n      0x00\n        /* \"contracts/EnumDemo.sol\":716:731  orders[orderId] */\n      0x00\n        /* \"contracts/EnumDemo.sol\":723:730  orderId */\n      dup5\n        /* \"contracts/EnumDemo.sol\":716:731  orders[orderId] */\n      dup2\n      mstore\n      0x20\n      add\n      swap1\n      dup2\n      mstore\n      0x20\n      add\n      0x00\n      keccak256\n      0x00\n        /* \"contracts/EnumDemo.sol\":716:743  orders[orderId] = newStatus */\n      0x0100\n      exp\n      dup2\n      sload\n      dup2\n      0xff\n      mul\n      not\n      and\n      swap1\n      dup4\n      0x04\n      dup2\n      gt\n      iszero\n      tag_53\n      jumpi\n      tag_54\n      tag_36\n      jump\t// in\n    tag_54:\n    tag_53:\n      mul\n      or\n      swap1\n      sstore\n      pop\n        /* \"contracts/EnumDemo.sol\":777:784  orderId */\n      dup2\n        /* \"contracts/EnumDemo.sol\":758:796  OrderStatusChanged(orderId, newStatus) */\n      0x15fe7663e318fda785235fa9e39aa6923ffd39fe53631991197fb842f34f6ba9\n        /* \"contracts/EnumDemo.sol\":786:795  newStatus */\n      dup3\n        /* \"contracts/EnumDemo.sol\":758:796  OrderStatusChanged(orderId, newStatus) */\n      mload(0x40)\n      tag_55\n      swap2\n      swap1\n      tag_32\n      jump\t// in\n    tag_55:\n      mload(0x40)\n      dup1\n      swap2\n      sub\n      swap1\n      log2\n        /* \"contracts/EnumDemo.sol\":562:803  function updateStatus(uint orderId, OrderStatus newStatus) public {... */\n      pop\n      pop\n      jump\t// out\n        /* \"contracts/EnumDemo.sol\":1109:1219  function getStatusValue(uint orderId) public view returns (uint) {... */\n    tag_23:\n        /* \"contracts/EnumDemo.sol\":1168:1172  uint */\n      0x00\n        /* \"contracts/EnumDemo.sol\":1196:1202  orders */\n      0x00\n        /* \"contracts/EnumDemo.sol\":1196:1211  orders[orderId] */\n      0x00\n        /* \"contracts/EnumDemo.sol\":1203:1210  orderId */\n      dup4\n        /* \"contracts/EnumDemo.sol\":1196:1211  orders[orderId] */\n      dup2\n      mstore\n      0x20\n      add\n      swap1\n      dup2\n      mstore\n      0x20\n      add\n      0x00\n      keccak256\n      0x00\n      swap1\n      sload\n      swap1\n      0x0100\n      exp\n      swap1\n      div\n      0xff\n      and\n        /* \"contracts/EnumDemo.sol\":1191:1212  uint(orders[orderId]) */\n      0x04\n      dup2\n      gt\n      iszero\n      tag_57\n      jumpi\n      tag_58\n      tag_36\n      jump\t// in\n    tag_58:\n    tag_57:\n        /* \"contracts/EnumDemo.sol\":1184:1212  return uint(orders[orderId]) */\n      swap1\n      pop\n        /* \"contracts/EnumDemo.sol\":1109:1219  function getStatusValue(uint orderId) public view returns (uint) {... */\n      swap2\n      swap1\n      pop\n      jump\t// out\n        /* \"contracts/EnumDemo.sol\":370:530  function createOrder() public returns (uint) {... */\n    tag_26:\n        /* \"contracts/EnumDemo.sol\":409:413  uint */\n      0x00\n        /* \"contracts/EnumDemo.sol\":425:437  uint orderId */\n      0x00\n        /* \"contracts/EnumDemo.sol\":440:450  orderCount */\n      0x01\n      0x00\n        /* \"contracts/EnumDemo.sol\":440:452  orderCount++ */\n      dup2\n      sload\n      dup1\n      swap3\n      swap2\n      swap1\n      tag_60\n      swap1\n      tag_61\n      jump\t// in\n    tag_60:\n      swap2\n      swap1\n      pop\n      sstore\n        /* \"contracts/EnumDemo.sol\":425:452  uint orderId = orderCount++ */\n      swap1\n      pop\n        /* \"contracts/EnumDemo.sol\":480:499  OrderStatus.Pending */\n      0x00\n        /* \"contracts/EnumDemo.sol\":462:468  orders */\n      0x00\n        /* \"contracts/EnumDemo.sol\":462:477  orders[orderId] */\n      0x00\n        /* \"contracts/EnumDemo.sol\":469:476  orderId */\n      dup4\n        /* \"contracts/EnumDemo.sol\":462:477  orders[orderId] */\n      dup2\n      mstore\n      0x20\n      add\n      swap1\n      dup2\n      mstore\n      0x20\n      add\n      0x00\n      keccak256\n      0x00\n        /* \"contracts/EnumDemo.sol\":462:499  orders[orderId] = OrderStatus.Pending */\n      0x0100\n      exp\n      dup2\n      sload\n      dup2\n      0xff\n      mul\n      not\n      and\n      swap1\n      dup4\n      0x04\n      dup2\n      gt\n      iszero\n      tag_62\n      jumpi\n      tag_63\n      tag_36\n      jump\t// in\n    tag_63:\n    tag_62:\n      mul\n      or\n      swap1\n      sstore\n      pop\n        /* \"contracts/EnumDemo.sol\":516:523  orderId */\n      dup1\n        /* \"contracts/EnumDemo.sol\":509:523  return orderId */\n      swap2\n      pop\n      pop\n        /* \"contracts/EnumDemo.sol\":370:530  function createOrder() public returns (uint) {... */\n      swap1\n      jump\t// out\n        /* \"contracts/EnumDemo.sol\":197:239  mapping(uint => OrderStatus) public orders */\n    tag_30:\n      mstore(0x20, 0x00)\n      dup1\n      0x00\n      mstore\n      keccak256(0x00, 0x40)\n      0x00\n      swap2\n      pop\n      sload\n      swap1\n      0x0100\n      exp\n      swap1\n      div\n      0xff\n      and\n      dup2\n      jump\t// out\n        /* \"#utility.yul\":88:205   */\n    tag_65:\n        /* \"#utility.yul\":197:198   */\n      0x00\n        /* \"#utility.yul\":194:195   */\n      0x00\n        /* \"#utility.yul\":187:199   */\n      revert\n        /* \"#utility.yul\":334:411   */\n    tag_67:\n        /* \"#utility.yul\":371:378   */\n      0x00\n        /* \"#utility.yul\":400:405   */\n      dup2\n        /* \"#utility.yul\":389:405   */\n      swap1\n      pop\n        /* \"#utility.yul\":334:411   */\n      swap2\n      swap1\n      pop\n      jump\t// out\n        /* \"#utility.yul\":417:539   */\n    tag_68:\n        /* \"#utility.yul\":490:514   */\n      tag_89\n        /* \"#utility.yul\":508:513   */\n      dup2\n        /* \"#utility.yul\":490:514   */\n      tag_67\n      jump\t// in\n    tag_89:\n        /* \"#utility.yul\":483:488   */\n      dup2\n        /* \"#utility.yul\":480:515   */\n      eq\n        /* \"#utility.yul\":470:533   */\n      tag_90\n      jumpi\n        /* \"#utility.yul\":529:530   */\n      0x00\n        /* \"#utility.yul\":526:527   */\n      0x00\n        /* \"#utility.yul\":519:531   */\n      revert\n        /* \"#utility.yul\":470:533   */\n    tag_90:\n        /* \"#utility.yul\":417:539   */\n      pop\n      jump\t// out\n        /* \"#utility.yul\":545:684   */\n    tag_69:\n        /* \"#utility.yul\":591:596   */\n      0x00\n        /* \"#utility.yul\":629:635   */\n      dup2\n        /* \"#utility.yul\":616:636   */\n      calldataload\n        /* \"#utility.yul\":607:636   */\n      swap1\n      pop\n        /* \"#utility.yul\":645:678   */\n      tag_92\n        /* \"#utility.yul\":672:677   */\n      dup2\n        /* \"#utility.yul\":645:678   */\n      tag_68\n      jump\t// in\n    tag_92:\n        /* \"#utility.yul\":545:684   */\n      swap3\n      swap2\n      pop\n      pop\n      jump\t// out\n        /* \"#utility.yul\":690:1019   */\n    tag_11:\n        /* \"#utility.yul\":749:755   */\n      0x00\n        /* \"#utility.yul\":798:800   */\n      0x20\n        /* \"#utility.yul\":786:795   */\n      dup3\n        /* \"#utility.yul\":777:784   */\n      dup5\n        /* \"#utility.yul\":773:796   */\n      sub\n        /* \"#utility.yul\":769:801   */\n      slt\n        /* \"#utility.yul\":766:885   */\n      iszero\n      tag_94\n      jumpi\n        /* \"#utility.yul\":804:883   */\n      tag_95\n      tag_65\n      jump\t// in\n    tag_95:\n        /* \"#utility.yul\":766:885   */\n    tag_94:\n        /* \"#utility.yul\":924:925   */\n      0x00\n        /* \"#utility.yul\":949:1002   */\n      tag_96\n        /* \"#utility.yul\":994:1001   */\n      dup5\n        /* \"#utility.yul\":985:991   */\n      dup3\n        /* \"#utility.yul\":974:983   */\n      dup6\n        /* \"#utility.yul\":970:992   */\n      add\n        /* \"#utility.yul\":949:1002   */\n      tag_69\n      jump\t// in\n    tag_96:\n        /* \"#utility.yul\":939:1002   */\n      swap2\n      pop\n        /* \"#utility.yul\":895:1012   */\n      pop\n        /* \"#utility.yul\":690:1019   */\n      swap3\n      swap2\n      pop\n      pop\n      jump\t// out\n        /* \"#utility.yul\":1025:1143   */\n    tag_70:\n        /* \"#utility.yul\":1112:1136   */\n      tag_98\n        /* \"#utility.yul\":1130:1135   */\n      dup2\n        /* \"#utility.yul\":1112:1136   */\n      tag_67\n      jump\t// in\n    tag_98:\n        /* \"#utility.yul\":1107:1110   */\n      dup3\n        /* \"#utility.yul\":1100:1137   */\n      mstore\n        /* \"#utility.yul\":1025:1143   */\n      pop\n      pop\n      jump\t// out\n        /* \"#utility.yul\":1149:1371   */\n    tag_16:\n        /* \"#utility.yul\":1242:1246   */\n      0x00\n        /* \"#utility.yul\":1280:1282   */\n      0x20\n        /* \"#utility.yul\":1269:1278   */\n      dup3\n        /* \"#utility.yul\":1265:1283   */\n      add\n        /* \"#utility.yul\":1257:1283   */\n      swap1\n      pop\n        /* \"#utility.yul\":1293:1364   */\n      tag_100\n        /* \"#utility.yul\":1361:1362   */\n      0x00\n        /* \"#utility.yul\":1350:1359   */\n      dup4\n        /* \"#utility.yul\":1346:1363   */\n      add\n        /* \"#utility.yul\":1337:1343   */\n      dup5\n        /* \"#utility.yul\":1293:1364   */\n      tag_70\n      jump\t// in\n    tag_100:\n        /* \"#utility.yul\":1149:1371   */\n      swap3\n      swap2\n      pop\n      pop\n      jump\t// out\n        /* \"#utility.yul\":1377:1489   */\n    tag_71:\n        /* \"#utility.yul\":1463:1464   */\n      0x05\n        /* \"#utility.yul\":1456:1461   */\n      dup2\n        /* \"#utility.yul\":1453:1465   */\n      lt\n        /* \"#utility.yul\":1443:1483   */\n      tag_102\n      jumpi\n        /* \"#utility.yul\":1479:1480   */\n      0x00\n        /* \"#utility.yul\":1476:1477   */\n      0x00\n        /* \"#utility.yul\":1469:1481   */\n      revert\n        /* \"#utility.yul\":1443:1483   */\n    tag_102:\n        /* \"#utility.yul\":1377:1489   */\n      pop\n      jump\t// out\n        /* \"#utility.yul\":1495:1660   */\n    tag_72:\n        /* \"#utility.yul\":1554:1559   */\n      0x00\n        /* \"#utility.yul\":1592:1598   */\n      dup2\n        /* \"#utility.yul\":1579:1599   */\n      calldataload\n        /* \"#utility.yul\":1570:1599   */\n      swap1\n      pop\n        /* \"#utility.yul\":1608:1654   */\n      tag_104\n        /* \"#utility.yul\":1648:1653   */\n      dup2\n        /* \"#utility.yul\":1608:1654   */\n      tag_71\n      jump\t// in\n    tag_104:\n        /* \"#utility.yul\":1495:1660   */\n      swap3\n      swap2\n      pop\n      pop\n      jump\t// out\n        /* \"#utility.yul\":1666:2166   */\n    tag_19:\n        /* \"#utility.yul\":1747:1753   */\n      0x00\n        /* \"#utility.yul\":1755:1761   */\n      0x00\n        /* \"#utility.yul\":1804:1806   */\n      0x40\n        /* \"#utility.yul\":1792:1801   */\n      dup4\n        /* \"#utility.yul\":1783:1790   */\n      dup6\n        /* \"#utility.yul\":1779:1802   */\n      sub\n        /* \"#utility.yul\":1775:1807   */\n      slt\n        /* \"#utility.yul\":1772:1891   */\n      iszero\n      tag_106\n      jumpi\n        /* \"#utility.yul\":1810:1889   */\n      tag_107\n      tag_65\n      jump\t// in\n    tag_107:\n        /* \"#utility.yul\":1772:1891   */\n    tag_106:\n        /* \"#utility.yul\":1930:1931   */\n      0x00\n        /* \"#utility.yul\":1955:2008   */\n      tag_108\n        /* \"#utility.yul\":2000:2007   */\n      dup6\n        /* \"#utility.yul\":1991:1997   */\n      dup3\n        /* \"#utility.yul\":1980:1989   */\n      dup7\n        /* \"#utility.yul\":1976:1998   */\n      add\n        /* \"#utility.yul\":1955:2008   */\n      tag_69\n      jump\t// in\n    tag_108:\n        /* \"#utility.yul\":1945:2008   */\n      swap3\n      pop\n        /* \"#utility.yul\":1901:2018   */\n      pop\n        /* \"#utility.yul\":2057:2059   */\n      0x20\n        /* \"#utility.yul\":2083:2149   */\n      tag_109\n        /* \"#utility.yul\":2141:2148   */\n      dup6\n        /* \"#utility.yul\":2132:2138   */\n      dup3\n        /* \"#utility.yul\":2121:2130   */\n      dup7\n        /* \"#utility.yul\":2117:2139   */\n      add\n        /* \"#utility.yul\":2083:2149   */\n      tag_72\n      jump\t// in\n    tag_109:\n        /* \"#utility.yul\":2073:2149   */\n      swap2\n      pop\n        /* \"#utility.yul\":2028:2159   */\n      pop\n        /* \"#utility.yul\":1666:2166   */\n      swap3\n      pop\n      swap3\n      swap1\n      pop\n      jump\t// out\n        /* \"#utility.yul\":2172:2352   */\n    tag_36:\n        /* \"#utility.yul\":2220:2297   */\n      0x4e487b7100000000000000000000000000000000000000000000000000000000\n        /* \"#utility.yul\":2217:2218   */\n      0x00\n        /* \"#utility.yul\":2210:2298   */\n      mstore\n        /* \"#utility.yul\":2317:2321   */\n      0x21\n        /* \"#utility.yul\":2314:2315   */\n      0x04\n        /* \"#utility.yul\":2307:2322   */\n      mstore\n        /* \"#utility.yul\":2341:2345   */\n      0x24\n        /* \"#utility.yul\":2338:2339   */\n      0x00\n        /* \"#utility.yul\":2331:2346   */\n      revert\n        /* \"#utility.yul\":2358:2476   */\n    tag_73:\n        /* \"#utility.yul\":2444:2445   */\n      0x05\n        /* \"#utility.yul\":2437:2442   */\n      dup2\n        /* \"#utility.yul\":2434:2446   */\n      lt\n        /* \"#utility.yul\":2424:2470   */\n      tag_112\n      jumpi\n        /* \"#utility.yul\":2450:2468   */\n      tag_113\n      tag_36\n      jump\t// in\n    tag_113:\n        /* \"#utility.yul\":2424:2470   */\n    tag_112:\n        /* \"#utility.yul\":2358:2476   */\n      pop\n      jump\t// out\n        /* \"#utility.yul\":2482:2619   */\n    tag_74:\n        /* \"#utility.yul\":2532:2539   */\n      0x00\n        /* \"#utility.yul\":2561:2566   */\n      dup2\n        /* \"#utility.yul\":2550:2566   */\n      swap1\n      pop\n        /* \"#utility.yul\":2567:2613   */\n      tag_115\n        /* \"#utility.yul\":2607:2612   */\n      dup3\n        /* \"#utility.yul\":2567:2613   */\n      tag_73\n      jump\t// in\n    tag_115:\n        /* \"#utility.yul\":2482:2619   */\n      swap2\n      swap1\n      pop\n      jump\t// out\n        /* \"#utility.yul\":2625:2762   */\n    tag_75:\n        /* \"#utility.yul\":2686:2695   */\n      0x00\n        /* \"#utility.yul\":2719:2756   */\n      tag_117\n        /* \"#utility.yul\":2750:2755   */\n      dup3\n        /* \"#utility.yul\":2719:2756   */\n      tag_74\n      jump\t// in\n    tag_117:\n        /* \"#utility.yul\":2706:2756   */\n      swap1\n      pop\n        /* \"#utility.yul\":2625:2762   */\n      swap2\n      swap1\n      pop\n      jump\t// out\n        /* \"#utility.yul\":2768:2921   */\n    tag_76:\n        /* \"#utility.yul\":2866:2914   */\n      tag_119\n        /* \"#utility.yul\":2908:2913   */\n      dup2\n        /* \"#utility.yul\":2866:2914   */\n      tag_75\n      jump\t// in\n    tag_119:\n        /* \"#utility.yul\":2861:2864   */\n      dup3\n        /* \"#utility.yul\":2854:2915   */\n      mstore\n        /* \"#utility.yul\":2768:2921   */\n      pop\n      pop\n      jump\t// out\n        /* \"#utility.yul\":2927:3171   */\n    tag_32:\n        /* \"#utility.yul\":3031:3035   */\n      0x00\n        /* \"#utility.yul\":3069:3071   */\n      0x20\n        /* \"#utility.yul\":3058:3067   */\n      dup3\n        /* \"#utility.yul\":3054:3072   */\n      add\n        /* \"#utility.yul\":3046:3072   */\n      swap1\n      pop\n        /* \"#utility.yul\":3082:3164   */\n      tag_121\n        /* \"#utility.yul\":3161:3162   */\n      0x00\n        /* \"#utility.yul\":3150:3159   */\n      dup4\n        /* \"#utility.yul\":3146:3163   */\n      add\n        /* \"#utility.yul\":3137:3143   */\n      dup5\n        /* \"#utility.yul\":3082:3164   */\n      tag_76\n      jump\t// in\n    tag_121:\n        /* \"#utility.yul\":2927:3171   */\n      swap3\n      swap2\n      pop\n      pop\n      jump\t// out\n        /* \"#utility.yul\":3177:3346   */\n    tag_77:\n        /* \"#utility.yul\":3261:3272   */\n      0x00\n        /* \"#utility.yul\":3295:3301   */\n      dup3\n        /* \"#utility.yul\":3290:3293   */\n      dup3\n        /* \"#utility.yul\":3283:3302   */\n      mstore\n        /* \"#utility.yul\":3335:3339   */\n      0x20\n        /* \"#utility.yul\":3330:3333   */\n      dup3\n        /* \"#utility.yul\":3326:3340   */\n      add\n        /* \"#utility.yul\":3311:3340   */\n      swap1\n      pop\n        /* \"#utility.yul\":3177:3346   */\n      swap3\n      swap2\n      pop\n      pop\n      jump\t// out\n        /* \"#utility.yul\":3352:3514   */\n    tag_78:\n        /* \"#utility.yul\":3492:3506   */\n      0x4d75737420626520706169640000000000000000000000000000000000000000\n        /* \"#utility.yul\":3488:3489   */\n      0x00\n        /* \"#utility.yul\":3480:3486   */\n      dup3\n        /* \"#utility.yul\":3476:3490   */\n      add\n        /* \"#utility.yul\":3469:3507   */\n      mstore\n        /* \"#utility.yul\":3352:3514   */\n      pop\n      jump\t// out\n        /* \"#utility.yul\":3520:3886   */\n    tag_79:\n        /* \"#utility.yul\":3662:3665   */\n      0x00\n        /* \"#utility.yul\":3683:3750   */\n      tag_125\n        /* \"#utility.yul\":3747:3749   */\n      0x0c\n        /* \"#utility.yul\":3742:3745   */\n      dup4\n        /* \"#utility.yul\":3683:3750   */\n      tag_77\n      jump\t// in\n    tag_125:\n        /* \"#utility.yul\":3676:3750   */\n      swap2\n      pop\n        /* \"#utility.yul\":3759:3852   */\n      tag_126\n        /* \"#utility.yul\":3848:3851   */\n      dup3\n        /* \"#utility.yul\":3759:3852   */\n      tag_78\n      jump\t// in\n    tag_126:\n        /* \"#utility.yul\":3877:3879   */\n      0x20\n        /* \"#utility.yul\":3872:3875   */\n      dup3\n        /* \"#utility.yul\":3868:3880   */\n      add\n        /* \"#utility.yul\":3861:3880   */\n      swap1\n      pop\n        /* \"#utility.yul\":3520:3886   */\n      swap2\n      swap1\n      pop\n      jump\t// out\n        /* \"#utility.yul\":3892:4311   */\n    tag_41:\n        /* \"#utility.yul\":4058:4062   */\n      0x00\n        /* \"#utility.yul\":4096:4098   */\n      0x20\n        /* \"#utility.yul\":4085:4094   */\n      dup3\n        /* \"#utility.yul\":4081:4099   */\n      add\n        /* \"#utility.yul\":4073:4099   */\n      swap1\n      pop\n        /* \"#utility.yul\":4145:4154   */\n      dup2\n        /* \"#utility.yul\":4139:4143   */\n      dup2\n        /* \"#utility.yul\":4135:4155   */\n      sub\n        /* \"#utility.yul\":4131:4132   */\n      0x00\n        /* \"#utility.yul\":4120:4129   */\n      dup4\n        /* \"#utility.yul\":4116:4133   */\n      add\n        /* \"#utility.yul\":4109:4156   */\n      mstore\n        /* \"#utility.yul\":4173:4304   */\n      tag_128\n        /* \"#utility.yul\":4299:4303   */\n      dup2\n        /* \"#utility.yul\":4173:4304   */\n      tag_79\n      jump\t// in\n    tag_128:\n        /* \"#utility.yul\":4165:4304   */\n      swap1\n      pop\n        /* \"#utility.yul\":3892:4311   */\n      swap2\n      swap1\n      pop\n      jump\t// out\n        /* \"#utility.yul\":4317:4482   */\n    tag_80:\n        /* \"#utility.yul\":4457:4474   */\n      0x4f726465722063616e63656c6c65640000000000000000000000000000000000\n        /* \"#utility.yul\":4453:4454   */\n      0x00\n        /* \"#utility.yul\":4445:4451   */\n      dup3\n        /* \"#utility.yul\":4441:4455   */\n      add\n        /* \"#utility.yul\":4434:4475   */\n      mstore\n        /* \"#utility.yul\":4317:4482   */\n      pop\n      jump\t// out\n        /* \"#utility.yul\":4488:4854   */\n    tag_81:\n        /* \"#utility.yul\":4630:4633   */\n      0x00\n        /* \"#utility.yul\":4651:4718   */\n      tag_131\n        /* \"#utility.yul\":4715:4717   */\n      0x0f\n        /* \"#utility.yul\":4710:4713   */\n      dup4\n        /* \"#utility.yul\":4651:4718   */\n      tag_77\n      jump\t// in\n    tag_131:\n        /* \"#utility.yul\":4644:4718   */\n      swap2\n      pop\n        /* \"#utility.yul\":4727:4820   */\n      tag_132\n        /* \"#utility.yul\":4816:4819   */\n      dup3\n        /* \"#utility.yul\":4727:4820   */\n      tag_80\n      jump\t// in\n    tag_132:\n        /* \"#utility.yul\":4845:4847   */\n      0x20\n        /* \"#utility.yul\":4840:4843   */\n      dup3\n        /* \"#utility.yul\":4836:4848   */\n      add\n        /* \"#utility.yul\":4829:4848   */\n      swap1\n      pop\n        /* \"#utility.yul\":4488:4854   */\n      swap2\n      swap1\n      pop\n      jump\t// out\n        /* \"#utility.yul\":4860:5279   */\n    tag_52:\n        /* \"#utility.yul\":5026:5030   */\n      0x00\n        /* \"#utility.yul\":5064:5066   */\n      0x20\n        /* \"#utility.yul\":5053:5062   */\n      dup3\n        /* \"#utility.yul\":5049:5067   */\n      add\n        /* \"#utility.yul\":5041:5067   */\n      swap1\n      pop\n        /* \"#utility.yul\":5113:5122   */\n      dup2\n        /* \"#utility.yul\":5107:5111   */\n      dup2\n        /* \"#utility.yul\":5103:5123   */\n      sub\n        /* \"#utility.yul\":5099:5100   */\n      0x00\n        /* \"#utility.yul\":5088:5097   */\n      dup4\n        /* \"#utility.yul\":5084:5101   */\n      add\n        /* \"#utility.yul\":5077:5124   */\n      mstore\n        /* \"#utility.yul\":5141:5272   */\n      tag_134\n        /* \"#utility.yul\":5267:5271   */\n      dup2\n        /* \"#utility.yul\":5141:5272   */\n      tag_81\n      jump\t// in\n    tag_134:\n        /* \"#utility.yul\":5133:5272   */\n      swap1\n      pop\n        /* \"#utility.yul\":4860:5279   */\n      swap2\n      swap1\n      pop\n      jump\t// out\n        /* \"#utility.yul\":5285:5465   */\n    tag_82:\n        /* \"#utility.yul\":5333:5410   */\n      0x4e487b7100000000000000000000000000000000000000000000000000000000\n        /* \"#utility.yul\":5330:5331   */\n      0x00\n        /* \"#utility.yul\":5323:5411   */\n      mstore\n        /* \"#utility.yul\":5430:5434   */\n      0x11\n        /* \"#utility.yul\":5427:5428   */\n      0x04\n        /* \"#utility.yul\":5420:5435   */\n      mstore\n        /* \"#utility.yul\":5454:5458   */\n      0x24\n        /* \"#utility.yul\":5451:5452   */\n      0x00\n        /* \"#utility.yul\":5444:5459   */\n      revert\n        /* \"#utility.yul\":5471:5704   */\n    tag_61:\n        /* \"#utility.yul\":5510:5513   */\n      0x00\n        /* \"#utility.yul\":5533:5557   */\n      tag_137\n        /* \"#utility.yul\":5551:5556   */\n      dup3\n        /* \"#utility.yul\":5533:5557   */\n      tag_67\n      jump\t// in\n    tag_137:\n        /* \"#utility.yul\":5524:5557   */\n      swap2\n      pop\n        /* \"#utility.yul\":5579:5645   */\n      0xffffffffffffffffffffffffffffffffffffffffffffffffffffffffffffffff\n        /* \"#utility.yul\":5572:5577   */\n      dup3\n        /* \"#utility.yul\":5569:5646   */\n      sub\n        /* \"#utility.yul\":5566:5669   */\n      tag_138\n      jumpi\n        /* \"#utility.yul\":5649:5667   */\n      tag_139\n      tag_82\n      jump\t// in\n    tag_139:\n        /* \"#utility.yul\":5566:5669   */\n    tag_138:\n        /* \"#utility.yul\":5696:5697   */\n      0x01\n        /* \"#utility.yul\":5689:5694   */\n      dup3\n        /* \"#utility.yul\":5685:5698   */\n      add\n        /* \"#utility.yul\":5678:5698   */\n      swap1\n      pop\n        /* \"#utility.yul\":5471:5704   */\n      swap2\n      swap1\n      pop\n      jump\t// out\n\n    auxdata: 0xa264697066735822122045ea4ce4f238e45b2631bb4bc7b40b97a37b9f912717f9f01ef85687cc30df0964736f6c634300081e0033\n}\n",
				"bytecode": {
					"linkReferences": {},
					"object": "6080604052348015600e575f5ffd5b506106d68061001c5f395ff3fe608060405234801561000f575f5ffd5b5060043610610060575f3560e01c8063194c302c146100645780632453ffa8146100805780633a1b3d311461009e5780634d0dac47146100ba5780636512e6ec146100ea578063a85c38ef14610108575b5f5ffd5b61007e6004803603810190610079919061040c565b610138565b005b61008861022f565b6040516100959190610446565b60405180910390f35b6100b860048036038101906100b39190610482565b610235565b005b6100d460048036038101906100cf919061040c565b61032a565b6040516100e19190610446565b60405180910390f35b6100f2610361565b6040516100ff9190610446565b60405180910390f35b610122600480360381019061011d919061040c565b6103b9565b60405161012f9190610533565b60405180910390f35b6001600481111561014c5761014b6104c0565b5b5f5f8381526020019081526020015f205f9054906101000a900460ff16600481111561017b5761017a6104c0565b5b146101bb576040517f08c379a00000000000000000000000000000000000000000000000000000000081526004016101b2906105a6565b60405180910390fd5b60025f5f8381526020019081526020015f205f6101000a81548160ff021916908360048111156101ee576101ed6104c0565b5b0217905550807f15fe7663e318fda785235fa9e39aa6923ffd39fe53631991197fb842f34f6ba960026040516102249190610533565b60405180910390a250565b60015481565b600480811115610248576102476104c0565b5b5f5f8481526020019081526020015f205f9054906101000a900460ff166004811115610277576102766104c0565b5b036102b7576040517f08c379a00000000000000000000000000000000000000000000000000000000081526004016102ae9061060e565b60405180910390fd5b805f5f8481526020019081526020015f205f6101000a81548160ff021916908360048111156102e9576102e86104c0565b5b0217905550817f15fe7663e318fda785235fa9e39aa6923ffd39fe53631991197fb842f34f6ba98260405161031e9190610533565b60405180910390a25050565b5f5f5f8381526020019081526020015f205f9054906101000a900460ff16600481111561035a576103596104c0565b5b9050919050565b5f5f60015f81548092919061037590610659565b9190505590505f5f5f8381526020019081526020015f205f6101000a81548160ff021916908360048111156103ad576103ac6104c0565b5b02179055508091505090565b5f602052805f5260405f205f915054906101000a900460ff1681565b5f5ffd5b5f819050919050565b6103eb816103d9565b81146103f5575f5ffd5b50565b5f81359050610406816103e2565b92915050565b5f60208284031215610421576104206103d5565b5b5f61042e848285016103f8565b91505092915050565b610440816103d9565b82525050565b5f6020820190506104595f830184610437565b92915050565b6005811061046b575f5ffd5b50565b5f8135905061047c8161045f565b92915050565b5f5f60408385031215610498576104976103d5565b5b5f6104a5858286016103f8565b92505060206104b68582860161046e565b9150509250929050565b7f4e487b71000000000000000000000000000000000000000000000000000000005f52602160045260245ffd5b600581106104fe576104fd6104c0565b5b50565b5f81905061050e826104ed565b919050565b5f61051d82610501565b9050919050565b61052d81610513565b82525050565b5f6020820190506105465f830184610524565b92915050565b5f82825260208201905092915050565b7f4d757374206265207061696400000000000000000000000000000000000000005f82015250565b5f610590600c8361054c565b915061059b8261055c565b602082019050919050565b5f6020820190508181035f8301526105bd81610584565b9050919050565b7f4f726465722063616e63656c6c656400000000000000000000000000000000005f82015250565b5f6105f8600f8361054c565b9150610603826105c4565b602082019050919050565b5f6020820190508181035f830152610625816105ec565b9050919050565b7f4e487b71000000000000000000000000000000000000000000000000000000005f52601160045260245ffd5b5f610663826103d9565b91507fffffffffffffffffffffffffffffffffffffffffffffffffffffffffffffffff82036106955761069461062c565b5b60018201905091905056fea264697066735822122045ea4ce4f238e45b2631bb4bc7b40b97a37b9f912717f9f01ef85687cc30df0964736f6c634300081e0033",
					"opcodes": "PUSH1 0x80 PUSH1 0x40 MSTORE CALLVALUE DUP1 ISZERO PUSH1 0xE JUMPI PUSH0 PUSH0 REVERT JUMPDEST POP PUSH2 0x6D6 DUP1 PUSH2 0x1C PUSH0 CODECOPY PUSH0 RETURN INVALID PUSH1 0x80 PUSH1 0x40 MSTORE CALLVALUE DUP1 ISZERO PUSH2 0xF JUMPI PUSH0 PUSH0 REVERT JUMPDEST POP PUSH1 0x4 CALLDATASIZE LT PUSH2 0x60 JUMPI PUSH0 CALLDATALOAD PUSH1 0xE0 SHR DUP1 PUSH4 0x194C302C EQ PUSH2 0x64 JUMPI DUP1 PUSH4 0x2453FFA8 EQ PUSH2 0x80 JUMPI DUP1 PUSH4 0x3A1B3D31 EQ PUSH2 0x9E JUMPI DUP1 PUSH4 0x4D0DAC47 EQ PUSH2 0xBA JUMPI DUP1 PUSH4 0x6512E6EC EQ PUSH2 0xEA JUMPI DUP1 PUSH4 0xA85C38EF EQ PUSH2 0x108 JUMPI JUMPDEST PUSH0 PUSH0 REVERT JUMPDEST PUSH2 0x7E PUSH1 0x4 DUP1 CALLDATASIZE SUB DUP2 ADD SWAP1 PUSH2 0x79 SWAP2 SWAP1 PUSH2 0x40C JUMP JUMPDEST PUSH2 0x138 JUMP JUMPDEST STOP JUMPDEST PUSH2 0x88 PUSH2 0x22F JUMP JUMPDEST PUSH1 0x40 MLOAD PUSH2 0x95 SWAP2 SWAP1 PUSH2 0x446 JUMP JUMPDEST PUSH1 0x40 MLOAD DUP1 SWAP2 SUB SWAP1 RETURN JUMPDEST PUSH2 0xB8 PUSH1 0x4 DUP1 CALLDATASIZE SUB DUP2 ADD SWAP1 PUSH2 0xB3 SWAP2 SWAP1 PUSH2 0x482 JUMP JUMPDEST PUSH2 0x235 JUMP JUMPDEST STOP JUMPDEST PUSH2 0xD4 PUSH1 0x4 DUP1 CALLDATASIZE SUB DUP2 ADD SWAP1 PUSH2 0xCF SWAP2 SWAP1 PUSH2 0x40C JUMP JUMPDEST PUSH2 0x32A JUMP JUMPDEST PUSH1 0x40 MLOAD PUSH2 0xE1 SWAP2 SWAP1 PUSH2 0x446 JUMP JUMPDEST PUSH1 0x40 MLOAD DUP1 SWAP2 SUB SWAP1 RETURN JUMPDEST PUSH2 0xF2 PUSH2 0x361 JUMP JUMPDEST PUSH1 0x40 MLOAD PUSH2 0xFF SWAP2 SWAP1 PUSH2 0x446 JUMP JUMPDEST PUSH1 0x40 MLOAD DUP1 SWAP2 SUB SWAP1 RETURN JUMPDEST PUSH2 0x122 PUSH1 0x4 DUP1 CALLDATASIZE SUB DUP2 ADD SWAP1 PUSH2 0x11D SWAP2 SWAP1 PUSH2 0x40C JUMP JUMPDEST PUSH2 0x3B9 JUMP JUMPDEST PUSH1 0x40 MLOAD PUSH2 0x12F SWAP2 SWAP1 PUSH2 0x533 JUMP JUMPDEST PUSH1 0x40 MLOAD DUP1 SWAP2 SUB SWAP1 RETURN JUMPDEST PUSH1 0x1 PUSH1 0x4 DUP2 GT ISZERO PUSH2 0x14C JUMPI PUSH2 0x14B PUSH2 0x4C0 JUMP JUMPDEST JUMPDEST PUSH0 PUSH0 DUP4 DUP2 MSTORE PUSH1 0x20 ADD SWAP1 DUP2 MSTORE PUSH1 0x20 ADD PUSH0 KECCAK256 PUSH0 SWAP1 SLOAD SWAP1 PUSH2 0x100 EXP SWAP1 DIV PUSH1 0xFF AND PUSH1 0x4 DUP2 GT ISZERO PUSH2 0x17B JUMPI PUSH2 0x17A PUSH2 0x4C0 JUMP JUMPDEST JUMPDEST EQ PUSH2 0x1BB JUMPI PUSH1 0x40 MLOAD PUSH32 0x8C379A000000000000000000000000000000000000000000000000000000000 DUP2 MSTORE PUSH1 0x4 ADD PUSH2 0x1B2 SWAP1 PUSH2 0x5A6 JUMP JUMPDEST PUSH1 0x40 MLOAD DUP1 SWAP2 SUB SWAP1 REVERT JUMPDEST PUSH1 0x2 PUSH0 PUSH0 DUP4 DUP2 MSTORE PUSH1 0x20 ADD SWAP1 DUP2 MSTORE PUSH1 0x20 ADD PUSH0 KECCAK256 PUSH0 PUSH2 0x100 EXP DUP2 SLOAD DUP2 PUSH1 0xFF MUL NOT AND SWAP1 DUP4 PUSH1 0x4 DUP2 GT ISZERO PUSH2 0x1EE JUMPI PUSH2 0x1ED PUSH2 0x4C0 JUMP JUMPDEST JUMPDEST MUL OR SWAP1 SSTORE POP DUP1 PUSH32 0x15FE7663E318FDA785235FA9E39AA6923FFD39FE53631991197FB842F34F6BA9 PUSH1 0x2 PUSH1 0x40 MLOAD PUSH2 0x224 SWAP2 SWAP1 PUSH2 0x533 JUMP JUMPDEST PUSH1 0x40 MLOAD DUP1 SWAP2 SUB SWAP1 LOG2 POP JUMP JUMPDEST PUSH1 0x1 SLOAD DUP2 JUMP JUMPDEST PUSH1 0x4 DUP1 DUP2 GT ISZERO PUSH2 0x248 JUMPI PUSH2 0x247 PUSH2 0x4C0 JUMP JUMPDEST JUMPDEST PUSH0 PUSH0 DUP5 DUP2 MSTORE PUSH1 0x20 ADD SWAP1 DUP2 MSTORE PUSH1 0x20 ADD PUSH0 KECCAK256 PUSH0 SWAP1 SLOAD SWAP1 PUSH2 0x100 EXP SWAP1 DIV PUSH1 0xFF AND PUSH1 0x4 DUP2 GT ISZERO PUSH2 0x277 JUMPI PUSH2 0x276 PUSH2 0x4C0 JUMP JUMPDEST JUMPDEST SUB PUSH2 0x2B7 JUMPI PUSH1 0x40 MLOAD PUSH32 0x8C379A000000000000000000000000000000000000000000000000000000000 DUP2 MSTORE PUSH1 0x4 ADD PUSH2 0x2AE SWAP1 PUSH2 0x60E JUMP JUMPDEST PUSH1 0x40 MLOAD DUP1 SWAP2 SUB SWAP1 REVERT JUMPDEST DUP1 PUSH0 PUSH0 DUP5 DUP2 MSTORE PUSH1 0x20 ADD SWAP1 DUP2 MSTORE PUSH1 0x20 ADD PUSH0 KECCAK256 PUSH0 PUSH2 0x100 EXP DUP2 SLOAD DUP2 PUSH1 0xFF MUL NOT AND SWAP1 DUP4 PUSH1 0x4 DUP2 GT ISZERO PUSH2 0x2E9 JUMPI PUSH2 0x2E8 PUSH2 0x4C0 JUMP JUMPDEST JUMPDEST MUL OR SWAP1 SSTORE POP DUP2 PUSH32 0x15FE7663E318FDA785235FA9E39AA6923FFD39FE53631991197FB842F34F6BA9 DUP3 PUSH1 0x40 MLOAD PUSH2 0x31E SWAP2 SWAP1 PUSH2 0x533 JUMP JUMPDEST PUSH1 0x40 MLOAD DUP1 SWAP2 SUB SWAP1 LOG2 POP POP JUMP JUMPDEST PUSH0 PUSH0 PUSH0 DUP4 DUP2 MSTORE PUSH1 0x20 ADD SWAP1 DUP2 MSTORE PUSH1 0x20 ADD PUSH0 KECCAK256 PUSH0 SWAP1 SLOAD SWAP1 PUSH2 0x100 EXP SWAP1 DIV PUSH1 0xFF AND PUSH1 0x4 DUP2 GT ISZERO PUSH2 0x35A JUMPI PUSH2 0x359 PUSH2 0x4C0 JUMP JUMPDEST JUMPDEST SWAP1 POP SWAP2 SWAP1 POP JUMP JUMPDEST PUSH0 PUSH0 PUSH1 0x1 PUSH0 DUP2 SLOAD DUP1 SWAP3 SWAP2 SWAP1 PUSH2 0x375 SWAP1 PUSH2 0x659 JUMP JUMPDEST SWAP2 SWAP1 POP SSTORE SWAP1 POP PUSH0 PUSH0 PUSH0 DUP4 DUP2 MSTORE PUSH1 0x20 ADD SWAP1 DUP2 MSTORE PUSH1 0x20 ADD PUSH0 KECCAK256 PUSH0 PUSH2 0x100 EXP DUP2 SLOAD DUP2 PUSH1 0xFF MUL NOT AND SWAP1 DUP4 PUSH1 0x4 DUP2 GT ISZERO PUSH2 0x3AD JUMPI PUSH2 0x3AC PUSH2 0x4C0 JUMP JUMPDEST JUMPDEST MUL OR SWAP1 SSTORE POP DUP1 SWAP2 POP POP SWAP1 JUMP JUMPDEST PUSH0 PUSH1 0x20 MSTORE DUP1 PUSH0 MSTORE PUSH1 0x40 PUSH0 KECCAK256 PUSH0 SWAP2 POP SLOAD SWAP1 PUSH2 0x100 EXP SWAP1 DIV PUSH1 0xFF AND DUP2 JUMP JUMPDEST PUSH0 PUSH0 REVERT JUMPDEST PUSH0 DUP2 SWAP1 POP SWAP2 SWAP1 POP JUMP JUMPDEST PUSH2 0x3EB DUP2 PUSH2 0x3D9 JUMP JUMPDEST DUP2 EQ PUSH2 0x3F5 JUMPI PUSH0 PUSH0 REVERT JUMPDEST POP JUMP JUMPDEST PUSH0 DUP2 CALLDATALOAD SWAP1 POP PUSH2 0x406 DUP2 PUSH2 0x3E2 JUMP JUMPDEST SWAP3 SWAP2 POP POP JUMP JUMPDEST PUSH0 PUSH1 0x20 DUP3 DUP5 SUB SLT ISZERO PUSH2 0x421 JUMPI PUSH2 0x420 PUSH2 0x3D5 JUMP JUMPDEST JUMPDEST PUSH0 PUSH2 0x42E DUP5 DUP3 DUP6 ADD PUSH2 0x3F8 JUMP JUMPDEST SWAP2 POP POP SWAP3 SWAP2 POP POP JUMP JUMPDEST PUSH2 0x440 DUP2 PUSH2 0x3D9 JUMP JUMPDEST DUP3 MSTORE POP POP JUMP JUMPDEST PUSH0 PUSH1 0x20 DUP3 ADD SWAP1 POP PUSH2 0x459 PUSH0 DUP4 ADD DUP5 PUSH2 0x437 JUMP JUMPDEST SWAP3 SWAP2 POP POP JUMP JUMPDEST PUSH1 0x5 DUP2 LT PUSH2 0x46B JUMPI PUSH0 PUSH0 REVERT JUMPDEST POP JUMP JUMPDEST PUSH0 DUP2 CALLDATALOAD SWAP1 POP PUSH2 0x47C DUP2 PUSH2 0x45F JUMP JUMPDEST SWAP3 SWAP2 POP POP JUMP JUMPDEST PUSH0 PUSH0 PUSH1 0x40 DUP4 DUP6 SUB SLT ISZERO PUSH2 0x498 JUMPI PUSH2 0x497 PUSH2 0x3D5 JUMP JUMPDEST JUMPDEST PUSH0 PUSH2 0x4A5 DUP6 DUP3 DUP7 ADD PUSH2 0x3F8 JUMP JUMPDEST SWAP3 POP POP PUSH1 0x20 PUSH2 0x4B6 DUP6 DUP3 DUP7 ADD PUSH2 0x46E JUMP JUMPDEST SWAP2 POP POP SWAP3 POP SWAP3 SWAP1 POP JUMP JUMPDEST PUSH32 0x4E487B7100000000000000000000000000000000000000000000000000000000 PUSH0 MSTORE PUSH1 0x21 PUSH1 0x4 MSTORE PUSH1 0x24 PUSH0 REVERT JUMPDEST PUSH1 0x5 DUP2 LT PUSH2 0x4FE JUMPI PUSH2 0x4FD PUSH2 0x4C0 JUMP JUMPDEST JUMPDEST POP JUMP JUMPDEST PUSH0 DUP2 SWAP1 POP PUSH2 0x50E DUP3 PUSH2 0x4ED JUMP JUMPDEST SWAP2 SWAP1 POP JUMP JUMPDEST PUSH0 PUSH2 0x51D DUP3 PUSH2 0x501 JUMP JUMPDEST SWAP1 POP SWAP2 SWAP1 POP JUMP JUMPDEST PUSH2 0x52D DUP2 PUSH2 0x513 JUMP JUMPDEST DUP3 MSTORE POP POP JUMP JUMPDEST PUSH0 PUSH1 0x20 DUP3 ADD SWAP1 POP PUSH2 0x546 PUSH0 DUP4 ADD DUP5 PUSH2 0x524 JUMP JUMPDEST SWAP3 SWAP2 POP POP JUMP JUMPDEST PUSH0 DUP3 DUP3 MSTORE PUSH1 0x20 DUP3 ADD SWAP1 POP SWAP3 SWAP2 POP POP JUMP JUMPDEST PUSH32 0x4D75737420626520706169640000000000000000000000000000000000000000 PUSH0 DUP3 ADD MSTORE POP JUMP JUMPDEST PUSH0 PUSH2 0x590 PUSH1 0xC DUP4 PUSH2 0x54C JUMP JUMPDEST SWAP2 POP PUSH2 0x59B DUP3 PUSH2 0x55C JUMP JUMPDEST PUSH1 0x20 DUP3 ADD SWAP1 POP SWAP2 SWAP1 POP JUMP JUMPDEST PUSH0 PUSH1 0x20 DUP3 ADD SWAP1 POP DUP2 DUP2 SUB PUSH0 DUP4 ADD MSTORE PUSH2 0x5BD DUP2 PUSH2 0x584 JUMP JUMPDEST SWAP1 POP SWAP2 SWAP1 POP JUMP JUMPDEST PUSH32 0x4F726465722063616E63656C6C65640000000000000000000000000000000000 PUSH0 DUP3 ADD MSTORE POP JUMP JUMPDEST PUSH0 PUSH2 0x5F8 PUSH1 0xF DUP4 PUSH2 0x54C JUMP JUMPDEST SWAP2 POP PUSH2 0x603 DUP3 PUSH2 0x5C4 JUMP JUMPDEST PUSH1 0x20 DUP3 ADD SWAP1 POP SWAP2 SWAP1 POP JUMP JUMPDEST PUSH0 PUSH1 0x20 DUP3 ADD SWAP1 POP DUP2 DUP2 SUB PUSH0 DUP4 ADD MSTORE PUSH2 0x625 DUP2 PUSH2 0x5EC JUMP JUMPDEST SWAP1 POP SWAP2 SWAP1 POP JUMP JUMPDEST PUSH32 0x4E487B7100000000000000000000000000000000000000000000000000000000 PUSH0 MSTORE PUSH1 0x11 PUSH1 0x4 MSTORE PUSH1 0x24 PUSH0 REVERT JUMPDEST PUSH0 PUSH2 0x663 DUP3 PUSH2 0x3D9 JUMP JUMPDEST SWAP2 POP PUSH32 0xFFFFFFFFFFFFFFFFFFFFFFFFFFFFFFFFFFFFFFFFFFFFFFFFFFFFFFFFFFFFFFFF DUP3 SUB PUSH2 0x695 JUMPI PUSH2 0x694 PUSH2 0x62C JUMP JUMPDEST JUMPDEST PUSH1 0x1 DUP3 ADD SWAP1 POP SWAP2 SWAP1 POP JUMP INVALID LOG2 PUSH5 0x6970667358 0x22 SLT KECCAK256 GASLIMIT 0xEA 0x4C RETF CALLCODE CODESIZE RETF JUMPDEST 0x26 BALANCE 0xBB 0x4B 0xC7 0xB4 SIGNEXTEND SWAP8 LOG3 PUSH28 0x9F912717F9F01EF85687CC30DF0964736F6C634300081E0033000000 "
				},
				"gasEstimates": {
					"creation": {
						"codeDepositCost": "350000",
						"executionCost": "384",
						"totalCost": "350384"
					},
					"external": {
						"createOrder()": "infinite",
						"getStatusValue(uint256)": "infinite",
						"orderCount()": "2425",
						"orders(uint256)": "2960",
						"shipOrder(uint256)": "28685",
						"updateStatus(uint256,uint8)": "28857"
					}
				},
				"methodIdentifiers": {
					"createOrder()": "6512e6ec",
					"getStatusValue(uint256)": "4d0dac47",
					"orderCount()": "2453ffa8",
					"orders(uint256)": "a85c38ef",
					"shipOrder(uint256)": "194c302c",
					"updateStatus(uint256,uint8)": "3a1b3d31"
				}
			},
			"storageLayout": {
				"storage": [
					{
						"astId": 12,
						"contract": "contracts/EnumDemo.sol:EnumDemo",
						"label": "orders",
						"offset": 0,
						"slot": "0",
						"type": "t_mapping(t_uint256,t_enum(OrderStatus)7)"
					},
					{
						"astId": 14,
						"contract": "contracts/EnumDemo.sol:EnumDemo",
						"label": "orderCount",
						"offset": 0,
						"slot": "1",
						"type": "t_uint256"
					}
				],
				"types": {
					"t_enum(OrderStatus)7": {
						"encoding": "inplace",
						"label": "enum EnumDemo.OrderStatus",
						"numberOfBytes": "1"
					},
					"t_mapping(t_uint256,t_enum(OrderStatus)7)": {
						"encoding": "mapping",
						"key": "t_uint256",
						"label": "mapping(uint256 => enum EnumDemo.OrderStatus)",
						"numberOfBytes": "32",
						"value": "t_enum(OrderStatus)7"
					},
					"t_uint256": {
						"encoding": "inplace",
						"label": "uint256",
						"numberOfBytes": "32"
					}
				}
			},
			"userdoc": {
				"kind": "user",
				"methods": {},
				"version": 1
			}
		}
	}
}