{
	"contracts/UserManager.sol": {
		"UserManager": {
			"abi": [
				{
					"inputs": [
						{
							"components": [
								{
									"internalType": "string",
									"name": "name",
									"type": "string"
								},
								{
									"internalType": "uint256",
									"name": "age",
									"type": "uint256"
								},
								{
									"components": [
										{
											"internalType": "string",
											"name": "label",
											"type": "string"
										},
										{
											"internalType": "string",
											"name": "value",
											"type": "string"
										}
									],
									"internalType": "struct UserManager.Hobbie[]",
									"name": "hobbies",
									"type": "tuple[]"
								}
							],
							"internalType": "struct UserManager.Person",
							"name": "p",
							"type": "tuple"
						}
					],
					"name": "addPerson",
					"outputs": [],
					"stateMutability": "nonpayable",
					"type": "function"
				},
				{
					"inputs": [
						{
							"components": [
								{
									"internalType": "string",
									"name": "name",
									"type": "string"
								},
								{
									"internalType": "uint256",
									"name": "age",
									"type": "uint256"
								},
								{
									"components": [
										{
											"internalType": "string",
											"name": "label",
											"type": "string"
										},
										{
											"internalType": "string",
											"name": "value",
											"type": "string"
										}
									],
									"internalType": "struct UserManager.Hobbie[]",
									"name": "hobbies",
									"type": "tuple[]"
								}
							],
							"internalType": "struct UserManager.Person",
							"name": "p",
							"type": "tuple"
						},
						{
							"internalType": "address",
							"name": "addr",
							"type": "address"
						}
					],
					"name": "addPersonMap",
					"outputs": [],
					"stateMutability": "nonpayable",
					"type": "function"
				},
				{
					"inputs": [
						{
							"internalType": "address",
							"name": "userAddress",
							"type": "address"
						}
					],
					"name": "getUser",
					"outputs": [
						{
							"internalType": "string",
							"name": "",
							"type": "string"
						},
						{
							"internalType": "uint256",
							"name": "",
							"type": "uint256"
						},
						{
							"internalType": "address",
							"name": "",
							"type": "address"
						}
					],
					"stateMutability": "view",
					"type": "function"
				},
				{
					"inputs": [
						{
							"internalType": "address",
							"name": "",
							"type": "address"
						}
					],
					"name": "personMap",
					"outputs": [
						{
							"internalType": "string",
							"name": "name",
							"type": "string"
						},
						{
							"internalType": "uint256",
							"name": "age",
							"type": "uint256"
						}
					],
					"stateMutability": "view",
					"type": "function"
				},
				{
					"inputs": [
						{
							"internalType": "uint256",
							"name": "",
							"type": "uint256"
						}
					],
					"name": "persons",
					"outputs": [
						{
							"internalType": "string",
							"name": "name",
							"type": "string"
						},
						{
							"internalType": "uint256",
							"name": "age",
							"type": "uint256"
						}
					],
					"stateMutability": "view",
					"type": "function"
				},
				{
					"inputs": [
						{
							"internalType": "string",
							"name": "name",
							"type": "string"
						},
						{
							"internalType": "uint256",
							"name": "age",
							"type": "uint256"
						}
					],
					"name": "setUser",
					"outputs": [],
					"stateMutability": "nonpayable",
					"type": "function"
				},
				{
					"inputs": [
						{
							"internalType": "address",
							"name": "",
							"type": "address"
						}
					],
					"name": "users",
					"outputs": [
						{
							"internalType": "string",
							"name": "name",
							"type": "string"
						},
						{
							"internalType": "uint256",
							"name": "age",
							"type": "uint256"
						},
						{
							"internalType": "address",
							"name": "wallet",
							"type": "address"
						}
					],
					"stateMutability": "view",
					"type": "function"
				}
			],
			"devdoc": {
				"kind": "dev",
				"methods": {},
				"version": 1
			},
			"evm": {
				"assembly": "    /* \"contracts/UserManager.sol\":58:990  contract UserManager {... */\n  mstore(0x40, 0x80)\n  callvalue\n  dup1\n  iszero\n  tag_1\n  jumpi\n  revert(0x00, 0x00)\ntag_1:\n  pop\n  dataSize(sub_0)\n  dup1\n  dataOffset(sub_0)\n  0x00\n  codecopy\n  0x00\n  return\nstop\n\nsub_0: assembly {\n        /* \"contracts/UserManager.sol\":58:990  contract UserManager {... */\n      mstore(0x40, 0x80)\n      callvalue\n      dup1\n      iszero\n      tag_1\n      jumpi\n      revert(0x00, 0x00)\n    tag_1:\n      pop\n      jumpi(tag_2, lt(calldatasize, 0x04))\n      shr(0xe0, calldataload(0x00))\n      dup1\n      0xa2f9eac6\n      gt\n      tag_10\n      jumpi\n      dup1\n      0xa2f9eac6\n      eq\n      tag_6\n      jumpi\n      dup1\n      0xa87430ba\n      eq\n      tag_7\n      jumpi\n      dup1\n      0xd3bddc2b\n      eq\n      tag_8\n      jumpi\n      dup1\n      0xed3ac0de\n      eq\n      tag_9\n      jumpi\n      jump(tag_2)\n    tag_10:\n      dup1\n      0x398ebe3b\n      eq\n      tag_3\n      jumpi\n      dup1\n      0x5ae7998b\n      eq\n      tag_4\n      jumpi\n      dup1\n      0x6f77926b\n      eq\n      tag_5\n      jumpi\n    tag_2:\n      revert(0x00, 0x00)\n        /* \"contracts/UserManager.sol\":890:988  function addPersonMap(Person calldata p, address addr) public {... */\n    tag_3:\n      tag_11\n      0x04\n      dup1\n      calldatasize\n      sub\n      dup2\n      add\n      swap1\n      tag_12\n      swap2\n      swap1\n      tag_13\n      jump\t// in\n    tag_12:\n      tag_14\n      jump\t// in\n    tag_11:\n      stop\n        /* \"contracts/UserManager.sol\":807:884  function addPerson(Person calldata p) public {... */\n    tag_4:\n      tag_15\n      0x04\n      dup1\n      calldatasize\n      sub\n      dup2\n      add\n      swap1\n      tag_16\n      swap2\n      swap1\n      tag_17\n      jump\t// in\n    tag_16:\n      tag_18\n      jump\t// in\n    tag_15:\n      stop\n        /* \"contracts/UserManager.sol\":511:722  function getUser(... */\n    tag_5:\n      tag_19\n      0x04\n      dup1\n      calldatasize\n      sub\n      dup2\n      add\n      swap1\n      tag_20\n      swap2\n      swap1\n      tag_21\n      jump\t// in\n    tag_20:\n      tag_22\n      jump\t// in\n    tag_19:\n      mload(0x40)\n      tag_23\n      swap4\n      swap3\n      swap2\n      swap1\n      tag_24\n      jump\t// in\n    tag_23:\n      mload(0x40)\n      dup1\n      swap2\n      sub\n      swap1\n      return\n        /* \"contracts/UserManager.sol\":728:751  Person[] public persons */\n    tag_6:\n      tag_25\n      0x04\n      dup1\n      calldatasize\n      sub\n      dup2\n      add\n      swap1\n      tag_26\n      swap2\n      swap1\n      tag_27\n      jump\t// in\n    tag_26:\n      tag_28\n      jump\t// in\n    tag_25:\n      mload(0x40)\n      tag_29\n      swap3\n      swap2\n      swap1\n      tag_30\n      jump\t// in\n    tag_29:\n      mload(0x40)\n      dup1\n      swap2\n      sub\n      swap1\n      return\n        /* \"contracts/UserManager.sol\":342:379  mapping(address => User) public users */\n    tag_7:\n      tag_31\n      0x04\n      dup1\n      calldatasize\n      sub\n      dup2\n      add\n      swap1\n      tag_32\n      swap2\n      swap1\n      tag_21\n      jump\t// in\n    tag_32:\n      tag_33\n      jump\t// in\n    tag_31:\n      mload(0x40)\n      tag_34\n      swap4\n      swap3\n      swap2\n      swap1\n      tag_24\n      jump\t// in\n    tag_34:\n      mload(0x40)\n      dup1\n      swap2\n      sub\n      swap1\n      return\n        /* \"contracts/UserManager.sol\":385:506  function setUser(string memory name, uint256 age) public {... */\n    tag_8:\n      tag_35\n      0x04\n      dup1\n      calldatasize\n      sub\n      dup2\n      add\n      swap1\n      tag_36\n      swap2\n      swap1\n      tag_37\n      jump\t// in\n    tag_36:\n      tag_38\n      jump\t// in\n    tag_35:\n      stop\n        /* \"contracts/UserManager.sol\":757:800  mapping(address => Person) public personMap */\n    tag_9:\n      tag_39\n      0x04\n      dup1\n      calldatasize\n      sub\n      dup2\n      add\n      swap1\n      tag_40\n      swap2\n      swap1\n      tag_21\n      jump\t// in\n    tag_40:\n      tag_41\n      jump\t// in\n    tag_39:\n      mload(0x40)\n      tag_42\n      swap3\n      swap2\n      swap1\n      tag_30\n      jump\t// in\n    tag_42:\n      mload(0x40)\n      dup1\n      swap2\n      sub\n      swap1\n      return\n        /* \"contracts/UserManager.sol\":890:988  function addPersonMap(Person calldata p, address addr) public {... */\n    tag_14:\n        /* \"contracts/UserManager.sol\":980:981  p */\n      dup2\n        /* \"contracts/UserManager.sol\":962:971  personMap */\n      0x02\n        /* \"contracts/UserManager.sol\":962:977  personMap[addr] */\n      0x00\n        /* \"contracts/UserManager.sol\":972:976  addr */\n      dup4\n        /* \"contracts/UserManager.sol\":962:977  personMap[addr] */\n      0xffffffffffffffffffffffffffffffffffffffff\n      and\n      0xffffffffffffffffffffffffffffffffffffffff\n      and\n      dup2\n      mstore\n      0x20\n      add\n      swap1\n      dup2\n      mstore\n      0x20\n      add\n      0x00\n      keccak256\n        /* \"contracts/UserManager.sol\":962:981  personMap[addr] = p */\n      dup2\n      dup2\n      tag_44\n      swap2\n      swap1\n      tag_45\n      jump\t// in\n    tag_44:\n      swap1\n      pop\n      pop\n        /* \"contracts/UserManager.sol\":890:988  function addPersonMap(Person calldata p, address addr) public {... */\n      pop\n      pop\n      jump\t// out\n        /* \"contracts/UserManager.sol\":807:884  function addPerson(Person calldata p) public {... */\n    tag_18:\n        /* \"contracts/UserManager.sol\":862:869  persons */\n      0x01\n        /* \"contracts/UserManager.sol\":875:876  p */\n      dup2\n        /* \"contracts/UserManager.sol\":862:877  persons.push(p) */\n      swap1\n      dup1\n      0x01\n      dup2\n      sload\n      add\n      dup1\n      dup3\n      sstore\n      dup1\n      swap2\n      pop\n      pop\n      0x01\n      swap1\n      sub\n      swap1\n      0x00\n      mstore\n      keccak256(0x00, 0x20)\n      swap1\n      0x03\n      mul\n      add\n      0x00\n      swap1\n      swap2\n      swap1\n      swap2\n      swap1\n      swap2\n      pop\n      dup2\n      dup2\n      tag_48\n      swap2\n      swap1\n      tag_45\n      jump\t// in\n    tag_48:\n      pop\n      pop\n        /* \"contracts/UserManager.sol\":807:884  function addPerson(Person calldata p) public {... */\n      pop\n      jump\t// out\n        /* \"contracts/UserManager.sol\":511:722  function getUser(... */\n    tag_22:\n        /* \"contracts/UserManager.sol\":584:597  string memory */\n      0x60\n        /* \"contracts/UserManager.sol\":599:606  uint256 */\n      0x00\n        /* \"contracts/UserManager.sol\":608:615  address */\n      0x00\n        /* \"contracts/UserManager.sol\":627:643  User memory user */\n      0x00\n        /* \"contracts/UserManager.sol\":646:651  users */\n      0x00\n        /* \"contracts/UserManager.sol\":646:664  users[userAddress] */\n      0x00\n        /* \"contracts/UserManager.sol\":652:663  userAddress */\n      dup7\n        /* \"contracts/UserManager.sol\":646:664  users[userAddress] */\n      0xffffffffffffffffffffffffffffffffffffffff\n      and\n      0xffffffffffffffffffffffffffffffffffffffff\n      and\n      dup2\n      mstore\n      0x20\n      add\n      swap1\n      dup2\n      mstore\n      0x20\n      add\n      0x00\n      keccak256\n        /* \"contracts/UserManager.sol\":627:664  User memory user = users[userAddress] */\n      mload(0x40)\n      dup1\n      0x60\n      add\n      0x40\n      mstore\n      swap1\n      dup2\n      0x00\n      dup3\n      add\n      dup1\n      sload\n      tag_50\n      swap1\n      tag_51\n      jump\t// in\n    tag_50:\n      dup1\n      0x1f\n      add\n      0x20\n      dup1\n      swap2\n      div\n      mul\n      0x20\n      add\n      mload(0x40)\n      swap1\n      dup2\n      add\n      0x40\n      mstore\n      dup1\n      swap3\n      swap2\n      swap1\n      dup2\n      dup2\n      mstore\n      0x20\n      add\n      dup3\n      dup1\n      sload\n      tag_52\n      swap1\n      tag_51\n      jump\t// in\n    tag_52:\n      dup1\n      iszero\n      tag_53\n      jumpi\n      dup1\n      0x1f\n      lt\n      tag_54\n      jumpi\n      0x0100\n      dup1\n      dup4\n      sload\n      div\n      mul\n      dup4\n      mstore\n      swap2\n      0x20\n      add\n      swap2\n      jump(tag_53)\n    tag_54:\n      dup3\n      add\n      swap2\n      swap1\n      0x00\n      mstore\n      keccak256(0x00, 0x20)\n      swap1\n    tag_55:\n      dup2\n      sload\n      dup2\n      mstore\n      swap1\n      0x01\n      add\n      swap1\n      0x20\n      add\n      dup1\n      dup4\n      gt\n      tag_55\n      jumpi\n      dup3\n      swap1\n      sub\n      0x1f\n      and\n      dup3\n      add\n      swap2\n    tag_53:\n      pop\n      pop\n      pop\n      pop\n      pop\n      dup2\n      mstore\n      0x20\n      add\n      0x01\n      dup3\n      add\n      sload\n      dup2\n      mstore\n      0x20\n      add\n      0x02\n      dup3\n      add\n      0x00\n      swap1\n      sload\n      swap1\n      0x0100\n      exp\n      swap1\n      div\n      0xffffffffffffffffffffffffffffffffffffffff\n      and\n      0xffffffffffffffffffffffffffffffffffffffff\n      and\n      0xffffffffffffffffffffffffffffffffffffffff\n      and\n      dup2\n      mstore\n      pop\n      pop\n      swap1\n      pop\n        /* \"contracts/UserManager.sol\":682:686  user */\n      dup1\n        /* \"contracts/UserManager.sol\":682:691  user.name */\n      0x00\n      add\n      mload\n        /* \"contracts/UserManager.sol\":693:697  user */\n      dup2\n        /* \"contracts/UserManager.sol\":693:701  user.age */\n      0x20\n      add\n      mload\n        /* \"contracts/UserManager.sol\":703:707  user */\n      dup3\n        /* \"contracts/UserManager.sol\":703:714  user.wallet */\n      0x40\n      add\n      mload\n        /* \"contracts/UserManager.sol\":674:715  return (user.name, user.age, user.wallet) */\n      swap4\n      pop\n      swap4\n      pop\n      swap4\n      pop\n      pop\n        /* \"contracts/UserManager.sol\":511:722  function getUser(... */\n      swap2\n      swap4\n      swap1\n      swap3\n      pop\n      jump\t// out\n        /* \"contracts/UserManager.sol\":728:751  Person[] public persons */\n    tag_28:\n      0x01\n      dup2\n      dup2\n      sload\n      dup2\n      lt\n      tag_56\n      jumpi\n      0x00\n      dup1\n      revert\n    tag_56:\n      swap1\n      0x00\n      mstore\n      keccak256(0x00, 0x20)\n      swap1\n      0x03\n      mul\n      add\n      0x00\n      swap2\n      pop\n      swap1\n      pop\n      dup1\n      0x00\n      add\n      dup1\n      sload\n      tag_58\n      swap1\n      tag_51\n      jump\t// in\n    tag_58:\n      dup1\n      0x1f\n      add\n      0x20\n      dup1\n      swap2\n      div\n      mul\n      0x20\n      add\n      mload(0x40)\n      swap1\n      dup2\n      add\n      0x40\n      mstore\n      dup1\n      swap3\n      swap2\n      swap1\n      dup2\n      dup2\n      mstore\n      0x20\n      add\n      dup3\n      dup1\n      sload\n      tag_59\n      swap1\n      tag_51\n      jump\t// in\n    tag_59:\n      dup1\n      iszero\n      tag_60\n      jumpi\n      dup1\n      0x1f\n      lt\n      tag_61\n      jumpi\n      0x0100\n      dup1\n      dup4\n      sload\n      div\n      mul\n      dup4\n      mstore\n      swap2\n      0x20\n      add\n      swap2\n      jump(tag_60)\n    tag_61:\n      dup3\n      add\n      swap2\n      swap1\n      0x00\n      mstore\n      keccak256(0x00, 0x20)\n      swap1\n    tag_62:\n      dup2\n      sload\n      dup2\n      mstore\n      swap1\n      0x01\n      add\n      swap1\n      0x20\n      add\n      dup1\n      dup4\n      gt\n      tag_62\n      jumpi\n      dup3\n      swap1\n      sub\n      0x1f\n      and\n      dup3\n      add\n      swap2\n    tag_60:\n      pop\n      pop\n      pop\n      pop\n      pop\n      swap1\n      dup1\n      0x01\n      add\n      sload\n      swap1\n      pop\n      dup3\n      jump\t// out\n        /* \"contracts/UserManager.sol\":342:379  mapping(address => User) public users */\n    tag_33:\n      mstore(0x20, 0x00)\n      dup1\n      0x00\n      mstore\n      keccak256(0x00, 0x40)\n      0x00\n      swap2\n      pop\n      swap1\n      pop\n      dup1\n      0x00\n      add\n      dup1\n      sload\n      tag_63\n      swap1\n      tag_51\n      jump\t// in\n    tag_63:\n      dup1\n      0x1f\n      add\n      0x20\n      dup1\n      swap2\n      div\n      mul\n      0x20\n      add\n      mload(0x40)\n      swap1\n      dup2\n      add\n      0x40\n      mstore\n      dup1\n      swap3\n      swap2\n      swap1\n      dup2\n      dup2\n      mstore\n      0x20\n      add\n      dup3\n      dup1\n      sload\n      tag_64\n      swap1\n      tag_51\n      jump\t// in\n    tag_64:\n      dup1\n      iszero\n      tag_65\n      jumpi\n      dup1\n      0x1f\n      lt\n      tag_66\n      jumpi\n      0x0100\n      dup1\n      dup4\n      sload\n      div\n      mul\n      dup4\n      mstore\n      swap2\n      0x20\n      add\n      swap2\n      jump(tag_65)\n    tag_66:\n      dup3\n      add\n      swap2\n      swap1\n      0x00\n      mstore\n      keccak256(0x00, 0x20)\n      swap1\n    tag_67:\n      dup2\n      sload\n      dup2\n      mstore\n      swap1\n      0x01\n      add\n      swap1\n      0x20\n      add\n      dup1\n      dup4\n      gt\n      tag_67\n      jumpi\n      dup3\n      swap1\n      sub\n      0x1f\n      and\n      dup3\n      add\n      swap2\n    tag_65:\n      pop\n      pop\n      pop\n      pop\n      pop\n      swap1\n      dup1\n      0x01\n      add\n      sload\n      swap1\n      dup1\n      0x02\n      add\n      0x00\n      swap1\n      sload\n      swap1\n      0x0100\n      exp\n      swap1\n      div\n      0xffffffffffffffffffffffffffffffffffffffff\n      and\n      swap1\n      pop\n      dup4\n      jump\t// out\n        /* \"contracts/UserManager.sol\":385:506  function setUser(string memory name, uint256 age) public {... */\n    tag_38:\n        /* \"contracts/UserManager.sol\":472:499  User(name, age, msg.sender) */\n      mload(0x40)\n      dup1\n      0x60\n      add\n      0x40\n      mstore\n      dup1\n        /* \"contracts/UserManager.sol\":477:481  name */\n      dup4\n        /* \"contracts/UserManager.sol\":472:499  User(name, age, msg.sender) */\n      dup2\n      mstore\n      0x20\n      add\n        /* \"contracts/UserManager.sol\":483:486  age */\n      dup3\n        /* \"contracts/UserManager.sol\":472:499  User(name, age, msg.sender) */\n      dup2\n      mstore\n      0x20\n      add\n        /* \"contracts/UserManager.sol\":488:498  msg.sender */\n      caller\n        /* \"contracts/UserManager.sol\":472:499  User(name, age, msg.sender) */\n      0xffffffffffffffffffffffffffffffffffffffff\n      and\n      dup2\n      mstore\n      pop\n        /* \"contracts/UserManager.sol\":452:457  users */\n      0x00\n        /* \"contracts/UserManager.sol\":452:469  users[msg.sender] */\n      0x00\n        /* \"contracts/UserManager.sol\":458:468  msg.sender */\n      caller\n        /* \"contracts/UserManager.sol\":452:469  users[msg.sender] */\n      0xffffffffffffffffffffffffffffffffffffffff\n      and\n      0xffffffffffffffffffffffffffffffffffffffff\n      and\n      dup2\n      mstore\n      0x20\n      add\n      swap1\n      dup2\n      mstore\n      0x20\n      add\n      0x00\n      keccak256\n        /* \"contracts/UserManager.sol\":452:499  users[msg.sender] = User(name, age, msg.sender) */\n      0x00\n      dup3\n      add\n      mload\n      dup2\n      0x00\n      add\n      swap1\n      dup2\n      tag_69\n      swap2\n      swap1\n      tag_70\n      jump\t// in\n    tag_69:\n      pop\n      0x20\n      dup3\n      add\n      mload\n      dup2\n      0x01\n      add\n      sstore\n      0x40\n      dup3\n      add\n      mload\n      dup2\n      0x02\n      add\n      exp(0x0100, 0x00)\n      dup2\n      sload\n      dup2\n      0xffffffffffffffffffffffffffffffffffffffff\n      mul\n      not\n      and\n      swap1\n      dup4\n      0xffffffffffffffffffffffffffffffffffffffff\n      and\n      mul\n      or\n      swap1\n      sstore\n      pop\n      swap1\n      pop\n      pop\n        /* \"contracts/UserManager.sol\":385:506  function setUser(string memory name, uint256 age) public {... */\n      pop\n      pop\n      jump\t// out\n        /* \"contracts/UserManager.sol\":757:800  mapping(address => Person) public personMap */\n    tag_41:\n      mstore(0x20, 0x02)\n      dup1\n      0x00\n      mstore\n      keccak256(0x00, 0x40)\n      0x00\n      swap2\n      pop\n      swap1\n      pop\n      dup1\n      0x00\n      add\n      dup1\n      sload\n      tag_71\n      swap1\n      tag_51\n      jump\t// in\n    tag_71:\n      dup1\n      0x1f\n      add\n      0x20\n      dup1\n      swap2\n      div\n      mul\n      0x20\n      add\n      mload(0x40)\n      swap1\n      dup2\n      add\n      0x40\n      mstore\n      dup1\n      swap3\n      swap2\n      swap1\n      dup2\n      dup2\n      mstore\n      0x20\n      add\n      dup3\n      dup1\n      sload\n      tag_72\n      swap1\n      tag_51\n      jump\t// in\n    tag_72:\n      dup1\n      iszero\n      tag_73\n      jumpi\n      dup1\n      0x1f\n      lt\n      tag_74\n      jumpi\n      0x0100\n      dup1\n      dup4\n      sload\n      div\n      mul\n      dup4\n      mstore\n      swap2\n      0x20\n      add\n      swap2\n      jump(tag_73)\n    tag_74:\n      dup3\n      add\n      swap2\n      swap1\n      0x00\n      mstore\n      keccak256(0x00, 0x20)\n      swap1\n    tag_75:\n      dup2\n      sload\n      dup2\n      mstore\n      swap1\n      0x01\n      add\n      swap1\n      0x20\n      add\n      dup1\n      dup4\n      gt\n      tag_75\n      jumpi\n      dup3\n      swap1\n      sub\n      0x1f\n      and\n      dup3\n      add\n      swap2\n    tag_73:\n      pop\n      pop\n      pop\n      pop\n      pop\n      swap1\n      dup1\n      0x01\n      add\n      sload\n      swap1\n      pop\n      dup3\n      jump\t// out\n        /* \"#utility.yul\":7:82   */\n    tag_76:\n        /* \"#utility.yul\":40:46   */\n      0x00\n        /* \"#utility.yul\":73:75   */\n      0x40\n        /* \"#utility.yul\":67:76   */\n      mload\n        /* \"#utility.yul\":57:76   */\n      swap1\n      pop\n        /* \"#utility.yul\":7:82   */\n      swap1\n      jump\t// out\n        /* \"#utility.yul\":88:205   */\n    tag_77:\n        /* \"#utility.yul\":197:198   */\n      0x00\n        /* \"#utility.yul\":194:195   */\n      0x00\n        /* \"#utility.yul\":187:199   */\n      revert\n        /* \"#utility.yul\":211:328   */\n    tag_78:\n        /* \"#utility.yul\":320:321   */\n      0x00\n        /* \"#utility.yul\":317:318   */\n      0x00\n        /* \"#utility.yul\":310:322   */\n      revert\n        /* \"#utility.yul\":334:451   */\n    tag_79:\n        /* \"#utility.yul\":443:444   */\n      0x00\n        /* \"#utility.yul\":440:441   */\n      0x00\n        /* \"#utility.yul\":433:445   */\n      revert\n        /* \"#utility.yul\":490:718   */\n    tag_80:\n        /* \"#utility.yul\":560:565   */\n      0x00\n        /* \"#utility.yul\":601:603   */\n      0x60\n        /* \"#utility.yul\":592:598   */\n      dup3\n        /* \"#utility.yul\":587:590   */\n      dup5\n        /* \"#utility.yul\":583:599   */\n      sub\n        /* \"#utility.yul\":579:604   */\n      slt\n        /* \"#utility.yul\":576:688   */\n      iszero\n      tag_166\n      jumpi\n        /* \"#utility.yul\":607:686   */\n      tag_167\n      tag_79\n      jump\t// in\n    tag_167:\n        /* \"#utility.yul\":576:688   */\n    tag_166:\n        /* \"#utility.yul\":706:712   */\n      dup2\n        /* \"#utility.yul\":697:712   */\n      swap1\n      pop\n        /* \"#utility.yul\":490:718   */\n      swap3\n      swap2\n      pop\n      pop\n      jump\t// out\n        /* \"#utility.yul\":724:850   */\n    tag_81:\n        /* \"#utility.yul\":761:768   */\n      0x00\n        /* \"#utility.yul\":801:843   */\n      0xffffffffffffffffffffffffffffffffffffffff\n        /* \"#utility.yul\":794:799   */\n      dup3\n        /* \"#utility.yul\":790:844   */\n      and\n        /* \"#utility.yul\":779:844   */\n      swap1\n      pop\n        /* \"#utility.yul\":724:850   */\n      swap2\n      swap1\n      pop\n      jump\t// out\n        /* \"#utility.yul\":856:952   */\n    tag_82:\n        /* \"#utility.yul\":893:900   */\n      0x00\n        /* \"#utility.yul\":922:946   */\n      tag_170\n        /* \"#utility.yul\":940:945   */\n      dup3\n        /* \"#utility.yul\":922:946   */\n      tag_81\n      jump\t// in\n    tag_170:\n        /* \"#utility.yul\":911:946   */\n      swap1\n      pop\n        /* \"#utility.yul\":856:952   */\n      swap2\n      swap1\n      pop\n      jump\t// out\n        /* \"#utility.yul\":958:1080   */\n    tag_83:\n        /* \"#utility.yul\":1031:1055   */\n      tag_172\n        /* \"#utility.yul\":1049:1054   */\n      dup2\n        /* \"#utility.yul\":1031:1055   */\n      tag_82\n      jump\t// in\n    tag_172:\n        /* \"#utility.yul\":1024:1029   */\n      dup2\n        /* \"#utility.yul\":1021:1056   */\n      eq\n        /* \"#utility.yul\":1011:1074   */\n      tag_173\n      jumpi\n        /* \"#utility.yul\":1070:1071   */\n      0x00\n        /* \"#utility.yul\":1067:1068   */\n      0x00\n        /* \"#utility.yul\":1060:1072   */\n      revert\n        /* \"#utility.yul\":1011:1074   */\n    tag_173:\n        /* \"#utility.yul\":958:1080   */\n      pop\n      jump\t// out\n        /* \"#utility.yul\":1086:1225   */\n    tag_84:\n        /* \"#utility.yul\":1132:1137   */\n      0x00\n        /* \"#utility.yul\":1170:1176   */\n      dup2\n        /* \"#utility.yul\":1157:1177   */\n      calldataload\n        /* \"#utility.yul\":1148:1177   */\n      swap1\n      pop\n        /* \"#utility.yul\":1186:1219   */\n      tag_175\n        /* \"#utility.yul\":1213:1218   */\n      dup2\n        /* \"#utility.yul\":1186:1219   */\n      tag_83\n      jump\t// in\n    tag_175:\n        /* \"#utility.yul\":1086:1225   */\n      swap3\n      swap2\n      pop\n      pop\n      jump\t// out\n        /* \"#utility.yul\":1231:1913   */\n    tag_13:\n        /* \"#utility.yul\":1323:1329   */\n      0x00\n        /* \"#utility.yul\":1331:1337   */\n      0x00\n        /* \"#utility.yul\":1380:1382   */\n      0x40\n        /* \"#utility.yul\":1368:1377   */\n      dup4\n        /* \"#utility.yul\":1359:1366   */\n      dup6\n        /* \"#utility.yul\":1355:1378   */\n      sub\n        /* \"#utility.yul\":1351:1383   */\n      slt\n        /* \"#utility.yul\":1348:1467   */\n      iszero\n      tag_177\n      jumpi\n        /* \"#utility.yul\":1386:1465   */\n      tag_178\n      tag_77\n      jump\t// in\n    tag_178:\n        /* \"#utility.yul\":1348:1467   */\n    tag_177:\n        /* \"#utility.yul\":1534:1535   */\n      0x00\n        /* \"#utility.yul\":1523:1532   */\n      dup4\n        /* \"#utility.yul\":1519:1536   */\n      add\n        /* \"#utility.yul\":1506:1537   */\n      calldataload\n        /* \"#utility.yul\":1564:1582   */\n      0xffffffffffffffff\n        /* \"#utility.yul\":1556:1562   */\n      dup2\n        /* \"#utility.yul\":1553:1583   */\n      gt\n        /* \"#utility.yul\":1550:1667   */\n      iszero\n      tag_179\n      jumpi\n        /* \"#utility.yul\":1586:1665   */\n      tag_180\n      tag_78\n      jump\t// in\n    tag_180:\n        /* \"#utility.yul\":1550:1667   */\n    tag_179:\n        /* \"#utility.yul\":1691:1768   */\n      tag_181\n        /* \"#utility.yul\":1760:1767   */\n      dup6\n        /* \"#utility.yul\":1751:1757   */\n      dup3\n        /* \"#utility.yul\":1740:1749   */\n      dup7\n        /* \"#utility.yul\":1736:1758   */\n      add\n        /* \"#utility.yul\":1691:1768   */\n      tag_80\n      jump\t// in\n    tag_181:\n        /* \"#utility.yul\":1681:1768   */\n      swap3\n      pop\n        /* \"#utility.yul\":1477:1778   */\n      pop\n        /* \"#utility.yul\":1817:1819   */\n      0x20\n        /* \"#utility.yul\":1843:1896   */\n      tag_182\n        /* \"#utility.yul\":1888:1895   */\n      dup6\n        /* \"#utility.yul\":1879:1885   */\n      dup3\n        /* \"#utility.yul\":1868:1877   */\n      dup7\n        /* \"#utility.yul\":1864:1886   */\n      add\n        /* \"#utility.yul\":1843:1896   */\n      tag_84\n      jump\t// in\n    tag_182:\n        /* \"#utility.yul\":1833:1896   */\n      swap2\n      pop\n        /* \"#utility.yul\":1788:1906   */\n      pop\n        /* \"#utility.yul\":1231:1913   */\n      swap3\n      pop\n      swap3\n      swap1\n      pop\n      jump\t// out\n        /* \"#utility.yul\":1919:2456   */\n    tag_17:\n        /* \"#utility.yul\":2002:2008   */\n      0x00\n        /* \"#utility.yul\":2051:2053   */\n      0x20\n        /* \"#utility.yul\":2039:2048   */\n      dup3\n        /* \"#utility.yul\":2030:2037   */\n      dup5\n        /* \"#utility.yul\":2026:2049   */\n      sub\n        /* \"#utility.yul\":2022:2054   */\n      slt\n        /* \"#utility.yul\":2019:2138   */\n      iszero\n      tag_184\n      jumpi\n        /* \"#utility.yul\":2057:2136   */\n      tag_185\n      tag_77\n      jump\t// in\n    tag_185:\n        /* \"#utility.yul\":2019:2138   */\n    tag_184:\n        /* \"#utility.yul\":2205:2206   */\n      0x00\n        /* \"#utility.yul\":2194:2203   */\n      dup3\n        /* \"#utility.yul\":2190:2207   */\n      add\n        /* \"#utility.yul\":2177:2208   */\n      calldataload\n        /* \"#utility.yul\":2235:2253   */\n      0xffffffffffffffff\n        /* \"#utility.yul\":2227:2233   */\n      dup2\n        /* \"#utility.yul\":2224:2254   */\n      gt\n        /* \"#utility.yul\":2221:2338   */\n      iszero\n      tag_186\n      jumpi\n        /* \"#utility.yul\":2257:2336   */\n      tag_187\n      tag_78\n      jump\t// in\n    tag_187:\n        /* \"#utility.yul\":2221:2338   */\n    tag_186:\n        /* \"#utility.yul\":2362:2439   */\n      tag_188\n        /* \"#utility.yul\":2431:2438   */\n      dup5\n        /* \"#utility.yul\":2422:2428   */\n      dup3\n        /* \"#utility.yul\":2411:2420   */\n      dup6\n        /* \"#utility.yul\":2407:2429   */\n      add\n        /* \"#utility.yul\":2362:2439   */\n      tag_80\n      jump\t// in\n    tag_188:\n        /* \"#utility.yul\":2352:2439   */\n      swap2\n      pop\n        /* \"#utility.yul\":2148:2449   */\n      pop\n        /* \"#utility.yul\":1919:2456   */\n      swap3\n      swap2\n      pop\n      pop\n      jump\t// out\n        /* \"#utility.yul\":2462:2791   */\n    tag_21:\n        /* \"#utility.yul\":2521:2527   */\n      0x00\n        /* \"#utility.yul\":2570:2572   */\n      0x20\n        /* \"#utility.yul\":2558:2567   */\n      dup3\n        /* \"#utility.yul\":2549:2556   */\n      dup5\n        /* \"#utility.yul\":2545:2568   */\n      sub\n        /* \"#utility.yul\":2541:2573   */\n      slt\n        /* \"#utility.yul\":2538:2657   */\n      iszero\n      tag_190\n      jumpi\n        /* \"#utility.yul\":2576:2655   */\n      tag_191\n      tag_77\n      jump\t// in\n    tag_191:\n        /* \"#utility.yul\":2538:2657   */\n    tag_190:\n        /* \"#utility.yul\":2696:2697   */\n      0x00\n        /* \"#utility.yul\":2721:2774   */\n      tag_192\n        /* \"#utility.yul\":2766:2773   */\n      dup5\n        /* \"#utility.yul\":2757:2763   */\n      dup3\n        /* \"#utility.yul\":2746:2755   */\n      dup6\n        /* \"#utility.yul\":2742:2764   */\n      add\n        /* \"#utility.yul\":2721:2774   */\n      tag_84\n      jump\t// in\n    tag_192:\n        /* \"#utility.yul\":2711:2774   */\n      swap2\n      pop\n        /* \"#utility.yul\":2667:2784   */\n      pop\n        /* \"#utility.yul\":2462:2791   */\n      swap3\n      swap2\n      pop\n      pop\n      jump\t// out\n        /* \"#utility.yul\":2797:2896   */\n    tag_85:\n        /* \"#utility.yul\":2849:2855   */\n      0x00\n        /* \"#utility.yul\":2883:2888   */\n      dup2\n        /* \"#utility.yul\":2877:2889   */\n      mload\n        /* \"#utility.yul\":2867:2889   */\n      swap1\n      pop\n        /* \"#utility.yul\":2797:2896   */\n      swap2\n      swap1\n      pop\n      jump\t// out\n        /* \"#utility.yul\":2902:3071   */\n    tag_86:\n        /* \"#utility.yul\":2986:2997   */\n      0x00\n        /* \"#utility.yul\":3020:3026   */\n      dup3\n        /* \"#utility.yul\":3015:3018   */\n      dup3\n        /* \"#utility.yul\":3008:3027   */\n      mstore\n        /* \"#utility.yul\":3060:3064   */\n      0x20\n        /* \"#utility.yul\":3055:3058   */\n      dup3\n        /* \"#utility.yul\":3051:3065   */\n      add\n        /* \"#utility.yul\":3036:3065   */\n      swap1\n      pop\n        /* \"#utility.yul\":2902:3071   */\n      swap3\n      swap2\n      pop\n      pop\n      jump\t// out\n        /* \"#utility.yul\":3077:3216   */\n    tag_87:\n        /* \"#utility.yul\":3166:3172   */\n      dup3\n        /* \"#utility.yul\":3161:3164   */\n      dup2\n        /* \"#utility.yul\":3156:3159   */\n      dup4\n        /* \"#utility.yul\":3150:3173   */\n      mcopy\n        /* \"#utility.yul\":3207:3208   */\n      0x00\n        /* \"#utility.yul\":3198:3204   */\n      dup4\n        /* \"#utility.yul\":3193:3196   */\n      dup4\n        /* \"#utility.yul\":3189:3205   */\n      add\n        /* \"#utility.yul\":3182:3209   */\n      mstore\n        /* \"#utility.yul\":3077:3216   */\n      pop\n      pop\n      pop\n      jump\t// out\n        /* \"#utility.yul\":3222:3324   */\n    tag_88:\n        /* \"#utility.yul\":3263:3269   */\n      0x00\n        /* \"#utility.yul\":3314:3316   */\n      0x1f\n        /* \"#utility.yul\":3310:3317   */\n      not\n        /* \"#utility.yul\":3305:3307   */\n      0x1f\n        /* \"#utility.yul\":3298:3303   */\n      dup4\n        /* \"#utility.yul\":3294:3308   */\n      add\n        /* \"#utility.yul\":3290:3318   */\n      and\n        /* \"#utility.yul\":3280:3318   */\n      swap1\n      pop\n        /* \"#utility.yul\":3222:3324   */\n      swap2\n      swap1\n      pop\n      jump\t// out\n        /* \"#utility.yul\":3330:3707   */\n    tag_89:\n        /* \"#utility.yul\":3418:3421   */\n      0x00\n        /* \"#utility.yul\":3446:3485   */\n      tag_198\n        /* \"#utility.yul\":3479:3484   */\n      dup3\n        /* \"#utility.yul\":3446:3485   */\n      tag_85\n      jump\t// in\n    tag_198:\n        /* \"#utility.yul\":3501:3572   */\n      tag_199\n        /* \"#utility.yul\":3565:3571   */\n      dup2\n        /* \"#utility.yul\":3560:3563   */\n      dup6\n        /* \"#utility.yul\":3501:3572   */\n      tag_86\n      jump\t// in\n    tag_199:\n        /* \"#utility.yul\":3494:3572   */\n      swap4\n      pop\n        /* \"#utility.yul\":3581:3646   */\n      tag_200\n        /* \"#utility.yul\":3639:3645   */\n      dup2\n        /* \"#utility.yul\":3634:3637   */\n      dup6\n        /* \"#utility.yul\":3627:3631   */\n      0x20\n        /* \"#utility.yul\":3620:3625   */\n      dup7\n        /* \"#utility.yul\":3616:3632   */\n      add\n        /* \"#utility.yul\":3581:3646   */\n      tag_87\n      jump\t// in\n    tag_200:\n        /* \"#utility.yul\":3671:3700   */\n      tag_201\n        /* \"#utility.yul\":3693:3699   */\n      dup2\n        /* \"#utility.yul\":3671:3700   */\n      tag_88\n      jump\t// in\n    tag_201:\n        /* \"#utility.yul\":3666:3669   */\n      dup5\n        /* \"#utility.yul\":3662:3701   */\n      add\n        /* \"#utility.yul\":3655:3701   */\n      swap2\n      pop\n        /* \"#utility.yul\":3422:3707   */\n      pop\n        /* \"#utility.yul\":3330:3707   */\n      swap3\n      swap2\n      pop\n      pop\n      jump\t// out\n        /* \"#utility.yul\":3713:3790   */\n    tag_90:\n        /* \"#utility.yul\":3750:3757   */\n      0x00\n        /* \"#utility.yul\":3779:3784   */\n      dup2\n        /* \"#utility.yul\":3768:3784   */\n      swap1\n      pop\n        /* \"#utility.yul\":3713:3790   */\n      swap2\n      swap1\n      pop\n      jump\t// out\n        /* \"#utility.yul\":3796:3914   */\n    tag_91:\n        /* \"#utility.yul\":3883:3907   */\n      tag_204\n        /* \"#utility.yul\":3901:3906   */\n      dup2\n        /* \"#utility.yul\":3883:3907   */\n      tag_90\n      jump\t// in\n    tag_204:\n        /* \"#utility.yul\":3878:3881   */\n      dup3\n        /* \"#utility.yul\":3871:3908   */\n      mstore\n        /* \"#utility.yul\":3796:3914   */\n      pop\n      pop\n      jump\t// out\n        /* \"#utility.yul\":3920:4038   */\n    tag_92:\n        /* \"#utility.yul\":4007:4031   */\n      tag_206\n        /* \"#utility.yul\":4025:4030   */\n      dup2\n        /* \"#utility.yul\":4007:4031   */\n      tag_82\n      jump\t// in\n    tag_206:\n        /* \"#utility.yul\":4002:4005   */\n      dup3\n        /* \"#utility.yul\":3995:4032   */\n      mstore\n        /* \"#utility.yul\":3920:4038   */\n      pop\n      pop\n      jump\t// out\n        /* \"#utility.yul\":4044:4577   */\n    tag_24:\n        /* \"#utility.yul\":4213:4217   */\n      0x00\n        /* \"#utility.yul\":4251:4253   */\n      0x60\n        /* \"#utility.yul\":4240:4249   */\n      dup3\n        /* \"#utility.yul\":4236:4254   */\n      add\n        /* \"#utility.yul\":4228:4254   */\n      swap1\n      pop\n        /* \"#utility.yul\":4300:4309   */\n      dup2\n        /* \"#utility.yul\":4294:4298   */\n      dup2\n        /* \"#utility.yul\":4290:4310   */\n      sub\n        /* \"#utility.yul\":4286:4287   */\n      0x00\n        /* \"#utility.yul\":4275:4284   */\n      dup4\n        /* \"#utility.yul\":4271:4288   */\n      add\n        /* \"#utility.yul\":4264:4311   */\n      mstore\n        /* \"#utility.yul\":4328:4406   */\n      tag_208\n        /* \"#utility.yul\":4401:4405   */\n      dup2\n        /* \"#utility.yul\":4392:4398   */\n      dup7\n        /* \"#utility.yul\":4328:4406   */\n      tag_89\n      jump\t// in\n    tag_208:\n        /* \"#utility.yul\":4320:4406   */\n      swap1\n      pop\n        /* \"#utility.yul\":4416:4488   */\n      tag_209\n        /* \"#utility.yul\":4484:4486   */\n      0x20\n        /* \"#utility.yul\":4473:4482   */\n      dup4\n        /* \"#utility.yul\":4469:4487   */\n      add\n        /* \"#utility.yul\":4460:4466   */\n      dup6\n        /* \"#utility.yul\":4416:4488   */\n      tag_91\n      jump\t// in\n    tag_209:\n        /* \"#utility.yul\":4498:4570   */\n      tag_210\n        /* \"#utility.yul\":4566:4568   */\n      0x40\n        /* \"#utility.yul\":4555:4564   */\n      dup4\n        /* \"#utility.yul\":4551:4569   */\n      add\n        /* \"#utility.yul\":4542:4548   */\n      dup5\n        /* \"#utility.yul\":4498:4570   */\n      tag_92\n      jump\t// in\n    tag_210:\n        /* \"#utility.yul\":4044:4577   */\n      swap5\n      swap4\n      pop\n      pop\n      pop\n      pop\n      jump\t// out\n        /* \"#utility.yul\":4583:4705   */\n    tag_93:\n        /* \"#utility.yul\":4656:4680   */\n      tag_212\n        /* \"#utility.yul\":4674:4679   */\n      dup2\n        /* \"#utility.yul\":4656:4680   */\n      tag_90\n      jump\t// in\n    tag_212:\n        /* \"#utility.yul\":4649:4654   */\n      dup2\n        /* \"#utility.yul\":4646:4681   */\n      eq\n        /* \"#utility.yul\":4636:4699   */\n      tag_213\n      jumpi\n        /* \"#utility.yul\":4695:4696   */\n      0x00\n        /* \"#utility.yul\":4692:4693   */\n      0x00\n        /* \"#utility.yul\":4685:4697   */\n      revert\n        /* \"#utility.yul\":4636:4699   */\n    tag_213:\n        /* \"#utility.yul\":4583:4705   */\n      pop\n      jump\t// out\n        /* \"#utility.yul\":4711:4850   */\n    tag_94:\n        /* \"#utility.yul\":4757:4762   */\n      0x00\n        /* \"#utility.yul\":4795:4801   */\n      dup2\n        /* \"#utility.yul\":4782:4802   */\n      calldataload\n        /* \"#utility.yul\":4773:4802   */\n      swap1\n      pop\n        /* \"#utility.yul\":4811:4844   */\n      tag_215\n        /* \"#utility.yul\":4838:4843   */\n      dup2\n        /* \"#utility.yul\":4811:4844   */\n      tag_93\n      jump\t// in\n    tag_215:\n        /* \"#utility.yul\":4711:4850   */\n      swap3\n      swap2\n      pop\n      pop\n      jump\t// out\n        /* \"#utility.yul\":4856:5185   */\n    tag_27:\n        /* \"#utility.yul\":4915:4921   */\n      0x00\n        /* \"#utility.yul\":4964:4966   */\n      0x20\n        /* \"#utility.yul\":4952:4961   */\n      dup3\n        /* \"#utility.yul\":4943:4950   */\n      dup5\n        /* \"#utility.yul\":4939:4962   */\n      sub\n        /* \"#utility.yul\":4935:4967   */\n      slt\n        /* \"#utility.yul\":4932:5051   */\n      iszero\n      tag_217\n      jumpi\n        /* \"#utility.yul\":4970:5049   */\n      tag_218\n      tag_77\n      jump\t// in\n    tag_218:\n        /* \"#utility.yul\":4932:5051   */\n    tag_217:\n        /* \"#utility.yul\":5090:5091   */\n      0x00\n        /* \"#utility.yul\":5115:5168   */\n      tag_219\n        /* \"#utility.yul\":5160:5167   */\n      dup5\n        /* \"#utility.yul\":5151:5157   */\n      dup3\n        /* \"#utility.yul\":5140:5149   */\n      dup6\n        /* \"#utility.yul\":5136:5158   */\n      add\n        /* \"#utility.yul\":5115:5168   */\n      tag_94\n      jump\t// in\n    tag_219:\n        /* \"#utility.yul\":5105:5168   */\n      swap2\n      pop\n        /* \"#utility.yul\":5061:5178   */\n      pop\n        /* \"#utility.yul\":4856:5185   */\n      swap3\n      swap2\n      pop\n      pop\n      jump\t// out\n        /* \"#utility.yul\":5191:5614   */\n    tag_30:\n        /* \"#utility.yul\":5332:5336   */\n      0x00\n        /* \"#utility.yul\":5370:5372   */\n      0x40\n        /* \"#utility.yul\":5359:5368   */\n      dup3\n        /* \"#utility.yul\":5355:5373   */\n      add\n        /* \"#utility.yul\":5347:5373   */\n      swap1\n      pop\n        /* \"#utility.yul\":5419:5428   */\n      dup2\n        /* \"#utility.yul\":5413:5417   */\n      dup2\n        /* \"#utility.yul\":5409:5429   */\n      sub\n        /* \"#utility.yul\":5405:5406   */\n      0x00\n        /* \"#utility.yul\":5394:5403   */\n      dup4\n        /* \"#utility.yul\":5390:5407   */\n      add\n        /* \"#utility.yul\":5383:5430   */\n      mstore\n        /* \"#utility.yul\":5447:5525   */\n      tag_221\n        /* \"#utility.yul\":5520:5524   */\n      dup2\n        /* \"#utility.yul\":5511:5517   */\n      dup6\n        /* \"#utility.yul\":5447:5525   */\n      tag_89\n      jump\t// in\n    tag_221:\n        /* \"#utility.yul\":5439:5525   */\n      swap1\n      pop\n        /* \"#utility.yul\":5535:5607   */\n      tag_222\n        /* \"#utility.yul\":5603:5605   */\n      0x20\n        /* \"#utility.yul\":5592:5601   */\n      dup4\n        /* \"#utility.yul\":5588:5606   */\n      add\n        /* \"#utility.yul\":5579:5585   */\n      dup5\n        /* \"#utility.yul\":5535:5607   */\n      tag_91\n      jump\t// in\n    tag_222:\n        /* \"#utility.yul\":5191:5614   */\n      swap4\n      swap3\n      pop\n      pop\n      pop\n      jump\t// out\n        /* \"#utility.yul\":5620:5737   */\n    tag_95:\n        /* \"#utility.yul\":5729:5730   */\n      0x00\n        /* \"#utility.yul\":5726:5727   */\n      0x00\n        /* \"#utility.yul\":5719:5731   */\n      revert\n        /* \"#utility.yul\":5743:5860   */\n    tag_96:\n        /* \"#utility.yul\":5852:5853   */\n      0x00\n        /* \"#utility.yul\":5849:5850   */\n      0x00\n        /* \"#utility.yul\":5842:5854   */\n      revert\n        /* \"#utility.yul\":5866:6046   */\n    tag_97:\n        /* \"#utility.yul\":5914:5991   */\n      0x4e487b7100000000000000000000000000000000000000000000000000000000\n        /* \"#utility.yul\":5911:5912   */\n      0x00\n        /* \"#utility.yul\":5904:5992   */\n      mstore\n        /* \"#utility.yul\":6011:6015   */\n      0x41\n        /* \"#utility.yul\":6008:6009   */\n      0x04\n        /* \"#utility.yul\":6001:6016   */\n      mstore\n        /* \"#utility.yul\":6035:6039   */\n      0x24\n        /* \"#utility.yul\":6032:6033   */\n      0x00\n        /* \"#utility.yul\":6025:6040   */\n      revert\n        /* \"#utility.yul\":6052:6333   */\n    tag_98:\n        /* \"#utility.yul\":6135:6162   */\n      tag_227\n        /* \"#utility.yul\":6157:6161   */\n      dup3\n        /* \"#utility.yul\":6135:6162   */\n      tag_88\n      jump\t// in\n    tag_227:\n        /* \"#utility.yul\":6127:6133   */\n      dup2\n        /* \"#utility.yul\":6123:6163   */\n      add\n        /* \"#utility.yul\":6265:6271   */\n      dup2\n        /* \"#utility.yul\":6253:6263   */\n      dup2\n        /* \"#utility.yul\":6250:6272   */\n      lt\n        /* \"#utility.yul\":6229:6247   */\n      0xffffffffffffffff\n        /* \"#utility.yul\":6217:6227   */\n      dup3\n        /* \"#utility.yul\":6214:6248   */\n      gt\n        /* \"#utility.yul\":6211:6273   */\n      or\n        /* \"#utility.yul\":6208:6296   */\n      iszero\n      tag_228\n      jumpi\n        /* \"#utility.yul\":6276:6294   */\n      tag_229\n      tag_97\n      jump\t// in\n    tag_229:\n        /* \"#utility.yul\":6208:6296   */\n    tag_228:\n        /* \"#utility.yul\":6316:6326   */\n      dup1\n        /* \"#utility.yul\":6312:6314   */\n      0x40\n        /* \"#utility.yul\":6305:6327   */\n      mstore\n        /* \"#utility.yul\":6095:6333   */\n      pop\n        /* \"#utility.yul\":6052:6333   */\n      pop\n      pop\n      jump\t// out\n        /* \"#utility.yul\":6339:6468   */\n    tag_99:\n        /* \"#utility.yul\":6373:6379   */\n      0x00\n        /* \"#utility.yul\":6400:6420   */\n      tag_231\n      tag_76\n      jump\t// in\n    tag_231:\n        /* \"#utility.yul\":6390:6420   */\n      swap1\n      pop\n        /* \"#utility.yul\":6429:6462   */\n      tag_232\n        /* \"#utility.yul\":6457:6461   */\n      dup3\n        /* \"#utility.yul\":6449:6455   */\n      dup3\n        /* \"#utility.yul\":6429:6462   */\n      tag_98\n      jump\t// in\n    tag_232:\n        /* \"#utility.yul\":6339:6468   */\n      swap2\n      swap1\n      pop\n      jump\t// out\n        /* \"#utility.yul\":6474:6782   */\n    tag_100:\n        /* \"#utility.yul\":6536:6540   */\n      0x00\n        /* \"#utility.yul\":6626:6644   */\n      0xffffffffffffffff\n        /* \"#utility.yul\":6618:6624   */\n      dup3\n        /* \"#utility.yul\":6615:6645   */\n      gt\n        /* \"#utility.yul\":6612:6668   */\n      iszero\n      tag_234\n      jumpi\n        /* \"#utility.yul\":6648:6666   */\n      tag_235\n      tag_97\n      jump\t// in\n    tag_235:\n        /* \"#utility.yul\":6612:6668   */\n    tag_234:\n        /* \"#utility.yul\":6686:6715   */\n      tag_236\n        /* \"#utility.yul\":6708:6714   */\n      dup3\n        /* \"#utility.yul\":6686:6715   */\n      tag_88\n      jump\t// in\n    tag_236:\n        /* \"#utility.yul\":6678:6715   */\n      swap1\n      pop\n        /* \"#utility.yul\":6770:6774   */\n      0x20\n        /* \"#utility.yul\":6764:6768   */\n      dup2\n        /* \"#utility.yul\":6760:6775   */\n      add\n        /* \"#utility.yul\":6752:6775   */\n      swap1\n      pop\n        /* \"#utility.yul\":6474:6782   */\n      swap2\n      swap1\n      pop\n      jump\t// out\n        /* \"#utility.yul\":6788:6936   */\n    tag_101:\n        /* \"#utility.yul\":6886:6892   */\n      dup3\n        /* \"#utility.yul\":6881:6884   */\n      dup2\n        /* \"#utility.yul\":6876:6879   */\n      dup4\n        /* \"#utility.yul\":6863:6893   */\n      calldatacopy\n        /* \"#utility.yul\":6927:6928   */\n      0x00\n        /* \"#utility.yul\":6918:6924   */\n      dup4\n        /* \"#utility.yul\":6913:6916   */\n      dup4\n        /* \"#utility.yul\":6909:6925   */\n      add\n        /* \"#utility.yul\":6902:6929   */\n      mstore\n        /* \"#utility.yul\":6788:6936   */\n      pop\n      pop\n      pop\n      jump\t// out\n        /* \"#utility.yul\":6942:7367   */\n    tag_102:\n        /* \"#utility.yul\":7020:7025   */\n      0x00\n        /* \"#utility.yul\":7045:7111   */\n      tag_239\n        /* \"#utility.yul\":7061:7110   */\n      tag_240\n        /* \"#utility.yul\":7103:7109   */\n      dup5\n        /* \"#utility.yul\":7061:7110   */\n      tag_100\n      jump\t// in\n    tag_240:\n        /* \"#utility.yul\":7045:7111   */\n      tag_99\n      jump\t// in\n    tag_239:\n        /* \"#utility.yul\":7036:7111   */\n      swap1\n      pop\n        /* \"#utility.yul\":7134:7140   */\n      dup3\n        /* \"#utility.yul\":7127:7132   */\n      dup2\n        /* \"#utility.yul\":7120:7141   */\n      mstore\n        /* \"#utility.yul\":7172:7176   */\n      0x20\n        /* \"#utility.yul\":7165:7170   */\n      dup2\n        /* \"#utility.yul\":7161:7177   */\n      add\n        /* \"#utility.yul\":7210:7213   */\n      dup5\n        /* \"#utility.yul\":7201:7207   */\n      dup5\n        /* \"#utility.yul\":7196:7199   */\n      dup5\n        /* \"#utility.yul\":7192:7208   */\n      add\n        /* \"#utility.yul\":7189:7214   */\n      gt\n        /* \"#utility.yul\":7186:7298   */\n      iszero\n      tag_241\n      jumpi\n        /* \"#utility.yul\":7217:7296   */\n      tag_242\n      tag_96\n      jump\t// in\n    tag_242:\n        /* \"#utility.yul\":7186:7298   */\n    tag_241:\n        /* \"#utility.yul\":7307:7361   */\n      tag_243\n        /* \"#utility.yul\":7354:7360   */\n      dup5\n        /* \"#utility.yul\":7349:7352   */\n      dup3\n        /* \"#utility.yul\":7344:7347   */\n      dup6\n        /* \"#utility.yul\":7307:7361   */\n      tag_101\n      jump\t// in\n    tag_243:\n        /* \"#utility.yul\":7026:7367   */\n      pop\n        /* \"#utility.yul\":6942:7367   */\n      swap4\n      swap3\n      pop\n      pop\n      pop\n      jump\t// out\n        /* \"#utility.yul\":7387:7727   */\n    tag_103:\n        /* \"#utility.yul\":7443:7448   */\n      0x00\n        /* \"#utility.yul\":7492:7495   */\n      dup3\n        /* \"#utility.yul\":7485:7489   */\n      0x1f\n        /* \"#utility.yul\":7477:7483   */\n      dup4\n        /* \"#utility.yul\":7473:7490   */\n      add\n        /* \"#utility.yul\":7469:7496   */\n      slt\n        /* \"#utility.yul\":7459:7581   */\n      tag_245\n      jumpi\n        /* \"#utility.yul\":7500:7579   */\n      tag_246\n      tag_95\n      jump\t// in\n    tag_246:\n        /* \"#utility.yul\":7459:7581   */\n    tag_245:\n        /* \"#utility.yul\":7617:7623   */\n      dup2\n        /* \"#utility.yul\":7604:7624   */\n      calldataload\n        /* \"#utility.yul\":7642:7721   */\n      tag_247\n        /* \"#utility.yul\":7717:7720   */\n      dup5\n        /* \"#utility.yul\":7709:7715   */\n      dup3\n        /* \"#utility.yul\":7702:7706   */\n      0x20\n        /* \"#utility.yul\":7694:7700   */\n      dup7\n        /* \"#utility.yul\":7690:7707   */\n      add\n        /* \"#utility.yul\":7642:7721   */\n      tag_102\n      jump\t// in\n    tag_247:\n        /* \"#utility.yul\":7633:7721   */\n      swap2\n      pop\n        /* \"#utility.yul\":7449:7727   */\n      pop\n        /* \"#utility.yul\":7387:7727   */\n      swap3\n      swap2\n      pop\n      pop\n      jump\t// out\n        /* \"#utility.yul\":7733:8387   */\n    tag_37:\n        /* \"#utility.yul\":7811:7817   */\n      0x00\n        /* \"#utility.yul\":7819:7825   */\n      0x00\n        /* \"#utility.yul\":7868:7870   */\n      0x40\n        /* \"#utility.yul\":7856:7865   */\n      dup4\n        /* \"#utility.yul\":7847:7854   */\n      dup6\n        /* \"#utility.yul\":7843:7866   */\n      sub\n        /* \"#utility.yul\":7839:7871   */\n      slt\n        /* \"#utility.yul\":7836:7955   */\n      iszero\n      tag_249\n      jumpi\n        /* \"#utility.yul\":7874:7953   */\n      tag_250\n      tag_77\n      jump\t// in\n    tag_250:\n        /* \"#utility.yul\":7836:7955   */\n    tag_249:\n        /* \"#utility.yul\":8022:8023   */\n      0x00\n        /* \"#utility.yul\":8011:8020   */\n      dup4\n        /* \"#utility.yul\":8007:8024   */\n      add\n        /* \"#utility.yul\":7994:8025   */\n      calldataload\n        /* \"#utility.yul\":8052:8070   */\n      0xffffffffffffffff\n        /* \"#utility.yul\":8044:8050   */\n      dup2\n        /* \"#utility.yul\":8041:8071   */\n      gt\n        /* \"#utility.yul\":8038:8155   */\n      iszero\n      tag_251\n      jumpi\n        /* \"#utility.yul\":8074:8153   */\n      tag_252\n      tag_78\n      jump\t// in\n    tag_252:\n        /* \"#utility.yul\":8038:8155   */\n    tag_251:\n        /* \"#utility.yul\":8179:8242   */\n      tag_253\n        /* \"#utility.yul\":8234:8241   */\n      dup6\n        /* \"#utility.yul\":8225:8231   */\n      dup3\n        /* \"#utility.yul\":8214:8223   */\n      dup7\n        /* \"#utility.yul\":8210:8232   */\n      add\n        /* \"#utility.yul\":8179:8242   */\n      tag_103\n      jump\t// in\n    tag_253:\n        /* \"#utility.yul\":8169:8242   */\n      swap3\n      pop\n        /* \"#utility.yul\":7965:8252   */\n      pop\n        /* \"#utility.yul\":8291:8293   */\n      0x20\n        /* \"#utility.yul\":8317:8370   */\n      tag_254\n        /* \"#utility.yul\":8362:8369   */\n      dup6\n        /* \"#utility.yul\":8353:8359   */\n      dup3\n        /* \"#utility.yul\":8342:8351   */\n      dup7\n        /* \"#utility.yul\":8338:8360   */\n      add\n        /* \"#utility.yul\":8317:8370   */\n      tag_94\n      jump\t// in\n    tag_254:\n        /* \"#utility.yul\":8307:8370   */\n      swap2\n      pop\n        /* \"#utility.yul\":8262:8380   */\n      pop\n        /* \"#utility.yul\":7733:8387   */\n      swap3\n      pop\n      swap3\n      swap1\n      pop\n      jump\t// out\n        /* \"#utility.yul\":8393:8573   */\n    tag_104:\n        /* \"#utility.yul\":8441:8518   */\n      0x4e487b7100000000000000000000000000000000000000000000000000000000\n        /* \"#utility.yul\":8438:8439   */\n      0x00\n        /* \"#utility.yul\":8431:8519   */\n      mstore\n        /* \"#utility.yul\":8538:8542   */\n      0x00\n        /* \"#utility.yul\":8535:8536   */\n      0x04\n        /* \"#utility.yul\":8528:8543   */\n      mstore\n        /* \"#utility.yul\":8562:8566   */\n      0x24\n        /* \"#utility.yul\":8559:8560   */\n      0x00\n        /* \"#utility.yul\":8552:8567   */\n      revert\n        /* \"#utility.yul\":8579:8696   */\n    tag_105:\n        /* \"#utility.yul\":8688:8689   */\n      0x00\n        /* \"#utility.yul\":8685:8686   */\n      0x00\n        /* \"#utility.yul\":8678:8690   */\n      revert\n        /* \"#utility.yul\":8702:8819   */\n    tag_106:\n        /* \"#utility.yul\":8811:8812   */\n      0x00\n        /* \"#utility.yul\":8808:8809   */\n      0x00\n        /* \"#utility.yul\":8801:8813   */\n      revert\n        /* \"#utility.yul\":8825:8942   */\n    tag_107:\n        /* \"#utility.yul\":8934:8935   */\n      0x00\n        /* \"#utility.yul\":8931:8932   */\n      0x00\n        /* \"#utility.yul\":8924:8936   */\n      revert\n        /* \"#utility.yul\":8948:9673   */\n    tag_108:\n        /* \"#utility.yul\":9026:9030   */\n      0x00\n        /* \"#utility.yul\":9032:9038   */\n      0x00\n        /* \"#utility.yul\":9088:9099   */\n      dup4\n        /* \"#utility.yul\":9075:9100   */\n      calldataload\n        /* \"#utility.yul\":9188:9189   */\n      0x01\n        /* \"#utility.yul\":9182:9186   */\n      0x20\n        /* \"#utility.yul\":9178:9190   */\n      sub\n        /* \"#utility.yul\":9167:9175   */\n      dup5\n        /* \"#utility.yul\":9151:9165   */\n      calldatasize\n        /* \"#utility.yul\":9147:9176   */\n      sub\n        /* \"#utility.yul\":9143:9191   */\n      sub\n        /* \"#utility.yul\":9123:9141   */\n      dup2\n        /* \"#utility.yul\":9119:9192   */\n      slt\n        /* \"#utility.yul\":9109:9277   */\n      tag_260\n      jumpi\n        /* \"#utility.yul\":9196:9275   */\n      tag_261\n      tag_105\n      jump\t// in\n    tag_261:\n        /* \"#utility.yul\":9109:9277   */\n    tag_260:\n        /* \"#utility.yul\":9308:9326   */\n      dup1\n        /* \"#utility.yul\":9298:9306   */\n      dup5\n        /* \"#utility.yul\":9294:9327   */\n      add\n        /* \"#utility.yul\":9286:9327   */\n      swap3\n      pop\n        /* \"#utility.yul\":9360:9364   */\n      dup3\n        /* \"#utility.yul\":9347:9365   */\n      calldataload\n        /* \"#utility.yul\":9337:9365   */\n      swap2\n      pop\n        /* \"#utility.yul\":9388:9406   */\n      0xffffffffffffffff\n        /* \"#utility.yul\":9380:9386   */\n      dup3\n        /* \"#utility.yul\":9377:9407   */\n      gt\n        /* \"#utility.yul\":9374:9491   */\n      iszero\n      tag_262\n      jumpi\n        /* \"#utility.yul\":9410:9489   */\n      tag_263\n      tag_106\n      jump\t// in\n    tag_263:\n        /* \"#utility.yul\":9374:9491   */\n    tag_262:\n        /* \"#utility.yul\":9518:9520   */\n      0x20\n        /* \"#utility.yul\":9512:9516   */\n      dup4\n        /* \"#utility.yul\":9508:9521   */\n      add\n        /* \"#utility.yul\":9500:9521   */\n      swap3\n      pop\n        /* \"#utility.yul\":9575:9579   */\n      0x01\n        /* \"#utility.yul\":9567:9573   */\n      dup3\n        /* \"#utility.yul\":9563:9580   */\n      mul\n        /* \"#utility.yul\":9547:9561   */\n      calldatasize\n        /* \"#utility.yul\":9543:9581   */\n      sub\n        /* \"#utility.yul\":9537:9541   */\n      dup4\n        /* \"#utility.yul\":9533:9582   */\n      sgt\n        /* \"#utility.yul\":9530:9666   */\n      iszero\n      tag_264\n      jumpi\n        /* \"#utility.yul\":9585:9664   */\n      tag_265\n      tag_107\n      jump\t// in\n    tag_265:\n        /* \"#utility.yul\":9530:9666   */\n    tag_264:\n        /* \"#utility.yul\":9039:9673   */\n      pop\n        /* \"#utility.yul\":8948:9673   */\n      swap3\n      pop\n      swap3\n      swap1\n      pop\n      jump\t// out\n        /* \"#utility.yul\":9679:9776   */\n    tag_109:\n        /* \"#utility.yul\":9738:9744   */\n      0x00\n        /* \"#utility.yul\":9766:9769   */\n      dup3\n        /* \"#utility.yul\":9756:9769   */\n      swap1\n      pop\n        /* \"#utility.yul\":9679:9776   */\n      swap3\n      swap2\n      pop\n      pop\n      jump\t// out\n        /* \"#utility.yul\":9782:9962   */\n    tag_110:\n        /* \"#utility.yul\":9830:9907   */\n      0x4e487b7100000000000000000000000000000000000000000000000000000000\n        /* \"#utility.yul\":9827:9828   */\n      0x00\n        /* \"#utility.yul\":9820:9908   */\n      mstore\n        /* \"#utility.yul\":9927:9931   */\n      0x22\n        /* \"#utility.yul\":9924:9925   */\n      0x04\n        /* \"#utility.yul\":9917:9932   */\n      mstore\n        /* \"#utility.yul\":9951:9955   */\n      0x24\n        /* \"#utility.yul\":9948:9949   */\n      0x00\n        /* \"#utility.yul\":9941:9956   */\n      revert\n        /* \"#utility.yul\":9968:10288   */\n    tag_51:\n        /* \"#utility.yul\":10012:10018   */\n      0x00\n        /* \"#utility.yul\":10049:10050   */\n      0x02\n        /* \"#utility.yul\":10043:10047   */\n      dup3\n        /* \"#utility.yul\":10039:10051   */\n      div\n        /* \"#utility.yul\":10029:10051   */\n      swap1\n      pop\n        /* \"#utility.yul\":10096:10097   */\n      0x01\n        /* \"#utility.yul\":10090:10094   */\n      dup3\n        /* \"#utility.yul\":10086:10098   */\n      and\n        /* \"#utility.yul\":10117:10135   */\n      dup1\n        /* \"#utility.yul\":10107:10188   */\n      tag_269\n      jumpi\n        /* \"#utility.yul\":10173:10177   */\n      0x7f\n        /* \"#utility.yul\":10165:10171   */\n      dup3\n        /* \"#utility.yul\":10161:10178   */\n      and\n        /* \"#utility.yul\":10151:10178   */\n      swap2\n      pop\n        /* \"#utility.yul\":10107:10188   */\n    tag_269:\n        /* \"#utility.yul\":10235:10237   */\n      0x20\n        /* \"#utility.yul\":10227:10233   */\n      dup3\n        /* \"#utility.yul\":10224:10238   */\n      lt\n        /* \"#utility.yul\":10204:10222   */\n      dup2\n        /* \"#utility.yul\":10201:10239   */\n      sub\n        /* \"#utility.yul\":10198:10282   */\n      tag_270\n      jumpi\n        /* \"#utility.yul\":10254:10272   */\n      tag_271\n      tag_110\n      jump\t// in\n    tag_271:\n        /* \"#utility.yul\":10198:10282   */\n    tag_270:\n        /* \"#utility.yul\":10019:10288   */\n      pop\n        /* \"#utility.yul\":9968:10288   */\n      swap2\n      swap1\n      pop\n      jump\t// out\n        /* \"#utility.yul\":10294:10435   */\n    tag_111:\n        /* \"#utility.yul\":10343:10347   */\n      0x00\n        /* \"#utility.yul\":10366:10369   */\n      dup2\n        /* \"#utility.yul\":10358:10369   */\n      swap1\n      pop\n        /* \"#utility.yul\":10389:10392   */\n      dup2\n        /* \"#utility.yul\":10386:10387   */\n      0x00\n        /* \"#utility.yul\":10379:10393   */\n      mstore\n        /* \"#utility.yul\":10423:10427   */\n      0x20\n        /* \"#utility.yul\":10420:10421   */\n      0x00\n        /* \"#utility.yul\":10410:10428   */\n      keccak256\n        /* \"#utility.yul\":10402:10428   */\n      swap1\n      pop\n        /* \"#utility.yul\":10294:10435   */\n      swap2\n      swap1\n      pop\n      jump\t// out\n        /* \"#utility.yul\":10441:10534   */\n    tag_112:\n        /* \"#utility.yul\":10478:10484   */\n      0x00\n        /* \"#utility.yul\":10525:10527   */\n      0x20\n        /* \"#utility.yul\":10520:10522   */\n      0x1f\n        /* \"#utility.yul\":10513:10518   */\n      dup4\n        /* \"#utility.yul\":10509:10523   */\n      add\n        /* \"#utility.yul\":10505:10528   */\n      div\n        /* \"#utility.yul\":10495:10528   */\n      swap1\n      pop\n        /* \"#utility.yul\":10441:10534   */\n      swap2\n      swap1\n      pop\n      jump\t// out\n        /* \"#utility.yul\":10540:10647   */\n    tag_113:\n        /* \"#utility.yul\":10584:10592   */\n      0x00\n        /* \"#utility.yul\":10634:10639   */\n      dup3\n        /* \"#utility.yul\":10628:10632   */\n      dup3\n        /* \"#utility.yul\":10624:10640   */\n      shl\n        /* \"#utility.yul\":10603:10640   */\n      swap1\n      pop\n        /* \"#utility.yul\":10540:10647   */\n      swap3\n      swap2\n      pop\n      pop\n      jump\t// out\n        /* \"#utility.yul\":10653:11046   */\n    tag_114:\n        /* \"#utility.yul\":10722:10728   */\n      0x00\n        /* \"#utility.yul\":10772:10773   */\n      0x08\n        /* \"#utility.yul\":10760:10770   */\n      dup4\n        /* \"#utility.yul\":10756:10774   */\n      mul\n        /* \"#utility.yul\":10795:10892   */\n      tag_276\n        /* \"#utility.yul\":10825:10891   */\n      0xffffffffffffffffffffffffffffffffffffffffffffffffffffffffffffffff\n        /* \"#utility.yul\":10814:10823   */\n      dup3\n        /* \"#utility.yul\":10795:10892   */\n      tag_113\n      jump\t// in\n    tag_276:\n        /* \"#utility.yul\":10913:10952   */\n      tag_277\n        /* \"#utility.yul\":10943:10951   */\n      dup7\n        /* \"#utility.yul\":10932:10941   */\n      dup4\n        /* \"#utility.yul\":10913:10952   */\n      tag_113\n      jump\t// in\n    tag_277:\n        /* \"#utility.yul\":10901:10952   */\n      swap6\n      pop\n        /* \"#utility.yul\":10985:10989   */\n      dup1\n        /* \"#utility.yul\":10981:10990   */\n      not\n        /* \"#utility.yul\":10974:10979   */\n      dup5\n        /* \"#utility.yul\":10970:10991   */\n      and\n        /* \"#utility.yul\":10961:10991   */\n      swap4\n      pop\n        /* \"#utility.yul\":11034:11038   */\n      dup1\n        /* \"#utility.yul\":11024:11032   */\n      dup7\n        /* \"#utility.yul\":11020:11039   */\n      and\n        /* \"#utility.yul\":11013:11018   */\n      dup5\n        /* \"#utility.yul\":11010:11040   */\n      or\n        /* \"#utility.yul\":11000:11040   */\n      swap3\n      pop\n        /* \"#utility.yul\":10729:11046   */\n      pop\n      pop\n        /* \"#utility.yul\":10653:11046   */\n      swap4\n      swap3\n      pop\n      pop\n      pop\n      jump\t// out\n        /* \"#utility.yul\":11052:11112   */\n    tag_115:\n        /* \"#utility.yul\":11080:11083   */\n      0x00\n        /* \"#utility.yul\":11101:11106   */\n      dup2\n        /* \"#utility.yul\":11094:11106   */\n      swap1\n      pop\n        /* \"#utility.yul\":11052:11112   */\n      swap2\n      swap1\n      pop\n      jump\t// out\n        /* \"#utility.yul\":11118:11260   */\n    tag_116:\n        /* \"#utility.yul\":11168:11177   */\n      0x00\n        /* \"#utility.yul\":11201:11254   */\n      tag_280\n        /* \"#utility.yul\":11219:11253   */\n      tag_281\n        /* \"#utility.yul\":11228:11252   */\n      tag_282\n        /* \"#utility.yul\":11246:11251   */\n      dup5\n        /* \"#utility.yul\":11228:11252   */\n      tag_90\n      jump\t// in\n    tag_282:\n        /* \"#utility.yul\":11219:11253   */\n      tag_115\n      jump\t// in\n    tag_281:\n        /* \"#utility.yul\":11201:11254   */\n      tag_90\n      jump\t// in\n    tag_280:\n        /* \"#utility.yul\":11188:11254   */\n      swap1\n      pop\n        /* \"#utility.yul\":11118:11260   */\n      swap2\n      swap1\n      pop\n      jump\t// out\n        /* \"#utility.yul\":11266:11341   */\n    tag_117:\n        /* \"#utility.yul\":11309:11312   */\n      0x00\n        /* \"#utility.yul\":11330:11335   */\n      dup2\n        /* \"#utility.yul\":11323:11335   */\n      swap1\n      pop\n        /* \"#utility.yul\":11266:11341   */\n      swap2\n      swap1\n      pop\n      jump\t// out\n        /* \"#utility.yul\":11347:11616   */\n    tag_118:\n        /* \"#utility.yul\":11457:11496   */\n      tag_285\n        /* \"#utility.yul\":11488:11495   */\n      dup4\n        /* \"#utility.yul\":11457:11496   */\n      tag_116\n      jump\t// in\n    tag_285:\n        /* \"#utility.yul\":11518:11609   */\n      tag_286\n        /* \"#utility.yul\":11567:11608   */\n      tag_287\n        /* \"#utility.yul\":11591:11607   */\n      dup3\n        /* \"#utility.yul\":11567:11608   */\n      tag_117\n      jump\t// in\n    tag_287:\n        /* \"#utility.yul\":11559:11565   */\n      dup5\n        /* \"#utility.yul\":11552:11556   */\n      dup5\n        /* \"#utility.yul\":11546:11557   */\n      sload\n        /* \"#utility.yul\":11518:11609   */\n      tag_114\n      jump\t// in\n    tag_286:\n        /* \"#utility.yul\":11512:11516   */\n      dup3\n        /* \"#utility.yul\":11505:11610   */\n      sstore\n        /* \"#utility.yul\":11423:11616   */\n      pop\n        /* \"#utility.yul\":11347:11616   */\n      pop\n      pop\n      pop\n      jump\t// out\n        /* \"#utility.yul\":11622:11695   */\n    tag_119:\n        /* \"#utility.yul\":11667:11670   */\n      0x00\n        /* \"#utility.yul\":11688:11689   */\n      0x00\n        /* \"#utility.yul\":11681:11689   */\n      swap1\n      pop\n        /* \"#utility.yul\":11622:11695   */\n      swap1\n      jump\t// out\n        /* \"#utility.yul\":11701:11890   */\n    tag_120:\n        /* \"#utility.yul\":11778:11810   */\n      tag_290\n      tag_119\n      jump\t// in\n    tag_290:\n        /* \"#utility.yul\":11819:11884   */\n      tag_291\n        /* \"#utility.yul\":11877:11883   */\n      dup2\n        /* \"#utility.yul\":11869:11875   */\n      dup5\n        /* \"#utility.yul\":11863:11867   */\n      dup5\n        /* \"#utility.yul\":11819:11884   */\n      tag_118\n      jump\t// in\n    tag_291:\n        /* \"#utility.yul\":11754:11890   */\n      pop\n        /* \"#utility.yul\":11701:11890   */\n      pop\n      pop\n      jump\t// out\n        /* \"#utility.yul\":11896:12082   */\n    tag_121:\n        /* \"#utility.yul\":11956:12076   */\n    tag_293:\n        /* \"#utility.yul\":11973:11976   */\n      dup2\n        /* \"#utility.yul\":11966:11971   */\n      dup2\n        /* \"#utility.yul\":11963:11977   */\n      lt\n        /* \"#utility.yul\":11956:12076   */\n      iszero\n      tag_295\n      jumpi\n        /* \"#utility.yul\":12027:12066   */\n      tag_296\n        /* \"#utility.yul\":12064:12065   */\n      0x00\n        /* \"#utility.yul\":12057:12062   */\n      dup3\n        /* \"#utility.yul\":12027:12066   */\n      tag_120\n      jump\t// in\n    tag_296:\n        /* \"#utility.yul\":12000:12001   */\n      0x01\n        /* \"#utility.yul\":11993:11998   */\n      dup2\n        /* \"#utility.yul\":11989:12002   */\n      add\n        /* \"#utility.yul\":11980:12002   */\n      swap1\n      pop\n        /* \"#utility.yul\":11956:12076   */\n      jump(tag_293)\n    tag_295:\n        /* \"#utility.yul\":11896:12082   */\n      pop\n      pop\n      jump\t// out\n        /* \"#utility.yul\":12088:12631   */\n    tag_122:\n        /* \"#utility.yul\":12189:12191   */\n      0x1f\n        /* \"#utility.yul\":12184:12187   */\n      dup3\n        /* \"#utility.yul\":12181:12192   */\n      gt\n        /* \"#utility.yul\":12178:12624   */\n      iszero\n      tag_298\n      jumpi\n        /* \"#utility.yul\":12223:12261   */\n      tag_299\n        /* \"#utility.yul\":12255:12260   */\n      dup2\n        /* \"#utility.yul\":12223:12261   */\n      tag_111\n      jump\t// in\n    tag_299:\n        /* \"#utility.yul\":12307:12336   */\n      tag_300\n        /* \"#utility.yul\":12325:12335   */\n      dup5\n        /* \"#utility.yul\":12307:12336   */\n      tag_112\n      jump\t// in\n    tag_300:\n        /* \"#utility.yul\":12297:12305   */\n      dup2\n        /* \"#utility.yul\":12293:12337   */\n      add\n        /* \"#utility.yul\":12490:12492   */\n      0x20\n        /* \"#utility.yul\":12478:12488   */\n      dup6\n        /* \"#utility.yul\":12475:12493   */\n      lt\n        /* \"#utility.yul\":12472:12521   */\n      iszero\n      tag_301\n      jumpi\n        /* \"#utility.yul\":12511:12519   */\n      dup2\n        /* \"#utility.yul\":12496:12519   */\n      swap1\n      pop\n        /* \"#utility.yul\":12472:12521   */\n    tag_301:\n        /* \"#utility.yul\":12534:12614   */\n      tag_302\n        /* \"#utility.yul\":12590:12612   */\n      tag_303\n        /* \"#utility.yul\":12608:12611   */\n      dup6\n        /* \"#utility.yul\":12590:12612   */\n      tag_112\n      jump\t// in\n    tag_303:\n        /* \"#utility.yul\":12580:12588   */\n      dup4\n        /* \"#utility.yul\":12576:12613   */\n      add\n        /* \"#utility.yul\":12563:12574   */\n      dup3\n        /* \"#utility.yul\":12534:12614   */\n      tag_121\n      jump\t// in\n    tag_302:\n        /* \"#utility.yul\":12193:12624   */\n      pop\n      pop\n        /* \"#utility.yul\":12178:12624   */\n    tag_298:\n        /* \"#utility.yul\":12088:12631   */\n      pop\n      pop\n      pop\n      jump\t// out\n        /* \"#utility.yul\":12637:12754   */\n    tag_123:\n        /* \"#utility.yul\":12691:12699   */\n      0x00\n        /* \"#utility.yul\":12741:12746   */\n      dup3\n        /* \"#utility.yul\":12735:12739   */\n      dup3\n        /* \"#utility.yul\":12731:12747   */\n      shr\n        /* \"#utility.yul\":12710:12747   */\n      swap1\n      pop\n        /* \"#utility.yul\":12637:12754   */\n      swap3\n      swap2\n      pop\n      pop\n      jump\t// out\n        /* \"#utility.yul\":12760:12929   */\n    tag_124:\n        /* \"#utility.yul\":12804:12810   */\n      0x00\n        /* \"#utility.yul\":12837:12888   */\n      tag_306\n        /* \"#utility.yul\":12885:12886   */\n      0x00\n        /* \"#utility.yul\":12881:12887   */\n      not\n        /* \"#utility.yul\":12873:12878   */\n      dup5\n        /* \"#utility.yul\":12870:12871   */\n      0x08\n        /* \"#utility.yul\":12866:12879   */\n      mul\n        /* \"#utility.yul\":12837:12888   */\n      tag_123\n      jump\t// in\n    tag_306:\n        /* \"#utility.yul\":12833:12889   */\n      not\n        /* \"#utility.yul\":12918:12922   */\n      dup1\n        /* \"#utility.yul\":12912:12916   */\n      dup4\n        /* \"#utility.yul\":12908:12923   */\n      and\n        /* \"#utility.yul\":12898:12923   */\n      swap2\n      pop\n        /* \"#utility.yul\":12811:12929   */\n      pop\n        /* \"#utility.yul\":12760:12929   */\n      swap3\n      swap2\n      pop\n      pop\n      jump\t// out\n        /* \"#utility.yul\":12934:13229   */\n    tag_125:\n        /* \"#utility.yul\":13010:13014   */\n      0x00\n        /* \"#utility.yul\":13156:13185   */\n      tag_308\n        /* \"#utility.yul\":13181:13184   */\n      dup4\n        /* \"#utility.yul\":13175:13179   */\n      dup4\n        /* \"#utility.yul\":13156:13185   */\n      tag_124\n      jump\t// in\n    tag_308:\n        /* \"#utility.yul\":13148:13185   */\n      swap2\n      pop\n        /* \"#utility.yul\":13218:13221   */\n      dup3\n        /* \"#utility.yul\":13215:13216   */\n      0x02\n        /* \"#utility.yul\":13211:13222   */\n      mul\n        /* \"#utility.yul\":13205:13209   */\n      dup3\n        /* \"#utility.yul\":13202:13223   */\n      or\n        /* \"#utility.yul\":13194:13223   */\n      swap1\n      pop\n        /* \"#utility.yul\":12934:13229   */\n      swap3\n      swap2\n      pop\n      pop\n      jump\t// out\n        /* \"#utility.yul\":13234:14637   */\n    tag_126:\n        /* \"#utility.yul\":13358:13402   */\n      tag_310\n        /* \"#utility.yul\":13398:13401   */\n      dup4\n        /* \"#utility.yul\":13393:13396   */\n      dup4\n        /* \"#utility.yul\":13358:13402   */\n      tag_109\n      jump\t// in\n    tag_310:\n        /* \"#utility.yul\":13467:13485   */\n      0xffffffffffffffff\n        /* \"#utility.yul\":13459:13465   */\n      dup2\n        /* \"#utility.yul\":13456:13486   */\n      gt\n        /* \"#utility.yul\":13453:13509   */\n      iszero\n      tag_311\n      jumpi\n        /* \"#utility.yul\":13489:13507   */\n      tag_312\n      tag_97\n      jump\t// in\n    tag_312:\n        /* \"#utility.yul\":13453:13509   */\n    tag_311:\n        /* \"#utility.yul\":13533:13571   */\n      tag_313\n        /* \"#utility.yul\":13565:13569   */\n      dup3\n        /* \"#utility.yul\":13559:13570   */\n      sload\n        /* \"#utility.yul\":13533:13571   */\n      tag_51\n      jump\t// in\n    tag_313:\n        /* \"#utility.yul\":13618:13685   */\n      tag_314\n        /* \"#utility.yul\":13678:13684   */\n      dup3\n        /* \"#utility.yul\":13670:13676   */\n      dup3\n        /* \"#utility.yul\":13664:13668   */\n      dup6\n        /* \"#utility.yul\":13618:13685   */\n      tag_122\n      jump\t// in\n    tag_314:\n        /* \"#utility.yul\":13712:13713   */\n      0x00\n        /* \"#utility.yul\":13741:13743   */\n      0x1f\n        /* \"#utility.yul\":13733:13739   */\n      dup4\n        /* \"#utility.yul\":13730:13744   */\n      gt\n        /* \"#utility.yul\":13758:13759   */\n      0x01\n        /* \"#utility.yul\":13753:14385   */\n      dup2\n      eq\n      tag_316\n      jumpi\n        /* \"#utility.yul\":14429:14430   */\n      0x00\n        /* \"#utility.yul\":14446:14452   */\n      dup5\n        /* \"#utility.yul\":14443:14527   */\n      iszero\n      tag_317\n      jumpi\n        /* \"#utility.yul\":14502:14511   */\n      dup3\n        /* \"#utility.yul\":14497:14500   */\n      dup8\n        /* \"#utility.yul\":14493:14512   */\n      add\n        /* \"#utility.yul\":14480:14513   */\n      calldataload\n        /* \"#utility.yul\":14471:14513   */\n      swap1\n      pop\n        /* \"#utility.yul\":14443:14527   */\n    tag_317:\n        /* \"#utility.yul\":14553:14620   */\n      tag_318\n        /* \"#utility.yul\":14613:14619   */\n      dup6\n        /* \"#utility.yul\":14606:14611   */\n      dup3\n        /* \"#utility.yul\":14553:14620   */\n      tag_125\n      jump\t// in\n    tag_318:\n        /* \"#utility.yul\":14547:14551   */\n      dup7\n        /* \"#utility.yul\":14540:14621   */\n      sstore\n        /* \"#utility.yul\":14402:14631   */\n      pop\n        /* \"#utility.yul\":13723:14631   */\n      jump(tag_315)\n        /* \"#utility.yul\":13753:14385   */\n    tag_316:\n        /* \"#utility.yul\":13805:13809   */\n      0x1f\n        /* \"#utility.yul\":13801:13810   */\n      not\n        /* \"#utility.yul\":13793:13799   */\n      dup5\n        /* \"#utility.yul\":13789:13811   */\n      and\n        /* \"#utility.yul\":13839:13876   */\n      tag_319\n        /* \"#utility.yul\":13871:13875   */\n      dup7\n        /* \"#utility.yul\":13839:13876   */\n      tag_111\n      jump\t// in\n    tag_319:\n        /* \"#utility.yul\":13898:13899   */\n      0x00\n        /* \"#utility.yul\":13912:14127   */\n    tag_320:\n        /* \"#utility.yul\":13926:13933   */\n      dup3\n        /* \"#utility.yul\":13923:13924   */\n      dup2\n        /* \"#utility.yul\":13920:13934   */\n      lt\n        /* \"#utility.yul\":13912:14127   */\n      iszero\n      tag_322\n      jumpi\n        /* \"#utility.yul\":14012:14021   */\n      dup5\n        /* \"#utility.yul\":14007:14010   */\n      dup10\n        /* \"#utility.yul\":14003:14022   */\n      add\n        /* \"#utility.yul\":13990:14023   */\n      calldataload\n        /* \"#utility.yul\":13982:13988   */\n      dup3\n        /* \"#utility.yul\":13975:14024   */\n      sstore\n        /* \"#utility.yul\":14063:14064   */\n      0x01\n        /* \"#utility.yul\":14055:14061   */\n      dup3\n        /* \"#utility.yul\":14051:14065   */\n      add\n        /* \"#utility.yul\":14041:14065   */\n      swap2\n      pop\n        /* \"#utility.yul\":14110:14112   */\n      0x20\n        /* \"#utility.yul\":14099:14108   */\n      dup6\n        /* \"#utility.yul\":14095:14113   */\n      add\n        /* \"#utility.yul\":14082:14113   */\n      swap5\n      pop\n        /* \"#utility.yul\":13949:13953   */\n      0x20\n        /* \"#utility.yul\":13946:13947   */\n      dup2\n        /* \"#utility.yul\":13942:13954   */\n      add\n        /* \"#utility.yul\":13937:13954   */\n      swap1\n      pop\n        /* \"#utility.yul\":13912:14127   */\n      jump(tag_320)\n    tag_322:\n        /* \"#utility.yul\":14155:14161   */\n      dup7\n        /* \"#utility.yul\":14146:14153   */\n      dup4\n        /* \"#utility.yul\":14143:14162   */\n      lt\n        /* \"#utility.yul\":14140:14326   */\n      iszero\n      tag_323\n      jumpi\n        /* \"#utility.yul\":14220:14229   */\n      dup5\n        /* \"#utility.yul\":14215:14218   */\n      dup10\n        /* \"#utility.yul\":14211:14230   */\n      add\n        /* \"#utility.yul\":14198:14231   */\n      calldataload\n        /* \"#utility.yul\":14263:14311   */\n      tag_324\n        /* \"#utility.yul\":14305:14309   */\n      0x1f\n        /* \"#utility.yul\":14297:14303   */\n      dup10\n        /* \"#utility.yul\":14293:14310   */\n      and\n        /* \"#utility.yul\":14282:14291   */\n      dup3\n        /* \"#utility.yul\":14263:14311   */\n      tag_124\n      jump\t// in\n    tag_324:\n        /* \"#utility.yul\":14255:14261   */\n      dup4\n        /* \"#utility.yul\":14248:14312   */\n      sstore\n        /* \"#utility.yul\":14163:14326   */\n      pop\n        /* \"#utility.yul\":14140:14326   */\n    tag_323:\n        /* \"#utility.yul\":14372:14373   */\n      0x01\n        /* \"#utility.yul\":14368:14369   */\n      0x02\n        /* \"#utility.yul\":14360:14366   */\n      dup9\n        /* \"#utility.yul\":14356:14370   */\n      mul\n        /* \"#utility.yul\":14352:14374   */\n      add\n        /* \"#utility.yul\":14346:14350   */\n      dup9\n        /* \"#utility.yul\":14339:14375   */\n      sstore\n        /* \"#utility.yul\":13760:14385   */\n      pop\n      pop\n      pop\n        /* \"#utility.yul\":13723:14631   */\n    tag_315:\n      pop\n        /* \"#utility.yul\":13333:14637   */\n      pop\n      pop\n      pop\n        /* \"#utility.yul\":13234:14637   */\n      pop\n      pop\n      pop\n      jump\t// out\n        /* \"#utility.yul\":14643:14862   */\n    tag_127:\n        /* \"#utility.yul\":14759:14856   */\n      tag_326\n        /* \"#utility.yul\":14848:14855   */\n      dup4\n        /* \"#utility.yul\":14839:14846   */\n      dup4\n        /* \"#utility.yul\":14833:14837   */\n      dup4\n        /* \"#utility.yul\":14759:14856   */\n      tag_126\n      jump\t// in\n    tag_326:\n        /* \"#utility.yul\":14643:14862   */\n      pop\n      pop\n      pop\n      jump\t// out\n        /* \"#utility.yul\":14868:15054   */\n    tag_128:\n        /* \"#utility.yul\":14913:14924   */\n      0x00\n        /* \"#utility.yul\":14962:14965   */\n      dup2\n        /* \"#utility.yul\":14949:14966   */\n      calldataload\n        /* \"#utility.yul\":14975:15008   */\n      tag_328\n        /* \"#utility.yul\":15002:15007   */\n      dup2\n        /* \"#utility.yul\":14975:15008   */\n      tag_93\n      jump\t// in\n    tag_328:\n        /* \"#utility.yul\":15042:15047   */\n      dup1\n        /* \"#utility.yul\":15018:15047   */\n      swap2\n      pop\n        /* \"#utility.yul\":14925:15054   */\n      pop\n        /* \"#utility.yul\":14868:15054   */\n      swap2\n      swap1\n      pop\n      jump\t// out\n        /* \"#utility.yul\":15060:15152   */\n    tag_129:\n        /* \"#utility.yul\":15092:15100   */\n      0x00\n        /* \"#utility.yul\":15139:15144   */\n      dup2\n        /* \"#utility.yul\":15136:15137   */\n      0x00\n        /* \"#utility.yul\":15132:15145   */\n      shl\n        /* \"#utility.yul\":15111:15145   */\n      swap1\n      pop\n        /* \"#utility.yul\":15060:15152   */\n      swap2\n      swap1\n      pop\n      jump\t// out\n        /* \"#utility.yul\":15158:15448   */\n    tag_130:\n        /* \"#utility.yul\":15216:15222   */\n      0x00\n        /* \"#utility.yul\":15245:15311   */\n      0xffffffffffffffffffffffffffffffffffffffffffffffffffffffffffffffff\n        /* \"#utility.yul\":15332:15354   */\n      tag_331\n        /* \"#utility.yul\":15345:15353   */\n      dup5\n        /* \"#utility.yul\":15332:15354   */\n      tag_129\n      jump\t// in\n    tag_331:\n        /* \"#utility.yul\":15320:15354   */\n      swap4\n      pop\n        /* \"#utility.yul\":15387:15391   */\n      dup1\n        /* \"#utility.yul\":15383:15392   */\n      not\n        /* \"#utility.yul\":15376:15381   */\n      dup4\n        /* \"#utility.yul\":15372:15393   */\n      and\n        /* \"#utility.yul\":15363:15393   */\n      swap3\n      pop\n        /* \"#utility.yul\":15436:15440   */\n      dup1\n        /* \"#utility.yul\":15426:15434   */\n      dup5\n        /* \"#utility.yul\":15422:15441   */\n      and\n        /* \"#utility.yul\":15415:15420   */\n      dup4\n        /* \"#utility.yul\":15412:15442   */\n      or\n        /* \"#utility.yul\":15402:15442   */\n      swap2\n      pop\n        /* \"#utility.yul\":15223:15448   */\n      pop\n        /* \"#utility.yul\":15158:15448   */\n      swap3\n      swap2\n      pop\n      pop\n      jump\t// out\n        /* \"#utility.yul\":15454:15717   */\n    tag_131:\n        /* \"#utility.yul\":15565:15604   */\n      tag_333\n        /* \"#utility.yul\":15596:15603   */\n      dup3\n        /* \"#utility.yul\":15565:15604   */\n      tag_116\n      jump\t// in\n    tag_333:\n        /* \"#utility.yul\":15626:15710   */\n      tag_334\n        /* \"#utility.yul\":15668:15709   */\n      tag_335\n        /* \"#utility.yul\":15692:15708   */\n      dup3\n        /* \"#utility.yul\":15668:15709   */\n      tag_117\n      jump\t// in\n    tag_335:\n        /* \"#utility.yul\":15661:15665   */\n      dup4\n        /* \"#utility.yul\":15655:15666   */\n      sload\n        /* \"#utility.yul\":15626:15710   */\n      tag_130\n      jump\t// in\n    tag_334:\n        /* \"#utility.yul\":15620:15624   */\n      dup3\n        /* \"#utility.yul\":15613:15711   */\n      sstore\n        /* \"#utility.yul\":15531:15717   */\n      pop\n        /* \"#utility.yul\":15454:15717   */\n      pop\n      pop\n      jump\t// out\n        /* \"#utility.yul\":15723:16487   */\n    tag_132:\n        /* \"#utility.yul\":15840:15844   */\n      0x00\n        /* \"#utility.yul\":15846:15852   */\n      0x00\n        /* \"#utility.yul\":15902:15913   */\n      dup4\n        /* \"#utility.yul\":15889:15914   */\n      calldataload\n        /* \"#utility.yul\":16002:16003   */\n      0x01\n        /* \"#utility.yul\":15996:16000   */\n      0x20\n        /* \"#utility.yul\":15992:16004   */\n      sub\n        /* \"#utility.yul\":15981:15989   */\n      dup5\n        /* \"#utility.yul\":15965:15979   */\n      calldatasize\n        /* \"#utility.yul\":15961:15990   */\n      sub\n        /* \"#utility.yul\":15957:16005   */\n      sub\n        /* \"#utility.yul\":15937:15955   */\n      dup2\n        /* \"#utility.yul\":15933:16006   */\n      slt\n        /* \"#utility.yul\":15923:16091   */\n      tag_337\n      jumpi\n        /* \"#utility.yul\":16010:16089   */\n      tag_338\n      tag_105\n      jump\t// in\n    tag_338:\n        /* \"#utility.yul\":15923:16091   */\n    tag_337:\n        /* \"#utility.yul\":16122:16140   */\n      dup1\n        /* \"#utility.yul\":16112:16120   */\n      dup5\n        /* \"#utility.yul\":16108:16141   */\n      add\n        /* \"#utility.yul\":16100:16141   */\n      swap3\n      pop\n        /* \"#utility.yul\":16174:16178   */\n      dup3\n        /* \"#utility.yul\":16161:16179   */\n      calldataload\n        /* \"#utility.yul\":16151:16179   */\n      swap2\n      pop\n        /* \"#utility.yul\":16202:16220   */\n      0xffffffffffffffff\n        /* \"#utility.yul\":16194:16200   */\n      dup3\n        /* \"#utility.yul\":16191:16221   */\n      gt\n        /* \"#utility.yul\":16188:16305   */\n      iszero\n      tag_339\n      jumpi\n        /* \"#utility.yul\":16224:16303   */\n      tag_340\n      tag_106\n      jump\t// in\n    tag_340:\n        /* \"#utility.yul\":16188:16305   */\n    tag_339:\n        /* \"#utility.yul\":16332:16334   */\n      0x20\n        /* \"#utility.yul\":16326:16330   */\n      dup4\n        /* \"#utility.yul\":16322:16335   */\n      add\n        /* \"#utility.yul\":16314:16335   */\n      swap3\n      pop\n        /* \"#utility.yul\":16389:16393   */\n      0x20\n        /* \"#utility.yul\":16381:16387   */\n      dup3\n        /* \"#utility.yul\":16377:16394   */\n      mul\n        /* \"#utility.yul\":16361:16375   */\n      calldatasize\n        /* \"#utility.yul\":16357:16395   */\n      sub\n        /* \"#utility.yul\":16351:16355   */\n      dup4\n        /* \"#utility.yul\":16347:16396   */\n      sgt\n        /* \"#utility.yul\":16344:16480   */\n      iszero\n      tag_341\n      jumpi\n        /* \"#utility.yul\":16399:16478   */\n      tag_342\n      tag_107\n      jump\t// in\n    tag_342:\n        /* \"#utility.yul\":16344:16480   */\n    tag_341:\n        /* \"#utility.yul\":15853:16487   */\n      pop\n        /* \"#utility.yul\":15723:16487   */\n      swap3\n      pop\n      swap3\n      swap1\n      pop\n      jump\t// out\n        /* \"#utility.yul\":16493:16619   */\n    tag_133:\n        /* \"#utility.yul\":16586:16590   */\n      0x00\n        /* \"#utility.yul\":16609:16612   */\n      dup2\n        /* \"#utility.yul\":16601:16612   */\n      swap1\n      pop\n        /* \"#utility.yul\":16493:16619   */\n      swap2\n      swap1\n      pop\n      jump\t// out\n        /* \"#utility.yul\":16625:17015   */\n    tag_134:\n        /* \"#utility.yul\":16715:16719   */\n      0x00\n        /* \"#utility.yul\":16769:16780   */\n      dup3\n        /* \"#utility.yul\":16756:16781   */\n      calldataload\n        /* \"#utility.yul\":16869:16870   */\n      0x01\n        /* \"#utility.yul\":16863:16867   */\n      0x40\n        /* \"#utility.yul\":16859:16871   */\n      sub\n        /* \"#utility.yul\":16848:16856   */\n      dup4\n        /* \"#utility.yul\":16832:16846   */\n      calldatasize\n        /* \"#utility.yul\":16828:16857   */\n      sub\n        /* \"#utility.yul\":16824:16872   */\n      sub\n        /* \"#utility.yul\":16804:16822   */\n      dup2\n        /* \"#utility.yul\":16800:16873   */\n      slt\n        /* \"#utility.yul\":16790:16958   */\n      tag_345\n      jumpi\n        /* \"#utility.yul\":16877:16956   */\n      tag_346\n      tag_105\n      jump\t// in\n    tag_346:\n        /* \"#utility.yul\":16790:16958   */\n    tag_345:\n        /* \"#utility.yul\":16989:17007   */\n      dup1\n        /* \"#utility.yul\":16979:16987   */\n      dup4\n        /* \"#utility.yul\":16975:17008   */\n      add\n        /* \"#utility.yul\":16967:17008   */\n      swap2\n      pop\n        /* \"#utility.yul\":16720:17015   */\n      pop\n        /* \"#utility.yul\":16625:17015   */\n      swap3\n      swap2\n      pop\n      pop\n      jump\t// out\n        /* \"#utility.yul\":17021:17151   */\n    tag_135:\n        /* \"#utility.yul\":17104:17110   */\n      0x00\n        /* \"#utility.yul\":17138:17143   */\n      dup2\n        /* \"#utility.yul\":17132:17144   */\n      sload\n        /* \"#utility.yul\":17122:17144   */\n      swap1\n      pop\n        /* \"#utility.yul\":17021:17151   */\n      swap2\n      swap1\n      pop\n      jump\t// out\n        /* \"#utility.yul\":17157:17337   */\n    tag_136:\n        /* \"#utility.yul\":17205:17282   */\n      0x4e487b7100000000000000000000000000000000000000000000000000000000\n        /* \"#utility.yul\":17202:17203   */\n      0x00\n        /* \"#utility.yul\":17195:17283   */\n      mstore\n        /* \"#utility.yul\":17302:17306   */\n      0x11\n        /* \"#utility.yul\":17299:17300   */\n      0x04\n        /* \"#utility.yul\":17292:17307   */\n      mstore\n        /* \"#utility.yul\":17326:17330   */\n      0x24\n        /* \"#utility.yul\":17323:17324   */\n      0x00\n        /* \"#utility.yul\":17316:17331   */\n      revert\n        /* \"#utility.yul\":17343:17753   */\n    tag_137:\n        /* \"#utility.yul\":17383:17390   */\n      0x00\n        /* \"#utility.yul\":17406:17426   */\n      tag_350\n        /* \"#utility.yul\":17424:17425   */\n      dup3\n        /* \"#utility.yul\":17406:17426   */\n      tag_90\n      jump\t// in\n    tag_350:\n        /* \"#utility.yul\":17401:17426   */\n      swap2\n      pop\n        /* \"#utility.yul\":17440:17460   */\n      tag_351\n        /* \"#utility.yul\":17458:17459   */\n      dup4\n        /* \"#utility.yul\":17440:17460   */\n      tag_90\n      jump\t// in\n    tag_351:\n        /* \"#utility.yul\":17435:17460   */\n      swap3\n      pop\n        /* \"#utility.yul\":17495:17496   */\n      dup3\n        /* \"#utility.yul\":17492:17493   */\n      dup3\n        /* \"#utility.yul\":17488:17497   */\n      mul\n        /* \"#utility.yul\":17517:17547   */\n      tag_352\n        /* \"#utility.yul\":17535:17546   */\n      dup2\n        /* \"#utility.yul\":17517:17547   */\n      tag_90\n      jump\t// in\n    tag_352:\n        /* \"#utility.yul\":17506:17547   */\n      swap2\n      pop\n        /* \"#utility.yul\":17696:17697   */\n      dup3\n        /* \"#utility.yul\":17687:17694   */\n      dup3\n        /* \"#utility.yul\":17683:17698   */\n      div\n        /* \"#utility.yul\":17680:17681   */\n      dup5\n        /* \"#utility.yul\":17677:17699   */\n      eq\n        /* \"#utility.yul\":17657:17658   */\n      dup4\n        /* \"#utility.yul\":17650:17659   */\n      iszero\n        /* \"#utility.yul\":17630:17713   */\n      or\n        /* \"#utility.yul\":17607:17746   */\n      tag_353\n      jumpi\n        /* \"#utility.yul\":17726:17744   */\n      tag_354\n      tag_136\n      jump\t// in\n    tag_354:\n        /* \"#utility.yul\":17607:17746   */\n    tag_353:\n        /* \"#utility.yul\":17391:17753   */\n      pop\n        /* \"#utility.yul\":17343:17753   */\n      swap3\n      swap2\n      pop\n      pop\n      jump\t// out\n        /* \"#utility.yul\":17759:17945   */\n    tag_138:\n        /* \"#utility.yul\":17859:17863   */\n      0x00\n        /* \"#utility.yul\":17882:17888   */\n      dup2\n        /* \"#utility.yul\":17874:17888   */\n      swap1\n      pop\n        /* \"#utility.yul\":17906:17938   */\n      tag_356\n        /* \"#utility.yul\":17931:17937   */\n      dup3\n        /* \"#utility.yul\":17928:17929   */\n      0x02\n        /* \"#utility.yul\":17906:17938   */\n      tag_137\n      jump\t// in\n    tag_356:\n        /* \"#utility.yul\":17898:17938   */\n      swap1\n      pop\n        /* \"#utility.yul\":17759:17945   */\n      swap2\n      swap1\n      pop\n      jump\t// out\n        /* \"#utility.yul\":17950:18125   */\n    tag_139:\n        /* \"#utility.yul\":18033:18037   */\n      0x00\n        /* \"#utility.yul\":18056:18059   */\n      dup2\n        /* \"#utility.yul\":18048:18059   */\n      swap1\n      pop\n        /* \"#utility.yul\":18079:18082   */\n      dup2\n        /* \"#utility.yul\":18076:18077   */\n      0x00\n        /* \"#utility.yul\":18069:18083   */\n      mstore\n        /* \"#utility.yul\":18113:18117   */\n      0x20\n        /* \"#utility.yul\":18110:18111   */\n      0x00\n        /* \"#utility.yul\":18100:18118   */\n      keccak256\n        /* \"#utility.yul\":18092:18118   */\n      swap1\n      pop\n        /* \"#utility.yul\":17950:18125   */\n      swap2\n      swap1\n      pop\n      jump\t// out\n        /* \"#utility.yul\":18131:18375   */\n    tag_140:\n        /* \"#utility.yul\":18203:18324   */\n      tag_359\n        /* \"#utility.yul\":18257:18323   */\n      0xffffffffffffffffffffffffffffffffffffffffffffffffffffffffffffffff\n        /* \"#utility.yul\":18247:18253   */\n      dup4\n        /* \"#utility.yul\":18243:18245   */\n      0x20\n        /* \"#utility.yul\":18239:18254   */\n      sub\n        /* \"#utility.yul\":18236:18237   */\n      0x08\n        /* \"#utility.yul\":18232:18255   */\n      mul\n        /* \"#utility.yul\":18203:18324   */\n      tag_123\n      jump\t// in\n    tag_359:\n        /* \"#utility.yul\":18362:18366   */\n      dup2\n        /* \"#utility.yul\":18356:18367   */\n      sload\n        /* \"#utility.yul\":18350:18354   */\n      dup2\n        /* \"#utility.yul\":18346:18368   */\n      and\n        /* \"#utility.yul\":18340:18344   */\n      dup3\n        /* \"#utility.yul\":18333:18369   */\n      sstore\n        /* \"#utility.yul\":18181:18375   */\n      pop\n        /* \"#utility.yul\":18131:18375   */\n      pop\n      pop\n      jump\t// out\n        /* \"#utility.yul\":18381:18811   */\n    tag_141:\n        /* \"#utility.yul\":18618:18656   */\n      tag_361\n        /* \"#utility.yul\":18650:18655   */\n      dup2\n        /* \"#utility.yul\":18618:18656   */\n      tag_111\n      jump\t// in\n    tag_361:\n        /* \"#utility.yul\":18677:18750   */\n      tag_362\n        /* \"#utility.yul\":18746:18749   */\n      dup4\n        /* \"#utility.yul\":18736:18743   */\n      dup3\n        /* \"#utility.yul\":18730:18744   */\n      sload\n        /* \"#utility.yul\":18677:18750   */\n      tag_125\n      jump\t// in\n    tag_362:\n        /* \"#utility.yul\":18773:18777   */\n      dup1\n        /* \"#utility.yul\":18766:18771   */\n      dup4\n        /* \"#utility.yul\":18759:18778   */\n      sstore\n        /* \"#utility.yul\":18803:18804   */\n      0x00\n        /* \"#utility.yul\":18794:18801   */\n      dup3\n        /* \"#utility.yul\":18787:18805   */\n      sstore\n        /* \"#utility.yul\":18452:18811   */\n      pop\n      pop\n        /* \"#utility.yul\":18381:18811   */\n      pop\n      pop\n      jump\t// out\n        /* \"#utility.yul\":18816:20055   */\n    tag_142:\n        /* \"#utility.yul\":18924:18926   */\n      0x20\n        /* \"#utility.yul\":18916:18922   */\n      dup5\n        /* \"#utility.yul\":18913:18927   */\n      lt\n        /* \"#utility.yul\":18942:18943   */\n      0x00\n        /* \"#utility.yul\":18936:19457   */\n      dup2\n      eq\n      tag_365\n      jumpi\n        /* \"#utility.yul\":19506:19508   */\n      0x1f\n        /* \"#utility.yul\":19498:19504   */\n      dup5\n        /* \"#utility.yul\":19495:19509   */\n      gt\n        /* \"#utility.yul\":19527:19528   */\n      0x01\n        /* \"#utility.yul\":19522:19905   */\n      dup2\n      eq\n      tag_367\n      jumpi\n        /* \"#utility.yul\":19958:20024   */\n      tag_368\n        /* \"#utility.yul\":20017:20023   */\n      dup7\n        /* \"#utility.yul\":20011:20015   */\n      dup6\n        /* \"#utility.yul\":19958:20024   */\n      tag_125\n      jump\t// in\n    tag_368:\n        /* \"#utility.yul\":19951:19956   */\n      dup4\n        /* \"#utility.yul\":19944:20025   */\n      sstore\n        /* \"#utility.yul\":19488:20039   */\n      jump(tag_366)\n        /* \"#utility.yul\":19522:19905   */\n    tag_367:\n        /* \"#utility.yul\":19569:19607   */\n      tag_369\n        /* \"#utility.yul\":19601:19606   */\n      dup4\n        /* \"#utility.yul\":19569:19607   */\n      tag_111\n      jump\t// in\n    tag_369:\n        /* \"#utility.yul\":19710:19810   */\n      tag_370\n        /* \"#utility.yul\":19783:19808   */\n      tag_371\n        /* \"#utility.yul\":19801:19807   */\n      dup8\n        /* \"#utility.yul\":19783:19808   */\n      tag_112\n      jump\t// in\n    tag_371:\n        /* \"#utility.yul\":19767:19781   */\n      dup3\n        /* \"#utility.yul\":19763:19809   */\n      add\n        /* \"#utility.yul\":19759:19760   */\n      0x01\n        /* \"#utility.yul\":19743:19757   */\n      dup4\n        /* \"#utility.yul\":19739:19761   */\n      add\n        /* \"#utility.yul\":19710:19810   */\n      tag_121\n      jump\t// in\n    tag_370:\n        /* \"#utility.yul\":19827:19891   */\n      tag_372\n        /* \"#utility.yul\":19884:19890   */\n      dup8\n        /* \"#utility.yul\":19877:19882   */\n      dup6\n        /* \"#utility.yul\":19827:19891   */\n      tag_141\n      jump\t// in\n    tag_372:\n        /* \"#utility.yul\":19529:19905   */\n      pop\n        /* \"#utility.yul\":19488:20039   */\n    tag_366:\n      pop\n        /* \"#utility.yul\":18906:20049   */\n      jump(tag_364)\n        /* \"#utility.yul\":18936:19457   */\n    tag_365:\n        /* \"#utility.yul\":18980:19018   */\n      tag_373\n        /* \"#utility.yul\":19012:19017   */\n      dup3\n        /* \"#utility.yul\":18980:19018   */\n      tag_111\n      jump\t// in\n    tag_373:\n        /* \"#utility.yul\":19070:19095   */\n      tag_374\n        /* \"#utility.yul\":19088:19094   */\n      dup7\n        /* \"#utility.yul\":19070:19095   */\n      tag_112\n      jump\t// in\n    tag_374:\n        /* \"#utility.yul\":19054:19068   */\n      dup2\n        /* \"#utility.yul\":19050:19096   */\n      add\n        /* \"#utility.yul\":19207:19211   */\n      0x1f\n        /* \"#utility.yul\":19199:19205   */\n      dup8\n        /* \"#utility.yul\":19195:19212   */\n      and\n        /* \"#utility.yul\":19228:19234   */\n      dup1\n        /* \"#utility.yul\":19225:19294   */\n      iszero\n      tag_375\n      jumpi\n        /* \"#utility.yul\":19237:19292   */\n      tag_376\n        /* \"#utility.yul\":19285:19291   */\n      dup2\n        /* \"#utility.yul\":19281:19282   */\n      0x01\n        /* \"#utility.yul\":19268:19279   */\n      dup5\n        /* \"#utility.yul\":19264:19283   */\n      sub\n        /* \"#utility.yul\":19237:19292   */\n      tag_140\n      jump\t// in\n    tag_376:\n        /* \"#utility.yul\":19225:19294   */\n    tag_375:\n        /* \"#utility.yul\":19308:19397   */\n      tag_377\n        /* \"#utility.yul\":19370:19395   */\n      tag_378\n        /* \"#utility.yul\":19388:19394   */\n      dup9\n        /* \"#utility.yul\":19370:19395   */\n      tag_112\n      jump\t// in\n    tag_378:\n        /* \"#utility.yul\":19354:19368   */\n      dup5\n        /* \"#utility.yul\":19350:19396   */\n      add\n        /* \"#utility.yul\":19337:19348   */\n      dup4\n        /* \"#utility.yul\":19308:19397   */\n      tag_121\n      jump\t// in\n    tag_377:\n        /* \"#utility.yul\":19444:19445   */\n      0x01\n        /* \"#utility.yul\":19435:19441   */\n      dup9\n        /* \"#utility.yul\":19432:19433   */\n      0x02\n        /* \"#utility.yul\":19428:19442   */\n      mul\n        /* \"#utility.yul\":19425:19446   */\n      or\n        /* \"#utility.yul\":19418:19423   */\n      dup6\n        /* \"#utility.yul\":19411:19447   */\n      sstore\n        /* \"#utility.yul\":18944:19457   */\n      pop\n      pop\n      pop\n        /* \"#utility.yul\":18906:20049   */\n    tag_364:\n      pop\n        /* \"#utility.yul\":18816:20055   */\n      pop\n      pop\n      pop\n      pop\n      jump\t// out\n        /* \"#utility.yul\":20060:20976   */\n    tag_143:\n        /* \"#utility.yul\":20165:20185   */\n      0x010000000000000000\n        /* \"#utility.yul\":20157:20163   */\n      dup5\n        /* \"#utility.yul\":20154:20186   */\n      gt\n        /* \"#utility.yul\":20151:20209   */\n      iszero\n      tag_380\n      jumpi\n        /* \"#utility.yul\":20189:20207   */\n      tag_381\n      tag_97\n      jump\t// in\n    tag_381:\n        /* \"#utility.yul\":20151:20209   */\n    tag_380:\n        /* \"#utility.yul\":20237:20239   */\n      0x20\n        /* \"#utility.yul\":20229:20235   */\n      dup4\n        /* \"#utility.yul\":20226:20240   */\n      lt\n        /* \"#utility.yul\":20254:20255   */\n      0x00\n        /* \"#utility.yul\":20249:20393   */\n      dup2\n      eq\n      tag_383\n      jumpi\n        /* \"#utility.yul\":20442:20444   */\n      0x20\n        /* \"#utility.yul\":20434:20440   */\n      dup6\n        /* \"#utility.yul\":20431:20445   */\n      lt\n        /* \"#utility.yul\":20463:20464   */\n      0x00\n        /* \"#utility.yul\":20458:20749   */\n      dup2\n      eq\n      tag_385\n      jumpi\n        /* \"#utility.yul\":20878:20944   */\n      tag_386\n        /* \"#utility.yul\":20937:20943   */\n      dup7\n        /* \"#utility.yul\":20931:20935   */\n      dup6\n        /* \"#utility.yul\":20878:20944   */\n      tag_125\n      jump\t// in\n    tag_386:\n        /* \"#utility.yul\":20871:20876   */\n      dup4\n        /* \"#utility.yul\":20864:20945   */\n      sstore\n        /* \"#utility.yul\":20424:20959   */\n      jump(tag_384)\n        /* \"#utility.yul\":20458:20749   */\n    tag_385:\n        /* \"#utility.yul\":20607:20611   */\n      dup4\n        /* \"#utility.yul\":20600:20604   */\n      0xff\n        /* \"#utility.yul\":20596:20605   */\n      not\n        /* \"#utility.yul\":20592:20612   */\n      and\n        /* \"#utility.yul\":20584:20612   */\n      swap4\n      pop\n        /* \"#utility.yul\":20676:20680   */\n      dup4\n        /* \"#utility.yul\":20636:20674   */\n      tag_387\n        /* \"#utility.yul\":20668:20673   */\n      dup5\n        /* \"#utility.yul\":20636:20674   */\n      tag_111\n      jump\t// in\n    tag_387:\n        /* \"#utility.yul\":20629:20681   */\n      sstore\n        /* \"#utility.yul\":20732:20733   */\n      0x01\n        /* \"#utility.yul\":20723:20729   */\n      dup7\n        /* \"#utility.yul\":20720:20721   */\n      0x02\n        /* \"#utility.yul\":20716:20730   */\n      mul\n        /* \"#utility.yul\":20712:20734   */\n      add\n        /* \"#utility.yul\":20705:20710   */\n      dup4\n        /* \"#utility.yul\":20698:20735   */\n      sstore\n        /* \"#utility.yul\":20424:20959   */\n    tag_384:\n      pop\n        /* \"#utility.yul\":20219:20969   */\n      jump(tag_382)\n        /* \"#utility.yul\":20249:20393   */\n    tag_383:\n        /* \"#utility.yul\":20380:20381   */\n      0x01\n        /* \"#utility.yul\":20371:20377   */\n      dup6\n        /* \"#utility.yul\":20368:20369   */\n      0x02\n        /* \"#utility.yul\":20364:20378   */\n      mul\n        /* \"#utility.yul\":20360:20382   */\n      add\n        /* \"#utility.yul\":20353:20358   */\n      dup3\n        /* \"#utility.yul\":20346:20383   */\n      sstore\n        /* \"#utility.yul\":20219:20969   */\n    tag_382:\n      pop\n        /* \"#utility.yul\":20060:20976   */\n      pop\n      pop\n      pop\n      pop\n      jump\t// out\n        /* \"#utility.yul\":20982:21384   */\n    tag_144:\n        /* \"#utility.yul\":21065:21070   */\n      dup1\n        /* \"#utility.yul\":21059:21071   */\n      sload\n        /* \"#utility.yul\":21094:21125   */\n      tag_389\n        /* \"#utility.yul\":21120:21124   */\n      dup2\n        /* \"#utility.yul\":21094:21125   */\n      tag_51\n      jump\t// in\n    tag_389:\n        /* \"#utility.yul\":21149:21155   */\n      dup1\n        /* \"#utility.yul\":21141:21147   */\n      dup5\n        /* \"#utility.yul\":21138:21156   */\n      gt\n        /* \"#utility.yul\":21135:21251   */\n      iszero\n      tag_390\n      jumpi\n        /* \"#utility.yul\":21171:21241   */\n      tag_391\n        /* \"#utility.yul\":21234:21240   */\n      dup5\n        /* \"#utility.yul\":21226:21232   */\n      dup3\n        /* \"#utility.yul\":21220:21224   */\n      dup5\n        /* \"#utility.yul\":21213:21218   */\n      dup7\n        /* \"#utility.yul\":21171:21241   */\n      tag_143\n      jump\t// in\n    tag_391:\n        /* \"#utility.yul\":21135:21251   */\n    tag_390:\n        /* \"#utility.yul\":21275:21281   */\n      dup1\n        /* \"#utility.yul\":21267:21273   */\n      dup5\n        /* \"#utility.yul\":21264:21282   */\n      lt\n        /* \"#utility.yul\":21261:21377   */\n      iszero\n      tag_392\n      jumpi\n        /* \"#utility.yul\":21297:21367   */\n      tag_393\n        /* \"#utility.yul\":21360:21366   */\n      dup5\n        /* \"#utility.yul\":21352:21358   */\n      dup3\n        /* \"#utility.yul\":21346:21350   */\n      dup5\n        /* \"#utility.yul\":21339:21344   */\n      dup7\n        /* \"#utility.yul\":21297:21367   */\n      tag_142\n      jump\t// in\n    tag_393:\n        /* \"#utility.yul\":21261:21377   */\n    tag_392:\n        /* \"#utility.yul\":21036:21384   */\n      pop\n      pop\n        /* \"#utility.yul\":20982:21384   */\n      pop\n      pop\n      jump\t// out\n        /* \"#utility.yul\":21451:21571   */\n    tag_395:\n        /* \"#utility.yul\":21468:21471   */\n      dup2\n        /* \"#utility.yul\":21461:21466   */\n      dup2\n        /* \"#utility.yul\":21458:21472   */\n      lt\n        /* \"#utility.yul\":21451:21571   */\n      iszero\n      tag_397\n      jumpi\n        /* \"#utility.yul\":21522:21561   */\n      tag_398\n        /* \"#utility.yul\":21559:21560   */\n      0x00\n        /* \"#utility.yul\":21552:21557   */\n      dup3\n        /* \"#utility.yul\":21522:21561   */\n      tag_120\n      jump\t// in\n    tag_398:\n        /* \"#utility.yul\":21495:21496   */\n      0x01\n        /* \"#utility.yul\":21488:21493   */\n      dup2\n        /* \"#utility.yul\":21484:21497   */\n      add\n        /* \"#utility.yul\":21475:21497   */\n      swap1\n      pop\n        /* \"#utility.yul\":21451:21571   */\n      jump(tag_395)\n    tag_397:\n        /* \"#utility.yul\":21390:21577   */\n      pop\n      pop\n      jump\t// out\n        /* \"#utility.yul\":21778:21886   */\n    tag_147:\n        /* \"#utility.yul\":21841:21879   */\n      tag_401\n        /* \"#utility.yul\":21877:21878   */\n      0x00\n        /* \"#utility.yul\":21871:21875   */\n      dup3\n        /* \"#utility.yul\":21841:21879   */\n      tag_144\n      jump\t// in\n    tag_401:\n        /* \"#utility.yul\":21778:21886   */\n      pop\n      jump\t// out\n        /* \"#utility.yul\":21892:22066   */\n    tag_148:\n        /* \"#utility.yul\":21983:21984   */\n      0x00\n        /* \"#utility.yul\":21975:21981   */\n      dup3\n        /* \"#utility.yul\":21972:21985   */\n      eq\n        /* \"#utility.yul\":21962:22009   */\n      tag_403\n      jumpi\n        /* \"#utility.yul\":21989:22007   */\n      tag_404\n      tag_104\n      jump\t// in\n    tag_404:\n        /* \"#utility.yul\":21962:22009   */\n    tag_403:\n        /* \"#utility.yul\":22018:22060   */\n      tag_405\n        /* \"#utility.yul\":22055:22059   */\n      dup2\n        /* \"#utility.yul\":22018:22060   */\n      tag_147\n      jump\t// in\n    tag_405:\n        /* \"#utility.yul\":21892:22066   */\n      pop\n      pop\n      jump\t// out\n        /* \"#utility.yul\":22072:22271   */\n    tag_149:\n        /* \"#utility.yul\":22148:22201   */\n      tag_407\n        /* \"#utility.yul\":22199:22200   */\n      0x00\n        /* \"#utility.yul\":22195:22196   */\n      0x00\n        /* \"#utility.yul\":22189:22193   */\n      dup4\n        /* \"#utility.yul\":22185:22197   */\n      add\n        /* \"#utility.yul\":22148:22201   */\n      tag_148\n      jump\t// in\n    tag_407:\n        /* \"#utility.yul\":22211:22264   */\n      tag_408\n        /* \"#utility.yul\":22262:22263   */\n      0x00\n        /* \"#utility.yul\":22258:22259   */\n      0x01\n        /* \"#utility.yul\":22252:22256   */\n      dup4\n        /* \"#utility.yul\":22248:22260   */\n      add\n        /* \"#utility.yul\":22211:22264   */\n      tag_148\n      jump\t// in\n    tag_408:\n        /* \"#utility.yul\":22072:22271   */\n      pop\n      jump\t// out\n        /* \"#utility.yul\":22277:22476   */\n    tag_150:\n        /* \"#utility.yul\":22380:22381   */\n      0x00\n        /* \"#utility.yul\":22372:22378   */\n      dup3\n        /* \"#utility.yul\":22369:22382   */\n      eq\n        /* \"#utility.yul\":22359:22406   */\n      tag_410\n      jumpi\n        /* \"#utility.yul\":22386:22404   */\n      tag_411\n      tag_104\n      jump\t// in\n    tag_411:\n        /* \"#utility.yul\":22359:22406   */\n    tag_410:\n        /* \"#utility.yul\":22415:22470   */\n      tag_412\n        /* \"#utility.yul\":22465:22469   */\n      dup2\n        /* \"#utility.yul\":22415:22470   */\n      tag_149\n      jump\t// in\n    tag_412:\n        /* \"#utility.yul\":22277:22476   */\n      pop\n      pop\n      jump\t// out\n        /* \"#utility.yul\":22482:22707   */\n    tag_151:\n        /* \"#utility.yul\":22562:22701   */\n    tag_414:\n        /* \"#utility.yul\":22579:22582   */\n      dup2\n        /* \"#utility.yul\":22572:22577   */\n      dup2\n        /* \"#utility.yul\":22569:22583   */\n      lt\n        /* \"#utility.yul\":22562:22701   */\n      iszero\n      tag_416\n      jumpi\n        /* \"#utility.yul\":22633:22691   */\n      tag_417\n        /* \"#utility.yul\":22689:22690   */\n      0x00\n        /* \"#utility.yul\":22682:22687   */\n      dup3\n        /* \"#utility.yul\":22633:22691   */\n      tag_150\n      jump\t// in\n    tag_417:\n        /* \"#utility.yul\":22606:22607   */\n      0x02\n        /* \"#utility.yul\":22599:22604   */\n      dup2\n        /* \"#utility.yul\":22595:22608   */\n      add\n        /* \"#utility.yul\":22586:22608   */\n      swap1\n      pop\n        /* \"#utility.yul\":22562:22701   */\n      jump(tag_414)\n    tag_416:\n        /* \"#utility.yul\":22482:22707   */\n      pop\n      pop\n      jump\t// out\n        /* \"#utility.yul\":22713:23489   */\n    tag_152:\n        /* \"#utility.yul\":22852:22855   */\n      dup2\n        /* \"#utility.yul\":22840:22850   */\n      dup4\n        /* \"#utility.yul\":22837:22856   */\n      lt\n        /* \"#utility.yul\":22834:23482   */\n      iszero\n      tag_419\n      jumpi\n        /* \"#utility.yul\":22943:23027   */\n      tag_420\n        /* \"#utility.yul\":23023:23026   */\n      dup3\n        /* \"#utility.yul\":22943:23027   */\n      tag_138\n      jump\t// in\n    tag_420:\n        /* \"#utility.yul\":23060:23151   */\n      tag_421\n        /* \"#utility.yul\":23140:23150   */\n      dup5\n        /* \"#utility.yul\":23060:23151   */\n      tag_138\n      jump\t// in\n    tag_421:\n        /* \"#utility.yul\":23186:23258   */\n      tag_422\n        /* \"#utility.yul\":23252:23257   */\n      dup4\n        /* \"#utility.yul\":23186:23258   */\n      tag_139\n      jump\t// in\n    tag_422:\n        /* \"#utility.yul\":23310:23322   */\n      dup2\n        /* \"#utility.yul\":23294:23308   */\n      dup2\n        /* \"#utility.yul\":23290:23323   */\n      add\n        /* \"#utility.yul\":23373:23385   */\n      dup4\n        /* \"#utility.yul\":23357:23371   */\n      dup3\n        /* \"#utility.yul\":23353:23386   */\n      add\n        /* \"#utility.yul\":23400:23472   */\n      tag_423\n        /* \"#utility.yul\":23462:23471   */\n      dup2\n        /* \"#utility.yul\":23449:23460   */\n      dup4\n        /* \"#utility.yul\":23400:23472   */\n      tag_151\n      jump\t// in\n    tag_423:\n        /* \"#utility.yul\":22857:23482   */\n      pop\n      pop\n      pop\n      pop\n      pop\n        /* \"#utility.yul\":22834:23482   */\n    tag_419:\n        /* \"#utility.yul\":22713:23489   */\n      pop\n      pop\n      pop\n      jump\t// out\n        /* \"#utility.yul\":23495:23940   */\n    tag_153:\n        /* \"#utility.yul\":23607:23627   */\n      0x010000000000000000\n        /* \"#utility.yul\":23599:23605   */\n      dup3\n        /* \"#utility.yul\":23596:23628   */\n      gt\n        /* \"#utility.yul\":23593:23671   */\n      iszero\n      tag_425\n      jumpi\n        /* \"#utility.yul\":23643:23661   */\n      tag_426\n      tag_97\n      jump\t// in\n    tag_426:\n        /* \"#utility.yul\":23593:23671   */\n    tag_425:\n        /* \"#utility.yul\":23695:23765   */\n      tag_427\n        /* \"#utility.yul\":23759:23764   */\n      dup2\n        /* \"#utility.yul\":23695:23765   */\n      tag_135\n      jump\t// in\n    tag_427:\n        /* \"#utility.yul\":23817:23823   */\n      dup3\n        /* \"#utility.yul\":23810:23815   */\n      dup3\n        /* \"#utility.yul\":23803:23824   */\n      sstore\n        /* \"#utility.yul\":23834:23933   */\n      tag_428\n        /* \"#utility.yul\":23926:23932   */\n      dup4\n        /* \"#utility.yul\":23918:23924   */\n      dup3\n        /* \"#utility.yul\":23911:23916   */\n      dup5\n        /* \"#utility.yul\":23834:23933   */\n      tag_152\n      jump\t// in\n    tag_428:\n        /* \"#utility.yul\":23583:23940   */\n      pop\n        /* \"#utility.yul\":23495:23940   */\n      pop\n      pop\n      jump\t// out\n        /* \"#utility.yul\":23945:24081   */\n    tag_154:\n        /* \"#utility.yul\":24043:24049   */\n      0x00\n        /* \"#utility.yul\":24071:24074   */\n      dup3\n        /* \"#utility.yul\":24061:24074   */\n      swap1\n      pop\n        /* \"#utility.yul\":23945:24081   */\n      swap3\n      swap2\n      pop\n      pop\n      jump\t// out\n        /* \"#utility.yul\":24087:24942   */\n    tag_155:\n        /* \"#utility.yul\":24257:24258   */\n      0x00\n        /* \"#utility.yul\":24251:24255   */\n      dup2\n        /* \"#utility.yul\":24247:24259   */\n      add\n        /* \"#utility.yul\":24303:24304   */\n      0x00\n        /* \"#utility.yul\":24296:24301   */\n      dup4\n        /* \"#utility.yul\":24292:24305   */\n      add\n        /* \"#utility.yul\":24368:24431   */\n      tag_431\n        /* \"#utility.yul\":24418:24430   */\n      dup2\n        /* \"#utility.yul\":24411:24416   */\n      dup6\n        /* \"#utility.yul\":24368:24431   */\n      tag_108\n      jump\t// in\n    tag_431:\n        /* \"#utility.yul\":24445:24558   */\n      tag_432\n        /* \"#utility.yul\":24544:24557   */\n      dup2\n        /* \"#utility.yul\":24529:24542   */\n      dup4\n        /* \"#utility.yul\":24517:24527   */\n      dup7\n        /* \"#utility.yul\":24445:24558   */\n      tag_127\n      jump\t// in\n    tag_432:\n        /* \"#utility.yul\":24214:24569   */\n      pop\n      pop\n      pop\n      pop\n        /* \"#utility.yul\":24622:24623   */\n      0x01\n        /* \"#utility.yul\":24616:24620   */\n      dup2\n        /* \"#utility.yul\":24612:24624   */\n      add\n        /* \"#utility.yul\":24668:24670   */\n      0x20\n        /* \"#utility.yul\":24661:24666   */\n      dup4\n        /* \"#utility.yul\":24657:24671   */\n      add\n        /* \"#utility.yul\":24734:24797   */\n      tag_433\n        /* \"#utility.yul\":24784:24796   */\n      dup2\n        /* \"#utility.yul\":24777:24782   */\n      dup6\n        /* \"#utility.yul\":24734:24797   */\n      tag_108\n      jump\t// in\n    tag_433:\n        /* \"#utility.yul\":24811:24924   */\n      tag_434\n        /* \"#utility.yul\":24910:24923   */\n      dup2\n        /* \"#utility.yul\":24895:24908   */\n      dup4\n        /* \"#utility.yul\":24883:24893   */\n      dup7\n        /* \"#utility.yul\":24811:24924   */\n      tag_127\n      jump\t// in\n    tag_434:\n        /* \"#utility.yul\":24579:24935   */\n      pop\n      pop\n      pop\n      pop\n        /* \"#utility.yul\":24087:24942   */\n      pop\n      pop\n      jump\t// out\n        /* \"#utility.yul\":24948:25193   */\n    tag_156:\n        /* \"#utility.yul\":25079:25187   */\n      tag_436\n        /* \"#utility.yul\":25179:25186   */\n      dup3\n        /* \"#utility.yul\":25173:25177   */\n      dup3\n        /* \"#utility.yul\":25079:25187   */\n      tag_155\n      jump\t// in\n    tag_436:\n        /* \"#utility.yul\":24948:25193   */\n      pop\n      pop\n      jump\t// out\n        /* \"#utility.yul\":25199:26185   */\n    tag_157:\n        /* \"#utility.yul\":25393:25478   */\n      tag_438\n        /* \"#utility.yul\":25474:25477   */\n      dup4\n        /* \"#utility.yul\":25467:25472   */\n      dup4\n        /* \"#utility.yul\":25393:25478   */\n      tag_154\n      jump\t// in\n    tag_438:\n        /* \"#utility.yul\":25488:25565   */\n      tag_439\n        /* \"#utility.yul\":25558:25564   */\n      dup2\n        /* \"#utility.yul\":25552:25556   */\n      dup4\n        /* \"#utility.yul\":25488:25565   */\n      tag_153\n      jump\t// in\n    tag_439:\n        /* \"#utility.yul\":25589:25671   */\n      tag_440\n        /* \"#utility.yul\":25665:25670   */\n      dup4\n        /* \"#utility.yul\":25589:25671   */\n      tag_133\n      jump\t// in\n    tag_440:\n        /* \"#utility.yul\":25700:25771   */\n      tag_441\n        /* \"#utility.yul\":25766:25770   */\n      dup4\n        /* \"#utility.yul\":25700:25771   */\n      tag_139\n      jump\t// in\n    tag_441:\n        /* \"#utility.yul\":25796:25797   */\n      0x00\n        /* \"#utility.yul\":25781:26179   */\n    tag_442:\n        /* \"#utility.yul\":25806:25812   */\n      dup4\n        /* \"#utility.yul\":25803:25804   */\n      dup2\n        /* \"#utility.yul\":25800:25813   */\n      lt\n        /* \"#utility.yul\":25781:26179   */\n      iszero\n      tag_444\n      jumpi\n        /* \"#utility.yul\":25878:25947   */\n      tag_445\n        /* \"#utility.yul\":25940:25946   */\n      dup4\n        /* \"#utility.yul\":25933:25938   */\n      dup8\n        /* \"#utility.yul\":25878:25947   */\n      tag_134\n      jump\t// in\n    tag_445:\n        /* \"#utility.yul\":25961:26082   */\n      tag_446\n        /* \"#utility.yul\":26070:26081   */\n      dup2\n        /* \"#utility.yul\":26057:26068   */\n      dup5\n        /* \"#utility.yul\":25961:26082   */\n      tag_156\n      jump\t// in\n    tag_446:\n        /* \"#utility.yul\":26118:26120   */\n      0x20\n        /* \"#utility.yul\":26110:26116   */\n      dup5\n        /* \"#utility.yul\":26106:26121   */\n      add\n        /* \"#utility.yul\":26096:26121   */\n      swap4\n      pop\n        /* \"#utility.yul\":26167:26168   */\n      0x02\n        /* \"#utility.yul\":26154:26165   */\n      dup4\n        /* \"#utility.yul\":26150:26169   */\n      add\n        /* \"#utility.yul\":26135:26169   */\n      swap3\n      pop\n        /* \"#utility.yul\":25831:26179   */\n      pop\n        /* \"#utility.yul\":25827:25828   */\n      0x01\n        /* \"#utility.yul\":25824:25825   */\n      dup2\n        /* \"#utility.yul\":25820:25829   */\n      add\n        /* \"#utility.yul\":25815:25829   */\n      swap1\n      pop\n        /* \"#utility.yul\":25781:26179   */\n      jump(tag_442)\n    tag_444:\n        /* \"#utility.yul\":25785:25799   */\n      pop\n        /* \"#utility.yul\":25368:26185   */\n      pop\n      pop\n      pop\n        /* \"#utility.yul\":25199:26185   */\n      pop\n      pop\n      pop\n      jump\t// out\n        /* \"#utility.yul\":26191:26551   */\n    tag_158:\n        /* \"#utility.yul\":26380:26545   */\n      tag_448\n        /* \"#utility.yul\":26537:26544   */\n      dup4\n        /* \"#utility.yul\":26528:26535   */\n      dup4\n        /* \"#utility.yul\":26522:26526   */\n      dup4\n        /* \"#utility.yul\":26380:26545   */\n      tag_157\n      jump\t// in\n    tag_448:\n        /* \"#utility.yul\":26191:26551   */\n      pop\n      pop\n      pop\n      jump\t// out\n        /* \"#utility.yul\":26557:27863   */\n    tag_159:\n        /* \"#utility.yul\":26727:26728   */\n      0x00\n        /* \"#utility.yul\":26721:26725   */\n      dup2\n        /* \"#utility.yul\":26717:26729   */\n      add\n        /* \"#utility.yul\":26773:26774   */\n      0x00\n        /* \"#utility.yul\":26766:26771   */\n      dup4\n        /* \"#utility.yul\":26762:26775   */\n      add\n        /* \"#utility.yul\":26838:26901   */\n      tag_450\n        /* \"#utility.yul\":26888:26900   */\n      dup2\n        /* \"#utility.yul\":26881:26886   */\n      dup6\n        /* \"#utility.yul\":26838:26901   */\n      tag_108\n      jump\t// in\n    tag_450:\n        /* \"#utility.yul\":26915:27028   */\n      tag_451\n        /* \"#utility.yul\":27014:27027   */\n      dup2\n        /* \"#utility.yul\":26999:27012   */\n      dup4\n        /* \"#utility.yul\":26987:26997   */\n      dup7\n        /* \"#utility.yul\":26915:27028   */\n      tag_127\n      jump\t// in\n    tag_451:\n        /* \"#utility.yul\":26684:27039   */\n      pop\n      pop\n      pop\n      pop\n        /* \"#utility.yul\":27092:27093   */\n      0x01\n        /* \"#utility.yul\":27086:27090   */\n      dup2\n        /* \"#utility.yul\":27082:27094   */\n      add\n        /* \"#utility.yul\":27138:27140   */\n      0x20\n        /* \"#utility.yul\":27131:27136   */\n      dup4\n        /* \"#utility.yul\":27127:27141   */\n      add\n        /* \"#utility.yul\":27189:27201   */\n      dup1\n        /* \"#utility.yul\":27232:27274   */\n      tag_452\n        /* \"#utility.yul\":27260:27273   */\n      dup2\n        /* \"#utility.yul\":27232:27274   */\n      tag_128\n      jump\t// in\n    tag_452:\n        /* \"#utility.yul\":27215:27274   */\n      swap1\n      pop\n        /* \"#utility.yul\":27288:27367   */\n      tag_453\n        /* \"#utility.yul\":27353:27366   */\n      dup2\n        /* \"#utility.yul\":27341:27351   */\n      dup5\n        /* \"#utility.yul\":27288:27367   */\n      tag_131\n      jump\t// in\n    tag_453:\n        /* \"#utility.yul\":27049:27378   */\n      pop\n      pop\n      pop\n        /* \"#utility.yul\":27431:27432   */\n      0x02\n        /* \"#utility.yul\":27425:27429   */\n      dup2\n        /* \"#utility.yul\":27421:27433   */\n      add\n        /* \"#utility.yul\":27477:27479   */\n      0x40\n        /* \"#utility.yul\":27470:27475   */\n      dup4\n        /* \"#utility.yul\":27466:27480   */\n      add\n        /* \"#utility.yul\":27543:27645   */\n      tag_454\n        /* \"#utility.yul\":27632:27644   */\n      dup2\n        /* \"#utility.yul\":27625:27630   */\n      dup6\n        /* \"#utility.yul\":27543:27645   */\n      tag_132\n      jump\t// in\n    tag_454:\n        /* \"#utility.yul\":27659:27845   */\n      tag_455\n        /* \"#utility.yul\":27831:27844   */\n      dup2\n        /* \"#utility.yul\":27816:27829   */\n      dup4\n        /* \"#utility.yul\":27804:27814   */\n      dup7\n        /* \"#utility.yul\":27659:27845   */\n      tag_158\n      jump\t// in\n    tag_455:\n        /* \"#utility.yul\":27388:27856   */\n      pop\n      pop\n      pop\n      pop\n        /* \"#utility.yul\":26557:27863   */\n      pop\n      pop\n      jump\t// out\n        /* \"#utility.yul\":27869:28114   */\n    tag_45:\n        /* \"#utility.yul\":28000:28108   */\n      tag_457\n        /* \"#utility.yul\":28100:28107   */\n      dup3\n        /* \"#utility.yul\":28094:28098   */\n      dup3\n        /* \"#utility.yul\":28000:28108   */\n      tag_159\n      jump\t// in\n    tag_457:\n        /* \"#utility.yul\":27869:28114   */\n      pop\n      pop\n      jump\t// out\n        /* \"#utility.yul\":28120:29515   */\n    tag_70:\n        /* \"#utility.yul\":28237:28274   */\n      tag_459\n        /* \"#utility.yul\":28270:28273   */\n      dup3\n        /* \"#utility.yul\":28237:28274   */\n      tag_85\n      jump\t// in\n    tag_459:\n        /* \"#utility.yul\":28339:28357   */\n      0xffffffffffffffff\n        /* \"#utility.yul\":28331:28337   */\n      dup2\n        /* \"#utility.yul\":28328:28358   */\n      gt\n        /* \"#utility.yul\":28325:28381   */\n      iszero\n      tag_460\n      jumpi\n        /* \"#utility.yul\":28361:28379   */\n      tag_461\n      tag_97\n      jump\t// in\n    tag_461:\n        /* \"#utility.yul\":28325:28381   */\n    tag_460:\n        /* \"#utility.yul\":28405:28443   */\n      tag_462\n        /* \"#utility.yul\":28437:28441   */\n      dup3\n        /* \"#utility.yul\":28431:28442   */\n      sload\n        /* \"#utility.yul\":28405:28443   */\n      tag_51\n      jump\t// in\n    tag_462:\n        /* \"#utility.yul\":28490:28557   */\n      tag_463\n        /* \"#utility.yul\":28550:28556   */\n      dup3\n        /* \"#utility.yul\":28542:28548   */\n      dup3\n        /* \"#utility.yul\":28536:28540   */\n      dup6\n        /* \"#utility.yul\":28490:28557   */\n      tag_122\n      jump\t// in\n    tag_463:\n        /* \"#utility.yul\":28584:28585   */\n      0x00\n        /* \"#utility.yul\":28608:28612   */\n      0x20\n        /* \"#utility.yul\":28595:28612   */\n      swap1\n      pop\n        /* \"#utility.yul\":28640:28642   */\n      0x1f\n        /* \"#utility.yul\":28632:28638   */\n      dup4\n        /* \"#utility.yul\":28629:28643   */\n      gt\n        /* \"#utility.yul\":28657:28658   */\n      0x01\n        /* \"#utility.yul\":28652:29270   */\n      dup2\n      eq\n      tag_465\n      jumpi\n        /* \"#utility.yul\":29314:29315   */\n      0x00\n        /* \"#utility.yul\":29331:29337   */\n      dup5\n        /* \"#utility.yul\":29328:29405   */\n      iszero\n      tag_466\n      jumpi\n        /* \"#utility.yul\":29380:29389   */\n      dup3\n        /* \"#utility.yul\":29375:29378   */\n      dup8\n        /* \"#utility.yul\":29371:29390   */\n      add\n        /* \"#utility.yul\":29365:29391   */\n      mload\n        /* \"#utility.yul\":29356:29391   */\n      swap1\n      pop\n        /* \"#utility.yul\":29328:29405   */\n    tag_466:\n        /* \"#utility.yul\":29431:29498   */\n      tag_467\n        /* \"#utility.yul\":29491:29497   */\n      dup6\n        /* \"#utility.yul\":29484:29489   */\n      dup3\n        /* \"#utility.yul\":29431:29498   */\n      tag_125\n      jump\t// in\n    tag_467:\n        /* \"#utility.yul\":29425:29429   */\n      dup7\n        /* \"#utility.yul\":29418:29499   */\n      sstore\n        /* \"#utility.yul\":29287:29509   */\n      pop\n        /* \"#utility.yul\":28622:29509   */\n      jump(tag_464)\n        /* \"#utility.yul\":28652:29270   */\n    tag_465:\n        /* \"#utility.yul\":28704:28708   */\n      0x1f\n        /* \"#utility.yul\":28700:28709   */\n      not\n        /* \"#utility.yul\":28692:28698   */\n      dup5\n        /* \"#utility.yul\":28688:28710   */\n      and\n        /* \"#utility.yul\":28738:28775   */\n      tag_468\n        /* \"#utility.yul\":28770:28774   */\n      dup7\n        /* \"#utility.yul\":28738:28775   */\n      tag_111\n      jump\t// in\n    tag_468:\n        /* \"#utility.yul\":28797:28798   */\n      0x00\n        /* \"#utility.yul\":28811:29019   */\n    tag_469:\n        /* \"#utility.yul\":28825:28832   */\n      dup3\n        /* \"#utility.yul\":28822:28823   */\n      dup2\n        /* \"#utility.yul\":28819:28833   */\n      lt\n        /* \"#utility.yul\":28811:29019   */\n      iszero\n      tag_471\n      jumpi\n        /* \"#utility.yul\":28904:28913   */\n      dup5\n        /* \"#utility.yul\":28899:28902   */\n      dup10\n        /* \"#utility.yul\":28895:28914   */\n      add\n        /* \"#utility.yul\":28889:28915   */\n      mload\n        /* \"#utility.yul\":28881:28887   */\n      dup3\n        /* \"#utility.yul\":28874:28916   */\n      sstore\n        /* \"#utility.yul\":28955:28956   */\n      0x01\n        /* \"#utility.yul\":28947:28953   */\n      dup3\n        /* \"#utility.yul\":28943:28957   */\n      add\n        /* \"#utility.yul\":28933:28957   */\n      swap2\n      pop\n        /* \"#utility.yul\":29002:29004   */\n      0x20\n        /* \"#utility.yul\":28991:29000   */\n      dup6\n        /* \"#utility.yul\":28987:29005   */\n      add\n        /* \"#utility.yul\":28974:29005   */\n      swap5\n      pop\n        /* \"#utility.yul\":28848:28852   */\n      0x20\n        /* \"#utility.yul\":28845:28846   */\n      dup2\n        /* \"#utility.yul\":28841:28853   */\n      add\n        /* \"#utility.yul\":28836:28853   */\n      swap1\n      pop\n        /* \"#utility.yul\":28811:29019   */\n      jump(tag_469)\n    tag_471:\n        /* \"#utility.yul\":29047:29053   */\n      dup7\n        /* \"#utility.yul\":29038:29045   */\n      dup4\n        /* \"#utility.yul\":29035:29054   */\n      lt\n        /* \"#utility.yul\":29032:29211   */\n      iszero\n      tag_472\n      jumpi\n        /* \"#utility.yul\":29105:29114   */\n      dup5\n        /* \"#utility.yul\":29100:29103   */\n      dup10\n        /* \"#utility.yul\":29096:29115   */\n      add\n        /* \"#utility.yul\":29090:29116   */\n      mload\n        /* \"#utility.yul\":29148:29196   */\n      tag_473\n        /* \"#utility.yul\":29190:29194   */\n      0x1f\n        /* \"#utility.yul\":29182:29188   */\n      dup10\n        /* \"#utility.yul\":29178:29195   */\n      and\n        /* \"#utility.yul\":29167:29176   */\n      dup3\n        /* \"#utility.yul\":29148:29196   */\n      tag_124\n      jump\t// in\n    tag_473:\n        /* \"#utility.yul\":29140:29146   */\n      dup4\n        /* \"#utility.yul\":29133:29197   */\n      sstore\n        /* \"#utility.yul\":29055:29211   */\n      pop\n        /* \"#utility.yul\":29032:29211   */\n    tag_472:\n        /* \"#utility.yul\":29257:29258   */\n      0x01\n        /* \"#utility.yul\":29253:29254   */\n      0x02\n        /* \"#utility.yul\":29245:29251   */\n      dup9\n        /* \"#utility.yul\":29241:29255   */\n      mul\n        /* \"#utility.yul\":29237:29259   */\n      add\n        /* \"#utility.yul\":29231:29235   */\n      dup9\n        /* \"#utility.yul\":29224:29260   */\n      sstore\n        /* \"#utility.yul\":28659:29270   */\n      pop\n      pop\n      pop\n        /* \"#utility.yul\":28622:29509   */\n    tag_464:\n      pop\n        /* \"#utility.yul\":28212:29515   */\n      pop\n      pop\n      pop\n        /* \"#utility.yul\":28120:29515   */\n      pop\n      pop\n      jump\t// out\n\n    auxdata: 0xa26469706673582212201129df2320137fa2a1a0ecd317425ae96fa5802829dfdbfa43e91ecd55567ac164736f6c634300081e0033\n}\n",
				"bytecode": {
					"linkReferences": {},
					"object": "6080604052348015600e575f5ffd5b506114fd8061001c5f395ff3fe608060405234801561000f575f5ffd5b506004361061007b575f3560e01c8063a2f9eac611610059578063a2f9eac6146100e9578063a87430ba1461011a578063d3bddc2b1461014c578063ed3ac0de146101685761007b565b8063398ebe3b1461007f5780635ae7998b1461009b5780636f77926b146100b7575b5f5ffd5b61009960048036038101906100949190610706565b610199565b005b6100b560048036038101906100b09190610760565b6101ea565b005b6100d160048036038101906100cc91906107a7565b610224565b6040516100e093929190610869565b60405180910390f35b61010360048036038101906100fe91906108cf565b61037c565b6040516101119291906108fa565b60405180910390f35b610134600480360381019061012f91906107a7565b610431565b60405161014393929190610869565b60405180910390f35b61016660048036038101906101619190610a54565b6104fb565b005b610182600480360381019061017d91906107a7565b6105d3565b6040516101909291906108fa565b60405180910390f35b8160025f8373ffffffffffffffffffffffffffffffffffffffff1673ffffffffffffffffffffffffffffffffffffffff1681526020019081526020015f2081816101e391906113ea565b9050505050565b600181908060018154018082558091505060019003905f5260205f2090600302015f90919091909150818161021f91906113ea565b505050565b60605f5f5f5f5f8673ffffffffffffffffffffffffffffffffffffffff1673ffffffffffffffffffffffffffffffffffffffff1681526020019081526020015f206040518060600160405290815f8201805461027f90610b7f565b80601f01602080910402602001604051908101604052809291908181526020018280546102ab90610b7f565b80156102f65780601f106102cd576101008083540402835291602001916102f6565b820191905f5260205f20905b8154815290600101906020018083116102d957829003601f168201915b5050505050815260200160018201548152602001600282015f9054906101000a900473ffffffffffffffffffffffffffffffffffffffff1673ffffffffffffffffffffffffffffffffffffffff1673ffffffffffffffffffffffffffffffffffffffff16815250509050805f015181602001518260400151935093509350509193909250565b6001818154811061038b575f80fd5b905f5260205f2090600302015f91509050805f0180546103aa90610b7f565b80601f01602080910402602001604051908101604052809291908181526020018280546103d690610b7f565b80156104215780601f106103f857610100808354040283529160200191610421565b820191905f5260205f20905b81548152906001019060200180831161040457829003601f168201915b5050505050908060010154905082565b5f602052805f5260405f205f91509050805f01805461044f90610b7f565b80601f016020809104026020016040519081016040528092919081815260200182805461047b90610b7f565b80156104c65780601f1061049d576101008083540402835291602001916104c6565b820191905f5260205f20905b8154815290600101906020018083116104a957829003601f168201915b505050505090806001015490806002015f9054906101000a900473ffffffffffffffffffffffffffffffffffffffff16905083565b60405180606001604052808381526020018281526020013373ffffffffffffffffffffffffffffffffffffffff168152505f5f3373ffffffffffffffffffffffffffffffffffffffff1673ffffffffffffffffffffffffffffffffffffffff1681526020019081526020015f205f820151815f01908161057b91906113f8565b50602082015181600101556040820151816002015f6101000a81548173ffffffffffffffffffffffffffffffffffffffff021916908373ffffffffffffffffffffffffffffffffffffffff1602179055509050505050565b6002602052805f5260405f205f91509050805f0180546105f290610b7f565b80601f016020809104026020016040519081016040528092919081815260200182805461061e90610b7f565b80156106695780601f1061064057610100808354040283529160200191610669565b820191905f5260205f20905b81548152906001019060200180831161064c57829003601f168201915b5050505050908060010154905082565b5f604051905090565b5f5ffd5b5f5ffd5b5f5ffd5b5f606082840312156106a3576106a261068a565b5b81905092915050565b5f73ffffffffffffffffffffffffffffffffffffffff82169050919050565b5f6106d5826106ac565b9050919050565b6106e5816106cb565b81146106ef575f5ffd5b50565b5f81359050610700816106dc565b92915050565b5f5f6040838503121561071c5761071b610682565b5b5f83013567ffffffffffffffff81111561073957610738610686565b5b6107458582860161068e565b9250506020610756858286016106f2565b9150509250929050565b5f6020828403121561077557610774610682565b5b5f82013567ffffffffffffffff81111561079257610791610686565b5b61079e8482850161068e565b91505092915050565b5f602082840312156107bc576107bb610682565b5b5f6107c9848285016106f2565b91505092915050565b5f81519050919050565b5f82825260208201905092915050565b8281835e5f83830152505050565b5f601f19601f8301169050919050565b5f610814826107d2565b61081e81856107dc565b935061082e8185602086016107ec565b610837816107fa565b840191505092915050565b5f819050919050565b61085481610842565b82525050565b610863816106cb565b82525050565b5f6060820190508181035f830152610881818661080a565b9050610890602083018561084b565b61089d604083018461085a565b949350505050565b6108ae81610842565b81146108b8575f5ffd5b50565b5f813590506108c9816108a5565b92915050565b5f602082840312156108e4576108e3610682565b5b5f6108f1848285016108bb565b91505092915050565b5f6040820190508181035f830152610912818561080a565b9050610921602083018461084b565b9392505050565b5f5ffd5b5f5ffd5b7f4e487b71000000000000000000000000000000000000000000000000000000005f52604160045260245ffd5b610966826107fa565b810181811067ffffffffffffffff8211171561098557610984610930565b5b80604052505050565b5f610997610679565b90506109a3828261095d565b919050565b5f67ffffffffffffffff8211156109c2576109c1610930565b5b6109cb826107fa565b9050602081019050919050565b828183375f83830152505050565b5f6109f86109f3846109a8565b61098e565b905082815260208101848484011115610a1457610a1361092c565b5b610a1f8482856109d8565b509392505050565b5f82601f830112610a3b57610a3a610928565b5b8135610a4b8482602086016109e6565b91505092915050565b5f5f60408385031215610a6a57610a69610682565b5b5f83013567ffffffffffffffff811115610a8757610a86610686565b5b610a9385828601610a27565b9250506020610aa4858286016108bb565b9150509250929050565b7f4e487b71000000000000000000000000000000000000000000000000000000005f525f60045260245ffd5b5f5ffd5b5f5ffd5b5f5ffd5b5f5f83356001602003843603038112610b0257610b01610ada565b5b80840192508235915067ffffffffffffffff821115610b2457610b23610ade565b5b602083019250600182023603831315610b4057610b3f610ae2565b5b509250929050565b5f82905092915050565b7f4e487b71000000000000000000000000000000000000000000000000000000005f52602260045260245ffd5b5f6002820490506001821680610b9657607f821691505b602082108103610ba957610ba8610b52565b5b50919050565b5f819050815f5260205f209050919050565b5f6020601f8301049050919050565b5f82821b905092915050565b5f60088302610c0b7fffffffffffffffffffffffffffffffffffffffffffffffffffffffffffffffff82610bd0565b610c158683610bd0565b95508019841693508086168417925050509392505050565b5f819050919050565b5f610c50610c4b610c4684610842565b610c2d565b610842565b9050919050565b5f819050919050565b610c6983610c36565b610c7d610c7582610c57565b848454610bdc565b825550505050565b5f5f905090565b610c94610c85565b610c9f818484610c60565b505050565b5b81811015610cc257610cb75f82610c8c565b600181019050610ca5565b5050565b601f821115610d0757610cd881610baf565b610ce184610bc1565b81016020851015610cf0578190505b610d04610cfc85610bc1565b830182610ca4565b50505b505050565b5f82821c905092915050565b5f610d275f1984600802610d0c565b1980831691505092915050565b5f610d3f8383610d18565b9150826002028217905092915050565b610d598383610b48565b67ffffffffffffffff811115610d7257610d71610930565b5b610d7c8254610b7f565b610d87828285610cc6565b5f601f831160018114610db4575f8415610da2578287013590505b610dac8582610d34565b865550610e13565b601f198416610dc286610baf565b5f5b82811015610de957848901358255600182019150602085019450602081019050610dc4565b86831015610e065784890135610e02601f891682610d18565b8355505b6001600288020188555050505b50505050505050565b610e27838383610d4f565b505050565b5f8135610e38816108a5565b80915050919050565b5f815f1b9050919050565b5f7fffffffffffffffffffffffffffffffffffffffffffffffffffffffffffffffff610e7784610e41565b9350801983169250808416831791505092915050565b610e9682610c36565b610ea9610ea282610c57565b8354610e4c565b8255505050565b5f5f83356001602003843603038112610ecc57610ecb610ada565b5b80840192508235915067ffffffffffffffff821115610eee57610eed610ade565b5b602083019250602082023603831315610f0a57610f09610ae2565b5b509250929050565b5f819050919050565b5f82356001604003833603038112610f3657610f35610ada565b5b80830191505092915050565b5f81549050919050565b7f4e487b71000000000000000000000000000000000000000000000000000000005f52601160045260245ffd5b5f610f8382610842565b9150610f8e83610842565b9250828202610f9c81610842565b91508282048414831517610fb357610fb2610f4c565b5b5092915050565b5f819050610fc9826002610f79565b9050919050565b5f819050815f5260205f209050919050565b6110127fffffffffffffffffffffffffffffffffffffffffffffffffffffffffffffffff83602003600802610d0c565b815481168255505050565b61102681610baf565b611031838254610d34565b8083555f825550505050565b602084105f811461109757601f8411600181146110655761105e8685610d34565b8355611091565b61106e83610baf565b61108561107a87610bc1565b820160018301610ca4565b61108f878561101d565b505b506110e4565b6110a082610baf565b6110a986610bc1565b8101601f871680156110c3576110c28160018403610fe2565b5b6110d76110cf88610bc1565b840183610ca4565b6001886002021785555050505b5050505050565b6801000000000000000084111561110557611104610930565b5b602083105f811461114e57602085105f811461112c576111258685610d34565b8355611148565b8360ff191693508361113d84610baf565b556001866002020183555b50611158565b6001856002020182555b5050505050565b805461116a81610b7f565b8084111561117f5761117e848284866110eb565b5b80841015611194576111938482848661103d565b5b50505050565b818110156111b7576111ac5f82610c8c565b60018101905061119a565b5050565b6111c55f8261115f565b50565b5f82146111d8576111d7610aae565b5b6111e1816111bb565b5050565b6111f15f5f83016111c8565b6111fe5f600183016111c8565b50565b5f821461121157611210610aae565b5b61121a816111e5565b5050565b5b8181101561123c576112315f82611201565b60028101905061121f565b5050565b818310156112795761125182610fba565b61125a84610fba565b61126383610fd0565b818101838201611273818361121e565b50505050505b505050565b6801000000000000000082111561129857611297610930565b5b6112a181610f42565b8282556112af838284611240565b505050565b5f82905092915050565b5f81015f83016112ce8185610ae6565b6112d9818386610e1c565b5050505060018101602083016112ef8185610ae6565b6112fa818386610e1c565b505050505050565b61130c82826112be565b5050565b61131a83836112b4565b611324818361127e565b61132d83610f12565b61133683610fd0565b5f5b8381101561136c5761134a8387610f1b565b6113548184611302565b60208401935060028301925050600181019050611338565b50505050505050565b611380838383611310565b505050565b5f81015f83016113958185610ae6565b6113a0818386610e1c565b505050506001810160208301806113b681610e2c565b90506113c28184610e8d565b50505060028101604083016113d78185610eb0565b6113e2818386611375565b505050505050565b6113f48282611385565b5050565b611401826107d2565b67ffffffffffffffff81111561141a57611419610930565b5b6114248254610b7f565b61142f828285610cc6565b5f60209050601f831160018114611460575f841561144e578287015190505b6114588582610d34565b8655506114bf565b601f19841661146e86610baf565b5f5b8281101561149557848901518255600182019150602085019450602081019050611470565b868310156114b257848901516114ae601f891682610d18565b8355505b6001600288020188555050505b50505050505056fea26469706673582212201129df2320137fa2a1a0ecd317425ae96fa5802829dfdbfa43e91ecd55567ac164736f6c634300081e0033",
					"opcodes": "PUSH1 0x80 PUSH1 0x40 MSTORE CALLVALUE DUP1 ISZERO PUSH1 0xE JUMPI PUSH0 PUSH0 REVERT JUMPDEST POP PUSH2 0x14FD DUP1 PUSH2 0x1C PUSH0 CODECOPY PUSH0 RETURN INVALID PUSH1 0x80 PUSH1 0x40 MSTORE CALLVALUE DUP1 ISZERO PUSH2 0xF JUMPI PUSH0 PUSH0 REVERT JUMPDEST POP PUSH1 0x4 CALLDATASIZE LT PUSH2 0x7B JUMPI PUSH0 CALLDATALOAD PUSH1 0xE0 SHR DUP1 PUSH4 0xA2F9EAC6 GT PUSH2 0x59 JUMPI DUP1 PUSH4 0xA2F9EAC6 EQ PUSH2 0xE9 JUMPI DUP1 PUSH4 0xA87430BA EQ PUSH2 0x11A JUMPI DUP1 PUSH4 0xD3BDDC2B EQ PUSH2 0x14C JUMPI DUP1 PUSH4 0xED3AC0DE EQ PUSH2 0x168 JUMPI PUSH2 0x7B JUMP JUMPDEST DUP1 PUSH4 0x398EBE3B EQ PUSH2 0x7F JUMPI DUP1 PUSH4 0x5AE7998B EQ PUSH2 0x9B JUMPI DUP1 PUSH4 0x6F77926B EQ PUSH2 0xB7 JUMPI JUMPDEST PUSH0 PUSH0 REVERT JUMPDEST PUSH2 0x99 PUSH1 0x4 DUP1 CALLDATASIZE SUB DUP2 ADD SWAP1 PUSH2 0x94 SWAP2 SWAP1 PUSH2 0x706 JUMP JUMPDEST PUSH2 0x199 JUMP JUMPDEST STOP JUMPDEST PUSH2 0xB5 PUSH1 0x4 DUP1 CALLDATASIZE SUB DUP2 ADD SWAP1 PUSH2 0xB0 SWAP2 SWAP1 PUSH2 0x760 JUMP JUMPDEST PUSH2 0x1EA JUMP JUMPDEST STOP JUMPDEST PUSH2 0xD1 PUSH1 0x4 DUP1 CALLDATASIZE SUB DUP2 ADD SWAP1 PUSH2 0xCC SWAP2 SWAP1 PUSH2 0x7A7 JUMP JUMPDEST PUSH2 0x224 JUMP JUMPDEST PUSH1 0x40 MLOAD PUSH2 0xE0 SWAP4 SWAP3 SWAP2 SWAP1 PUSH2 0x869 JUMP JUMPDEST PUSH1 0x40 MLOAD DUP1 SWAP2 SUB SWAP1 RETURN JUMPDEST PUSH2 0x103 PUSH1 0x4 DUP1 CALLDATASIZE SUB DUP2 ADD SWAP1 PUSH2 0xFE SWAP2 SWAP1 PUSH2 0x8CF JUMP JUMPDEST PUSH2 0x37C JUMP JUMPDEST PUSH1 0x40 MLOAD PUSH2 0x111 SWAP3 SWAP2 SWAP1 PUSH2 0x8FA JUMP JUMPDEST PUSH1 0x40 MLOAD DUP1 SWAP2 SUB SWAP1 RETURN JUMPDEST PUSH2 0x134 PUSH1 0x4 DUP1 CALLDATASIZE SUB DUP2 ADD SWAP1 PUSH2 0x12F SWAP2 SWAP1 PUSH2 0x7A7 JUMP JUMPDEST PUSH2 0x431 JUMP JUMPDEST PUSH1 0x40 MLOAD PUSH2 0x143 SWAP4 SWAP3 SWAP2 SWAP1 PUSH2 0x869 JUMP JUMPDEST PUSH1 0x40 MLOAD DUP1 SWAP2 SUB SWAP1 RETURN JUMPDEST PUSH2 0x166 PUSH1 0x4 DUP1 CALLDATASIZE SUB DUP2 ADD SWAP1 PUSH2 0x161 SWAP2 SWAP1 PUSH2 0xA54 JUMP JUMPDEST PUSH2 0x4FB JUMP JUMPDEST STOP JUMPDEST PUSH2 0x182 PUSH1 0x4 DUP1 CALLDATASIZE SUB DUP2 ADD SWAP1 PUSH2 0x17D SWAP2 SWAP1 PUSH2 0x7A7 JUMP JUMPDEST PUSH2 0x5D3 JUMP JUMPDEST PUSH1 0x40 MLOAD PUSH2 0x190 SWAP3 SWAP2 SWAP1 PUSH2 0x8FA JUMP JUMPDEST PUSH1 0x40 MLOAD DUP1 SWAP2 SUB SWAP1 RETURN JUMPDEST DUP2 PUSH1 0x2 PUSH0 DUP4 PUSH20 0xFFFFFFFFFFFFFFFFFFFFFFFFFFFFFFFFFFFFFFFF AND PUSH20 0xFFFFFFFFFFFFFFFFFFFFFFFFFFFFFFFFFFFFFFFF AND DUP2 MSTORE PUSH1 0x20 ADD SWAP1 DUP2 MSTORE PUSH1 0x20 ADD PUSH0 KECCAK256 DUP2 DUP2 PUSH2 0x1E3 SWAP2 SWAP1 PUSH2 0x13EA JUMP JUMPDEST SWAP1 POP POP POP POP JUMP JUMPDEST PUSH1 0x1 DUP2 SWAP1 DUP1 PUSH1 0x1 DUP2 SLOAD ADD DUP1 DUP3 SSTORE DUP1 SWAP2 POP POP PUSH1 0x1 SWAP1 SUB SWAP1 PUSH0 MSTORE PUSH1 0x20 PUSH0 KECCAK256 SWAP1 PUSH1 0x3 MUL ADD PUSH0 SWAP1 SWAP2 SWAP1 SWAP2 SWAP1 SWAP2 POP DUP2 DUP2 PUSH2 0x21F SWAP2 SWAP1 PUSH2 0x13EA JUMP JUMPDEST POP POP POP JUMP JUMPDEST PUSH1 0x60 PUSH0 PUSH0 PUSH0 PUSH0 PUSH0 DUP7 PUSH20 0xFFFFFFFFFFFFFFFFFFFFFFFFFFFFFFFFFFFFFFFF AND PUSH20 0xFFFFFFFFFFFFFFFFFFFFFFFFFFFFFFFFFFFFFFFF AND DUP2 MSTORE PUSH1 0x20 ADD SWAP1 DUP2 MSTORE PUSH1 0x20 ADD PUSH0 KECCAK256 PUSH1 0x40 MLOAD DUP1 PUSH1 0x60 ADD PUSH1 0x40 MSTORE SWAP1 DUP2 PUSH0 DUP3 ADD DUP1 SLOAD PUSH2 0x27F SWAP1 PUSH2 0xB7F JUMP JUMPDEST DUP1 PUSH1 0x1F ADD PUSH1 0x20 DUP1 SWAP2 DIV MUL PUSH1 0x20 ADD PUSH1 0x40 MLOAD SWAP1 DUP2 ADD PUSH1 0x40 MSTORE DUP1 SWAP3 SWAP2 SWAP1 DUP2 DUP2 MSTORE PUSH1 0x20 ADD DUP3 DUP1 SLOAD PUSH2 0x2AB SWAP1 PUSH2 0xB7F JUMP JUMPDEST DUP1 ISZERO PUSH2 0x2F6 JUMPI DUP1 PUSH1 0x1F LT PUSH2 0x2CD JUMPI PUSH2 0x100 DUP1 DUP4 SLOAD DIV MUL DUP4 MSTORE SWAP2 PUSH1 0x20 ADD SWAP2 PUSH2 0x2F6 JUMP JUMPDEST DUP3 ADD SWAP2 SWAP1 PUSH0 MSTORE PUSH1 0x20 PUSH0 KECCAK256 SWAP1 JUMPDEST DUP2 SLOAD DUP2 MSTORE SWAP1 PUSH1 0x1 ADD SWAP1 PUSH1 0x20 ADD DUP1 DUP4 GT PUSH2 0x2D9 JUMPI DUP3 SWAP1 SUB PUSH1 0x1F AND DUP3 ADD SWAP2 JUMPDEST POP POP POP POP POP DUP2 MSTORE PUSH1 0x20 ADD PUSH1 0x1 DUP3 ADD SLOAD DUP2 MSTORE PUSH1 0x20 ADD PUSH1 0x2 DUP3 ADD PUSH0 SWAP1 SLOAD SWAP1 PUSH2 0x100 EXP SWAP1 DIV PUSH20 0xFFFFFFFFFFFFFFFFFFFFFFFFFFFFFFFFFFFFFFFF AND PUSH20 0xFFFFFFFFFFFFFFFFFFFFFFFFFFFFFFFFFFFFFFFF AND PUSH20 0xFFFFFFFFFFFFFFFFFFFFFFFFFFFFFFFFFFFFFFFF AND DUP2 MSTORE POP POP SWAP1 POP DUP1 PUSH0 ADD MLOAD DUP2 PUSH1 0x20 ADD MLOAD DUP3 PUSH1 0x40 ADD MLOAD SWAP4 POP SWAP4 POP SWAP4 POP POP SWAP2 SWAP4 SWAP1 SWAP3 POP JUMP JUMPDEST PUSH1 0x1 DUP2 DUP2 SLOAD DUP2 LT PUSH2 0x38B JUMPI PUSH0 DUP1 REVERT JUMPDEST SWAP1 PUSH0 MSTORE PUSH1 0x20 PUSH0 KECCAK256 SWAP1 PUSH1 0x3 MUL ADD PUSH0 SWAP2 POP SWAP1 POP DUP1 PUSH0 ADD DUP1 SLOAD PUSH2 0x3AA SWAP1 PUSH2 0xB7F JUMP JUMPDEST DUP1 PUSH1 0x1F ADD PUSH1 0x20 DUP1 SWAP2 DIV MUL PUSH1 0x20 ADD PUSH1 0x40 MLOAD SWAP1 DUP2 ADD PUSH1 0x40 MSTORE DUP1 SWAP3 SWAP2 SWAP1 DUP2 DUP2 MSTORE PUSH1 0x20 ADD DUP3 DUP1 SLOAD PUSH2 0x3D6 SWAP1 PUSH2 0xB7F JUMP JUMPDEST DUP1 ISZERO PUSH2 0x421 JUMPI DUP1 PUSH1 0x1F LT PUSH2 0x3F8 JUMPI PUSH2 0x100 DUP1 DUP4 SLOAD DIV MUL DUP4 MSTORE SWAP2 PUSH1 0x20 ADD SWAP2 PUSH2 0x421 JUMP JUMPDEST DUP3 ADD SWAP2 SWAP1 PUSH0 MSTORE PUSH1 0x20 PUSH0 KECCAK256 SWAP1 JUMPDEST DUP2 SLOAD DUP2 MSTORE SWAP1 PUSH1 0x1 ADD SWAP1 PUSH1 0x20 ADD DUP1 DUP4 GT PUSH2 0x404 JUMPI DUP3 SWAP1 SUB PUSH1 0x1F AND DUP3 ADD SWAP2 JUMPDEST POP POP POP POP POP SWAP1 DUP1 PUSH1 0x1 ADD SLOAD SWAP1 POP DUP3 JUMP JUMPDEST PUSH0 PUSH1 0x20 MSTORE DUP1 PUSH0 MSTORE PUSH1 0x40 PUSH0 KECCAK256 PUSH0 SWAP2 POP SWAP1 POP DUP1 PUSH0 ADD DUP1 SLOAD PUSH2 0x44F SWAP1 PUSH2 0xB7F JUMP JUMPDEST DUP1 PUSH1 0x1F ADD PUSH1 0x20 DUP1 SWAP2 DIV MUL PUSH1 0x20 ADD PUSH1 0x40 MLOAD SWAP1 DUP2 ADD PUSH1 0x40 MSTORE DUP1 SWAP3 SWAP2 SWAP1 DUP2 DUP2 MSTORE PUSH1 0x20 ADD DUP3 DUP1 SLOAD PUSH2 0x47B SWAP1 PUSH2 0xB7F JUMP JUMPDEST DUP1 ISZERO PUSH2 0x4C6 JUMPI DUP1 PUSH1 0x1F LT PUSH2 0x49D JUMPI PUSH2 0x100 DUP1 DUP4 SLOAD DIV MUL DUP4 MSTORE SWAP2 PUSH1 0x20 ADD SWAP2 PUSH2 0x4C6 JUMP JUMPDEST DUP3 ADD SWAP2 SWAP1 PUSH0 MSTORE PUSH1 0x20 PUSH0 KECCAK256 SWAP1 JUMPDEST DUP2 SLOAD DUP2 MSTORE SWAP1 PUSH1 0x1 ADD SWAP1 PUSH1 0x20 ADD DUP1 DUP4 GT PUSH2 0x4A9 JUMPI DUP3 SWAP1 SUB PUSH1 0x1F AND DUP3 ADD SWAP2 JUMPDEST POP POP POP POP POP SWAP1 DUP1 PUSH1 0x1 ADD SLOAD SWAP1 DUP1 PUSH1 0x2 ADD PUSH0 SWAP1 SLOAD SWAP1 PUSH2 0x100 EXP SWAP1 DIV PUSH20 0xFFFFFFFFFFFFFFFFFFFFFFFFFFFFFFFFFFFFFFFF AND SWAP1 POP DUP4 JUMP JUMPDEST PUSH1 0x40 MLOAD DUP1 PUSH1 0x60 ADD PUSH1 0x40 MSTORE DUP1 DUP4 DUP2 MSTORE PUSH1 0x20 ADD DUP3 DUP2 MSTORE PUSH1 0x20 ADD CALLER PUSH20 0xFFFFFFFFFFFFFFFFFFFFFFFFFFFFFFFFFFFFFFFF AND DUP2 MSTORE POP PUSH0 PUSH0 CALLER PUSH20 0xFFFFFFFFFFFFFFFFFFFFFFFFFFFFFFFFFFFFFFFF AND PUSH20 0xFFFFFFFFFFFFFFFFFFFFFFFFFFFFFFFFFFFFFFFF AND DUP2 MSTORE PUSH1 0x20 ADD SWAP1 DUP2 MSTORE PUSH1 0x20 ADD PUSH0 KECCAK256 PUSH0 DUP3 ADD MLOAD DUP2 PUSH0 ADD SWAP1 DUP2 PUSH2 0x57B SWAP2 SWAP1 PUSH2 0x13F8 JUMP JUMPDEST POP PUSH1 0x20 DUP3 ADD MLOAD DUP2 PUSH1 0x1 ADD SSTORE PUSH1 0x40 DUP3 ADD MLOAD DUP2 PUSH1 0x2 ADD PUSH0 PUSH2 0x100 EXP DUP2 SLOAD DUP2 PUSH20 0xFFFFFFFFFFFFFFFFFFFFFFFFFFFFFFFFFFFFFFFF MUL NOT AND SWAP1 DUP4 PUSH20 0xFFFFFFFFFFFFFFFFFFFFFFFFFFFFFFFFFFFFFFFF AND MUL OR SWAP1 SSTORE POP SWAP1 POP POP POP POP JUMP JUMPDEST PUSH1 0x2 PUSH1 0x20 MSTORE DUP1 PUSH0 MSTORE PUSH1 0x40 PUSH0 KECCAK256 PUSH0 SWAP2 POP SWAP1 POP DUP1 PUSH0 ADD DUP1 SLOAD PUSH2 0x5F2 SWAP1 PUSH2 0xB7F JUMP JUMPDEST DUP1 PUSH1 0x1F ADD PUSH1 0x20 DUP1 SWAP2 DIV MUL PUSH1 0x20 ADD PUSH1 0x40 MLOAD SWAP1 DUP2 ADD PUSH1 0x40 MSTORE DUP1 SWAP3 SWAP2 SWAP1 DUP2 DUP2 MSTORE PUSH1 0x20 ADD DUP3 DUP1 SLOAD PUSH2 0x61E SWAP1 PUSH2 0xB7F JUMP JUMPDEST DUP1 ISZERO PUSH2 0x669 JUMPI DUP1 PUSH1 0x1F LT PUSH2 0x640 JUMPI PUSH2 0x100 DUP1 DUP4 SLOAD DIV MUL DUP4 MSTORE SWAP2 PUSH1 0x20 ADD SWAP2 PUSH2 0x669 JUMP JUMPDEST DUP3 ADD SWAP2 SWAP1 PUSH0 MSTORE PUSH1 0x20 PUSH0 KECCAK256 SWAP1 JUMPDEST DUP2 SLOAD DUP2 MSTORE SWAP1 PUSH1 0x1 ADD SWAP1 PUSH1 0x20 ADD DUP1 DUP4 GT PUSH2 0x64C JUMPI DUP3 SWAP1 SUB PUSH1 0x1F AND DUP3 ADD SWAP2 JUMPDEST POP POP POP POP POP SWAP1 DUP1 PUSH1 0x1 ADD SLOAD SWAP1 POP DUP3 JUMP JUMPDEST PUSH0 PUSH1 0x40 MLOAD SWAP1 POP SWAP1 JUMP JUMPDEST PUSH0 PUSH0 REVERT JUMPDEST PUSH0 PUSH0 REVERT JUMPDEST PUSH0 PUSH0 REVERT JUMPDEST PUSH0 PUSH1 0x60 DUP3 DUP5 SUB SLT ISZERO PUSH2 0x6A3 JUMPI PUSH2 0x6A2 PUSH2 0x68A JUMP JUMPDEST JUMPDEST DUP2 SWAP1 POP SWAP3 SWAP2 POP POP JUMP JUMPDEST PUSH0 PUSH20 0xFFFFFFFFFFFFFFFFFFFFFFFFFFFFFFFFFFFFFFFF DUP3 AND SWAP1 POP SWAP2 SWAP1 POP JUMP JUMPDEST PUSH0 PUSH2 0x6D5 DUP3 PUSH2 0x6AC JUMP JUMPDEST SWAP1 POP SWAP2 SWAP1 POP JUMP JUMPDEST PUSH2 0x6E5 DUP2 PUSH2 0x6CB JUMP JUMPDEST DUP2 EQ PUSH2 0x6EF JUMPI PUSH0 PUSH0 REVERT JUMPDEST POP JUMP JUMPDEST PUSH0 DUP2 CALLDATALOAD SWAP1 POP PUSH2 0x700 DUP2 PUSH2 0x6DC JUMP JUMPDEST SWAP3 SWAP2 POP POP JUMP JUMPDEST PUSH0 PUSH0 PUSH1 0x40 DUP4 DUP6 SUB SLT ISZERO PUSH2 0x71C JUMPI PUSH2 0x71B PUSH2 0x682 JUMP JUMPDEST JUMPDEST PUSH0 DUP4 ADD CALLDATALOAD PUSH8 0xFFFFFFFFFFFFFFFF DUP2 GT ISZERO PUSH2 0x739 JUMPI PUSH2 0x738 PUSH2 0x686 JUMP JUMPDEST JUMPDEST PUSH2 0x745 DUP6 DUP3 DUP7 ADD PUSH2 0x68E JUMP JUMPDEST SWAP3 POP POP PUSH1 0x20 PUSH2 0x756 DUP6 DUP3 DUP7 ADD PUSH2 0x6F2 JUMP JUMPDEST SWAP2 POP POP SWAP3 POP SWAP3 SWAP1 POP JUMP JUMPDEST PUSH0 PUSH1 0x20 DUP3 DUP5 SUB SLT ISZERO PUSH2 0x775 JUMPI PUSH2 0x774 PUSH2 0x682 JUMP JUMPDEST JUMPDEST PUSH0 DUP3 ADD CALLDATALOAD PUSH8 0xFFFFFFFFFFFFFFFF DUP2 GT ISZERO PUSH2 0x792 JUMPI PUSH2 0x791 PUSH2 0x686 JUMP JUMPDEST JUMPDEST PUSH2 0x79E DUP5 DUP3 DUP6 ADD PUSH2 0x68E JUMP JUMPDEST SWAP2 POP POP SWAP3 SWAP2 POP POP JUMP JUMPDEST PUSH0 PUSH1 0x20 DUP3 DUP5 SUB SLT ISZERO PUSH2 0x7BC JUMPI PUSH2 0x7BB PUSH2 0x682 JUMP JUMPDEST JUMPDEST PUSH0 PUSH2 0x7C9 DUP5 DUP3 DUP6 ADD PUSH2 0x6F2 JUMP JUMPDEST SWAP2 POP POP SWAP3 SWAP2 POP POP JUMP JUMPDEST PUSH0 DUP2 MLOAD SWAP1 POP SWAP2 SWAP1 POP JUMP JUMPDEST PUSH0 DUP3 DUP3 MSTORE PUSH1 0x20 DUP3 ADD SWAP1 POP SWAP3 SWAP2 POP POP JUMP JUMPDEST DUP3 DUP2 DUP4 MCOPY PUSH0 DUP4 DUP4 ADD MSTORE POP POP POP JUMP JUMPDEST PUSH0 PUSH1 0x1F NOT PUSH1 0x1F DUP4 ADD AND SWAP1 POP SWAP2 SWAP1 POP JUMP JUMPDEST PUSH0 PUSH2 0x814 DUP3 PUSH2 0x7D2 JUMP JUMPDEST PUSH2 0x81E DUP2 DUP6 PUSH2 0x7DC JUMP JUMPDEST SWAP4 POP PUSH2 0x82E DUP2 DUP6 PUSH1 0x20 DUP7 ADD PUSH2 0x7EC JUMP JUMPDEST PUSH2 0x837 DUP2 PUSH2 0x7FA JUMP JUMPDEST DUP5 ADD SWAP2 POP POP SWAP3 SWAP2 POP POP JUMP JUMPDEST PUSH0 DUP2 SWAP1 POP SWAP2 SWAP1 POP JUMP JUMPDEST PUSH2 0x854 DUP2 PUSH2 0x842 JUMP JUMPDEST DUP3 MSTORE POP POP JUMP JUMPDEST PUSH2 0x863 DUP2 PUSH2 0x6CB JUMP JUMPDEST DUP3 MSTORE POP POP JUMP JUMPDEST PUSH0 PUSH1 0x60 DUP3 ADD SWAP1 POP DUP2 DUP2 SUB PUSH0 DUP4 ADD MSTORE PUSH2 0x881 DUP2 DUP7 PUSH2 0x80A JUMP JUMPDEST SWAP1 POP PUSH2 0x890 PUSH1 0x20 DUP4 ADD DUP6 PUSH2 0x84B JUMP JUMPDEST PUSH2 0x89D PUSH1 0x40 DUP4 ADD DUP5 PUSH2 0x85A JUMP JUMPDEST SWAP5 SWAP4 POP POP POP POP JUMP JUMPDEST PUSH2 0x8AE DUP2 PUSH2 0x842 JUMP JUMPDEST DUP2 EQ PUSH2 0x8B8 JUMPI PUSH0 PUSH0 REVERT JUMPDEST POP JUMP JUMPDEST PUSH0 DUP2 CALLDATALOAD SWAP1 POP PUSH2 0x8C9 DUP2 PUSH2 0x8A5 JUMP JUMPDEST SWAP3 SWAP2 POP POP JUMP JUMPDEST PUSH0 PUSH1 0x20 DUP3 DUP5 SUB SLT ISZERO PUSH2 0x8E4 JUMPI PUSH2 0x8E3 PUSH2 0x682 JUMP JUMPDEST JUMPDEST PUSH0 PUSH2 0x8F1 DUP5 DUP3 DUP6 ADD PUSH2 0x8BB JUMP JUMPDEST SWAP2 POP POP SWAP3 SWAP2 POP POP JUMP JUMPDEST PUSH0 PUSH1 0x40 DUP3 ADD SWAP1 POP DUP2 DUP2 SUB PUSH0 DUP4 ADD MSTORE PUSH2 0x912 DUP2 DUP6 PUSH2 0x80A JUMP JUMPDEST SWAP1 POP PUSH2 0x921 PUSH1 0x20 DUP4 ADD DUP5 PUSH2 0x84B JUMP JUMPDEST SWAP4 SWAP3 POP POP POP JUMP JUMPDEST PUSH0 PUSH0 REVERT JUMPDEST PUSH0 PUSH0 REVERT JUMPDEST PUSH32 0x4E487B7100000000000000000000000000000000000000000000000000000000 PUSH0 MSTORE PUSH1 0x41 PUSH1 0x4 MSTORE PUSH1 0x24 PUSH0 REVERT JUMPDEST PUSH2 0x966 DUP3 PUSH2 0x7FA JUMP JUMPDEST DUP2 ADD DUP2 DUP2 LT PUSH8 0xFFFFFFFFFFFFFFFF DUP3 GT OR ISZERO PUSH2 0x985 JUMPI PUSH2 0x984 PUSH2 0x930 JUMP JUMPDEST JUMPDEST DUP1 PUSH1 0x40 MSTORE POP POP POP JUMP JUMPDEST PUSH0 PUSH2 0x997 PUSH2 0x679 JUMP JUMPDEST SWAP1 POP PUSH2 0x9A3 DUP3 DUP3 PUSH2 0x95D JUMP JUMPDEST SWAP2 SWAP1 POP JUMP JUMPDEST PUSH0 PUSH8 0xFFFFFFFFFFFFFFFF DUP3 GT ISZERO PUSH2 0x9C2 JUMPI PUSH2 0x9C1 PUSH2 0x930 JUMP JUMPDEST JUMPDEST PUSH2 0x9CB DUP3 PUSH2 0x7FA JUMP JUMPDEST SWAP1 POP PUSH1 0x20 DUP2 ADD SWAP1 POP SWAP2 SWAP1 POP JUMP JUMPDEST DUP3 DUP2 DUP4 CALLDATACOPY PUSH0 DUP4 DUP4 ADD MSTORE POP POP POP JUMP JUMPDEST PUSH0 PUSH2 0x9F8 PUSH2 0x9F3 DUP5 PUSH2 0x9A8 JUMP JUMPDEST PUSH2 0x98E JUMP JUMPDEST SWAP1 POP DUP3 DUP2 MSTORE PUSH1 0x20 DUP2 ADD DUP5 DUP5 DUP5 ADD GT ISZERO PUSH2 0xA14 JUMPI PUSH2 0xA13 PUSH2 0x92C JUMP JUMPDEST JUMPDEST PUSH2 0xA1F DUP5 DUP3 DUP6 PUSH2 0x9D8 JUMP JUMPDEST POP SWAP4 SWAP3 POP POP POP JUMP JUMPDEST PUSH0 DUP3 PUSH1 0x1F DUP4 ADD SLT PUSH2 0xA3B JUMPI PUSH2 0xA3A PUSH2 0x928 JUMP JUMPDEST JUMPDEST DUP2 CALLDATALOAD PUSH2 0xA4B DUP5 DUP3 PUSH1 0x20 DUP7 ADD PUSH2 0x9E6 JUMP JUMPDEST SWAP2 POP POP SWAP3 SWAP2 POP POP JUMP JUMPDEST PUSH0 PUSH0 PUSH1 0x40 DUP4 DUP6 SUB SLT ISZERO PUSH2 0xA6A JUMPI PUSH2 0xA69 PUSH2 0x682 JUMP JUMPDEST JUMPDEST PUSH0 DUP4 ADD CALLDATALOAD PUSH8 0xFFFFFFFFFFFFFFFF DUP2 GT ISZERO PUSH2 0xA87 JUMPI PUSH2 0xA86 PUSH2 0x686 JUMP JUMPDEST JUMPDEST PUSH2 0xA93 DUP6 DUP3 DUP7 ADD PUSH2 0xA27 JUMP JUMPDEST SWAP3 POP POP PUSH1 0x20 PUSH2 0xAA4 DUP6 DUP3 DUP7 ADD PUSH2 0x8BB JUMP JUMPDEST SWAP2 POP POP SWAP3 POP SWAP3 SWAP1 POP JUMP JUMPDEST PUSH32 0x4E487B7100000000000000000000000000000000000000000000000000000000 PUSH0 MSTORE PUSH0 PUSH1 0x4 MSTORE PUSH1 0x24 PUSH0 REVERT JUMPDEST PUSH0 PUSH0 REVERT JUMPDEST PUSH0 PUSH0 REVERT JUMPDEST PUSH0 PUSH0 REVERT JUMPDEST PUSH0 PUSH0 DUP4 CALLDATALOAD PUSH1 0x1 PUSH1 0x20 SUB DUP5 CALLDATASIZE SUB SUB DUP2 SLT PUSH2 0xB02 JUMPI PUSH2 0xB01 PUSH2 0xADA JUMP JUMPDEST JUMPDEST DUP1 DUP5 ADD SWAP3 POP DUP3 CALLDATALOAD SWAP2 POP PUSH8 0xFFFFFFFFFFFFFFFF DUP3 GT ISZERO PUSH2 0xB24 JUMPI PUSH2 0xB23 PUSH2 0xADE JUMP JUMPDEST JUMPDEST PUSH1 0x20 DUP4 ADD SWAP3 POP PUSH1 0x1 DUP3 MUL CALLDATASIZE SUB DUP4 SGT ISZERO PUSH2 0xB40 JUMPI PUSH2 0xB3F PUSH2 0xAE2 JUMP JUMPDEST JUMPDEST POP SWAP3 POP SWAP3 SWAP1 POP JUMP JUMPDEST PUSH0 DUP3 SWAP1 POP SWAP3 SWAP2 POP POP JUMP JUMPDEST PUSH32 0x4E487B7100000000000000000000000000000000000000000000000000000000 PUSH0 MSTORE PUSH1 0x22 PUSH1 0x4 MSTORE PUSH1 0x24 PUSH0 REVERT JUMPDEST PUSH0 PUSH1 0x2 DUP3 DIV SWAP1 POP PUSH1 0x1 DUP3 AND DUP1 PUSH2 0xB96 JUMPI PUSH1 0x7F DUP3 AND SWAP2 POP JUMPDEST PUSH1 0x20 DUP3 LT DUP2 SUB PUSH2 0xBA9 JUMPI PUSH2 0xBA8 PUSH2 0xB52 JUMP JUMPDEST JUMPDEST POP SWAP2 SWAP1 POP JUMP JUMPDEST PUSH0 DUP2 SWAP1 POP DUP2 PUSH0 MSTORE PUSH1 0x20 PUSH0 KECCAK256 SWAP1 POP SWAP2 SWAP1 POP JUMP JUMPDEST PUSH0 PUSH1 0x20 PUSH1 0x1F DUP4 ADD DIV SWAP1 POP SWAP2 SWAP1 POP JUMP JUMPDEST PUSH0 DUP3 DUP3 SHL SWAP1 POP SWAP3 SWAP2 POP POP JUMP JUMPDEST PUSH0 PUSH1 0x8 DUP4 MUL PUSH2 0xC0B PUSH32 0xFFFFFFFFFFFFFFFFFFFFFFFFFFFFFFFFFFFFFFFFFFFFFFFFFFFFFFFFFFFFFFFF DUP3 PUSH2 0xBD0 JUMP JUMPDEST PUSH2 0xC15 DUP7 DUP4 PUSH2 0xBD0 JUMP JUMPDEST SWAP6 POP DUP1 NOT DUP5 AND SWAP4 POP DUP1 DUP7 AND DUP5 OR SWAP3 POP POP POP SWAP4 SWAP3 POP POP POP JUMP JUMPDEST PUSH0 DUP2 SWAP1 POP SWAP2 SWAP1 POP JUMP JUMPDEST PUSH0 PUSH2 0xC50 PUSH2 0xC4B PUSH2 0xC46 DUP5 PUSH2 0x842 JUMP JUMPDEST PUSH2 0xC2D JUMP JUMPDEST PUSH2 0x842 JUMP JUMPDEST SWAP1 POP SWAP2 SWAP1 POP JUMP JUMPDEST PUSH0 DUP2 SWAP1 POP SWAP2 SWAP1 POP JUMP JUMPDEST PUSH2 0xC69 DUP4 PUSH2 0xC36 JUMP JUMPDEST PUSH2 0xC7D PUSH2 0xC75 DUP3 PUSH2 0xC57 JUMP JUMPDEST DUP5 DUP5 SLOAD PUSH2 0xBDC JUMP JUMPDEST DUP3 SSTORE POP POP POP POP JUMP JUMPDEST PUSH0 PUSH0 SWAP1 POP SWAP1 JUMP JUMPDEST PUSH2 0xC94 PUSH2 0xC85 JUMP JUMPDEST PUSH2 0xC9F DUP2 DUP5 DUP5 PUSH2 0xC60 JUMP JUMPDEST POP POP POP JUMP JUMPDEST JUMPDEST DUP2 DUP2 LT ISZERO PUSH2 0xCC2 JUMPI PUSH2 0xCB7 PUSH0 DUP3 PUSH2 0xC8C JUMP JUMPDEST PUSH1 0x1 DUP2 ADD SWAP1 POP PUSH2 0xCA5 JUMP JUMPDEST POP POP JUMP JUMPDEST PUSH1 0x1F DUP3 GT ISZERO PUSH2 0xD07 JUMPI PUSH2 0xCD8 DUP2 PUSH2 0xBAF JUMP JUMPDEST PUSH2 0xCE1 DUP5 PUSH2 0xBC1 JUMP JUMPDEST DUP2 ADD PUSH1 0x20 DUP6 LT ISZERO PUSH2 0xCF0 JUMPI DUP2 SWAP1 POP JUMPDEST PUSH2 0xD04 PUSH2 0xCFC DUP6 PUSH2 0xBC1 JUMP JUMPDEST DUP4 ADD DUP3 PUSH2 0xCA4 JUMP JUMPDEST POP POP JUMPDEST POP POP POP JUMP JUMPDEST PUSH0 DUP3 DUP3 SHR SWAP1 POP SWAP3 SWAP2 POP POP JUMP JUMPDEST PUSH0 PUSH2 0xD27 PUSH0 NOT DUP5 PUSH1 0x8 MUL PUSH2 0xD0C JUMP JUMPDEST NOT DUP1 DUP4 AND SWAP2 POP POP SWAP3 SWAP2 POP POP JUMP JUMPDEST PUSH0 PUSH2 0xD3F DUP4 DUP4 PUSH2 0xD18 JUMP JUMPDEST SWAP2 POP DUP3 PUSH1 0x2 MUL DUP3 OR SWAP1 POP SWAP3 SWAP2 POP POP JUMP JUMPDEST PUSH2 0xD59 DUP4 DUP4 PUSH2 0xB48 JUMP JUMPDEST PUSH8 0xFFFFFFFFFFFFFFFF DUP2 GT ISZERO PUSH2 0xD72 JUMPI PUSH2 0xD71 PUSH2 0x930 JUMP JUMPDEST JUMPDEST PUSH2 0xD7C DUP3 SLOAD PUSH2 0xB7F JUMP JUMPDEST PUSH2 0xD87 DUP3 DUP3 DUP6 PUSH2 0xCC6 JUMP JUMPDEST PUSH0 PUSH1 0x1F DUP4 GT PUSH1 0x1 DUP2 EQ PUSH2 0xDB4 JUMPI PUSH0 DUP5 ISZERO PUSH2 0xDA2 JUMPI DUP3 DUP8 ADD CALLDATALOAD SWAP1 POP JUMPDEST PUSH2 0xDAC DUP6 DUP3 PUSH2 0xD34 JUMP JUMPDEST DUP7 SSTORE POP PUSH2 0xE13 JUMP JUMPDEST PUSH1 0x1F NOT DUP5 AND PUSH2 0xDC2 DUP7 PUSH2 0xBAF JUMP JUMPDEST PUSH0 JUMPDEST DUP3 DUP2 LT ISZERO PUSH2 0xDE9 JUMPI DUP5 DUP10 ADD CALLDATALOAD DUP3 SSTORE PUSH1 0x1 DUP3 ADD SWAP2 POP PUSH1 0x20 DUP6 ADD SWAP5 POP PUSH1 0x20 DUP2 ADD SWAP1 POP PUSH2 0xDC4 JUMP JUMPDEST DUP7 DUP4 LT ISZERO PUSH2 0xE06 JUMPI DUP5 DUP10 ADD CALLDATALOAD PUSH2 0xE02 PUSH1 0x1F DUP10 AND DUP3 PUSH2 0xD18 JUMP JUMPDEST DUP4 SSTORE POP JUMPDEST PUSH1 0x1 PUSH1 0x2 DUP9 MUL ADD DUP9 SSTORE POP POP POP JUMPDEST POP POP POP POP POP POP POP JUMP JUMPDEST PUSH2 0xE27 DUP4 DUP4 DUP4 PUSH2 0xD4F JUMP JUMPDEST POP POP POP JUMP JUMPDEST PUSH0 DUP2 CALLDATALOAD PUSH2 0xE38 DUP2 PUSH2 0x8A5 JUMP JUMPDEST DUP1 SWAP2 POP POP SWAP2 SWAP1 POP JUMP JUMPDEST PUSH0 DUP2 PUSH0 SHL SWAP1 POP SWAP2 SWAP1 POP JUMP JUMPDEST PUSH0 PUSH32 0xFFFFFFFFFFFFFFFFFFFFFFFFFFFFFFFFFFFFFFFFFFFFFFFFFFFFFFFFFFFFFFFF PUSH2 0xE77 DUP5 PUSH2 0xE41 JUMP JUMPDEST SWAP4 POP DUP1 NOT DUP4 AND SWAP3 POP DUP1 DUP5 AND DUP4 OR SWAP2 POP POP SWAP3 SWAP2 POP POP JUMP JUMPDEST PUSH2 0xE96 DUP3 PUSH2 0xC36 JUMP JUMPDEST PUSH2 0xEA9 PUSH2 0xEA2 DUP3 PUSH2 0xC57 JUMP JUMPDEST DUP4 SLOAD PUSH2 0xE4C JUMP JUMPDEST DUP3 SSTORE POP POP POP JUMP JUMPDEST PUSH0 PUSH0 DUP4 CALLDATALOAD PUSH1 0x1 PUSH1 0x20 SUB DUP5 CALLDATASIZE SUB SUB DUP2 SLT PUSH2 0xECC JUMPI PUSH2 0xECB PUSH2 0xADA JUMP JUMPDEST JUMPDEST DUP1 DUP5 ADD SWAP3 POP DUP3 CALLDATALOAD SWAP2 POP PUSH8 0xFFFFFFFFFFFFFFFF DUP3 GT ISZERO PUSH2 0xEEE JUMPI PUSH2 0xEED PUSH2 0xADE JUMP JUMPDEST JUMPDEST PUSH1 0x20 DUP4 ADD SWAP3 POP PUSH1 0x20 DUP3 MUL CALLDATASIZE SUB DUP4 SGT ISZERO PUSH2 0xF0A JUMPI PUSH2 0xF09 PUSH2 0xAE2 JUMP JUMPDEST JUMPDEST POP SWAP3 POP SWAP3 SWAP1 POP JUMP JUMPDEST PUSH0 DUP2 SWAP1 POP SWAP2 SWAP1 POP JUMP JUMPDEST PUSH0 DUP3 CALLDATALOAD PUSH1 0x1 PUSH1 0x40 SUB DUP4 CALLDATASIZE SUB SUB DUP2 SLT PUSH2 0xF36 JUMPI PUSH2 0xF35 PUSH2 0xADA JUMP JUMPDEST JUMPDEST DUP1 DUP4 ADD SWAP2 POP POP SWAP3 SWAP2 POP POP JUMP JUMPDEST PUSH0 DUP2 SLOAD SWAP1 POP SWAP2 SWAP1 POP JUMP JUMPDEST PUSH32 0x4E487B7100000000000000000000000000000000000000000000000000000000 PUSH0 MSTORE PUSH1 0x11 PUSH1 0x4 MSTORE PUSH1 0x24 PUSH0 REVERT JUMPDEST PUSH0 PUSH2 0xF83 DUP3 PUSH2 0x842 JUMP JUMPDEST SWAP2 POP PUSH2 0xF8E DUP4 PUSH2 0x842 JUMP JUMPDEST SWAP3 POP DUP3 DUP3 MUL PUSH2 0xF9C DUP2 PUSH2 0x842 JUMP JUMPDEST SWAP2 POP DUP3 DUP3 DIV DUP5 EQ DUP4 ISZERO OR PUSH2 0xFB3 JUMPI PUSH2 0xFB2 PUSH2 0xF4C JUMP JUMPDEST JUMPDEST POP SWAP3 SWAP2 POP POP JUMP JUMPDEST PUSH0 DUP2 SWAP1 POP PUSH2 0xFC9 DUP3 PUSH1 0x2 PUSH2 0xF79 JUMP JUMPDEST SWAP1 POP SWAP2 SWAP1 POP JUMP JUMPDEST PUSH0 DUP2 SWAP1 POP DUP2 PUSH0 MSTORE PUSH1 0x20 PUSH0 KECCAK256 SWAP1 POP SWAP2 SWAP1 POP JUMP JUMPDEST PUSH2 0x1012 PUSH32 0xFFFFFFFFFFFFFFFFFFFFFFFFFFFFFFFFFFFFFFFFFFFFFFFFFFFFFFFFFFFFFFFF DUP4 PUSH1 0x20 SUB PUSH1 0x8 MUL PUSH2 0xD0C JUMP JUMPDEST DUP2 SLOAD DUP2 AND DUP3 SSTORE POP POP POP JUMP JUMPDEST PUSH2 0x1026 DUP2 PUSH2 0xBAF JUMP JUMPDEST PUSH2 0x1031 DUP4 DUP3 SLOAD PUSH2 0xD34 JUMP JUMPDEST DUP1 DUP4 SSTORE PUSH0 DUP3 SSTORE POP POP POP POP JUMP JUMPDEST PUSH1 0x20 DUP5 LT PUSH0 DUP2 EQ PUSH2 0x1097 JUMPI PUSH1 0x1F DUP5 GT PUSH1 0x1 DUP2 EQ PUSH2 0x1065 JUMPI PUSH2 0x105E DUP7 DUP6 PUSH2 0xD34 JUMP JUMPDEST DUP4 SSTORE PUSH2 0x1091 JUMP JUMPDEST PUSH2 0x106E DUP4 PUSH2 0xBAF JUMP JUMPDEST PUSH2 0x1085 PUSH2 0x107A DUP8 PUSH2 0xBC1 JUMP JUMPDEST DUP3 ADD PUSH1 0x1 DUP4 ADD PUSH2 0xCA4 JUMP JUMPDEST PUSH2 0x108F DUP8 DUP6 PUSH2 0x101D JUMP JUMPDEST POP JUMPDEST POP PUSH2 0x10E4 JUMP JUMPDEST PUSH2 0x10A0 DUP3 PUSH2 0xBAF JUMP JUMPDEST PUSH2 0x10A9 DUP7 PUSH2 0xBC1 JUMP JUMPDEST DUP2 ADD PUSH1 0x1F DUP8 AND DUP1 ISZERO PUSH2 0x10C3 JUMPI PUSH2 0x10C2 DUP2 PUSH1 0x1 DUP5 SUB PUSH2 0xFE2 JUMP JUMPDEST JUMPDEST PUSH2 0x10D7 PUSH2 0x10CF DUP9 PUSH2 0xBC1 JUMP JUMPDEST DUP5 ADD DUP4 PUSH2 0xCA4 JUMP JUMPDEST PUSH1 0x1 DUP9 PUSH1 0x2 MUL OR DUP6 SSTORE POP POP POP JUMPDEST POP POP POP POP POP JUMP JUMPDEST PUSH9 0x10000000000000000 DUP5 GT ISZERO PUSH2 0x1105 JUMPI PUSH2 0x1104 PUSH2 0x930 JUMP JUMPDEST JUMPDEST PUSH1 0x20 DUP4 LT PUSH0 DUP2 EQ PUSH2 0x114E JUMPI PUSH1 0x20 DUP6 LT PUSH0 DUP2 EQ PUSH2 0x112C JUMPI PUSH2 0x1125 DUP7 DUP6 PUSH2 0xD34 JUMP JUMPDEST DUP4 SSTORE PUSH2 0x1148 JUMP JUMPDEST DUP4 PUSH1 0xFF NOT AND SWAP4 POP DUP4 PUSH2 0x113D DUP5 PUSH2 0xBAF JUMP JUMPDEST SSTORE PUSH1 0x1 DUP7 PUSH1 0x2 MUL ADD DUP4 SSTORE JUMPDEST POP PUSH2 0x1158 JUMP JUMPDEST PUSH1 0x1 DUP6 PUSH1 0x2 MUL ADD DUP3 SSTORE JUMPDEST POP POP POP POP POP JUMP JUMPDEST DUP1 SLOAD PUSH2 0x116A DUP2 PUSH2 0xB7F JUMP JUMPDEST DUP1 DUP5 GT ISZERO PUSH2 0x117F JUMPI PUSH2 0x117E DUP5 DUP3 DUP5 DUP7 PUSH2 0x10EB JUMP JUMPDEST JUMPDEST DUP1 DUP5 LT ISZERO PUSH2 0x1194 JUMPI PUSH2 0x1193 DUP5 DUP3 DUP5 DUP7 PUSH2 0x103D JUMP JUMPDEST JUMPDEST POP POP POP POP JUMP JUMPDEST DUP2 DUP2 LT ISZERO PUSH2 0x11B7 JUMPI PUSH2 0x11AC PUSH0 DUP3 PUSH2 0xC8C JUMP JUMPDEST PUSH1 0x1 DUP2 ADD SWAP1 POP PUSH2 0x119A JUMP JUMPDEST POP POP JUMP JUMPDEST PUSH2 0x11C5 PUSH0 DUP3 PUSH2 0x115F JUMP JUMPDEST POP JUMP JUMPDEST PUSH0 DUP3 EQ PUSH2 0x11D8 JUMPI PUSH2 0x11D7 PUSH2 0xAAE JUMP JUMPDEST JUMPDEST PUSH2 0x11E1 DUP2 PUSH2 0x11BB JUMP JUMPDEST POP POP JUMP JUMPDEST PUSH2 0x11F1 PUSH0 PUSH0 DUP4 ADD PUSH2 0x11C8 JUMP JUMPDEST PUSH2 0x11FE PUSH0 PUSH1 0x1 DUP4 ADD PUSH2 0x11C8 JUMP JUMPDEST POP JUMP JUMPDEST PUSH0 DUP3 EQ PUSH2 0x1211 JUMPI PUSH2 0x1210 PUSH2 0xAAE JUMP JUMPDEST JUMPDEST PUSH2 0x121A DUP2 PUSH2 0x11E5 JUMP JUMPDEST POP POP JUMP JUMPDEST JUMPDEST DUP2 DUP2 LT ISZERO PUSH2 0x123C JUMPI PUSH2 0x1231 PUSH0 DUP3 PUSH2 0x1201 JUMP JUMPDEST PUSH1 0x2 DUP2 ADD SWAP1 POP PUSH2 0x121F JUMP JUMPDEST POP POP JUMP JUMPDEST DUP2 DUP4 LT ISZERO PUSH2 0x1279 JUMPI PUSH2 0x1251 DUP3 PUSH2 0xFBA JUMP JUMPDEST PUSH2 0x125A DUP5 PUSH2 0xFBA JUMP JUMPDEST PUSH2 0x1263 DUP4 PUSH2 0xFD0 JUMP JUMPDEST DUP2 DUP2 ADD DUP4 DUP3 ADD PUSH2 0x1273 DUP2 DUP4 PUSH2 0x121E JUMP JUMPDEST POP POP POP POP POP JUMPDEST POP POP POP JUMP JUMPDEST PUSH9 0x10000000000000000 DUP3 GT ISZERO PUSH2 0x1298 JUMPI PUSH2 0x1297 PUSH2 0x930 JUMP JUMPDEST JUMPDEST PUSH2 0x12A1 DUP2 PUSH2 0xF42 JUMP JUMPDEST DUP3 DUP3 SSTORE PUSH2 0x12AF DUP4 DUP3 DUP5 PUSH2 0x1240 JUMP JUMPDEST POP POP POP JUMP JUMPDEST PUSH0 DUP3 SWAP1 POP SWAP3 SWAP2 POP POP JUMP JUMPDEST PUSH0 DUP2 ADD PUSH0 DUP4 ADD PUSH2 0x12CE DUP2 DUP6 PUSH2 0xAE6 JUMP JUMPDEST PUSH2 0x12D9 DUP2 DUP4 DUP7 PUSH2 0xE1C JUMP JUMPDEST POP POP POP POP PUSH1 0x1 DUP2 ADD PUSH1 0x20 DUP4 ADD PUSH2 0x12EF DUP2 DUP6 PUSH2 0xAE6 JUMP JUMPDEST PUSH2 0x12FA DUP2 DUP4 DUP7 PUSH2 0xE1C JUMP JUMPDEST POP POP POP POP POP POP JUMP JUMPDEST PUSH2 0x130C DUP3 DUP3 PUSH2 0x12BE JUMP JUMPDEST POP POP JUMP JUMPDEST PUSH2 0x131A DUP4 DUP4 PUSH2 0x12B4 JUMP JUMPDEST PUSH2 0x1324 DUP2 DUP4 PUSH2 0x127E JUMP JUMPDEST PUSH2 0x132D DUP4 PUSH2 0xF12 JUMP JUMPDEST PUSH2 0x1336 DUP4 PUSH2 0xFD0 JUMP JUMPDEST PUSH0 JUMPDEST DUP4 DUP2 LT ISZERO PUSH2 0x136C JUMPI PUSH2 0x134A DUP4 DUP8 PUSH2 0xF1B JUMP JUMPDEST PUSH2 0x1354 DUP2 DUP5 PUSH2 0x1302 JUMP JUMPDEST PUSH1 0x20 DUP5 ADD SWAP4 POP PUSH1 0x2 DUP4 ADD SWAP3 POP POP PUSH1 0x1 DUP2 ADD SWAP1 POP PUSH2 0x1338 JUMP JUMPDEST POP POP POP POP POP POP POP JUMP JUMPDEST PUSH2 0x1380 DUP4 DUP4 DUP4 PUSH2 0x1310 JUMP JUMPDEST POP POP POP JUMP JUMPDEST PUSH0 DUP2 ADD PUSH0 DUP4 ADD PUSH2 0x1395 DUP2 DUP6 PUSH2 0xAE6 JUMP JUMPDEST PUSH2 0x13A0 DUP2 DUP4 DUP7 PUSH2 0xE1C JUMP JUMPDEST POP POP POP POP PUSH1 0x1 DUP2 ADD PUSH1 0x20 DUP4 ADD DUP1 PUSH2 0x13B6 DUP2 PUSH2 0xE2C JUMP JUMPDEST SWAP1 POP PUSH2 0x13C2 DUP2 DUP5 PUSH2 0xE8D JUMP JUMPDEST POP POP POP PUSH1 0x2 DUP2 ADD PUSH1 0x40 DUP4 ADD PUSH2 0x13D7 DUP2 DUP6 PUSH2 0xEB0 JUMP JUMPDEST PUSH2 0x13E2 DUP2 DUP4 DUP7 PUSH2 0x1375 JUMP JUMPDEST POP POP POP POP POP POP JUMP JUMPDEST PUSH2 0x13F4 DUP3 DUP3 PUSH2 0x1385 JUMP JUMPDEST POP POP JUMP JUMPDEST PUSH2 0x1401 DUP3 PUSH2 0x7D2 JUMP JUMPDEST PUSH8 0xFFFFFFFFFFFFFFFF DUP2 GT ISZERO PUSH2 0x141A JUMPI PUSH2 0x1419 PUSH2 0x930 JUMP JUMPDEST JUMPDEST PUSH2 0x1424 DUP3 SLOAD PUSH2 0xB7F JUMP JUMPDEST PUSH2 0x142F DUP3 DUP3 DUP6 PUSH2 0xCC6 JUMP JUMPDEST PUSH0 PUSH1 0x20 SWAP1 POP PUSH1 0x1F DUP4 GT PUSH1 0x1 DUP2 EQ PUSH2 0x1460 JUMPI PUSH0 DUP5 ISZERO PUSH2 0x144E JUMPI DUP3 DUP8 ADD MLOAD SWAP1 POP JUMPDEST PUSH2 0x1458 DUP6 DUP3 PUSH2 0xD34 JUMP JUMPDEST DUP7 SSTORE POP PUSH2 0x14BF JUMP JUMPDEST PUSH1 0x1F NOT DUP5 AND PUSH2 0x146E DUP7 PUSH2 0xBAF JUMP JUMPDEST PUSH0 JUMPDEST DUP3 DUP2 LT ISZERO PUSH2 0x1495 JUMPI DUP5 DUP10 ADD MLOAD DUP3 SSTORE PUSH1 0x1 DUP3 ADD SWAP2 POP PUSH1 0x20 DUP6 ADD SWAP5 POP PUSH1 0x20 DUP2 ADD SWAP1 POP PUSH2 0x1470 JUMP JUMPDEST DUP7 DUP4 LT ISZERO PUSH2 0x14B2 JUMPI DUP5 DUP10 ADD MLOAD PUSH2 0x14AE PUSH1 0x1F DUP10 AND DUP3 PUSH2 0xD18 JUMP JUMPDEST DUP4 SSTORE POP JUMPDEST PUSH1 0x1 PUSH1 0x2 DUP9 MUL ADD DUP9 SSTORE POP POP POP JUMPDEST POP POP POP POP POP POP JUMP INVALID LOG2 PUSH5 0x6970667358 0x22 SLT KECCAK256 GT 0x29 0xDF 0x23 KECCAK256 SGT PUSH32 0xA2A1A0ECD317425AE96FA5802829DFDBFA43E91ECD55567AC164736F6C634300 ADDMOD 0x1E STOP CALLER "
				},
				"gasEstimates": {
					"creation": {
						"codeDepositCost": "1074600",
						"executionCost": "1112",
						"totalCost": "1075712"
					},
					"external": {
						"addPerson((string,uint256,(string,string)[]))": "infinite",
						"addPersonMap((string,uint256,(string,string)[]),address)": "infinite",
						"getUser(address)": "infinite",
						"personMap(address)": "infinite",
						"persons(uint256)": "infinite",
						"setUser(string,uint256)": "infinite",
						"users(address)": "infinite"
					}
				},
				"methodIdentifiers": {
					"addPerson((string,uint256,(string,string)[]))": "5ae7998b",
					"addPersonMap((string,uint256,(string,string)[]),address)": "398ebe3b",
					"getUser(address)": "6f77926b",
					"personMap(address)": "ed3ac0de",
					"persons(uint256)": "a2f9eac6",
					"setUser(string,uint256)": "d3bddc2b",
					"users(address)": "a87430ba"
				}
			},
			"storageLayout": {
				"storage": [
					{
						"astId": 27,
						"contract": "contracts/UserManager.sol:UserManager",
						"label": "users",
						"offset": 0,
						"slot": "0",
						"type": "t_mapping(t_address,t_struct(User)8_storage)"
					},
					{
						"astId": 78,
						"contract": "contracts/UserManager.sol:UserManager",
						"label": "persons",
						"offset": 0,
						"slot": "1",
						"type": "t_array(t_struct(Person)17_storage)dyn_storage"
					},
					{
						"astId": 83,
						"contract": "contracts/UserManager.sol:UserManager",
						"label": "personMap",
						"offset": 0,
						"slot": "2",
						"type": "t_mapping(t_address,t_struct(Person)17_storage)"
					}
				],
				"types": {
					"t_address": {
						"encoding": "inplace",
						"label": "address",
						"numberOfBytes": "20"
					},
					"t_array(t_struct(Hobbie)22_storage)dyn_storage": {
						"base": "t_struct(Hobbie)22_storage",
						"encoding": "dynamic_array",
						"label": "struct UserManager.Hobbie[]",
						"numberOfBytes": "32"
					},
					"t_array(t_struct(Person)17_storage)dyn_storage": {
						"base": "t_struct(Person)17_storage",
						"encoding": "dynamic_array",
						"label": "struct UserManager.Person[]",
						"numberOfBytes": "32"
					},
					"t_mapping(t_address,t_struct(Person)17_storage)": {
						"encoding": "mapping",
						"key": "t_address",
						"label": "mapping(address => struct UserManager.Person)",
						"numberOfBytes": "32",
						"value": "t_struct(Person)17_storage"
					},
					"t_mapping(t_address,t_struct(User)8_storage)": {
						"encoding": "mapping",
						"key": "t_address",
						"label": "mapping(address => struct UserManager.User)",
						"numberOfBytes": "32",
						"value": "t_struct(User)8_storage"
					},
					"t_string_storage": {
						"encoding": "bytes",
						"label": "string",
						"numberOfBytes": "32"
					},
					"t_struct(Hobbie)22_storage": {
						"encoding": "inplace",
						"label": "struct UserManager.Hobbie",
						"members": [
							{
								"astId": 19,
								"contract": "contracts/UserManager.sol:UserManager",
								"label": "label",
								"offset": 0,
								"slot": "0",
								"type": "t_string_storage"
							},
							{
								"astId": 21,
								"contract": "contracts/UserManager.sol:UserManager",
								"label": "value",
								"offset": 0,
								"slot": "1",
								"type": "t_string_storage"
							}
						],
						"numberOfBytes": "64"
					},
					"t_struct(Person)17_storage": {
						"encoding": "inplace",
						"label": "struct UserManager.Person",
						"members": [
							{
								"astId": 10,
								"contract": "contracts/UserManager.sol:UserManager",
								"label": "name",
								"offset": 0,
								"slot": "0",
								"type": "t_string_storage"
							},
							{
								"astId": 12,
								"contract": "contracts/UserManager.sol:UserManager",
								"label": "age",
								"offset": 0,
								"slot": "1",
								"type": "t_uint256"
							},
							{
								"astId": 16,
								"contract": "contracts/UserManager.sol:UserManager",
								"label": "hobbies",
								"offset": 0,
								"slot": "2",
								"type": "t_array(t_struct(Hobbie)22_storage)dyn_storage"
							}
						],
						"numberOfBytes": "96"
					},
					"t_struct(User)8_storage": {
						"encoding": "inplace",
						"label": "struct UserManager.User",
						"members": [
							{
								"astId": 3,
								"contract": "contracts/UserManager.sol:UserManager",
								"label": "name",
								"offset": 0,
								"slot": "0",
								"type": "t_string_storage"
							},
							{
								"astId": 5,
								"contract": "contracts/UserManager.sol:UserManager",
								"label": "age",
								"offset": 0,
								"slot": "1",
								"type": "t_uint256"
							},
							{
								"astId": 7,
								"contract": "contracts/UserManager.sol:UserManager",
								"label": "wallet",
								"offset": 0,
								"slot": "2",
								"type": "t_address"
							}
						],
						"numberOfBytes": "96"
					},
					"t_uint256": {
						"encoding": "inplace",
						"label": "uint256",
						"numberOfBytes": "32"
					}
				}
			},
			"userdoc": {
				"kind": "user",
				"methods": {},
				"version": 1
			}
		}
	}
}