{
	"contracts/RomanNumbertic.sol": {
		"RomanNumerals": {
			"abi": [
				{
					"inputs": [
						{
							"internalType": "uint256",
							"name": "num",
							"type": "uint256"
						}
					],
					"name": "intToRoman",
					"outputs": [
						{
							"internalType": "string",
							"name": "",
							"type": "string"
						}
					],
					"stateMutability": "pure",
					"type": "function"
				},
				{
					"inputs": [
						{
							"internalType": "uint256",
							"name": "num",
							"type": "uint256"
						}
					],
					"name": "intToRomanV2",
					"outputs": [
						{
							"internalType": "string",
							"name": "",
							"type": "string"
						}
					],
					"stateMutability": "pure",
					"type": "function"
				}
			],
			"devdoc": {
				"kind": "dev",
				"methods": {},
				"version": 1
			},
			"evm": {
				"assembly": "    /* \"contracts/RomanNumbertic.sol\":58:2468  contract RomanNumerals {... */\n  mstore(0x40, 0x80)\n  callvalue\n  dup1\n  iszero\n  tag_1\n  jumpi\n  revert(0x00, 0x00)\ntag_1:\n  pop\n  dataSize(sub_0)\n  dup1\n  dataOffset(sub_0)\n  0x00\n  codecopy\n  0x00\n  return\nstop\n\nsub_0: assembly {\n        /* \"contracts/RomanNumbertic.sol\":58:2468  contract RomanNumerals {... */\n      mstore(0x40, 0x80)\n      callvalue\n      dup1\n      iszero\n      tag_1\n      jumpi\n      revert(0x00, 0x00)\n    tag_1:\n      pop\n      jumpi(tag_2, lt(calldatasize, 0x04))\n      shr(0xe0, calldataload(0x00))\n      dup1\n      0x0cbc513a\n      eq\n      tag_3\n      jumpi\n      dup1\n      0xc220a93b\n      eq\n      tag_4\n      jumpi\n    tag_2:\n      revert(0x00, 0x00)\n        /* \"contracts/RomanNumbertic.sol\":125:1355  function intToRoman(uint256 num) public pure returns (string memory) {... */\n    tag_3:\n      tag_5\n      0x04\n      dup1\n      calldatasize\n      sub\n      dup2\n      add\n      swap1\n      tag_6\n      swap2\n      swap1\n      tag_7\n      jump\t// in\n    tag_6:\n      tag_8\n      jump\t// in\n    tag_5:\n      mload(0x40)\n      tag_9\n      swap2\n      swap1\n      tag_10\n      jump\t// in\n    tag_9:\n      mload(0x40)\n      dup1\n      swap2\n      sub\n      swap1\n      return\n        /* \"contracts/RomanNumbertic.sol\":1437:2466  function intToRomanV2(uint256 num) public pure returns (string memory) {... */\n    tag_4:\n      tag_11\n      0x04\n      dup1\n      calldatasize\n      sub\n      dup2\n      add\n      swap1\n      tag_12\n      swap2\n      swap1\n      tag_7\n      jump\t// in\n    tag_12:\n      tag_13\n      jump\t// in\n    tag_11:\n      mload(0x40)\n      tag_14\n      swap2\n      swap1\n      tag_10\n      jump\t// in\n    tag_14:\n      mload(0x40)\n      dup1\n      swap2\n      sub\n      swap1\n      return\n        /* \"contracts/RomanNumbertic.sol\":125:1355  function intToRoman(uint256 num) public pure returns (string memory) {... */\n    tag_8:\n        /* \"contracts/RomanNumbertic.sol\":179:192  string memory */\n      0x60\n        /* \"contracts/RomanNumbertic.sol\":219:220  1 */\n      0x01\n        /* \"contracts/RomanNumbertic.sol\":212:215  num */\n      dup3\n        /* \"contracts/RomanNumbertic.sol\":212:220  num >= 1 */\n      lt\n      iszero\n        /* \"contracts/RomanNumbertic.sol\":212:235  num >= 1 && num <= 3999 */\n      dup1\n      iszero\n      tag_16\n      jumpi\n      pop\n        /* \"contracts/RomanNumbertic.sol\":231:235  3999 */\n      0x0f9f\n        /* \"contracts/RomanNumbertic.sol\":224:227  num */\n      dup3\n        /* \"contracts/RomanNumbertic.sol\":224:235  num <= 3999 */\n      gt\n      iszero\n        /* \"contracts/RomanNumbertic.sol\":212:235  num >= 1 && num <= 3999 */\n    tag_16:\n        /* \"contracts/RomanNumbertic.sol\":204:272  require(num >= 1 && num <= 3999, \"Input must be between 1 and 3999\") */\n      tag_17\n      jumpi\n      mload(0x40)\n      0x08c379a000000000000000000000000000000000000000000000000000000000\n      dup2\n      mstore\n      0x04\n      add\n      tag_18\n      swap1\n      tag_19\n      jump\t// in\n    tag_18:\n      mload(0x40)\n      dup1\n      swap2\n      sub\n      swap1\n      revert\n    tag_17:\n        /* \"contracts/RomanNumbertic.sol\":283:306  uint256[] memory values */\n      0x00\n        /* \"contracts/RomanNumbertic.sol\":323:325  13 */\n      0x0d\n        /* \"contracts/RomanNumbertic.sol\":309:326  new uint256[](13) */\n      0xffffffffffffffff\n      dup2\n      gt\n      iszero\n      tag_20\n      jumpi\n      tag_21\n      tag_22\n      jump\t// in\n    tag_21:\n    tag_20:\n      mload(0x40)\n      swap1\n      dup1\n      dup3\n      mstore\n      dup1\n      0x20\n      mul\n      0x20\n      add\n      dup3\n      add\n      0x40\n      mstore\n      dup1\n      iszero\n      tag_23\n      jumpi\n      dup2\n      0x20\n      add\n      0x20\n      dup3\n      mul\n      dup1\n      calldatasize\n      dup4\n      calldatacopy\n      dup1\n      dup3\n      add\n      swap2\n      pop\n      pop\n      swap1\n      pop\n    tag_23:\n      pop\n        /* \"contracts/RomanNumbertic.sol\":283:326  uint256[] memory values = new uint256[](13) */\n      swap1\n      pop\n        /* \"contracts/RomanNumbertic.sol\":336:359  string[] memory symbols */\n      0x00\n        /* \"contracts/RomanNumbertic.sol\":375:377  13 */\n      0x0d\n        /* \"contracts/RomanNumbertic.sol\":362:378  new string[](13) */\n      0xffffffffffffffff\n      dup2\n      gt\n      iszero\n      tag_24\n      jumpi\n      tag_25\n      tag_22\n      jump\t// in\n    tag_25:\n    tag_24:\n      mload(0x40)\n      swap1\n      dup1\n      dup3\n      mstore\n      dup1\n      0x20\n      mul\n      0x20\n      add\n      dup3\n      add\n      0x40\n      mstore\n      dup1\n      iszero\n      tag_26\n      jumpi\n      dup2\n      0x20\n      add\n    tag_27:\n      0x60\n      dup2\n      mstore\n      0x20\n      add\n      swap1\n      0x01\n      swap1\n      sub\n      swap1\n      dup2\n      tag_27\n      jumpi\n      swap1\n      pop\n    tag_26:\n      pop\n        /* \"contracts/RomanNumbertic.sol\":336:378  string[] memory symbols = new string[](13) */\n      swap1\n      pop\n        /* \"contracts/RomanNumbertic.sol\":440:444  1000 */\n      0x03e8\n        /* \"contracts/RomanNumbertic.sol\":428:434  values */\n      dup3\n        /* \"contracts/RomanNumbertic.sol\":435:436  0 */\n      0x00\n        /* \"contracts/RomanNumbertic.sol\":428:437  values[0] */\n      dup2\n      mload\n      dup2\n      lt\n      tag_28\n      jumpi\n      tag_29\n      tag_30\n      jump\t// in\n    tag_29:\n    tag_28:\n      0x20\n      mul\n      0x20\n      add\n      add\n        /* \"contracts/RomanNumbertic.sol\":428:444  values[0] = 1000 */\n      dup2\n      dup2\n      mstore\n      pop\n      pop\n        /* \"contracts/RomanNumbertic.sol\":454:470  symbols[0] = \"M\" */\n      mload(0x40)\n      dup1\n      0x40\n      add\n      0x40\n      mstore\n      dup1\n      0x01\n      dup2\n      mstore\n      0x20\n      add\n      0x4d00000000000000000000000000000000000000000000000000000000000000\n      dup2\n      mstore\n      pop\n        /* \"contracts/RomanNumbertic.sol\":454:461  symbols */\n      dup2\n        /* \"contracts/RomanNumbertic.sol\":462:463  0 */\n      0x00\n        /* \"contracts/RomanNumbertic.sol\":454:464  symbols[0] */\n      dup2\n      mload\n      dup2\n      lt\n      tag_31\n      jumpi\n      tag_32\n      tag_30\n      jump\t// in\n    tag_32:\n    tag_31:\n      0x20\n      mul\n      0x20\n      add\n      add\n        /* \"contracts/RomanNumbertic.sol\":454:470  symbols[0] = \"M\" */\n      dup2\n      swap1\n      mstore\n      pop\n        /* \"contracts/RomanNumbertic.sol\":492:495  900 */\n      0x0384\n        /* \"contracts/RomanNumbertic.sol\":480:486  values */\n      dup3\n        /* \"contracts/RomanNumbertic.sol\":487:488  1 */\n      0x01\n        /* \"contracts/RomanNumbertic.sol\":480:489  values[1] */\n      dup2\n      mload\n      dup2\n      lt\n      tag_33\n      jumpi\n      tag_34\n      tag_30\n      jump\t// in\n    tag_34:\n    tag_33:\n      0x20\n      mul\n      0x20\n      add\n      add\n        /* \"contracts/RomanNumbertic.sol\":480:495  values[1] = 900 */\n      dup2\n      dup2\n      mstore\n      pop\n      pop\n        /* \"contracts/RomanNumbertic.sol\":505:522  symbols[1] = \"CM\" */\n      mload(0x40)\n      dup1\n      0x40\n      add\n      0x40\n      mstore\n      dup1\n      0x02\n      dup2\n      mstore\n      0x20\n      add\n      0x434d000000000000000000000000000000000000000000000000000000000000\n      dup2\n      mstore\n      pop\n        /* \"contracts/RomanNumbertic.sol\":505:512  symbols */\n      dup2\n        /* \"contracts/RomanNumbertic.sol\":513:514  1 */\n      0x01\n        /* \"contracts/RomanNumbertic.sol\":505:515  symbols[1] */\n      dup2\n      mload\n      dup2\n      lt\n      tag_35\n      jumpi\n      tag_36\n      tag_30\n      jump\t// in\n    tag_36:\n    tag_35:\n      0x20\n      mul\n      0x20\n      add\n      add\n        /* \"contracts/RomanNumbertic.sol\":505:522  symbols[1] = \"CM\" */\n      dup2\n      swap1\n      mstore\n      pop\n        /* \"contracts/RomanNumbertic.sol\":544:547  500 */\n      0x01f4\n        /* \"contracts/RomanNumbertic.sol\":532:538  values */\n      dup3\n        /* \"contracts/RomanNumbertic.sol\":539:540  2 */\n      0x02\n        /* \"contracts/RomanNumbertic.sol\":532:541  values[2] */\n      dup2\n      mload\n      dup2\n      lt\n      tag_37\n      jumpi\n      tag_38\n      tag_30\n      jump\t// in\n    tag_38:\n    tag_37:\n      0x20\n      mul\n      0x20\n      add\n      add\n        /* \"contracts/RomanNumbertic.sol\":532:547  values[2] = 500 */\n      dup2\n      dup2\n      mstore\n      pop\n      pop\n        /* \"contracts/RomanNumbertic.sol\":557:573  symbols[2] = \"D\" */\n      mload(0x40)\n      dup1\n      0x40\n      add\n      0x40\n      mstore\n      dup1\n      0x01\n      dup2\n      mstore\n      0x20\n      add\n      0x4400000000000000000000000000000000000000000000000000000000000000\n      dup2\n      mstore\n      pop\n        /* \"contracts/RomanNumbertic.sol\":557:564  symbols */\n      dup2\n        /* \"contracts/RomanNumbertic.sol\":565:566  2 */\n      0x02\n        /* \"contracts/RomanNumbertic.sol\":557:567  symbols[2] */\n      dup2\n      mload\n      dup2\n      lt\n      tag_39\n      jumpi\n      tag_40\n      tag_30\n      jump\t// in\n    tag_40:\n    tag_39:\n      0x20\n      mul\n      0x20\n      add\n      add\n        /* \"contracts/RomanNumbertic.sol\":557:573  symbols[2] = \"D\" */\n      dup2\n      swap1\n      mstore\n      pop\n        /* \"contracts/RomanNumbertic.sol\":595:598  400 */\n      0x0190\n        /* \"contracts/RomanNumbertic.sol\":583:589  values */\n      dup3\n        /* \"contracts/RomanNumbertic.sol\":590:591  3 */\n      0x03\n        /* \"contracts/RomanNumbertic.sol\":583:592  values[3] */\n      dup2\n      mload\n      dup2\n      lt\n      tag_41\n      jumpi\n      tag_42\n      tag_30\n      jump\t// in\n    tag_42:\n    tag_41:\n      0x20\n      mul\n      0x20\n      add\n      add\n        /* \"contracts/RomanNumbertic.sol\":583:598  values[3] = 400 */\n      dup2\n      dup2\n      mstore\n      pop\n      pop\n        /* \"contracts/RomanNumbertic.sol\":608:625  symbols[3] = \"CD\" */\n      mload(0x40)\n      dup1\n      0x40\n      add\n      0x40\n      mstore\n      dup1\n      0x02\n      dup2\n      mstore\n      0x20\n      add\n      0x4344000000000000000000000000000000000000000000000000000000000000\n      dup2\n      mstore\n      pop\n        /* \"contracts/RomanNumbertic.sol\":608:615  symbols */\n      dup2\n        /* \"contracts/RomanNumbertic.sol\":616:617  3 */\n      0x03\n        /* \"contracts/RomanNumbertic.sol\":608:618  symbols[3] */\n      dup2\n      mload\n      dup2\n      lt\n      tag_43\n      jumpi\n      tag_44\n      tag_30\n      jump\t// in\n    tag_44:\n    tag_43:\n      0x20\n      mul\n      0x20\n      add\n      add\n        /* \"contracts/RomanNumbertic.sol\":608:625  symbols[3] = \"CD\" */\n      dup2\n      swap1\n      mstore\n      pop\n        /* \"contracts/RomanNumbertic.sol\":647:650  100 */\n      0x64\n        /* \"contracts/RomanNumbertic.sol\":635:641  values */\n      dup3\n        /* \"contracts/RomanNumbertic.sol\":642:643  4 */\n      0x04\n        /* \"contracts/RomanNumbertic.sol\":635:644  values[4] */\n      dup2\n      mload\n      dup2\n      lt\n      tag_45\n      jumpi\n      tag_46\n      tag_30\n      jump\t// in\n    tag_46:\n    tag_45:\n      0x20\n      mul\n      0x20\n      add\n      add\n        /* \"contracts/RomanNumbertic.sol\":635:650  values[4] = 100 */\n      dup2\n      dup2\n      mstore\n      pop\n      pop\n        /* \"contracts/RomanNumbertic.sol\":660:676  symbols[4] = \"C\" */\n      mload(0x40)\n      dup1\n      0x40\n      add\n      0x40\n      mstore\n      dup1\n      0x01\n      dup2\n      mstore\n      0x20\n      add\n      0x4300000000000000000000000000000000000000000000000000000000000000\n      dup2\n      mstore\n      pop\n        /* \"contracts/RomanNumbertic.sol\":660:667  symbols */\n      dup2\n        /* \"contracts/RomanNumbertic.sol\":668:669  4 */\n      0x04\n        /* \"contracts/RomanNumbertic.sol\":660:670  symbols[4] */\n      dup2\n      mload\n      dup2\n      lt\n      tag_47\n      jumpi\n      tag_48\n      tag_30\n      jump\t// in\n    tag_48:\n    tag_47:\n      0x20\n      mul\n      0x20\n      add\n      add\n        /* \"contracts/RomanNumbertic.sol\":660:676  symbols[4] = \"C\" */\n      dup2\n      swap1\n      mstore\n      pop\n        /* \"contracts/RomanNumbertic.sol\":698:700  90 */\n      0x5a\n        /* \"contracts/RomanNumbertic.sol\":686:692  values */\n      dup3\n        /* \"contracts/RomanNumbertic.sol\":693:694  5 */\n      0x05\n        /* \"contracts/RomanNumbertic.sol\":686:695  values[5] */\n      dup2\n      mload\n      dup2\n      lt\n      tag_49\n      jumpi\n      tag_50\n      tag_30\n      jump\t// in\n    tag_50:\n    tag_49:\n      0x20\n      mul\n      0x20\n      add\n      add\n        /* \"contracts/RomanNumbertic.sol\":686:700  values[5] = 90 */\n      dup2\n      dup2\n      mstore\n      pop\n      pop\n        /* \"contracts/RomanNumbertic.sol\":710:727  symbols[5] = \"XC\" */\n      mload(0x40)\n      dup1\n      0x40\n      add\n      0x40\n      mstore\n      dup1\n      0x02\n      dup2\n      mstore\n      0x20\n      add\n      0x5843000000000000000000000000000000000000000000000000000000000000\n      dup2\n      mstore\n      pop\n        /* \"contracts/RomanNumbertic.sol\":710:717  symbols */\n      dup2\n        /* \"contracts/RomanNumbertic.sol\":718:719  5 */\n      0x05\n        /* \"contracts/RomanNumbertic.sol\":710:720  symbols[5] */\n      dup2\n      mload\n      dup2\n      lt\n      tag_51\n      jumpi\n      tag_52\n      tag_30\n      jump\t// in\n    tag_52:\n    tag_51:\n      0x20\n      mul\n      0x20\n      add\n      add\n        /* \"contracts/RomanNumbertic.sol\":710:727  symbols[5] = \"XC\" */\n      dup2\n      swap1\n      mstore\n      pop\n        /* \"contracts/RomanNumbertic.sol\":749:751  50 */\n      0x32\n        /* \"contracts/RomanNumbertic.sol\":737:743  values */\n      dup3\n        /* \"contracts/RomanNumbertic.sol\":744:745  6 */\n      0x06\n        /* \"contracts/RomanNumbertic.sol\":737:746  values[6] */\n      dup2\n      mload\n      dup2\n      lt\n      tag_53\n      jumpi\n      tag_54\n      tag_30\n      jump\t// in\n    tag_54:\n    tag_53:\n      0x20\n      mul\n      0x20\n      add\n      add\n        /* \"contracts/RomanNumbertic.sol\":737:751  values[6] = 50 */\n      dup2\n      dup2\n      mstore\n      pop\n      pop\n        /* \"contracts/RomanNumbertic.sol\":761:777  symbols[6] = \"L\" */\n      mload(0x40)\n      dup1\n      0x40\n      add\n      0x40\n      mstore\n      dup1\n      0x01\n      dup2\n      mstore\n      0x20\n      add\n      0x4c00000000000000000000000000000000000000000000000000000000000000\n      dup2\n      mstore\n      pop\n        /* \"contracts/RomanNumbertic.sol\":761:768  symbols */\n      dup2\n        /* \"contracts/RomanNumbertic.sol\":769:770  6 */\n      0x06\n        /* \"contracts/RomanNumbertic.sol\":761:771  symbols[6] */\n      dup2\n      mload\n      dup2\n      lt\n      tag_55\n      jumpi\n      tag_56\n      tag_30\n      jump\t// in\n    tag_56:\n    tag_55:\n      0x20\n      mul\n      0x20\n      add\n      add\n        /* \"contracts/RomanNumbertic.sol\":761:777  symbols[6] = \"L\" */\n      dup2\n      swap1\n      mstore\n      pop\n        /* \"contracts/RomanNumbertic.sol\":799:801  40 */\n      0x28\n        /* \"contracts/RomanNumbertic.sol\":787:793  values */\n      dup3\n        /* \"contracts/RomanNumbertic.sol\":794:795  7 */\n      0x07\n        /* \"contracts/RomanNumbertic.sol\":787:796  values[7] */\n      dup2\n      mload\n      dup2\n      lt\n      tag_57\n      jumpi\n      tag_58\n      tag_30\n      jump\t// in\n    tag_58:\n    tag_57:\n      0x20\n      mul\n      0x20\n      add\n      add\n        /* \"contracts/RomanNumbertic.sol\":787:801  values[7] = 40 */\n      dup2\n      dup2\n      mstore\n      pop\n      pop\n        /* \"contracts/RomanNumbertic.sol\":811:828  symbols[7] = \"XL\" */\n      mload(0x40)\n      dup1\n      0x40\n      add\n      0x40\n      mstore\n      dup1\n      0x02\n      dup2\n      mstore\n      0x20\n      add\n      0x584c000000000000000000000000000000000000000000000000000000000000\n      dup2\n      mstore\n      pop\n        /* \"contracts/RomanNumbertic.sol\":811:818  symbols */\n      dup2\n        /* \"contracts/RomanNumbertic.sol\":819:820  7 */\n      0x07\n        /* \"contracts/RomanNumbertic.sol\":811:821  symbols[7] */\n      dup2\n      mload\n      dup2\n      lt\n      tag_59\n      jumpi\n      tag_60\n      tag_30\n      jump\t// in\n    tag_60:\n    tag_59:\n      0x20\n      mul\n      0x20\n      add\n      add\n        /* \"contracts/RomanNumbertic.sol\":811:828  symbols[7] = \"XL\" */\n      dup2\n      swap1\n      mstore\n      pop\n        /* \"contracts/RomanNumbertic.sol\":850:852  10 */\n      0x0a\n        /* \"contracts/RomanNumbertic.sol\":838:844  values */\n      dup3\n        /* \"contracts/RomanNumbertic.sol\":845:846  8 */\n      0x08\n        /* \"contracts/RomanNumbertic.sol\":838:847  values[8] */\n      dup2\n      mload\n      dup2\n      lt\n      tag_61\n      jumpi\n      tag_62\n      tag_30\n      jump\t// in\n    tag_62:\n    tag_61:\n      0x20\n      mul\n      0x20\n      add\n      add\n        /* \"contracts/RomanNumbertic.sol\":838:852  values[8] = 10 */\n      dup2\n      dup2\n      mstore\n      pop\n      pop\n        /* \"contracts/RomanNumbertic.sol\":862:878  symbols[8] = \"X\" */\n      mload(0x40)\n      dup1\n      0x40\n      add\n      0x40\n      mstore\n      dup1\n      0x01\n      dup2\n      mstore\n      0x20\n      add\n      0x5800000000000000000000000000000000000000000000000000000000000000\n      dup2\n      mstore\n      pop\n        /* \"contracts/RomanNumbertic.sol\":862:869  symbols */\n      dup2\n        /* \"contracts/RomanNumbertic.sol\":870:871  8 */\n      0x08\n        /* \"contracts/RomanNumbertic.sol\":862:872  symbols[8] */\n      dup2\n      mload\n      dup2\n      lt\n      tag_63\n      jumpi\n      tag_64\n      tag_30\n      jump\t// in\n    tag_64:\n    tag_63:\n      0x20\n      mul\n      0x20\n      add\n      add\n        /* \"contracts/RomanNumbertic.sol\":862:878  symbols[8] = \"X\" */\n      dup2\n      swap1\n      mstore\n      pop\n        /* \"contracts/RomanNumbertic.sol\":900:901  9 */\n      0x09\n        /* \"contracts/RomanNumbertic.sol\":888:894  values */\n      dup3\n        /* \"contracts/RomanNumbertic.sol\":895:896  9 */\n      0x09\n        /* \"contracts/RomanNumbertic.sol\":888:897  values[9] */\n      dup2\n      mload\n      dup2\n      lt\n      tag_65\n      jumpi\n      tag_66\n      tag_30\n      jump\t// in\n    tag_66:\n    tag_65:\n      0x20\n      mul\n      0x20\n      add\n      add\n        /* \"contracts/RomanNumbertic.sol\":888:901  values[9] = 9 */\n      dup2\n      dup2\n      mstore\n      pop\n      pop\n        /* \"contracts/RomanNumbertic.sol\":911:928  symbols[9] = \"IX\" */\n      mload(0x40)\n      dup1\n      0x40\n      add\n      0x40\n      mstore\n      dup1\n      0x02\n      dup2\n      mstore\n      0x20\n      add\n      0x4958000000000000000000000000000000000000000000000000000000000000\n      dup2\n      mstore\n      pop\n        /* \"contracts/RomanNumbertic.sol\":911:918  symbols */\n      dup2\n        /* \"contracts/RomanNumbertic.sol\":919:920  9 */\n      0x09\n        /* \"contracts/RomanNumbertic.sol\":911:921  symbols[9] */\n      dup2\n      mload\n      dup2\n      lt\n      tag_67\n      jumpi\n      tag_68\n      tag_30\n      jump\t// in\n    tag_68:\n    tag_67:\n      0x20\n      mul\n      0x20\n      add\n      add\n        /* \"contracts/RomanNumbertic.sol\":911:928  symbols[9] = \"IX\" */\n      dup2\n      swap1\n      mstore\n      pop\n        /* \"contracts/RomanNumbertic.sol\":951:952  5 */\n      0x05\n        /* \"contracts/RomanNumbertic.sol\":938:944  values */\n      dup3\n        /* \"contracts/RomanNumbertic.sol\":945:947  10 */\n      0x0a\n        /* \"contracts/RomanNumbertic.sol\":938:948  values[10] */\n      dup2\n      mload\n      dup2\n      lt\n      tag_69\n      jumpi\n      tag_70\n      tag_30\n      jump\t// in\n    tag_70:\n    tag_69:\n      0x20\n      mul\n      0x20\n      add\n      add\n        /* \"contracts/RomanNumbertic.sol\":938:952  values[10] = 5 */\n      dup2\n      dup2\n      mstore\n      pop\n      pop\n        /* \"contracts/RomanNumbertic.sol\":962:979  symbols[10] = \"V\" */\n      mload(0x40)\n      dup1\n      0x40\n      add\n      0x40\n      mstore\n      dup1\n      0x01\n      dup2\n      mstore\n      0x20\n      add\n      0x5600000000000000000000000000000000000000000000000000000000000000\n      dup2\n      mstore\n      pop\n        /* \"contracts/RomanNumbertic.sol\":962:969  symbols */\n      dup2\n        /* \"contracts/RomanNumbertic.sol\":970:972  10 */\n      0x0a\n        /* \"contracts/RomanNumbertic.sol\":962:973  symbols[10] */\n      dup2\n      mload\n      dup2\n      lt\n      tag_71\n      jumpi\n      tag_72\n      tag_30\n      jump\t// in\n    tag_72:\n    tag_71:\n      0x20\n      mul\n      0x20\n      add\n      add\n        /* \"contracts/RomanNumbertic.sol\":962:979  symbols[10] = \"V\" */\n      dup2\n      swap1\n      mstore\n      pop\n        /* \"contracts/RomanNumbertic.sol\":1002:1003  4 */\n      0x04\n        /* \"contracts/RomanNumbertic.sol\":989:995  values */\n      dup3\n        /* \"contracts/RomanNumbertic.sol\":996:998  11 */\n      0x0b\n        /* \"contracts/RomanNumbertic.sol\":989:999  values[11] */\n      dup2\n      mload\n      dup2\n      lt\n      tag_73\n      jumpi\n      tag_74\n      tag_30\n      jump\t// in\n    tag_74:\n    tag_73:\n      0x20\n      mul\n      0x20\n      add\n      add\n        /* \"contracts/RomanNumbertic.sol\":989:1003  values[11] = 4 */\n      dup2\n      dup2\n      mstore\n      pop\n      pop\n        /* \"contracts/RomanNumbertic.sol\":1013:1031  symbols[11] = \"IV\" */\n      mload(0x40)\n      dup1\n      0x40\n      add\n      0x40\n      mstore\n      dup1\n      0x02\n      dup2\n      mstore\n      0x20\n      add\n      0x4956000000000000000000000000000000000000000000000000000000000000\n      dup2\n      mstore\n      pop\n        /* \"contracts/RomanNumbertic.sol\":1013:1020  symbols */\n      dup2\n        /* \"contracts/RomanNumbertic.sol\":1021:1023  11 */\n      0x0b\n        /* \"contracts/RomanNumbertic.sol\":1013:1024  symbols[11] */\n      dup2\n      mload\n      dup2\n      lt\n      tag_75\n      jumpi\n      tag_76\n      tag_30\n      jump\t// in\n    tag_76:\n    tag_75:\n      0x20\n      mul\n      0x20\n      add\n      add\n        /* \"contracts/RomanNumbertic.sol\":1013:1031  symbols[11] = \"IV\" */\n      dup2\n      swap1\n      mstore\n      pop\n        /* \"contracts/RomanNumbertic.sol\":1054:1055  1 */\n      0x01\n        /* \"contracts/RomanNumbertic.sol\":1041:1047  values */\n      dup3\n        /* \"contracts/RomanNumbertic.sol\":1048:1050  12 */\n      0x0c\n        /* \"contracts/RomanNumbertic.sol\":1041:1051  values[12] */\n      dup2\n      mload\n      dup2\n      lt\n      tag_77\n      jumpi\n      tag_78\n      tag_30\n      jump\t// in\n    tag_78:\n    tag_77:\n      0x20\n      mul\n      0x20\n      add\n      add\n        /* \"contracts/RomanNumbertic.sol\":1041:1055  values[12] = 1 */\n      dup2\n      dup2\n      mstore\n      pop\n      pop\n        /* \"contracts/RomanNumbertic.sol\":1065:1082  symbols[12] = \"I\" */\n      mload(0x40)\n      dup1\n      0x40\n      add\n      0x40\n      mstore\n      dup1\n      0x01\n      dup2\n      mstore\n      0x20\n      add\n      0x4900000000000000000000000000000000000000000000000000000000000000\n      dup2\n      mstore\n      pop\n        /* \"contracts/RomanNumbertic.sol\":1065:1072  symbols */\n      dup2\n        /* \"contracts/RomanNumbertic.sol\":1073:1075  12 */\n      0x0c\n        /* \"contracts/RomanNumbertic.sol\":1065:1076  symbols[12] */\n      dup2\n      mload\n      dup2\n      lt\n      tag_79\n      jumpi\n      tag_80\n      tag_30\n      jump\t// in\n    tag_80:\n    tag_79:\n      0x20\n      mul\n      0x20\n      add\n      add\n        /* \"contracts/RomanNumbertic.sol\":1065:1082  symbols[12] = \"I\" */\n      dup2\n      swap1\n      mstore\n      pop\n        /* \"contracts/RomanNumbertic.sol\":1093:1112  bytes memory result */\n      0x60\n        /* \"contracts/RomanNumbertic.sol\":1128:1137  uint256 i */\n      0x00\n        /* \"contracts/RomanNumbertic.sol\":1140:1141  0 */\n      0x00\n        /* \"contracts/RomanNumbertic.sol\":1128:1141  uint256 i = 0 */\n      swap1\n      pop\n        /* \"contracts/RomanNumbertic.sol\":1123:1317  for (uint256 i = 0; i < 13; i++) {... */\n    tag_81:\n        /* \"contracts/RomanNumbertic.sol\":1147:1149  13 */\n      0x0d\n        /* \"contracts/RomanNumbertic.sol\":1143:1144  i */\n      dup2\n        /* \"contracts/RomanNumbertic.sol\":1143:1149  i < 13 */\n      lt\n        /* \"contracts/RomanNumbertic.sol\":1123:1317  for (uint256 i = 0; i < 13; i++) {... */\n      iszero\n      tag_82\n      jumpi\n        /* \"contracts/RomanNumbertic.sol\":1170:1307  while (num >= values[i]) {... */\n    tag_84:\n        /* \"contracts/RomanNumbertic.sol\":1184:1190  values */\n      dup4\n        /* \"contracts/RomanNumbertic.sol\":1191:1192  i */\n      dup2\n        /* \"contracts/RomanNumbertic.sol\":1184:1193  values[i] */\n      dup2\n      mload\n      dup2\n      lt\n      tag_86\n      jumpi\n      tag_87\n      tag_30\n      jump\t// in\n    tag_87:\n    tag_86:\n      0x20\n      mul\n      0x20\n      add\n      add\n      mload\n        /* \"contracts/RomanNumbertic.sol\":1177:1180  num */\n      dup7\n        /* \"contracts/RomanNumbertic.sol\":1177:1193  num >= values[i] */\n      lt\n        /* \"contracts/RomanNumbertic.sol\":1170:1307  while (num >= values[i]) {... */\n      tag_85\n      jumpi\n        /* \"contracts/RomanNumbertic.sol\":1220:1226  values */\n      dup4\n        /* \"contracts/RomanNumbertic.sol\":1227:1228  i */\n      dup2\n        /* \"contracts/RomanNumbertic.sol\":1220:1229  values[i] */\n      dup2\n      mload\n      dup2\n      lt\n      tag_88\n      jumpi\n      tag_89\n      tag_30\n      jump\t// in\n    tag_89:\n    tag_88:\n      0x20\n      mul\n      0x20\n      add\n      add\n      mload\n        /* \"contracts/RomanNumbertic.sol\":1213:1229  num -= values[i] */\n      dup7\n      tag_90\n      swap2\n      swap1\n      tag_91\n      jump\t// in\n    tag_90:\n      swap6\n      pop\n        /* \"contracts/RomanNumbertic.sol\":1273:1279  result */\n      dup2\n        /* \"contracts/RomanNumbertic.sol\":1281:1288  symbols */\n      dup4\n        /* \"contracts/RomanNumbertic.sol\":1289:1290  i */\n      dup3\n        /* \"contracts/RomanNumbertic.sol\":1281:1291  symbols[i] */\n      dup2\n      mload\n      dup2\n      lt\n      tag_92\n      jumpi\n      tag_93\n      tag_30\n      jump\t// in\n    tag_93:\n    tag_92:\n      0x20\n      mul\n      0x20\n      add\n      add\n      mload\n        /* \"contracts/RomanNumbertic.sol\":1256:1292  abi.encodePacked(result, symbols[i]) */\n      add(0x20, mload(0x40))\n      tag_94\n      swap3\n      swap2\n      swap1\n      tag_95\n      jump\t// in\n    tag_94:\n      mload(0x40)\n      0x20\n      dup2\n      dup4\n      sub\n      sub\n      dup2\n      mstore\n      swap1\n      0x40\n      mstore\n        /* \"contracts/RomanNumbertic.sol\":1247:1292  result = abi.encodePacked(result, symbols[i]) */\n      swap2\n      pop\n        /* \"contracts/RomanNumbertic.sol\":1170:1307  while (num >= values[i]) {... */\n      jump(tag_84)\n    tag_85:\n        /* \"contracts/RomanNumbertic.sol\":1151:1154  i++ */\n      dup1\n      dup1\n      0x01\n      add\n      swap2\n      pop\n      pop\n        /* \"contracts/RomanNumbertic.sol\":1123:1317  for (uint256 i = 0; i < 13; i++) {... */\n      jump(tag_81)\n    tag_82:\n      pop\n        /* \"contracts/RomanNumbertic.sol\":1341:1347  result */\n      dup1\n        /* \"contracts/RomanNumbertic.sol\":1327:1348  return string(result) */\n      swap4\n      pop\n      pop\n      pop\n      pop\n        /* \"contracts/RomanNumbertic.sol\":125:1355  function intToRoman(uint256 num) public pure returns (string memory) {... */\n      swap2\n      swap1\n      pop\n      jump\t// out\n        /* \"contracts/RomanNumbertic.sol\":1437:2466  function intToRomanV2(uint256 num) public pure returns (string memory) {... */\n    tag_13:\n        /* \"contracts/RomanNumbertic.sol\":1493:1506  string memory */\n      0x60\n        /* \"contracts/RomanNumbertic.sol\":1533:1534  1 */\n      0x01\n        /* \"contracts/RomanNumbertic.sol\":1526:1529  num */\n      dup3\n        /* \"contracts/RomanNumbertic.sol\":1526:1534  num >= 1 */\n      lt\n      iszero\n        /* \"contracts/RomanNumbertic.sol\":1526:1549  num >= 1 && num <= 3999 */\n      dup1\n      iszero\n      tag_97\n      jumpi\n      pop\n        /* \"contracts/RomanNumbertic.sol\":1545:1549  3999 */\n      0x0f9f\n        /* \"contracts/RomanNumbertic.sol\":1538:1541  num */\n      dup3\n        /* \"contracts/RomanNumbertic.sol\":1538:1549  num <= 3999 */\n      gt\n      iszero\n        /* \"contracts/RomanNumbertic.sol\":1526:1549  num >= 1 && num <= 3999 */\n    tag_97:\n        /* \"contracts/RomanNumbertic.sol\":1518:1587  require(num >= 1 && num <= 3999, \"Number must be between 1 and 3999\") */\n      tag_98\n      jumpi\n      mload(0x40)\n      0x08c379a000000000000000000000000000000000000000000000000000000000\n      dup2\n      mstore\n      0x04\n      add\n      tag_99\n      swap1\n      tag_100\n      jump\t// in\n    tag_99:\n      mload(0x40)\n      dup1\n      swap2\n      sub\n      swap1\n      revert\n    tag_98:\n        /* \"contracts/RomanNumbertic.sol\":1598:1622  RomanPair[] memory roman */\n      0x00\n        /* \"contracts/RomanNumbertic.sol\":1641:1643  13 */\n      0x0d\n        /* \"contracts/RomanNumbertic.sol\":1625:1644  new RomanPair[](13) */\n      0xffffffffffffffff\n      dup2\n      gt\n      iszero\n      tag_101\n      jumpi\n      tag_102\n      tag_22\n      jump\t// in\n    tag_102:\n    tag_101:\n      mload(0x40)\n      swap1\n      dup1\n      dup3\n      mstore\n      dup1\n      0x20\n      mul\n      0x20\n      add\n      dup3\n      add\n      0x40\n      mstore\n      dup1\n      iszero\n      tag_103\n      jumpi\n      dup2\n      0x20\n      add\n    tag_104:\n      tag_105\n      tag_106\n      jump\t// in\n    tag_105:\n      dup2\n      mstore\n      0x20\n      add\n      swap1\n      0x01\n      swap1\n      sub\n      swap1\n      dup2\n      tag_104\n      jumpi\n      swap1\n      pop\n    tag_103:\n      pop\n        /* \"contracts/RomanNumbertic.sol\":1598:1644  RomanPair[] memory roman = new RomanPair[](13) */\n      swap1\n      pop\n        /* \"contracts/RomanNumbertic.sol\":1666:1686  RomanPair(1000, \"M\") */\n      mload(0x40)\n      dup1\n      0x40\n      add\n      0x40\n      mstore\n      dup1\n        /* \"contracts/RomanNumbertic.sol\":1676:1680  1000 */\n      0x03e8\n        /* \"contracts/RomanNumbertic.sol\":1666:1686  RomanPair(1000, \"M\") */\n      dup2\n      mstore\n      0x20\n      add\n      mload(0x40)\n      dup1\n      0x40\n      add\n      0x40\n      mstore\n      dup1\n      0x01\n      dup2\n      mstore\n      0x20\n      add\n      0x4d00000000000000000000000000000000000000000000000000000000000000\n      dup2\n      mstore\n      pop\n      dup2\n      mstore\n      pop\n        /* \"contracts/RomanNumbertic.sol\":1655:1660  roman */\n      dup2\n        /* \"contracts/RomanNumbertic.sol\":1661:1662  0 */\n      0x00\n        /* \"contracts/RomanNumbertic.sol\":1655:1663  roman[0] */\n      dup2\n      mload\n      dup2\n      lt\n      tag_107\n      jumpi\n      tag_108\n      tag_30\n      jump\t// in\n    tag_108:\n    tag_107:\n      0x20\n      mul\n      0x20\n      add\n      add\n        /* \"contracts/RomanNumbertic.sol\":1655:1686  roman[0] = RomanPair(1000, \"M\") */\n      dup2\n      swap1\n      mstore\n      pop\n        /* \"contracts/RomanNumbertic.sol\":1707:1727  RomanPair(900, \"CM\") */\n      mload(0x40)\n      dup1\n      0x40\n      add\n      0x40\n      mstore\n      dup1\n        /* \"contracts/RomanNumbertic.sol\":1717:1720  900 */\n      0x0384\n        /* \"contracts/RomanNumbertic.sol\":1707:1727  RomanPair(900, \"CM\") */\n      dup2\n      mstore\n      0x20\n      add\n      mload(0x40)\n      dup1\n      0x40\n      add\n      0x40\n      mstore\n      dup1\n      0x02\n      dup2\n      mstore\n      0x20\n      add\n      0x434d000000000000000000000000000000000000000000000000000000000000\n      dup2\n      mstore\n      pop\n      dup2\n      mstore\n      pop\n        /* \"contracts/RomanNumbertic.sol\":1696:1701  roman */\n      dup2\n        /* \"contracts/RomanNumbertic.sol\":1702:1703  1 */\n      0x01\n        /* \"contracts/RomanNumbertic.sol\":1696:1704  roman[1] */\n      dup2\n      mload\n      dup2\n      lt\n      tag_109\n      jumpi\n      tag_110\n      tag_30\n      jump\t// in\n    tag_110:\n    tag_109:\n      0x20\n      mul\n      0x20\n      add\n      add\n        /* \"contracts/RomanNumbertic.sol\":1696:1727  roman[1] = RomanPair(900, \"CM\") */\n      dup2\n      swap1\n      mstore\n      pop\n        /* \"contracts/RomanNumbertic.sol\":1748:1767  RomanPair(500, \"D\") */\n      mload(0x40)\n      dup1\n      0x40\n      add\n      0x40\n      mstore\n      dup1\n        /* \"contracts/RomanNumbertic.sol\":1758:1761  500 */\n      0x01f4\n        /* \"contracts/RomanNumbertic.sol\":1748:1767  RomanPair(500, \"D\") */\n      dup2\n      mstore\n      0x20\n      add\n      mload(0x40)\n      dup1\n      0x40\n      add\n      0x40\n      mstore\n      dup1\n      0x01\n      dup2\n      mstore\n      0x20\n      add\n      0x4400000000000000000000000000000000000000000000000000000000000000\n      dup2\n      mstore\n      pop\n      dup2\n      mstore\n      pop\n        /* \"contracts/RomanNumbertic.sol\":1737:1742  roman */\n      dup2\n        /* \"contracts/RomanNumbertic.sol\":1743:1744  2 */\n      0x02\n        /* \"contracts/RomanNumbertic.sol\":1737:1745  roman[2] */\n      dup2\n      mload\n      dup2\n      lt\n      tag_111\n      jumpi\n      tag_112\n      tag_30\n      jump\t// in\n    tag_112:\n    tag_111:\n      0x20\n      mul\n      0x20\n      add\n      add\n        /* \"contracts/RomanNumbertic.sol\":1737:1767  roman[2] = RomanPair(500, \"D\") */\n      dup2\n      swap1\n      mstore\n      pop\n        /* \"contracts/RomanNumbertic.sol\":1788:1808  RomanPair(400, \"CD\") */\n      mload(0x40)\n      dup1\n      0x40\n      add\n      0x40\n      mstore\n      dup1\n        /* \"contracts/RomanNumbertic.sol\":1798:1801  400 */\n      0x0190\n        /* \"contracts/RomanNumbertic.sol\":1788:1808  RomanPair(400, \"CD\") */\n      dup2\n      mstore\n      0x20\n      add\n      mload(0x40)\n      dup1\n      0x40\n      add\n      0x40\n      mstore\n      dup1\n      0x02\n      dup2\n      mstore\n      0x20\n      add\n      0x4344000000000000000000000000000000000000000000000000000000000000\n      dup2\n      mstore\n      pop\n      dup2\n      mstore\n      pop\n        /* \"contracts/RomanNumbertic.sol\":1777:1782  roman */\n      dup2\n        /* \"contracts/RomanNumbertic.sol\":1783:1784  3 */\n      0x03\n        /* \"contracts/RomanNumbertic.sol\":1777:1785  roman[3] */\n      dup2\n      mload\n      dup2\n      lt\n      tag_113\n      jumpi\n      tag_114\n      tag_30\n      jump\t// in\n    tag_114:\n    tag_113:\n      0x20\n      mul\n      0x20\n      add\n      add\n        /* \"contracts/RomanNumbertic.sol\":1777:1808  roman[3] = RomanPair(400, \"CD\") */\n      dup2\n      swap1\n      mstore\n      pop\n        /* \"contracts/RomanNumbertic.sol\":1829:1848  RomanPair(100, \"C\") */\n      mload(0x40)\n      dup1\n      0x40\n      add\n      0x40\n      mstore\n      dup1\n        /* \"contracts/RomanNumbertic.sol\":1839:1842  100 */\n      0x64\n        /* \"contracts/RomanNumbertic.sol\":1829:1848  RomanPair(100, \"C\") */\n      dup2\n      mstore\n      0x20\n      add\n      mload(0x40)\n      dup1\n      0x40\n      add\n      0x40\n      mstore\n      dup1\n      0x01\n      dup2\n      mstore\n      0x20\n      add\n      0x4300000000000000000000000000000000000000000000000000000000000000\n      dup2\n      mstore\n      pop\n      dup2\n      mstore\n      pop\n        /* \"contracts/RomanNumbertic.sol\":1818:1823  roman */\n      dup2\n        /* \"contracts/RomanNumbertic.sol\":1824:1825  4 */\n      0x04\n        /* \"contracts/RomanNumbertic.sol\":1818:1826  roman[4] */\n      dup2\n      mload\n      dup2\n      lt\n      tag_115\n      jumpi\n      tag_116\n      tag_30\n      jump\t// in\n    tag_116:\n    tag_115:\n      0x20\n      mul\n      0x20\n      add\n      add\n        /* \"contracts/RomanNumbertic.sol\":1818:1848  roman[4] = RomanPair(100, \"C\") */\n      dup2\n      swap1\n      mstore\n      pop\n        /* \"contracts/RomanNumbertic.sol\":1869:1888  RomanPair(90, \"XC\") */\n      mload(0x40)\n      dup1\n      0x40\n      add\n      0x40\n      mstore\n      dup1\n        /* \"contracts/RomanNumbertic.sol\":1879:1881  90 */\n      0x5a\n        /* \"contracts/RomanNumbertic.sol\":1869:1888  RomanPair(90, \"XC\") */\n      dup2\n      mstore\n      0x20\n      add\n      mload(0x40)\n      dup1\n      0x40\n      add\n      0x40\n      mstore\n      dup1\n      0x02\n      dup2\n      mstore\n      0x20\n      add\n      0x5843000000000000000000000000000000000000000000000000000000000000\n      dup2\n      mstore\n      pop\n      dup2\n      mstore\n      pop\n        /* \"contracts/RomanNumbertic.sol\":1858:1863  roman */\n      dup2\n        /* \"contracts/RomanNumbertic.sol\":1864:1865  5 */\n      0x05\n        /* \"contracts/RomanNumbertic.sol\":1858:1866  roman[5] */\n      dup2\n      mload\n      dup2\n      lt\n      tag_117\n      jumpi\n      tag_118\n      tag_30\n      jump\t// in\n    tag_118:\n    tag_117:\n      0x20\n      mul\n      0x20\n      add\n      add\n        /* \"contracts/RomanNumbertic.sol\":1858:1888  roman[5] = RomanPair(90, \"XC\") */\n      dup2\n      swap1\n      mstore\n      pop\n        /* \"contracts/RomanNumbertic.sol\":1909:1927  RomanPair(50, \"L\") */\n      mload(0x40)\n      dup1\n      0x40\n      add\n      0x40\n      mstore\n      dup1\n        /* \"contracts/RomanNumbertic.sol\":1919:1921  50 */\n      0x32\n        /* \"contracts/RomanNumbertic.sol\":1909:1927  RomanPair(50, \"L\") */\n      dup2\n      mstore\n      0x20\n      add\n      mload(0x40)\n      dup1\n      0x40\n      add\n      0x40\n      mstore\n      dup1\n      0x01\n      dup2\n      mstore\n      0x20\n      add\n      0x4c00000000000000000000000000000000000000000000000000000000000000\n      dup2\n      mstore\n      pop\n      dup2\n      mstore\n      pop\n        /* \"contracts/RomanNumbertic.sol\":1898:1903  roman */\n      dup2\n        /* \"contracts/RomanNumbertic.sol\":1904:1905  6 */\n      0x06\n        /* \"contracts/RomanNumbertic.sol\":1898:1906  roman[6] */\n      dup2\n      mload\n      dup2\n      lt\n      tag_119\n      jumpi\n      tag_120\n      tag_30\n      jump\t// in\n    tag_120:\n    tag_119:\n      0x20\n      mul\n      0x20\n      add\n      add\n        /* \"contracts/RomanNumbertic.sol\":1898:1927  roman[6] = RomanPair(50, \"L\") */\n      dup2\n      swap1\n      mstore\n      pop\n        /* \"contracts/RomanNumbertic.sol\":1948:1967  RomanPair(40, \"XL\") */\n      mload(0x40)\n      dup1\n      0x40\n      add\n      0x40\n      mstore\n      dup1\n        /* \"contracts/RomanNumbertic.sol\":1958:1960  40 */\n      0x28\n        /* \"contracts/RomanNumbertic.sol\":1948:1967  RomanPair(40, \"XL\") */\n      dup2\n      mstore\n      0x20\n      add\n      mload(0x40)\n      dup1\n      0x40\n      add\n      0x40\n      mstore\n      dup1\n      0x02\n      dup2\n      mstore\n      0x20\n      add\n      0x584c000000000000000000000000000000000000000000000000000000000000\n      dup2\n      mstore\n      pop\n      dup2\n      mstore\n      pop\n        /* \"contracts/RomanNumbertic.sol\":1937:1942  roman */\n      dup2\n        /* \"contracts/RomanNumbertic.sol\":1943:1944  7 */\n      0x07\n        /* \"contracts/RomanNumbertic.sol\":1937:1945  roman[7] */\n      dup2\n      mload\n      dup2\n      lt\n      tag_121\n      jumpi\n      tag_122\n      tag_30\n      jump\t// in\n    tag_122:\n    tag_121:\n      0x20\n      mul\n      0x20\n      add\n      add\n        /* \"contracts/RomanNumbertic.sol\":1937:1967  roman[7] = RomanPair(40, \"XL\") */\n      dup2\n      swap1\n      mstore\n      pop\n        /* \"contracts/RomanNumbertic.sol\":1988:2006  RomanPair(10, \"X\") */\n      mload(0x40)\n      dup1\n      0x40\n      add\n      0x40\n      mstore\n      dup1\n        /* \"contracts/RomanNumbertic.sol\":1998:2000  10 */\n      0x0a\n        /* \"contracts/RomanNumbertic.sol\":1988:2006  RomanPair(10, \"X\") */\n      dup2\n      mstore\n      0x20\n      add\n      mload(0x40)\n      dup1\n      0x40\n      add\n      0x40\n      mstore\n      dup1\n      0x01\n      dup2\n      mstore\n      0x20\n      add\n      0x5800000000000000000000000000000000000000000000000000000000000000\n      dup2\n      mstore\n      pop\n      dup2\n      mstore\n      pop\n        /* \"contracts/RomanNumbertic.sol\":1977:1982  roman */\n      dup2\n        /* \"contracts/RomanNumbertic.sol\":1983:1984  8 */\n      0x08\n        /* \"contracts/RomanNumbertic.sol\":1977:1985  roman[8] */\n      dup2\n      mload\n      dup2\n      lt\n      tag_123\n      jumpi\n      tag_124\n      tag_30\n      jump\t// in\n    tag_124:\n    tag_123:\n      0x20\n      mul\n      0x20\n      add\n      add\n        /* \"contracts/RomanNumbertic.sol\":1977:2006  roman[8] = RomanPair(10, \"X\") */\n      dup2\n      swap1\n      mstore\n      pop\n        /* \"contracts/RomanNumbertic.sol\":2027:2045  RomanPair(9, \"IX\") */\n      mload(0x40)\n      dup1\n      0x40\n      add\n      0x40\n      mstore\n      dup1\n        /* \"contracts/RomanNumbertic.sol\":2037:2038  9 */\n      0x09\n        /* \"contracts/RomanNumbertic.sol\":2027:2045  RomanPair(9, \"IX\") */\n      dup2\n      mstore\n      0x20\n      add\n      mload(0x40)\n      dup1\n      0x40\n      add\n      0x40\n      mstore\n      dup1\n      0x02\n      dup2\n      mstore\n      0x20\n      add\n      0x4958000000000000000000000000000000000000000000000000000000000000\n      dup2\n      mstore\n      pop\n      dup2\n      mstore\n      pop\n        /* \"contracts/RomanNumbertic.sol\":2016:2021  roman */\n      dup2\n        /* \"contracts/RomanNumbertic.sol\":2022:2023  9 */\n      0x09\n        /* \"contracts/RomanNumbertic.sol\":2016:2024  roman[9] */\n      dup2\n      mload\n      dup2\n      lt\n      tag_125\n      jumpi\n      tag_126\n      tag_30\n      jump\t// in\n    tag_126:\n    tag_125:\n      0x20\n      mul\n      0x20\n      add\n      add\n        /* \"contracts/RomanNumbertic.sol\":2016:2045  roman[9] = RomanPair(9, \"IX\") */\n      dup2\n      swap1\n      mstore\n      pop\n        /* \"contracts/RomanNumbertic.sol\":2067:2084  RomanPair(5, \"V\") */\n      mload(0x40)\n      dup1\n      0x40\n      add\n      0x40\n      mstore\n      dup1\n        /* \"contracts/RomanNumbertic.sol\":2077:2078  5 */\n      0x05\n        /* \"contracts/RomanNumbertic.sol\":2067:2084  RomanPair(5, \"V\") */\n      dup2\n      mstore\n      0x20\n      add\n      mload(0x40)\n      dup1\n      0x40\n      add\n      0x40\n      mstore\n      dup1\n      0x01\n      dup2\n      mstore\n      0x20\n      add\n      0x5600000000000000000000000000000000000000000000000000000000000000\n      dup2\n      mstore\n      pop\n      dup2\n      mstore\n      pop\n        /* \"contracts/RomanNumbertic.sol\":2055:2060  roman */\n      dup2\n        /* \"contracts/RomanNumbertic.sol\":2061:2063  10 */\n      0x0a\n        /* \"contracts/RomanNumbertic.sol\":2055:2064  roman[10] */\n      dup2\n      mload\n      dup2\n      lt\n      tag_127\n      jumpi\n      tag_128\n      tag_30\n      jump\t// in\n    tag_128:\n    tag_127:\n      0x20\n      mul\n      0x20\n      add\n      add\n        /* \"contracts/RomanNumbertic.sol\":2055:2084  roman[10] = RomanPair(5, \"V\") */\n      dup2\n      swap1\n      mstore\n      pop\n        /* \"contracts/RomanNumbertic.sol\":2106:2124  RomanPair(4, \"IV\") */\n      mload(0x40)\n      dup1\n      0x40\n      add\n      0x40\n      mstore\n      dup1\n        /* \"contracts/RomanNumbertic.sol\":2116:2117  4 */\n      0x04\n        /* \"contracts/RomanNumbertic.sol\":2106:2124  RomanPair(4, \"IV\") */\n      dup2\n      mstore\n      0x20\n      add\n      mload(0x40)\n      dup1\n      0x40\n      add\n      0x40\n      mstore\n      dup1\n      0x02\n      dup2\n      mstore\n      0x20\n      add\n      0x4956000000000000000000000000000000000000000000000000000000000000\n      dup2\n      mstore\n      pop\n      dup2\n      mstore\n      pop\n        /* \"contracts/RomanNumbertic.sol\":2094:2099  roman */\n      dup2\n        /* \"contracts/RomanNumbertic.sol\":2100:2102  11 */\n      0x0b\n        /* \"contracts/RomanNumbertic.sol\":2094:2103  roman[11] */\n      dup2\n      mload\n      dup2\n      lt\n      tag_129\n      jumpi\n      tag_130\n      tag_30\n      jump\t// in\n    tag_130:\n    tag_129:\n      0x20\n      mul\n      0x20\n      add\n      add\n        /* \"contracts/RomanNumbertic.sol\":2094:2124  roman[11] = RomanPair(4, \"IV\") */\n      dup2\n      swap1\n      mstore\n      pop\n        /* \"contracts/RomanNumbertic.sol\":2146:2163  RomanPair(1, \"I\") */\n      mload(0x40)\n      dup1\n      0x40\n      add\n      0x40\n      mstore\n      dup1\n        /* \"contracts/RomanNumbertic.sol\":2156:2157  1 */\n      0x01\n        /* \"contracts/RomanNumbertic.sol\":2146:2163  RomanPair(1, \"I\") */\n      dup2\n      mstore\n      0x20\n      add\n      mload(0x40)\n      dup1\n      0x40\n      add\n      0x40\n      mstore\n      dup1\n      0x01\n      dup2\n      mstore\n      0x20\n      add\n      0x4900000000000000000000000000000000000000000000000000000000000000\n      dup2\n      mstore\n      pop\n      dup2\n      mstore\n      pop\n        /* \"contracts/RomanNumbertic.sol\":2134:2139  roman */\n      dup2\n        /* \"contracts/RomanNumbertic.sol\":2140:2142  12 */\n      0x0c\n        /* \"contracts/RomanNumbertic.sol\":2134:2143  roman[12] */\n      dup2\n      mload\n      dup2\n      lt\n      tag_131\n      jumpi\n      tag_132\n      tag_30\n      jump\t// in\n    tag_132:\n    tag_131:\n      0x20\n      mul\n      0x20\n      add\n      add\n        /* \"contracts/RomanNumbertic.sol\":2134:2163  roman[12] = RomanPair(1, \"I\") */\n      dup2\n      swap1\n      mstore\n      pop\n        /* \"contracts/RomanNumbertic.sol\":2174:2194  string memory result */\n      0x00\n        /* \"contracts/RomanNumbertic.sol\":2174:2199  string memory result = \"\" */\n      mload(0x40)\n      dup1\n      0x20\n      add\n      0x40\n      mstore\n      dup1\n      0x00\n      dup2\n      mstore\n      pop\n      swap1\n      pop\n        /* \"contracts/RomanNumbertic.sol\":2215:2224  uint256 i */\n      0x00\n        /* \"contracts/RomanNumbertic.sol\":2227:2228  0 */\n      0x00\n        /* \"contracts/RomanNumbertic.sol\":2215:2228  uint256 i = 0 */\n      swap1\n      pop\n        /* \"contracts/RomanNumbertic.sol\":2210:2437  for (uint256 i = 0; i < roman.length; i++) {... */\n    tag_133:\n        /* \"contracts/RomanNumbertic.sol\":2234:2239  roman */\n      dup3\n        /* \"contracts/RomanNumbertic.sol\":2234:2246  roman.length */\n      mload\n        /* \"contracts/RomanNumbertic.sol\":2230:2231  i */\n      dup2\n        /* \"contracts/RomanNumbertic.sol\":2230:2246  i < roman.length */\n      lt\n        /* \"contracts/RomanNumbertic.sol\":2210:2437  for (uint256 i = 0; i < roman.length; i++) {... */\n      iszero\n      tag_134\n      jumpi\n        /* \"contracts/RomanNumbertic.sol\":2267:2427  while (num >= roman[i].value) {... */\n    tag_136:\n        /* \"contracts/RomanNumbertic.sol\":2281:2286  roman */\n      dup3\n        /* \"contracts/RomanNumbertic.sol\":2287:2288  i */\n      dup2\n        /* \"contracts/RomanNumbertic.sol\":2281:2289  roman[i] */\n      dup2\n      mload\n      dup2\n      lt\n      tag_138\n      jumpi\n      tag_139\n      tag_30\n      jump\t// in\n    tag_139:\n    tag_138:\n      0x20\n      mul\n      0x20\n      add\n      add\n      mload\n        /* \"contracts/RomanNumbertic.sol\":2281:2295  roman[i].value */\n      0x00\n      add\n      mload\n        /* \"contracts/RomanNumbertic.sol\":2274:2277  num */\n      dup6\n        /* \"contracts/RomanNumbertic.sol\":2274:2295  num >= roman[i].value */\n      lt\n        /* \"contracts/RomanNumbertic.sol\":2267:2427  while (num >= roman[i].value) {... */\n      tag_137\n      jumpi\n        /* \"contracts/RomanNumbertic.sol\":2348:2354  result */\n      dup2\n        /* \"contracts/RomanNumbertic.sol\":2356:2361  roman */\n      dup4\n        /* \"contracts/RomanNumbertic.sol\":2362:2363  i */\n      dup3\n        /* \"contracts/RomanNumbertic.sol\":2356:2364  roman[i] */\n      dup2\n      mload\n      dup2\n      lt\n      tag_140\n      jumpi\n      tag_141\n      tag_30\n      jump\t// in\n    tag_141:\n    tag_140:\n      0x20\n      mul\n      0x20\n      add\n      add\n      mload\n        /* \"contracts/RomanNumbertic.sol\":2356:2371  roman[i].symbol */\n      0x20\n      add\n      mload\n        /* \"contracts/RomanNumbertic.sol\":2331:2372  abi.encodePacked(result, roman[i].symbol) */\n      add(0x20, mload(0x40))\n      tag_142\n      swap3\n      swap2\n      swap1\n      tag_143\n      jump\t// in\n    tag_142:\n      mload(0x40)\n      0x20\n      dup2\n      dup4\n      sub\n      sub\n      dup2\n      mstore\n      swap1\n      0x40\n      mstore\n        /* \"contracts/RomanNumbertic.sol\":2315:2373  result = string(abi.encodePacked(result, roman[i].symbol)) */\n      swap2\n      pop\n        /* \"contracts/RomanNumbertic.sol\":2398:2403  roman */\n      dup3\n        /* \"contracts/RomanNumbertic.sol\":2404:2405  i */\n      dup2\n        /* \"contracts/RomanNumbertic.sol\":2398:2406  roman[i] */\n      dup2\n      mload\n      dup2\n      lt\n      tag_144\n      jumpi\n      tag_145\n      tag_30\n      jump\t// in\n    tag_145:\n    tag_144:\n      0x20\n      mul\n      0x20\n      add\n      add\n      mload\n        /* \"contracts/RomanNumbertic.sol\":2398:2412  roman[i].value */\n      0x00\n      add\n      mload\n        /* \"contracts/RomanNumbertic.sol\":2391:2412  num -= roman[i].value */\n      dup6\n      tag_146\n      swap2\n      swap1\n      tag_91\n      jump\t// in\n    tag_146:\n      swap5\n      pop\n        /* \"contracts/RomanNumbertic.sol\":2267:2427  while (num >= roman[i].value) {... */\n      jump(tag_136)\n    tag_137:\n        /* \"contracts/RomanNumbertic.sol\":2248:2251  i++ */\n      dup1\n      dup1\n      0x01\n      add\n      swap2\n      pop\n      pop\n        /* \"contracts/RomanNumbertic.sol\":2210:2437  for (uint256 i = 0; i < roman.length; i++) {... */\n      jump(tag_133)\n    tag_134:\n      pop\n        /* \"contracts/RomanNumbertic.sol\":2453:2459  result */\n      dup1\n        /* \"contracts/RomanNumbertic.sol\":2446:2459  return result */\n      swap3\n      pop\n      pop\n      pop\n        /* \"contracts/RomanNumbertic.sol\":1437:2466  function intToRomanV2(uint256 num) public pure returns (string memory) {... */\n      swap2\n      swap1\n      pop\n      jump\t// out\n    tag_106:\n      mload(0x40)\n      dup1\n      0x40\n      add\n      0x40\n      mstore\n      dup1\n      0x00\n      dup2\n      mstore\n      0x20\n      add\n      0x60\n      dup2\n      mstore\n      pop\n      swap1\n      jump\t// out\n        /* \"#utility.yul\":88:205   */\n    tag_148:\n        /* \"#utility.yul\":197:198   */\n      0x00\n        /* \"#utility.yul\":194:195   */\n      0x00\n        /* \"#utility.yul\":187:199   */\n      revert\n        /* \"#utility.yul\":334:411   */\n    tag_150:\n        /* \"#utility.yul\":371:378   */\n      0x00\n        /* \"#utility.yul\":400:405   */\n      dup2\n        /* \"#utility.yul\":389:405   */\n      swap1\n      pop\n        /* \"#utility.yul\":334:411   */\n      swap2\n      swap1\n      pop\n      jump\t// out\n        /* \"#utility.yul\":417:539   */\n    tag_151:\n        /* \"#utility.yul\":490:514   */\n      tag_174\n        /* \"#utility.yul\":508:513   */\n      dup2\n        /* \"#utility.yul\":490:514   */\n      tag_150\n      jump\t// in\n    tag_174:\n        /* \"#utility.yul\":483:488   */\n      dup2\n        /* \"#utility.yul\":480:515   */\n      eq\n        /* \"#utility.yul\":470:533   */\n      tag_175\n      jumpi\n        /* \"#utility.yul\":529:530   */\n      0x00\n        /* \"#utility.yul\":526:527   */\n      0x00\n        /* \"#utility.yul\":519:531   */\n      revert\n        /* \"#utility.yul\":470:533   */\n    tag_175:\n        /* \"#utility.yul\":417:539   */\n      pop\n      jump\t// out\n        /* \"#utility.yul\":545:684   */\n    tag_152:\n        /* \"#utility.yul\":591:596   */\n      0x00\n        /* \"#utility.yul\":629:635   */\n      dup2\n        /* \"#utility.yul\":616:636   */\n      calldataload\n        /* \"#utility.yul\":607:636   */\n      swap1\n      pop\n        /* \"#utility.yul\":645:678   */\n      tag_177\n        /* \"#utility.yul\":672:677   */\n      dup2\n        /* \"#utility.yul\":645:678   */\n      tag_151\n      jump\t// in\n    tag_177:\n        /* \"#utility.yul\":545:684   */\n      swap3\n      swap2\n      pop\n      pop\n      jump\t// out\n        /* \"#utility.yul\":690:1019   */\n    tag_7:\n        /* \"#utility.yul\":749:755   */\n      0x00\n        /* \"#utility.yul\":798:800   */\n      0x20\n        /* \"#utility.yul\":786:795   */\n      dup3\n        /* \"#utility.yul\":777:784   */\n      dup5\n        /* \"#utility.yul\":773:796   */\n      sub\n        /* \"#utility.yul\":769:801   */\n      slt\n        /* \"#utility.yul\":766:885   */\n      iszero\n      tag_179\n      jumpi\n        /* \"#utility.yul\":804:883   */\n      tag_180\n      tag_148\n      jump\t// in\n    tag_180:\n        /* \"#utility.yul\":766:885   */\n    tag_179:\n        /* \"#utility.yul\":924:925   */\n      0x00\n        /* \"#utility.yul\":949:1002   */\n      tag_181\n        /* \"#utility.yul\":994:1001   */\n      dup5\n        /* \"#utility.yul\":985:991   */\n      dup3\n        /* \"#utility.yul\":974:983   */\n      dup6\n        /* \"#utility.yul\":970:992   */\n      add\n        /* \"#utility.yul\":949:1002   */\n      tag_152\n      jump\t// in\n    tag_181:\n        /* \"#utility.yul\":939:1002   */\n      swap2\n      pop\n        /* \"#utility.yul\":895:1012   */\n      pop\n        /* \"#utility.yul\":690:1019   */\n      swap3\n      swap2\n      pop\n      pop\n      jump\t// out\n        /* \"#utility.yul\":1025:1124   */\n    tag_153:\n        /* \"#utility.yul\":1077:1083   */\n      0x00\n        /* \"#utility.yul\":1111:1116   */\n      dup2\n        /* \"#utility.yul\":1105:1117   */\n      mload\n        /* \"#utility.yul\":1095:1117   */\n      swap1\n      pop\n        /* \"#utility.yul\":1025:1124   */\n      swap2\n      swap1\n      pop\n      jump\t// out\n        /* \"#utility.yul\":1130:1299   */\n    tag_154:\n        /* \"#utility.yul\":1214:1225   */\n      0x00\n        /* \"#utility.yul\":1248:1254   */\n      dup3\n        /* \"#utility.yul\":1243:1246   */\n      dup3\n        /* \"#utility.yul\":1236:1255   */\n      mstore\n        /* \"#utility.yul\":1288:1292   */\n      0x20\n        /* \"#utility.yul\":1283:1286   */\n      dup3\n        /* \"#utility.yul\":1279:1293   */\n      add\n        /* \"#utility.yul\":1264:1293   */\n      swap1\n      pop\n        /* \"#utility.yul\":1130:1299   */\n      swap3\n      swap2\n      pop\n      pop\n      jump\t// out\n        /* \"#utility.yul\":1305:1444   */\n    tag_155:\n        /* \"#utility.yul\":1394:1400   */\n      dup3\n        /* \"#utility.yul\":1389:1392   */\n      dup2\n        /* \"#utility.yul\":1384:1387   */\n      dup4\n        /* \"#utility.yul\":1378:1401   */\n      mcopy\n        /* \"#utility.yul\":1435:1436   */\n      0x00\n        /* \"#utility.yul\":1426:1432   */\n      dup4\n        /* \"#utility.yul\":1421:1424   */\n      dup4\n        /* \"#utility.yul\":1417:1433   */\n      add\n        /* \"#utility.yul\":1410:1437   */\n      mstore\n        /* \"#utility.yul\":1305:1444   */\n      pop\n      pop\n      pop\n      jump\t// out\n        /* \"#utility.yul\":1450:1552   */\n    tag_156:\n        /* \"#utility.yul\":1491:1497   */\n      0x00\n        /* \"#utility.yul\":1542:1544   */\n      0x1f\n        /* \"#utility.yul\":1538:1545   */\n      not\n        /* \"#utility.yul\":1533:1535   */\n      0x1f\n        /* \"#utility.yul\":1526:1531   */\n      dup4\n        /* \"#utility.yul\":1522:1536   */\n      add\n        /* \"#utility.yul\":1518:1546   */\n      and\n        /* \"#utility.yul\":1508:1546   */\n      swap1\n      pop\n        /* \"#utility.yul\":1450:1552   */\n      swap2\n      swap1\n      pop\n      jump\t// out\n        /* \"#utility.yul\":1558:1935   */\n    tag_157:\n        /* \"#utility.yul\":1646:1649   */\n      0x00\n        /* \"#utility.yul\":1674:1713   */\n      tag_187\n        /* \"#utility.yul\":1707:1712   */\n      dup3\n        /* \"#utility.yul\":1674:1713   */\n      tag_153\n      jump\t// in\n    tag_187:\n        /* \"#utility.yul\":1729:1800   */\n      tag_188\n        /* \"#utility.yul\":1793:1799   */\n      dup2\n        /* \"#utility.yul\":1788:1791   */\n      dup6\n        /* \"#utility.yul\":1729:1800   */\n      tag_154\n      jump\t// in\n    tag_188:\n        /* \"#utility.yul\":1722:1800   */\n      swap4\n      pop\n        /* \"#utility.yul\":1809:1874   */\n      tag_189\n        /* \"#utility.yul\":1867:1873   */\n      dup2\n        /* \"#utility.yul\":1862:1865   */\n      dup6\n        /* \"#utility.yul\":1855:1859   */\n      0x20\n        /* \"#utility.yul\":1848:1853   */\n      dup7\n        /* \"#utility.yul\":1844:1860   */\n      add\n        /* \"#utility.yul\":1809:1874   */\n      tag_155\n      jump\t// in\n    tag_189:\n        /* \"#utility.yul\":1899:1928   */\n      tag_190\n        /* \"#utility.yul\":1921:1927   */\n      dup2\n        /* \"#utility.yul\":1899:1928   */\n      tag_156\n      jump\t// in\n    tag_190:\n        /* \"#utility.yul\":1894:1897   */\n      dup5\n        /* \"#utility.yul\":1890:1929   */\n      add\n        /* \"#utility.yul\":1883:1929   */\n      swap2\n      pop\n        /* \"#utility.yul\":1650:1935   */\n      pop\n        /* \"#utility.yul\":1558:1935   */\n      swap3\n      swap2\n      pop\n      pop\n      jump\t// out\n        /* \"#utility.yul\":1941:2254   */\n    tag_10:\n        /* \"#utility.yul\":2054:2058   */\n      0x00\n        /* \"#utility.yul\":2092:2094   */\n      0x20\n        /* \"#utility.yul\":2081:2090   */\n      dup3\n        /* \"#utility.yul\":2077:2095   */\n      add\n        /* \"#utility.yul\":2069:2095   */\n      swap1\n      pop\n        /* \"#utility.yul\":2141:2150   */\n      dup2\n        /* \"#utility.yul\":2135:2139   */\n      dup2\n        /* \"#utility.yul\":2131:2151   */\n      sub\n        /* \"#utility.yul\":2127:2128   */\n      0x00\n        /* \"#utility.yul\":2116:2125   */\n      dup4\n        /* \"#utility.yul\":2112:2129   */\n      add\n        /* \"#utility.yul\":2105:2152   */\n      mstore\n        /* \"#utility.yul\":2169:2247   */\n      tag_192\n        /* \"#utility.yul\":2242:2246   */\n      dup2\n        /* \"#utility.yul\":2233:2239   */\n      dup5\n        /* \"#utility.yul\":2169:2247   */\n      tag_157\n      jump\t// in\n    tag_192:\n        /* \"#utility.yul\":2161:2247   */\n      swap1\n      pop\n        /* \"#utility.yul\":1941:2254   */\n      swap3\n      swap2\n      pop\n      pop\n      jump\t// out\n        /* \"#utility.yul\":2260:2442   */\n    tag_158:\n        /* \"#utility.yul\":2400:2434   */\n      0x496e707574206d757374206265206265747765656e203120616e642033393939\n        /* \"#utility.yul\":2396:2397   */\n      0x00\n        /* \"#utility.yul\":2388:2394   */\n      dup3\n        /* \"#utility.yul\":2384:2398   */\n      add\n        /* \"#utility.yul\":2377:2435   */\n      mstore\n        /* \"#utility.yul\":2260:2442   */\n      pop\n      jump\t// out\n        /* \"#utility.yul\":2448:2814   */\n    tag_159:\n        /* \"#utility.yul\":2590:2593   */\n      0x00\n        /* \"#utility.yul\":2611:2678   */\n      tag_195\n        /* \"#utility.yul\":2675:2677   */\n      0x20\n        /* \"#utility.yul\":2670:2673   */\n      dup4\n        /* \"#utility.yul\":2611:2678   */\n      tag_154\n      jump\t// in\n    tag_195:\n        /* \"#utility.yul\":2604:2678   */\n      swap2\n      pop\n        /* \"#utility.yul\":2687:2780   */\n      tag_196\n        /* \"#utility.yul\":2776:2779   */\n      dup3\n        /* \"#utility.yul\":2687:2780   */\n      tag_158\n      jump\t// in\n    tag_196:\n        /* \"#utility.yul\":2805:2807   */\n      0x20\n        /* \"#utility.yul\":2800:2803   */\n      dup3\n        /* \"#utility.yul\":2796:2808   */\n      add\n        /* \"#utility.yul\":2789:2808   */\n      swap1\n      pop\n        /* \"#utility.yul\":2448:2814   */\n      swap2\n      swap1\n      pop\n      jump\t// out\n        /* \"#utility.yul\":2820:3239   */\n    tag_19:\n        /* \"#utility.yul\":2986:2990   */\n      0x00\n        /* \"#utility.yul\":3024:3026   */\n      0x20\n        /* \"#utility.yul\":3013:3022   */\n      dup3\n        /* \"#utility.yul\":3009:3027   */\n      add\n        /* \"#utility.yul\":3001:3027   */\n      swap1\n      pop\n        /* \"#utility.yul\":3073:3082   */\n      dup2\n        /* \"#utility.yul\":3067:3071   */\n      dup2\n        /* \"#utility.yul\":3063:3083   */\n      sub\n        /* \"#utility.yul\":3059:3060   */\n      0x00\n        /* \"#utility.yul\":3048:3057   */\n      dup4\n        /* \"#utility.yul\":3044:3061   */\n      add\n        /* \"#utility.yul\":3037:3084   */\n      mstore\n        /* \"#utility.yul\":3101:3232   */\n      tag_198\n        /* \"#utility.yul\":3227:3231   */\n      dup2\n        /* \"#utility.yul\":3101:3232   */\n      tag_159\n      jump\t// in\n    tag_198:\n        /* \"#utility.yul\":3093:3232   */\n      swap1\n      pop\n        /* \"#utility.yul\":2820:3239   */\n      swap2\n      swap1\n      pop\n      jump\t// out\n        /* \"#utility.yul\":3245:3425   */\n    tag_22:\n        /* \"#utility.yul\":3293:3370   */\n      0x4e487b7100000000000000000000000000000000000000000000000000000000\n        /* \"#utility.yul\":3290:3291   */\n      0x00\n        /* \"#utility.yul\":3283:3371   */\n      mstore\n        /* \"#utility.yul\":3390:3394   */\n      0x41\n        /* \"#utility.yul\":3387:3388   */\n      0x04\n        /* \"#utility.yul\":3380:3395   */\n      mstore\n        /* \"#utility.yul\":3414:3418   */\n      0x24\n        /* \"#utility.yul\":3411:3412   */\n      0x00\n        /* \"#utility.yul\":3404:3419   */\n      revert\n        /* \"#utility.yul\":3431:3611   */\n    tag_30:\n        /* \"#utility.yul\":3479:3556   */\n      0x4e487b7100000000000000000000000000000000000000000000000000000000\n        /* \"#utility.yul\":3476:3477   */\n      0x00\n        /* \"#utility.yul\":3469:3557   */\n      mstore\n        /* \"#utility.yul\":3576:3580   */\n      0x32\n        /* \"#utility.yul\":3573:3574   */\n      0x04\n        /* \"#utility.yul\":3566:3581   */\n      mstore\n        /* \"#utility.yul\":3600:3604   */\n      0x24\n        /* \"#utility.yul\":3597:3598   */\n      0x00\n        /* \"#utility.yul\":3590:3605   */\n      revert\n        /* \"#utility.yul\":3617:3797   */\n    tag_160:\n        /* \"#utility.yul\":3665:3742   */\n      0x4e487b7100000000000000000000000000000000000000000000000000000000\n        /* \"#utility.yul\":3662:3663   */\n      0x00\n        /* \"#utility.yul\":3655:3743   */\n      mstore\n        /* \"#utility.yul\":3762:3766   */\n      0x11\n        /* \"#utility.yul\":3759:3760   */\n      0x04\n        /* \"#utility.yul\":3752:3767   */\n      mstore\n        /* \"#utility.yul\":3786:3790   */\n      0x24\n        /* \"#utility.yul\":3783:3784   */\n      0x00\n        /* \"#utility.yul\":3776:3791   */\n      revert\n        /* \"#utility.yul\":3803:3997   */\n    tag_91:\n        /* \"#utility.yul\":3843:3847   */\n      0x00\n        /* \"#utility.yul\":3863:3883   */\n      tag_203\n        /* \"#utility.yul\":3881:3882   */\n      dup3\n        /* \"#utility.yul\":3863:3883   */\n      tag_150\n      jump\t// in\n    tag_203:\n        /* \"#utility.yul\":3858:3883   */\n      swap2\n      pop\n        /* \"#utility.yul\":3897:3917   */\n      tag_204\n        /* \"#utility.yul\":3915:3916   */\n      dup4\n        /* \"#utility.yul\":3897:3917   */\n      tag_150\n      jump\t// in\n    tag_204:\n        /* \"#utility.yul\":3892:3917   */\n      swap3\n      pop\n        /* \"#utility.yul\":3941:3942   */\n      dup3\n        /* \"#utility.yul\":3938:3939   */\n      dup3\n        /* \"#utility.yul\":3934:3943   */\n      sub\n        /* \"#utility.yul\":3926:3943   */\n      swap1\n      pop\n        /* \"#utility.yul\":3965:3966   */\n      dup2\n        /* \"#utility.yul\":3959:3963   */\n      dup2\n        /* \"#utility.yul\":3956:3967   */\n      gt\n        /* \"#utility.yul\":3953:3990   */\n      iszero\n      tag_205\n      jumpi\n        /* \"#utility.yul\":3970:3988   */\n      tag_206\n      tag_160\n      jump\t// in\n    tag_206:\n        /* \"#utility.yul\":3953:3990   */\n    tag_205:\n        /* \"#utility.yul\":3803:3997   */\n      swap3\n      swap2\n      pop\n      pop\n      jump\t// out\n        /* \"#utility.yul\":4003:4101   */\n    tag_161:\n        /* \"#utility.yul\":4054:4060   */\n      0x00\n        /* \"#utility.yul\":4088:4093   */\n      dup2\n        /* \"#utility.yul\":4082:4094   */\n      mload\n        /* \"#utility.yul\":4072:4094   */\n      swap1\n      pop\n        /* \"#utility.yul\":4003:4101   */\n      swap2\n      swap1\n      pop\n      jump\t// out\n        /* \"#utility.yul\":4107:4254   */\n    tag_162:\n        /* \"#utility.yul\":4208:4219   */\n      0x00\n        /* \"#utility.yul\":4245:4248   */\n      dup2\n        /* \"#utility.yul\":4230:4248   */\n      swap1\n      pop\n        /* \"#utility.yul\":4107:4254   */\n      swap3\n      swap2\n      pop\n      pop\n      jump\t// out\n        /* \"#utility.yul\":4260:4646   */\n    tag_163:\n        /* \"#utility.yul\":4364:4367   */\n      0x00\n        /* \"#utility.yul\":4392:4430   */\n      tag_210\n        /* \"#utility.yul\":4424:4429   */\n      dup3\n        /* \"#utility.yul\":4392:4430   */\n      tag_161\n      jump\t// in\n    tag_210:\n        /* \"#utility.yul\":4446:4534   */\n      tag_211\n        /* \"#utility.yul\":4527:4533   */\n      dup2\n        /* \"#utility.yul\":4522:4525   */\n      dup6\n        /* \"#utility.yul\":4446:4534   */\n      tag_162\n      jump\t// in\n    tag_211:\n        /* \"#utility.yul\":4439:4534   */\n      swap4\n      pop\n        /* \"#utility.yul\":4543:4608   */\n      tag_212\n        /* \"#utility.yul\":4601:4607   */\n      dup2\n        /* \"#utility.yul\":4596:4599   */\n      dup6\n        /* \"#utility.yul\":4589:4593   */\n      0x20\n        /* \"#utility.yul\":4582:4587   */\n      dup7\n        /* \"#utility.yul\":4578:4594   */\n      add\n        /* \"#utility.yul\":4543:4608   */\n      tag_155\n      jump\t// in\n    tag_212:\n        /* \"#utility.yul\":4633:4639   */\n      dup1\n        /* \"#utility.yul\":4628:4631   */\n      dup5\n        /* \"#utility.yul\":4624:4640   */\n      add\n        /* \"#utility.yul\":4617:4640   */\n      swap2\n      pop\n        /* \"#utility.yul\":4368:4646   */\n      pop\n        /* \"#utility.yul\":4260:4646   */\n      swap3\n      swap2\n      pop\n      pop\n      jump\t// out\n        /* \"#utility.yul\":4652:4800   */\n    tag_164:\n        /* \"#utility.yul\":4754:4765   */\n      0x00\n        /* \"#utility.yul\":4791:4794   */\n      dup2\n        /* \"#utility.yul\":4776:4794   */\n      swap1\n      pop\n        /* \"#utility.yul\":4652:4800   */\n      swap3\n      swap2\n      pop\n      pop\n      jump\t// out\n        /* \"#utility.yul\":4806:5196   */\n    tag_165:\n        /* \"#utility.yul\":4912:4915   */\n      0x00\n        /* \"#utility.yul\":4940:4979   */\n      tag_215\n        /* \"#utility.yul\":4973:4978   */\n      dup3\n        /* \"#utility.yul\":4940:4979   */\n      tag_153\n      jump\t// in\n    tag_215:\n        /* \"#utility.yul\":4995:5084   */\n      tag_216\n        /* \"#utility.yul\":5077:5083   */\n      dup2\n        /* \"#utility.yul\":5072:5075   */\n      dup6\n        /* \"#utility.yul\":4995:5084   */\n      tag_164\n      jump\t// in\n    tag_216:\n        /* \"#utility.yul\":4988:5084   */\n      swap4\n      pop\n        /* \"#utility.yul\":5093:5158   */\n      tag_217\n        /* \"#utility.yul\":5151:5157   */\n      dup2\n        /* \"#utility.yul\":5146:5149   */\n      dup6\n        /* \"#utility.yul\":5139:5143   */\n      0x20\n        /* \"#utility.yul\":5132:5137   */\n      dup7\n        /* \"#utility.yul\":5128:5144   */\n      add\n        /* \"#utility.yul\":5093:5158   */\n      tag_155\n      jump\t// in\n    tag_217:\n        /* \"#utility.yul\":5183:5189   */\n      dup1\n        /* \"#utility.yul\":5178:5181   */\n      dup5\n        /* \"#utility.yul\":5174:5190   */\n      add\n        /* \"#utility.yul\":5167:5190   */\n      swap2\n      pop\n        /* \"#utility.yul\":4916:5196   */\n      pop\n        /* \"#utility.yul\":4806:5196   */\n      swap3\n      swap2\n      pop\n      pop\n      jump\t// out\n        /* \"#utility.yul\":5202:5633   */\n    tag_95:\n        /* \"#utility.yul\":5380:5383   */\n      0x00\n        /* \"#utility.yul\":5402:5495   */\n      tag_219\n        /* \"#utility.yul\":5491:5494   */\n      dup3\n        /* \"#utility.yul\":5482:5488   */\n      dup6\n        /* \"#utility.yul\":5402:5495   */\n      tag_163\n      jump\t// in\n    tag_219:\n        /* \"#utility.yul\":5395:5495   */\n      swap2\n      pop\n        /* \"#utility.yul\":5512:5607   */\n      tag_220\n        /* \"#utility.yul\":5603:5606   */\n      dup3\n        /* \"#utility.yul\":5594:5600   */\n      dup5\n        /* \"#utility.yul\":5512:5607   */\n      tag_165\n      jump\t// in\n    tag_220:\n        /* \"#utility.yul\":5505:5607   */\n      swap2\n      pop\n        /* \"#utility.yul\":5624:5627   */\n      dup2\n        /* \"#utility.yul\":5617:5627   */\n      swap1\n      pop\n        /* \"#utility.yul\":5202:5633   */\n      swap4\n      swap3\n      pop\n      pop\n      pop\n      jump\t// out\n        /* \"#utility.yul\":5639:5859   */\n    tag_166:\n        /* \"#utility.yul\":5779:5813   */\n      0x4e756d626572206d757374206265206265747765656e203120616e6420333939\n        /* \"#utility.yul\":5775:5776   */\n      0x00\n        /* \"#utility.yul\":5767:5773   */\n      dup3\n        /* \"#utility.yul\":5763:5777   */\n      add\n        /* \"#utility.yul\":5756:5814   */\n      mstore\n        /* \"#utility.yul\":5848:5851   */\n      0x3900000000000000000000000000000000000000000000000000000000000000\n        /* \"#utility.yul\":5843:5845   */\n      0x20\n        /* \"#utility.yul\":5835:5841   */\n      dup3\n        /* \"#utility.yul\":5831:5846   */\n      add\n        /* \"#utility.yul\":5824:5852   */\n      mstore\n        /* \"#utility.yul\":5639:5859   */\n      pop\n      jump\t// out\n        /* \"#utility.yul\":5865:6231   */\n    tag_167:\n        /* \"#utility.yul\":6007:6010   */\n      0x00\n        /* \"#utility.yul\":6028:6095   */\n      tag_223\n        /* \"#utility.yul\":6092:6094   */\n      0x21\n        /* \"#utility.yul\":6087:6090   */\n      dup4\n        /* \"#utility.yul\":6028:6095   */\n      tag_154\n      jump\t// in\n    tag_223:\n        /* \"#utility.yul\":6021:6095   */\n      swap2\n      pop\n        /* \"#utility.yul\":6104:6197   */\n      tag_224\n        /* \"#utility.yul\":6193:6196   */\n      dup3\n        /* \"#utility.yul\":6104:6197   */\n      tag_166\n      jump\t// in\n    tag_224:\n        /* \"#utility.yul\":6222:6224   */\n      0x40\n        /* \"#utility.yul\":6217:6220   */\n      dup3\n        /* \"#utility.yul\":6213:6225   */\n      add\n        /* \"#utility.yul\":6206:6225   */\n      swap1\n      pop\n        /* \"#utility.yul\":5865:6231   */\n      swap2\n      swap1\n      pop\n      jump\t// out\n        /* \"#utility.yul\":6237:6656   */\n    tag_100:\n        /* \"#utility.yul\":6403:6407   */\n      0x00\n        /* \"#utility.yul\":6441:6443   */\n      0x20\n        /* \"#utility.yul\":6430:6439   */\n      dup3\n        /* \"#utility.yul\":6426:6444   */\n      add\n        /* \"#utility.yul\":6418:6444   */\n      swap1\n      pop\n        /* \"#utility.yul\":6490:6499   */\n      dup2\n        /* \"#utility.yul\":6484:6488   */\n      dup2\n        /* \"#utility.yul\":6480:6500   */\n      sub\n        /* \"#utility.yul\":6476:6477   */\n      0x00\n        /* \"#utility.yul\":6465:6474   */\n      dup4\n        /* \"#utility.yul\":6461:6478   */\n      add\n        /* \"#utility.yul\":6454:6501   */\n      mstore\n        /* \"#utility.yul\":6518:6649   */\n      tag_226\n        /* \"#utility.yul\":6644:6648   */\n      dup2\n        /* \"#utility.yul\":6518:6649   */\n      tag_167\n      jump\t// in\n    tag_226:\n        /* \"#utility.yul\":6510:6649   */\n      swap1\n      pop\n        /* \"#utility.yul\":6237:6656   */\n      swap2\n      swap1\n      pop\n      jump\t// out\n        /* \"#utility.yul\":6662:7097   */\n    tag_143:\n        /* \"#utility.yul\":6842:6845   */\n      0x00\n        /* \"#utility.yul\":6864:6959   */\n      tag_228\n        /* \"#utility.yul\":6955:6958   */\n      dup3\n        /* \"#utility.yul\":6946:6952   */\n      dup6\n        /* \"#utility.yul\":6864:6959   */\n      tag_165\n      jump\t// in\n    tag_228:\n        /* \"#utility.yul\":6857:6959   */\n      swap2\n      pop\n        /* \"#utility.yul\":6976:7071   */\n      tag_229\n        /* \"#utility.yul\":7067:7070   */\n      dup3\n        /* \"#utility.yul\":7058:7064   */\n      dup5\n        /* \"#utility.yul\":6976:7071   */\n      tag_165\n      jump\t// in\n    tag_229:\n        /* \"#utility.yul\":6969:7071   */\n      swap2\n      pop\n        /* \"#utility.yul\":7088:7091   */\n      dup2\n        /* \"#utility.yul\":7081:7091   */\n      swap1\n      pop\n        /* \"#utility.yul\":6662:7097   */\n      swap4\n      swap3\n      pop\n      pop\n      pop\n      jump\t// out\n\n    auxdata: 0xa264697066735822122008b27d41f2bfe9346810d9e004e8497cfa35ebb5f11fd16cb096749619d313b264736f6c634300081e0033\n}\n",
				"bytecode": {
					"linkReferences": {},
					"object": "6080604052348015600e575f5ffd5b506112e38061001c5f395ff3fe608060405234801561000f575f5ffd5b5060043610610034575f3560e01c80630cbc513a14610038578063c220a93b14610068575b5f5ffd5b610052600480360381019061004d9190610f7e565b610098565b60405161005f9190611019565b60405180910390f35b610082600480360381019061007d9190610f7e565b61084e565b60405161008f9190611019565b60405180910390f35b6060600182101580156100ad5750610f9f8211155b6100ec576040517f08c379a00000000000000000000000000000000000000000000000000000000081526004016100e390611083565b60405180910390fd5b5f600d67ffffffffffffffff811115610108576101076110a1565b5b6040519080825280602002602001820160405280156101365781602001602082028036833780820191505090505b5090505f600d67ffffffffffffffff811115610155576101546110a1565b5b60405190808252806020026020018201604052801561018857816020015b60608152602001906001900390816101735790505b5090506103e8825f815181106101a1576101a06110ce565b5b6020026020010181815250506040518060400160405280600181526020017f4d00000000000000000000000000000000000000000000000000000000000000815250815f815181106101f6576101f56110ce565b5b602002602001018190525061038482600181518110610218576102176110ce565b5b6020026020010181815250506040518060400160405280600281526020017f434d0000000000000000000000000000000000000000000000000000000000008152508160018151811061026e5761026d6110ce565b5b60200260200101819052506101f4826002815181106102905761028f6110ce565b5b6020026020010181815250506040518060400160405280600181526020017f4400000000000000000000000000000000000000000000000000000000000000815250816002815181106102e6576102e56110ce565b5b602002602001018190525061019082600381518110610308576103076110ce565b5b6020026020010181815250506040518060400160405280600281526020017f43440000000000000000000000000000000000000000000000000000000000008152508160038151811061035e5761035d6110ce565b5b602002602001018190525060648260048151811061037f5761037e6110ce565b5b6020026020010181815250506040518060400160405280600181526020017f4300000000000000000000000000000000000000000000000000000000000000815250816004815181106103d5576103d46110ce565b5b6020026020010181905250605a826005815181106103f6576103f56110ce565b5b6020026020010181815250506040518060400160405280600281526020017f58430000000000000000000000000000000000000000000000000000000000008152508160058151811061044c5761044b6110ce565b5b602002602001018190525060328260068151811061046d5761046c6110ce565b5b6020026020010181815250506040518060400160405280600181526020017f4c00000000000000000000000000000000000000000000000000000000000000815250816006815181106104c3576104c26110ce565b5b60200260200101819052506028826007815181106104e4576104e36110ce565b5b6020026020010181815250506040518060400160405280600281526020017f584c0000000000000000000000000000000000000000000000000000000000008152508160078151811061053a576105396110ce565b5b6020026020010181905250600a8260088151811061055b5761055a6110ce565b5b6020026020010181815250506040518060400160405280600181526020017f5800000000000000000000000000000000000000000000000000000000000000815250816008815181106105b1576105b06110ce565b5b60200260200101819052506009826009815181106105d2576105d16110ce565b5b6020026020010181815250506040518060400160405280600281526020017f495800000000000000000000000000000000000000000000000000000000000081525081600981518110610628576106276110ce565b5b6020026020010181905250600582600a81518110610649576106486110ce565b5b6020026020010181815250506040518060400160405280600181526020017f560000000000000000000000000000000000000000000000000000000000000081525081600a8151811061069f5761069e6110ce565b5b6020026020010181905250600482600b815181106106c0576106bf6110ce565b5b6020026020010181815250506040518060400160405280600281526020017f495600000000000000000000000000000000000000000000000000000000000081525081600b81518110610716576107156110ce565b5b6020026020010181905250600182600c81518110610737576107366110ce565b5b6020026020010181815250506040518060400160405280600181526020017f490000000000000000000000000000000000000000000000000000000000000081525081600c8151811061078d5761078c6110ce565b5b602002602001018190525060605f5f90505b600d811015610842575b8381815181106107bc576107bb6110ce565b5b60200260200101518610610835578381815181106107dd576107dc6110ce565b5b6020026020010151866107f09190611128565b955081838281518110610806576108056110ce565b5b602002602001015160405160200161081f9291906111d9565b60405160208183030381529060405291506107a9565b808060010191505061079f565b50809350505050919050565b6060600182101580156108635750610f9f8211155b6108a2576040517f08c379a00000000000000000000000000000000000000000000000000000000081526004016108999061126c565b60405180910390fd5b5f600d67ffffffffffffffff8111156108be576108bd6110a1565b5b6040519080825280602002602001820160405280156108f757816020015b6108e4610f2e565b8152602001906001900390816108dc5790505b50905060405180604001604052806103e881526020016040518060400160405280600181526020017f4d00000000000000000000000000000000000000000000000000000000000000815250815250815f81518110610959576109586110ce565b5b6020026020010181905250604051806040016040528061038481526020016040518060400160405280600281526020017f434d000000000000000000000000000000000000000000000000000000000000815250815250816001815181106109c4576109c36110ce565b5b602002602001018190525060405180604001604052806101f481526020016040518060400160405280600181526020017f440000000000000000000000000000000000000000000000000000000000000081525081525081600281518110610a2f57610a2e6110ce565b5b6020026020010181905250604051806040016040528061019081526020016040518060400160405280600281526020017f434400000000000000000000000000000000000000000000000000000000000081525081525081600381518110610a9a57610a996110ce565b5b60200260200101819052506040518060400160405280606481526020016040518060400160405280600181526020017f430000000000000000000000000000000000000000000000000000000000000081525081525081600481518110610b0457610b036110ce565b5b60200260200101819052506040518060400160405280605a81526020016040518060400160405280600281526020017f584300000000000000000000000000000000000000000000000000000000000081525081525081600581518110610b6e57610b6d6110ce565b5b60200260200101819052506040518060400160405280603281526020016040518060400160405280600181526020017f4c0000000000000000000000000000000000000000000000000000000000000081525081525081600681518110610bd857610bd76110ce565b5b60200260200101819052506040518060400160405280602881526020016040518060400160405280600281526020017f584c00000000000000000000000000000000000000000000000000000000000081525081525081600781518110610c4257610c416110ce565b5b60200260200101819052506040518060400160405280600a81526020016040518060400160405280600181526020017f580000000000000000000000000000000000000000000000000000000000000081525081525081600881518110610cac57610cab6110ce565b5b60200260200101819052506040518060400160405280600981526020016040518060400160405280600281526020017f495800000000000000000000000000000000000000000000000000000000000081525081525081600981518110610d1657610d156110ce565b5b60200260200101819052506040518060400160405280600581526020016040518060400160405280600181526020017f560000000000000000000000000000000000000000000000000000000000000081525081525081600a81518110610d8057610d7f6110ce565b5b60200260200101819052506040518060400160405280600481526020016040518060400160405280600281526020017f495600000000000000000000000000000000000000000000000000000000000081525081525081600b81518110610dea57610de96110ce565b5b60200260200101819052506040518060400160405280600181526020016040518060400160405280600181526020017f490000000000000000000000000000000000000000000000000000000000000081525081525081600c81518110610e5457610e536110ce565b5b60200260200101819052505f60405180602001604052805f81525090505f5f90505b8251811015610f23575b828181518110610e9357610e926110ce565b5b60200260200101515f01518510610f165781838281518110610eb857610eb76110ce565b5b602002602001015160200151604051602001610ed592919061128a565b6040516020818303038152906040529150828181518110610ef957610ef86110ce565b5b60200260200101515f015185610f0f9190611128565b9450610e80565b8080600101915050610e76565b508092505050919050565b60405180604001604052805f8152602001606081525090565b5f5ffd5b5f819050919050565b610f5d81610f4b565b8114610f67575f5ffd5b50565b5f81359050610f7881610f54565b92915050565b5f60208284031215610f9357610f92610f47565b5b5f610fa084828501610f6a565b91505092915050565b5f81519050919050565b5f82825260208201905092915050565b8281835e5f83830152505050565b5f601f19601f8301169050919050565b5f610feb82610fa9565b610ff58185610fb3565b9350611005818560208601610fc3565b61100e81610fd1565b840191505092915050565b5f6020820190508181035f8301526110318184610fe1565b905092915050565b7f496e707574206d757374206265206265747765656e203120616e6420333939395f82015250565b5f61106d602083610fb3565b915061107882611039565b602082019050919050565b5f6020820190508181035f83015261109a81611061565b9050919050565b7f4e487b71000000000000000000000000000000000000000000000000000000005f52604160045260245ffd5b7f4e487b71000000000000000000000000000000000000000000000000000000005f52603260045260245ffd5b7f4e487b71000000000000000000000000000000000000000000000000000000005f52601160045260245ffd5b5f61113282610f4b565b915061113d83610f4b565b9250828203905081811115611155576111546110fb565b5b92915050565b5f81519050919050565b5f81905092915050565b5f6111798261115b565b6111838185611165565b9350611193818560208601610fc3565b80840191505092915050565b5f81905092915050565b5f6111b382610fa9565b6111bd818561119f565b93506111cd818560208601610fc3565b80840191505092915050565b5f6111e4828561116f565b91506111f082846111a9565b91508190509392505050565b7f4e756d626572206d757374206265206265747765656e203120616e64203339395f8201527f3900000000000000000000000000000000000000000000000000000000000000602082015250565b5f611256602183610fb3565b9150611261826111fc565b604082019050919050565b5f6020820190508181035f8301526112838161124a565b9050919050565b5f61129582856111a9565b91506112a182846111a9565b9150819050939250505056fea264697066735822122008b27d41f2bfe9346810d9e004e8497cfa35ebb5f11fd16cb096749619d313b264736f6c634300081e0033",
					"opcodes": "PUSH1 0x80 PUSH1 0x40 MSTORE CALLVALUE DUP1 ISZERO PUSH1 0xE JUMPI PUSH0 PUSH0 REVERT JUMPDEST POP PUSH2 0x12E3 DUP1 PUSH2 0x1C PUSH0 CODECOPY PUSH0 RETURN INVALID PUSH1 0x80 PUSH1 0x40 MSTORE CALLVALUE DUP1 ISZERO PUSH2 0xF JUMPI PUSH0 PUSH0 REVERT JUMPDEST POP PUSH1 0x4 CALLDATASIZE LT PUSH2 0x34 JUMPI PUSH0 CALLDATALOAD PUSH1 0xE0 SHR DUP1 PUSH4 0xCBC513A EQ PUSH2 0x38 JUMPI DUP1 PUSH4 0xC220A93B EQ PUSH2 0x68 JUMPI JUMPDEST PUSH0 PUSH0 REVERT JUMPDEST PUSH2 0x52 PUSH1 0x4 DUP1 CALLDATASIZE SUB DUP2 ADD SWAP1 PUSH2 0x4D SWAP2 SWAP1 PUSH2 0xF7E JUMP JUMPDEST PUSH2 0x98 JUMP JUMPDEST PUSH1 0x40 MLOAD PUSH2 0x5F SWAP2 SWAP1 PUSH2 0x1019 JUMP JUMPDEST PUSH1 0x40 MLOAD DUP1 SWAP2 SUB SWAP1 RETURN JUMPDEST PUSH2 0x82 PUSH1 0x4 DUP1 CALLDATASIZE SUB DUP2 ADD SWAP1 PUSH2 0x7D SWAP2 SWAP1 PUSH2 0xF7E JUMP JUMPDEST PUSH2 0x84E JUMP JUMPDEST PUSH1 0x40 MLOAD PUSH2 0x8F SWAP2 SWAP1 PUSH2 0x1019 JUMP JUMPDEST PUSH1 0x40 MLOAD DUP1 SWAP2 SUB SWAP1 RETURN JUMPDEST PUSH1 0x60 PUSH1 0x1 DUP3 LT ISZERO DUP1 ISZERO PUSH2 0xAD JUMPI POP PUSH2 0xF9F DUP3 GT ISZERO JUMPDEST PUSH2 0xEC JUMPI PUSH1 0x40 MLOAD PUSH32 0x8C379A000000000000000000000000000000000000000000000000000000000 DUP2 MSTORE PUSH1 0x4 ADD PUSH2 0xE3 SWAP1 PUSH2 0x1083 JUMP JUMPDEST PUSH1 0x40 MLOAD DUP1 SWAP2 SUB SWAP1 REVERT JUMPDEST PUSH0 PUSH1 0xD PUSH8 0xFFFFFFFFFFFFFFFF DUP2 GT ISZERO PUSH2 0x108 JUMPI PUSH2 0x107 PUSH2 0x10A1 JUMP JUMPDEST JUMPDEST PUSH1 0x40 MLOAD SWAP1 DUP1 DUP3 MSTORE DUP1 PUSH1 0x20 MUL PUSH1 0x20 ADD DUP3 ADD PUSH1 0x40 MSTORE DUP1 ISZERO PUSH2 0x136 JUMPI DUP2 PUSH1 0x20 ADD PUSH1 0x20 DUP3 MUL DUP1 CALLDATASIZE DUP4 CALLDATACOPY DUP1 DUP3 ADD SWAP2 POP POP SWAP1 POP JUMPDEST POP SWAP1 POP PUSH0 PUSH1 0xD PUSH8 0xFFFFFFFFFFFFFFFF DUP2 GT ISZERO PUSH2 0x155 JUMPI PUSH2 0x154 PUSH2 0x10A1 JUMP JUMPDEST JUMPDEST PUSH1 0x40 MLOAD SWAP1 DUP1 DUP3 MSTORE DUP1 PUSH1 0x20 MUL PUSH1 0x20 ADD DUP3 ADD PUSH1 0x40 MSTORE DUP1 ISZERO PUSH2 0x188 JUMPI DUP2 PUSH1 0x20 ADD JUMPDEST PUSH1 0x60 DUP2 MSTORE PUSH1 0x20 ADD SWAP1 PUSH1 0x1 SWAP1 SUB SWAP1 DUP2 PUSH2 0x173 JUMPI SWAP1 POP JUMPDEST POP SWAP1 POP PUSH2 0x3E8 DUP3 PUSH0 DUP2 MLOAD DUP2 LT PUSH2 0x1A1 JUMPI PUSH2 0x1A0 PUSH2 0x10CE JUMP JUMPDEST JUMPDEST PUSH1 0x20 MUL PUSH1 0x20 ADD ADD DUP2 DUP2 MSTORE POP POP PUSH1 0x40 MLOAD DUP1 PUSH1 0x40 ADD PUSH1 0x40 MSTORE DUP1 PUSH1 0x1 DUP2 MSTORE PUSH1 0x20 ADD PUSH32 0x4D00000000000000000000000000000000000000000000000000000000000000 DUP2 MSTORE POP DUP2 PUSH0 DUP2 MLOAD DUP2 LT PUSH2 0x1F6 JUMPI PUSH2 0x1F5 PUSH2 0x10CE JUMP JUMPDEST JUMPDEST PUSH1 0x20 MUL PUSH1 0x20 ADD ADD DUP2 SWAP1 MSTORE POP PUSH2 0x384 DUP3 PUSH1 0x1 DUP2 MLOAD DUP2 LT PUSH2 0x218 JUMPI PUSH2 0x217 PUSH2 0x10CE JUMP JUMPDEST JUMPDEST PUSH1 0x20 MUL PUSH1 0x20 ADD ADD DUP2 DUP2 MSTORE POP POP PUSH1 0x40 MLOAD DUP1 PUSH1 0x40 ADD PUSH1 0x40 MSTORE DUP1 PUSH1 0x2 DUP2 MSTORE PUSH1 0x20 ADD PUSH32 0x434D000000000000000000000000000000000000000000000000000000000000 DUP2 MSTORE POP DUP2 PUSH1 0x1 DUP2 MLOAD DUP2 LT PUSH2 0x26E JUMPI PUSH2 0x26D PUSH2 0x10CE JUMP JUMPDEST JUMPDEST PUSH1 0x20 MUL PUSH1 0x20 ADD ADD DUP2 SWAP1 MSTORE POP PUSH2 0x1F4 DUP3 PUSH1 0x2 DUP2 MLOAD DUP2 LT PUSH2 0x290 JUMPI PUSH2 0x28F PUSH2 0x10CE JUMP JUMPDEST JUMPDEST PUSH1 0x20 MUL PUSH1 0x20 ADD ADD DUP2 DUP2 MSTORE POP POP PUSH1 0x40 MLOAD DUP1 PUSH1 0x40 ADD PUSH1 0x40 MSTORE DUP1 PUSH1 0x1 DUP2 MSTORE PUSH1 0x20 ADD PUSH32 0x4400000000000000000000000000000000000000000000000000000000000000 DUP2 MSTORE POP DUP2 PUSH1 0x2 DUP2 MLOAD DUP2 LT PUSH2 0x2E6 JUMPI PUSH2 0x2E5 PUSH2 0x10CE JUMP JUMPDEST JUMPDEST PUSH1 0x20 MUL PUSH1 0x20 ADD ADD DUP2 SWAP1 MSTORE POP PUSH2 0x190 DUP3 PUSH1 0x3 DUP2 MLOAD DUP2 LT PUSH2 0x308 JUMPI PUSH2 0x307 PUSH2 0x10CE JUMP JUMPDEST JUMPDEST PUSH1 0x20 MUL PUSH1 0x20 ADD ADD DUP2 DUP2 MSTORE POP POP PUSH1 0x40 MLOAD DUP1 PUSH1 0x40 ADD PUSH1 0x40 MSTORE DUP1 PUSH1 0x2 DUP2 MSTORE PUSH1 0x20 ADD PUSH32 0x4344000000000000000000000000000000000000000000000000000000000000 DUP2 MSTORE POP DUP2 PUSH1 0x3 DUP2 MLOAD DUP2 LT PUSH2 0x35E JUMPI PUSH2 0x35D PUSH2 0x10CE JUMP JUMPDEST JUMPDEST PUSH1 0x20 MUL PUSH1 0x20 ADD ADD DUP2 SWAP1 MSTORE POP PUSH1 0x64 DUP3 PUSH1 0x4 DUP2 MLOAD DUP2 LT PUSH2 0x37F JUMPI PUSH2 0x37E PUSH2 0x10CE JUMP JUMPDEST JUMPDEST PUSH1 0x20 MUL PUSH1 0x20 ADD ADD DUP2 DUP2 MSTORE POP POP PUSH1 0x40 MLOAD DUP1 PUSH1 0x40 ADD PUSH1 0x40 MSTORE DUP1 PUSH1 0x1 DUP2 MSTORE PUSH1 0x20 ADD PUSH32 0x4300000000000000000000000000000000000000000000000000000000000000 DUP2 MSTORE POP DUP2 PUSH1 0x4 DUP2 MLOAD DUP2 LT PUSH2 0x3D5 JUMPI PUSH2 0x3D4 PUSH2 0x10CE JUMP JUMPDEST JUMPDEST PUSH1 0x20 MUL PUSH1 0x20 ADD ADD DUP2 SWAP1 MSTORE POP PUSH1 0x5A DUP3 PUSH1 0x5 DUP2 MLOAD DUP2 LT PUSH2 0x3F6 JUMPI PUSH2 0x3F5 PUSH2 0x10CE JUMP JUMPDEST JUMPDEST PUSH1 0x20 MUL PUSH1 0x20 ADD ADD DUP2 DUP2 MSTORE POP POP PUSH1 0x40 MLOAD DUP1 PUSH1 0x40 ADD PUSH1 0x40 MSTORE DUP1 PUSH1 0x2 DUP2 MSTORE PUSH1 0x20 ADD PUSH32 0x5843000000000000000000000000000000000000000000000000000000000000 DUP2 MSTORE POP DUP2 PUSH1 0x5 DUP2 MLOAD DUP2 LT PUSH2 0x44C JUMPI PUSH2 0x44B PUSH2 0x10CE JUMP JUMPDEST JUMPDEST PUSH1 0x20 MUL PUSH1 0x20 ADD ADD DUP2 SWAP1 MSTORE POP PUSH1 0x32 DUP3 PUSH1 0x6 DUP2 MLOAD DUP2 LT PUSH2 0x46D JUMPI PUSH2 0x46C PUSH2 0x10CE JUMP JUMPDEST JUMPDEST PUSH1 0x20 MUL PUSH1 0x20 ADD ADD DUP2 DUP2 MSTORE POP POP PUSH1 0x40 MLOAD DUP1 PUSH1 0x40 ADD PUSH1 0x40 MSTORE DUP1 PUSH1 0x1 DUP2 MSTORE PUSH1 0x20 ADD PUSH32 0x4C00000000000000000000000000000000000000000000000000000000000000 DUP2 MSTORE POP DUP2 PUSH1 0x6 DUP2 MLOAD DUP2 LT PUSH2 0x4C3 JUMPI PUSH2 0x4C2 PUSH2 0x10CE JUMP JUMPDEST JUMPDEST PUSH1 0x20 MUL PUSH1 0x20 ADD ADD DUP2 SWAP1 MSTORE POP PUSH1 0x28 DUP3 PUSH1 0x7 DUP2 MLOAD DUP2 LT PUSH2 0x4E4 JUMPI PUSH2 0x4E3 PUSH2 0x10CE JUMP JUMPDEST JUMPDEST PUSH1 0x20 MUL PUSH1 0x20 ADD ADD DUP2 DUP2 MSTORE POP POP PUSH1 0x40 MLOAD DUP1 PUSH1 0x40 ADD PUSH1 0x40 MSTORE DUP1 PUSH1 0x2 DUP2 MSTORE PUSH1 0x20 ADD PUSH32 0x584C000000000000000000000000000000000000000000000000000000000000 DUP2 MSTORE POP DUP2 PUSH1 0x7 DUP2 MLOAD DUP2 LT PUSH2 0x53A JUMPI PUSH2 0x539 PUSH2 0x10CE JUMP JUMPDEST JUMPDEST PUSH1 0x20 MUL PUSH1 0x20 ADD ADD DUP2 SWAP1 MSTORE POP PUSH1 0xA DUP3 PUSH1 0x8 DUP2 MLOAD DUP2 LT PUSH2 0x55B JUMPI PUSH2 0x55A PUSH2 0x10CE JUMP JUMPDEST JUMPDEST PUSH1 0x20 MUL PUSH1 0x20 ADD ADD DUP2 DUP2 MSTORE POP POP PUSH1 0x40 MLOAD DUP1 PUSH1 0x40 ADD PUSH1 0x40 MSTORE DUP1 PUSH1 0x1 DUP2 MSTORE PUSH1 0x20 ADD PUSH32 0x5800000000000000000000000000000000000000000000000000000000000000 DUP2 MSTORE POP DUP2 PUSH1 0x8 DUP2 MLOAD DUP2 LT PUSH2 0x5B1 JUMPI PUSH2 0x5B0 PUSH2 0x10CE JUMP JUMPDEST JUMPDEST PUSH1 0x20 MUL PUSH1 0x20 ADD ADD DUP2 SWAP1 MSTORE POP PUSH1 0x9 DUP3 PUSH1 0x9 DUP2 MLOAD DUP2 LT PUSH2 0x5D2 JUMPI PUSH2 0x5D1 PUSH2 0x10CE JUMP JUMPDEST JUMPDEST PUSH1 0x20 MUL PUSH1 0x20 ADD ADD DUP2 DUP2 MSTORE POP POP PUSH1 0x40 MLOAD DUP1 PUSH1 0x40 ADD PUSH1 0x40 MSTORE DUP1 PUSH1 0x2 DUP2 MSTORE PUSH1 0x20 ADD PUSH32 0x4958000000000000000000000000000000000000000000000000000000000000 DUP2 MSTORE POP DUP2 PUSH1 0x9 DUP2 MLOAD DUP2 LT PUSH2 0x628 JUMPI PUSH2 0x627 PUSH2 0x10CE JUMP JUMPDEST JUMPDEST PUSH1 0x20 MUL PUSH1 0x20 ADD ADD DUP2 SWAP1 MSTORE POP PUSH1 0x5 DUP3 PUSH1 0xA DUP2 MLOAD DUP2 LT PUSH2 0x649 JUMPI PUSH2 0x648 PUSH2 0x10CE JUMP JUMPDEST JUMPDEST PUSH1 0x20 MUL PUSH1 0x20 ADD ADD DUP2 DUP2 MSTORE POP POP PUSH1 0x40 MLOAD DUP1 PUSH1 0x40 ADD PUSH1 0x40 MSTORE DUP1 PUSH1 0x1 DUP2 MSTORE PUSH1 0x20 ADD PUSH32 0x5600000000000000000000000000000000000000000000000000000000000000 DUP2 MSTORE POP DUP2 PUSH1 0xA DUP2 MLOAD DUP2 LT PUSH2 0x69F JUMPI PUSH2 0x69E PUSH2 0x10CE JUMP JUMPDEST JUMPDEST PUSH1 0x20 MUL PUSH1 0x20 ADD ADD DUP2 SWAP1 MSTORE POP PUSH1 0x4 DUP3 PUSH1 0xB DUP2 MLOAD DUP2 LT PUSH2 0x6C0 JUMPI PUSH2 0x6BF PUSH2 0x10CE JUMP JUMPDEST JUMPDEST PUSH1 0x20 MUL PUSH1 0x20 ADD ADD DUP2 DUP2 MSTORE POP POP PUSH1 0x40 MLOAD DUP1 PUSH1 0x40 ADD PUSH1 0x40 MSTORE DUP1 PUSH1 0x2 DUP2 MSTORE PUSH1 0x20 ADD PUSH32 0x4956000000000000000000000000000000000000000000000000000000000000 DUP2 MSTORE POP DUP2 PUSH1 0xB DUP2 MLOAD DUP2 LT PUSH2 0x716 JUMPI PUSH2 0x715 PUSH2 0x10CE JUMP JUMPDEST JUMPDEST PUSH1 0x20 MUL PUSH1 0x20 ADD ADD DUP2 SWAP1 MSTORE POP PUSH1 0x1 DUP3 PUSH1 0xC DUP2 MLOAD DUP2 LT PUSH2 0x737 JUMPI PUSH2 0x736 PUSH2 0x10CE JUMP JUMPDEST JUMPDEST PUSH1 0x20 MUL PUSH1 0x20 ADD ADD DUP2 DUP2 MSTORE POP POP PUSH1 0x40 MLOAD DUP1 PUSH1 0x40 ADD PUSH1 0x40 MSTORE DUP1 PUSH1 0x1 DUP2 MSTORE PUSH1 0x20 ADD PUSH32 0x4900000000000000000000000000000000000000000000000000000000000000 DUP2 MSTORE POP DUP2 PUSH1 0xC DUP2 MLOAD DUP2 LT PUSH2 0x78D JUMPI PUSH2 0x78C PUSH2 0x10CE JUMP JUMPDEST JUMPDEST PUSH1 0x20 MUL PUSH1 0x20 ADD ADD DUP2 SWAP1 MSTORE POP PUSH1 0x60 PUSH0 PUSH0 SWAP1 POP JUMPDEST PUSH1 0xD DUP2 LT ISZERO PUSH2 0x842 JUMPI JUMPDEST DUP4 DUP2 DUP2 MLOAD DUP2 LT PUSH2 0x7BC JUMPI PUSH2 0x7BB PUSH2 0x10CE JUMP JUMPDEST JUMPDEST PUSH1 0x20 MUL PUSH1 0x20 ADD ADD MLOAD DUP7 LT PUSH2 0x835 JUMPI DUP4 DUP2 DUP2 MLOAD DUP2 LT PUSH2 0x7DD JUMPI PUSH2 0x7DC PUSH2 0x10CE JUMP JUMPDEST JUMPDEST PUSH1 0x20 MUL PUSH1 0x20 ADD ADD MLOAD DUP7 PUSH2 0x7F0 SWAP2 SWAP1 PUSH2 0x1128 JUMP JUMPDEST SWAP6 POP DUP2 DUP4 DUP3 DUP2 MLOAD DUP2 LT PUSH2 0x806 JUMPI PUSH2 0x805 PUSH2 0x10CE JUMP JUMPDEST JUMPDEST PUSH1 0x20 MUL PUSH1 0x20 ADD ADD MLOAD PUSH1 0x40 MLOAD PUSH1 0x20 ADD PUSH2 0x81F SWAP3 SWAP2 SWAP1 PUSH2 0x11D9 JUMP JUMPDEST PUSH1 0x40 MLOAD PUSH1 0x20 DUP2 DUP4 SUB SUB DUP2 MSTORE SWAP1 PUSH1 0x40 MSTORE SWAP2 POP PUSH2 0x7A9 JUMP JUMPDEST DUP1 DUP1 PUSH1 0x1 ADD SWAP2 POP POP PUSH2 0x79F JUMP JUMPDEST POP DUP1 SWAP4 POP POP POP POP SWAP2 SWAP1 POP JUMP JUMPDEST PUSH1 0x60 PUSH1 0x1 DUP3 LT ISZERO DUP1 ISZERO PUSH2 0x863 JUMPI POP PUSH2 0xF9F DUP3 GT ISZERO JUMPDEST PUSH2 0x8A2 JUMPI PUSH1 0x40 MLOAD PUSH32 0x8C379A000000000000000000000000000000000000000000000000000000000 DUP2 MSTORE PUSH1 0x4 ADD PUSH2 0x899 SWAP1 PUSH2 0x126C JUMP JUMPDEST PUSH1 0x40 MLOAD DUP1 SWAP2 SUB SWAP1 REVERT JUMPDEST PUSH0 PUSH1 0xD PUSH8 0xFFFFFFFFFFFFFFFF DUP2 GT ISZERO PUSH2 0x8BE JUMPI PUSH2 0x8BD PUSH2 0x10A1 JUMP JUMPDEST JUMPDEST PUSH1 0x40 MLOAD SWAP1 DUP1 DUP3 MSTORE DUP1 PUSH1 0x20 MUL PUSH1 0x20 ADD DUP3 ADD PUSH1 0x40 MSTORE DUP1 ISZERO PUSH2 0x8F7 JUMPI DUP2 PUSH1 0x20 ADD JUMPDEST PUSH2 0x8E4 PUSH2 0xF2E JUMP JUMPDEST DUP2 MSTORE PUSH1 0x20 ADD SWAP1 PUSH1 0x1 SWAP1 SUB SWAP1 DUP2 PUSH2 0x8DC JUMPI SWAP1 POP JUMPDEST POP SWAP1 POP PUSH1 0x40 MLOAD DUP1 PUSH1 0x40 ADD PUSH1 0x40 MSTORE DUP1 PUSH2 0x3E8 DUP2 MSTORE PUSH1 0x20 ADD PUSH1 0x40 MLOAD DUP1 PUSH1 0x40 ADD PUSH1 0x40 MSTORE DUP1 PUSH1 0x1 DUP2 MSTORE PUSH1 0x20 ADD PUSH32 0x4D00000000000000000000000000000000000000000000000000000000000000 DUP2 MSTORE POP DUP2 MSTORE POP DUP2 PUSH0 DUP2 MLOAD DUP2 LT PUSH2 0x959 JUMPI PUSH2 0x958 PUSH2 0x10CE JUMP JUMPDEST JUMPDEST PUSH1 0x20 MUL PUSH1 0x20 ADD ADD DUP2 SWAP1 MSTORE POP PUSH1 0x40 MLOAD DUP1 PUSH1 0x40 ADD PUSH1 0x40 MSTORE DUP1 PUSH2 0x384 DUP2 MSTORE PUSH1 0x20 ADD PUSH1 0x40 MLOAD DUP1 PUSH1 0x40 ADD PUSH1 0x40 MSTORE DUP1 PUSH1 0x2 DUP2 MSTORE PUSH1 0x20 ADD PUSH32 0x434D000000000000000000000000000000000000000000000000000000000000 DUP2 MSTORE POP DUP2 MSTORE POP DUP2 PUSH1 0x1 DUP2 MLOAD DUP2 LT PUSH2 0x9C4 JUMPI PUSH2 0x9C3 PUSH2 0x10CE JUMP JUMPDEST JUMPDEST PUSH1 0x20 MUL PUSH1 0x20 ADD ADD DUP2 SWAP1 MSTORE POP PUSH1 0x40 MLOAD DUP1 PUSH1 0x40 ADD PUSH1 0x40 MSTORE DUP1 PUSH2 0x1F4 DUP2 MSTORE PUSH1 0x20 ADD PUSH1 0x40 MLOAD DUP1 PUSH1 0x40 ADD PUSH1 0x40 MSTORE DUP1 PUSH1 0x1 DUP2 MSTORE PUSH1 0x20 ADD PUSH32 0x4400000000000000000000000000000000000000000000000000000000000000 DUP2 MSTORE POP DUP2 MSTORE POP DUP2 PUSH1 0x2 DUP2 MLOAD DUP2 LT PUSH2 0xA2F JUMPI PUSH2 0xA2E PUSH2 0x10CE JUMP JUMPDEST JUMPDEST PUSH1 0x20 MUL PUSH1 0x20 ADD ADD DUP2 SWAP1 MSTORE POP PUSH1 0x40 MLOAD DUP1 PUSH1 0x40 ADD PUSH1 0x40 MSTORE DUP1 PUSH2 0x190 DUP2 MSTORE PUSH1 0x20 ADD PUSH1 0x40 MLOAD DUP1 PUSH1 0x40 ADD PUSH1 0x40 MSTORE DUP1 PUSH1 0x2 DUP2 MSTORE PUSH1 0x20 ADD PUSH32 0x4344000000000000000000000000000000000000000000000000000000000000 DUP2 MSTORE POP DUP2 MSTORE POP DUP2 PUSH1 0x3 DUP2 MLOAD DUP2 LT PUSH2 0xA9A JUMPI PUSH2 0xA99 PUSH2 0x10CE JUMP JUMPDEST JUMPDEST PUSH1 0x20 MUL PUSH1 0x20 ADD ADD DUP2 SWAP1 MSTORE POP PUSH1 0x40 MLOAD DUP1 PUSH1 0x40 ADD PUSH1 0x40 MSTORE DUP1 PUSH1 0x64 DUP2 MSTORE PUSH1 0x20 ADD PUSH1 0x40 MLOAD DUP1 PUSH1 0x40 ADD PUSH1 0x40 MSTORE DUP1 PUSH1 0x1 DUP2 MSTORE PUSH1 0x20 ADD PUSH32 0x4300000000000000000000000000000000000000000000000000000000000000 DUP2 MSTORE POP DUP2 MSTORE POP DUP2 PUSH1 0x4 DUP2 MLOAD DUP2 LT PUSH2 0xB04 JUMPI PUSH2 0xB03 PUSH2 0x10CE JUMP JUMPDEST JUMPDEST PUSH1 0x20 MUL PUSH1 0x20 ADD ADD DUP2 SWAP1 MSTORE POP PUSH1 0x40 MLOAD DUP1 PUSH1 0x40 ADD PUSH1 0x40 MSTORE DUP1 PUSH1 0x5A DUP2 MSTORE PUSH1 0x20 ADD PUSH1 0x40 MLOAD DUP1 PUSH1 0x40 ADD PUSH1 0x40 MSTORE DUP1 PUSH1 0x2 DUP2 MSTORE PUSH1 0x20 ADD PUSH32 0x5843000000000000000000000000000000000000000000000000000000000000 DUP2 MSTORE POP DUP2 MSTORE POP DUP2 PUSH1 0x5 DUP2 MLOAD DUP2 LT PUSH2 0xB6E JUMPI PUSH2 0xB6D PUSH2 0x10CE JUMP JUMPDEST JUMPDEST PUSH1 0x20 MUL PUSH1 0x20 ADD ADD DUP2 SWAP1 MSTORE POP PUSH1 0x40 MLOAD DUP1 PUSH1 0x40 ADD PUSH1 0x40 MSTORE DUP1 PUSH1 0x32 DUP2 MSTORE PUSH1 0x20 ADD PUSH1 0x40 MLOAD DUP1 PUSH1 0x40 ADD PUSH1 0x40 MSTORE DUP1 PUSH1 0x1 DUP2 MSTORE PUSH1 0x20 ADD PUSH32 0x4C00000000000000000000000000000000000000000000000000000000000000 DUP2 MSTORE POP DUP2 MSTORE POP DUP2 PUSH1 0x6 DUP2 MLOAD DUP2 LT PUSH2 0xBD8 JUMPI PUSH2 0xBD7 PUSH2 0x10CE JUMP JUMPDEST JUMPDEST PUSH1 0x20 MUL PUSH1 0x20 ADD ADD DUP2 SWAP1 MSTORE POP PUSH1 0x40 MLOAD DUP1 PUSH1 0x40 ADD PUSH1 0x40 MSTORE DUP1 PUSH1 0x28 DUP2 MSTORE PUSH1 0x20 ADD PUSH1 0x40 MLOAD DUP1 PUSH1 0x40 ADD PUSH1 0x40 MSTORE DUP1 PUSH1 0x2 DUP2 MSTORE PUSH1 0x20 ADD PUSH32 0x584C000000000000000000000000000000000000000000000000000000000000 DUP2 MSTORE POP DUP2 MSTORE POP DUP2 PUSH1 0x7 DUP2 MLOAD DUP2 LT PUSH2 0xC42 JUMPI PUSH2 0xC41 PUSH2 0x10CE JUMP JUMPDEST JUMPDEST PUSH1 0x20 MUL PUSH1 0x20 ADD ADD DUP2 SWAP1 MSTORE POP PUSH1 0x40 MLOAD DUP1 PUSH1 0x40 ADD PUSH1 0x40 MSTORE DUP1 PUSH1 0xA DUP2 MSTORE PUSH1 0x20 ADD PUSH1 0x40 MLOAD DUP1 PUSH1 0x40 ADD PUSH1 0x40 MSTORE DUP1 PUSH1 0x1 DUP2 MSTORE PUSH1 0x20 ADD PUSH32 0x5800000000000000000000000000000000000000000000000000000000000000 DUP2 MSTORE POP DUP2 MSTORE POP DUP2 PUSH1 0x8 DUP2 MLOAD DUP2 LT PUSH2 0xCAC JUMPI PUSH2 0xCAB PUSH2 0x10CE JUMP JUMPDEST JUMPDEST PUSH1 0x20 MUL PUSH1 0x20 ADD ADD DUP2 SWAP1 MSTORE POP PUSH1 0x40 MLOAD DUP1 PUSH1 0x40 ADD PUSH1 0x40 MSTORE DUP1 PUSH1 0x9 DUP2 MSTORE PUSH1 0x20 ADD PUSH1 0x40 MLOAD DUP1 PUSH1 0x40 ADD PUSH1 0x40 MSTORE DUP1 PUSH1 0x2 DUP2 MSTORE PUSH1 0x20 ADD PUSH32 0x4958000000000000000000000000000000000000000000000000000000000000 DUP2 MSTORE POP DUP2 MSTORE POP DUP2 PUSH1 0x9 DUP2 MLOAD DUP2 LT PUSH2 0xD16 JUMPI PUSH2 0xD15 PUSH2 0x10CE JUMP JUMPDEST JUMPDEST PUSH1 0x20 MUL PUSH1 0x20 ADD ADD DUP2 SWAP1 MSTORE POP PUSH1 0x40 MLOAD DUP1 PUSH1 0x40 ADD PUSH1 0x40 MSTORE DUP1 PUSH1 0x5 DUP2 MSTORE PUSH1 0x20 ADD PUSH1 0x40 MLOAD DUP1 PUSH1 0x40 ADD PUSH1 0x40 MSTORE DUP1 PUSH1 0x1 DUP2 MSTORE PUSH1 0x20 ADD PUSH32 0x5600000000000000000000000000000000000000000000000000000000000000 DUP2 MSTORE POP DUP2 MSTORE POP DUP2 PUSH1 0xA DUP2 MLOAD DUP2 LT PUSH2 0xD80 JUMPI PUSH2 0xD7F PUSH2 0x10CE JUMP JUMPDEST JUMPDEST PUSH1 0x20 MUL PUSH1 0x20 ADD ADD DUP2 SWAP1 MSTORE POP PUSH1 0x40 MLOAD DUP1 PUSH1 0x40 ADD PUSH1 0x40 MSTORE DUP1 PUSH1 0x4 DUP2 MSTORE PUSH1 0x20 ADD PUSH1 0x40 MLOAD DUP1 PUSH1 0x40 ADD PUSH1 0x40 MSTORE DUP1 PUSH1 0x2 DUP2 MSTORE PUSH1 0x20 ADD PUSH32 0x4956000000000000000000000000000000000000000000000000000000000000 DUP2 MSTORE POP DUP2 MSTORE POP DUP2 PUSH1 0xB DUP2 MLOAD DUP2 LT PUSH2 0xDEA JUMPI PUSH2 0xDE9 PUSH2 0x10CE JUMP JUMPDEST JUMPDEST PUSH1 0x20 MUL PUSH1 0x20 ADD ADD DUP2 SWAP1 MSTORE POP PUSH1 0x40 MLOAD DUP1 PUSH1 0x40 ADD PUSH1 0x40 MSTORE DUP1 PUSH1 0x1 DUP2 MSTORE PUSH1 0x20 ADD PUSH1 0x40 MLOAD DUP1 PUSH1 0x40 ADD PUSH1 0x40 MSTORE DUP1 PUSH1 0x1 DUP2 MSTORE PUSH1 0x20 ADD PUSH32 0x4900000000000000000000000000000000000000000000000000000000000000 DUP2 MSTORE POP DUP2 MSTORE POP DUP2 PUSH1 0xC DUP2 MLOAD DUP2 LT PUSH2 0xE54 JUMPI PUSH2 0xE53 PUSH2 0x10CE JUMP JUMPDEST JUMPDEST PUSH1 0x20 MUL PUSH1 0x20 ADD ADD DUP2 SWAP1 MSTORE POP PUSH0 PUSH1 0x40 MLOAD DUP1 PUSH1 0x20 ADD PUSH1 0x40 MSTORE DUP1 PUSH0 DUP2 MSTORE POP SWAP1 POP PUSH0 PUSH0 SWAP1 POP JUMPDEST DUP3 MLOAD DUP2 LT ISZERO PUSH2 0xF23 JUMPI JUMPDEST DUP3 DUP2 DUP2 MLOAD DUP2 LT PUSH2 0xE93 JUMPI PUSH2 0xE92 PUSH2 0x10CE JUMP JUMPDEST JUMPDEST PUSH1 0x20 MUL PUSH1 0x20 ADD ADD MLOAD PUSH0 ADD MLOAD DUP6 LT PUSH2 0xF16 JUMPI DUP2 DUP4 DUP3 DUP2 MLOAD DUP2 LT PUSH2 0xEB8 JUMPI PUSH2 0xEB7 PUSH2 0x10CE JUMP JUMPDEST JUMPDEST PUSH1 0x20 MUL PUSH1 0x20 ADD ADD MLOAD PUSH1 0x20 ADD MLOAD PUSH1 0x40 MLOAD PUSH1 0x20 ADD PUSH2 0xED5 SWAP3 SWAP2 SWAP1 PUSH2 0x128A JUMP JUMPDEST PUSH1 0x40 MLOAD PUSH1 0x20 DUP2 DUP4 SUB SUB DUP2 MSTORE SWAP1 PUSH1 0x40 MSTORE SWAP2 POP DUP3 DUP2 DUP2 MLOAD DUP2 LT PUSH2 0xEF9 JUMPI PUSH2 0xEF8 PUSH2 0x10CE JUMP JUMPDEST JUMPDEST PUSH1 0x20 MUL PUSH1 0x20 ADD ADD MLOAD PUSH0 ADD MLOAD DUP6 PUSH2 0xF0F SWAP2 SWAP1 PUSH2 0x1128 JUMP JUMPDEST SWAP5 POP PUSH2 0xE80 JUMP JUMPDEST DUP1 DUP1 PUSH1 0x1 ADD SWAP2 POP POP PUSH2 0xE76 JUMP JUMPDEST POP DUP1 SWAP3 POP POP POP SWAP2 SWAP1 POP JUMP JUMPDEST PUSH1 0x40 MLOAD DUP1 PUSH1 0x40 ADD PUSH1 0x40 MSTORE DUP1 PUSH0 DUP2 MSTORE PUSH1 0x20 ADD PUSH1 0x60 DUP2 MSTORE POP SWAP1 JUMP JUMPDEST PUSH0 PUSH0 REVERT JUMPDEST PUSH0 DUP2 SWAP1 POP SWAP2 SWAP1 POP JUMP JUMPDEST PUSH2 0xF5D DUP2 PUSH2 0xF4B JUMP JUMPDEST DUP2 EQ PUSH2 0xF67 JUMPI PUSH0 PUSH0 REVERT JUMPDEST POP JUMP JUMPDEST PUSH0 DUP2 CALLDATALOAD SWAP1 POP PUSH2 0xF78 DUP2 PUSH2 0xF54 JUMP JUMPDEST SWAP3 SWAP2 POP POP JUMP JUMPDEST PUSH0 PUSH1 0x20 DUP3 DUP5 SUB SLT ISZERO PUSH2 0xF93 JUMPI PUSH2 0xF92 PUSH2 0xF47 JUMP JUMPDEST JUMPDEST PUSH0 PUSH2 0xFA0 DUP5 DUP3 DUP6 ADD PUSH2 0xF6A JUMP JUMPDEST SWAP2 POP POP SWAP3 SWAP2 POP POP JUMP JUMPDEST PUSH0 DUP2 MLOAD SWAP1 POP SWAP2 SWAP1 POP JUMP JUMPDEST PUSH0 DUP3 DUP3 MSTORE PUSH1 0x20 DUP3 ADD SWAP1 POP SWAP3 SWAP2 POP POP JUMP JUMPDEST DUP3 DUP2 DUP4 MCOPY PUSH0 DUP4 DUP4 ADD MSTORE POP POP POP JUMP JUMPDEST PUSH0 PUSH1 0x1F NOT PUSH1 0x1F DUP4 ADD AND SWAP1 POP SWAP2 SWAP1 POP JUMP JUMPDEST PUSH0 PUSH2 0xFEB DUP3 PUSH2 0xFA9 JUMP JUMPDEST PUSH2 0xFF5 DUP2 DUP6 PUSH2 0xFB3 JUMP JUMPDEST SWAP4 POP PUSH2 0x1005 DUP2 DUP6 PUSH1 0x20 DUP7 ADD PUSH2 0xFC3 JUMP JUMPDEST PUSH2 0x100E DUP2 PUSH2 0xFD1 JUMP JUMPDEST DUP5 ADD SWAP2 POP POP SWAP3 SWAP2 POP POP JUMP JUMPDEST PUSH0 PUSH1 0x20 DUP3 ADD SWAP1 POP DUP2 DUP2 SUB PUSH0 DUP4 ADD MSTORE PUSH2 0x1031 DUP2 DUP5 PUSH2 0xFE1 JUMP JUMPDEST SWAP1 POP SWAP3 SWAP2 POP POP JUMP JUMPDEST PUSH32 0x496E707574206D757374206265206265747765656E203120616E642033393939 PUSH0 DUP3 ADD MSTORE POP JUMP JUMPDEST PUSH0 PUSH2 0x106D PUSH1 0x20 DUP4 PUSH2 0xFB3 JUMP JUMPDEST SWAP2 POP PUSH2 0x1078 DUP3 PUSH2 0x1039 JUMP JUMPDEST PUSH1 0x20 DUP3 ADD SWAP1 POP SWAP2 SWAP1 POP JUMP JUMPDEST PUSH0 PUSH1 0x20 DUP3 ADD SWAP1 POP DUP2 DUP2 SUB PUSH0 DUP4 ADD MSTORE PUSH2 0x109A DUP2 PUSH2 0x1061 JUMP JUMPDEST SWAP1 POP SWAP2 SWAP1 POP JUMP JUMPDEST PUSH32 0x4E487B7100000000000000000000000000000000000000000000000000000000 PUSH0 MSTORE PUSH1 0x41 PUSH1 0x4 MSTORE PUSH1 0x24 PUSH0 REVERT JUMPDEST PUSH32 0x4E487B7100000000000000000000000000000000000000000000000000000000 PUSH0 MSTORE PUSH1 0x32 PUSH1 0x4 MSTORE PUSH1 0x24 PUSH0 REVERT JUMPDEST PUSH32 0x4E487B7100000000000000000000000000000000000000000000000000000000 PUSH0 MSTORE PUSH1 0x11 PUSH1 0x4 MSTORE PUSH1 0x24 PUSH0 REVERT JUMPDEST PUSH0 PUSH2 0x1132 DUP3 PUSH2 0xF4B JUMP JUMPDEST SWAP2 POP PUSH2 0x113D DUP4 PUSH2 0xF4B JUMP JUMPDEST SWAP3 POP DUP3 DUP3 SUB SWAP1 POP DUP2 DUP2 GT ISZERO PUSH2 0x1155 JUMPI PUSH2 0x1154 PUSH2 0x10FB JUMP JUMPDEST JUMPDEST SWAP3 SWAP2 POP POP JUMP JUMPDEST PUSH0 DUP2 MLOAD SWAP1 POP SWAP2 SWAP1 POP JUMP JUMPDEST PUSH0 DUP2 SWAP1 POP SWAP3 SWAP2 POP POP JUMP JUMPDEST PUSH0 PUSH2 0x1179 DUP3 PUSH2 0x115B JUMP JUMPDEST PUSH2 0x1183 DUP2 DUP6 PUSH2 0x1165 JUMP JUMPDEST SWAP4 POP PUSH2 0x1193 DUP2 DUP6 PUSH1 0x20 DUP7 ADD PUSH2 0xFC3 JUMP JUMPDEST DUP1 DUP5 ADD SWAP2 POP POP SWAP3 SWAP2 POP POP JUMP JUMPDEST PUSH0 DUP2 SWAP1 POP SWAP3 SWAP2 POP POP JUMP JUMPDEST PUSH0 PUSH2 0x11B3 DUP3 PUSH2 0xFA9 JUMP JUMPDEST PUSH2 0x11BD DUP2 DUP6 PUSH2 0x119F JUMP JUMPDEST SWAP4 POP PUSH2 0x11CD DUP2 DUP6 PUSH1 0x20 DUP7 ADD PUSH2 0xFC3 JUMP JUMPDEST DUP1 DUP5 ADD SWAP2 POP POP SWAP3 SWAP2 POP POP JUMP JUMPDEST PUSH0 PUSH2 0x11E4 DUP3 DUP6 PUSH2 0x116F JUMP JUMPDEST SWAP2 POP PUSH2 0x11F0 DUP3 DUP5 PUSH2 0x11A9 JUMP JUMPDEST SWAP2 POP DUP2 SWAP1 POP SWAP4 SWAP3 POP POP POP JUMP JUMPDEST PUSH32 0x4E756D626572206D757374206265206265747765656E203120616E6420333939 PUSH0 DUP3 ADD MSTORE PUSH32 0x3900000000000000000000000000000000000000000000000000000000000000 PUSH1 0x20 DUP3 ADD MSTORE POP JUMP JUMPDEST PUSH0 PUSH2 0x1256 PUSH1 0x21 DUP4 PUSH2 0xFB3 JUMP JUMPDEST SWAP2 POP PUSH2 0x1261 DUP3 PUSH2 0x11FC JUMP JUMPDEST PUSH1 0x40 DUP3 ADD SWAP1 POP SWAP2 SWAP1 POP JUMP JUMPDEST PUSH0 PUSH1 0x20 DUP3 ADD SWAP1 POP DUP2 DUP2 SUB PUSH0 DUP4 ADD MSTORE PUSH2 0x1283 DUP2 PUSH2 0x124A JUMP JUMPDEST SWAP1 POP SWAP2 SWAP1 POP JUMP JUMPDEST PUSH0 PUSH2 0x1295 DUP3 DUP6 PUSH2 0x11A9 JUMP JUMPDEST SWAP2 POP PUSH2 0x12A1 DUP3 DUP5 PUSH2 0x11A9 JUMP JUMPDEST SWAP2 POP DUP2 SWAP1 POP SWAP4 SWAP3 POP POP POP JUMP INVALID LOG2 PUSH5 0x6970667358 0x22 SLT KECCAK256 ADDMOD 0xB2 PUSH30 0x41F2BFE9346810D9E004E8497CFA35EBB5F11FD16CB096749619D313B264 PUSH20 0x6F6C634300081E00330000000000000000000000 "
				},
				"gasEstimates": {
					"creation": {
						"codeDepositCost": "967000",
						"executionCost": "1006",
						"totalCost": "968006"
					},
					"external": {
						"intToRoman(uint256)": "infinite",
						"intToRomanV2(uint256)": "infinite"
					}
				},
				"methodIdentifiers": {
					"intToRoman(uint256)": "0cbc513a",
					"intToRomanV2(uint256)": "c220a93b"
				}
			},
			"storageLayout": {
				"storage": [],
				"types": null
			},
			"userdoc": {
				"kind": "user",
				"methods": {},
				"version": 1
			}
		}
	}
}