{
	"contracts/SimpleNFT.sol": {
		"SimpleNFT": {
			"abi": [
				{
					"anonymous": false,
					"inputs": [
						{
							"indexed": true,
							"internalType": "address",
							"name": "from",
							"type": "address"
						},
						{
							"indexed": true,
							"internalType": "address",
							"name": "to",
							"type": "address"
						},
						{
							"indexed": true,
							"internalType": "uint256",
							"name": "tokenId",
							"type": "uint256"
						}
					],
					"name": "Transfer",
					"type": "event"
				},
				{
					"inputs": [
						{
							"internalType": "address",
							"name": "",
							"type": "address"
						}
					],
					"name": "balanceOf",
					"outputs": [
						{
							"internalType": "uint256",
							"name": "",
							"type": "uint256"
						}
					],
					"stateMutability": "view",
					"type": "function"
				},
				{
					"inputs": [
						{
							"internalType": "uint256",
							"name": "count",
							"type": "uint256"
						}
					],
					"name": "getBatchMintInfo",
					"outputs": [
						{
							"internalType": "string",
							"name": "",
							"type": "string"
						}
					],
					"stateMutability": "pure",
					"type": "function"
				},
				{
					"inputs": [
						{
							"internalType": "uint256",
							"name": "tokenId",
							"type": "uint256"
						}
					],
					"name": "getOwnerInfo",
					"outputs": [
						{
							"internalType": "string",
							"name": "",
							"type": "string"
						}
					],
					"stateMutability": "view",
					"type": "function"
				},
				{
					"inputs": [
						{
							"internalType": "address",
							"name": "to",
							"type": "address"
						}
					],
					"name": "mint",
					"outputs": [
						{
							"internalType": "uint256",
							"name": "",
							"type": "uint256"
						}
					],
					"stateMutability": "nonpayable",
					"type": "function"
				},
				{
					"inputs": [],
					"name": "name",
					"outputs": [
						{
							"internalType": "string",
							"name": "",
							"type": "string"
						}
					],
					"stateMutability": "view",
					"type": "function"
				},
				{
					"inputs": [
						{
							"internalType": "uint256",
							"name": "",
							"type": "uint256"
						}
					],
					"name": "ownerOf",
					"outputs": [
						{
							"internalType": "address",
							"name": "",
							"type": "address"
						}
					],
					"stateMutability": "view",
					"type": "function"
				},
				{
					"inputs": [],
					"name": "symbol",
					"outputs": [
						{
							"internalType": "string",
							"name": "",
							"type": "string"
						}
					],
					"stateMutability": "view",
					"type": "function"
				},
				{
					"inputs": [
						{
							"internalType": "uint256",
							"name": "tokenId",
							"type": "uint256"
						}
					],
					"name": "tokenURI",
					"outputs": [
						{
							"internalType": "string",
							"name": "",
							"type": "string"
						}
					],
					"stateMutability": "view",
					"type": "function"
				},
				{
					"inputs": [],
					"name": "totalSupply",
					"outputs": [
						{
							"internalType": "uint256",
							"name": "",
							"type": "uint256"
						}
					],
					"stateMutability": "view",
					"type": "function"
				}
			],
			"devdoc": {
				"kind": "dev",
				"methods": {},
				"version": 1
			},
			"evm": {
				"assembly": "    /* \"contracts/SimpleNFT.sol\":1463:3505  contract SimpleNFT {... */\n  mstore(0x40, 0x80)\n    /* \"contracts/SimpleNFT.sol\":1556:1596  string public name = \"My NFT Collection\" */\n  mload(0x40)\n  dup1\n  0x40\n  add\n  0x40\n  mstore\n  dup1\n  0x11\n  dup2\n  mstore\n  0x20\n  add\n  0x4d79204e465420436f6c6c656374696f6e000000000000000000000000000000\n  dup2\n  mstore\n  pop\n  0x00\n  swap1\n  dup2\n  tag_1\n  swap2\n  swap1\n  tag_2\n  jump\t// in\ntag_1:\n  pop\n    /* \"contracts/SimpleNFT.sol\":1602:1631  string public symbol = \"MNFT\" */\n  mload(0x40)\n  dup1\n  0x40\n  add\n  0x40\n  mstore\n  dup1\n  0x04\n  dup2\n  mstore\n  0x20\n  add\n  0x4d4e465400000000000000000000000000000000000000000000000000000000\n  dup2\n  mstore\n  pop\n  0x01\n  swap1\n  dup2\n  tag_3\n  swap2\n  swap1\n  tag_2\n  jump\t// in\ntag_3:\n  pop\n    /* \"contracts/SimpleNFT.sol\":1463:3505  contract SimpleNFT {... */\n  callvalue\n  dup1\n  iszero\n  tag_4\n  jumpi\n  revert(0x00, 0x00)\ntag_4:\n  pop\n  jump(tag_5)\n    /* \"#utility.yul\":7:106   */\ntag_6:\n    /* \"#utility.yul\":59:65   */\n  0x00\n    /* \"#utility.yul\":93:98   */\n  dup2\n    /* \"#utility.yul\":87:99   */\n  mload\n    /* \"#utility.yul\":77:99   */\n  swap1\n  pop\n    /* \"#utility.yul\":7:106   */\n  swap2\n  swap1\n  pop\n  jump\t// out\n    /* \"#utility.yul\":112:292   */\ntag_7:\n    /* \"#utility.yul\":160:237   */\n  0x4e487b7100000000000000000000000000000000000000000000000000000000\n    /* \"#utility.yul\":157:158   */\n  0x00\n    /* \"#utility.yul\":150:238   */\n  mstore\n    /* \"#utility.yul\":257:261   */\n  0x41\n    /* \"#utility.yul\":254:255   */\n  0x04\n    /* \"#utility.yul\":247:262   */\n  mstore\n    /* \"#utility.yul\":281:285   */\n  0x24\n    /* \"#utility.yul\":278:279   */\n  0x00\n    /* \"#utility.yul\":271:286   */\n  revert\n    /* \"#utility.yul\":298:478   */\ntag_8:\n    /* \"#utility.yul\":346:423   */\n  0x4e487b7100000000000000000000000000000000000000000000000000000000\n    /* \"#utility.yul\":343:344   */\n  0x00\n    /* \"#utility.yul\":336:424   */\n  mstore\n    /* \"#utility.yul\":443:447   */\n  0x22\n    /* \"#utility.yul\":440:441   */\n  0x04\n    /* \"#utility.yul\":433:448   */\n  mstore\n    /* \"#utility.yul\":467:471   */\n  0x24\n    /* \"#utility.yul\":464:465   */\n  0x00\n    /* \"#utility.yul\":457:472   */\n  revert\n    /* \"#utility.yul\":484:804   */\ntag_9:\n    /* \"#utility.yul\":528:534   */\n  0x00\n    /* \"#utility.yul\":565:566   */\n  0x02\n    /* \"#utility.yul\":559:563   */\n  dup3\n    /* \"#utility.yul\":555:567   */\n  div\n    /* \"#utility.yul\":545:567   */\n  swap1\n  pop\n    /* \"#utility.yul\":612:613   */\n  0x01\n    /* \"#utility.yul\":606:610   */\n  dup3\n    /* \"#utility.yul\":602:614   */\n  and\n    /* \"#utility.yul\":633:651   */\n  dup1\n    /* \"#utility.yul\":623:704   */\n  tag_31\n  jumpi\n    /* \"#utility.yul\":689:693   */\n  0x7f\n    /* \"#utility.yul\":681:687   */\n  dup3\n    /* \"#utility.yul\":677:694   */\n  and\n    /* \"#utility.yul\":667:694   */\n  swap2\n  pop\n    /* \"#utility.yul\":623:704   */\ntag_31:\n    /* \"#utility.yul\":751:753   */\n  0x20\n    /* \"#utility.yul\":743:749   */\n  dup3\n    /* \"#utility.yul\":740:754   */\n  lt\n    /* \"#utility.yul\":720:738   */\n  dup2\n    /* \"#utility.yul\":717:755   */\n  sub\n    /* \"#utility.yul\":714:798   */\n  tag_32\n  jumpi\n    /* \"#utility.yul\":770:788   */\n  tag_33\n  tag_8\n  jump\t// in\ntag_33:\n    /* \"#utility.yul\":714:798   */\ntag_32:\n    /* \"#utility.yul\":535:804   */\n  pop\n    /* \"#utility.yul\":484:804   */\n  swap2\n  swap1\n  pop\n  jump\t// out\n    /* \"#utility.yul\":810:951   */\ntag_10:\n    /* \"#utility.yul\":859:863   */\n  0x00\n    /* \"#utility.yul\":882:885   */\n  dup2\n    /* \"#utility.yul\":874:885   */\n  swap1\n  pop\n    /* \"#utility.yul\":905:908   */\n  dup2\n    /* \"#utility.yul\":902:903   */\n  0x00\n    /* \"#utility.yul\":895:909   */\n  mstore\n    /* \"#utility.yul\":939:943   */\n  0x20\n    /* \"#utility.yul\":936:937   */\n  0x00\n    /* \"#utility.yul\":926:944   */\n  keccak256\n    /* \"#utility.yul\":918:944   */\n  swap1\n  pop\n    /* \"#utility.yul\":810:951   */\n  swap2\n  swap1\n  pop\n  jump\t// out\n    /* \"#utility.yul\":957:1050   */\ntag_11:\n    /* \"#utility.yul\":994:1000   */\n  0x00\n    /* \"#utility.yul\":1041:1043   */\n  0x20\n    /* \"#utility.yul\":1036:1038   */\n  0x1f\n    /* \"#utility.yul\":1029:1034   */\n  dup4\n    /* \"#utility.yul\":1025:1039   */\n  add\n    /* \"#utility.yul\":1021:1044   */\n  div\n    /* \"#utility.yul\":1011:1044   */\n  swap1\n  pop\n    /* \"#utility.yul\":957:1050   */\n  swap2\n  swap1\n  pop\n  jump\t// out\n    /* \"#utility.yul\":1056:1163   */\ntag_12:\n    /* \"#utility.yul\":1100:1108   */\n  0x00\n    /* \"#utility.yul\":1150:1155   */\n  dup3\n    /* \"#utility.yul\":1144:1148   */\n  dup3\n    /* \"#utility.yul\":1140:1156   */\n  shl\n    /* \"#utility.yul\":1119:1156   */\n  swap1\n  pop\n    /* \"#utility.yul\":1056:1163   */\n  swap3\n  swap2\n  pop\n  pop\n  jump\t// out\n    /* \"#utility.yul\":1169:1562   */\ntag_13:\n    /* \"#utility.yul\":1238:1244   */\n  0x00\n    /* \"#utility.yul\":1288:1289   */\n  0x08\n    /* \"#utility.yul\":1276:1286   */\n  dup4\n    /* \"#utility.yul\":1272:1290   */\n  mul\n    /* \"#utility.yul\":1311:1408   */\n  tag_38\n    /* \"#utility.yul\":1341:1407   */\n  0xffffffffffffffffffffffffffffffffffffffffffffffffffffffffffffffff\n    /* \"#utility.yul\":1330:1339   */\n  dup3\n    /* \"#utility.yul\":1311:1408   */\n  tag_12\n  jump\t// in\ntag_38:\n    /* \"#utility.yul\":1429:1468   */\n  tag_39\n    /* \"#utility.yul\":1459:1467   */\n  dup7\n    /* \"#utility.yul\":1448:1457   */\n  dup4\n    /* \"#utility.yul\":1429:1468   */\n  tag_12\n  jump\t// in\ntag_39:\n    /* \"#utility.yul\":1417:1468   */\n  swap6\n  pop\n    /* \"#utility.yul\":1501:1505   */\n  dup1\n    /* \"#utility.yul\":1497:1506   */\n  not\n    /* \"#utility.yul\":1490:1495   */\n  dup5\n    /* \"#utility.yul\":1486:1507   */\n  and\n    /* \"#utility.yul\":1477:1507   */\n  swap4\n  pop\n    /* \"#utility.yul\":1550:1554   */\n  dup1\n    /* \"#utility.yul\":1540:1548   */\n  dup7\n    /* \"#utility.yul\":1536:1555   */\n  and\n    /* \"#utility.yul\":1529:1534   */\n  dup5\n    /* \"#utility.yul\":1526:1556   */\n  or\n    /* \"#utility.yul\":1516:1556   */\n  swap3\n  pop\n    /* \"#utility.yul\":1245:1562   */\n  pop\n  pop\n    /* \"#utility.yul\":1169:1562   */\n  swap4\n  swap3\n  pop\n  pop\n  pop\n  jump\t// out\n    /* \"#utility.yul\":1568:1645   */\ntag_14:\n    /* \"#utility.yul\":1605:1612   */\n  0x00\n    /* \"#utility.yul\":1634:1639   */\n  dup2\n    /* \"#utility.yul\":1623:1639   */\n  swap1\n  pop\n    /* \"#utility.yul\":1568:1645   */\n  swap2\n  swap1\n  pop\n  jump\t// out\n    /* \"#utility.yul\":1651:1711   */\ntag_15:\n    /* \"#utility.yul\":1679:1682   */\n  0x00\n    /* \"#utility.yul\":1700:1705   */\n  dup2\n    /* \"#utility.yul\":1693:1705   */\n  swap1\n  pop\n    /* \"#utility.yul\":1651:1711   */\n  swap2\n  swap1\n  pop\n  jump\t// out\n    /* \"#utility.yul\":1717:1859   */\ntag_16:\n    /* \"#utility.yul\":1767:1776   */\n  0x00\n    /* \"#utility.yul\":1800:1853   */\n  tag_43\n    /* \"#utility.yul\":1818:1852   */\n  tag_44\n    /* \"#utility.yul\":1827:1851   */\n  tag_45\n    /* \"#utility.yul\":1845:1850   */\n  dup5\n    /* \"#utility.yul\":1827:1851   */\n  tag_14\n  jump\t// in\ntag_45:\n    /* \"#utility.yul\":1818:1852   */\n  tag_15\n  jump\t// in\ntag_44:\n    /* \"#utility.yul\":1800:1853   */\n  tag_14\n  jump\t// in\ntag_43:\n    /* \"#utility.yul\":1787:1853   */\n  swap1\n  pop\n    /* \"#utility.yul\":1717:1859   */\n  swap2\n  swap1\n  pop\n  jump\t// out\n    /* \"#utility.yul\":1865:1940   */\ntag_17:\n    /* \"#utility.yul\":1908:1911   */\n  0x00\n    /* \"#utility.yul\":1929:1934   */\n  dup2\n    /* \"#utility.yul\":1922:1934   */\n  swap1\n  pop\n    /* \"#utility.yul\":1865:1940   */\n  swap2\n  swap1\n  pop\n  jump\t// out\n    /* \"#utility.yul\":1946:2215   */\ntag_18:\n    /* \"#utility.yul\":2056:2095   */\n  tag_48\n    /* \"#utility.yul\":2087:2094   */\n  dup4\n    /* \"#utility.yul\":2056:2095   */\n  tag_16\n  jump\t// in\ntag_48:\n    /* \"#utility.yul\":2117:2208   */\n  tag_49\n    /* \"#utility.yul\":2166:2207   */\n  tag_50\n    /* \"#utility.yul\":2190:2206   */\n  dup3\n    /* \"#utility.yul\":2166:2207   */\n  tag_17\n  jump\t// in\ntag_50:\n    /* \"#utility.yul\":2158:2164   */\n  dup5\n    /* \"#utility.yul\":2151:2155   */\n  dup5\n    /* \"#utility.yul\":2145:2156   */\n  sload\n    /* \"#utility.yul\":2117:2208   */\n  tag_13\n  jump\t// in\ntag_49:\n    /* \"#utility.yul\":2111:2115   */\n  dup3\n    /* \"#utility.yul\":2104:2209   */\n  sstore\n    /* \"#utility.yul\":2022:2215   */\n  pop\n    /* \"#utility.yul\":1946:2215   */\n  pop\n  pop\n  pop\n  jump\t// out\n    /* \"#utility.yul\":2221:2294   */\ntag_19:\n    /* \"#utility.yul\":2266:2269   */\n  0x00\n    /* \"#utility.yul\":2287:2288   */\n  0x00\n    /* \"#utility.yul\":2280:2288   */\n  swap1\n  pop\n    /* \"#utility.yul\":2221:2294   */\n  swap1\n  jump\t// out\n    /* \"#utility.yul\":2300:2489   */\ntag_20:\n    /* \"#utility.yul\":2377:2409   */\n  tag_53\n  tag_19\n  jump\t// in\ntag_53:\n    /* \"#utility.yul\":2418:2483   */\n  tag_54\n    /* \"#utility.yul\":2476:2482   */\n  dup2\n    /* \"#utility.yul\":2468:2474   */\n  dup5\n    /* \"#utility.yul\":2462:2466   */\n  dup5\n    /* \"#utility.yul\":2418:2483   */\n  tag_18\n  jump\t// in\ntag_54:\n    /* \"#utility.yul\":2353:2489   */\n  pop\n    /* \"#utility.yul\":2300:2489   */\n  pop\n  pop\n  jump\t// out\n    /* \"#utility.yul\":2495:2681   */\ntag_21:\n    /* \"#utility.yul\":2555:2675   */\ntag_56:\n    /* \"#utility.yul\":2572:2575   */\n  dup2\n    /* \"#utility.yul\":2565:2570   */\n  dup2\n    /* \"#utility.yul\":2562:2576   */\n  lt\n    /* \"#utility.yul\":2555:2675   */\n  iszero\n  tag_58\n  jumpi\n    /* \"#utility.yul\":2626:2665   */\n  tag_59\n    /* \"#utility.yul\":2663:2664   */\n  0x00\n    /* \"#utility.yul\":2656:2661   */\n  dup3\n    /* \"#utility.yul\":2626:2665   */\n  tag_20\n  jump\t// in\ntag_59:\n    /* \"#utility.yul\":2599:2600   */\n  0x01\n    /* \"#utility.yul\":2592:2597   */\n  dup2\n    /* \"#utility.yul\":2588:2601   */\n  add\n    /* \"#utility.yul\":2579:2601   */\n  swap1\n  pop\n    /* \"#utility.yul\":2555:2675   */\n  jump(tag_56)\ntag_58:\n    /* \"#utility.yul\":2495:2681   */\n  pop\n  pop\n  jump\t// out\n    /* \"#utility.yul\":2687:3230   */\ntag_22:\n    /* \"#utility.yul\":2788:2790   */\n  0x1f\n    /* \"#utility.yul\":2783:2786   */\n  dup3\n    /* \"#utility.yul\":2780:2791   */\n  gt\n    /* \"#utility.yul\":2777:3223   */\n  iszero\n  tag_61\n  jumpi\n    /* \"#utility.yul\":2822:2860   */\n  tag_62\n    /* \"#utility.yul\":2854:2859   */\n  dup2\n    /* \"#utility.yul\":2822:2860   */\n  tag_10\n  jump\t// in\ntag_62:\n    /* \"#utility.yul\":2906:2935   */\n  tag_63\n    /* \"#utility.yul\":2924:2934   */\n  dup5\n    /* \"#utility.yul\":2906:2935   */\n  tag_11\n  jump\t// in\ntag_63:\n    /* \"#utility.yul\":2896:2904   */\n  dup2\n    /* \"#utility.yul\":2892:2936   */\n  add\n    /* \"#utility.yul\":3089:3091   */\n  0x20\n    /* \"#utility.yul\":3077:3087   */\n  dup6\n    /* \"#utility.yul\":3074:3092   */\n  lt\n    /* \"#utility.yul\":3071:3120   */\n  iszero\n  tag_64\n  jumpi\n    /* \"#utility.yul\":3110:3118   */\n  dup2\n    /* \"#utility.yul\":3095:3118   */\n  swap1\n  pop\n    /* \"#utility.yul\":3071:3120   */\ntag_64:\n    /* \"#utility.yul\":3133:3213   */\n  tag_65\n    /* \"#utility.yul\":3189:3211   */\n  tag_66\n    /* \"#utility.yul\":3207:3210   */\n  dup6\n    /* \"#utility.yul\":3189:3211   */\n  tag_11\n  jump\t// in\ntag_66:\n    /* \"#utility.yul\":3179:3187   */\n  dup4\n    /* \"#utility.yul\":3175:3212   */\n  add\n    /* \"#utility.yul\":3162:3173   */\n  dup3\n    /* \"#utility.yul\":3133:3213   */\n  tag_21\n  jump\t// in\ntag_65:\n    /* \"#utility.yul\":2792:3223   */\n  pop\n  pop\n    /* \"#utility.yul\":2777:3223   */\ntag_61:\n    /* \"#utility.yul\":2687:3230   */\n  pop\n  pop\n  pop\n  jump\t// out\n    /* \"#utility.yul\":3236:3353   */\ntag_23:\n    /* \"#utility.yul\":3290:3298   */\n  0x00\n    /* \"#utility.yul\":3340:3345   */\n  dup3\n    /* \"#utility.yul\":3334:3338   */\n  dup3\n    /* \"#utility.yul\":3330:3346   */\n  shr\n    /* \"#utility.yul\":3309:3346   */\n  swap1\n  pop\n    /* \"#utility.yul\":3236:3353   */\n  swap3\n  swap2\n  pop\n  pop\n  jump\t// out\n    /* \"#utility.yul\":3359:3528   */\ntag_24:\n    /* \"#utility.yul\":3403:3409   */\n  0x00\n    /* \"#utility.yul\":3436:3487   */\n  tag_69\n    /* \"#utility.yul\":3484:3485   */\n  0x00\n    /* \"#utility.yul\":3480:3486   */\n  not\n    /* \"#utility.yul\":3472:3477   */\n  dup5\n    /* \"#utility.yul\":3469:3470   */\n  0x08\n    /* \"#utility.yul\":3465:3478   */\n  mul\n    /* \"#utility.yul\":3436:3487   */\n  tag_23\n  jump\t// in\ntag_69:\n    /* \"#utility.yul\":3432:3488   */\n  not\n    /* \"#utility.yul\":3517:3521   */\n  dup1\n    /* \"#utility.yul\":3511:3515   */\n  dup4\n    /* \"#utility.yul\":3507:3522   */\n  and\n    /* \"#utility.yul\":3497:3522   */\n  swap2\n  pop\n    /* \"#utility.yul\":3410:3528   */\n  pop\n    /* \"#utility.yul\":3359:3528   */\n  swap3\n  swap2\n  pop\n  pop\n  jump\t// out\n    /* \"#utility.yul\":3533:3828   */\ntag_25:\n    /* \"#utility.yul\":3609:3613   */\n  0x00\n    /* \"#utility.yul\":3755:3784   */\n  tag_71\n    /* \"#utility.yul\":3780:3783   */\n  dup4\n    /* \"#utility.yul\":3774:3778   */\n  dup4\n    /* \"#utility.yul\":3755:3784   */\n  tag_24\n  jump\t// in\ntag_71:\n    /* \"#utility.yul\":3747:3784   */\n  swap2\n  pop\n    /* \"#utility.yul\":3817:3820   */\n  dup3\n    /* \"#utility.yul\":3814:3815   */\n  0x02\n    /* \"#utility.yul\":3810:3821   */\n  mul\n    /* \"#utility.yul\":3804:3808   */\n  dup3\n    /* \"#utility.yul\":3801:3822   */\n  or\n    /* \"#utility.yul\":3793:3822   */\n  swap1\n  pop\n    /* \"#utility.yul\":3533:3828   */\n  swap3\n  swap2\n  pop\n  pop\n  jump\t// out\n    /* \"#utility.yul\":3833:5228   */\ntag_2:\n    /* \"#utility.yul\":3950:3987   */\n  tag_73\n    /* \"#utility.yul\":3983:3986   */\n  dup3\n    /* \"#utility.yul\":3950:3987   */\n  tag_6\n  jump\t// in\ntag_73:\n    /* \"#utility.yul\":4052:4070   */\n  0xffffffffffffffff\n    /* \"#utility.yul\":4044:4050   */\n  dup2\n    /* \"#utility.yul\":4041:4071   */\n  gt\n    /* \"#utility.yul\":4038:4094   */\n  iszero\n  tag_74\n  jumpi\n    /* \"#utility.yul\":4074:4092   */\n  tag_75\n  tag_7\n  jump\t// in\ntag_75:\n    /* \"#utility.yul\":4038:4094   */\ntag_74:\n    /* \"#utility.yul\":4118:4156   */\n  tag_76\n    /* \"#utility.yul\":4150:4154   */\n  dup3\n    /* \"#utility.yul\":4144:4155   */\n  sload\n    /* \"#utility.yul\":4118:4156   */\n  tag_9\n  jump\t// in\ntag_76:\n    /* \"#utility.yul\":4203:4270   */\n  tag_77\n    /* \"#utility.yul\":4263:4269   */\n  dup3\n    /* \"#utility.yul\":4255:4261   */\n  dup3\n    /* \"#utility.yul\":4249:4253   */\n  dup6\n    /* \"#utility.yul\":4203:4270   */\n  tag_22\n  jump\t// in\ntag_77:\n    /* \"#utility.yul\":4297:4298   */\n  0x00\n    /* \"#utility.yul\":4321:4325   */\n  0x20\n    /* \"#utility.yul\":4308:4325   */\n  swap1\n  pop\n    /* \"#utility.yul\":4353:4355   */\n  0x1f\n    /* \"#utility.yul\":4345:4351   */\n  dup4\n    /* \"#utility.yul\":4342:4356   */\n  gt\n    /* \"#utility.yul\":4370:4371   */\n  0x01\n    /* \"#utility.yul\":4365:4983   */\n  dup2\n  eq\n  tag_79\n  jumpi\n    /* \"#utility.yul\":5027:5028   */\n  0x00\n    /* \"#utility.yul\":5044:5050   */\n  dup5\n    /* \"#utility.yul\":5041:5118   */\n  iszero\n  tag_80\n  jumpi\n    /* \"#utility.yul\":5093:5102   */\n  dup3\n    /* \"#utility.yul\":5088:5091   */\n  dup8\n    /* \"#utility.yul\":5084:5103   */\n  add\n    /* \"#utility.yul\":5078:5104   */\n  mload\n    /* \"#utility.yul\":5069:5104   */\n  swap1\n  pop\n    /* \"#utility.yul\":5041:5118   */\ntag_80:\n    /* \"#utility.yul\":5144:5211   */\n  tag_81\n    /* \"#utility.yul\":5204:5210   */\n  dup6\n    /* \"#utility.yul\":5197:5202   */\n  dup3\n    /* \"#utility.yul\":5144:5211   */\n  tag_25\n  jump\t// in\ntag_81:\n    /* \"#utility.yul\":5138:5142   */\n  dup7\n    /* \"#utility.yul\":5131:5212   */\n  sstore\n    /* \"#utility.yul\":5000:5222   */\n  pop\n    /* \"#utility.yul\":4335:5222   */\n  jump(tag_78)\n    /* \"#utility.yul\":4365:4983   */\ntag_79:\n    /* \"#utility.yul\":4417:4421   */\n  0x1f\n    /* \"#utility.yul\":4413:4422   */\n  not\n    /* \"#utility.yul\":4405:4411   */\n  dup5\n    /* \"#utility.yul\":4401:4423   */\n  and\n    /* \"#utility.yul\":4451:4488   */\n  tag_82\n    /* \"#utility.yul\":4483:4487   */\n  dup7\n    /* \"#utility.yul\":4451:4488   */\n  tag_10\n  jump\t// in\ntag_82:\n    /* \"#utility.yul\":4510:4511   */\n  0x00\n    /* \"#utility.yul\":4524:4732   */\ntag_83:\n    /* \"#utility.yul\":4538:4545   */\n  dup3\n    /* \"#utility.yul\":4535:4536   */\n  dup2\n    /* \"#utility.yul\":4532:4546   */\n  lt\n    /* \"#utility.yul\":4524:4732   */\n  iszero\n  tag_85\n  jumpi\n    /* \"#utility.yul\":4617:4626   */\n  dup5\n    /* \"#utility.yul\":4612:4615   */\n  dup10\n    /* \"#utility.yul\":4608:4627   */\n  add\n    /* \"#utility.yul\":4602:4628   */\n  mload\n    /* \"#utility.yul\":4594:4600   */\n  dup3\n    /* \"#utility.yul\":4587:4629   */\n  sstore\n    /* \"#utility.yul\":4668:4669   */\n  0x01\n    /* \"#utility.yul\":4660:4666   */\n  dup3\n    /* \"#utility.yul\":4656:4670   */\n  add\n    /* \"#utility.yul\":4646:4670   */\n  swap2\n  pop\n    /* \"#utility.yul\":4715:4717   */\n  0x20\n    /* \"#utility.yul\":4704:4713   */\n  dup6\n    /* \"#utility.yul\":4700:4718   */\n  add\n    /* \"#utility.yul\":4687:4718   */\n  swap5\n  pop\n    /* \"#utility.yul\":4561:4565   */\n  0x20\n    /* \"#utility.yul\":4558:4559   */\n  dup2\n    /* \"#utility.yul\":4554:4566   */\n  add\n    /* \"#utility.yul\":4549:4566   */\n  swap1\n  pop\n    /* \"#utility.yul\":4524:4732   */\n  jump(tag_83)\ntag_85:\n    /* \"#utility.yul\":4760:4766   */\n  dup7\n    /* \"#utility.yul\":4751:4758   */\n  dup4\n    /* \"#utility.yul\":4748:4767   */\n  lt\n    /* \"#utility.yul\":4745:4924   */\n  iszero\n  tag_86\n  jumpi\n    /* \"#utility.yul\":4818:4827   */\n  dup5\n    /* \"#utility.yul\":4813:4816   */\n  dup10\n    /* \"#utility.yul\":4809:4828   */\n  add\n    /* \"#utility.yul\":4803:4829   */\n  mload\n    /* \"#utility.yul\":4861:4909   */\n  tag_87\n    /* \"#utility.yul\":4903:4907   */\n  0x1f\n    /* \"#utility.yul\":4895:4901   */\n  dup10\n    /* \"#utility.yul\":4891:4908   */\n  and\n    /* \"#utility.yul\":4880:4889   */\n  dup3\n    /* \"#utility.yul\":4861:4909   */\n  tag_24\n  jump\t// in\ntag_87:\n    /* \"#utility.yul\":4853:4859   */\n  dup4\n    /* \"#utility.yul\":4846:4910   */\n  sstore\n    /* \"#utility.yul\":4768:4924   */\n  pop\n    /* \"#utility.yul\":4745:4924   */\ntag_86:\n    /* \"#utility.yul\":4970:4971   */\n  0x01\n    /* \"#utility.yul\":4966:4967   */\n  0x02\n    /* \"#utility.yul\":4958:4964   */\n  dup9\n    /* \"#utility.yul\":4954:4968   */\n  mul\n    /* \"#utility.yul\":4950:4972   */\n  add\n    /* \"#utility.yul\":4944:4948   */\n  dup9\n    /* \"#utility.yul\":4937:4973   */\n  sstore\n    /* \"#utility.yul\":4372:4983   */\n  pop\n  pop\n  pop\n    /* \"#utility.yul\":4335:5222   */\ntag_78:\n  pop\n    /* \"#utility.yul\":3925:5228   */\n  pop\n  pop\n  pop\n    /* \"#utility.yul\":3833:5228   */\n  pop\n  pop\n  jump\t// out\n    /* \"contracts/SimpleNFT.sol\":1463:3505  contract SimpleNFT {... */\ntag_5:\n  dataSize(sub_0)\n  dup1\n  dataOffset(sub_0)\n  0x00\n  codecopy\n  0x00\n  return\nstop\n\nsub_0: assembly {\n        /* \"contracts/SimpleNFT.sol\":1463:3505  contract SimpleNFT {... */\n      mstore(0x40, 0x80)\n      callvalue\n      dup1\n      iszero\n      tag_1\n      jumpi\n      revert(0x00, 0x00)\n    tag_1:\n      pop\n      jumpi(tag_2, lt(calldatasize, 0x04))\n      shr(0xe0, calldataload(0x00))\n      dup1\n      0x70a08231\n      gt\n      tag_12\n      jumpi\n      dup1\n      0x70a08231\n      eq\n      tag_7\n      jumpi\n      dup1\n      0x8455f388\n      eq\n      tag_8\n      jumpi\n      dup1\n      0x95d89b41\n      eq\n      tag_9\n      jumpi\n      dup1\n      0xc87b56dd\n      eq\n      tag_10\n      jumpi\n      dup1\n      0xe40b6602\n      eq\n      tag_11\n      jumpi\n      jump(tag_2)\n    tag_12:\n      dup1\n      0x06fdde03\n      eq\n      tag_3\n      jumpi\n      dup1\n      0x18160ddd\n      eq\n      tag_4\n      jumpi\n      dup1\n      0x6352211e\n      eq\n      tag_5\n      jumpi\n      dup1\n      0x6a627842\n      eq\n      tag_6\n      jumpi\n    tag_2:\n      revert(0x00, 0x00)\n        /* \"contracts/SimpleNFT.sol\":1556:1596  string public name = \"My NFT Collection\" */\n    tag_3:\n      tag_13\n      tag_14\n      jump\t// in\n    tag_13:\n      mload(0x40)\n      tag_15\n      swap2\n      swap1\n      tag_16\n      jump\t// in\n    tag_15:\n      mload(0x40)\n      dup1\n      swap2\n      sub\n      swap1\n      return\n        /* \"contracts/SimpleNFT.sol\":1736:1762  uint256 public totalSupply */\n    tag_4:\n      tag_17\n      tag_18\n      jump\t// in\n    tag_17:\n      mload(0x40)\n      tag_19\n      swap2\n      swap1\n      tag_20\n      jump\t// in\n    tag_19:\n      mload(0x40)\n      dup1\n      swap2\n      sub\n      swap1\n      return\n        /* \"contracts/SimpleNFT.sol\":1638:1680  mapping(uint256 => address) public ownerOf */\n    tag_5:\n      tag_21\n      0x04\n      dup1\n      calldatasize\n      sub\n      dup2\n      add\n      swap1\n      tag_22\n      swap2\n      swap1\n      tag_23\n      jump\t// in\n    tag_22:\n      tag_24\n      jump\t// in\n    tag_21:\n      mload(0x40)\n      tag_25\n      swap2\n      swap1\n      tag_26\n      jump\t// in\n    tag_25:\n      mload(0x40)\n      dup1\n      swap2\n      sub\n      swap1\n      return\n        /* \"contracts/SimpleNFT.sol\":1904:2221  function mint(address to) public returns (uint256) {... */\n    tag_6:\n      tag_27\n      0x04\n      dup1\n      calldatasize\n      sub\n      dup2\n      add\n      swap1\n      tag_28\n      swap2\n      swap1\n      tag_29\n      jump\t// in\n    tag_28:\n      tag_30\n      jump\t// in\n    tag_27:\n      mload(0x40)\n      tag_31\n      swap2\n      swap1\n      tag_20\n      jump\t// in\n    tag_31:\n      mload(0x40)\n      dup1\n      swap2\n      sub\n      swap1\n      return\n        /* \"contracts/SimpleNFT.sol\":1686:1730  mapping(address => uint256) public balanceOf */\n    tag_7:\n      tag_32\n      0x04\n      dup1\n      calldatasize\n      sub\n      dup2\n      add\n      swap1\n      tag_33\n      swap2\n      swap1\n      tag_29\n      jump\t// in\n    tag_33:\n      tag_34\n      jump\t// in\n    tag_32:\n      mload(0x40)\n      tag_35\n      swap2\n      swap1\n      tag_20\n      jump\t// in\n    tag_35:\n      mload(0x40)\n      dup1\n      swap2\n      sub\n      swap1\n      return\n        /* \"contracts/SimpleNFT.sol\":2741:3293  function getOwnerInfo(uint256 tokenId) public view returns (string memory) {... */\n    tag_8:\n      tag_36\n      0x04\n      dup1\n      calldatasize\n      sub\n      dup2\n      add\n      swap1\n      tag_37\n      swap2\n      swap1\n      tag_23\n      jump\t// in\n    tag_37:\n      tag_38\n      jump\t// in\n    tag_36:\n      mload(0x40)\n      tag_39\n      swap2\n      swap1\n      tag_16\n      jump\t// in\n    tag_39:\n      mload(0x40)\n      dup1\n      swap2\n      sub\n      swap1\n      return\n        /* \"contracts/SimpleNFT.sol\":1602:1631  string public symbol = \"MNFT\" */\n    tag_9:\n      tag_40\n      tag_41\n      jump\t// in\n    tag_40:\n      mload(0x40)\n      tag_42\n      swap2\n      swap1\n      tag_16\n      jump\t// in\n    tag_42:\n      mload(0x40)\n      dup1\n      swap2\n      sub\n      swap1\n      return\n        /* \"contracts/SimpleNFT.sol\":2272:2684  function tokenURI(uint256 tokenId) public view returns (string memory) {... */\n    tag_10:\n      tag_43\n      0x04\n      dup1\n      calldatasize\n      sub\n      dup2\n      add\n      swap1\n      tag_44\n      swap2\n      swap1\n      tag_23\n      jump\t// in\n    tag_44:\n      tag_45\n      jump\t// in\n    tag_43:\n      mload(0x40)\n      tag_46\n      swap2\n      swap1\n      tag_16\n      jump\t// in\n    tag_46:\n      mload(0x40)\n      dup1\n      swap2\n      sub\n      swap1\n      return\n        /* \"contracts/SimpleNFT.sol\":3325:3503  function getBatchMintInfo(... */\n    tag_11:\n      tag_47\n      0x04\n      dup1\n      calldatasize\n      sub\n      dup2\n      add\n      swap1\n      tag_48\n      swap2\n      swap1\n      tag_23\n      jump\t// in\n    tag_48:\n      tag_49\n      jump\t// in\n    tag_47:\n      mload(0x40)\n      tag_50\n      swap2\n      swap1\n      tag_16\n      jump\t// in\n    tag_50:\n      mload(0x40)\n      dup1\n      swap2\n      sub\n      swap1\n      return\n        /* \"contracts/SimpleNFT.sol\":1556:1596  string public name = \"My NFT Collection\" */\n    tag_14:\n      0x00\n      dup1\n      sload\n      tag_51\n      swap1\n      tag_52\n      jump\t// in\n    tag_51:\n      dup1\n      0x1f\n      add\n      0x20\n      dup1\n      swap2\n      div\n      mul\n      0x20\n      add\n      mload(0x40)\n      swap1\n      dup2\n      add\n      0x40\n      mstore\n      dup1\n      swap3\n      swap2\n      swap1\n      dup2\n      dup2\n      mstore\n      0x20\n      add\n      dup3\n      dup1\n      sload\n      tag_53\n      swap1\n      tag_52\n      jump\t// in\n    tag_53:\n      dup1\n      iszero\n      tag_54\n      jumpi\n      dup1\n      0x1f\n      lt\n      tag_55\n      jumpi\n      0x0100\n      dup1\n      dup4\n      sload\n      div\n      mul\n      dup4\n      mstore\n      swap2\n      0x20\n      add\n      swap2\n      jump(tag_54)\n    tag_55:\n      dup3\n      add\n      swap2\n      swap1\n      0x00\n      mstore\n      keccak256(0x00, 0x20)\n      swap1\n    tag_56:\n      dup2\n      sload\n      dup2\n      mstore\n      swap1\n      0x01\n      add\n      swap1\n      0x20\n      add\n      dup1\n      dup4\n      gt\n      tag_56\n      jumpi\n      dup3\n      swap1\n      sub\n      0x1f\n      and\n      dup3\n      add\n      swap2\n    tag_54:\n      pop\n      pop\n      pop\n      pop\n      pop\n      dup2\n      jump\t// out\n        /* \"contracts/SimpleNFT.sol\":1736:1762  uint256 public totalSupply */\n    tag_18:\n      sload(0x04)\n      dup2\n      jump\t// out\n        /* \"contracts/SimpleNFT.sol\":1638:1680  mapping(uint256 => address) public ownerOf */\n    tag_24:\n      mstore(0x20, 0x02)\n      dup1\n      0x00\n      mstore\n      keccak256(0x00, 0x40)\n      0x00\n      swap2\n      pop\n      sload\n      swap1\n      0x0100\n      exp\n      swap1\n      div\n      0xffffffffffffffffffffffffffffffffffffffff\n      and\n      dup2\n      jump\t// out\n        /* \"contracts/SimpleNFT.sol\":1904:2221  function mint(address to) public returns (uint256) {... */\n    tag_30:\n        /* \"contracts/SimpleNFT.sol\":1946:1953  uint256 */\n      0x00\n        /* \"contracts/SimpleNFT.sol\":1987:1988  0 */\n      0x00\n        /* \"contracts/SimpleNFT.sol\":1973:1989  to != address(0) */\n      0xffffffffffffffffffffffffffffffffffffffff\n      and\n        /* \"contracts/SimpleNFT.sol\":1973:1975  to */\n      dup3\n        /* \"contracts/SimpleNFT.sol\":1973:1989  to != address(0) */\n      0xffffffffffffffffffffffffffffffffffffffff\n      and\n      sub\n        /* \"contracts/SimpleNFT.sol\":1965:2021  require(to != address(0), \"Cannot mint to zero address\") */\n      tag_58\n      jumpi\n      mload(0x40)\n      0x08c379a000000000000000000000000000000000000000000000000000000000\n      dup2\n      mstore\n      0x04\n      add\n      tag_59\n      swap1\n      tag_60\n      jump\t// in\n    tag_59:\n      mload(0x40)\n      dup1\n      swap2\n      sub\n      swap1\n      revert\n    tag_58:\n        /* \"contracts/SimpleNFT.sol\":2032:2043  totalSupply */\n      0x04\n      0x00\n        /* \"contracts/SimpleNFT.sol\":2032:2045  totalSupply++ */\n      dup2\n      sload\n      dup1\n      swap3\n      swap2\n      swap1\n      tag_61\n      swap1\n      tag_62\n      jump\t// in\n    tag_61:\n      swap2\n      swap1\n      pop\n      sstore\n      pop\n        /* \"contracts/SimpleNFT.sol\":2055:2070  uint256 tokenId */\n      0x00\n        /* \"contracts/SimpleNFT.sol\":2073:2084  totalSupply */\n      sload(0x04)\n        /* \"contracts/SimpleNFT.sol\":2055:2084  uint256 tokenId = totalSupply */\n      swap1\n      pop\n        /* \"contracts/SimpleNFT.sol\":2114:2116  to */\n      dup3\n        /* \"contracts/SimpleNFT.sol\":2095:2102  ownerOf */\n      0x02\n        /* \"contracts/SimpleNFT.sol\":2095:2111  ownerOf[tokenId] */\n      0x00\n        /* \"contracts/SimpleNFT.sol\":2103:2110  tokenId */\n      dup4\n        /* \"contracts/SimpleNFT.sol\":2095:2111  ownerOf[tokenId] */\n      dup2\n      mstore\n      0x20\n      add\n      swap1\n      dup2\n      mstore\n      0x20\n      add\n      0x00\n      keccak256\n      0x00\n        /* \"contracts/SimpleNFT.sol\":2095:2116  ownerOf[tokenId] = to */\n      0x0100\n      exp\n      dup2\n      sload\n      dup2\n      0xffffffffffffffffffffffffffffffffffffffff\n      mul\n      not\n      and\n      swap1\n      dup4\n      0xffffffffffffffffffffffffffffffffffffffff\n      and\n      mul\n      or\n      swap1\n      sstore\n      pop\n        /* \"contracts/SimpleNFT.sol\":2126:2135  balanceOf */\n      0x03\n        /* \"contracts/SimpleNFT.sol\":2126:2139  balanceOf[to] */\n      0x00\n        /* \"contracts/SimpleNFT.sol\":2136:2138  to */\n      dup5\n        /* \"contracts/SimpleNFT.sol\":2126:2139  balanceOf[to] */\n      0xffffffffffffffffffffffffffffffffffffffff\n      and\n      0xffffffffffffffffffffffffffffffffffffffff\n      and\n      dup2\n      mstore\n      0x20\n      add\n      swap1\n      dup2\n      mstore\n      0x20\n      add\n      0x00\n      keccak256\n      0x00\n        /* \"contracts/SimpleNFT.sol\":2126:2141  balanceOf[to]++ */\n      dup2\n      sload\n      dup1\n      swap3\n      swap2\n      swap1\n      tag_63\n      swap1\n      tag_62\n      jump\t// in\n    tag_63:\n      swap2\n      swap1\n      pop\n      sstore\n      pop\n        /* \"contracts/SimpleNFT.sol\":2182:2189  tokenId */\n      dup1\n        /* \"contracts/SimpleNFT.sol\":2178:2180  to */\n      dup4\n        /* \"contracts/SimpleNFT.sol\":2157:2190  Transfer(address(0), to, tokenId) */\n      0xffffffffffffffffffffffffffffffffffffffff\n      and\n        /* \"contracts/SimpleNFT.sol\":2174:2175  0 */\n      0x00\n        /* \"contracts/SimpleNFT.sol\":2157:2190  Transfer(address(0), to, tokenId) */\n      0xffffffffffffffffffffffffffffffffffffffff\n      and\n      0xddf252ad1be2c89b69c2b068fc378daa952ba7f163c4a11628f55a4df523b3ef\n      mload(0x40)\n      mload(0x40)\n      dup1\n      swap2\n      sub\n      swap1\n      log4\n        /* \"contracts/SimpleNFT.sol\":2207:2214  tokenId */\n      dup1\n        /* \"contracts/SimpleNFT.sol\":2200:2214  return tokenId */\n      swap2\n      pop\n      pop\n        /* \"contracts/SimpleNFT.sol\":1904:2221  function mint(address to) public returns (uint256) {... */\n      swap2\n      swap1\n      pop\n      jump\t// out\n        /* \"contracts/SimpleNFT.sol\":1686:1730  mapping(address => uint256) public balanceOf */\n    tag_34:\n      mstore(0x20, 0x03)\n      dup1\n      0x00\n      mstore\n      keccak256(0x00, 0x40)\n      0x00\n      swap2\n      pop\n      swap1\n      pop\n      sload\n      dup2\n      jump\t// out\n        /* \"contracts/SimpleNFT.sol\":2741:3293  function getOwnerInfo(uint256 tokenId) public view returns (string memory) {... */\n    tag_38:\n        /* \"contracts/SimpleNFT.sol\":2801:2814  string memory */\n      0x60\n        /* \"contracts/SimpleNFT.sol\":2826:2839  address owner */\n      0x00\n        /* \"contracts/SimpleNFT.sol\":2842:2849  ownerOf */\n      0x02\n        /* \"contracts/SimpleNFT.sol\":2842:2858  ownerOf[tokenId] */\n      0x00\n        /* \"contracts/SimpleNFT.sol\":2850:2857  tokenId */\n      dup5\n        /* \"contracts/SimpleNFT.sol\":2842:2858  ownerOf[tokenId] */\n      dup2\n      mstore\n      0x20\n      add\n      swap1\n      dup2\n      mstore\n      0x20\n      add\n      0x00\n      keccak256\n      0x00\n      swap1\n      sload\n      swap1\n      0x0100\n      exp\n      swap1\n      div\n      0xffffffffffffffffffffffffffffffffffffffff\n      and\n        /* \"contracts/SimpleNFT.sol\":2826:2858  address owner = ownerOf[tokenId] */\n      swap1\n      pop\n        /* \"contracts/SimpleNFT.sol\":2893:2894  0 */\n      0x00\n        /* \"contracts/SimpleNFT.sol\":2876:2895  owner != address(0) */\n      0xffffffffffffffffffffffffffffffffffffffff\n      and\n        /* \"contracts/SimpleNFT.sol\":2876:2881  owner */\n      dup2\n        /* \"contracts/SimpleNFT.sol\":2876:2895  owner != address(0) */\n      0xffffffffffffffffffffffffffffffffffffffff\n      and\n      sub\n        /* \"contracts/SimpleNFT.sol\":2868:2920  require(owner != address(0), \"Token does not exist\") */\n      tag_65\n      jumpi\n      mload(0x40)\n      0x08c379a000000000000000000000000000000000000000000000000000000000\n      dup2\n      mstore\n      0x04\n      add\n      tag_66\n      swap1\n      tag_67\n      jump\t// in\n    tag_66:\n      mload(0x40)\n      dup1\n      swap2\n      sub\n      swap1\n      revert\n    tag_65:\n        /* \"contracts/SimpleNFT.sol\":2982:3004  string memory ownerHex */\n      0x00\n        /* \"contracts/SimpleNFT.sol\":3007:3046  uint256(uint160(owner)).toHexString(20) */\n      tag_68\n        /* \"contracts/SimpleNFT.sol\":3043:3045  20 */\n      0x14\n        /* \"contracts/SimpleNFT.sol\":3023:3028  owner */\n      dup4\n        /* \"contracts/SimpleNFT.sol\":3007:3030  uint256(uint160(owner)) */\n      0xffffffffffffffffffffffffffffffffffffffff\n      and\n        /* \"contracts/SimpleNFT.sol\":3007:3042  uint256(uint160(owner)).toHexString */\n      tag_69\n      swap1\n        /* \"contracts/SimpleNFT.sol\":3007:3046  uint256(uint160(owner)).toHexString(20) */\n      swap2\n      swap1\n      0xffffffff\n      and\n      jump\t// in\n    tag_68:\n        /* \"contracts/SimpleNFT.sol\":2982:3046  string memory ownerHex = uint256(uint160(owner)).toHexString(20) */\n      swap1\n      pop\n        /* \"contracts/SimpleNFT.sol\":3169:3187  tokenId.toString() */\n      tag_70\n        /* \"contracts/SimpleNFT.sol\":3169:3176  tokenId */\n      dup5\n        /* \"contracts/SimpleNFT.sol\":3169:3185  tokenId.toString */\n      tag_71\n        /* \"contracts/SimpleNFT.sol\":3169:3187  tokenId.toString() */\n      jump\t// in\n    tag_70:\n        /* \"contracts/SimpleNFT.sol\":3246:3254  ownerHex */\n      dup2\n        /* \"contracts/SimpleNFT.sol\":3100:3272  abi.encodePacked(... */\n      add(0x20, mload(0x40))\n      tag_72\n      swap3\n      swap2\n      swap1\n      tag_73\n      jump\t// in\n    tag_72:\n      mload(0x40)\n      0x20\n      dup2\n      dup4\n      sub\n      sub\n      dup2\n      mstore\n      swap1\n      0x40\n      mstore\n        /* \"contracts/SimpleNFT.sol\":3057:3286  return... */\n      swap3\n      pop\n      pop\n      pop\n        /* \"contracts/SimpleNFT.sol\":2741:3293  function getOwnerInfo(uint256 tokenId) public view returns (string memory) {... */\n      swap2\n      swap1\n      pop\n      jump\t// out\n        /* \"contracts/SimpleNFT.sol\":1602:1631  string public symbol = \"MNFT\" */\n    tag_41:\n      0x01\n      dup1\n      sload\n      tag_74\n      swap1\n      tag_52\n      jump\t// in\n    tag_74:\n      dup1\n      0x1f\n      add\n      0x20\n      dup1\n      swap2\n      div\n      mul\n      0x20\n      add\n      mload(0x40)\n      swap1\n      dup2\n      add\n      0x40\n      mstore\n      dup1\n      swap3\n      swap2\n      swap1\n      dup2\n      dup2\n      mstore\n      0x20\n      add\n      dup3\n      dup1\n      sload\n      tag_75\n      swap1\n      tag_52\n      jump\t// in\n    tag_75:\n      dup1\n      iszero\n      tag_76\n      jumpi\n      dup1\n      0x1f\n      lt\n      tag_77\n      jumpi\n      0x0100\n      dup1\n      dup4\n      sload\n      div\n      mul\n      dup4\n      mstore\n      swap2\n      0x20\n      add\n      swap2\n      jump(tag_76)\n    tag_77:\n      dup3\n      add\n      swap2\n      swap1\n      0x00\n      mstore\n      keccak256(0x00, 0x20)\n      swap1\n    tag_78:\n      dup2\n      sload\n      dup2\n      mstore\n      swap1\n      0x01\n      add\n      swap1\n      0x20\n      add\n      dup1\n      dup4\n      gt\n      tag_78\n      jumpi\n      dup3\n      swap1\n      sub\n      0x1f\n      and\n      dup3\n      add\n      swap2\n    tag_76:\n      pop\n      pop\n      pop\n      pop\n      pop\n      dup2\n      jump\t// out\n        /* \"contracts/SimpleNFT.sol\":2272:2684  function tokenURI(uint256 tokenId) public view returns (string memory) {... */\n    tag_45:\n        /* \"contracts/SimpleNFT.sol\":2328:2341  string memory */\n      0x60\n        /* \"contracts/SimpleNFT.sol\":2389:2390  0 */\n      0x00\n        /* \"contracts/SimpleNFT.sol\":2361:2391  ownerOf[tokenId] != address(0) */\n      0xffffffffffffffffffffffffffffffffffffffff\n      and\n        /* \"contracts/SimpleNFT.sol\":2361:2368  ownerOf */\n      0x02\n        /* \"contracts/SimpleNFT.sol\":2361:2377  ownerOf[tokenId] */\n      0x00\n        /* \"contracts/SimpleNFT.sol\":2369:2376  tokenId */\n      dup5\n        /* \"contracts/SimpleNFT.sol\":2361:2377  ownerOf[tokenId] */\n      dup2\n      mstore\n      0x20\n      add\n      swap1\n      dup2\n      mstore\n      0x20\n      add\n      0x00\n      keccak256\n      0x00\n      swap1\n      sload\n      swap1\n      0x0100\n      exp\n      swap1\n      div\n      0xffffffffffffffffffffffffffffffffffffffff\n      and\n        /* \"contracts/SimpleNFT.sol\":2361:2391  ownerOf[tokenId] != address(0) */\n      0xffffffffffffffffffffffffffffffffffffffff\n      and\n      sub\n        /* \"contracts/SimpleNFT.sol\":2353:2416  require(ownerOf[tokenId] != address(0), \"Token does not exist\") */\n      tag_80\n      jumpi\n      mload(0x40)\n      0x08c379a000000000000000000000000000000000000000000000000000000000\n      dup2\n      mstore\n      0x04\n      add\n      tag_81\n      swap1\n      tag_67\n      jump\t// in\n    tag_81:\n      mload(0x40)\n      dup1\n      swap2\n      sub\n      swap1\n      revert\n    tag_80:\n        /* \"contracts/SimpleNFT.sol\":2483:2507  string memory tokenIdStr */\n      0x00\n        /* \"contracts/SimpleNFT.sol\":2510:2528  tokenId.toString() */\n      tag_82\n        /* \"contracts/SimpleNFT.sol\":2510:2517  tokenId */\n      dup4\n        /* \"contracts/SimpleNFT.sol\":2510:2526  tokenId.toString */\n      tag_71\n        /* \"contracts/SimpleNFT.sol\":2510:2528  tokenId.toString() */\n      jump\t// in\n    tag_82:\n        /* \"contracts/SimpleNFT.sol\":2483:2528  string memory tokenIdStr = tokenId.toString() */\n      swap1\n      pop\n        /* \"contracts/SimpleNFT.sol\":2652:2662  tokenIdStr */\n      dup1\n        /* \"contracts/SimpleNFT.sol\":2603:2663  abi.encodePacked(\"https://api.mynft.com/token/\", tokenIdStr) */\n      add(0x20, mload(0x40))\n      tag_83\n      swap2\n      swap1\n      tag_84\n      jump\t// in\n    tag_83:\n      mload(0x40)\n      0x20\n      dup2\n      dup4\n      sub\n      sub\n      dup2\n      mstore\n      swap1\n      0x40\n      mstore\n        /* \"contracts/SimpleNFT.sol\":2560:2677  return... */\n      swap2\n      pop\n      pop\n        /* \"contracts/SimpleNFT.sol\":2272:2684  function tokenURI(uint256 tokenId) public view returns (string memory) {... */\n      swap2\n      swap1\n      pop\n      jump\t// out\n        /* \"contracts/SimpleNFT.sol\":3325:3503  function getBatchMintInfo(... */\n    tag_49:\n        /* \"contracts/SimpleNFT.sol\":3401:3414  string memory */\n      0x60\n        /* \"contracts/SimpleNFT.sol\":3469:3485  count.toString() */\n      tag_86\n        /* \"contracts/SimpleNFT.sol\":3469:3474  count */\n      dup3\n        /* \"contracts/SimpleNFT.sol\":3469:3483  count.toString */\n      tag_71\n        /* \"contracts/SimpleNFT.sol\":3469:3485  count.toString() */\n      jump\t// in\n    tag_86:\n        /* \"contracts/SimpleNFT.sol\":3440:3495  abi.encodePacked(\"Minting \", count.toString(), \" NFTs\") */\n      add(0x20, mload(0x40))\n      tag_87\n      swap2\n      swap1\n      tag_88\n      jump\t// in\n    tag_87:\n      mload(0x40)\n      0x20\n      dup2\n      dup4\n      sub\n      sub\n      dup2\n      mstore\n      swap1\n      0x40\n      mstore\n        /* \"contracts/SimpleNFT.sol\":3426:3496  return string(abi.encodePacked(\"Minting \", count.toString(), \" NFTs\")) */\n      swap1\n      pop\n        /* \"contracts/SimpleNFT.sol\":3325:3503  function getBatchMintInfo(... */\n      swap2\n      swap1\n      pop\n      jump\t// out\n        /* \"contracts/SimpleNFT.sol\":996:1459  function toHexString(... */\n    tag_69:\n        /* \"contracts/SimpleNFT.sol\":1093:1106  string memory */\n      0x60\n        /* \"contracts/SimpleNFT.sol\":1118:1137  bytes memory buffer */\n      0x00\n        /* \"contracts/SimpleNFT.sol\":1163:1164  2 */\n      0x02\n        /* \"contracts/SimpleNFT.sol\":1154:1160  length */\n      dup4\n        /* \"contracts/SimpleNFT.sol\":1150:1151  2 */\n      0x02\n        /* \"contracts/SimpleNFT.sol\":1150:1160  2 * length */\n      tag_90\n      swap2\n      swap1\n      tag_91\n      jump\t// in\n    tag_90:\n        /* \"contracts/SimpleNFT.sol\":1150:1164  2 * length + 2 */\n      tag_92\n      swap2\n      swap1\n      tag_93\n      jump\t// in\n    tag_92:\n        /* \"contracts/SimpleNFT.sol\":1140:1165  new bytes(2 * length + 2) */\n      0xffffffffffffffff\n      dup2\n      gt\n      iszero\n      tag_94\n      jumpi\n      tag_95\n      tag_96\n      jump\t// in\n    tag_95:\n    tag_94:\n      mload(0x40)\n      swap1\n      dup1\n      dup3\n      mstore\n      dup1\n      0x1f\n      add\n      not(0x1f)\n      and\n      0x20\n      add\n      dup3\n      add\n      0x40\n      mstore\n      dup1\n      iszero\n      tag_97\n      jumpi\n      dup2\n      0x20\n      add\n      0x01\n      dup3\n      mul\n      dup1\n      calldatasize\n      dup4\n      calldatacopy\n      dup1\n      dup3\n      add\n      swap2\n      pop\n      pop\n      swap1\n      pop\n    tag_97:\n      pop\n        /* \"contracts/SimpleNFT.sol\":1118:1165  bytes memory buffer = new bytes(2 * length + 2) */\n      swap1\n      pop\n        /* \"contracts/SimpleNFT.sol\":1175:1190  buffer[0] = \"0\" */\n      0x3000000000000000000000000000000000000000000000000000000000000000\n        /* \"contracts/SimpleNFT.sol\":1175:1181  buffer */\n      dup2\n        /* \"contracts/SimpleNFT.sol\":1182:1183  0 */\n      0x00\n        /* \"contracts/SimpleNFT.sol\":1175:1184  buffer[0] */\n      dup2\n      mload\n      dup2\n      lt\n      tag_98\n      jumpi\n      tag_99\n      tag_100\n      jump\t// in\n    tag_99:\n    tag_98:\n      0x20\n      add\n      add\n        /* \"contracts/SimpleNFT.sol\":1175:1190  buffer[0] = \"0\" */\n      swap1\n      not(0xffffffffffffffffffffffffffffffffffffffffffffffffffffffffffffff)\n      and\n      swap1\n      dup2\n      0x00\n      byte\n      swap1\n      mstore8\n      pop\n        /* \"contracts/SimpleNFT.sol\":1200:1215  buffer[1] = \"x\" */\n      0x7800000000000000000000000000000000000000000000000000000000000000\n        /* \"contracts/SimpleNFT.sol\":1200:1206  buffer */\n      dup2\n        /* \"contracts/SimpleNFT.sol\":1207:1208  1 */\n      0x01\n        /* \"contracts/SimpleNFT.sol\":1200:1209  buffer[1] */\n      dup2\n      mload\n      dup2\n      lt\n      tag_101\n      jumpi\n      tag_102\n      tag_100\n      jump\t// in\n    tag_102:\n    tag_101:\n      0x20\n      add\n      add\n        /* \"contracts/SimpleNFT.sol\":1200:1215  buffer[1] = \"x\" */\n      swap1\n      not(0xffffffffffffffffffffffffffffffffffffffffffffffffffffffffffffff)\n      and\n      swap1\n      dup2\n      0x00\n      byte\n      swap1\n      mstore8\n      pop\n        /* \"contracts/SimpleNFT.sol\":1230:1239  uint256 i */\n      0x00\n        /* \"contracts/SimpleNFT.sol\":1255:1256  1 */\n      0x01\n        /* \"contracts/SimpleNFT.sol\":1246:1252  length */\n      dup5\n        /* \"contracts/SimpleNFT.sol\":1242:1243  2 */\n      0x02\n        /* \"contracts/SimpleNFT.sol\":1242:1252  2 * length */\n      tag_106\n      swap2\n      swap1\n      tag_91\n      jump\t// in\n    tag_106:\n        /* \"contracts/SimpleNFT.sol\":1242:1256  2 * length + 1 */\n      tag_107\n      swap2\n      swap1\n      tag_93\n      jump\t// in\n    tag_107:\n        /* \"contracts/SimpleNFT.sol\":1230:1256  uint256 i = 2 * length + 1 */\n      swap1\n      pop\n        /* \"contracts/SimpleNFT.sol\":1225:1357  for (uint256 i = 2 * length + 1; i > 1; --i) {... */\n    tag_103:\n        /* \"contracts/SimpleNFT.sol\":1262:1263  1 */\n      0x01\n        /* \"contracts/SimpleNFT.sol\":1258:1259  i */\n      dup2\n        /* \"contracts/SimpleNFT.sol\":1258:1263  i > 1 */\n      gt\n        /* \"contracts/SimpleNFT.sol\":1225:1357  for (uint256 i = 2 * length + 1; i > 1; --i) {... */\n      iszero\n      tag_104\n      jumpi\n        /* \"contracts/SimpleNFT.sol\":1296:1308  _HEX_SYMBOLS */\n      0x3334343536616263646566000000000000000000000000000000000000000000\n        /* \"contracts/SimpleNFT.sol\":1317:1320  0xf */\n      0x0f\n        /* \"contracts/SimpleNFT.sol\":1309:1314  value */\n      dup7\n        /* \"contracts/SimpleNFT.sol\":1309:1320  value & 0xf */\n      and\n        /* \"contracts/SimpleNFT.sol\":1296:1321  _HEX_SYMBOLS[value & 0xf] */\n      0x10\n      dup2\n      lt\n      tag_108\n      jumpi\n      tag_109\n      tag_100\n      jump\t// in\n    tag_109:\n    tag_108:\n      byte\n      0xf8\n      shl\n        /* \"contracts/SimpleNFT.sol\":1284:1290  buffer */\n      dup3\n        /* \"contracts/SimpleNFT.sol\":1291:1292  i */\n      dup3\n        /* \"contracts/SimpleNFT.sol\":1284:1293  buffer[i] */\n      dup2\n      mload\n      dup2\n      lt\n      tag_110\n      jumpi\n      tag_111\n      tag_100\n      jump\t// in\n    tag_111:\n    tag_110:\n      0x20\n      add\n      add\n        /* \"contracts/SimpleNFT.sol\":1284:1321  buffer[i] = _HEX_SYMBOLS[value & 0xf] */\n      swap1\n      not(0xffffffffffffffffffffffffffffffffffffffffffffffffffffffffffffff)\n      and\n      swap1\n      dup2\n      0x00\n      byte\n      swap1\n      mstore8\n      pop\n        /* \"contracts/SimpleNFT.sol\":1345:1346  4 */\n      0x04\n        /* \"contracts/SimpleNFT.sol\":1335:1346  value >>= 4 */\n      dup6\n      swap1\n      shr\n      swap5\n      pop\n        /* \"contracts/SimpleNFT.sol\":1265:1268  --i */\n      dup1\n      tag_112\n      swap1\n      tag_113\n      jump\t// in\n    tag_112:\n      swap1\n      pop\n        /* \"contracts/SimpleNFT.sol\":1225:1357  for (uint256 i = 2 * length + 1; i > 1; --i) {... */\n      jump(tag_103)\n    tag_104:\n      pop\n        /* \"contracts/SimpleNFT.sol\":1383:1384  0 */\n      0x00\n        /* \"contracts/SimpleNFT.sol\":1374:1379  value */\n      dup5\n        /* \"contracts/SimpleNFT.sol\":1374:1384  value == 0 */\n      eq\n        /* \"contracts/SimpleNFT.sol\":1366:1421  require(value == 0, \"Strings: hex length insufficient\") */\n      tag_114\n      jumpi\n      mload(0x40)\n      0x08c379a000000000000000000000000000000000000000000000000000000000\n      dup2\n      mstore\n      0x04\n      add\n      tag_115\n      swap1\n      tag_116\n      jump\t// in\n    tag_115:\n      mload(0x40)\n      dup1\n      swap2\n      sub\n      swap1\n      revert\n    tag_114:\n        /* \"contracts/SimpleNFT.sol\":1445:1451  buffer */\n      dup1\n        /* \"contracts/SimpleNFT.sol\":1431:1452  return string(buffer) */\n      swap2\n      pop\n      pop\n        /* \"contracts/SimpleNFT.sol\":996:1459  function toHexString(... */\n      swap3\n      swap2\n      pop\n      pop\n      jump\t// out\n        /* \"contracts/SimpleNFT.sol\":140:655  function toString(uint256 value) internal pure returns (string memory) {... */\n    tag_71:\n        /* \"contracts/SimpleNFT.sol\":196:209  string memory */\n      0x60\n        /* \"contracts/SimpleNFT.sol\":234:235  0 */\n      0x00\n        /* \"contracts/SimpleNFT.sol\":225:230  value */\n      dup3\n        /* \"contracts/SimpleNFT.sol\":225:235  value == 0 */\n      sub\n        /* \"contracts/SimpleNFT.sol\":221:272  if (value == 0) {... */\n      tag_118\n      jumpi\n        /* \"contracts/SimpleNFT.sol\":251:261  return \"0\" */\n      mload(0x40)\n      dup1\n      0x40\n      add\n      0x40\n      mstore\n      dup1\n      0x01\n      dup2\n      mstore\n      0x20\n      add\n      0x3000000000000000000000000000000000000000000000000000000000000000\n      dup2\n      mstore\n      pop\n      swap1\n      pop\n      jump(tag_117)\n        /* \"contracts/SimpleNFT.sol\":221:272  if (value == 0) {... */\n    tag_118:\n        /* \"contracts/SimpleNFT.sol\":281:293  uint256 temp */\n      0x00\n        /* \"contracts/SimpleNFT.sol\":296:301  value */\n      dup3\n        /* \"contracts/SimpleNFT.sol\":281:301  uint256 temp = value */\n      swap1\n      pop\n        /* \"contracts/SimpleNFT.sol\":311:325  uint256 digits */\n      0x00\n        /* \"contracts/SimpleNFT.sol\":335:410  while (temp != 0) {... */\n    tag_119:\n        /* \"contracts/SimpleNFT.sol\":350:351  0 */\n      0x00\n        /* \"contracts/SimpleNFT.sol\":342:346  temp */\n      dup3\n        /* \"contracts/SimpleNFT.sol\":342:351  temp != 0 */\n      eq\n        /* \"contracts/SimpleNFT.sol\":335:410  while (temp != 0) {... */\n      tag_120\n      jumpi\n        /* \"contracts/SimpleNFT.sol\":367:375  digits++ */\n      dup1\n      dup1\n      tag_121\n      swap1\n      tag_62\n      jump\t// in\n    tag_121:\n      swap2\n      pop\n      pop\n        /* \"contracts/SimpleNFT.sol\":397:399  10 */\n      0x0a\n        /* \"contracts/SimpleNFT.sol\":389:399  temp /= 10 */\n      dup3\n      tag_122\n      swap2\n      swap1\n      tag_123\n      jump\t// in\n    tag_122:\n      swap2\n      pop\n        /* \"contracts/SimpleNFT.sol\":335:410  while (temp != 0) {... */\n      jump(tag_119)\n    tag_120:\n        /* \"contracts/SimpleNFT.sol\":419:438  bytes memory buffer */\n      0x00\n        /* \"contracts/SimpleNFT.sol\":451:457  digits */\n      dup2\n        /* \"contracts/SimpleNFT.sol\":441:458  new bytes(digits) */\n      0xffffffffffffffff\n      dup2\n      gt\n      iszero\n      tag_124\n      jumpi\n      tag_125\n      tag_96\n      jump\t// in\n    tag_125:\n    tag_124:\n      mload(0x40)\n      swap1\n      dup1\n      dup3\n      mstore\n      dup1\n      0x1f\n      add\n      not(0x1f)\n      and\n      0x20\n      add\n      dup3\n      add\n      0x40\n      mstore\n      dup1\n      iszero\n      tag_126\n      jumpi\n      dup2\n      0x20\n      add\n      0x01\n      dup3\n      mul\n      dup1\n      calldatasize\n      dup4\n      calldatacopy\n      dup1\n      dup3\n      add\n      swap2\n      pop\n      pop\n      swap1\n      pop\n    tag_126:\n      pop\n        /* \"contracts/SimpleNFT.sol\":419:458  bytes memory buffer = new bytes(digits) */\n      swap1\n      pop\n        /* \"contracts/SimpleNFT.sol\":468:618  while (value != 0) {... */\n    tag_127:\n        /* \"contracts/SimpleNFT.sol\":484:485  0 */\n      0x00\n        /* \"contracts/SimpleNFT.sol\":475:480  value */\n      dup6\n        /* \"contracts/SimpleNFT.sol\":475:485  value != 0 */\n      eq\n        /* \"contracts/SimpleNFT.sol\":468:618  while (value != 0) {... */\n      tag_128\n      jumpi\n        /* \"contracts/SimpleNFT.sol\":511:512  1 */\n      0x01\n        /* \"contracts/SimpleNFT.sol\":501:512  digits -= 1 */\n      dup3\n      tag_129\n      swap2\n      swap1\n      tag_130\n      jump\t// in\n    tag_129:\n      swap2\n      pop\n        /* \"contracts/SimpleNFT.sol\":577:579  10 */\n      0x0a\n        /* \"contracts/SimpleNFT.sol\":569:574  value */\n      dup6\n        /* \"contracts/SimpleNFT.sol\":569:579  value % 10 */\n      tag_131\n      swap2\n      swap1\n      tag_132\n      jump\t// in\n    tag_131:\n        /* \"contracts/SimpleNFT.sol\":556:558  48 */\n      0x30\n        /* \"contracts/SimpleNFT.sol\":556:580  48 + uint256(value % 10) */\n      tag_133\n      swap2\n      swap1\n      tag_93\n      jump\t// in\n    tag_133:\n        /* \"contracts/SimpleNFT.sol\":543:582  bytes1(uint8(48 + uint256(value % 10))) */\n      0xf8\n      shl\n        /* \"contracts/SimpleNFT.sol\":526:532  buffer */\n      dup2\n        /* \"contracts/SimpleNFT.sol\":533:539  digits */\n      dup4\n        /* \"contracts/SimpleNFT.sol\":526:540  buffer[digits] */\n      dup2\n      mload\n      dup2\n      lt\n      tag_134\n      jumpi\n      tag_135\n      tag_100\n      jump\t// in\n    tag_135:\n    tag_134:\n      0x20\n      add\n      add\n        /* \"contracts/SimpleNFT.sol\":526:582  buffer[digits] = bytes1(uint8(48 + uint256(value % 10))) */\n      swap1\n      not(0xffffffffffffffffffffffffffffffffffffffffffffffffffffffffffffff)\n      and\n      swap1\n      dup2\n      0x00\n      byte\n      swap1\n      mstore8\n      pop\n        /* \"contracts/SimpleNFT.sol\":605:607  10 */\n      0x0a\n        /* \"contracts/SimpleNFT.sol\":596:607  value /= 10 */\n      dup6\n      tag_136\n      swap2\n      swap1\n      tag_123\n      jump\t// in\n    tag_136:\n      swap5\n      pop\n        /* \"contracts/SimpleNFT.sol\":468:618  while (value != 0) {... */\n      jump(tag_127)\n    tag_128:\n        /* \"contracts/SimpleNFT.sol\":641:647  buffer */\n      dup1\n        /* \"contracts/SimpleNFT.sol\":627:648  return string(buffer) */\n      swap4\n      pop\n      pop\n      pop\n      pop\n        /* \"contracts/SimpleNFT.sol\":140:655  function toString(uint256 value) internal pure returns (string memory) {... */\n    tag_117:\n      swap2\n      swap1\n      pop\n      jump\t// out\n        /* \"#utility.yul\":7:106   */\n    tag_137:\n        /* \"#utility.yul\":59:65   */\n      0x00\n        /* \"#utility.yul\":93:98   */\n      dup2\n        /* \"#utility.yul\":87:99   */\n      mload\n        /* \"#utility.yul\":77:99   */\n      swap1\n      pop\n        /* \"#utility.yul\":7:106   */\n      swap2\n      swap1\n      pop\n      jump\t// out\n        /* \"#utility.yul\":112:281   */\n    tag_138:\n        /* \"#utility.yul\":196:207   */\n      0x00\n        /* \"#utility.yul\":230:236   */\n      dup3\n        /* \"#utility.yul\":225:228   */\n      dup3\n        /* \"#utility.yul\":218:237   */\n      mstore\n        /* \"#utility.yul\":270:274   */\n      0x20\n        /* \"#utility.yul\":265:268   */\n      dup3\n        /* \"#utility.yul\":261:275   */\n      add\n        /* \"#utility.yul\":246:275   */\n      swap1\n      pop\n        /* \"#utility.yul\":112:281   */\n      swap3\n      swap2\n      pop\n      pop\n      jump\t// out\n        /* \"#utility.yul\":287:426   */\n    tag_139:\n        /* \"#utility.yul\":376:382   */\n      dup3\n        /* \"#utility.yul\":371:374   */\n      dup2\n        /* \"#utility.yul\":366:369   */\n      dup4\n        /* \"#utility.yul\":360:383   */\n      mcopy\n        /* \"#utility.yul\":417:418   */\n      0x00\n        /* \"#utility.yul\":408:414   */\n      dup4\n        /* \"#utility.yul\":403:406   */\n      dup4\n        /* \"#utility.yul\":399:415   */\n      add\n        /* \"#utility.yul\":392:419   */\n      mstore\n        /* \"#utility.yul\":287:426   */\n      pop\n      pop\n      pop\n      jump\t// out\n        /* \"#utility.yul\":432:534   */\n    tag_140:\n        /* \"#utility.yul\":473:479   */\n      0x00\n        /* \"#utility.yul\":524:526   */\n      0x1f\n        /* \"#utility.yul\":520:527   */\n      not\n        /* \"#utility.yul\":515:517   */\n      0x1f\n        /* \"#utility.yul\":508:513   */\n      dup4\n        /* \"#utility.yul\":504:518   */\n      add\n        /* \"#utility.yul\":500:528   */\n      and\n        /* \"#utility.yul\":490:528   */\n      swap1\n      pop\n        /* \"#utility.yul\":432:534   */\n      swap2\n      swap1\n      pop\n      jump\t// out\n        /* \"#utility.yul\":540:917   */\n    tag_141:\n        /* \"#utility.yul\":628:631   */\n      0x00\n        /* \"#utility.yul\":656:695   */\n      tag_181\n        /* \"#utility.yul\":689:694   */\n      dup3\n        /* \"#utility.yul\":656:695   */\n      tag_137\n      jump\t// in\n    tag_181:\n        /* \"#utility.yul\":711:782   */\n      tag_182\n        /* \"#utility.yul\":775:781   */\n      dup2\n        /* \"#utility.yul\":770:773   */\n      dup6\n        /* \"#utility.yul\":711:782   */\n      tag_138\n      jump\t// in\n    tag_182:\n        /* \"#utility.yul\":704:782   */\n      swap4\n      pop\n        /* \"#utility.yul\":791:856   */\n      tag_183\n        /* \"#utility.yul\":849:855   */\n      dup2\n        /* \"#utility.yul\":844:847   */\n      dup6\n        /* \"#utility.yul\":837:841   */\n      0x20\n        /* \"#utility.yul\":830:835   */\n      dup7\n        /* \"#utility.yul\":826:842   */\n      add\n        /* \"#utility.yul\":791:856   */\n      tag_139\n      jump\t// in\n    tag_183:\n        /* \"#utility.yul\":881:910   */\n      tag_184\n        /* \"#utility.yul\":903:909   */\n      dup2\n        /* \"#utility.yul\":881:910   */\n      tag_140\n      jump\t// in\n    tag_184:\n        /* \"#utility.yul\":876:879   */\n      dup5\n        /* \"#utility.yul\":872:911   */\n      add\n        /* \"#utility.yul\":865:911   */\n      swap2\n      pop\n        /* \"#utility.yul\":632:917   */\n      pop\n        /* \"#utility.yul\":540:917   */\n      swap3\n      swap2\n      pop\n      pop\n      jump\t// out\n        /* \"#utility.yul\":923:1236   */\n    tag_16:\n        /* \"#utility.yul\":1036:1040   */\n      0x00\n        /* \"#utility.yul\":1074:1076   */\n      0x20\n        /* \"#utility.yul\":1063:1072   */\n      dup3\n        /* \"#utility.yul\":1059:1077   */\n      add\n        /* \"#utility.yul\":1051:1077   */\n      swap1\n      pop\n        /* \"#utility.yul\":1123:1132   */\n      dup2\n        /* \"#utility.yul\":1117:1121   */\n      dup2\n        /* \"#utility.yul\":1113:1133   */\n      sub\n        /* \"#utility.yul\":1109:1110   */\n      0x00\n        /* \"#utility.yul\":1098:1107   */\n      dup4\n        /* \"#utility.yul\":1094:1111   */\n      add\n        /* \"#utility.yul\":1087:1134   */\n      mstore\n        /* \"#utility.yul\":1151:1229   */\n      tag_186\n        /* \"#utility.yul\":1224:1228   */\n      dup2\n        /* \"#utility.yul\":1215:1221   */\n      dup5\n        /* \"#utility.yul\":1151:1229   */\n      tag_141\n      jump\t// in\n    tag_186:\n        /* \"#utility.yul\":1143:1229   */\n      swap1\n      pop\n        /* \"#utility.yul\":923:1236   */\n      swap3\n      swap2\n      pop\n      pop\n      jump\t// out\n        /* \"#utility.yul\":1242:1319   */\n    tag_142:\n        /* \"#utility.yul\":1279:1286   */\n      0x00\n        /* \"#utility.yul\":1308:1313   */\n      dup2\n        /* \"#utility.yul\":1297:1313   */\n      swap1\n      pop\n        /* \"#utility.yul\":1242:1319   */\n      swap2\n      swap1\n      pop\n      jump\t// out\n        /* \"#utility.yul\":1325:1443   */\n    tag_143:\n        /* \"#utility.yul\":1412:1436   */\n      tag_189\n        /* \"#utility.yul\":1430:1435   */\n      dup2\n        /* \"#utility.yul\":1412:1436   */\n      tag_142\n      jump\t// in\n    tag_189:\n        /* \"#utility.yul\":1407:1410   */\n      dup3\n        /* \"#utility.yul\":1400:1437   */\n      mstore\n        /* \"#utility.yul\":1325:1443   */\n      pop\n      pop\n      jump\t// out\n        /* \"#utility.yul\":1449:1671   */\n    tag_20:\n        /* \"#utility.yul\":1542:1546   */\n      0x00\n        /* \"#utility.yul\":1580:1582   */\n      0x20\n        /* \"#utility.yul\":1569:1578   */\n      dup3\n        /* \"#utility.yul\":1565:1583   */\n      add\n        /* \"#utility.yul\":1557:1583   */\n      swap1\n      pop\n        /* \"#utility.yul\":1593:1664   */\n      tag_191\n        /* \"#utility.yul\":1661:1662   */\n      0x00\n        /* \"#utility.yul\":1650:1659   */\n      dup4\n        /* \"#utility.yul\":1646:1663   */\n      add\n        /* \"#utility.yul\":1637:1643   */\n      dup5\n        /* \"#utility.yul\":1593:1664   */\n      tag_143\n      jump\t// in\n    tag_191:\n        /* \"#utility.yul\":1449:1671   */\n      swap3\n      swap2\n      pop\n      pop\n      jump\t// out\n        /* \"#utility.yul\":1758:1875   */\n    tag_145:\n        /* \"#utility.yul\":1867:1868   */\n      0x00\n        /* \"#utility.yul\":1864:1865   */\n      0x00\n        /* \"#utility.yul\":1857:1869   */\n      revert\n        /* \"#utility.yul\":2004:2126   */\n    tag_147:\n        /* \"#utility.yul\":2077:2101   */\n      tag_196\n        /* \"#utility.yul\":2095:2100   */\n      dup2\n        /* \"#utility.yul\":2077:2101   */\n      tag_142\n      jump\t// in\n    tag_196:\n        /* \"#utility.yul\":2070:2075   */\n      dup2\n        /* \"#utility.yul\":2067:2102   */\n      eq\n        /* \"#utility.yul\":2057:2120   */\n      tag_197\n      jumpi\n        /* \"#utility.yul\":2116:2117   */\n      0x00\n        /* \"#utility.yul\":2113:2114   */\n      0x00\n        /* \"#utility.yul\":2106:2118   */\n      revert\n        /* \"#utility.yul\":2057:2120   */\n    tag_197:\n        /* \"#utility.yul\":2004:2126   */\n      pop\n      jump\t// out\n        /* \"#utility.yul\":2132:2271   */\n    tag_148:\n        /* \"#utility.yul\":2178:2183   */\n      0x00\n        /* \"#utility.yul\":2216:2222   */\n      dup2\n        /* \"#utility.yul\":2203:2223   */\n      calldataload\n        /* \"#utility.yul\":2194:2223   */\n      swap1\n      pop\n        /* \"#utility.yul\":2232:2265   */\n      tag_199\n        /* \"#utility.yul\":2259:2264   */\n      dup2\n        /* \"#utility.yul\":2232:2265   */\n      tag_147\n      jump\t// in\n    tag_199:\n        /* \"#utility.yul\":2132:2271   */\n      swap3\n      swap2\n      pop\n      pop\n      jump\t// out\n        /* \"#utility.yul\":2277:2606   */\n    tag_23:\n        /* \"#utility.yul\":2336:2342   */\n      0x00\n        /* \"#utility.yul\":2385:2387   */\n      0x20\n        /* \"#utility.yul\":2373:2382   */\n      dup3\n        /* \"#utility.yul\":2364:2371   */\n      dup5\n        /* \"#utility.yul\":2360:2383   */\n      sub\n        /* \"#utility.yul\":2356:2388   */\n      slt\n        /* \"#utility.yul\":2353:2472   */\n      iszero\n      tag_201\n      jumpi\n        /* \"#utility.yul\":2391:2470   */\n      tag_202\n      tag_145\n      jump\t// in\n    tag_202:\n        /* \"#utility.yul\":2353:2472   */\n    tag_201:\n        /* \"#utility.yul\":2511:2512   */\n      0x00\n        /* \"#utility.yul\":2536:2589   */\n      tag_203\n        /* \"#utility.yul\":2581:2588   */\n      dup5\n        /* \"#utility.yul\":2572:2578   */\n      dup3\n        /* \"#utility.yul\":2561:2570   */\n      dup6\n        /* \"#utility.yul\":2557:2579   */\n      add\n        /* \"#utility.yul\":2536:2589   */\n      tag_148\n      jump\t// in\n    tag_203:\n        /* \"#utility.yul\":2526:2589   */\n      swap2\n      pop\n        /* \"#utility.yul\":2482:2599   */\n      pop\n        /* \"#utility.yul\":2277:2606   */\n      swap3\n      swap2\n      pop\n      pop\n      jump\t// out\n        /* \"#utility.yul\":2612:2738   */\n    tag_149:\n        /* \"#utility.yul\":2649:2656   */\n      0x00\n        /* \"#utility.yul\":2689:2731   */\n      0xffffffffffffffffffffffffffffffffffffffff\n        /* \"#utility.yul\":2682:2687   */\n      dup3\n        /* \"#utility.yul\":2678:2732   */\n      and\n        /* \"#utility.yul\":2667:2732   */\n      swap1\n      pop\n        /* \"#utility.yul\":2612:2738   */\n      swap2\n      swap1\n      pop\n      jump\t// out\n        /* \"#utility.yul\":2744:2840   */\n    tag_150:\n        /* \"#utility.yul\":2781:2788   */\n      0x00\n        /* \"#utility.yul\":2810:2834   */\n      tag_206\n        /* \"#utility.yul\":2828:2833   */\n      dup3\n        /* \"#utility.yul\":2810:2834   */\n      tag_149\n      jump\t// in\n    tag_206:\n        /* \"#utility.yul\":2799:2834   */\n      swap1\n      pop\n        /* \"#utility.yul\":2744:2840   */\n      swap2\n      swap1\n      pop\n      jump\t// out\n        /* \"#utility.yul\":2846:2964   */\n    tag_151:\n        /* \"#utility.yul\":2933:2957   */\n      tag_208\n        /* \"#utility.yul\":2951:2956   */\n      dup2\n        /* \"#utility.yul\":2933:2957   */\n      tag_150\n      jump\t// in\n    tag_208:\n        /* \"#utility.yul\":2928:2931   */\n      dup3\n        /* \"#utility.yul\":2921:2958   */\n      mstore\n        /* \"#utility.yul\":2846:2964   */\n      pop\n      pop\n      jump\t// out\n        /* \"#utility.yul\":2970:3192   */\n    tag_26:\n        /* \"#utility.yul\":3063:3067   */\n      0x00\n        /* \"#utility.yul\":3101:3103   */\n      0x20\n        /* \"#utility.yul\":3090:3099   */\n      dup3\n        /* \"#utility.yul\":3086:3104   */\n      add\n        /* \"#utility.yul\":3078:3104   */\n      swap1\n      pop\n        /* \"#utility.yul\":3114:3185   */\n      tag_210\n        /* \"#utility.yul\":3182:3183   */\n      0x00\n        /* \"#utility.yul\":3171:3180   */\n      dup4\n        /* \"#utility.yul\":3167:3184   */\n      add\n        /* \"#utility.yul\":3158:3164   */\n      dup5\n        /* \"#utility.yul\":3114:3185   */\n      tag_151\n      jump\t// in\n    tag_210:\n        /* \"#utility.yul\":2970:3192   */\n      swap3\n      swap2\n      pop\n      pop\n      jump\t// out\n        /* \"#utility.yul\":3198:3320   */\n    tag_152:\n        /* \"#utility.yul\":3271:3295   */\n      tag_212\n        /* \"#utility.yul\":3289:3294   */\n      dup2\n        /* \"#utility.yul\":3271:3295   */\n      tag_150\n      jump\t// in\n    tag_212:\n        /* \"#utility.yul\":3264:3269   */\n      dup2\n        /* \"#utility.yul\":3261:3296   */\n      eq\n        /* \"#utility.yul\":3251:3314   */\n      tag_213\n      jumpi\n        /* \"#utility.yul\":3310:3311   */\n      0x00\n        /* \"#utility.yul\":3307:3308   */\n      0x00\n        /* \"#utility.yul\":3300:3312   */\n      revert\n        /* \"#utility.yul\":3251:3314   */\n    tag_213:\n        /* \"#utility.yul\":3198:3320   */\n      pop\n      jump\t// out\n        /* \"#utility.yul\":3326:3465   */\n    tag_153:\n        /* \"#utility.yul\":3372:3377   */\n      0x00\n        /* \"#utility.yul\":3410:3416   */\n      dup2\n        /* \"#utility.yul\":3397:3417   */\n      calldataload\n        /* \"#utility.yul\":3388:3417   */\n      swap1\n      pop\n        /* \"#utility.yul\":3426:3459   */\n      tag_215\n        /* \"#utility.yul\":3453:3458   */\n      dup2\n        /* \"#utility.yul\":3426:3459   */\n      tag_152\n      jump\t// in\n    tag_215:\n        /* \"#utility.yul\":3326:3465   */\n      swap3\n      swap2\n      pop\n      pop\n      jump\t// out\n        /* \"#utility.yul\":3471:3800   */\n    tag_29:\n        /* \"#utility.yul\":3530:3536   */\n      0x00\n        /* \"#utility.yul\":3579:3581   */\n      0x20\n        /* \"#utility.yul\":3567:3576   */\n      dup3\n        /* \"#utility.yul\":3558:3565   */\n      dup5\n        /* \"#utility.yul\":3554:3577   */\n      sub\n        /* \"#utility.yul\":3550:3582   */\n      slt\n        /* \"#utility.yul\":3547:3666   */\n      iszero\n      tag_217\n      jumpi\n        /* \"#utility.yul\":3585:3664   */\n      tag_218\n      tag_145\n      jump\t// in\n    tag_218:\n        /* \"#utility.yul\":3547:3666   */\n    tag_217:\n        /* \"#utility.yul\":3705:3706   */\n      0x00\n        /* \"#utility.yul\":3730:3783   */\n      tag_219\n        /* \"#utility.yul\":3775:3782   */\n      dup5\n        /* \"#utility.yul\":3766:3772   */\n      dup3\n        /* \"#utility.yul\":3755:3764   */\n      dup6\n        /* \"#utility.yul\":3751:3773   */\n      add\n        /* \"#utility.yul\":3730:3783   */\n      tag_153\n      jump\t// in\n    tag_219:\n        /* \"#utility.yul\":3720:3783   */\n      swap2\n      pop\n        /* \"#utility.yul\":3676:3793   */\n      pop\n        /* \"#utility.yul\":3471:3800   */\n      swap3\n      swap2\n      pop\n      pop\n      jump\t// out\n        /* \"#utility.yul\":3806:3986   */\n    tag_154:\n        /* \"#utility.yul\":3854:3931   */\n      0x4e487b7100000000000000000000000000000000000000000000000000000000\n        /* \"#utility.yul\":3851:3852   */\n      0x00\n        /* \"#utility.yul\":3844:3932   */\n      mstore\n        /* \"#utility.yul\":3951:3955   */\n      0x22\n        /* \"#utility.yul\":3948:3949   */\n      0x04\n        /* \"#utility.yul\":3941:3956   */\n      mstore\n        /* \"#utility.yul\":3975:3979   */\n      0x24\n        /* \"#utility.yul\":3972:3973   */\n      0x00\n        /* \"#utility.yul\":3965:3980   */\n      revert\n        /* \"#utility.yul\":3992:4312   */\n    tag_52:\n        /* \"#utility.yul\":4036:4042   */\n      0x00\n        /* \"#utility.yul\":4073:4074   */\n      0x02\n        /* \"#utility.yul\":4067:4071   */\n      dup3\n        /* \"#utility.yul\":4063:4075   */\n      div\n        /* \"#utility.yul\":4053:4075   */\n      swap1\n      pop\n        /* \"#utility.yul\":4120:4121   */\n      0x01\n        /* \"#utility.yul\":4114:4118   */\n      dup3\n        /* \"#utility.yul\":4110:4122   */\n      and\n        /* \"#utility.yul\":4141:4159   */\n      dup1\n        /* \"#utility.yul\":4131:4212   */\n      tag_222\n      jumpi\n        /* \"#utility.yul\":4197:4201   */\n      0x7f\n        /* \"#utility.yul\":4189:4195   */\n      dup3\n        /* \"#utility.yul\":4185:4202   */\n      and\n        /* \"#utility.yul\":4175:4202   */\n      swap2\n      pop\n        /* \"#utility.yul\":4131:4212   */\n    tag_222:\n        /* \"#utility.yul\":4259:4261   */\n      0x20\n        /* \"#utility.yul\":4251:4257   */\n      dup3\n        /* \"#utility.yul\":4248:4262   */\n      lt\n        /* \"#utility.yul\":4228:4246   */\n      dup2\n        /* \"#utility.yul\":4225:4263   */\n      sub\n        /* \"#utility.yul\":4222:4306   */\n      tag_223\n      jumpi\n        /* \"#utility.yul\":4278:4296   */\n      tag_224\n      tag_154\n      jump\t// in\n    tag_224:\n        /* \"#utility.yul\":4222:4306   */\n    tag_223:\n        /* \"#utility.yul\":4043:4312   */\n      pop\n        /* \"#utility.yul\":3992:4312   */\n      swap2\n      swap1\n      pop\n      jump\t// out\n        /* \"#utility.yul\":4318:4495   */\n    tag_155:\n        /* \"#utility.yul\":4458:4487   */\n      0x43616e6e6f74206d696e7420746f207a65726f20616464726573730000000000\n        /* \"#utility.yul\":4454:4455   */\n      0x00\n        /* \"#utility.yul\":4446:4452   */\n      dup3\n        /* \"#utility.yul\":4442:4456   */\n      add\n        /* \"#utility.yul\":4435:4488   */\n      mstore\n        /* \"#utility.yul\":4318:4495   */\n      pop\n      jump\t// out\n        /* \"#utility.yul\":4501:4867   */\n    tag_156:\n        /* \"#utility.yul\":4643:4646   */\n      0x00\n        /* \"#utility.yul\":4664:4731   */\n      tag_227\n        /* \"#utility.yul\":4728:4730   */\n      0x1b\n        /* \"#utility.yul\":4723:4726   */\n      dup4\n        /* \"#utility.yul\":4664:4731   */\n      tag_138\n      jump\t// in\n    tag_227:\n        /* \"#utility.yul\":4657:4731   */\n      swap2\n      pop\n        /* \"#utility.yul\":4740:4833   */\n      tag_228\n        /* \"#utility.yul\":4829:4832   */\n      dup3\n        /* \"#utility.yul\":4740:4833   */\n      tag_155\n      jump\t// in\n    tag_228:\n        /* \"#utility.yul\":4858:4860   */\n      0x20\n        /* \"#utility.yul\":4853:4856   */\n      dup3\n        /* \"#utility.yul\":4849:4861   */\n      add\n        /* \"#utility.yul\":4842:4861   */\n      swap1\n      pop\n        /* \"#utility.yul\":4501:4867   */\n      swap2\n      swap1\n      pop\n      jump\t// out\n        /* \"#utility.yul\":4873:5292   */\n    tag_60:\n        /* \"#utility.yul\":5039:5043   */\n      0x00\n        /* \"#utility.yul\":5077:5079   */\n      0x20\n        /* \"#utility.yul\":5066:5075   */\n      dup3\n        /* \"#utility.yul\":5062:5080   */\n      add\n        /* \"#utility.yul\":5054:5080   */\n      swap1\n      pop\n        /* \"#utility.yul\":5126:5135   */\n      dup2\n        /* \"#utility.yul\":5120:5124   */\n      dup2\n        /* \"#utility.yul\":5116:5136   */\n      sub\n        /* \"#utility.yul\":5112:5113   */\n      0x00\n        /* \"#utility.yul\":5101:5110   */\n      dup4\n        /* \"#utility.yul\":5097:5114   */\n      add\n        /* \"#utility.yul\":5090:5137   */\n      mstore\n        /* \"#utility.yul\":5154:5285   */\n      tag_230\n        /* \"#utility.yul\":5280:5284   */\n      dup2\n        /* \"#utility.yul\":5154:5285   */\n      tag_156\n      jump\t// in\n    tag_230:\n        /* \"#utility.yul\":5146:5285   */\n      swap1\n      pop\n        /* \"#utility.yul\":4873:5292   */\n      swap2\n      swap1\n      pop\n      jump\t// out\n        /* \"#utility.yul\":5298:5478   */\n    tag_157:\n        /* \"#utility.yul\":5346:5423   */\n      0x4e487b7100000000000000000000000000000000000000000000000000000000\n        /* \"#utility.yul\":5343:5344   */\n      0x00\n        /* \"#utility.yul\":5336:5424   */\n      mstore\n        /* \"#utility.yul\":5443:5447   */\n      0x11\n        /* \"#utility.yul\":5440:5441   */\n      0x04\n        /* \"#utility.yul\":5433:5448   */\n      mstore\n        /* \"#utility.yul\":5467:5471   */\n      0x24\n        /* \"#utility.yul\":5464:5465   */\n      0x00\n        /* \"#utility.yul\":5457:5472   */\n      revert\n        /* \"#utility.yul\":5484:5717   */\n    tag_62:\n        /* \"#utility.yul\":5523:5526   */\n      0x00\n        /* \"#utility.yul\":5546:5570   */\n      tag_233\n        /* \"#utility.yul\":5564:5569   */\n      dup3\n        /* \"#utility.yul\":5546:5570   */\n      tag_142\n      jump\t// in\n    tag_233:\n        /* \"#utility.yul\":5537:5570   */\n      swap2\n      pop\n        /* \"#utility.yul\":5592:5658   */\n      0xffffffffffffffffffffffffffffffffffffffffffffffffffffffffffffffff\n        /* \"#utility.yul\":5585:5590   */\n      dup3\n        /* \"#utility.yul\":5582:5659   */\n      sub\n        /* \"#utility.yul\":5579:5682   */\n      tag_234\n      jumpi\n        /* \"#utility.yul\":5662:5680   */\n      tag_235\n      tag_157\n      jump\t// in\n    tag_235:\n        /* \"#utility.yul\":5579:5682   */\n    tag_234:\n        /* \"#utility.yul\":5709:5710   */\n      0x01\n        /* \"#utility.yul\":5702:5707   */\n      dup3\n        /* \"#utility.yul\":5698:5711   */\n      add\n        /* \"#utility.yul\":5691:5711   */\n      swap1\n      pop\n        /* \"#utility.yul\":5484:5717   */\n      swap2\n      swap1\n      pop\n      jump\t// out\n        /* \"#utility.yul\":5723:5893   */\n    tag_158:\n        /* \"#utility.yul\":5863:5885   */\n      0x546f6b656e20646f6573206e6f74206578697374000000000000000000000000\n        /* \"#utility.yul\":5859:5860   */\n      0x00\n        /* \"#utility.yul\":5851:5857   */\n      dup3\n        /* \"#utility.yul\":5847:5861   */\n      add\n        /* \"#utility.yul\":5840:5886   */\n      mstore\n        /* \"#utility.yul\":5723:5893   */\n      pop\n      jump\t// out\n        /* \"#utility.yul\":5899:6265   */\n    tag_159:\n        /* \"#utility.yul\":6041:6044   */\n      0x00\n        /* \"#utility.yul\":6062:6129   */\n      tag_238\n        /* \"#utility.yul\":6126:6128   */\n      0x14\n        /* \"#utility.yul\":6121:6124   */\n      dup4\n        /* \"#utility.yul\":6062:6129   */\n      tag_138\n      jump\t// in\n    tag_238:\n        /* \"#utility.yul\":6055:6129   */\n      swap2\n      pop\n        /* \"#utility.yul\":6138:6231   */\n      tag_239\n        /* \"#utility.yul\":6227:6230   */\n      dup3\n        /* \"#utility.yul\":6138:6231   */\n      tag_158\n      jump\t// in\n    tag_239:\n        /* \"#utility.yul\":6256:6258   */\n      0x20\n        /* \"#utility.yul\":6251:6254   */\n      dup3\n        /* \"#utility.yul\":6247:6259   */\n      add\n        /* \"#utility.yul\":6240:6259   */\n      swap1\n      pop\n        /* \"#utility.yul\":5899:6265   */\n      swap2\n      swap1\n      pop\n      jump\t// out\n        /* \"#utility.yul\":6271:6690   */\n    tag_67:\n        /* \"#utility.yul\":6437:6441   */\n      0x00\n        /* \"#utility.yul\":6475:6477   */\n      0x20\n        /* \"#utility.yul\":6464:6473   */\n      dup3\n        /* \"#utility.yul\":6460:6478   */\n      add\n        /* \"#utility.yul\":6452:6478   */\n      swap1\n      pop\n        /* \"#utility.yul\":6524:6533   */\n      dup2\n        /* \"#utility.yul\":6518:6522   */\n      dup2\n        /* \"#utility.yul\":6514:6534   */\n      sub\n        /* \"#utility.yul\":6510:6511   */\n      0x00\n        /* \"#utility.yul\":6499:6508   */\n      dup4\n        /* \"#utility.yul\":6495:6512   */\n      add\n        /* \"#utility.yul\":6488:6535   */\n      mstore\n        /* \"#utility.yul\":6552:6683   */\n      tag_241\n        /* \"#utility.yul\":6678:6682   */\n      dup2\n        /* \"#utility.yul\":6552:6683   */\n      tag_159\n      jump\t// in\n    tag_241:\n        /* \"#utility.yul\":6544:6683   */\n      swap1\n      pop\n        /* \"#utility.yul\":6271:6690   */\n      swap2\n      swap1\n      pop\n      jump\t// out\n        /* \"#utility.yul\":6696:6844   */\n    tag_160:\n        /* \"#utility.yul\":6798:6809   */\n      0x00\n        /* \"#utility.yul\":6835:6838   */\n      dup2\n        /* \"#utility.yul\":6820:6838   */\n      swap1\n      pop\n        /* \"#utility.yul\":6696:6844   */\n      swap3\n      swap2\n      pop\n      pop\n      jump\t// out\n        /* \"#utility.yul\":6850:7007   */\n    tag_161:\n        /* \"#utility.yul\":6990:6999   */\n      0x546f6b656e202300000000000000000000000000000000000000000000000000\n        /* \"#utility.yul\":6986:6987   */\n      0x00\n        /* \"#utility.yul\":6978:6984   */\n      dup3\n        /* \"#utility.yul\":6974:6988   */\n      add\n        /* \"#utility.yul\":6967:7000   */\n      mstore\n        /* \"#utility.yul\":6850:7007   */\n      pop\n      jump\t// out\n        /* \"#utility.yul\":7013:7413   */\n    tag_162:\n        /* \"#utility.yul\":7173:7176   */\n      0x00\n        /* \"#utility.yul\":7194:7278   */\n      tag_245\n        /* \"#utility.yul\":7276:7277   */\n      0x07\n        /* \"#utility.yul\":7271:7274   */\n      dup4\n        /* \"#utility.yul\":7194:7278   */\n      tag_160\n      jump\t// in\n    tag_245:\n        /* \"#utility.yul\":7187:7278   */\n      swap2\n      pop\n        /* \"#utility.yul\":7287:7380   */\n      tag_246\n        /* \"#utility.yul\":7376:7379   */\n      dup3\n        /* \"#utility.yul\":7287:7380   */\n      tag_161\n      jump\t// in\n    tag_246:\n        /* \"#utility.yul\":7405:7406   */\n      0x07\n        /* \"#utility.yul\":7400:7403   */\n      dup3\n        /* \"#utility.yul\":7396:7407   */\n      add\n        /* \"#utility.yul\":7389:7407   */\n      swap1\n      pop\n        /* \"#utility.yul\":7013:7413   */\n      swap2\n      swap1\n      pop\n      jump\t// out\n        /* \"#utility.yul\":7419:7809   */\n    tag_163:\n        /* \"#utility.yul\":7525:7528   */\n      0x00\n        /* \"#utility.yul\":7553:7592   */\n      tag_248\n        /* \"#utility.yul\":7586:7591   */\n      dup3\n        /* \"#utility.yul\":7553:7592   */\n      tag_137\n      jump\t// in\n    tag_248:\n        /* \"#utility.yul\":7608:7697   */\n      tag_249\n        /* \"#utility.yul\":7690:7696   */\n      dup2\n        /* \"#utility.yul\":7685:7688   */\n      dup6\n        /* \"#utility.yul\":7608:7697   */\n      tag_160\n      jump\t// in\n    tag_249:\n        /* \"#utility.yul\":7601:7697   */\n      swap4\n      pop\n        /* \"#utility.yul\":7706:7771   */\n      tag_250\n        /* \"#utility.yul\":7764:7770   */\n      dup2\n        /* \"#utility.yul\":7759:7762   */\n      dup6\n        /* \"#utility.yul\":7752:7756   */\n      0x20\n        /* \"#utility.yul\":7745:7750   */\n      dup7\n        /* \"#utility.yul\":7741:7757   */\n      add\n        /* \"#utility.yul\":7706:7771   */\n      tag_139\n      jump\t// in\n    tag_250:\n        /* \"#utility.yul\":7796:7802   */\n      dup1\n        /* \"#utility.yul\":7791:7794   */\n      dup5\n        /* \"#utility.yul\":7787:7803   */\n      add\n        /* \"#utility.yul\":7780:7803   */\n      swap2\n      pop\n        /* \"#utility.yul\":7529:7809   */\n      pop\n        /* \"#utility.yul\":7419:7809   */\n      swap3\n      swap2\n      pop\n      pop\n      jump\t// out\n        /* \"#utility.yul\":7815:7978   */\n    tag_164:\n        /* \"#utility.yul\":7955:7970   */\n      0x206973206f776e65642062792000000000000000000000000000000000000000\n        /* \"#utility.yul\":7951:7952   */\n      0x00\n        /* \"#utility.yul\":7943:7949   */\n      dup3\n        /* \"#utility.yul\":7939:7953   */\n      add\n        /* \"#utility.yul\":7932:7971   */\n      mstore\n        /* \"#utility.yul\":7815:7978   */\n      pop\n      jump\t// out\n        /* \"#utility.yul\":7984:8386   */\n    tag_165:\n        /* \"#utility.yul\":8144:8147   */\n      0x00\n        /* \"#utility.yul\":8165:8250   */\n      tag_253\n        /* \"#utility.yul\":8247:8249   */\n      0x0d\n        /* \"#utility.yul\":8242:8245   */\n      dup4\n        /* \"#utility.yul\":8165:8250   */\n      tag_160\n      jump\t// in\n    tag_253:\n        /* \"#utility.yul\":8158:8250   */\n      swap2\n      pop\n        /* \"#utility.yul\":8259:8352   */\n      tag_254\n        /* \"#utility.yul\":8348:8351   */\n      dup3\n        /* \"#utility.yul\":8259:8352   */\n      tag_164\n      jump\t// in\n    tag_254:\n        /* \"#utility.yul\":8377:8379   */\n      0x0d\n        /* \"#utility.yul\":8372:8375   */\n      dup3\n        /* \"#utility.yul\":8368:8380   */\n      add\n        /* \"#utility.yul\":8361:8380   */\n      swap1\n      pop\n        /* \"#utility.yul\":7984:8386   */\n      swap2\n      swap1\n      pop\n      jump\t// out\n        /* \"#utility.yul\":8392:9359   */\n    tag_73:\n        /* \"#utility.yul\":8774:8777   */\n      0x00\n        /* \"#utility.yul\":8796:8944   */\n      tag_256\n        /* \"#utility.yul\":8940:8943   */\n      dup3\n        /* \"#utility.yul\":8796:8944   */\n      tag_162\n      jump\t// in\n    tag_256:\n        /* \"#utility.yul\":8789:8944   */\n      swap2\n      pop\n        /* \"#utility.yul\":8961:9056   */\n      tag_257\n        /* \"#utility.yul\":9052:9055   */\n      dup3\n        /* \"#utility.yul\":9043:9049   */\n      dup6\n        /* \"#utility.yul\":8961:9056   */\n      tag_163\n      jump\t// in\n    tag_257:\n        /* \"#utility.yul\":8954:9056   */\n      swap2\n      pop\n        /* \"#utility.yul\":9073:9221   */\n      tag_258\n        /* \"#utility.yul\":9217:9220   */\n      dup3\n        /* \"#utility.yul\":9073:9221   */\n      tag_165\n      jump\t// in\n    tag_258:\n        /* \"#utility.yul\":9066:9221   */\n      swap2\n      pop\n        /* \"#utility.yul\":9238:9333   */\n      tag_259\n        /* \"#utility.yul\":9329:9332   */\n      dup3\n        /* \"#utility.yul\":9320:9326   */\n      dup5\n        /* \"#utility.yul\":9238:9333   */\n      tag_163\n      jump\t// in\n    tag_259:\n        /* \"#utility.yul\":9231:9333   */\n      swap2\n      pop\n        /* \"#utility.yul\":9350:9353   */\n      dup2\n        /* \"#utility.yul\":9343:9353   */\n      swap1\n      pop\n        /* \"#utility.yul\":8392:9359   */\n      swap4\n      swap3\n      pop\n      pop\n      pop\n      jump\t// out\n        /* \"#utility.yul\":9365:9547   */\n    tag_166:\n        /* \"#utility.yul\":9505:9535   */\n      0x68747470733a2f2f6170692e6d796e66742e636f6d2f746f6b656e2f00000000\n        /* \"#utility.yul\":9501:9502   */\n      0x00\n        /* \"#utility.yul\":9493:9499   */\n      dup3\n        /* \"#utility.yul\":9489:9503   */\n      add\n        /* \"#utility.yul\":9482:9536   */\n      mstore\n        /* \"#utility.yul\":9365:9547   */\n      pop\n      jump\t// out\n        /* \"#utility.yul\":9557:9975   */\n    tag_167:\n        /* \"#utility.yul\":9717:9720   */\n      0x00\n        /* \"#utility.yul\":9742:9827   */\n      tag_262\n        /* \"#utility.yul\":9824:9826   */\n      0x1c\n        /* \"#utility.yul\":9819:9822   */\n      dup4\n        /* \"#utility.yul\":9742:9827   */\n      tag_160\n      jump\t// in\n    tag_262:\n        /* \"#utility.yul\":9735:9827   */\n      swap2\n      pop\n        /* \"#utility.yul\":9840:9933   */\n      tag_263\n        /* \"#utility.yul\":9929:9932   */\n      dup3\n        /* \"#utility.yul\":9840:9933   */\n      tag_166\n      jump\t// in\n    tag_263:\n        /* \"#utility.yul\":9962:9964   */\n      0x1c\n        /* \"#utility.yul\":9957:9960   */\n      dup3\n        /* \"#utility.yul\":9953:9965   */\n      add\n        /* \"#utility.yul\":9946:9965   */\n      swap1\n      pop\n        /* \"#utility.yul\":9557:9975   */\n      swap2\n      swap1\n      pop\n      jump\t// out\n        /* \"#utility.yul\":9985:10542   */\n    tag_84:\n        /* \"#utility.yul\":10218:10221   */\n      0x00\n        /* \"#utility.yul\":10244:10392   */\n      tag_265\n        /* \"#utility.yul\":10388:10391   */\n      dup3\n        /* \"#utility.yul\":10244:10392   */\n      tag_167\n      jump\t// in\n    tag_265:\n        /* \"#utility.yul\":10237:10392   */\n      swap2\n      pop\n        /* \"#utility.yul\":10413:10508   */\n      tag_266\n        /* \"#utility.yul\":10504:10507   */\n      dup3\n        /* \"#utility.yul\":10495:10501   */\n      dup5\n        /* \"#utility.yul\":10413:10508   */\n      tag_163\n      jump\t// in\n    tag_266:\n        /* \"#utility.yul\":10406:10508   */\n      swap2\n      pop\n        /* \"#utility.yul\":10529:10532   */\n      dup2\n        /* \"#utility.yul\":10522:10532   */\n      swap1\n      pop\n        /* \"#utility.yul\":9985:10542   */\n      swap3\n      swap2\n      pop\n      pop\n      jump\t// out\n        /* \"#utility.yul\":10552:10718   */\n    tag_168:\n        /* \"#utility.yul\":10696:10706   */\n      0x4d696e74696e6720000000000000000000000000000000000000000000000000\n        /* \"#utility.yul\":10692:10693   */\n      0x00\n        /* \"#utility.yul\":10684:10690   */\n      dup3\n        /* \"#utility.yul\":10680:10694   */\n      add\n        /* \"#utility.yul\":10673:10707   */\n      mstore\n        /* \"#utility.yul\":10552:10718   */\n      pop\n      jump\t// out\n        /* \"#utility.yul\":10728:11144   */\n    tag_169:\n        /* \"#utility.yul\":10888:10891   */\n      0x00\n        /* \"#utility.yul\":10913:10997   */\n      tag_269\n        /* \"#utility.yul\":10995:10996   */\n      0x08\n        /* \"#utility.yul\":10990:10993   */\n      dup4\n        /* \"#utility.yul\":10913:10997   */\n      tag_160\n      jump\t// in\n    tag_269:\n        /* \"#utility.yul\":10906:10997   */\n      swap2\n      pop\n        /* \"#utility.yul\":11010:11103   */\n      tag_270\n        /* \"#utility.yul\":11099:11102   */\n      dup3\n        /* \"#utility.yul\":11010:11103   */\n      tag_168\n      jump\t// in\n    tag_270:\n        /* \"#utility.yul\":11132:11133   */\n      0x08\n        /* \"#utility.yul\":11127:11130   */\n      dup3\n        /* \"#utility.yul\":11123:11134   */\n      add\n        /* \"#utility.yul\":11116:11134   */\n      swap1\n      pop\n        /* \"#utility.yul\":10728:11144   */\n      swap2\n      swap1\n      pop\n      jump\t// out\n        /* \"#utility.yul\":11154:11317   */\n    tag_170:\n        /* \"#utility.yul\":11298:11305   */\n      0x204e465473000000000000000000000000000000000000000000000000000000\n        /* \"#utility.yul\":11294:11295   */\n      0x00\n        /* \"#utility.yul\":11286:11292   */\n      dup3\n        /* \"#utility.yul\":11282:11296   */\n      add\n        /* \"#utility.yul\":11275:11306   */\n      mstore\n        /* \"#utility.yul\":11154:11317   */\n      pop\n      jump\t// out\n        /* \"#utility.yul\":11327:11743   */\n    tag_171:\n        /* \"#utility.yul\":11487:11490   */\n      0x00\n        /* \"#utility.yul\":11512:11596   */\n      tag_273\n        /* \"#utility.yul\":11594:11595   */\n      0x05\n        /* \"#utility.yul\":11589:11592   */\n      dup4\n        /* \"#utility.yul\":11512:11596   */\n      tag_160\n      jump\t// in\n    tag_273:\n        /* \"#utility.yul\":11505:11596   */\n      swap2\n      pop\n        /* \"#utility.yul\":11609:11702   */\n      tag_274\n        /* \"#utility.yul\":11698:11701   */\n      dup3\n        /* \"#utility.yul\":11609:11702   */\n      tag_170\n      jump\t// in\n    tag_274:\n        /* \"#utility.yul\":11731:11732   */\n      0x05\n        /* \"#utility.yul\":11726:11729   */\n      dup3\n        /* \"#utility.yul\":11722:11733   */\n      add\n        /* \"#utility.yul\":11715:11733   */\n      swap1\n      pop\n        /* \"#utility.yul\":11327:11743   */\n      swap2\n      swap1\n      pop\n      jump\t// out\n        /* \"#utility.yul\":11753:12580   */\n    tag_88:\n        /* \"#utility.yul\":12087:12090   */\n      0x00\n        /* \"#utility.yul\":12113:12261   */\n      tag_276\n        /* \"#utility.yul\":12257:12260   */\n      dup3\n        /* \"#utility.yul\":12113:12261   */\n      tag_169\n      jump\t// in\n    tag_276:\n        /* \"#utility.yul\":12106:12261   */\n      swap2\n      pop\n        /* \"#utility.yul\":12282:12377   */\n      tag_277\n        /* \"#utility.yul\":12373:12376   */\n      dup3\n        /* \"#utility.yul\":12364:12370   */\n      dup5\n        /* \"#utility.yul\":12282:12377   */\n      tag_163\n      jump\t// in\n    tag_277:\n        /* \"#utility.yul\":12275:12377   */\n      swap2\n      pop\n        /* \"#utility.yul\":12398:12546   */\n      tag_278\n        /* \"#utility.yul\":12542:12545   */\n      dup3\n        /* \"#utility.yul\":12398:12546   */\n      tag_171\n      jump\t// in\n    tag_278:\n        /* \"#utility.yul\":12391:12546   */\n      swap2\n      pop\n        /* \"#utility.yul\":12567:12570   */\n      dup2\n        /* \"#utility.yul\":12560:12570   */\n      swap1\n      pop\n        /* \"#utility.yul\":11753:12580   */\n      swap3\n      swap2\n      pop\n      pop\n      jump\t// out\n        /* \"#utility.yul\":12590:13048   */\n    tag_91:\n        /* \"#utility.yul\":12630:12637   */\n      0x00\n        /* \"#utility.yul\":12657:12677   */\n      tag_280\n        /* \"#utility.yul\":12675:12676   */\n      dup3\n        /* \"#utility.yul\":12657:12677   */\n      tag_142\n      jump\t// in\n    tag_280:\n        /* \"#utility.yul\":12652:12677   */\n      swap2\n      pop\n        /* \"#utility.yul\":12695:12715   */\n      tag_281\n        /* \"#utility.yul\":12713:12714   */\n      dup4\n        /* \"#utility.yul\":12695:12715   */\n      tag_142\n      jump\t// in\n    tag_281:\n        /* \"#utility.yul\":12690:12715   */\n      swap3\n      pop\n        /* \"#utility.yul\":12754:12755   */\n      dup3\n        /* \"#utility.yul\":12751:12752   */\n      dup3\n        /* \"#utility.yul\":12747:12756   */\n      mul\n        /* \"#utility.yul\":12780:12810   */\n      tag_282\n        /* \"#utility.yul\":12798:12809   */\n      dup2\n        /* \"#utility.yul\":12780:12810   */\n      tag_142\n      jump\t// in\n    tag_282:\n        /* \"#utility.yul\":12769:12810   */\n      swap2\n      pop\n        /* \"#utility.yul\":12979:12980   */\n      dup3\n        /* \"#utility.yul\":12970:12977   */\n      dup3\n        /* \"#utility.yul\":12966:12981   */\n      div\n        /* \"#utility.yul\":12963:12964   */\n      dup5\n        /* \"#utility.yul\":12960:12982   */\n      eq\n        /* \"#utility.yul\":12936:12937   */\n      dup4\n        /* \"#utility.yul\":12929:12938   */\n      iszero\n        /* \"#utility.yul\":12905:13000   */\n      or\n        /* \"#utility.yul\":12878:13037   */\n      tag_283\n      jumpi\n        /* \"#utility.yul\":13017:13035   */\n      tag_284\n      tag_157\n      jump\t// in\n    tag_284:\n        /* \"#utility.yul\":12878:13037   */\n    tag_283:\n        /* \"#utility.yul\":12638:13048   */\n      pop\n        /* \"#utility.yul\":12590:13048   */\n      swap3\n      swap2\n      pop\n      pop\n      jump\t// out\n        /* \"#utility.yul\":13058:13269   */\n    tag_93:\n        /* \"#utility.yul\":13098:13101   */\n      0x00\n        /* \"#utility.yul\":13121:13141   */\n      tag_286\n        /* \"#utility.yul\":13139:13140   */\n      dup3\n        /* \"#utility.yul\":13121:13141   */\n      tag_142\n      jump\t// in\n    tag_286:\n        /* \"#utility.yul\":13116:13141   */\n      swap2\n      pop\n        /* \"#utility.yul\":13159:13179   */\n      tag_287\n        /* \"#utility.yul\":13177:13178   */\n      dup4\n        /* \"#utility.yul\":13159:13179   */\n      tag_142\n      jump\t// in\n    tag_287:\n        /* \"#utility.yul\":13154:13179   */\n      swap3\n      pop\n        /* \"#utility.yul\":13206:13207   */\n      dup3\n        /* \"#utility.yul\":13203:13204   */\n      dup3\n        /* \"#utility.yul\":13199:13208   */\n      add\n        /* \"#utility.yul\":13192:13208   */\n      swap1\n      pop\n        /* \"#utility.yul\":13231:13234   */\n      dup1\n        /* \"#utility.yul\":13228:13229   */\n      dup3\n        /* \"#utility.yul\":13225:13235   */\n      gt\n        /* \"#utility.yul\":13222:13258   */\n      iszero\n      tag_288\n      jumpi\n        /* \"#utility.yul\":13238:13256   */\n      tag_289\n      tag_157\n      jump\t// in\n    tag_289:\n        /* \"#utility.yul\":13222:13258   */\n    tag_288:\n        /* \"#utility.yul\":13058:13269   */\n      swap3\n      swap2\n      pop\n      pop\n      jump\t// out\n        /* \"#utility.yul\":13279:13475   */\n    tag_96:\n        /* \"#utility.yul\":13331:13408   */\n      0x4e487b7100000000000000000000000000000000000000000000000000000000\n        /* \"#utility.yul\":13328:13329   */\n      0x00\n        /* \"#utility.yul\":13321:13409   */\n      mstore\n        /* \"#utility.yul\":13432:13436   */\n      0x41\n        /* \"#utility.yul\":13429:13430   */\n      0x04\n        /* \"#utility.yul\":13422:13437   */\n      mstore\n        /* \"#utility.yul\":13460:13464   */\n      0x24\n        /* \"#utility.yul\":13457:13458   */\n      0x00\n        /* \"#utility.yul\":13450:13465   */\n      revert\n        /* \"#utility.yul\":13485:13681   */\n    tag_100:\n        /* \"#utility.yul\":13537:13614   */\n      0x4e487b7100000000000000000000000000000000000000000000000000000000\n        /* \"#utility.yul\":13534:13535   */\n      0x00\n        /* \"#utility.yul\":13527:13615   */\n      mstore\n        /* \"#utility.yul\":13638:13642   */\n      0x32\n        /* \"#utility.yul\":13635:13636   */\n      0x04\n        /* \"#utility.yul\":13628:13643   */\n      mstore\n        /* \"#utility.yul\":13666:13670   */\n      0x24\n        /* \"#utility.yul\":13663:13664   */\n      0x00\n        /* \"#utility.yul\":13656:13671   */\n      revert\n        /* \"#utility.yul\":13691:13878   */\n    tag_113:\n        /* \"#utility.yul\":13730:13733   */\n      0x00\n        /* \"#utility.yul\":13757:13781   */\n      tag_293\n        /* \"#utility.yul\":13775:13780   */\n      dup3\n        /* \"#utility.yul\":13757:13781   */\n      tag_142\n      jump\t// in\n    tag_293:\n        /* \"#utility.yul\":13748:13781   */\n      swap2\n      pop\n        /* \"#utility.yul\":13807:13811   */\n      0x00\n        /* \"#utility.yul\":13800:13805   */\n      dup3\n        /* \"#utility.yul\":13797:13812   */\n      sub\n        /* \"#utility.yul\":13794:13835   */\n      tag_294\n      jumpi\n        /* \"#utility.yul\":13815:13833   */\n      tag_295\n      tag_157\n      jump\t// in\n    tag_295:\n        /* \"#utility.yul\":13794:13835   */\n    tag_294:\n        /* \"#utility.yul\":13866:13867   */\n      0x01\n        /* \"#utility.yul\":13859:13864   */\n      dup3\n        /* \"#utility.yul\":13855:13868   */\n      sub\n        /* \"#utility.yul\":13848:13868   */\n      swap1\n      pop\n        /* \"#utility.yul\":13691:13878   */\n      swap2\n      swap1\n      pop\n      jump\t// out\n        /* \"#utility.yul\":13888:14078   */\n    tag_172:\n        /* \"#utility.yul\":14032:14066   */\n      0x537472696e67733a20686578206c656e67746820696e73756666696369656e74\n        /* \"#utility.yul\":14028:14029   */\n      0x00\n        /* \"#utility.yul\":14020:14026   */\n      dup3\n        /* \"#utility.yul\":14016:14030   */\n      add\n        /* \"#utility.yul\":14009:14067   */\n      mstore\n        /* \"#utility.yul\":13888:14078   */\n      pop\n      jump\t// out\n        /* \"#utility.yul\":14088:14470   */\n    tag_173:\n        /* \"#utility.yul\":14230:14233   */\n      0x00\n        /* \"#utility.yul\":14255:14322   */\n      tag_298\n        /* \"#utility.yul\":14319:14321   */\n      0x20\n        /* \"#utility.yul\":14314:14317   */\n      dup4\n        /* \"#utility.yul\":14255:14322   */\n      tag_138\n      jump\t// in\n    tag_298:\n        /* \"#utility.yul\":14248:14322   */\n      swap2\n      pop\n        /* \"#utility.yul\":14335:14428   */\n      tag_299\n        /* \"#utility.yul\":14424:14427   */\n      dup3\n        /* \"#utility.yul\":14335:14428   */\n      tag_172\n      jump\t// in\n    tag_299:\n        /* \"#utility.yul\":14457:14459   */\n      0x20\n        /* \"#utility.yul\":14452:14455   */\n      dup3\n        /* \"#utility.yul\":14448:14460   */\n      add\n        /* \"#utility.yul\":14441:14460   */\n      swap1\n      pop\n        /* \"#utility.yul\":14088:14470   */\n      swap2\n      swap1\n      pop\n      jump\t// out\n        /* \"#utility.yul\":14480:14915   */\n    tag_116:\n        /* \"#utility.yul\":14646:14650   */\n      0x00\n        /* \"#utility.yul\":14688:14690   */\n      0x20\n        /* \"#utility.yul\":14677:14686   */\n      dup3\n        /* \"#utility.yul\":14673:14691   */\n      add\n        /* \"#utility.yul\":14665:14691   */\n      swap1\n      pop\n        /* \"#utility.yul\":14741:14750   */\n      dup2\n        /* \"#utility.yul\":14735:14739   */\n      dup2\n        /* \"#utility.yul\":14731:14751   */\n      sub\n        /* \"#utility.yul\":14727:14728   */\n      0x00\n        /* \"#utility.yul\":14716:14725   */\n      dup4\n        /* \"#utility.yul\":14712:14729   */\n      add\n        /* \"#utility.yul\":14705:14752   */\n      mstore\n        /* \"#utility.yul\":14773:14904   */\n      tag_301\n        /* \"#utility.yul\":14899:14903   */\n      dup2\n        /* \"#utility.yul\":14773:14904   */\n      tag_173\n      jump\t// in\n    tag_301:\n        /* \"#utility.yul\":14765:14904   */\n      swap1\n      pop\n        /* \"#utility.yul\":14480:14915   */\n      swap2\n      swap1\n      pop\n      jump\t// out\n        /* \"#utility.yul\":14925:15121   */\n    tag_174:\n        /* \"#utility.yul\":14977:15054   */\n      0x4e487b7100000000000000000000000000000000000000000000000000000000\n        /* \"#utility.yul\":14974:14975   */\n      0x00\n        /* \"#utility.yul\":14967:15055   */\n      mstore\n        /* \"#utility.yul\":15078:15082   */\n      0x12\n        /* \"#utility.yul\":15075:15076   */\n      0x04\n        /* \"#utility.yul\":15068:15083   */\n      mstore\n        /* \"#utility.yul\":15106:15110   */\n      0x24\n        /* \"#utility.yul\":15103:15104   */\n      0x00\n        /* \"#utility.yul\":15096:15111   */\n      revert\n        /* \"#utility.yul\":15131:15336   */\n    tag_123:\n        /* \"#utility.yul\":15171:15172   */\n      0x00\n        /* \"#utility.yul\":15192:15212   */\n      tag_304\n        /* \"#utility.yul\":15210:15211   */\n      dup3\n        /* \"#utility.yul\":15192:15212   */\n      tag_142\n      jump\t// in\n    tag_304:\n        /* \"#utility.yul\":15187:15212   */\n      swap2\n      pop\n        /* \"#utility.yul\":15230:15250   */\n      tag_305\n        /* \"#utility.yul\":15248:15249   */\n      dup4\n        /* \"#utility.yul\":15230:15250   */\n      tag_142\n      jump\t// in\n    tag_305:\n        /* \"#utility.yul\":15225:15250   */\n      swap3\n      pop\n        /* \"#utility.yul\":15273:15274   */\n      dup3\n        /* \"#utility.yul\":15263:15298   */\n      tag_306\n      jumpi\n        /* \"#utility.yul\":15278:15296   */\n      tag_307\n      tag_174\n      jump\t// in\n    tag_307:\n        /* \"#utility.yul\":15263:15298   */\n    tag_306:\n        /* \"#utility.yul\":15324:15325   */\n      dup3\n        /* \"#utility.yul\":15321:15322   */\n      dup3\n        /* \"#utility.yul\":15317:15326   */\n      div\n        /* \"#utility.yul\":15312:15326   */\n      swap1\n      pop\n        /* \"#utility.yul\":15131:15336   */\n      swap3\n      swap2\n      pop\n      pop\n      jump\t// out\n        /* \"#utility.yul\":15346:15560   */\n    tag_130:\n        /* \"#utility.yul\":15386:15390   */\n      0x00\n        /* \"#utility.yul\":15410:15430   */\n      tag_309\n        /* \"#utility.yul\":15428:15429   */\n      dup3\n        /* \"#utility.yul\":15410:15430   */\n      tag_142\n      jump\t// in\n    tag_309:\n        /* \"#utility.yul\":15405:15430   */\n      swap2\n      pop\n        /* \"#utility.yul\":15448:15468   */\n      tag_310\n        /* \"#utility.yul\":15466:15467   */\n      dup4\n        /* \"#utility.yul\":15448:15468   */\n      tag_142\n      jump\t// in\n    tag_310:\n        /* \"#utility.yul\":15443:15468   */\n      swap3\n      pop\n        /* \"#utility.yul\":15496:15497   */\n      dup3\n        /* \"#utility.yul\":15493:15494   */\n      dup3\n        /* \"#utility.yul\":15489:15498   */\n      sub\n        /* \"#utility.yul\":15481:15498   */\n      swap1\n      pop\n        /* \"#utility.yul\":15524:15525   */\n      dup2\n        /* \"#utility.yul\":15518:15522   */\n      dup2\n        /* \"#utility.yul\":15515:15526   */\n      gt\n        /* \"#utility.yul\":15512:15549   */\n      iszero\n      tag_311\n      jumpi\n        /* \"#utility.yul\":15529:15547   */\n      tag_312\n      tag_157\n      jump\t// in\n    tag_312:\n        /* \"#utility.yul\":15512:15549   */\n    tag_311:\n        /* \"#utility.yul\":15346:15560   */\n      swap3\n      swap2\n      pop\n      pop\n      jump\t// out\n        /* \"#utility.yul\":15570:15766   */\n    tag_132:\n        /* \"#utility.yul\":15602:15603   */\n      0x00\n        /* \"#utility.yul\":15623:15643   */\n      tag_314\n        /* \"#utility.yul\":15641:15642   */\n      dup3\n        /* \"#utility.yul\":15623:15643   */\n      tag_142\n      jump\t// in\n    tag_314:\n        /* \"#utility.yul\":15618:15643   */\n      swap2\n      pop\n        /* \"#utility.yul\":15661:15681   */\n      tag_315\n        /* \"#utility.yul\":15679:15680   */\n      dup4\n        /* \"#utility.yul\":15661:15681   */\n      tag_142\n      jump\t// in\n    tag_315:\n        /* \"#utility.yul\":15656:15681   */\n      swap3\n      pop\n        /* \"#utility.yul\":15704:15705   */\n      dup3\n        /* \"#utility.yul\":15694:15729   */\n      tag_316\n      jumpi\n        /* \"#utility.yul\":15709:15727   */\n      tag_317\n      tag_174\n      jump\t// in\n    tag_317:\n        /* \"#utility.yul\":15694:15729   */\n    tag_316:\n        /* \"#utility.yul\":15754:15755   */\n      dup3\n        /* \"#utility.yul\":15751:15752   */\n      dup3\n        /* \"#utility.yul\":15747:15756   */\n      mod\n        /* \"#utility.yul\":15742:15756   */\n      swap1\n      pop\n        /* \"#utility.yul\":15570:15766   */\n      swap3\n      swap2\n      pop\n      pop\n      jump\t// out\n\n    auxdata: 0xa2646970667358221220ddc191d47a4b3d342f25a50cbf7d64456090548d7c9fd036f4cf2c244cba365464736f6c634300081e0033\n}\n",
				"bytecode": {
					"linkReferences": {},
					"object": "60806040526040518060400160405280601181526020017f4d79204e465420436f6c6c656374696f6e0000000000000000000000000000008152505f908161004791906102db565b506040518060400160405280600481526020017f4d4e4654000000000000000000000000000000000000000000000000000000008152506001908161008c91906102db565b50348015610098575f5ffd5b506103aa565b5f81519050919050565b7f4e487b71000000000000000000000000000000000000000000000000000000005f52604160045260245ffd5b7f4e487b71000000000000000000000000000000000000000000000000000000005f52602260045260245ffd5b5f600282049050600182168061011957607f821691505b60208210810361012c5761012b6100d5565b5b50919050565b5f819050815f5260205f209050919050565b5f6020601f8301049050919050565b5f82821b905092915050565b5f6008830261018e7fffffffffffffffffffffffffffffffffffffffffffffffffffffffffffffffff82610153565b6101988683610153565b95508019841693508086168417925050509392505050565b5f819050919050565b5f819050919050565b5f6101dc6101d76101d2846101b0565b6101b9565b6101b0565b9050919050565b5f819050919050565b6101f5836101c2565b610209610201826101e3565b84845461015f565b825550505050565b5f5f905090565b610220610211565b61022b8184846101ec565b505050565b5b8181101561024e576102435f82610218565b600181019050610231565b5050565b601f8211156102935761026481610132565b61026d84610144565b8101602085101561027c578190505b61029061028885610144565b830182610230565b50505b505050565b5f82821c905092915050565b5f6102b35f1984600802610298565b1980831691505092915050565b5f6102cb83836102a4565b9150826002028217905092915050565b6102e48261009e565b67ffffffffffffffff8111156102fd576102fc6100a8565b5b6103078254610102565b610312828285610252565b5f60209050601f831160018114610343575f8415610331578287015190505b61033b85826102c0565b8655506103a2565b601f19841661035186610132565b5f5b8281101561037857848901518255600182019150602085019450602081019050610353565b868310156103955784890151610391601f8916826102a4565b8355505b6001600288020188555050505b505050505050565b611286806103b75f395ff3fe608060405234801561000f575f5ffd5b5060043610610091575f3560e01c806370a082311161006457806370a08231146101315780638455f3881461016157806395d89b4114610191578063c87b56dd146101af578063e40b6602146101df57610091565b806306fdde031461009557806318160ddd146100b35780636352211e146100d15780636a62784214610101575b5f5ffd5b61009d61020f565b6040516100aa9190610b09565b60405180910390f35b6100bb61029a565b6040516100c89190610b41565b60405180910390f35b6100eb60048036038101906100e69190610b88565b6102a0565b6040516100f89190610bf2565b60405180910390f35b61011b60048036038101906101169190610c35565b6102d0565b6040516101289190610b41565b60405180910390f35b61014b60048036038101906101469190610c35565b610461565b6040516101589190610b41565b60405180910390f35b61017b60048036038101906101769190610b88565b610476565b6040516101889190610b09565b60405180910390f35b61019961057a565b6040516101a69190610b09565b60405180910390f35b6101c960048036038101906101c49190610b88565b610606565b6040516101d69190610b09565b60405180910390f35b6101f960048036038101906101f49190610b88565b6106da565b6040516102069190610b09565b60405180910390f35b5f805461021b90610c8d565b80601f016020809104026020016040519081016040528092919081815260200182805461024790610c8d565b80156102925780601f1061026957610100808354040283529160200191610292565b820191905f5260205f20905b81548152906001019060200180831161027557829003601f168201915b505050505081565b60045481565b6002602052805f5260405f205f915054906101000a900473ffffffffffffffffffffffffffffffffffffffff1681565b5f5f73ffffffffffffffffffffffffffffffffffffffff168273ffffffffffffffffffffffffffffffffffffffff160361033f576040517f08c379a000000000000000000000000000000000000000000000000000000000815260040161033690610d07565b60405180910390fd5b60045f81548092919061035190610d52565b91905055505f60045490508260025f8381526020019081526020015f205f6101000a81548173ffffffffffffffffffffffffffffffffffffffff021916908373ffffffffffffffffffffffffffffffffffffffff16021790555060035f8473ffffffffffffffffffffffffffffffffffffffff1673ffffffffffffffffffffffffffffffffffffffff1681526020019081526020015f205f8154809291906103f890610d52565b9190505550808373ffffffffffffffffffffffffffffffffffffffff165f73ffffffffffffffffffffffffffffffffffffffff167fddf252ad1be2c89b69c2b068fc378daa952ba7f163c4a11628f55a4df523b3ef60405160405180910390a480915050919050565b6003602052805f5260405f205f915090505481565b60605f60025f8481526020019081526020015f205f9054906101000a900473ffffffffffffffffffffffffffffffffffffffff1690505f73ffffffffffffffffffffffffffffffffffffffff168173ffffffffffffffffffffffffffffffffffffffff160361051a576040517f08c379a000000000000000000000000000000000000000000000000000000000815260040161051190610de3565b60405180910390fd5b5f61054560148373ffffffffffffffffffffffffffffffffffffffff1661070b90919063ffffffff16565b905061055084610940565b81604051602001610562929190610ecf565b60405160208183030381529060405292505050919050565b6001805461058790610c8d565b80601f01602080910402602001604051908101604052809291908181526020018280546105b390610c8d565b80156105fe5780601f106105d5576101008083540402835291602001916105fe565b820191905f5260205f20905b8154815290600101906020018083116105e157829003601f168201915b505050505081565b60605f73ffffffffffffffffffffffffffffffffffffffff1660025f8481526020019081526020015f205f9054906101000a900473ffffffffffffffffffffffffffffffffffffffff1673ffffffffffffffffffffffffffffffffffffffff16036106a6576040517f08c379a000000000000000000000000000000000000000000000000000000000815260040161069d90610de3565b60405180910390fd5b5f6106b083610940565b9050806040516020016106c39190610f52565b604051602081830303815290604052915050919050565b60606106e582610940565b6040516020016106f59190611007565b6040516020818303038152906040529050919050565b60605f600283600261071d9190611033565b6107279190611074565b67ffffffffffffffff8111156107405761073f6110a7565b5b6040519080825280601f01601f1916602001820160405280156107725781602001600182028036833780820191505090505b5090507f3000000000000000000000000000000000000000000000000000000000000000815f815181106107a9576107a86110d4565b5b60200101907effffffffffffffffffffffffffffffffffffffffffffffffffffffffffffff191690815f1a9053507f78000000000000000000000000000000000000000000000000000000000000008160018151811061080c5761080b6110d4565b5b60200101907effffffffffffffffffffffffffffffffffffffffffffffffffffffffffffff191690815f1a9053505f600184600261084a9190611033565b6108549190611074565b90505b60018111156108f3577f3334343536616263646566000000000000000000000000000000000000000000600f861660108110610896576108956110d4565b5b1a60f81b8282815181106108ad576108ac6110d4565b5b60200101907effffffffffffffffffffffffffffffffffffffffffffffffffffffffffffff191690815f1a905350600485901c9450806108ec90611101565b9050610857565b505f8414610936576040517f08c379a000000000000000000000000000000000000000000000000000000000815260040161092d90611172565b60405180910390fd5b8091505092915050565b60605f8203610986576040518060400160405280600181526020017f30000000000000000000000000000000000000000000000000000000000000008152509050610a94565b5f8290505f5b5f82146109b557808061099e90610d52565b915050600a826109ae91906111bd565b915061098c565b5f8167ffffffffffffffff8111156109d0576109cf6110a7565b5b6040519080825280601f01601f191660200182016040528015610a025781602001600182028036833780820191505090505b5090505b5f8514610a8d57600182610a1a91906111ed565b9150600a85610a299190611220565b6030610a359190611074565b60f81b818381518110610a4b57610a4a6110d4565b5b60200101907effffffffffffffffffffffffffffffffffffffffffffffffffffffffffffff191690815f1a905350600a85610a8691906111bd565b9450610a06565b8093505050505b919050565b5f81519050919050565b5f82825260208201905092915050565b8281835e5f83830152505050565b5f601f19601f8301169050919050565b5f610adb82610a99565b610ae58185610aa3565b9350610af5818560208601610ab3565b610afe81610ac1565b840191505092915050565b5f6020820190508181035f830152610b218184610ad1565b905092915050565b5f819050919050565b610b3b81610b29565b82525050565b5f602082019050610b545f830184610b32565b92915050565b5f5ffd5b610b6781610b29565b8114610b71575f5ffd5b50565b5f81359050610b8281610b5e565b92915050565b5f60208284031215610b9d57610b9c610b5a565b5b5f610baa84828501610b74565b91505092915050565b5f73ffffffffffffffffffffffffffffffffffffffff82169050919050565b5f610bdc82610bb3565b9050919050565b610bec81610bd2565b82525050565b5f602082019050610c055f830184610be3565b92915050565b610c1481610bd2565b8114610c1e575f5ffd5b50565b5f81359050610c2f81610c0b565b92915050565b5f60208284031215610c4a57610c49610b5a565b5b5f610c5784828501610c21565b91505092915050565b7f4e487b71000000000000000000000000000000000000000000000000000000005f52602260045260245ffd5b5f6002820490506001821680610ca457607f821691505b602082108103610cb757610cb6610c60565b5b50919050565b7f43616e6e6f74206d696e7420746f207a65726f206164647265737300000000005f82015250565b5f610cf1601b83610aa3565b9150610cfc82610cbd565b602082019050919050565b5f6020820190508181035f830152610d1e81610ce5565b9050919050565b7f4e487b71000000000000000000000000000000000000000000000000000000005f52601160045260245ffd5b5f610d5c82610b29565b91507fffffffffffffffffffffffffffffffffffffffffffffffffffffffffffffffff8203610d8e57610d8d610d25565b5b600182019050919050565b7f546f6b656e20646f6573206e6f742065786973740000000000000000000000005f82015250565b5f610dcd601483610aa3565b9150610dd882610d99565b602082019050919050565b5f6020820190508181035f830152610dfa81610dc1565b9050919050565b5f81905092915050565b7f546f6b656e2023000000000000000000000000000000000000000000000000005f82015250565b5f610e3f600783610e01565b9150610e4a82610e0b565b600782019050919050565b5f610e5f82610a99565b610e698185610e01565b9350610e79818560208601610ab3565b80840191505092915050565b7f206973206f776e656420627920000000000000000000000000000000000000005f82015250565b5f610eb9600d83610e01565b9150610ec482610e85565b600d82019050919050565b5f610ed982610e33565b9150610ee58285610e55565b9150610ef082610ead565b9150610efc8284610e55565b91508190509392505050565b7f68747470733a2f2f6170692e6d796e66742e636f6d2f746f6b656e2f000000005f82015250565b5f610f3c601c83610e01565b9150610f4782610f08565b601c82019050919050565b5f610f5c82610f30565b9150610f688284610e55565b915081905092915050565b7f4d696e74696e67200000000000000000000000000000000000000000000000005f82015250565b5f610fa7600883610e01565b9150610fb282610f73565b600882019050919050565b7f204e4654730000000000000000000000000000000000000000000000000000005f82015250565b5f610ff1600583610e01565b9150610ffc82610fbd565b600582019050919050565b5f61101182610f9b565b915061101d8284610e55565b915061102882610fe5565b915081905092915050565b5f61103d82610b29565b915061104883610b29565b925082820261105681610b29565b9150828204841483151761106d5761106c610d25565b5b5092915050565b5f61107e82610b29565b915061108983610b29565b92508282019050808211156110a1576110a0610d25565b5b92915050565b7f4e487b71000000000000000000000000000000000000000000000000000000005f52604160045260245ffd5b7f4e487b71000000000000000000000000000000000000000000000000000000005f52603260045260245ffd5b5f61110b82610b29565b91505f820361111d5761111c610d25565b5b600182039050919050565b7f537472696e67733a20686578206c656e67746820696e73756666696369656e745f82015250565b5f61115c602083610aa3565b915061116782611128565b602082019050919050565b5f6020820190508181035f83015261118981611150565b9050919050565b7f4e487b71000000000000000000000000000000000000000000000000000000005f52601260045260245ffd5b5f6111c782610b29565b91506111d283610b29565b9250826111e2576111e1611190565b5b828204905092915050565b5f6111f782610b29565b915061120283610b29565b925082820390508181111561121a57611219610d25565b5b92915050565b5f61122a82610b29565b915061123583610b29565b92508261124557611244611190565b5b82820690509291505056fea2646970667358221220ddc191d47a4b3d342f25a50cbf7d64456090548d7c9fd036f4cf2c244cba365464736f6c634300081e0033",
					"opcodes": "PUSH1 0x80 PUSH1 0x40 MSTORE PUSH1 0x40 MLOAD DUP1 PUSH1 0x40 ADD PUSH1 0x40 MSTORE DUP1 PUSH1 0x11 DUP2 MSTORE PUSH1 0x20 ADD PUSH32 0x4D79204E465420436F6C6C656374696F6E000000000000000000000000000000 DUP2 MSTORE POP PUSH0 SWAP1 DUP2 PUSH2 0x47 SWAP2 SWAP1 PUSH2 0x2DB JUMP JUMPDEST POP PUSH1 0x40 MLOAD DUP1 PUSH1 0x40 ADD PUSH1 0x40 MSTORE DUP1 PUSH1 0x4 DUP2 MSTORE PUSH1 0x20 ADD PUSH32 0x4D4E465400000000000000000000000000000000000000000000000000000000 DUP2 MSTORE POP PUSH1 0x1 SWAP1 DUP2 PUSH2 0x8C SWAP2 SWAP1 PUSH2 0x2DB JUMP JUMPDEST POP CALLVALUE DUP1 ISZERO PUSH2 0x98 JUMPI PUSH0 PUSH0 REVERT JUMPDEST POP PUSH2 0x3AA JUMP JUMPDEST PUSH0 DUP2 MLOAD SWAP1 POP SWAP2 SWAP1 POP JUMP JUMPDEST PUSH32 0x4E487B7100000000000000000000000000000000000000000000000000000000 PUSH0 MSTORE PUSH1 0x41 PUSH1 0x4 MSTORE PUSH1 0x24 PUSH0 REVERT JUMPDEST PUSH32 0x4E487B7100000000000000000000000000000000000000000000000000000000 PUSH0 MSTORE PUSH1 0x22 PUSH1 0x4 MSTORE PUSH1 0x24 PUSH0 REVERT JUMPDEST PUSH0 PUSH1 0x2 DUP3 DIV SWAP1 POP PUSH1 0x1 DUP3 AND DUP1 PUSH2 0x119 JUMPI PUSH1 0x7F DUP3 AND SWAP2 POP JUMPDEST PUSH1 0x20 DUP3 LT DUP2 SUB PUSH2 0x12C JUMPI PUSH2 0x12B PUSH2 0xD5 JUMP JUMPDEST JUMPDEST POP SWAP2 SWAP1 POP JUMP JUMPDEST PUSH0 DUP2 SWAP1 POP DUP2 PUSH0 MSTORE PUSH1 0x20 PUSH0 KECCAK256 SWAP1 POP SWAP2 SWAP1 POP JUMP JUMPDEST PUSH0 PUSH1 0x20 PUSH1 0x1F DUP4 ADD DIV SWAP1 POP SWAP2 SWAP1 POP JUMP JUMPDEST PUSH0 DUP3 DUP3 SHL SWAP1 POP SWAP3 SWAP2 POP POP JUMP JUMPDEST PUSH0 PUSH1 0x8 DUP4 MUL PUSH2 0x18E PUSH32 0xFFFFFFFFFFFFFFFFFFFFFFFFFFFFFFFFFFFFFFFFFFFFFFFFFFFFFFFFFFFFFFFF DUP3 PUSH2 0x153 JUMP JUMPDEST PUSH2 0x198 DUP7 DUP4 PUSH2 0x153 JUMP JUMPDEST SWAP6 POP DUP1 NOT DUP5 AND SWAP4 POP DUP1 DUP7 AND DUP5 OR SWAP3 POP POP POP SWAP4 SWAP3 POP POP POP JUMP JUMPDEST PUSH0 DUP2 SWAP1 POP SWAP2 SWAP1 POP JUMP JUMPDEST PUSH0 DUP2 SWAP1 POP SWAP2 SWAP1 POP JUMP JUMPDEST PUSH0 PUSH2 0x1DC PUSH2 0x1D7 PUSH2 0x1D2 DUP5 PUSH2 0x1B0 JUMP JUMPDEST PUSH2 0x1B9 JUMP JUMPDEST PUSH2 0x1B0 JUMP JUMPDEST SWAP1 POP SWAP2 SWAP1 POP JUMP JUMPDEST PUSH0 DUP2 SWAP1 POP SWAP2 SWAP1 POP JUMP JUMPDEST PUSH2 0x1F5 DUP4 PUSH2 0x1C2 JUMP JUMPDEST PUSH2 0x209 PUSH2 0x201 DUP3 PUSH2 0x1E3 JUMP JUMPDEST DUP5 DUP5 SLOAD PUSH2 0x15F JUMP JUMPDEST DUP3 SSTORE POP POP POP POP JUMP JUMPDEST PUSH0 PUSH0 SWAP1 POP SWAP1 JUMP JUMPDEST PUSH2 0x220 PUSH2 0x211 JUMP JUMPDEST PUSH2 0x22B DUP2 DUP5 DUP5 PUSH2 0x1EC JUMP JUMPDEST POP POP POP JUMP JUMPDEST JUMPDEST DUP2 DUP2 LT ISZERO PUSH2 0x24E JUMPI PUSH2 0x243 PUSH0 DUP3 PUSH2 0x218 JUMP JUMPDEST PUSH1 0x1 DUP2 ADD SWAP1 POP PUSH2 0x231 JUMP JUMPDEST POP POP JUMP JUMPDEST PUSH1 0x1F DUP3 GT ISZERO PUSH2 0x293 JUMPI PUSH2 0x264 DUP2 PUSH2 0x132 JUMP JUMPDEST PUSH2 0x26D DUP5 PUSH2 0x144 JUMP JUMPDEST DUP2 ADD PUSH1 0x20 DUP6 LT ISZERO PUSH2 0x27C JUMPI DUP2 SWAP1 POP JUMPDEST PUSH2 0x290 PUSH2 0x288 DUP6 PUSH2 0x144 JUMP JUMPDEST DUP4 ADD DUP3 PUSH2 0x230 JUMP JUMPDEST POP POP JUMPDEST POP POP POP JUMP JUMPDEST PUSH0 DUP3 DUP3 SHR SWAP1 POP SWAP3 SWAP2 POP POP JUMP JUMPDEST PUSH0 PUSH2 0x2B3 PUSH0 NOT DUP5 PUSH1 0x8 MUL PUSH2 0x298 JUMP JUMPDEST NOT DUP1 DUP4 AND SWAP2 POP POP SWAP3 SWAP2 POP POP JUMP JUMPDEST PUSH0 PUSH2 0x2CB DUP4 DUP4 PUSH2 0x2A4 JUMP JUMPDEST SWAP2 POP DUP3 PUSH1 0x2 MUL DUP3 OR SWAP1 POP SWAP3 SWAP2 POP POP JUMP JUMPDEST PUSH2 0x2E4 DUP3 PUSH2 0x9E JUMP JUMPDEST PUSH8 0xFFFFFFFFFFFFFFFF DUP2 GT ISZERO PUSH2 0x2FD JUMPI PUSH2 0x2FC PUSH2 0xA8 JUMP JUMPDEST JUMPDEST PUSH2 0x307 DUP3 SLOAD PUSH2 0x102 JUMP JUMPDEST PUSH2 0x312 DUP3 DUP3 DUP6 PUSH2 0x252 JUMP JUMPDEST PUSH0 PUSH1 0x20 SWAP1 POP PUSH1 0x1F DUP4 GT PUSH1 0x1 DUP2 EQ PUSH2 0x343 JUMPI PUSH0 DUP5 ISZERO PUSH2 0x331 JUMPI DUP3 DUP8 ADD MLOAD SWAP1 POP JUMPDEST PUSH2 0x33B DUP6 DUP3 PUSH2 0x2C0 JUMP JUMPDEST DUP7 SSTORE POP PUSH2 0x3A2 JUMP JUMPDEST PUSH1 0x1F NOT DUP5 AND PUSH2 0x351 DUP7 PUSH2 0x132 JUMP JUMPDEST PUSH0 JUMPDEST DUP3 DUP2 LT ISZERO PUSH2 0x378 JUMPI DUP5 DUP10 ADD MLOAD DUP3 SSTORE PUSH1 0x1 DUP3 ADD SWAP2 POP PUSH1 0x20 DUP6 ADD SWAP5 POP PUSH1 0x20 DUP2 ADD SWAP1 POP PUSH2 0x353 JUMP JUMPDEST DUP7 DUP4 LT ISZERO PUSH2 0x395 JUMPI DUP5 DUP10 ADD MLOAD PUSH2 0x391 PUSH1 0x1F DUP10 AND DUP3 PUSH2 0x2A4 JUMP JUMPDEST DUP4 SSTORE POP JUMPDEST PUSH1 0x1 PUSH1 0x2 DUP9 MUL ADD DUP9 SSTORE POP POP POP JUMPDEST POP POP POP POP POP POP JUMP JUMPDEST PUSH2 0x1286 DUP1 PUSH2 0x3B7 PUSH0 CODECOPY PUSH0 RETURN INVALID PUSH1 0x80 PUSH1 0x40 MSTORE CALLVALUE DUP1 ISZERO PUSH2 0xF JUMPI PUSH0 PUSH0 REVERT JUMPDEST POP PUSH1 0x4 CALLDATASIZE LT PUSH2 0x91 JUMPI PUSH0 CALLDATALOAD PUSH1 0xE0 SHR DUP1 PUSH4 0x70A08231 GT PUSH2 0x64 JUMPI DUP1 PUSH4 0x70A08231 EQ PUSH2 0x131 JUMPI DUP1 PUSH4 0x8455F388 EQ PUSH2 0x161 JUMPI DUP1 PUSH4 0x95D89B41 EQ PUSH2 0x191 JUMPI DUP1 PUSH4 0xC87B56DD EQ PUSH2 0x1AF JUMPI DUP1 PUSH4 0xE40B6602 EQ PUSH2 0x1DF JUMPI PUSH2 0x91 JUMP JUMPDEST DUP1 PUSH4 0x6FDDE03 EQ PUSH2 0x95 JUMPI DUP1 PUSH4 0x18160DDD EQ PUSH2 0xB3 JUMPI DUP1 PUSH4 0x6352211E EQ PUSH2 0xD1 JUMPI DUP1 PUSH4 0x6A627842 EQ PUSH2 0x101 JUMPI JUMPDEST PUSH0 PUSH0 REVERT JUMPDEST PUSH2 0x9D PUSH2 0x20F JUMP JUMPDEST PUSH1 0x40 MLOAD PUSH2 0xAA SWAP2 SWAP1 PUSH2 0xB09 JUMP JUMPDEST PUSH1 0x40 MLOAD DUP1 SWAP2 SUB SWAP1 RETURN JUMPDEST PUSH2 0xBB PUSH2 0x29A JUMP JUMPDEST PUSH1 0x40 MLOAD PUSH2 0xC8 SWAP2 SWAP1 PUSH2 0xB41 JUMP JUMPDEST PUSH1 0x40 MLOAD DUP1 SWAP2 SUB SWAP1 RETURN JUMPDEST PUSH2 0xEB PUSH1 0x4 DUP1 CALLDATASIZE SUB DUP2 ADD SWAP1 PUSH2 0xE6 SWAP2 SWAP1 PUSH2 0xB88 JUMP JUMPDEST PUSH2 0x2A0 JUMP JUMPDEST PUSH1 0x40 MLOAD PUSH2 0xF8 SWAP2 SWAP1 PUSH2 0xBF2 JUMP JUMPDEST PUSH1 0x40 MLOAD DUP1 SWAP2 SUB SWAP1 RETURN JUMPDEST PUSH2 0x11B PUSH1 0x4 DUP1 CALLDATASIZE SUB DUP2 ADD SWAP1 PUSH2 0x116 SWAP2 SWAP1 PUSH2 0xC35 JUMP JUMPDEST PUSH2 0x2D0 JUMP JUMPDEST PUSH1 0x40 MLOAD PUSH2 0x128 SWAP2 SWAP1 PUSH2 0xB41 JUMP JUMPDEST PUSH1 0x40 MLOAD DUP1 SWAP2 SUB SWAP1 RETURN JUMPDEST PUSH2 0x14B PUSH1 0x4 DUP1 CALLDATASIZE SUB DUP2 ADD SWAP1 PUSH2 0x146 SWAP2 SWAP1 PUSH2 0xC35 JUMP JUMPDEST PUSH2 0x461 JUMP JUMPDEST PUSH1 0x40 MLOAD PUSH2 0x158 SWAP2 SWAP1 PUSH2 0xB41 JUMP JUMPDEST PUSH1 0x40 MLOAD DUP1 SWAP2 SUB SWAP1 RETURN JUMPDEST PUSH2 0x17B PUSH1 0x4 DUP1 CALLDATASIZE SUB DUP2 ADD SWAP1 PUSH2 0x176 SWAP2 SWAP1 PUSH2 0xB88 JUMP JUMPDEST PUSH2 0x476 JUMP JUMPDEST PUSH1 0x40 MLOAD PUSH2 0x188 SWAP2 SWAP1 PUSH2 0xB09 JUMP JUMPDEST PUSH1 0x40 MLOAD DUP1 SWAP2 SUB SWAP1 RETURN JUMPDEST PUSH2 0x199 PUSH2 0x57A JUMP JUMPDEST PUSH1 0x40 MLOAD PUSH2 0x1A6 SWAP2 SWAP1 PUSH2 0xB09 JUMP JUMPDEST PUSH1 0x40 MLOAD DUP1 SWAP2 SUB SWAP1 RETURN JUMPDEST PUSH2 0x1C9 PUSH1 0x4 DUP1 CALLDATASIZE SUB DUP2 ADD SWAP1 PUSH2 0x1C4 SWAP2 SWAP1 PUSH2 0xB88 JUMP JUMPDEST PUSH2 0x606 JUMP JUMPDEST PUSH1 0x40 MLOAD PUSH2 0x1D6 SWAP2 SWAP1 PUSH2 0xB09 JUMP JUMPDEST PUSH1 0x40 MLOAD DUP1 SWAP2 SUB SWAP1 RETURN JUMPDEST PUSH2 0x1F9 PUSH1 0x4 DUP1 CALLDATASIZE SUB DUP2 ADD SWAP1 PUSH2 0x1F4 SWAP2 SWAP1 PUSH2 0xB88 JUMP JUMPDEST PUSH2 0x6DA JUMP JUMPDEST PUSH1 0x40 MLOAD PUSH2 0x206 SWAP2 SWAP1 PUSH2 0xB09 JUMP JUMPDEST PUSH1 0x40 MLOAD DUP1 SWAP2 SUB SWAP1 RETURN JUMPDEST PUSH0 DUP1 SLOAD PUSH2 0x21B SWAP1 PUSH2 0xC8D JUMP JUMPDEST DUP1 PUSH1 0x1F ADD PUSH1 0x20 DUP1 SWAP2 DIV MUL PUSH1 0x20 ADD PUSH1 0x40 MLOAD SWAP1 DUP2 ADD PUSH1 0x40 MSTORE DUP1 SWAP3 SWAP2 SWAP1 DUP2 DUP2 MSTORE PUSH1 0x20 ADD DUP3 DUP1 SLOAD PUSH2 0x247 SWAP1 PUSH2 0xC8D JUMP JUMPDEST DUP1 ISZERO PUSH2 0x292 JUMPI DUP1 PUSH1 0x1F LT PUSH2 0x269 JUMPI PUSH2 0x100 DUP1 DUP4 SLOAD DIV MUL DUP4 MSTORE SWAP2 PUSH1 0x20 ADD SWAP2 PUSH2 0x292 JUMP JUMPDEST DUP3 ADD SWAP2 SWAP1 PUSH0 MSTORE PUSH1 0x20 PUSH0 KECCAK256 SWAP1 JUMPDEST DUP2 SLOAD DUP2 MSTORE SWAP1 PUSH1 0x1 ADD SWAP1 PUSH1 0x20 ADD DUP1 DUP4 GT PUSH2 0x275 JUMPI DUP3 SWAP1 SUB PUSH1 0x1F AND DUP3 ADD SWAP2 JUMPDEST POP POP POP POP POP DUP2 JUMP JUMPDEST PUSH1 0x4 SLOAD DUP2 JUMP JUMPDEST PUSH1 0x2 PUSH1 0x20 MSTORE DUP1 PUSH0 MSTORE PUSH1 0x40 PUSH0 KECCAK256 PUSH0 SWAP2 POP SLOAD SWAP1 PUSH2 0x100 EXP SWAP1 DIV PUSH20 0xFFFFFFFFFFFFFFFFFFFFFFFFFFFFFFFFFFFFFFFF AND DUP2 JUMP JUMPDEST PUSH0 PUSH0 PUSH20 0xFFFFFFFFFFFFFFFFFFFFFFFFFFFFFFFFFFFFFFFF AND DUP3 PUSH20 0xFFFFFFFFFFFFFFFFFFFFFFFFFFFFFFFFFFFFFFFF AND SUB PUSH2 0x33F JUMPI PUSH1 0x40 MLOAD PUSH32 0x8C379A000000000000000000000000000000000000000000000000000000000 DUP2 MSTORE PUSH1 0x4 ADD PUSH2 0x336 SWAP1 PUSH2 0xD07 JUMP JUMPDEST PUSH1 0x40 MLOAD DUP1 SWAP2 SUB SWAP1 REVERT JUMPDEST PUSH1 0x4 PUSH0 DUP2 SLOAD DUP1 SWAP3 SWAP2 SWAP1 PUSH2 0x351 SWAP1 PUSH2 0xD52 JUMP JUMPDEST SWAP2 SWAP1 POP SSTORE POP PUSH0 PUSH1 0x4 SLOAD SWAP1 POP DUP3 PUSH1 0x2 PUSH0 DUP4 DUP2 MSTORE PUSH1 0x20 ADD SWAP1 DUP2 MSTORE PUSH1 0x20 ADD PUSH0 KECCAK256 PUSH0 PUSH2 0x100 EXP DUP2 SLOAD DUP2 PUSH20 0xFFFFFFFFFFFFFFFFFFFFFFFFFFFFFFFFFFFFFFFF MUL NOT AND SWAP1 DUP4 PUSH20 0xFFFFFFFFFFFFFFFFFFFFFFFFFFFFFFFFFFFFFFFF AND MUL OR SWAP1 SSTORE POP PUSH1 0x3 PUSH0 DUP5 PUSH20 0xFFFFFFFFFFFFFFFFFFFFFFFFFFFFFFFFFFFFFFFF AND PUSH20 0xFFFFFFFFFFFFFFFFFFFFFFFFFFFFFFFFFFFFFFFF AND DUP2 MSTORE PUSH1 0x20 ADD SWAP1 DUP2 MSTORE PUSH1 0x20 ADD PUSH0 KECCAK256 PUSH0 DUP2 SLOAD DUP1 SWAP3 SWAP2 SWAP1 PUSH2 0x3F8 SWAP1 PUSH2 0xD52 JUMP JUMPDEST SWAP2 SWAP1 POP SSTORE POP DUP1 DUP4 PUSH20 0xFFFFFFFFFFFFFFFFFFFFFFFFFFFFFFFFFFFFFFFF AND PUSH0 PUSH20 0xFFFFFFFFFFFFFFFFFFFFFFFFFFFFFFFFFFFFFFFF AND PUSH32 0xDDF252AD1BE2C89B69C2B068FC378DAA952BA7F163C4A11628F55A4DF523B3EF PUSH1 0x40 MLOAD PUSH1 0x40 MLOAD DUP1 SWAP2 SUB SWAP1 LOG4 DUP1 SWAP2 POP POP SWAP2 SWAP1 POP JUMP JUMPDEST PUSH1 0x3 PUSH1 0x20 MSTORE DUP1 PUSH0 MSTORE PUSH1 0x40 PUSH0 KECCAK256 PUSH0 SWAP2 POP SWAP1 POP SLOAD DUP2 JUMP JUMPDEST PUSH1 0x60 PUSH0 PUSH1 0x2 PUSH0 DUP5 DUP2 MSTORE PUSH1 0x20 ADD SWAP1 DUP2 MSTORE PUSH1 0x20 ADD PUSH0 KECCAK256 PUSH0 SWAP1 SLOAD SWAP1 PUSH2 0x100 EXP SWAP1 DIV PUSH20 0xFFFFFFFFFFFFFFFFFFFFFFFFFFFFFFFFFFFFFFFF AND SWAP1 POP PUSH0 PUSH20 0xFFFFFFFFFFFFFFFFFFFFFFFFFFFFFFFFFFFFFFFF AND DUP2 PUSH20 0xFFFFFFFFFFFFFFFFFFFFFFFFFFFFFFFFFFFFFFFF AND SUB PUSH2 0x51A JUMPI PUSH1 0x40 MLOAD PUSH32 0x8C379A000000000000000000000000000000000000000000000000000000000 DUP2 MSTORE PUSH1 0x4 ADD PUSH2 0x511 SWAP1 PUSH2 0xDE3 JUMP JUMPDEST PUSH1 0x40 MLOAD DUP1 SWAP2 SUB SWAP1 REVERT JUMPDEST PUSH0 PUSH2 0x545 PUSH1 0x14 DUP4 PUSH20 0xFFFFFFFFFFFFFFFFFFFFFFFFFFFFFFFFFFFFFFFF AND PUSH2 0x70B SWAP1 SWAP2 SWAP1 PUSH4 0xFFFFFFFF AND JUMP JUMPDEST SWAP1 POP PUSH2 0x550 DUP5 PUSH2 0x940 JUMP JUMPDEST DUP2 PUSH1 0x40 MLOAD PUSH1 0x20 ADD PUSH2 0x562 SWAP3 SWAP2 SWAP1 PUSH2 0xECF JUMP JUMPDEST PUSH1 0x40 MLOAD PUSH1 0x20 DUP2 DUP4 SUB SUB DUP2 MSTORE SWAP1 PUSH1 0x40 MSTORE SWAP3 POP POP POP SWAP2 SWAP1 POP JUMP JUMPDEST PUSH1 0x1 DUP1 SLOAD PUSH2 0x587 SWAP1 PUSH2 0xC8D JUMP JUMPDEST DUP1 PUSH1 0x1F ADD PUSH1 0x20 DUP1 SWAP2 DIV MUL PUSH1 0x20 ADD PUSH1 0x40 MLOAD SWAP1 DUP2 ADD PUSH1 0x40 MSTORE DUP1 SWAP3 SWAP2 SWAP1 DUP2 DUP2 MSTORE PUSH1 0x20 ADD DUP3 DUP1 SLOAD PUSH2 0x5B3 SWAP1 PUSH2 0xC8D JUMP JUMPDEST DUP1 ISZERO PUSH2 0x5FE JUMPI DUP1 PUSH1 0x1F LT PUSH2 0x5D5 JUMPI PUSH2 0x100 DUP1 DUP4 SLOAD DIV MUL DUP4 MSTORE SWAP2 PUSH1 0x20 ADD SWAP2 PUSH2 0x5FE JUMP JUMPDEST DUP3 ADD SWAP2 SWAP1 PUSH0 MSTORE PUSH1 0x20 PUSH0 KECCAK256 SWAP1 JUMPDEST DUP2 SLOAD DUP2 MSTORE SWAP1 PUSH1 0x1 ADD SWAP1 PUSH1 0x20 ADD DUP1 DUP4 GT PUSH2 0x5E1 JUMPI DUP3 SWAP1 SUB PUSH1 0x1F AND DUP3 ADD SWAP2 JUMPDEST POP POP POP POP POP DUP2 JUMP JUMPDEST PUSH1 0x60 PUSH0 PUSH20 0xFFFFFFFFFFFFFFFFFFFFFFFFFFFFFFFFFFFFFFFF AND PUSH1 0x2 PUSH0 DUP5 DUP2 MSTORE PUSH1 0x20 ADD SWAP1 DUP2 MSTORE PUSH1 0x20 ADD PUSH0 KECCAK256 PUSH0 SWAP1 SLOAD SWAP1 PUSH2 0x100 EXP SWAP1 DIV PUSH20 0xFFFFFFFFFFFFFFFFFFFFFFFFFFFFFFFFFFFFFFFF AND PUSH20 0xFFFFFFFFFFFFFFFFFFFFFFFFFFFFFFFFFFFFFFFF AND SUB PUSH2 0x6A6 JUMPI PUSH1 0x40 MLOAD PUSH32 0x8C379A000000000000000000000000000000000000000000000000000000000 DUP2 MSTORE PUSH1 0x4 ADD PUSH2 0x69D SWAP1 PUSH2 0xDE3 JUMP JUMPDEST PUSH1 0x40 MLOAD DUP1 SWAP2 SUB SWAP1 REVERT JUMPDEST PUSH0 PUSH2 0x6B0 DUP4 PUSH2 0x940 JUMP JUMPDEST SWAP1 POP DUP1 PUSH1 0x40 MLOAD PUSH1 0x20 ADD PUSH2 0x6C3 SWAP2 SWAP1 PUSH2 0xF52 JUMP JUMPDEST PUSH1 0x40 MLOAD PUSH1 0x20 DUP2 DUP4 SUB SUB DUP2 MSTORE SWAP1 PUSH1 0x40 MSTORE SWAP2 POP POP SWAP2 SWAP1 POP JUMP JUMPDEST PUSH1 0x60 PUSH2 0x6E5 DUP3 PUSH2 0x940 JUMP JUMPDEST PUSH1 0x40 MLOAD PUSH1 0x20 ADD PUSH2 0x6F5 SWAP2 SWAP1 PUSH2 0x1007 JUMP JUMPDEST PUSH1 0x40 MLOAD PUSH1 0x20 DUP2 DUP4 SUB SUB DUP2 MSTORE SWAP1 PUSH1 0x40 MSTORE SWAP1 POP SWAP2 SWAP1 POP JUMP JUMPDEST PUSH1 0x60 PUSH0 PUSH1 0x2 DUP4 PUSH1 0x2 PUSH2 0x71D SWAP2 SWAP1 PUSH2 0x1033 JUMP JUMPDEST PUSH2 0x727 SWAP2 SWAP1 PUSH2 0x1074 JUMP JUMPDEST PUSH8 0xFFFFFFFFFFFFFFFF DUP2 GT ISZERO PUSH2 0x740 JUMPI PUSH2 0x73F PUSH2 0x10A7 JUMP JUMPDEST JUMPDEST PUSH1 0x40 MLOAD SWAP1 DUP1 DUP3 MSTORE DUP1 PUSH1 0x1F ADD PUSH1 0x1F NOT AND PUSH1 0x20 ADD DUP3 ADD PUSH1 0x40 MSTORE DUP1 ISZERO PUSH2 0x772 JUMPI DUP2 PUSH1 0x20 ADD PUSH1 0x1 DUP3 MUL DUP1 CALLDATASIZE DUP4 CALLDATACOPY DUP1 DUP3 ADD SWAP2 POP POP SWAP1 POP JUMPDEST POP SWAP1 POP PUSH32 0x3000000000000000000000000000000000000000000000000000000000000000 DUP2 PUSH0 DUP2 MLOAD DUP2 LT PUSH2 0x7A9 JUMPI PUSH2 0x7A8 PUSH2 0x10D4 JUMP JUMPDEST JUMPDEST PUSH1 0x20 ADD ADD SWAP1 PUSH31 0xFFFFFFFFFFFFFFFFFFFFFFFFFFFFFFFFFFFFFFFFFFFFFFFFFFFFFFFFFFFFFF NOT AND SWAP1 DUP2 PUSH0 BYTE SWAP1 MSTORE8 POP PUSH32 0x7800000000000000000000000000000000000000000000000000000000000000 DUP2 PUSH1 0x1 DUP2 MLOAD DUP2 LT PUSH2 0x80C JUMPI PUSH2 0x80B PUSH2 0x10D4 JUMP JUMPDEST JUMPDEST PUSH1 0x20 ADD ADD SWAP1 PUSH31 0xFFFFFFFFFFFFFFFFFFFFFFFFFFFFFFFFFFFFFFFFFFFFFFFFFFFFFFFFFFFFFF NOT AND SWAP1 DUP2 PUSH0 BYTE SWAP1 MSTORE8 POP PUSH0 PUSH1 0x1 DUP5 PUSH1 0x2 PUSH2 0x84A SWAP2 SWAP1 PUSH2 0x1033 JUMP JUMPDEST PUSH2 0x854 SWAP2 SWAP1 PUSH2 0x1074 JUMP JUMPDEST SWAP1 POP JUMPDEST PUSH1 0x1 DUP2 GT ISZERO PUSH2 0x8F3 JUMPI PUSH32 0x3334343536616263646566000000000000000000000000000000000000000000 PUSH1 0xF DUP7 AND PUSH1 0x10 DUP2 LT PUSH2 0x896 JUMPI PUSH2 0x895 PUSH2 0x10D4 JUMP JUMPDEST JUMPDEST BYTE PUSH1 0xF8 SHL DUP3 DUP3 DUP2 MLOAD DUP2 LT PUSH2 0x8AD JUMPI PUSH2 0x8AC PUSH2 0x10D4 JUMP JUMPDEST JUMPDEST PUSH1 0x20 ADD ADD SWAP1 PUSH31 0xFFFFFFFFFFFFFFFFFFFFFFFFFFFFFFFFFFFFFFFFFFFFFFFFFFFFFFFFFFFFFF NOT AND SWAP1 DUP2 PUSH0 BYTE SWAP1 MSTORE8 POP PUSH1 0x4 DUP6 SWAP1 SHR SWAP5 POP DUP1 PUSH2 0x8EC SWAP1 PUSH2 0x1101 JUMP JUMPDEST SWAP1 POP PUSH2 0x857 JUMP JUMPDEST POP PUSH0 DUP5 EQ PUSH2 0x936 JUMPI PUSH1 0x40 MLOAD PUSH32 0x8C379A000000000000000000000000000000000000000000000000000000000 DUP2 MSTORE PUSH1 0x4 ADD PUSH2 0x92D SWAP1 PUSH2 0x1172 JUMP JUMPDEST PUSH1 0x40 MLOAD DUP1 SWAP2 SUB SWAP1 REVERT JUMPDEST DUP1 SWAP2 POP POP SWAP3 SWAP2 POP POP JUMP JUMPDEST PUSH1 0x60 PUSH0 DUP3 SUB PUSH2 0x986 JUMPI PUSH1 0x40 MLOAD DUP1 PUSH1 0x40 ADD PUSH1 0x40 MSTORE DUP1 PUSH1 0x1 DUP2 MSTORE PUSH1 0x20 ADD PUSH32 0x3000000000000000000000000000000000000000000000000000000000000000 DUP2 MSTORE POP SWAP1 POP PUSH2 0xA94 JUMP JUMPDEST PUSH0 DUP3 SWAP1 POP PUSH0 JUMPDEST PUSH0 DUP3 EQ PUSH2 0x9B5 JUMPI DUP1 DUP1 PUSH2 0x99E SWAP1 PUSH2 0xD52 JUMP JUMPDEST SWAP2 POP POP PUSH1 0xA DUP3 PUSH2 0x9AE SWAP2 SWAP1 PUSH2 0x11BD JUMP JUMPDEST SWAP2 POP PUSH2 0x98C JUMP JUMPDEST PUSH0 DUP2 PUSH8 0xFFFFFFFFFFFFFFFF DUP2 GT ISZERO PUSH2 0x9D0 JUMPI PUSH2 0x9CF PUSH2 0x10A7 JUMP JUMPDEST JUMPDEST PUSH1 0x40 MLOAD SWAP1 DUP1 DUP3 MSTORE DUP1 PUSH1 0x1F ADD PUSH1 0x1F NOT AND PUSH1 0x20 ADD DUP3 ADD PUSH1 0x40 MSTORE DUP1 ISZERO PUSH2 0xA02 JUMPI DUP2 PUSH1 0x20 ADD PUSH1 0x1 DUP3 MUL DUP1 CALLDATASIZE DUP4 CALLDATACOPY DUP1 DUP3 ADD SWAP2 POP POP SWAP1 POP JUMPDEST POP SWAP1 POP JUMPDEST PUSH0 DUP6 EQ PUSH2 0xA8D JUMPI PUSH1 0x1 DUP3 PUSH2 0xA1A SWAP2 SWAP1 PUSH2 0x11ED JUMP JUMPDEST SWAP2 POP PUSH1 0xA DUP6 PUSH2 0xA29 SWAP2 SWAP1 PUSH2 0x1220 JUMP JUMPDEST PUSH1 0x30 PUSH2 0xA35 SWAP2 SWAP1 PUSH2 0x1074 JUMP JUMPDEST PUSH1 0xF8 SHL DUP2 DUP4 DUP2 MLOAD DUP2 LT PUSH2 0xA4B JUMPI PUSH2 0xA4A PUSH2 0x10D4 JUMP JUMPDEST JUMPDEST PUSH1 0x20 ADD ADD SWAP1 PUSH31 0xFFFFFFFFFFFFFFFFFFFFFFFFFFFFFFFFFFFFFFFFFFFFFFFFFFFFFFFFFFFFFF NOT AND SWAP1 DUP2 PUSH0 BYTE SWAP1 MSTORE8 POP PUSH1 0xA DUP6 PUSH2 0xA86 SWAP2 SWAP1 PUSH2 0x11BD JUMP JUMPDEST SWAP5 POP PUSH2 0xA06 JUMP JUMPDEST DUP1 SWAP4 POP POP POP POP JUMPDEST SWAP2 SWAP1 POP JUMP JUMPDEST PUSH0 DUP2 MLOAD SWAP1 POP SWAP2 SWAP1 POP JUMP JUMPDEST PUSH0 DUP3 DUP3 MSTORE PUSH1 0x20 DUP3 ADD SWAP1 POP SWAP3 SWAP2 POP POP JUMP JUMPDEST DUP3 DUP2 DUP4 MCOPY PUSH0 DUP4 DUP4 ADD MSTORE POP POP POP JUMP JUMPDEST PUSH0 PUSH1 0x1F NOT PUSH1 0x1F DUP4 ADD AND SWAP1 POP SWAP2 SWAP1 POP JUMP JUMPDEST PUSH0 PUSH2 0xADB DUP3 PUSH2 0xA99 JUMP JUMPDEST PUSH2 0xAE5 DUP2 DUP6 PUSH2 0xAA3 JUMP JUMPDEST SWAP4 POP PUSH2 0xAF5 DUP2 DUP6 PUSH1 0x20 DUP7 ADD PUSH2 0xAB3 JUMP JUMPDEST PUSH2 0xAFE DUP2 PUSH2 0xAC1 JUMP JUMPDEST DUP5 ADD SWAP2 POP POP SWAP3 SWAP2 POP POP JUMP JUMPDEST PUSH0 PUSH1 0x20 DUP3 ADD SWAP1 POP DUP2 DUP2 SUB PUSH0 DUP4 ADD MSTORE PUSH2 0xB21 DUP2 DUP5 PUSH2 0xAD1 JUMP JUMPDEST SWAP1 POP SWAP3 SWAP2 POP POP JUMP JUMPDEST PUSH0 DUP2 SWAP1 POP SWAP2 SWAP1 POP JUMP JUMPDEST PUSH2 0xB3B DUP2 PUSH2 0xB29 JUMP JUMPDEST DUP3 MSTORE POP POP JUMP JUMPDEST PUSH0 PUSH1 0x20 DUP3 ADD SWAP1 POP PUSH2 0xB54 PUSH0 DUP4 ADD DUP5 PUSH2 0xB32 JUMP JUMPDEST SWAP3 SWAP2 POP POP JUMP JUMPDEST PUSH0 PUSH0 REVERT JUMPDEST PUSH2 0xB67 DUP2 PUSH2 0xB29 JUMP JUMPDEST DUP2 EQ PUSH2 0xB71 JUMPI PUSH0 PUSH0 REVERT JUMPDEST POP JUMP JUMPDEST PUSH0 DUP2 CALLDATALOAD SWAP1 POP PUSH2 0xB82 DUP2 PUSH2 0xB5E JUMP JUMPDEST SWAP3 SWAP2 POP POP JUMP JUMPDEST PUSH0 PUSH1 0x20 DUP3 DUP5 SUB SLT ISZERO PUSH2 0xB9D JUMPI PUSH2 0xB9C PUSH2 0xB5A JUMP JUMPDEST JUMPDEST PUSH0 PUSH2 0xBAA DUP5 DUP3 DUP6 ADD PUSH2 0xB74 JUMP JUMPDEST SWAP2 POP POP SWAP3 SWAP2 POP POP JUMP JUMPDEST PUSH0 PUSH20 0xFFFFFFFFFFFFFFFFFFFFFFFFFFFFFFFFFFFFFFFF DUP3 AND SWAP1 POP SWAP2 SWAP1 POP JUMP JUMPDEST PUSH0 PUSH2 0xBDC DUP3 PUSH2 0xBB3 JUMP JUMPDEST SWAP1 POP SWAP2 SWAP1 POP JUMP JUMPDEST PUSH2 0xBEC DUP2 PUSH2 0xBD2 JUMP JUMPDEST DUP3 MSTORE POP POP JUMP JUMPDEST PUSH0 PUSH1 0x20 DUP3 ADD SWAP1 POP PUSH2 0xC05 PUSH0 DUP4 ADD DUP5 PUSH2 0xBE3 JUMP JUMPDEST SWAP3 SWAP2 POP POP JUMP JUMPDEST PUSH2 0xC14 DUP2 PUSH2 0xBD2 JUMP JUMPDEST DUP2 EQ PUSH2 0xC1E JUMPI PUSH0 PUSH0 REVERT JUMPDEST POP JUMP JUMPDEST PUSH0 DUP2 CALLDATALOAD SWAP1 POP PUSH2 0xC2F DUP2 PUSH2 0xC0B JUMP JUMPDEST SWAP3 SWAP2 POP POP JUMP JUMPDEST PUSH0 PUSH1 0x20 DUP3 DUP5 SUB SLT ISZERO PUSH2 0xC4A JUMPI PUSH2 0xC49 PUSH2 0xB5A JUMP JUMPDEST JUMPDEST PUSH0 PUSH2 0xC57 DUP5 DUP3 DUP6 ADD PUSH2 0xC21 JUMP JUMPDEST SWAP2 POP POP SWAP3 SWAP2 POP POP JUMP JUMPDEST PUSH32 0x4E487B7100000000000000000000000000000000000000000000000000000000 PUSH0 MSTORE PUSH1 0x22 PUSH1 0x4 MSTORE PUSH1 0x24 PUSH0 REVERT JUMPDEST PUSH0 PUSH1 0x2 DUP3 DIV SWAP1 POP PUSH1 0x1 DUP3 AND DUP1 PUSH2 0xCA4 JUMPI PUSH1 0x7F DUP3 AND SWAP2 POP JUMPDEST PUSH1 0x20 DUP3 LT DUP2 SUB PUSH2 0xCB7 JUMPI PUSH2 0xCB6 PUSH2 0xC60 JUMP JUMPDEST JUMPDEST POP SWAP2 SWAP1 POP JUMP JUMPDEST PUSH32 0x43616E6E6F74206D696E7420746F207A65726F20616464726573730000000000 PUSH0 DUP3 ADD MSTORE POP JUMP JUMPDEST PUSH0 PUSH2 0xCF1 PUSH1 0x1B DUP4 PUSH2 0xAA3 JUMP JUMPDEST SWAP2 POP PUSH2 0xCFC DUP3 PUSH2 0xCBD JUMP JUMPDEST PUSH1 0x20 DUP3 ADD SWAP1 POP SWAP2 SWAP1 POP JUMP JUMPDEST PUSH0 PUSH1 0x20 DUP3 ADD SWAP1 POP DUP2 DUP2 SUB PUSH0 DUP4 ADD MSTORE PUSH2 0xD1E DUP2 PUSH2 0xCE5 JUMP JUMPDEST SWAP1 POP SWAP2 SWAP1 POP JUMP JUMPDEST PUSH32 0x4E487B7100000000000000000000000000000000000000000000000000000000 PUSH0 MSTORE PUSH1 0x11 PUSH1 0x4 MSTORE PUSH1 0x24 PUSH0 REVERT JUMPDEST PUSH0 PUSH2 0xD5C DUP3 PUSH2 0xB29 JUMP JUMPDEST SWAP2 POP PUSH32 0xFFFFFFFFFFFFFFFFFFFFFFFFFFFFFFFFFFFFFFFFFFFFFFFFFFFFFFFFFFFFFFFF DUP3 SUB PUSH2 0xD8E JUMPI PUSH2 0xD8D PUSH2 0xD25 JUMP JUMPDEST JUMPDEST PUSH1 0x1 DUP3 ADD SWAP1 POP SWAP2 SWAP1 POP JUMP JUMPDEST PUSH32 0x546F6B656E20646F6573206E6F74206578697374000000000000000000000000 PUSH0 DUP3 ADD MSTORE POP JUMP JUMPDEST PUSH0 PUSH2 0xDCD PUSH1 0x14 DUP4 PUSH2 0xAA3 JUMP JUMPDEST SWAP2 POP PUSH2 0xDD8 DUP3 PUSH2 0xD99 JUMP JUMPDEST PUSH1 0x20 DUP3 ADD SWAP1 POP SWAP2 SWAP1 POP JUMP JUMPDEST PUSH0 PUSH1 0x20 DUP3 ADD SWAP1 POP DUP2 DUP2 SUB PUSH0 DUP4 ADD MSTORE PUSH2 0xDFA DUP2 PUSH2 0xDC1 JUMP JUMPDEST SWAP1 POP SWAP2 SWAP1 POP JUMP JUMPDEST PUSH0 DUP2 SWAP1 POP SWAP3 SWAP2 POP POP JUMP JUMPDEST PUSH32 0x546F6B656E202300000000000000000000000000000000000000000000000000 PUSH0 DUP3 ADD MSTORE POP JUMP JUMPDEST PUSH0 PUSH2 0xE3F PUSH1 0x7 DUP4 PUSH2 0xE01 JUMP JUMPDEST SWAP2 POP PUSH2 0xE4A DUP3 PUSH2 0xE0B JUMP JUMPDEST PUSH1 0x7 DUP3 ADD SWAP1 POP SWAP2 SWAP1 POP JUMP JUMPDEST PUSH0 PUSH2 0xE5F DUP3 PUSH2 0xA99 JUMP JUMPDEST PUSH2 0xE69 DUP2 DUP6 PUSH2 0xE01 JUMP JUMPDEST SWAP4 POP PUSH2 0xE79 DUP2 DUP6 PUSH1 0x20 DUP7 ADD PUSH2 0xAB3 JUMP JUMPDEST DUP1 DUP5 ADD SWAP2 POP POP SWAP3 SWAP2 POP POP JUMP JUMPDEST PUSH32 0x206973206F776E65642062792000000000000000000000000000000000000000 PUSH0 DUP3 ADD MSTORE POP JUMP JUMPDEST PUSH0 PUSH2 0xEB9 PUSH1 0xD DUP4 PUSH2 0xE01 JUMP JUMPDEST SWAP2 POP PUSH2 0xEC4 DUP3 PUSH2 0xE85 JUMP JUMPDEST PUSH1 0xD DUP3 ADD SWAP1 POP SWAP2 SWAP1 POP JUMP JUMPDEST PUSH0 PUSH2 0xED9 DUP3 PUSH2 0xE33 JUMP JUMPDEST SWAP2 POP PUSH2 0xEE5 DUP3 DUP6 PUSH2 0xE55 JUMP JUMPDEST SWAP2 POP PUSH2 0xEF0 DUP3 PUSH2 0xEAD JUMP JUMPDEST SWAP2 POP PUSH2 0xEFC DUP3 DUP5 PUSH2 0xE55 JUMP JUMPDEST SWAP2 POP DUP2 SWAP1 POP SWAP4 SWAP3 POP POP POP JUMP JUMPDEST PUSH32 0x68747470733A2F2F6170692E6D796E66742E636F6D2F746F6B656E2F00000000 PUSH0 DUP3 ADD MSTORE POP JUMP JUMPDEST PUSH0 PUSH2 0xF3C PUSH1 0x1C DUP4 PUSH2 0xE01 JUMP JUMPDEST SWAP2 POP PUSH2 0xF47 DUP3 PUSH2 0xF08 JUMP JUMPDEST PUSH1 0x1C DUP3 ADD SWAP1 POP SWAP2 SWAP1 POP JUMP JUMPDEST PUSH0 PUSH2 0xF5C DUP3 PUSH2 0xF30 JUMP JUMPDEST SWAP2 POP PUSH2 0xF68 DUP3 DUP5 PUSH2 0xE55 JUMP JUMPDEST SWAP2 POP DUP2 SWAP1 POP SWAP3 SWAP2 POP POP JUMP JUMPDEST PUSH32 0x4D696E74696E6720000000000000000000000000000000000000000000000000 PUSH0 DUP3 ADD MSTORE POP JUMP JUMPDEST PUSH0 PUSH2 0xFA7 PUSH1 0x8 DUP4 PUSH2 0xE01 JUMP JUMPDEST SWAP2 POP PUSH2 0xFB2 DUP3 PUSH2 0xF73 JUMP JUMPDEST PUSH1 0x8 DUP3 ADD SWAP1 POP SWAP2 SWAP1 POP JUMP JUMPDEST PUSH32 0x204E465473000000000000000000000000000000000000000000000000000000 PUSH0 DUP3 ADD MSTORE POP JUMP JUMPDEST PUSH0 PUSH2 0xFF1 PUSH1 0x5 DUP4 PUSH2 0xE01 JUMP JUMPDEST SWAP2 POP PUSH2 0xFFC DUP3 PUSH2 0xFBD JUMP JUMPDEST PUSH1 0x5 DUP3 ADD SWAP1 POP SWAP2 SWAP1 POP JUMP JUMPDEST PUSH0 PUSH2 0x1011 DUP3 PUSH2 0xF9B JUMP JUMPDEST SWAP2 POP PUSH2 0x101D DUP3 DUP5 PUSH2 0xE55 JUMP JUMPDEST SWAP2 POP PUSH2 0x1028 DUP3 PUSH2 0xFE5 JUMP JUMPDEST SWAP2 POP DUP2 SWAP1 POP SWAP3 SWAP2 POP POP JUMP JUMPDEST PUSH0 PUSH2 0x103D DUP3 PUSH2 0xB29 JUMP JUMPDEST SWAP2 POP PUSH2 0x1048 DUP4 PUSH2 0xB29 JUMP JUMPDEST SWAP3 POP DUP3 DUP3 MUL PUSH2 0x1056 DUP2 PUSH2 0xB29 JUMP JUMPDEST SWAP2 POP DUP3 DUP3 DIV DUP5 EQ DUP4 ISZERO OR PUSH2 0x106D JUMPI PUSH2 0x106C PUSH2 0xD25 JUMP JUMPDEST JUMPDEST POP SWAP3 SWAP2 POP POP JUMP JUMPDEST PUSH0 PUSH2 0x107E DUP3 PUSH2 0xB29 JUMP JUMPDEST SWAP2 POP PUSH2 0x1089 DUP4 PUSH2 0xB29 JUMP JUMPDEST SWAP3 POP DUP3 DUP3 ADD SWAP1 POP DUP1 DUP3 GT ISZERO PUSH2 0x10A1 JUMPI PUSH2 0x10A0 PUSH2 0xD25 JUMP JUMPDEST JUMPDEST SWAP3 SWAP2 POP POP JUMP JUMPDEST PUSH32 0x4E487B7100000000000000000000000000000000000000000000000000000000 PUSH0 MSTORE PUSH1 0x41 PUSH1 0x4 MSTORE PUSH1 0x24 PUSH0 REVERT JUMPDEST PUSH32 0x4E487B7100000000000000000000000000000000000000000000000000000000 PUSH0 MSTORE PUSH1 0x32 PUSH1 0x4 MSTORE PUSH1 0x24 PUSH0 REVERT JUMPDEST PUSH0 PUSH2 0x110B DUP3 PUSH2 0xB29 JUMP JUMPDEST SWAP2 POP PUSH0 DUP3 SUB PUSH2 0x111D JUMPI PUSH2 0x111C PUSH2 0xD25 JUMP JUMPDEST JUMPDEST PUSH1 0x1 DUP3 SUB SWAP1 POP SWAP2 SWAP1 POP JUMP JUMPDEST PUSH32 0x537472696E67733A20686578206C656E67746820696E73756666696369656E74 PUSH0 DUP3 ADD MSTORE POP JUMP JUMPDEST PUSH0 PUSH2 0x115C PUSH1 0x20 DUP4 PUSH2 0xAA3 JUMP JUMPDEST SWAP2 POP PUSH2 0x1167 DUP3 PUSH2 0x1128 JUMP JUMPDEST PUSH1 0x20 DUP3 ADD SWAP1 POP SWAP2 SWAP1 POP JUMP JUMPDEST PUSH0 PUSH1 0x20 DUP3 ADD SWAP1 POP DUP2 DUP2 SUB PUSH0 DUP4 ADD MSTORE PUSH2 0x1189 DUP2 PUSH2 0x1150 JUMP JUMPDEST SWAP1 POP SWAP2 SWAP1 POP JUMP JUMPDEST PUSH32 0x4E487B7100000000000000000000000000000000000000000000000000000000 PUSH0 MSTORE PUSH1 0x12 PUSH1 0x4 MSTORE PUSH1 0x24 PUSH0 REVERT JUMPDEST PUSH0 PUSH2 0x11C7 DUP3 PUSH2 0xB29 JUMP JUMPDEST SWAP2 POP PUSH2 0x11D2 DUP4 PUSH2 0xB29 JUMP JUMPDEST SWAP3 POP DUP3 PUSH2 0x11E2 JUMPI PUSH2 0x11E1 PUSH2 0x1190 JUMP JUMPDEST JUMPDEST DUP3 DUP3 DIV SWAP1 POP SWAP3 SWAP2 POP POP JUMP JUMPDEST PUSH0 PUSH2 0x11F7 DUP3 PUSH2 0xB29 JUMP JUMPDEST SWAP2 POP PUSH2 0x1202 DUP4 PUSH2 0xB29 JUMP JUMPDEST SWAP3 POP DUP3 DUP3 SUB SWAP1 POP DUP2 DUP2 GT ISZERO PUSH2 0x121A JUMPI PUSH2 0x1219 PUSH2 0xD25 JUMP JUMPDEST JUMPDEST SWAP3 SWAP2 POP POP JUMP JUMPDEST PUSH0 PUSH2 0x122A DUP3 PUSH2 0xB29 JUMP JUMPDEST SWAP2 POP PUSH2 0x1235 DUP4 PUSH2 0xB29 JUMP JUMPDEST SWAP3 POP DUP3 PUSH2 0x1245 JUMPI PUSH2 0x1244 PUSH2 0x1190 JUMP JUMPDEST JUMPDEST DUP3 DUP3 MOD SWAP1 POP SWAP3 SWAP2 POP POP JUMP INVALID LOG2 PUSH5 0x6970667358 0x22 SLT KECCAK256 0xDD 0xC1 SWAP2 0xD4 PUSH27 0x4B3D342F25A50CBF7D64456090548D7C9FD036F4CF2C244CBA3654 PUSH5 0x736F6C6343 STOP ADDMOD 0x1E STOP CALLER "
				},
				"gasEstimates": {
					"creation": {
						"codeDepositCost": "948400",
						"executionCost": "infinite",
						"totalCost": "infinite"
					},
					"external": {
						"balanceOf(address)": "2802",
						"getBatchMintInfo(uint256)": "infinite",
						"getOwnerInfo(uint256)": "infinite",
						"mint(address)": "infinite",
						"name()": "infinite",
						"ownerOf(uint256)": "2872",
						"symbol()": "infinite",
						"tokenURI(uint256)": "infinite",
						"totalSupply()": "2448"
					}
				},
				"methodIdentifiers": {
					"balanceOf(address)": "70a08231",
					"getBatchMintInfo(uint256)": "e40b6602",
					"getOwnerInfo(uint256)": "8455f388",
					"mint(address)": "6a627842",
					"name()": "06fdde03",
					"ownerOf(uint256)": "6352211e",
					"symbol()": "95d89b41",
					"tokenURI(uint256)": "c87b56dd",
					"totalSupply()": "18160ddd"
				}
			},
			"storageLayout": {
				"storage": [
					{
						"astId": 207,
						"contract": "contracts/SimpleNFT.sol:SimpleNFT",
						"label": "name",
						"offset": 0,
						"slot": "0",
						"type": "t_string_storage"
					},
					{
						"astId": 210,
						"contract": "contracts/SimpleNFT.sol:SimpleNFT",
						"label": "symbol",
						"offset": 0,
						"slot": "1",
						"type": "t_string_storage"
					},
					{
						"astId": 214,
						"contract": "contracts/SimpleNFT.sol:SimpleNFT",
						"label": "ownerOf",
						"offset": 0,
						"slot": "2",
						"type": "t_mapping(t_uint256,t_address)"
					},
					{
						"astId": 218,
						"contract": "contracts/SimpleNFT.sol:SimpleNFT",
						"label": "balanceOf",
						"offset": 0,
						"slot": "3",
						"type": "t_mapping(t_address,t_uint256)"
					},
					{
						"astId": 220,
						"contract": "contracts/SimpleNFT.sol:SimpleNFT",
						"label": "totalSupply",
						"offset": 0,
						"slot": "4",
						"type": "t_uint256"
					}
				],
				"types": {
					"t_address": {
						"encoding": "inplace",
						"label": "address",
						"numberOfBytes": "20"
					},
					"t_mapping(t_address,t_uint256)": {
						"encoding": "mapping",
						"key": "t_address",
						"label": "mapping(address => uint256)",
						"numberOfBytes": "32",
						"value": "t_uint256"
					},
					"t_mapping(t_uint256,t_address)": {
						"encoding": "mapping",
						"key": "t_uint256",
						"label": "mapping(uint256 => address)",
						"numberOfBytes": "32",
						"value": "t_address"
					},
					"t_string_storage": {
						"encoding": "bytes",
						"label": "string",
						"numberOfBytes": "32"
					},
					"t_uint256": {
						"encoding": "inplace",
						"label": "uint256",
						"numberOfBytes": "32"
					}
				}
			},
			"userdoc": {
				"kind": "user",
				"methods": {},
				"version": 1
			}
		}
	}
}