{
	"contracts/‎WhiteList.sol": {
		"WhiteList": {
			"abi": [
				{
					"inputs": [],
					"stateMutability": "nonpayable",
					"type": "constructor"
				},
				{
					"anonymous": false,
					"inputs": [
						{
							"indexed": true,
							"internalType": "address",
							"name": "account",
							"type": "address"
						}
					],
					"name": "AddedToWhitelist",
					"type": "event"
				},
				{
					"anonymous": false,
					"inputs": [
						{
							"indexed": true,
							"internalType": "address",
							"name": "account",
							"type": "address"
						}
					],
					"name": "RemovedFromWhitelist",
					"type": "event"
				},
				{
					"inputs": [
						{
							"internalType": "address",
							"name": "account",
							"type": "address"
						}
					],
					"name": "addToWhitelist",
					"outputs": [],
					"stateMutability": "nonpayable",
					"type": "function"
				},
				{
					"inputs": [],
					"name": "getAllWhitelistAddresses",
					"outputs": [
						{
							"internalType": "address[]",
							"name": "",
							"type": "address[]"
						}
					],
					"stateMutability": "view",
					"type": "function"
				},
				{
					"inputs": [
						{
							"internalType": "uint256",
							"name": "index",
							"type": "uint256"
						}
					],
					"name": "getWhitelistAddress",
					"outputs": [
						{
							"internalType": "address",
							"name": "",
							"type": "address"
						}
					],
					"stateMutability": "view",
					"type": "function"
				},
				{
					"inputs": [],
					"name": "getWhitelistSize",
					"outputs": [
						{
							"internalType": "uint256",
							"name": "",
							"type": "uint256"
						}
					],
					"stateMutability": "view",
					"type": "function"
				},
				{
					"inputs": [
						{
							"internalType": "address",
							"name": "account",
							"type": "address"
						}
					],
					"name": "isWhitelisted",
					"outputs": [
						{
							"internalType": "bool",
							"name": "",
							"type": "bool"
						}
					],
					"stateMutability": "view",
					"type": "function"
				},
				{
					"inputs": [],
					"name": "owner",
					"outputs": [
						{
							"internalType": "address",
							"name": "",
							"type": "address"
						}
					],
					"stateMutability": "view",
					"type": "function"
				},
				{
					"inputs": [
						{
							"internalType": "address",
							"name": "account",
							"type": "address"
						}
					],
					"name": "removeFromWhitelist",
					"outputs": [],
					"stateMutability": "nonpayable",
					"type": "function"
				},
				{
					"inputs": [],
					"name": "restrictedFunction",
					"outputs": [
						{
							"internalType": "string",
							"name": "",
							"type": "string"
						}
					],
					"stateMutability": "view",
					"type": "function"
				}
			],
			"devdoc": {
				"kind": "dev",
				"methods": {},
				"version": 1
			},
			"evm": {
				"assembly": "    /* \"contracts/\\xe2\\x80\\x8eWhiteList.sol\":1633:3580  contract WhiteList {... */\n  mstore(0x40, 0x80)\n    /* \"contracts/\\xe2\\x80\\x8eWhiteList.sol\":1988:2037  constructor() {... */\n  callvalue\n  dup1\n  iszero\n  tag_1\n  jumpi\n  revert(0x00, 0x00)\ntag_1:\n  pop\n    /* \"contracts/\\xe2\\x80\\x8eWhiteList.sol\":2020:2030  msg.sender */\n  caller\n    /* \"contracts/\\xe2\\x80\\x8eWhiteList.sol\":2012:2017  owner */\n  0x02\n  0x00\n    /* \"contracts/\\xe2\\x80\\x8eWhiteList.sol\":2012:2030  owner = msg.sender */\n  0x0100\n  exp\n  dup2\n  sload\n  dup2\n  0xffffffffffffffffffffffffffffffffffffffff\n  mul\n  not\n  and\n  swap1\n  dup4\n  0xffffffffffffffffffffffffffffffffffffffff\n  and\n  mul\n  or\n  swap1\n  sstore\n  pop\n    /* \"contracts/\\xe2\\x80\\x8eWhiteList.sol\":1633:3580  contract WhiteList {... */\n  dataSize(sub_0)\n  dup1\n  dataOffset(sub_0)\n  0x00\n  codecopy\n  0x00\n  return\nstop\n\nsub_0: assembly {\n        /* \"contracts/\\xe2\\x80\\x8eWhiteList.sol\":1633:3580  contract WhiteList {... */\n      mstore(0x40, 0x80)\n      callvalue\n      dup1\n      iszero\n      tag_1\n      jumpi\n      revert(0x00, 0x00)\n    tag_1:\n      pop\n      jumpi(tag_2, lt(calldatasize, 0x04))\n      shr(0xe0, calldataload(0x00))\n      dup1\n      0x8da5cb5b\n      gt\n      tag_11\n      jumpi\n      dup1\n      0x8da5cb5b\n      eq\n      tag_7\n      jumpi\n      dup1\n      0x99db89b5\n      eq\n      tag_8\n      jumpi\n      dup1\n      0xe43252d7\n      eq\n      tag_9\n      jumpi\n      dup1\n      0xf230bd7d\n      eq\n      tag_10\n      jumpi\n      jump(tag_2)\n    tag_11:\n      dup1\n      0x3af32abf\n      eq\n      tag_3\n      jumpi\n      dup1\n      0x565853af\n      eq\n      tag_4\n      jumpi\n      dup1\n      0x777acf37\n      eq\n      tag_5\n      jumpi\n      dup1\n      0x8ab1d681\n      eq\n      tag_6\n      jumpi\n    tag_2:\n      revert(0x00, 0x00)\n        /* \"contracts/\\xe2\\x80\\x8eWhiteList.sol\":2573:2691  function isWhitelisted(address account) public view returns (bool) {... */\n    tag_3:\n      tag_12\n      0x04\n      dup1\n      calldatasize\n      sub\n      dup2\n      add\n      swap1\n      tag_13\n      swap2\n      swap1\n      tag_14\n      jump\t// in\n    tag_13:\n      tag_15\n      jump\t// in\n    tag_12:\n      mload(0x40)\n      tag_16\n      swap2\n      swap1\n      tag_17\n      jump\t// in\n    tag_16:\n      mload(0x40)\n      dup1\n      swap2\n      sub\n      swap1\n      return\n        /* \"contracts/\\xe2\\x80\\x8eWhiteList.sol\":2867:2984  function getWhitelistAddress(uint256 index) public view returns (address) {... */\n    tag_4:\n      tag_18\n      0x04\n      dup1\n      calldatasize\n      sub\n      dup2\n      add\n      swap1\n      tag_19\n      swap2\n      swap1\n      tag_20\n      jump\t// in\n    tag_19:\n      tag_21\n      jump\t// in\n    tag_18:\n      mload(0x40)\n      tag_22\n      swap2\n      swap1\n      tag_23\n      jump\t// in\n    tag_22:\n      mload(0x40)\n      dup1\n      swap2\n      sub\n      swap1\n      return\n        /* \"contracts/\\xe2\\x80\\x8eWhiteList.sol\":3394:3578  function restrictedFunction() public view returns (string memory) {... */\n    tag_5:\n      tag_24\n      tag_25\n      jump\t// in\n    tag_24:\n      mload(0x40)\n      tag_26\n      swap2\n      swap1\n      tag_27\n      jump\t// in\n    tag_26:\n      mload(0x40)\n      dup1\n      swap2\n      sub\n      swap1\n      return\n        /* \"contracts/\\xe2\\x80\\x8eWhiteList.sol\":2346:2532  function removeFromWhitelist(address account) public onlyOwner {... */\n    tag_6:\n      tag_28\n      0x04\n      dup1\n      calldatasize\n      sub\n      dup2\n      add\n      swap1\n      tag_29\n      swap2\n      swap1\n      tag_14\n      jump\t// in\n    tag_29:\n      tag_30\n      jump\t// in\n    tag_28:\n      stop\n        /* \"contracts/\\xe2\\x80\\x8eWhiteList.sol\":1739:1759  address public owner */\n    tag_7:\n      tag_31\n      tag_32\n      jump\t// in\n    tag_31:\n      mload(0x40)\n      tag_33\n      swap2\n      swap1\n      tag_23\n      jump\t// in\n    tag_33:\n      mload(0x40)\n      dup1\n      swap2\n      sub\n      swap1\n      return\n        /* \"contracts/\\xe2\\x80\\x8eWhiteList.sol\":2726:2826  function getWhitelistSize() public view returns (uint256) {... */\n    tag_8:\n      tag_34\n      tag_35\n      jump\t// in\n    tag_34:\n      mload(0x40)\n      tag_36\n      swap2\n      swap1\n      tag_37\n      jump\t// in\n    tag_36:\n      mload(0x40)\n      dup1\n      swap2\n      sub\n      swap1\n      return\n        /* \"contracts/\\xe2\\x80\\x8eWhiteList.sol\":2069:2314  function addToWhitelist(address account) public onlyOwner {... */\n    tag_9:\n      tag_38\n      0x04\n      dup1\n      calldatasize\n      sub\n      dup2\n      add\n      swap1\n      tag_39\n      swap2\n      swap1\n      tag_14\n      jump\t// in\n    tag_39:\n      tag_40\n      jump\t// in\n    tag_38:\n      stop\n        /* \"contracts/\\xe2\\x80\\x8eWhiteList.sol\":3025:3335  function getAllWhitelistAddresses() public view returns (address[] memory) {... */\n    tag_10:\n      tag_41\n      tag_42\n      jump\t// in\n    tag_41:\n      mload(0x40)\n      tag_43\n      swap2\n      swap1\n      tag_44\n      jump\t// in\n    tag_43:\n      mload(0x40)\n      dup1\n      swap2\n      sub\n      swap1\n      return\n        /* \"contracts/\\xe2\\x80\\x8eWhiteList.sol\":2573:2691  function isWhitelisted(address account) public view returns (bool) {... */\n    tag_15:\n        /* \"contracts/\\xe2\\x80\\x8eWhiteList.sol\":2634:2638  bool */\n      0x00\n        /* \"contracts/\\xe2\\x80\\x8eWhiteList.sol\":2657:2684  whitelist.contains(account) */\n      tag_46\n        /* \"contracts/\\xe2\\x80\\x8eWhiteList.sol\":2676:2683  account */\n      dup3\n        /* \"contracts/\\xe2\\x80\\x8eWhiteList.sol\":2657:2666  whitelist */\n      0x00\n        /* \"contracts/\\xe2\\x80\\x8eWhiteList.sol\":2657:2675  whitelist.contains */\n      tag_47\n      swap1\n        /* \"contracts/\\xe2\\x80\\x8eWhiteList.sol\":2657:2684  whitelist.contains(account) */\n      swap2\n      swap1\n      0xffffffff\n      and\n      jump\t// in\n    tag_46:\n        /* \"contracts/\\xe2\\x80\\x8eWhiteList.sol\":2650:2684  return whitelist.contains(account) */\n      swap1\n      pop\n        /* \"contracts/\\xe2\\x80\\x8eWhiteList.sol\":2573:2691  function isWhitelisted(address account) public view returns (bool) {... */\n      swap2\n      swap1\n      pop\n      jump\t// out\n        /* \"contracts/\\xe2\\x80\\x8eWhiteList.sol\":2867:2984  function getWhitelistAddress(uint256 index) public view returns (address) {... */\n    tag_21:\n        /* \"contracts/\\xe2\\x80\\x8eWhiteList.sol\":2932:2939  address */\n      0x00\n        /* \"contracts/\\xe2\\x80\\x8eWhiteList.sol\":2958:2977  whitelist.at(index) */\n      tag_49\n        /* \"contracts/\\xe2\\x80\\x8eWhiteList.sol\":2971:2976  index */\n      dup3\n        /* \"contracts/\\xe2\\x80\\x8eWhiteList.sol\":2958:2967  whitelist */\n      0x00\n        /* \"contracts/\\xe2\\x80\\x8eWhiteList.sol\":2958:2970  whitelist.at */\n      tag_50\n      swap1\n        /* \"contracts/\\xe2\\x80\\x8eWhiteList.sol\":2958:2977  whitelist.at(index) */\n      swap2\n      swap1\n      0xffffffff\n      and\n      jump\t// in\n    tag_49:\n        /* \"contracts/\\xe2\\x80\\x8eWhiteList.sol\":2951:2977  return whitelist.at(index) */\n      swap1\n      pop\n        /* \"contracts/\\xe2\\x80\\x8eWhiteList.sol\":2867:2984  function getWhitelistAddress(uint256 index) public view returns (address) {... */\n      swap2\n      swap1\n      pop\n      jump\t// out\n        /* \"contracts/\\xe2\\x80\\x8eWhiteList.sol\":3394:3578  function restrictedFunction() public view returns (string memory) {... */\n    tag_25:\n        /* \"contracts/\\xe2\\x80\\x8eWhiteList.sol\":3445:3458  string memory */\n      0x60\n        /* \"contracts/\\xe2\\x80\\x8eWhiteList.sol\":3478:3503  isWhitelisted(msg.sender) */\n      tag_52\n        /* \"contracts/\\xe2\\x80\\x8eWhiteList.sol\":3492:3502  msg.sender */\n      caller\n        /* \"contracts/\\xe2\\x80\\x8eWhiteList.sol\":3478:3491  isWhitelisted */\n      tag_15\n        /* \"contracts/\\xe2\\x80\\x8eWhiteList.sol\":3478:3503  isWhitelisted(msg.sender) */\n      jump\t// in\n    tag_52:\n        /* \"contracts/\\xe2\\x80\\x8eWhiteList.sol\":3470:3523  require(isWhitelisted(msg.sender), \"Not whitelisted\") */\n      tag_53\n      jumpi\n      mload(0x40)\n      0x08c379a000000000000000000000000000000000000000000000000000000000\n      dup2\n      mstore\n      0x04\n      add\n      tag_54\n      swap1\n      tag_55\n      jump\t// in\n    tag_54:\n      mload(0x40)\n      dup1\n      swap2\n      sub\n      swap1\n      revert\n    tag_53:\n        /* \"contracts/\\xe2\\x80\\x8eWhiteList.sol\":3533:3571  return \"Welcome! You are whitelisted.\" */\n      mload(0x40)\n      dup1\n      0x40\n      add\n      0x40\n      mstore\n      dup1\n      0x1d\n      dup2\n      mstore\n      0x20\n      add\n      0x57656c636f6d652120596f75206172652077686974656c69737465642e000000\n      dup2\n      mstore\n      pop\n      swap1\n      pop\n        /* \"contracts/\\xe2\\x80\\x8eWhiteList.sol\":3394:3578  function restrictedFunction() public view returns (string memory) {... */\n      swap1\n      jump\t// out\n        /* \"contracts/\\xe2\\x80\\x8eWhiteList.sol\":2346:2532  function removeFromWhitelist(address account) public onlyOwner {... */\n    tag_30:\n        /* \"contracts/\\xe2\\x80\\x8eWhiteList.sol\":1930:1935  owner */\n      0x02\n      0x00\n      swap1\n      sload\n      swap1\n      0x0100\n      exp\n      swap1\n      div\n      0xffffffffffffffffffffffffffffffffffffffff\n      and\n        /* \"contracts/\\xe2\\x80\\x8eWhiteList.sol\":1916:1935  msg.sender == owner */\n      0xffffffffffffffffffffffffffffffffffffffff\n      and\n        /* \"contracts/\\xe2\\x80\\x8eWhiteList.sol\":1916:1926  msg.sender */\n      caller\n        /* \"contracts/\\xe2\\x80\\x8eWhiteList.sol\":1916:1935  msg.sender == owner */\n      0xffffffffffffffffffffffffffffffffffffffff\n      and\n      eq\n        /* \"contracts/\\xe2\\x80\\x8eWhiteList.sol\":1908:1964  require(msg.sender == owner, \"Only owner can call this\") */\n      tag_57\n      jumpi\n      mload(0x40)\n      0x08c379a000000000000000000000000000000000000000000000000000000000\n      dup2\n      mstore\n      0x04\n      add\n      tag_58\n      swap1\n      tag_59\n      jump\t// in\n    tag_58:\n      mload(0x40)\n      dup1\n      swap2\n      sub\n      swap1\n      revert\n    tag_57:\n        /* \"contracts/\\xe2\\x80\\x8eWhiteList.sol\":2427:2452  whitelist.remove(account) */\n      tag_61\n        /* \"contracts/\\xe2\\x80\\x8eWhiteList.sol\":2444:2451  account */\n      dup2\n        /* \"contracts/\\xe2\\x80\\x8eWhiteList.sol\":2427:2436  whitelist */\n      0x00\n        /* \"contracts/\\xe2\\x80\\x8eWhiteList.sol\":2427:2443  whitelist.remove */\n      tag_62\n      swap1\n        /* \"contracts/\\xe2\\x80\\x8eWhiteList.sol\":2427:2452  whitelist.remove(account) */\n      swap2\n      swap1\n      0xffffffff\n      and\n      jump\t// in\n    tag_61:\n        /* \"contracts/\\xe2\\x80\\x8eWhiteList.sol\":2419:2481  require(whitelist.remove(account), \"Address not in whitelist\") */\n      tag_63\n      jumpi\n      mload(0x40)\n      0x08c379a000000000000000000000000000000000000000000000000000000000\n      dup2\n      mstore\n      0x04\n      add\n      tag_64\n      swap1\n      tag_65\n      jump\t// in\n    tag_64:\n      mload(0x40)\n      dup1\n      swap2\n      sub\n      swap1\n      revert\n    tag_63:\n        /* \"contracts/\\xe2\\x80\\x8eWhiteList.sol\":2517:2524  account */\n      dup1\n        /* \"contracts/\\xe2\\x80\\x8eWhiteList.sol\":2496:2525  RemovedFromWhitelist(account) */\n      0xffffffffffffffffffffffffffffffffffffffff\n      and\n      0xcdd2e9b91a56913d370075169cefa1602ba36be5301664f752192bb1709df757\n      mload(0x40)\n      mload(0x40)\n      dup1\n      swap2\n      sub\n      swap1\n      log2\n        /* \"contracts/\\xe2\\x80\\x8eWhiteList.sol\":2346:2532  function removeFromWhitelist(address account) public onlyOwner {... */\n      pop\n      jump\t// out\n        /* \"contracts/\\xe2\\x80\\x8eWhiteList.sol\":1739:1759  address public owner */\n    tag_32:\n      0x02\n      0x00\n      swap1\n      sload\n      swap1\n      0x0100\n      exp\n      swap1\n      div\n      0xffffffffffffffffffffffffffffffffffffffff\n      and\n      dup2\n      jump\t// out\n        /* \"contracts/\\xe2\\x80\\x8eWhiteList.sol\":2726:2826  function getWhitelistSize() public view returns (uint256) {... */\n    tag_35:\n        /* \"contracts/\\xe2\\x80\\x8eWhiteList.sol\":2775:2782  uint256 */\n      0x00\n        /* \"contracts/\\xe2\\x80\\x8eWhiteList.sol\":2801:2819  whitelist.length() */\n      tag_67\n        /* \"contracts/\\xe2\\x80\\x8eWhiteList.sol\":2801:2810  whitelist */\n      0x00\n        /* \"contracts/\\xe2\\x80\\x8eWhiteList.sol\":2801:2817  whitelist.length */\n      tag_68\n        /* \"contracts/\\xe2\\x80\\x8eWhiteList.sol\":2801:2819  whitelist.length() */\n      jump\t// in\n    tag_67:\n        /* \"contracts/\\xe2\\x80\\x8eWhiteList.sol\":2794:2819  return whitelist.length() */\n      swap1\n      pop\n        /* \"contracts/\\xe2\\x80\\x8eWhiteList.sol\":2726:2826  function getWhitelistSize() public view returns (uint256) {... */\n      swap1\n      jump\t// out\n        /* \"contracts/\\xe2\\x80\\x8eWhiteList.sol\":2069:2314  function addToWhitelist(address account) public onlyOwner {... */\n    tag_40:\n        /* \"contracts/\\xe2\\x80\\x8eWhiteList.sol\":1930:1935  owner */\n      0x02\n      0x00\n      swap1\n      sload\n      swap1\n      0x0100\n      exp\n      swap1\n      div\n      0xffffffffffffffffffffffffffffffffffffffff\n      and\n        /* \"contracts/\\xe2\\x80\\x8eWhiteList.sol\":1916:1935  msg.sender == owner */\n      0xffffffffffffffffffffffffffffffffffffffff\n      and\n        /* \"contracts/\\xe2\\x80\\x8eWhiteList.sol\":1916:1926  msg.sender */\n      caller\n        /* \"contracts/\\xe2\\x80\\x8eWhiteList.sol\":1916:1935  msg.sender == owner */\n      0xffffffffffffffffffffffffffffffffffffffff\n      and\n      eq\n        /* \"contracts/\\xe2\\x80\\x8eWhiteList.sol\":1908:1964  require(msg.sender == owner, \"Only owner can call this\") */\n      tag_70\n      jumpi\n      mload(0x40)\n      0x08c379a000000000000000000000000000000000000000000000000000000000\n      dup2\n      mstore\n      0x04\n      add\n      tag_71\n      swap1\n      tag_59\n      jump\t// in\n    tag_71:\n      mload(0x40)\n      dup1\n      swap2\n      sub\n      swap1\n      revert\n    tag_70:\n        /* \"contracts/\\xe2\\x80\\x8eWhiteList.sol\":2164:2165  0 */\n      0x00\n        /* \"contracts/\\xe2\\x80\\x8eWhiteList.sol\":2145:2166  account != address(0) */\n      0xffffffffffffffffffffffffffffffffffffffff\n      and\n        /* \"contracts/\\xe2\\x80\\x8eWhiteList.sol\":2145:2152  account */\n      dup2\n        /* \"contracts/\\xe2\\x80\\x8eWhiteList.sol\":2145:2166  account != address(0) */\n      0xffffffffffffffffffffffffffffffffffffffff\n      and\n      sub\n        /* \"contracts/\\xe2\\x80\\x8eWhiteList.sol\":2137:2194  require(account != address(0), \"Cannot add zero address\") */\n      tag_73\n      jumpi\n      mload(0x40)\n      0x08c379a000000000000000000000000000000000000000000000000000000000\n      dup2\n      mstore\n      0x04\n      add\n      tag_74\n      swap1\n      tag_75\n      jump\t// in\n    tag_74:\n      mload(0x40)\n      dup1\n      swap2\n      sub\n      swap1\n      revert\n    tag_73:\n        /* \"contracts/\\xe2\\x80\\x8eWhiteList.sol\":2212:2234  whitelist.add(account) */\n      tag_76\n        /* \"contracts/\\xe2\\x80\\x8eWhiteList.sol\":2226:2233  account */\n      dup2\n        /* \"contracts/\\xe2\\x80\\x8eWhiteList.sol\":2212:2221  whitelist */\n      0x00\n        /* \"contracts/\\xe2\\x80\\x8eWhiteList.sol\":2212:2225  whitelist.add */\n      tag_77\n      swap1\n        /* \"contracts/\\xe2\\x80\\x8eWhiteList.sol\":2212:2234  whitelist.add(account) */\n      swap2\n      swap1\n      0xffffffff\n      and\n      jump\t// in\n    tag_76:\n        /* \"contracts/\\xe2\\x80\\x8eWhiteList.sol\":2204:2267  require(whitelist.add(account), \"Address already in whitelist\") */\n      tag_78\n      jumpi\n      mload(0x40)\n      0x08c379a000000000000000000000000000000000000000000000000000000000\n      dup2\n      mstore\n      0x04\n      add\n      tag_79\n      swap1\n      tag_80\n      jump\t// in\n    tag_79:\n      mload(0x40)\n      dup1\n      swap2\n      sub\n      swap1\n      revert\n    tag_78:\n        /* \"contracts/\\xe2\\x80\\x8eWhiteList.sol\":2299:2306  account */\n      dup1\n        /* \"contracts/\\xe2\\x80\\x8eWhiteList.sol\":2282:2307  AddedToWhitelist(account) */\n      0xffffffffffffffffffffffffffffffffffffffff\n      and\n      0xa850ae9193f515cbae8d35e8925bd2be26627fc91bce650b8652ed254e9cab03\n      mload(0x40)\n      mload(0x40)\n      dup1\n      swap2\n      sub\n      swap1\n      log2\n        /* \"contracts/\\xe2\\x80\\x8eWhiteList.sol\":2069:2314  function addToWhitelist(address account) public onlyOwner {... */\n      pop\n      jump\t// out\n        /* \"contracts/\\xe2\\x80\\x8eWhiteList.sol\":3025:3335  function getAllWhitelistAddresses() public view returns (address[] memory) {... */\n    tag_42:\n        /* \"contracts/\\xe2\\x80\\x8eWhiteList.sol\":3082:3098  address[] memory */\n      0x60\n        /* \"contracts/\\xe2\\x80\\x8eWhiteList.sol\":3110:3122  uint256 size */\n      0x00\n        /* \"contracts/\\xe2\\x80\\x8eWhiteList.sol\":3125:3143  whitelist.length() */\n      tag_82\n        /* \"contracts/\\xe2\\x80\\x8eWhiteList.sol\":3125:3134  whitelist */\n      0x00\n        /* \"contracts/\\xe2\\x80\\x8eWhiteList.sol\":3125:3141  whitelist.length */\n      tag_68\n        /* \"contracts/\\xe2\\x80\\x8eWhiteList.sol\":3125:3143  whitelist.length() */\n      jump\t// in\n    tag_82:\n        /* \"contracts/\\xe2\\x80\\x8eWhiteList.sol\":3110:3143  uint256 size = whitelist.length() */\n      swap1\n      pop\n        /* \"contracts/\\xe2\\x80\\x8eWhiteList.sol\":3153:3179  address[] memory addresses */\n      0x00\n        /* \"contracts/\\xe2\\x80\\x8eWhiteList.sol\":3196:3200  size */\n      dup2\n        /* \"contracts/\\xe2\\x80\\x8eWhiteList.sol\":3182:3201  new address[](size) */\n      0xffffffffffffffff\n      dup2\n      gt\n      iszero\n      tag_83\n      jumpi\n      tag_84\n      tag_85\n      jump\t// in\n    tag_84:\n    tag_83:\n      mload(0x40)\n      swap1\n      dup1\n      dup3\n      mstore\n      dup1\n      0x20\n      mul\n      0x20\n      add\n      dup3\n      add\n      0x40\n      mstore\n      dup1\n      iszero\n      tag_86\n      jumpi\n      dup2\n      0x20\n      add\n      0x20\n      dup3\n      mul\n      dup1\n      calldatasize\n      dup4\n      calldatacopy\n      dup1\n      dup3\n      add\n      swap2\n      pop\n      pop\n      swap1\n      pop\n    tag_86:\n      pop\n        /* \"contracts/\\xe2\\x80\\x8eWhiteList.sol\":3153:3201  address[] memory addresses = new address[](size) */\n      swap1\n      pop\n        /* \"contracts/\\xe2\\x80\\x8eWhiteList.sol\":3217:3226  uint256 i */\n      0x00\n        /* \"contracts/\\xe2\\x80\\x8eWhiteList.sol\":3229:3230  0 */\n      0x00\n        /* \"contracts/\\xe2\\x80\\x8eWhiteList.sol\":3217:3230  uint256 i = 0 */\n      swap1\n      pop\n        /* \"contracts/\\xe2\\x80\\x8eWhiteList.sol\":3212:3302  for (uint256 i = 0; i < size; i++) {... */\n    tag_87:\n        /* \"contracts/\\xe2\\x80\\x8eWhiteList.sol\":3236:3240  size */\n      dup3\n        /* \"contracts/\\xe2\\x80\\x8eWhiteList.sol\":3232:3233  i */\n      dup2\n        /* \"contracts/\\xe2\\x80\\x8eWhiteList.sol\":3232:3240  i < size */\n      lt\n        /* \"contracts/\\xe2\\x80\\x8eWhiteList.sol\":3212:3302  for (uint256 i = 0; i < size; i++) {... */\n      iszero\n      tag_88\n      jumpi\n        /* \"contracts/\\xe2\\x80\\x8eWhiteList.sol\":3276:3291  whitelist.at(i) */\n      tag_90\n        /* \"contracts/\\xe2\\x80\\x8eWhiteList.sol\":3289:3290  i */\n      dup2\n        /* \"contracts/\\xe2\\x80\\x8eWhiteList.sol\":3276:3285  whitelist */\n      0x00\n        /* \"contracts/\\xe2\\x80\\x8eWhiteList.sol\":3276:3288  whitelist.at */\n      tag_50\n      swap1\n        /* \"contracts/\\xe2\\x80\\x8eWhiteList.sol\":3276:3291  whitelist.at(i) */\n      swap2\n      swap1\n      0xffffffff\n      and\n      jump\t// in\n    tag_90:\n        /* \"contracts/\\xe2\\x80\\x8eWhiteList.sol\":3261:3270  addresses */\n      dup3\n        /* \"contracts/\\xe2\\x80\\x8eWhiteList.sol\":3271:3272  i */\n      dup3\n        /* \"contracts/\\xe2\\x80\\x8eWhiteList.sol\":3261:3273  addresses[i] */\n      dup2\n      mload\n      dup2\n      lt\n      tag_91\n      jumpi\n      tag_92\n      tag_93\n      jump\t// in\n    tag_92:\n    tag_91:\n      0x20\n      mul\n      0x20\n      add\n      add\n        /* \"contracts/\\xe2\\x80\\x8eWhiteList.sol\":3261:3291  addresses[i] = whitelist.at(i) */\n      swap1\n      0xffffffffffffffffffffffffffffffffffffffff\n      and\n      swap1\n      dup2\n      0xffffffffffffffffffffffffffffffffffffffff\n      and\n      dup2\n      mstore\n      pop\n      pop\n        /* \"contracts/\\xe2\\x80\\x8eWhiteList.sol\":3242:3245  i++ */\n      dup1\n      dup1\n      0x01\n      add\n      swap2\n      pop\n      pop\n        /* \"contracts/\\xe2\\x80\\x8eWhiteList.sol\":3212:3302  for (uint256 i = 0; i < size; i++) {... */\n      jump(tag_87)\n    tag_88:\n      pop\n        /* \"contracts/\\xe2\\x80\\x8eWhiteList.sol\":3319:3328  addresses */\n      dup1\n        /* \"contracts/\\xe2\\x80\\x8eWhiteList.sol\":3312:3328  return addresses */\n      swap3\n      pop\n      pop\n      pop\n        /* \"contracts/\\xe2\\x80\\x8eWhiteList.sol\":3025:3335  function getAllWhitelistAddresses() public view returns (address[] memory) {... */\n      swap1\n      jump\t// out\n        /* \"contracts/\\xe2\\x80\\x8eWhiteList.sol\":1093:1241  function contains(... */\n    tag_47:\n        /* \"contracts/\\xe2\\x80\\x8eWhiteList.sol\":1188:1192  bool */\n      0x00\n        /* \"contracts/\\xe2\\x80\\x8eWhiteList.sol\":1233:1234  0 */\n      0x00\n        /* \"contracts/\\xe2\\x80\\x8eWhiteList.sol\":1211:1214  set */\n      dup4\n        /* \"contracts/\\xe2\\x80\\x8eWhiteList.sol\":1211:1222  set.indexes */\n      0x01\n      add\n        /* \"contracts/\\xe2\\x80\\x8eWhiteList.sol\":1211:1229  set.indexes[value] */\n      0x00\n        /* \"contracts/\\xe2\\x80\\x8eWhiteList.sol\":1223:1228  value */\n      dup5\n        /* \"contracts/\\xe2\\x80\\x8eWhiteList.sol\":1211:1229  set.indexes[value] */\n      0xffffffffffffffffffffffffffffffffffffffff\n      and\n      0xffffffffffffffffffffffffffffffffffffffff\n      and\n      dup2\n      mstore\n      0x20\n      add\n      swap1\n      dup2\n      mstore\n      0x20\n      add\n      0x00\n      keccak256\n      sload\n        /* \"contracts/\\xe2\\x80\\x8eWhiteList.sol\":1211:1234  set.indexes[value] != 0 */\n      eq\n      iszero\n        /* \"contracts/\\xe2\\x80\\x8eWhiteList.sol\":1204:1234  return set.indexes[value] != 0 */\n      swap1\n      pop\n        /* \"contracts/\\xe2\\x80\\x8eWhiteList.sol\":1093:1241  function contains(... */\n      swap3\n      swap2\n      pop\n      pop\n      jump\t// out\n        /* \"contracts/\\xe2\\x80\\x8eWhiteList.sol\":1411:1629  function at(... */\n    tag_50:\n        /* \"contracts/\\xe2\\x80\\x8eWhiteList.sol\":1500:1507  address */\n      0x00\n        /* \"contracts/\\xe2\\x80\\x8eWhiteList.sol\":1535:1538  set */\n      dup3\n        /* \"contracts/\\xe2\\x80\\x8eWhiteList.sol\":1535:1545  set.values */\n      0x00\n      add\n        /* \"contracts/\\xe2\\x80\\x8eWhiteList.sol\":1535:1552  set.values.length */\n      dup1\n      sload\n      swap1\n      pop\n        /* \"contracts/\\xe2\\x80\\x8eWhiteList.sol\":1527:1532  index */\n      dup3\n        /* \"contracts/\\xe2\\x80\\x8eWhiteList.sol\":1527:1552  index < set.values.length */\n      lt\n        /* \"contracts/\\xe2\\x80\\x8eWhiteList.sol\":1519:1588  require(index < set.values.length, \"AddressSet: index out of bounds\") */\n      tag_96\n      jumpi\n      mload(0x40)\n      0x08c379a000000000000000000000000000000000000000000000000000000000\n      dup2\n      mstore\n      0x04\n      add\n      tag_97\n      swap1\n      tag_98\n      jump\t// in\n    tag_97:\n      mload(0x40)\n      dup1\n      swap2\n      sub\n      swap1\n      revert\n    tag_96:\n        /* \"contracts/\\xe2\\x80\\x8eWhiteList.sol\":1605:1608  set */\n      dup3\n        /* \"contracts/\\xe2\\x80\\x8eWhiteList.sol\":1605:1615  set.values */\n      0x00\n      add\n        /* \"contracts/\\xe2\\x80\\x8eWhiteList.sol\":1616:1621  index */\n      dup3\n        /* \"contracts/\\xe2\\x80\\x8eWhiteList.sol\":1605:1622  set.values[index] */\n      dup2\n      sload\n      dup2\n      lt\n      tag_99\n      jumpi\n      tag_100\n      tag_93\n      jump\t// in\n    tag_100:\n    tag_99:\n      swap1\n      0x00\n      mstore\n      keccak256(0x00, 0x20)\n      add\n      0x00\n      swap1\n      sload\n      swap1\n      0x0100\n      exp\n      swap1\n      div\n      0xffffffffffffffffffffffffffffffffffffffff\n      and\n        /* \"contracts/\\xe2\\x80\\x8eWhiteList.sol\":1598:1622  return set.values[index] */\n      swap1\n      pop\n        /* \"contracts/\\xe2\\x80\\x8eWhiteList.sol\":1411:1629  function at(... */\n      swap3\n      swap2\n      pop\n      pop\n      jump\t// out\n        /* \"contracts/\\xe2\\x80\\x8eWhiteList.sol\":493:1061  function remove(Set storage set, address value) internal returns (bool) {... */\n    tag_62:\n        /* \"contracts/\\xe2\\x80\\x8eWhiteList.sol\":559:563  bool */\n      0x00\n        /* \"contracts/\\xe2\\x80\\x8eWhiteList.sol\":575:588  uint256 index */\n      0x00\n        /* \"contracts/\\xe2\\x80\\x8eWhiteList.sol\":591:594  set */\n      dup4\n        /* \"contracts/\\xe2\\x80\\x8eWhiteList.sol\":591:602  set.indexes */\n      0x01\n      add\n        /* \"contracts/\\xe2\\x80\\x8eWhiteList.sol\":591:609  set.indexes[value] */\n      0x00\n        /* \"contracts/\\xe2\\x80\\x8eWhiteList.sol\":603:608  value */\n      dup5\n        /* \"contracts/\\xe2\\x80\\x8eWhiteList.sol\":591:609  set.indexes[value] */\n      0xffffffffffffffffffffffffffffffffffffffff\n      and\n      0xffffffffffffffffffffffffffffffffffffffff\n      and\n      dup2\n      mstore\n      0x20\n      add\n      swap1\n      dup2\n      mstore\n      0x20\n      add\n      0x00\n      keccak256\n      sload\n        /* \"contracts/\\xe2\\x80\\x8eWhiteList.sol\":575:609  uint256 index = set.indexes[value] */\n      swap1\n      pop\n        /* \"contracts/\\xe2\\x80\\x8eWhiteList.sol\":633:634  0 */\n      0x00\n        /* \"contracts/\\xe2\\x80\\x8eWhiteList.sol\":624:629  index */\n      dup2\n        /* \"contracts/\\xe2\\x80\\x8eWhiteList.sol\":624:634  index == 0 */\n      sub\n        /* \"contracts/\\xe2\\x80\\x8eWhiteList.sol\":620:673  if (index == 0) {... */\n      tag_103\n      jumpi\n        /* \"contracts/\\xe2\\x80\\x8eWhiteList.sol\":657:662  false */\n      0x00\n        /* \"contracts/\\xe2\\x80\\x8eWhiteList.sol\":650:662  return false */\n      swap2\n      pop\n      pop\n      jump(tag_102)\n        /* \"contracts/\\xe2\\x80\\x8eWhiteList.sol\":620:673  if (index == 0) {... */\n    tag_103:\n        /* \"contracts/\\xe2\\x80\\x8eWhiteList.sol\":683:704  uint256 toDeleteIndex */\n      0x00\n        /* \"contracts/\\xe2\\x80\\x8eWhiteList.sol\":715:716  1 */\n      0x01\n        /* \"contracts/\\xe2\\x80\\x8eWhiteList.sol\":707:712  index */\n      dup3\n        /* \"contracts/\\xe2\\x80\\x8eWhiteList.sol\":707:716  index - 1 */\n      tag_104\n      swap2\n      swap1\n      tag_105\n      jump\t// in\n    tag_104:\n        /* \"contracts/\\xe2\\x80\\x8eWhiteList.sol\":683:716  uint256 toDeleteIndex = index - 1 */\n      swap1\n      pop\n        /* \"contracts/\\xe2\\x80\\x8eWhiteList.sol\":726:743  uint256 lastIndex */\n      0x00\n        /* \"contracts/\\xe2\\x80\\x8eWhiteList.sol\":766:767  1 */\n      0x01\n        /* \"contracts/\\xe2\\x80\\x8eWhiteList.sol\":746:749  set */\n      dup7\n        /* \"contracts/\\xe2\\x80\\x8eWhiteList.sol\":746:756  set.values */\n      0x00\n      add\n        /* \"contracts/\\xe2\\x80\\x8eWhiteList.sol\":746:763  set.values.length */\n      dup1\n      sload\n      swap1\n      pop\n        /* \"contracts/\\xe2\\x80\\x8eWhiteList.sol\":746:767  set.values.length - 1 */\n      tag_106\n      swap2\n      swap1\n      tag_105\n      jump\t// in\n    tag_106:\n        /* \"contracts/\\xe2\\x80\\x8eWhiteList.sol\":726:767  uint256 lastIndex = set.values.length - 1 */\n      swap1\n      pop\n        /* \"contracts/\\xe2\\x80\\x8eWhiteList.sol\":799:808  lastIndex */\n      dup1\n        /* \"contracts/\\xe2\\x80\\x8eWhiteList.sol\":782:795  toDeleteIndex */\n      dup3\n        /* \"contracts/\\xe2\\x80\\x8eWhiteList.sol\":782:808  toDeleteIndex != lastIndex */\n      eq\n        /* \"contracts/\\xe2\\x80\\x8eWhiteList.sol\":778:971  if (toDeleteIndex != lastIndex) {... */\n      tag_107\n      jumpi\n        /* \"contracts/\\xe2\\x80\\x8eWhiteList.sol\":824:841  address lastValue */\n      0x00\n        /* \"contracts/\\xe2\\x80\\x8eWhiteList.sol\":844:847  set */\n      dup7\n        /* \"contracts/\\xe2\\x80\\x8eWhiteList.sol\":844:854  set.values */\n      0x00\n      add\n        /* \"contracts/\\xe2\\x80\\x8eWhiteList.sol\":855:864  lastIndex */\n      dup3\n        /* \"contracts/\\xe2\\x80\\x8eWhiteList.sol\":844:865  set.values[lastIndex] */\n      dup2\n      sload\n      dup2\n      lt\n      tag_108\n      jumpi\n      tag_109\n      tag_93\n      jump\t// in\n    tag_109:\n    tag_108:\n      swap1\n      0x00\n      mstore\n      keccak256(0x00, 0x20)\n      add\n      0x00\n      swap1\n      sload\n      swap1\n      0x0100\n      exp\n      swap1\n      div\n      0xffffffffffffffffffffffffffffffffffffffff\n      and\n        /* \"contracts/\\xe2\\x80\\x8eWhiteList.sol\":824:865  address lastValue = set.values[lastIndex] */\n      swap1\n      pop\n        /* \"contracts/\\xe2\\x80\\x8eWhiteList.sol\":907:916  lastValue */\n      dup1\n        /* \"contracts/\\xe2\\x80\\x8eWhiteList.sol\":879:882  set */\n      dup8\n        /* \"contracts/\\xe2\\x80\\x8eWhiteList.sol\":879:889  set.values */\n      0x00\n      add\n        /* \"contracts/\\xe2\\x80\\x8eWhiteList.sol\":890:903  toDeleteIndex */\n      dup5\n        /* \"contracts/\\xe2\\x80\\x8eWhiteList.sol\":879:904  set.values[toDeleteIndex] */\n      dup2\n      sload\n      dup2\n      lt\n      tag_111\n      jumpi\n      tag_112\n      tag_93\n      jump\t// in\n    tag_112:\n    tag_111:\n      swap1\n      0x00\n      mstore\n      keccak256(0x00, 0x20)\n      add\n      0x00\n        /* \"contracts/\\xe2\\x80\\x8eWhiteList.sol\":879:916  set.values[toDeleteIndex] = lastValue */\n      0x0100\n      exp\n      dup2\n      sload\n      dup2\n      0xffffffffffffffffffffffffffffffffffffffff\n      mul\n      not\n      and\n      swap1\n      dup4\n      0xffffffffffffffffffffffffffffffffffffffff\n      and\n      mul\n      or\n      swap1\n      sstore\n      pop\n        /* \"contracts/\\xe2\\x80\\x8eWhiteList.sol\":955:960  index */\n      dup4\n        /* \"contracts/\\xe2\\x80\\x8eWhiteList.sol\":930:933  set */\n      dup8\n        /* \"contracts/\\xe2\\x80\\x8eWhiteList.sol\":930:941  set.indexes */\n      0x01\n      add\n        /* \"contracts/\\xe2\\x80\\x8eWhiteList.sol\":930:952  set.indexes[lastValue] */\n      0x00\n        /* \"contracts/\\xe2\\x80\\x8eWhiteList.sol\":942:951  lastValue */\n      dup4\n        /* \"contracts/\\xe2\\x80\\x8eWhiteList.sol\":930:952  set.indexes[lastValue] */\n      0xffffffffffffffffffffffffffffffffffffffff\n      and\n      0xffffffffffffffffffffffffffffffffffffffff\n      and\n      dup2\n      mstore\n      0x20\n      add\n      swap1\n      dup2\n      mstore\n      0x20\n      add\n      0x00\n      keccak256\n        /* \"contracts/\\xe2\\x80\\x8eWhiteList.sol\":930:960  set.indexes[lastValue] = index */\n      dup2\n      swap1\n      sstore\n      pop\n        /* \"contracts/\\xe2\\x80\\x8eWhiteList.sol\":810:971  {... */\n      pop\n        /* \"contracts/\\xe2\\x80\\x8eWhiteList.sol\":778:971  if (toDeleteIndex != lastIndex) {... */\n    tag_107:\n        /* \"contracts/\\xe2\\x80\\x8eWhiteList.sol\":981:984  set */\n      dup6\n        /* \"contracts/\\xe2\\x80\\x8eWhiteList.sol\":981:991  set.values */\n      0x00\n      add\n        /* \"contracts/\\xe2\\x80\\x8eWhiteList.sol\":981:997  set.values.pop() */\n      dup1\n      sload\n      dup1\n      tag_114\n      jumpi\n      tag_115\n      tag_116\n      jump\t// in\n    tag_115:\n    tag_114:\n      0x01\n      swap1\n      sub\n      dup2\n      dup2\n      swap1\n      0x00\n      mstore\n      keccak256(0x00, 0x20)\n      add\n      exp(0x0100, 0x00)\n      dup2\n      sload\n      swap1\n      0xffffffffffffffffffffffffffffffffffffffff\n      mul\n      not\n      and\n      swap1\n      sstore\n      swap1\n      sstore\n        /* \"contracts/\\xe2\\x80\\x8eWhiteList.sol\":1014:1017  set */\n      dup6\n        /* \"contracts/\\xe2\\x80\\x8eWhiteList.sol\":1014:1025  set.indexes */\n      0x01\n      add\n        /* \"contracts/\\xe2\\x80\\x8eWhiteList.sol\":1014:1032  set.indexes[value] */\n      0x00\n        /* \"contracts/\\xe2\\x80\\x8eWhiteList.sol\":1026:1031  value */\n      dup7\n        /* \"contracts/\\xe2\\x80\\x8eWhiteList.sol\":1014:1032  set.indexes[value] */\n      0xffffffffffffffffffffffffffffffffffffffff\n      and\n      0xffffffffffffffffffffffffffffffffffffffff\n      and\n      dup2\n      mstore\n      0x20\n      add\n      swap1\n      dup2\n      mstore\n      0x20\n      add\n      0x00\n      keccak256\n        /* \"contracts/\\xe2\\x80\\x8eWhiteList.sol\":1007:1032  delete set.indexes[value] */\n      0x00\n      swap1\n      sstore\n        /* \"contracts/\\xe2\\x80\\x8eWhiteList.sol\":1050:1054  true */\n      0x01\n        /* \"contracts/\\xe2\\x80\\x8eWhiteList.sol\":1043:1054  return true */\n      swap4\n      pop\n      pop\n      pop\n      pop\n        /* \"contracts/\\xe2\\x80\\x8eWhiteList.sol\":493:1061  function remove(Set storage set, address value) internal returns (bool) {... */\n    tag_102:\n      swap3\n      swap2\n      pop\n      pop\n      jump\t// out\n        /* \"contracts/\\xe2\\x80\\x8eWhiteList.sol\":1267:1373  function length(Set storage set) internal view returns (uint256) {... */\n    tag_68:\n        /* \"contracts/\\xe2\\x80\\x8eWhiteList.sol\":1323:1330  uint256 */\n      0x00\n        /* \"contracts/\\xe2\\x80\\x8eWhiteList.sol\":1349:1352  set */\n      dup2\n        /* \"contracts/\\xe2\\x80\\x8eWhiteList.sol\":1349:1359  set.values */\n      0x00\n      add\n        /* \"contracts/\\xe2\\x80\\x8eWhiteList.sol\":1349:1366  set.values.length */\n      dup1\n      sload\n      swap1\n      pop\n        /* \"contracts/\\xe2\\x80\\x8eWhiteList.sol\":1342:1366  return set.values.length */\n      swap1\n      pop\n        /* \"contracts/\\xe2\\x80\\x8eWhiteList.sol\":1267:1373  function length(Set storage set) internal view returns (uint256) {... */\n      swap2\n      swap1\n      pop\n      jump\t// out\n        /* \"contracts/\\xe2\\x80\\x8eWhiteList.sol\":217:467  function add(Set storage set, address value) internal returns (bool) {... */\n    tag_77:\n        /* \"contracts/\\xe2\\x80\\x8eWhiteList.sol\":280:284  bool */\n      0x00\n        /* \"contracts/\\xe2\\x80\\x8eWhiteList.sol\":300:320  contains(set, value) */\n      tag_120\n        /* \"contracts/\\xe2\\x80\\x8eWhiteList.sol\":309:312  set */\n      dup4\n        /* \"contracts/\\xe2\\x80\\x8eWhiteList.sol\":314:319  value */\n      dup4\n        /* \"contracts/\\xe2\\x80\\x8eWhiteList.sol\":300:308  contains */\n      tag_47\n        /* \"contracts/\\xe2\\x80\\x8eWhiteList.sol\":300:320  contains(set, value) */\n      jump\t// in\n    tag_120:\n        /* \"contracts/\\xe2\\x80\\x8eWhiteList.sol\":296:359  if (contains(set, value)) {... */\n      iszero\n      tag_121\n      jumpi\n        /* \"contracts/\\xe2\\x80\\x8eWhiteList.sol\":343:348  false */\n      0x00\n        /* \"contracts/\\xe2\\x80\\x8eWhiteList.sol\":336:348  return false */\n      swap1\n      pop\n      jump(tag_119)\n        /* \"contracts/\\xe2\\x80\\x8eWhiteList.sol\":296:359  if (contains(set, value)) {... */\n    tag_121:\n        /* \"contracts/\\xe2\\x80\\x8eWhiteList.sol\":369:372  set */\n      dup3\n        /* \"contracts/\\xe2\\x80\\x8eWhiteList.sol\":369:379  set.values */\n      0x00\n      add\n        /* \"contracts/\\xe2\\x80\\x8eWhiteList.sol\":385:390  value */\n      dup3\n        /* \"contracts/\\xe2\\x80\\x8eWhiteList.sol\":369:391  set.values.push(value) */\n      swap1\n      dup1\n      0x01\n      dup2\n      sload\n      add\n      dup1\n      dup3\n      sstore\n      dup1\n      swap2\n      pop\n      pop\n      0x01\n      swap1\n      sub\n      swap1\n      0x00\n      mstore\n      keccak256(0x00, 0x20)\n      add\n      0x00\n      swap1\n      swap2\n      swap1\n      swap2\n      swap1\n      swap2\n      0x0100\n      exp\n      dup2\n      sload\n      dup2\n      0xffffffffffffffffffffffffffffffffffffffff\n      mul\n      not\n      and\n      swap1\n      dup4\n      0xffffffffffffffffffffffffffffffffffffffff\n      and\n      mul\n      or\n      swap1\n      sstore\n      pop\n        /* \"contracts/\\xe2\\x80\\x8eWhiteList.sol\":422:425  set */\n      dup3\n        /* \"contracts/\\xe2\\x80\\x8eWhiteList.sol\":422:432  set.values */\n      0x00\n      add\n        /* \"contracts/\\xe2\\x80\\x8eWhiteList.sol\":422:439  set.values.length */\n      dup1\n      sload\n      swap1\n      pop\n        /* \"contracts/\\xe2\\x80\\x8eWhiteList.sol\":401:404  set */\n      dup4\n        /* \"contracts/\\xe2\\x80\\x8eWhiteList.sol\":401:412  set.indexes */\n      0x01\n      add\n        /* \"contracts/\\xe2\\x80\\x8eWhiteList.sol\":401:419  set.indexes[value] */\n      0x00\n        /* \"contracts/\\xe2\\x80\\x8eWhiteList.sol\":413:418  value */\n      dup5\n        /* \"contracts/\\xe2\\x80\\x8eWhiteList.sol\":401:419  set.indexes[value] */\n      0xffffffffffffffffffffffffffffffffffffffff\n      and\n      0xffffffffffffffffffffffffffffffffffffffff\n      and\n      dup2\n      mstore\n      0x20\n      add\n      swap1\n      dup2\n      mstore\n      0x20\n      add\n      0x00\n      keccak256\n        /* \"contracts/\\xe2\\x80\\x8eWhiteList.sol\":401:439  set.indexes[value] = set.values.length */\n      dup2\n      swap1\n      sstore\n      pop\n        /* \"contracts/\\xe2\\x80\\x8eWhiteList.sol\":456:460  true */\n      0x01\n        /* \"contracts/\\xe2\\x80\\x8eWhiteList.sol\":449:460  return true */\n      swap1\n      pop\n        /* \"contracts/\\xe2\\x80\\x8eWhiteList.sol\":217:467  function add(Set storage set, address value) internal returns (bool) {... */\n    tag_119:\n      swap3\n      swap2\n      pop\n      pop\n      jump\t// out\n        /* \"#utility.yul\":88:205   */\n    tag_124:\n        /* \"#utility.yul\":197:198   */\n      0x00\n        /* \"#utility.yul\":194:195   */\n      0x00\n        /* \"#utility.yul\":187:199   */\n      revert\n        /* \"#utility.yul\":334:460   */\n    tag_126:\n        /* \"#utility.yul\":371:378   */\n      0x00\n        /* \"#utility.yul\":411:453   */\n      0xffffffffffffffffffffffffffffffffffffffff\n        /* \"#utility.yul\":404:409   */\n      dup3\n        /* \"#utility.yul\":400:454   */\n      and\n        /* \"#utility.yul\":389:454   */\n      swap1\n      pop\n        /* \"#utility.yul\":334:460   */\n      swap2\n      swap1\n      pop\n      jump\t// out\n        /* \"#utility.yul\":466:562   */\n    tag_127:\n        /* \"#utility.yul\":503:510   */\n      0x00\n        /* \"#utility.yul\":532:556   */\n      tag_168\n        /* \"#utility.yul\":550:555   */\n      dup3\n        /* \"#utility.yul\":532:556   */\n      tag_126\n      jump\t// in\n    tag_168:\n        /* \"#utility.yul\":521:556   */\n      swap1\n      pop\n        /* \"#utility.yul\":466:562   */\n      swap2\n      swap1\n      pop\n      jump\t// out\n        /* \"#utility.yul\":568:690   */\n    tag_128:\n        /* \"#utility.yul\":641:665   */\n      tag_170\n        /* \"#utility.yul\":659:664   */\n      dup2\n        /* \"#utility.yul\":641:665   */\n      tag_127\n      jump\t// in\n    tag_170:\n        /* \"#utility.yul\":634:639   */\n      dup2\n        /* \"#utility.yul\":631:666   */\n      eq\n        /* \"#utility.yul\":621:684   */\n      tag_171\n      jumpi\n        /* \"#utility.yul\":680:681   */\n      0x00\n        /* \"#utility.yul\":677:678   */\n      0x00\n        /* \"#utility.yul\":670:682   */\n      revert\n        /* \"#utility.yul\":621:684   */\n    tag_171:\n        /* \"#utility.yul\":568:690   */\n      pop\n      jump\t// out\n        /* \"#utility.yul\":696:835   */\n    tag_129:\n        /* \"#utility.yul\":742:747   */\n      0x00\n        /* \"#utility.yul\":780:786   */\n      dup2\n        /* \"#utility.yul\":767:787   */\n      calldataload\n        /* \"#utility.yul\":758:787   */\n      swap1\n      pop\n        /* \"#utility.yul\":796:829   */\n      tag_173\n        /* \"#utility.yul\":823:828   */\n      dup2\n        /* \"#utility.yul\":796:829   */\n      tag_128\n      jump\t// in\n    tag_173:\n        /* \"#utility.yul\":696:835   */\n      swap3\n      swap2\n      pop\n      pop\n      jump\t// out\n        /* \"#utility.yul\":841:1170   */\n    tag_14:\n        /* \"#utility.yul\":900:906   */\n      0x00\n        /* \"#utility.yul\":949:951   */\n      0x20\n        /* \"#utility.yul\":937:946   */\n      dup3\n        /* \"#utility.yul\":928:935   */\n      dup5\n        /* \"#utility.yul\":924:947   */\n      sub\n        /* \"#utility.yul\":920:952   */\n      slt\n        /* \"#utility.yul\":917:1036   */\n      iszero\n      tag_175\n      jumpi\n        /* \"#utility.yul\":955:1034   */\n      tag_176\n      tag_124\n      jump\t// in\n    tag_176:\n        /* \"#utility.yul\":917:1036   */\n    tag_175:\n        /* \"#utility.yul\":1075:1076   */\n      0x00\n        /* \"#utility.yul\":1100:1153   */\n      tag_177\n        /* \"#utility.yul\":1145:1152   */\n      dup5\n        /* \"#utility.yul\":1136:1142   */\n      dup3\n        /* \"#utility.yul\":1125:1134   */\n      dup6\n        /* \"#utility.yul\":1121:1143   */\n      add\n        /* \"#utility.yul\":1100:1153   */\n      tag_129\n      jump\t// in\n    tag_177:\n        /* \"#utility.yul\":1090:1153   */\n      swap2\n      pop\n        /* \"#utility.yul\":1046:1163   */\n      pop\n        /* \"#utility.yul\":841:1170   */\n      swap3\n      swap2\n      pop\n      pop\n      jump\t// out\n        /* \"#utility.yul\":1176:1266   */\n    tag_130:\n        /* \"#utility.yul\":1210:1217   */\n      0x00\n        /* \"#utility.yul\":1253:1258   */\n      dup2\n        /* \"#utility.yul\":1246:1259   */\n      iszero\n        /* \"#utility.yul\":1239:1260   */\n      iszero\n        /* \"#utility.yul\":1228:1260   */\n      swap1\n      pop\n        /* \"#utility.yul\":1176:1266   */\n      swap2\n      swap1\n      pop\n      jump\t// out\n        /* \"#utility.yul\":1272:1381   */\n    tag_131:\n        /* \"#utility.yul\":1353:1374   */\n      tag_180\n        /* \"#utility.yul\":1368:1373   */\n      dup2\n        /* \"#utility.yul\":1353:1374   */\n      tag_130\n      jump\t// in\n    tag_180:\n        /* \"#utility.yul\":1348:1351   */\n      dup3\n        /* \"#utility.yul\":1341:1375   */\n      mstore\n        /* \"#utility.yul\":1272:1381   */\n      pop\n      pop\n      jump\t// out\n        /* \"#utility.yul\":1387:1597   */\n    tag_17:\n        /* \"#utility.yul\":1474:1478   */\n      0x00\n        /* \"#utility.yul\":1512:1514   */\n      0x20\n        /* \"#utility.yul\":1501:1510   */\n      dup3\n        /* \"#utility.yul\":1497:1515   */\n      add\n        /* \"#utility.yul\":1489:1515   */\n      swap1\n      pop\n        /* \"#utility.yul\":1525:1590   */\n      tag_182\n        /* \"#utility.yul\":1587:1588   */\n      0x00\n        /* \"#utility.yul\":1576:1585   */\n      dup4\n        /* \"#utility.yul\":1572:1589   */\n      add\n        /* \"#utility.yul\":1563:1569   */\n      dup5\n        /* \"#utility.yul\":1525:1590   */\n      tag_131\n      jump\t// in\n    tag_182:\n        /* \"#utility.yul\":1387:1597   */\n      swap3\n      swap2\n      pop\n      pop\n      jump\t// out\n        /* \"#utility.yul\":1603:1680   */\n    tag_132:\n        /* \"#utility.yul\":1640:1647   */\n      0x00\n        /* \"#utility.yul\":1669:1674   */\n      dup2\n        /* \"#utility.yul\":1658:1674   */\n      swap1\n      pop\n        /* \"#utility.yul\":1603:1680   */\n      swap2\n      swap1\n      pop\n      jump\t// out\n        /* \"#utility.yul\":1686:1808   */\n    tag_133:\n        /* \"#utility.yul\":1759:1783   */\n      tag_185\n        /* \"#utility.yul\":1777:1782   */\n      dup2\n        /* \"#utility.yul\":1759:1783   */\n      tag_132\n      jump\t// in\n    tag_185:\n        /* \"#utility.yul\":1752:1757   */\n      dup2\n        /* \"#utility.yul\":1749:1784   */\n      eq\n        /* \"#utility.yul\":1739:1802   */\n      tag_186\n      jumpi\n        /* \"#utility.yul\":1798:1799   */\n      0x00\n        /* \"#utility.yul\":1795:1796   */\n      0x00\n        /* \"#utility.yul\":1788:1800   */\n      revert\n        /* \"#utility.yul\":1739:1802   */\n    tag_186:\n        /* \"#utility.yul\":1686:1808   */\n      pop\n      jump\t// out\n        /* \"#utility.yul\":1814:1953   */\n    tag_134:\n        /* \"#utility.yul\":1860:1865   */\n      0x00\n        /* \"#utility.yul\":1898:1904   */\n      dup2\n        /* \"#utility.yul\":1885:1905   */\n      calldataload\n        /* \"#utility.yul\":1876:1905   */\n      swap1\n      pop\n        /* \"#utility.yul\":1914:1947   */\n      tag_188\n        /* \"#utility.yul\":1941:1946   */\n      dup2\n        /* \"#utility.yul\":1914:1947   */\n      tag_133\n      jump\t// in\n    tag_188:\n        /* \"#utility.yul\":1814:1953   */\n      swap3\n      swap2\n      pop\n      pop\n      jump\t// out\n        /* \"#utility.yul\":1959:2288   */\n    tag_20:\n        /* \"#utility.yul\":2018:2024   */\n      0x00\n        /* \"#utility.yul\":2067:2069   */\n      0x20\n        /* \"#utility.yul\":2055:2064   */\n      dup3\n        /* \"#utility.yul\":2046:2053   */\n      dup5\n        /* \"#utility.yul\":2042:2065   */\n      sub\n        /* \"#utility.yul\":2038:2070   */\n      slt\n        /* \"#utility.yul\":2035:2154   */\n      iszero\n      tag_190\n      jumpi\n        /* \"#utility.yul\":2073:2152   */\n      tag_191\n      tag_124\n      jump\t// in\n    tag_191:\n        /* \"#utility.yul\":2035:2154   */\n    tag_190:\n        /* \"#utility.yul\":2193:2194   */\n      0x00\n        /* \"#utility.yul\":2218:2271   */\n      tag_192\n        /* \"#utility.yul\":2263:2270   */\n      dup5\n        /* \"#utility.yul\":2254:2260   */\n      dup3\n        /* \"#utility.yul\":2243:2252   */\n      dup6\n        /* \"#utility.yul\":2239:2261   */\n      add\n        /* \"#utility.yul\":2218:2271   */\n      tag_134\n      jump\t// in\n    tag_192:\n        /* \"#utility.yul\":2208:2271   */\n      swap2\n      pop\n        /* \"#utility.yul\":2164:2281   */\n      pop\n        /* \"#utility.yul\":1959:2288   */\n      swap3\n      swap2\n      pop\n      pop\n      jump\t// out\n        /* \"#utility.yul\":2294:2412   */\n    tag_135:\n        /* \"#utility.yul\":2381:2405   */\n      tag_194\n        /* \"#utility.yul\":2399:2404   */\n      dup2\n        /* \"#utility.yul\":2381:2405   */\n      tag_127\n      jump\t// in\n    tag_194:\n        /* \"#utility.yul\":2376:2379   */\n      dup3\n        /* \"#utility.yul\":2369:2406   */\n      mstore\n        /* \"#utility.yul\":2294:2412   */\n      pop\n      pop\n      jump\t// out\n        /* \"#utility.yul\":2418:2640   */\n    tag_23:\n        /* \"#utility.yul\":2511:2515   */\n      0x00\n        /* \"#utility.yul\":2549:2551   */\n      0x20\n        /* \"#utility.yul\":2538:2547   */\n      dup3\n        /* \"#utility.yul\":2534:2552   */\n      add\n        /* \"#utility.yul\":2526:2552   */\n      swap1\n      pop\n        /* \"#utility.yul\":2562:2633   */\n      tag_196\n        /* \"#utility.yul\":2630:2631   */\n      0x00\n        /* \"#utility.yul\":2619:2628   */\n      dup4\n        /* \"#utility.yul\":2615:2632   */\n      add\n        /* \"#utility.yul\":2606:2612   */\n      dup5\n        /* \"#utility.yul\":2562:2633   */\n      tag_135\n      jump\t// in\n    tag_196:\n        /* \"#utility.yul\":2418:2640   */\n      swap3\n      swap2\n      pop\n      pop\n      jump\t// out\n        /* \"#utility.yul\":2646:2745   */\n    tag_136:\n        /* \"#utility.yul\":2698:2704   */\n      0x00\n        /* \"#utility.yul\":2732:2737   */\n      dup2\n        /* \"#utility.yul\":2726:2738   */\n      mload\n        /* \"#utility.yul\":2716:2738   */\n      swap1\n      pop\n        /* \"#utility.yul\":2646:2745   */\n      swap2\n      swap1\n      pop\n      jump\t// out\n        /* \"#utility.yul\":2751:2920   */\n    tag_137:\n        /* \"#utility.yul\":2835:2846   */\n      0x00\n        /* \"#utility.yul\":2869:2875   */\n      dup3\n        /* \"#utility.yul\":2864:2867   */\n      dup3\n        /* \"#utility.yul\":2857:2876   */\n      mstore\n        /* \"#utility.yul\":2909:2913   */\n      0x20\n        /* \"#utility.yul\":2904:2907   */\n      dup3\n        /* \"#utility.yul\":2900:2914   */\n      add\n        /* \"#utility.yul\":2885:2914   */\n      swap1\n      pop\n        /* \"#utility.yul\":2751:2920   */\n      swap3\n      swap2\n      pop\n      pop\n      jump\t// out\n        /* \"#utility.yul\":2926:3065   */\n    tag_138:\n        /* \"#utility.yul\":3015:3021   */\n      dup3\n        /* \"#utility.yul\":3010:3013   */\n      dup2\n        /* \"#utility.yul\":3005:3008   */\n      dup4\n        /* \"#utility.yul\":2999:3022   */\n      mcopy\n        /* \"#utility.yul\":3056:3057   */\n      0x00\n        /* \"#utility.yul\":3047:3053   */\n      dup4\n        /* \"#utility.yul\":3042:3045   */\n      dup4\n        /* \"#utility.yul\":3038:3054   */\n      add\n        /* \"#utility.yul\":3031:3058   */\n      mstore\n        /* \"#utility.yul\":2926:3065   */\n      pop\n      pop\n      pop\n      jump\t// out\n        /* \"#utility.yul\":3071:3173   */\n    tag_139:\n        /* \"#utility.yul\":3112:3118   */\n      0x00\n        /* \"#utility.yul\":3163:3165   */\n      0x1f\n        /* \"#utility.yul\":3159:3166   */\n      not\n        /* \"#utility.yul\":3154:3156   */\n      0x1f\n        /* \"#utility.yul\":3147:3152   */\n      dup4\n        /* \"#utility.yul\":3143:3157   */\n      add\n        /* \"#utility.yul\":3139:3167   */\n      and\n        /* \"#utility.yul\":3129:3167   */\n      swap1\n      pop\n        /* \"#utility.yul\":3071:3173   */\n      swap2\n      swap1\n      pop\n      jump\t// out\n        /* \"#utility.yul\":3179:3556   */\n    tag_140:\n        /* \"#utility.yul\":3267:3270   */\n      0x00\n        /* \"#utility.yul\":3295:3334   */\n      tag_202\n        /* \"#utility.yul\":3328:3333   */\n      dup3\n        /* \"#utility.yul\":3295:3334   */\n      tag_136\n      jump\t// in\n    tag_202:\n        /* \"#utility.yul\":3350:3421   */\n      tag_203\n        /* \"#utility.yul\":3414:3420   */\n      dup2\n        /* \"#utility.yul\":3409:3412   */\n      dup6\n        /* \"#utility.yul\":3350:3421   */\n      tag_137\n      jump\t// in\n    tag_203:\n        /* \"#utility.yul\":3343:3421   */\n      swap4\n      pop\n        /* \"#utility.yul\":3430:3495   */\n      tag_204\n        /* \"#utility.yul\":3488:3494   */\n      dup2\n        /* \"#utility.yul\":3483:3486   */\n      dup6\n        /* \"#utility.yul\":3476:3480   */\n      0x20\n        /* \"#utility.yul\":3469:3474   */\n      dup7\n        /* \"#utility.yul\":3465:3481   */\n      add\n        /* \"#utility.yul\":3430:3495   */\n      tag_138\n      jump\t// in\n    tag_204:\n        /* \"#utility.yul\":3520:3549   */\n      tag_205\n        /* \"#utility.yul\":3542:3548   */\n      dup2\n        /* \"#utility.yul\":3520:3549   */\n      tag_139\n      jump\t// in\n    tag_205:\n        /* \"#utility.yul\":3515:3518   */\n      dup5\n        /* \"#utility.yul\":3511:3550   */\n      add\n        /* \"#utility.yul\":3504:3550   */\n      swap2\n      pop\n        /* \"#utility.yul\":3271:3556   */\n      pop\n        /* \"#utility.yul\":3179:3556   */\n      swap3\n      swap2\n      pop\n      pop\n      jump\t// out\n        /* \"#utility.yul\":3562:3875   */\n    tag_27:\n        /* \"#utility.yul\":3675:3679   */\n      0x00\n        /* \"#utility.yul\":3713:3715   */\n      0x20\n        /* \"#utility.yul\":3702:3711   */\n      dup3\n        /* \"#utility.yul\":3698:3716   */\n      add\n        /* \"#utility.yul\":3690:3716   */\n      swap1\n      pop\n        /* \"#utility.yul\":3762:3771   */\n      dup2\n        /* \"#utility.yul\":3756:3760   */\n      dup2\n        /* \"#utility.yul\":3752:3772   */\n      sub\n        /* \"#utility.yul\":3748:3749   */\n      0x00\n        /* \"#utility.yul\":3737:3746   */\n      dup4\n        /* \"#utility.yul\":3733:3750   */\n      add\n        /* \"#utility.yul\":3726:3773   */\n      mstore\n        /* \"#utility.yul\":3790:3868   */\n      tag_207\n        /* \"#utility.yul\":3863:3867   */\n      dup2\n        /* \"#utility.yul\":3854:3860   */\n      dup5\n        /* \"#utility.yul\":3790:3868   */\n      tag_140\n      jump\t// in\n    tag_207:\n        /* \"#utility.yul\":3782:3868   */\n      swap1\n      pop\n        /* \"#utility.yul\":3562:3875   */\n      swap3\n      swap2\n      pop\n      pop\n      jump\t// out\n        /* \"#utility.yul\":3881:3999   */\n    tag_141:\n        /* \"#utility.yul\":3968:3992   */\n      tag_209\n        /* \"#utility.yul\":3986:3991   */\n      dup2\n        /* \"#utility.yul\":3968:3992   */\n      tag_132\n      jump\t// in\n    tag_209:\n        /* \"#utility.yul\":3963:3966   */\n      dup3\n        /* \"#utility.yul\":3956:3993   */\n      mstore\n        /* \"#utility.yul\":3881:3999   */\n      pop\n      pop\n      jump\t// out\n        /* \"#utility.yul\":4005:4227   */\n    tag_37:\n        /* \"#utility.yul\":4098:4102   */\n      0x00\n        /* \"#utility.yul\":4136:4138   */\n      0x20\n        /* \"#utility.yul\":4125:4134   */\n      dup3\n        /* \"#utility.yul\":4121:4139   */\n      add\n        /* \"#utility.yul\":4113:4139   */\n      swap1\n      pop\n        /* \"#utility.yul\":4149:4220   */\n      tag_211\n        /* \"#utility.yul\":4217:4218   */\n      0x00\n        /* \"#utility.yul\":4206:4215   */\n      dup4\n        /* \"#utility.yul\":4202:4219   */\n      add\n        /* \"#utility.yul\":4193:4199   */\n      dup5\n        /* \"#utility.yul\":4149:4220   */\n      tag_141\n      jump\t// in\n    tag_211:\n        /* \"#utility.yul\":4005:4227   */\n      swap3\n      swap2\n      pop\n      pop\n      jump\t// out\n        /* \"#utility.yul\":4233:4347   */\n    tag_142:\n        /* \"#utility.yul\":4300:4306   */\n      0x00\n        /* \"#utility.yul\":4334:4339   */\n      dup2\n        /* \"#utility.yul\":4328:4340   */\n      mload\n        /* \"#utility.yul\":4318:4340   */\n      swap1\n      pop\n        /* \"#utility.yul\":4233:4347   */\n      swap2\n      swap1\n      pop\n      jump\t// out\n        /* \"#utility.yul\":4353:4537   */\n    tag_143:\n        /* \"#utility.yul\":4452:4463   */\n      0x00\n        /* \"#utility.yul\":4486:4492   */\n      dup3\n        /* \"#utility.yul\":4481:4484   */\n      dup3\n        /* \"#utility.yul\":4474:4493   */\n      mstore\n        /* \"#utility.yul\":4526:4530   */\n      0x20\n        /* \"#utility.yul\":4521:4524   */\n      dup3\n        /* \"#utility.yul\":4517:4531   */\n      add\n        /* \"#utility.yul\":4502:4531   */\n      swap1\n      pop\n        /* \"#utility.yul\":4353:4537   */\n      swap3\n      swap2\n      pop\n      pop\n      jump\t// out\n        /* \"#utility.yul\":4543:4675   */\n    tag_144:\n        /* \"#utility.yul\":4610:4614   */\n      0x00\n        /* \"#utility.yul\":4633:4636   */\n      dup2\n        /* \"#utility.yul\":4625:4636   */\n      swap1\n      pop\n        /* \"#utility.yul\":4663:4667   */\n      0x20\n        /* \"#utility.yul\":4658:4661   */\n      dup3\n        /* \"#utility.yul\":4654:4668   */\n      add\n        /* \"#utility.yul\":4646:4668   */\n      swap1\n      pop\n        /* \"#utility.yul\":4543:4675   */\n      swap2\n      swap1\n      pop\n      jump\t// out\n        /* \"#utility.yul\":4681:4789   */\n    tag_145:\n        /* \"#utility.yul\":4758:4782   */\n      tag_216\n        /* \"#utility.yul\":4776:4781   */\n      dup2\n        /* \"#utility.yul\":4758:4782   */\n      tag_127\n      jump\t// in\n    tag_216:\n        /* \"#utility.yul\":4753:4756   */\n      dup3\n        /* \"#utility.yul\":4746:4783   */\n      mstore\n        /* \"#utility.yul\":4681:4789   */\n      pop\n      pop\n      jump\t// out\n        /* \"#utility.yul\":4795:4974   */\n    tag_146:\n        /* \"#utility.yul\":4864:4874   */\n      0x00\n        /* \"#utility.yul\":4885:4931   */\n      tag_218\n        /* \"#utility.yul\":4927:4930   */\n      dup4\n        /* \"#utility.yul\":4919:4925   */\n      dup4\n        /* \"#utility.yul\":4885:4931   */\n      tag_145\n      jump\t// in\n    tag_218:\n        /* \"#utility.yul\":4963:4967   */\n      0x20\n        /* \"#utility.yul\":4958:4961   */\n      dup4\n        /* \"#utility.yul\":4954:4968   */\n      add\n        /* \"#utility.yul\":4940:4968   */\n      swap1\n      pop\n        /* \"#utility.yul\":4795:4974   */\n      swap3\n      swap2\n      pop\n      pop\n      jump\t// out\n        /* \"#utility.yul\":4980:5093   */\n    tag_147:\n        /* \"#utility.yul\":5050:5054   */\n      0x00\n        /* \"#utility.yul\":5082:5086   */\n      0x20\n        /* \"#utility.yul\":5077:5080   */\n      dup3\n        /* \"#utility.yul\":5073:5087   */\n      add\n        /* \"#utility.yul\":5065:5087   */\n      swap1\n      pop\n        /* \"#utility.yul\":4980:5093   */\n      swap2\n      swap1\n      pop\n      jump\t// out\n        /* \"#utility.yul\":5129:5861   */\n    tag_148:\n        /* \"#utility.yul\":5248:5251   */\n      0x00\n        /* \"#utility.yul\":5277:5331   */\n      tag_221\n        /* \"#utility.yul\":5325:5330   */\n      dup3\n        /* \"#utility.yul\":5277:5331   */\n      tag_142\n      jump\t// in\n    tag_221:\n        /* \"#utility.yul\":5347:5433   */\n      tag_222\n        /* \"#utility.yul\":5426:5432   */\n      dup2\n        /* \"#utility.yul\":5421:5424   */\n      dup6\n        /* \"#utility.yul\":5347:5433   */\n      tag_143\n      jump\t// in\n    tag_222:\n        /* \"#utility.yul\":5340:5433   */\n      swap4\n      pop\n        /* \"#utility.yul\":5457:5513   */\n      tag_223\n        /* \"#utility.yul\":5507:5512   */\n      dup4\n        /* \"#utility.yul\":5457:5513   */\n      tag_144\n      jump\t// in\n    tag_223:\n        /* \"#utility.yul\":5536:5543   */\n      dup1\n        /* \"#utility.yul\":5567:5568   */\n      0x00\n        /* \"#utility.yul\":5552:5836   */\n    tag_224:\n        /* \"#utility.yul\":5577:5583   */\n      dup4\n        /* \"#utility.yul\":5574:5575   */\n      dup2\n        /* \"#utility.yul\":5571:5584   */\n      lt\n        /* \"#utility.yul\":5552:5836   */\n      iszero\n      tag_226\n      jumpi\n        /* \"#utility.yul\":5653:5659   */\n      dup2\n        /* \"#utility.yul\":5647:5660   */\n      mload\n        /* \"#utility.yul\":5680:5743   */\n      tag_227\n        /* \"#utility.yul\":5739:5742   */\n      dup9\n        /* \"#utility.yul\":5724:5737   */\n      dup3\n        /* \"#utility.yul\":5680:5743   */\n      tag_146\n      jump\t// in\n    tag_227:\n        /* \"#utility.yul\":5673:5743   */\n      swap8\n      pop\n        /* \"#utility.yul\":5766:5826   */\n      tag_228\n        /* \"#utility.yul\":5819:5825   */\n      dup4\n        /* \"#utility.yul\":5766:5826   */\n      tag_147\n      jump\t// in\n    tag_228:\n        /* \"#utility.yul\":5756:5826   */\n      swap3\n      pop\n        /* \"#utility.yul\":5612:5836   */\n      pop\n        /* \"#utility.yul\":5599:5600   */\n      0x01\n        /* \"#utility.yul\":5596:5597   */\n      dup2\n        /* \"#utility.yul\":5592:5601   */\n      add\n        /* \"#utility.yul\":5587:5601   */\n      swap1\n      pop\n        /* \"#utility.yul\":5552:5836   */\n      jump(tag_224)\n    tag_226:\n        /* \"#utility.yul\":5556:5570   */\n      pop\n        /* \"#utility.yul\":5852:5855   */\n      dup6\n        /* \"#utility.yul\":5845:5855   */\n      swap4\n      pop\n        /* \"#utility.yul\":5253:5861   */\n      pop\n      pop\n      pop\n        /* \"#utility.yul\":5129:5861   */\n      swap3\n      swap2\n      pop\n      pop\n      jump\t// out\n        /* \"#utility.yul\":5867:6240   */\n    tag_44:\n        /* \"#utility.yul\":6010:6014   */\n      0x00\n        /* \"#utility.yul\":6048:6050   */\n      0x20\n        /* \"#utility.yul\":6037:6046   */\n      dup3\n        /* \"#utility.yul\":6033:6051   */\n      add\n        /* \"#utility.yul\":6025:6051   */\n      swap1\n      pop\n        /* \"#utility.yul\":6097:6106   */\n      dup2\n        /* \"#utility.yul\":6091:6095   */\n      dup2\n        /* \"#utility.yul\":6087:6107   */\n      sub\n        /* \"#utility.yul\":6083:6084   */\n      0x00\n        /* \"#utility.yul\":6072:6081   */\n      dup4\n        /* \"#utility.yul\":6068:6085   */\n      add\n        /* \"#utility.yul\":6061:6108   */\n      mstore\n        /* \"#utility.yul\":6125:6233   */\n      tag_230\n        /* \"#utility.yul\":6228:6232   */\n      dup2\n        /* \"#utility.yul\":6219:6225   */\n      dup5\n        /* \"#utility.yul\":6125:6233   */\n      tag_148\n      jump\t// in\n    tag_230:\n        /* \"#utility.yul\":6117:6233   */\n      swap1\n      pop\n        /* \"#utility.yul\":5867:6240   */\n      swap3\n      swap2\n      pop\n      pop\n      jump\t// out\n        /* \"#utility.yul\":6246:6411   */\n    tag_149:\n        /* \"#utility.yul\":6386:6403   */\n      0x4e6f742077686974656c69737465640000000000000000000000000000000000\n        /* \"#utility.yul\":6382:6383   */\n      0x00\n        /* \"#utility.yul\":6374:6380   */\n      dup3\n        /* \"#utility.yul\":6370:6384   */\n      add\n        /* \"#utility.yul\":6363:6404   */\n      mstore\n        /* \"#utility.yul\":6246:6411   */\n      pop\n      jump\t// out\n        /* \"#utility.yul\":6417:6783   */\n    tag_150:\n        /* \"#utility.yul\":6559:6562   */\n      0x00\n        /* \"#utility.yul\":6580:6647   */\n      tag_233\n        /* \"#utility.yul\":6644:6646   */\n      0x0f\n        /* \"#utility.yul\":6639:6642   */\n      dup4\n        /* \"#utility.yul\":6580:6647   */\n      tag_137\n      jump\t// in\n    tag_233:\n        /* \"#utility.yul\":6573:6647   */\n      swap2\n      pop\n        /* \"#utility.yul\":6656:6749   */\n      tag_234\n        /* \"#utility.yul\":6745:6748   */\n      dup3\n        /* \"#utility.yul\":6656:6749   */\n      tag_149\n      jump\t// in\n    tag_234:\n        /* \"#utility.yul\":6774:6776   */\n      0x20\n        /* \"#utility.yul\":6769:6772   */\n      dup3\n        /* \"#utility.yul\":6765:6777   */\n      add\n        /* \"#utility.yul\":6758:6777   */\n      swap1\n      pop\n        /* \"#utility.yul\":6417:6783   */\n      swap2\n      swap1\n      pop\n      jump\t// out\n        /* \"#utility.yul\":6789:7208   */\n    tag_55:\n        /* \"#utility.yul\":6955:6959   */\n      0x00\n        /* \"#utility.yul\":6993:6995   */\n      0x20\n        /* \"#utility.yul\":6982:6991   */\n      dup3\n        /* \"#utility.yul\":6978:6996   */\n      add\n        /* \"#utility.yul\":6970:6996   */\n      swap1\n      pop\n        /* \"#utility.yul\":7042:7051   */\n      dup2\n        /* \"#utility.yul\":7036:7040   */\n      dup2\n        /* \"#utility.yul\":7032:7052   */\n      sub\n        /* \"#utility.yul\":7028:7029   */\n      0x00\n        /* \"#utility.yul\":7017:7026   */\n      dup4\n        /* \"#utility.yul\":7013:7030   */\n      add\n        /* \"#utility.yul\":7006:7053   */\n      mstore\n        /* \"#utility.yul\":7070:7201   */\n      tag_236\n        /* \"#utility.yul\":7196:7200   */\n      dup2\n        /* \"#utility.yul\":7070:7201   */\n      tag_150\n      jump\t// in\n    tag_236:\n        /* \"#utility.yul\":7062:7201   */\n      swap1\n      pop\n        /* \"#utility.yul\":6789:7208   */\n      swap2\n      swap1\n      pop\n      jump\t// out\n        /* \"#utility.yul\":7214:7388   */\n    tag_151:\n        /* \"#utility.yul\":7354:7380   */\n      0x4f6e6c79206f776e65722063616e2063616c6c20746869730000000000000000\n        /* \"#utility.yul\":7350:7351   */\n      0x00\n        /* \"#utility.yul\":7342:7348   */\n      dup3\n        /* \"#utility.yul\":7338:7352   */\n      add\n        /* \"#utility.yul\":7331:7381   */\n      mstore\n        /* \"#utility.yul\":7214:7388   */\n      pop\n      jump\t// out\n        /* \"#utility.yul\":7394:7760   */\n    tag_152:\n        /* \"#utility.yul\":7536:7539   */\n      0x00\n        /* \"#utility.yul\":7557:7624   */\n      tag_239\n        /* \"#utility.yul\":7621:7623   */\n      0x18\n        /* \"#utility.yul\":7616:7619   */\n      dup4\n        /* \"#utility.yul\":7557:7624   */\n      tag_137\n      jump\t// in\n    tag_239:\n        /* \"#utility.yul\":7550:7624   */\n      swap2\n      pop\n        /* \"#utility.yul\":7633:7726   */\n      tag_240\n        /* \"#utility.yul\":7722:7725   */\n      dup3\n        /* \"#utility.yul\":7633:7726   */\n      tag_151\n      jump\t// in\n    tag_240:\n        /* \"#utility.yul\":7751:7753   */\n      0x20\n        /* \"#utility.yul\":7746:7749   */\n      dup3\n        /* \"#utility.yul\":7742:7754   */\n      add\n        /* \"#utility.yul\":7735:7754   */\n      swap1\n      pop\n        /* \"#utility.yul\":7394:7760   */\n      swap2\n      swap1\n      pop\n      jump\t// out\n        /* \"#utility.yul\":7766:8185   */\n    tag_59:\n        /* \"#utility.yul\":7932:7936   */\n      0x00\n        /* \"#utility.yul\":7970:7972   */\n      0x20\n        /* \"#utility.yul\":7959:7968   */\n      dup3\n        /* \"#utility.yul\":7955:7973   */\n      add\n        /* \"#utility.yul\":7947:7973   */\n      swap1\n      pop\n        /* \"#utility.yul\":8019:8028   */\n      dup2\n        /* \"#utility.yul\":8013:8017   */\n      dup2\n        /* \"#utility.yul\":8009:8029   */\n      sub\n        /* \"#utility.yul\":8005:8006   */\n      0x00\n        /* \"#utility.yul\":7994:8003   */\n      dup4\n        /* \"#utility.yul\":7990:8007   */\n      add\n        /* \"#utility.yul\":7983:8030   */\n      mstore\n        /* \"#utility.yul\":8047:8178   */\n      tag_242\n        /* \"#utility.yul\":8173:8177   */\n      dup2\n        /* \"#utility.yul\":8047:8178   */\n      tag_152\n      jump\t// in\n    tag_242:\n        /* \"#utility.yul\":8039:8178   */\n      swap1\n      pop\n        /* \"#utility.yul\":7766:8185   */\n      swap2\n      swap1\n      pop\n      jump\t// out\n        /* \"#utility.yul\":8191:8365   */\n    tag_153:\n        /* \"#utility.yul\":8331:8357   */\n      0x41646472657373206e6f7420696e2077686974656c6973740000000000000000\n        /* \"#utility.yul\":8327:8328   */\n      0x00\n        /* \"#utility.yul\":8319:8325   */\n      dup3\n        /* \"#utility.yul\":8315:8329   */\n      add\n        /* \"#utility.yul\":8308:8358   */\n      mstore\n        /* \"#utility.yul\":8191:8365   */\n      pop\n      jump\t// out\n        /* \"#utility.yul\":8371:8737   */\n    tag_154:\n        /* \"#utility.yul\":8513:8516   */\n      0x00\n        /* \"#utility.yul\":8534:8601   */\n      tag_245\n        /* \"#utility.yul\":8598:8600   */\n      0x18\n        /* \"#utility.yul\":8593:8596   */\n      dup4\n        /* \"#utility.yul\":8534:8601   */\n      tag_137\n      jump\t// in\n    tag_245:\n        /* \"#utility.yul\":8527:8601   */\n      swap2\n      pop\n        /* \"#utility.yul\":8610:8703   */\n      tag_246\n        /* \"#utility.yul\":8699:8702   */\n      dup3\n        /* \"#utility.yul\":8610:8703   */\n      tag_153\n      jump\t// in\n    tag_246:\n        /* \"#utility.yul\":8728:8730   */\n      0x20\n        /* \"#utility.yul\":8723:8726   */\n      dup3\n        /* \"#utility.yul\":8719:8731   */\n      add\n        /* \"#utility.yul\":8712:8731   */\n      swap1\n      pop\n        /* \"#utility.yul\":8371:8737   */\n      swap2\n      swap1\n      pop\n      jump\t// out\n        /* \"#utility.yul\":8743:9162   */\n    tag_65:\n        /* \"#utility.yul\":8909:8913   */\n      0x00\n        /* \"#utility.yul\":8947:8949   */\n      0x20\n        /* \"#utility.yul\":8936:8945   */\n      dup3\n        /* \"#utility.yul\":8932:8950   */\n      add\n        /* \"#utility.yul\":8924:8950   */\n      swap1\n      pop\n        /* \"#utility.yul\":8996:9005   */\n      dup2\n        /* \"#utility.yul\":8990:8994   */\n      dup2\n        /* \"#utility.yul\":8986:9006   */\n      sub\n        /* \"#utility.yul\":8982:8983   */\n      0x00\n        /* \"#utility.yul\":8971:8980   */\n      dup4\n        /* \"#utility.yul\":8967:8984   */\n      add\n        /* \"#utility.yul\":8960:9007   */\n      mstore\n        /* \"#utility.yul\":9024:9155   */\n      tag_248\n        /* \"#utility.yul\":9150:9154   */\n      dup2\n        /* \"#utility.yul\":9024:9155   */\n      tag_154\n      jump\t// in\n    tag_248:\n        /* \"#utility.yul\":9016:9155   */\n      swap1\n      pop\n        /* \"#utility.yul\":8743:9162   */\n      swap2\n      swap1\n      pop\n      jump\t// out\n        /* \"#utility.yul\":9168:9341   */\n    tag_155:\n        /* \"#utility.yul\":9308:9333   */\n      0x43616e6e6f7420616464207a65726f2061646472657373000000000000000000\n        /* \"#utility.yul\":9304:9305   */\n      0x00\n        /* \"#utility.yul\":9296:9302   */\n      dup3\n        /* \"#utility.yul\":9292:9306   */\n      add\n        /* \"#utility.yul\":9285:9334   */\n      mstore\n        /* \"#utility.yul\":9168:9341   */\n      pop\n      jump\t// out\n        /* \"#utility.yul\":9347:9713   */\n    tag_156:\n        /* \"#utility.yul\":9489:9492   */\n      0x00\n        /* \"#utility.yul\":9510:9577   */\n      tag_251\n        /* \"#utility.yul\":9574:9576   */\n      0x17\n        /* \"#utility.yul\":9569:9572   */\n      dup4\n        /* \"#utility.yul\":9510:9577   */\n      tag_137\n      jump\t// in\n    tag_251:\n        /* \"#utility.yul\":9503:9577   */\n      swap2\n      pop\n        /* \"#utility.yul\":9586:9679   */\n      tag_252\n        /* \"#utility.yul\":9675:9678   */\n      dup3\n        /* \"#utility.yul\":9586:9679   */\n      tag_155\n      jump\t// in\n    tag_252:\n        /* \"#utility.yul\":9704:9706   */\n      0x20\n        /* \"#utility.yul\":9699:9702   */\n      dup3\n        /* \"#utility.yul\":9695:9707   */\n      add\n        /* \"#utility.yul\":9688:9707   */\n      swap1\n      pop\n        /* \"#utility.yul\":9347:9713   */\n      swap2\n      swap1\n      pop\n      jump\t// out\n        /* \"#utility.yul\":9719:10138   */\n    tag_75:\n        /* \"#utility.yul\":9885:9889   */\n      0x00\n        /* \"#utility.yul\":9923:9925   */\n      0x20\n        /* \"#utility.yul\":9912:9921   */\n      dup3\n        /* \"#utility.yul\":9908:9926   */\n      add\n        /* \"#utility.yul\":9900:9926   */\n      swap1\n      pop\n        /* \"#utility.yul\":9972:9981   */\n      dup2\n        /* \"#utility.yul\":9966:9970   */\n      dup2\n        /* \"#utility.yul\":9962:9982   */\n      sub\n        /* \"#utility.yul\":9958:9959   */\n      0x00\n        /* \"#utility.yul\":9947:9956   */\n      dup4\n        /* \"#utility.yul\":9943:9960   */\n      add\n        /* \"#utility.yul\":9936:9983   */\n      mstore\n        /* \"#utility.yul\":10000:10131   */\n      tag_254\n        /* \"#utility.yul\":10126:10130   */\n      dup2\n        /* \"#utility.yul\":10000:10131   */\n      tag_156\n      jump\t// in\n    tag_254:\n        /* \"#utility.yul\":9992:10131   */\n      swap1\n      pop\n        /* \"#utility.yul\":9719:10138   */\n      swap2\n      swap1\n      pop\n      jump\t// out\n        /* \"#utility.yul\":10144:10322   */\n    tag_157:\n        /* \"#utility.yul\":10284:10314   */\n      0x4164647265737320616c726561647920696e2077686974656c69737400000000\n        /* \"#utility.yul\":10280:10281   */\n      0x00\n        /* \"#utility.yul\":10272:10278   */\n      dup3\n        /* \"#utility.yul\":10268:10282   */\n      add\n        /* \"#utility.yul\":10261:10315   */\n      mstore\n        /* \"#utility.yul\":10144:10322   */\n      pop\n      jump\t// out\n        /* \"#utility.yul\":10328:10694   */\n    tag_158:\n        /* \"#utility.yul\":10470:10473   */\n      0x00\n        /* \"#utility.yul\":10491:10558   */\n      tag_257\n        /* \"#utility.yul\":10555:10557   */\n      0x1c\n        /* \"#utility.yul\":10550:10553   */\n      dup4\n        /* \"#utility.yul\":10491:10558   */\n      tag_137\n      jump\t// in\n    tag_257:\n        /* \"#utility.yul\":10484:10558   */\n      swap2\n      pop\n        /* \"#utility.yul\":10567:10660   */\n      tag_258\n        /* \"#utility.yul\":10656:10659   */\n      dup3\n        /* \"#utility.yul\":10567:10660   */\n      tag_157\n      jump\t// in\n    tag_258:\n        /* \"#utility.yul\":10685:10687   */\n      0x20\n        /* \"#utility.yul\":10680:10683   */\n      dup3\n        /* \"#utility.yul\":10676:10688   */\n      add\n        /* \"#utility.yul\":10669:10688   */\n      swap1\n      pop\n        /* \"#utility.yul\":10328:10694   */\n      swap2\n      swap1\n      pop\n      jump\t// out\n        /* \"#utility.yul\":10700:11119   */\n    tag_80:\n        /* \"#utility.yul\":10866:10870   */\n      0x00\n        /* \"#utility.yul\":10904:10906   */\n      0x20\n        /* \"#utility.yul\":10893:10902   */\n      dup3\n        /* \"#utility.yul\":10889:10907   */\n      add\n        /* \"#utility.yul\":10881:10907   */\n      swap1\n      pop\n        /* \"#utility.yul\":10953:10962   */\n      dup2\n        /* \"#utility.yul\":10947:10951   */\n      dup2\n        /* \"#utility.yul\":10943:10963   */\n      sub\n        /* \"#utility.yul\":10939:10940   */\n      0x00\n        /* \"#utility.yul\":10928:10937   */\n      dup4\n        /* \"#utility.yul\":10924:10941   */\n      add\n        /* \"#utility.yul\":10917:10964   */\n      mstore\n        /* \"#utility.yul\":10981:11112   */\n      tag_260\n        /* \"#utility.yul\":11107:11111   */\n      dup2\n        /* \"#utility.yul\":10981:11112   */\n      tag_158\n      jump\t// in\n    tag_260:\n        /* \"#utility.yul\":10973:11112   */\n      swap1\n      pop\n        /* \"#utility.yul\":10700:11119   */\n      swap2\n      swap1\n      pop\n      jump\t// out\n        /* \"#utility.yul\":11125:11305   */\n    tag_85:\n        /* \"#utility.yul\":11173:11250   */\n      0x4e487b7100000000000000000000000000000000000000000000000000000000\n        /* \"#utility.yul\":11170:11171   */\n      0x00\n        /* \"#utility.yul\":11163:11251   */\n      mstore\n        /* \"#utility.yul\":11270:11274   */\n      0x41\n        /* \"#utility.yul\":11267:11268   */\n      0x04\n        /* \"#utility.yul\":11260:11275   */\n      mstore\n        /* \"#utility.yul\":11294:11298   */\n      0x24\n        /* \"#utility.yul\":11291:11292   */\n      0x00\n        /* \"#utility.yul\":11284:11299   */\n      revert\n        /* \"#utility.yul\":11311:11491   */\n    tag_93:\n        /* \"#utility.yul\":11359:11436   */\n      0x4e487b7100000000000000000000000000000000000000000000000000000000\n        /* \"#utility.yul\":11356:11357   */\n      0x00\n        /* \"#utility.yul\":11349:11437   */\n      mstore\n        /* \"#utility.yul\":11456:11460   */\n      0x32\n        /* \"#utility.yul\":11453:11454   */\n      0x04\n        /* \"#utility.yul\":11446:11461   */\n      mstore\n        /* \"#utility.yul\":11480:11484   */\n      0x24\n        /* \"#utility.yul\":11477:11478   */\n      0x00\n        /* \"#utility.yul\":11470:11485   */\n      revert\n        /* \"#utility.yul\":11497:11678   */\n    tag_159:\n        /* \"#utility.yul\":11637:11670   */\n      0x416464726573735365743a20696e646578206f7574206f6620626f756e647300\n        /* \"#utility.yul\":11633:11634   */\n      0x00\n        /* \"#utility.yul\":11625:11631   */\n      dup3\n        /* \"#utility.yul\":11621:11635   */\n      add\n        /* \"#utility.yul\":11614:11671   */\n      mstore\n        /* \"#utility.yul\":11497:11678   */\n      pop\n      jump\t// out\n        /* \"#utility.yul\":11684:12050   */\n    tag_160:\n        /* \"#utility.yul\":11826:11829   */\n      0x00\n        /* \"#utility.yul\":11847:11914   */\n      tag_265\n        /* \"#utility.yul\":11911:11913   */\n      0x1f\n        /* \"#utility.yul\":11906:11909   */\n      dup4\n        /* \"#utility.yul\":11847:11914   */\n      tag_137\n      jump\t// in\n    tag_265:\n        /* \"#utility.yul\":11840:11914   */\n      swap2\n      pop\n        /* \"#utility.yul\":11923:12016   */\n      tag_266\n        /* \"#utility.yul\":12012:12015   */\n      dup3\n        /* \"#utility.yul\":11923:12016   */\n      tag_159\n      jump\t// in\n    tag_266:\n        /* \"#utility.yul\":12041:12043   */\n      0x20\n        /* \"#utility.yul\":12036:12039   */\n      dup3\n        /* \"#utility.yul\":12032:12044   */\n      add\n        /* \"#utility.yul\":12025:12044   */\n      swap1\n      pop\n        /* \"#utility.yul\":11684:12050   */\n      swap2\n      swap1\n      pop\n      jump\t// out\n        /* \"#utility.yul\":12056:12475   */\n    tag_98:\n        /* \"#utility.yul\":12222:12226   */\n      0x00\n        /* \"#utility.yul\":12260:12262   */\n      0x20\n        /* \"#utility.yul\":12249:12258   */\n      dup3\n        /* \"#utility.yul\":12245:12263   */\n      add\n        /* \"#utility.yul\":12237:12263   */\n      swap1\n      pop\n        /* \"#utility.yul\":12309:12318   */\n      dup2\n        /* \"#utility.yul\":12303:12307   */\n      dup2\n        /* \"#utility.yul\":12299:12319   */\n      sub\n        /* \"#utility.yul\":12295:12296   */\n      0x00\n        /* \"#utility.yul\":12284:12293   */\n      dup4\n        /* \"#utility.yul\":12280:12297   */\n      add\n        /* \"#utility.yul\":12273:12320   */\n      mstore\n        /* \"#utility.yul\":12337:12468   */\n      tag_268\n        /* \"#utility.yul\":12463:12467   */\n      dup2\n        /* \"#utility.yul\":12337:12468   */\n      tag_160\n      jump\t// in\n    tag_268:\n        /* \"#utility.yul\":12329:12468   */\n      swap1\n      pop\n        /* \"#utility.yul\":12056:12475   */\n      swap2\n      swap1\n      pop\n      jump\t// out\n        /* \"#utility.yul\":12481:12661   */\n    tag_161:\n        /* \"#utility.yul\":12529:12606   */\n      0x4e487b7100000000000000000000000000000000000000000000000000000000\n        /* \"#utility.yul\":12526:12527   */\n      0x00\n        /* \"#utility.yul\":12519:12607   */\n      mstore\n        /* \"#utility.yul\":12626:12630   */\n      0x11\n        /* \"#utility.yul\":12623:12624   */\n      0x04\n        /* \"#utility.yul\":12616:12631   */\n      mstore\n        /* \"#utility.yul\":12650:12654   */\n      0x24\n        /* \"#utility.yul\":12647:12648   */\n      0x00\n        /* \"#utility.yul\":12640:12655   */\n      revert\n        /* \"#utility.yul\":12667:12861   */\n    tag_105:\n        /* \"#utility.yul\":12707:12711   */\n      0x00\n        /* \"#utility.yul\":12727:12747   */\n      tag_271\n        /* \"#utility.yul\":12745:12746   */\n      dup3\n        /* \"#utility.yul\":12727:12747   */\n      tag_132\n      jump\t// in\n    tag_271:\n        /* \"#utility.yul\":12722:12747   */\n      swap2\n      pop\n        /* \"#utility.yul\":12761:12781   */\n      tag_272\n        /* \"#utility.yul\":12779:12780   */\n      dup4\n        /* \"#utility.yul\":12761:12781   */\n      tag_132\n      jump\t// in\n    tag_272:\n        /* \"#utility.yul\":12756:12781   */\n      swap3\n      pop\n        /* \"#utility.yul\":12805:12806   */\n      dup3\n        /* \"#utility.yul\":12802:12803   */\n      dup3\n        /* \"#utility.yul\":12798:12807   */\n      sub\n        /* \"#utility.yul\":12790:12807   */\n      swap1\n      pop\n        /* \"#utility.yul\":12829:12830   */\n      dup2\n        /* \"#utility.yul\":12823:12827   */\n      dup2\n        /* \"#utility.yul\":12820:12831   */\n      gt\n        /* \"#utility.yul\":12817:12854   */\n      iszero\n      tag_273\n      jumpi\n        /* \"#utility.yul\":12834:12852   */\n      tag_274\n      tag_161\n      jump\t// in\n    tag_274:\n        /* \"#utility.yul\":12817:12854   */\n    tag_273:\n        /* \"#utility.yul\":12667:12861   */\n      swap3\n      swap2\n      pop\n      pop\n      jump\t// out\n        /* \"#utility.yul\":12867:13047   */\n    tag_116:\n        /* \"#utility.yul\":12915:12992   */\n      0x4e487b7100000000000000000000000000000000000000000000000000000000\n        /* \"#utility.yul\":12912:12913   */\n      0x00\n        /* \"#utility.yul\":12905:12993   */\n      mstore\n        /* \"#utility.yul\":13012:13016   */\n      0x31\n        /* \"#utility.yul\":13009:13010   */\n      0x04\n        /* \"#utility.yul\":13002:13017   */\n      mstore\n        /* \"#utility.yul\":13036:13040   */\n      0x24\n        /* \"#utility.yul\":13033:13034   */\n      0x00\n        /* \"#utility.yul\":13026:13041   */\n      revert\n\n    auxdata: 0xa26469706673582212206ca5fc3c4c48d0e85525b8b72f566bab3b80747f1a0d73c64bd136828c9d86f464736f6c634300081e0033\n}\n",
				"bytecode": {
					"linkReferences": {},
					"object": "6080604052348015600e575f5ffd5b503360025f6101000a81548173ffffffffffffffffffffffffffffffffffffffff021916908373ffffffffffffffffffffffffffffffffffffffff16021790555061102e8061005c5f395ff3fe608060405234801561000f575f5ffd5b5060043610610086575f3560e01c80638da5cb5b116100595780638da5cb5b1461012457806399db89b514610142578063e43252d714610160578063f230bd7d1461017c57610086565b80633af32abf1461008a578063565853af146100ba578063777acf37146100ea5780638ab1d68114610108575b5f5ffd5b6100a4600480360381019061009f9190610a2e565b61019a565b6040516100b19190610a73565b60405180910390f35b6100d460048036038101906100cf9190610abf565b6101b5565b6040516100e19190610af9565b60405180910390f35b6100f26101d0565b6040516100ff9190610b82565b60405180910390f35b610122600480360381019061011d9190610a2e565b610255565b005b61012c61037c565b6040516101399190610af9565b60405180910390f35b61014a6103a1565b6040516101579190610bb1565b60405180910390f35b61017a60048036038101906101759190610a2e565b6103b0565b005b610184610545565b6040516101919190610c81565b60405180910390f35b5f6101ae825f61062290919063ffffffff16565b9050919050565b5f6101c9825f61066e90919063ffffffff16565b9050919050565b60606101db3361019a565b61021a576040517f08c379a000000000000000000000000000000000000000000000000000000000815260040161021190610ceb565b60405180910390fd5b6040518060400160405280601d81526020017f57656c636f6d652120596f75206172652077686974656c69737465642e000000815250905090565b60025f9054906101000a900473ffffffffffffffffffffffffffffffffffffffff1673ffffffffffffffffffffffffffffffffffffffff163373ffffffffffffffffffffffffffffffffffffffff16146102e4576040517f08c379a00000000000000000000000000000000000000000000000000000000081526004016102db90610d53565b60405180910390fd5b6102f7815f6106fc90919063ffffffff16565b610336576040517f08c379a000000000000000000000000000000000000000000000000000000000815260040161032d90610dbb565b60405180910390fd5b8073ffffffffffffffffffffffffffffffffffffffff167fcdd2e9b91a56913d370075169cefa1602ba36be5301664f752192bb1709df75760405160405180910390a250565b60025f9054906101000a900473ffffffffffffffffffffffffffffffffffffffff1681565b5f6103ab5f6108f3565b905090565b60025f9054906101000a900473ffffffffffffffffffffffffffffffffffffffff1673ffffffffffffffffffffffffffffffffffffffff163373ffffffffffffffffffffffffffffffffffffffff161461043f576040517f08c379a000000000000000000000000000000000000000000000000000000000815260040161043690610d53565b60405180910390fd5b5f73ffffffffffffffffffffffffffffffffffffffff168173ffffffffffffffffffffffffffffffffffffffff16036104ad576040517f08c379a00000000000000000000000000000000000000000000000000000000081526004016104a490610e23565b60405180910390fd5b6104c0815f61090290919063ffffffff16565b6104ff576040517f08c379a00000000000000000000000000000000000000000000000000000000081526004016104f690610e8b565b60405180910390fd5b8073ffffffffffffffffffffffffffffffffffffffff167fa850ae9193f515cbae8d35e8925bd2be26627fc91bce650b8652ed254e9cab0360405160405180910390a250565b60605f6105515f6108f3565b90505f8167ffffffffffffffff81111561056e5761056d610ea9565b5b60405190808252806020026020018201604052801561059c5781602001602082028036833780820191505090505b5090505f5f90505b82811015610619576105bf815f61066e90919063ffffffff16565b8282815181106105d2576105d1610ed6565b5b602002602001019073ffffffffffffffffffffffffffffffffffffffff16908173ffffffffffffffffffffffffffffffffffffffff168152505080806001019150506105a4565b50809250505090565b5f5f836001015f8473ffffffffffffffffffffffffffffffffffffffff1673ffffffffffffffffffffffffffffffffffffffff1681526020019081526020015f20541415905092915050565b5f825f018054905082106106b7576040517f08c379a00000000000000000000000000000000000000000000000000000000081526004016106ae90610f4d565b60405180910390fd5b825f0182815481106106cc576106cb610ed6565b5b905f5260205f20015f9054906101000a900473ffffffffffffffffffffffffffffffffffffffff16905092915050565b5f5f836001015f8473ffffffffffffffffffffffffffffffffffffffff1673ffffffffffffffffffffffffffffffffffffffff1681526020019081526020015f205490505f8103610750575f9150506108ed565b5f60018261075e9190610f98565b90505f6001865f01805490506107749190610f98565b905080821461085e575f865f01828154811061079357610792610ed6565b5b905f5260205f20015f9054906101000a900473ffffffffffffffffffffffffffffffffffffffff16905080875f0184815481106107d3576107d2610ed6565b5b905f5260205f20015f6101000a81548173ffffffffffffffffffffffffffffffffffffffff021916908373ffffffffffffffffffffffffffffffffffffffff16021790555083876001015f8373ffffffffffffffffffffffffffffffffffffffff1673ffffffffffffffffffffffffffffffffffffffff1681526020019081526020015f2081905550505b855f0180548061087157610870610fcb565b5b600190038181905f5260205f20015f6101000a81549073ffffffffffffffffffffffffffffffffffffffff02191690559055856001015f8673ffffffffffffffffffffffffffffffffffffffff1673ffffffffffffffffffffffffffffffffffffffff1681526020019081526020015f205f9055600193505050505b92915050565b5f815f01805490509050919050565b5f61090d8383610622565b1561091a575f90506109ca565b825f0182908060018154018082558091505060019003905f5260205f20015f9091909190916101000a81548173ffffffffffffffffffffffffffffffffffffffff021916908373ffffffffffffffffffffffffffffffffffffffff160217905550825f0180549050836001015f8473ffffffffffffffffffffffffffffffffffffffff1673ffffffffffffffffffffffffffffffffffffffff1681526020019081526020015f2081905550600190505b92915050565b5f5ffd5b5f73ffffffffffffffffffffffffffffffffffffffff82169050919050565b5f6109fd826109d4565b9050919050565b610a0d816109f3565b8114610a17575f5ffd5b50565b5f81359050610a2881610a04565b92915050565b5f60208284031215610a4357610a426109d0565b5b5f610a5084828501610a1a565b91505092915050565b5f8115159050919050565b610a6d81610a59565b82525050565b5f602082019050610a865f830184610a64565b92915050565b5f819050919050565b610a9e81610a8c565b8114610aa8575f5ffd5b50565b5f81359050610ab981610a95565b92915050565b5f60208284031215610ad457610ad36109d0565b5b5f610ae184828501610aab565b91505092915050565b610af3816109f3565b82525050565b5f602082019050610b0c5f830184610aea565b92915050565b5f81519050919050565b5f82825260208201905092915050565b8281835e5f83830152505050565b5f601f19601f8301169050919050565b5f610b5482610b12565b610b5e8185610b1c565b9350610b6e818560208601610b2c565b610b7781610b3a565b840191505092915050565b5f6020820190508181035f830152610b9a8184610b4a565b905092915050565b610bab81610a8c565b82525050565b5f602082019050610bc45f830184610ba2565b92915050565b5f81519050919050565b5f82825260208201905092915050565b5f819050602082019050919050565b610bfc816109f3565b82525050565b5f610c0d8383610bf3565b60208301905092915050565b5f602082019050919050565b5f610c2f82610bca565b610c398185610bd4565b9350610c4483610be4565b805f5b83811015610c74578151610c5b8882610c02565b9750610c6683610c19565b925050600181019050610c47565b5085935050505092915050565b5f6020820190508181035f830152610c998184610c25565b905092915050565b7f4e6f742077686974656c697374656400000000000000000000000000000000005f82015250565b5f610cd5600f83610b1c565b9150610ce082610ca1565b602082019050919050565b5f6020820190508181035f830152610d0281610cc9565b9050919050565b7f4f6e6c79206f776e65722063616e2063616c6c207468697300000000000000005f82015250565b5f610d3d601883610b1c565b9150610d4882610d09565b602082019050919050565b5f6020820190508181035f830152610d6a81610d31565b9050919050565b7f41646472657373206e6f7420696e2077686974656c69737400000000000000005f82015250565b5f610da5601883610b1c565b9150610db082610d71565b602082019050919050565b5f6020820190508181035f830152610dd281610d99565b9050919050565b7f43616e6e6f7420616464207a65726f20616464726573730000000000000000005f82015250565b5f610e0d601783610b1c565b9150610e1882610dd9565b602082019050919050565b5f6020820190508181035f830152610e3a81610e01565b9050919050565b7f4164647265737320616c726561647920696e2077686974656c697374000000005f82015250565b5f610e75601c83610b1c565b9150610e8082610e41565b602082019050919050565b5f6020820190508181035f830152610ea281610e69565b9050919050565b7f4e487b71000000000000000000000000000000000000000000000000000000005f52604160045260245ffd5b7f4e487b71000000000000000000000000000000000000000000000000000000005f52603260045260245ffd5b7f416464726573735365743a20696e646578206f7574206f6620626f756e6473005f82015250565b5f610f37601f83610b1c565b9150610f4282610f03565b602082019050919050565b5f6020820190508181035f830152610f6481610f2b565b9050919050565b7f4e487b71000000000000000000000000000000000000000000000000000000005f52601160045260245ffd5b5f610fa282610a8c565b9150610fad83610a8c565b9250828203905081811115610fc557610fc4610f6b565b5b92915050565b7f4e487b71000000000000000000000000000000000000000000000000000000005f52603160045260245ffdfea26469706673582212206ca5fc3c4c48d0e85525b8b72f566bab3b80747f1a0d73c64bd136828c9d86f464736f6c634300081e0033",
					"opcodes": "PUSH1 0x80 PUSH1 0x40 MSTORE CALLVALUE DUP1 ISZERO PUSH1 0xE JUMPI PUSH0 PUSH0 REVERT JUMPDEST POP CALLER PUSH1 0x2 PUSH0 PUSH2 0x100 EXP DUP2 SLOAD DUP2 PUSH20 0xFFFFFFFFFFFFFFFFFFFFFFFFFFFFFFFFFFFFFFFF MUL NOT AND SWAP1 DUP4 PUSH20 0xFFFFFFFFFFFFFFFFFFFFFFFFFFFFFFFFFFFFFFFF AND MUL OR SWAP1 SSTORE POP PUSH2 0x102E DUP1 PUSH2 0x5C PUSH0 CODECOPY PUSH0 RETURN INVALID PUSH1 0x80 PUSH1 0x40 MSTORE CALLVALUE DUP1 ISZERO PUSH2 0xF JUMPI PUSH0 PUSH0 REVERT JUMPDEST POP PUSH1 0x4 CALLDATASIZE LT PUSH2 0x86 JUMPI PUSH0 CALLDATALOAD PUSH1 0xE0 SHR DUP1 PUSH4 0x8DA5CB5B GT PUSH2 0x59 JUMPI DUP1 PUSH4 0x8DA5CB5B EQ PUSH2 0x124 JUMPI DUP1 PUSH4 0x99DB89B5 EQ PUSH2 0x142 JUMPI DUP1 PUSH4 0xE43252D7 EQ PUSH2 0x160 JUMPI DUP1 PUSH4 0xF230BD7D EQ PUSH2 0x17C JUMPI PUSH2 0x86 JUMP JUMPDEST DUP1 PUSH4 0x3AF32ABF EQ PUSH2 0x8A JUMPI DUP1 PUSH4 0x565853AF EQ PUSH2 0xBA JUMPI DUP1 PUSH4 0x777ACF37 EQ PUSH2 0xEA JUMPI DUP1 PUSH4 0x8AB1D681 EQ PUSH2 0x108 JUMPI JUMPDEST PUSH0 PUSH0 REVERT JUMPDEST PUSH2 0xA4 PUSH1 0x4 DUP1 CALLDATASIZE SUB DUP2 ADD SWAP1 PUSH2 0x9F SWAP2 SWAP1 PUSH2 0xA2E JUMP JUMPDEST PUSH2 0x19A JUMP JUMPDEST PUSH1 0x40 MLOAD PUSH2 0xB1 SWAP2 SWAP1 PUSH2 0xA73 JUMP JUMPDEST PUSH1 0x40 MLOAD DUP1 SWAP2 SUB SWAP1 RETURN JUMPDEST PUSH2 0xD4 PUSH1 0x4 DUP1 CALLDATASIZE SUB DUP2 ADD SWAP1 PUSH2 0xCF SWAP2 SWAP1 PUSH2 0xABF JUMP JUMPDEST PUSH2 0x1B5 JUMP JUMPDEST PUSH1 0x40 MLOAD PUSH2 0xE1 SWAP2 SWAP1 PUSH2 0xAF9 JUMP JUMPDEST PUSH1 0x40 MLOAD DUP1 SWAP2 SUB SWAP1 RETURN JUMPDEST PUSH2 0xF2 PUSH2 0x1D0 JUMP JUMPDEST PUSH1 0x40 MLOAD PUSH2 0xFF SWAP2 SWAP1 PUSH2 0xB82 JUMP JUMPDEST PUSH1 0x40 MLOAD DUP1 SWAP2 SUB SWAP1 RETURN JUMPDEST PUSH2 0x122 PUSH1 0x4 DUP1 CALLDATASIZE SUB DUP2 ADD SWAP1 PUSH2 0x11D SWAP2 SWAP1 PUSH2 0xA2E JUMP JUMPDEST PUSH2 0x255 JUMP JUMPDEST STOP JUMPDEST PUSH2 0x12C PUSH2 0x37C JUMP JUMPDEST PUSH1 0x40 MLOAD PUSH2 0x139 SWAP2 SWAP1 PUSH2 0xAF9 JUMP JUMPDEST PUSH1 0x40 MLOAD DUP1 SWAP2 SUB SWAP1 RETURN JUMPDEST PUSH2 0x14A PUSH2 0x3A1 JUMP JUMPDEST PUSH1 0x40 MLOAD PUSH2 0x157 SWAP2 SWAP1 PUSH2 0xBB1 JUMP JUMPDEST PUSH1 0x40 MLOAD DUP1 SWAP2 SUB SWAP1 RETURN JUMPDEST PUSH2 0x17A PUSH1 0x4 DUP1 CALLDATASIZE SUB DUP2 ADD SWAP1 PUSH2 0x175 SWAP2 SWAP1 PUSH2 0xA2E JUMP JUMPDEST PUSH2 0x3B0 JUMP JUMPDEST STOP JUMPDEST PUSH2 0x184 PUSH2 0x545 JUMP JUMPDEST PUSH1 0x40 MLOAD PUSH2 0x191 SWAP2 SWAP1 PUSH2 0xC81 JUMP JUMPDEST PUSH1 0x40 MLOAD DUP1 SWAP2 SUB SWAP1 RETURN JUMPDEST PUSH0 PUSH2 0x1AE DUP3 PUSH0 PUSH2 0x622 SWAP1 SWAP2 SWAP1 PUSH4 0xFFFFFFFF AND JUMP JUMPDEST SWAP1 POP SWAP2 SWAP1 POP JUMP JUMPDEST PUSH0 PUSH2 0x1C9 DUP3 PUSH0 PUSH2 0x66E SWAP1 SWAP2 SWAP1 PUSH4 0xFFFFFFFF AND JUMP JUMPDEST SWAP1 POP SWAP2 SWAP1 POP JUMP JUMPDEST PUSH1 0x60 PUSH2 0x1DB CALLER PUSH2 0x19A JUMP JUMPDEST PUSH2 0x21A JUMPI PUSH1 0x40 MLOAD PUSH32 0x8C379A000000000000000000000000000000000000000000000000000000000 DUP2 MSTORE PUSH1 0x4 ADD PUSH2 0x211 SWAP1 PUSH2 0xCEB JUMP JUMPDEST PUSH1 0x40 MLOAD DUP1 SWAP2 SUB SWAP1 REVERT JUMPDEST PUSH1 0x40 MLOAD DUP1 PUSH1 0x40 ADD PUSH1 0x40 MSTORE DUP1 PUSH1 0x1D DUP2 MSTORE PUSH1 0x20 ADD PUSH32 0x57656C636F6D652120596F75206172652077686974656C69737465642E000000 DUP2 MSTORE POP SWAP1 POP SWAP1 JUMP JUMPDEST PUSH1 0x2 PUSH0 SWAP1 SLOAD SWAP1 PUSH2 0x100 EXP SWAP1 DIV PUSH20 0xFFFFFFFFFFFFFFFFFFFFFFFFFFFFFFFFFFFFFFFF AND PUSH20 0xFFFFFFFFFFFFFFFFFFFFFFFFFFFFFFFFFFFFFFFF AND CALLER PUSH20 0xFFFFFFFFFFFFFFFFFFFFFFFFFFFFFFFFFFFFFFFF AND EQ PUSH2 0x2E4 JUMPI PUSH1 0x40 MLOAD PUSH32 0x8C379A000000000000000000000000000000000000000000000000000000000 DUP2 MSTORE PUSH1 0x4 ADD PUSH2 0x2DB SWAP1 PUSH2 0xD53 JUMP JUMPDEST PUSH1 0x40 MLOAD DUP1 SWAP2 SUB SWAP1 REVERT JUMPDEST PUSH2 0x2F7 DUP2 PUSH0 PUSH2 0x6FC SWAP1 SWAP2 SWAP1 PUSH4 0xFFFFFFFF AND JUMP JUMPDEST PUSH2 0x336 JUMPI PUSH1 0x40 MLOAD PUSH32 0x8C379A000000000000000000000000000000000000000000000000000000000 DUP2 MSTORE PUSH1 0x4 ADD PUSH2 0x32D SWAP1 PUSH2 0xDBB JUMP JUMPDEST PUSH1 0x40 MLOAD DUP1 SWAP2 SUB SWAP1 REVERT JUMPDEST DUP1 PUSH20 0xFFFFFFFFFFFFFFFFFFFFFFFFFFFFFFFFFFFFFFFF AND PUSH32 0xCDD2E9B91A56913D370075169CEFA1602BA36BE5301664F752192BB1709DF757 PUSH1 0x40 MLOAD PUSH1 0x40 MLOAD DUP1 SWAP2 SUB SWAP1 LOG2 POP JUMP JUMPDEST PUSH1 0x2 PUSH0 SWAP1 SLOAD SWAP1 PUSH2 0x100 EXP SWAP1 DIV PUSH20 0xFFFFFFFFFFFFFFFFFFFFFFFFFFFFFFFFFFFFFFFF AND DUP2 JUMP JUMPDEST PUSH0 PUSH2 0x3AB PUSH0 PUSH2 0x8F3 JUMP JUMPDEST SWAP1 POP SWAP1 JUMP JUMPDEST PUSH1 0x2 PUSH0 SWAP1 SLOAD SWAP1 PUSH2 0x100 EXP SWAP1 DIV PUSH20 0xFFFFFFFFFFFFFFFFFFFFFFFFFFFFFFFFFFFFFFFF AND PUSH20 0xFFFFFFFFFFFFFFFFFFFFFFFFFFFFFFFFFFFFFFFF AND CALLER PUSH20 0xFFFFFFFFFFFFFFFFFFFFFFFFFFFFFFFFFFFFFFFF AND EQ PUSH2 0x43F JUMPI PUSH1 0x40 MLOAD PUSH32 0x8C379A000000000000000000000000000000000000000000000000000000000 DUP2 MSTORE PUSH1 0x4 ADD PUSH2 0x436 SWAP1 PUSH2 0xD53 JUMP JUMPDEST PUSH1 0x40 MLOAD DUP1 SWAP2 SUB SWAP1 REVERT JUMPDEST PUSH0 PUSH20 0xFFFFFFFFFFFFFFFFFFFFFFFFFFFFFFFFFFFFFFFF AND DUP2 PUSH20 0xFFFFFFFFFFFFFFFFFFFFFFFFFFFFFFFFFFFFFFFF AND SUB PUSH2 0x4AD JUMPI PUSH1 0x40 MLOAD PUSH32 0x8C379A000000000000000000000000000000000000000000000000000000000 DUP2 MSTORE PUSH1 0x4 ADD PUSH2 0x4A4 SWAP1 PUSH2 0xE23 JUMP JUMPDEST PUSH1 0x40 MLOAD DUP1 SWAP2 SUB SWAP1 REVERT JUMPDEST PUSH2 0x4C0 DUP2 PUSH0 PUSH2 0x902 SWAP1 SWAP2 SWAP1 PUSH4 0xFFFFFFFF AND JUMP JUMPDEST PUSH2 0x4FF JUMPI PUSH1 0x40 MLOAD PUSH32 0x8C379A000000000000000000000000000000000000000000000000000000000 DUP2 MSTORE PUSH1 0x4 ADD PUSH2 0x4F6 SWAP1 PUSH2 0xE8B JUMP JUMPDEST PUSH1 0x40 MLOAD DUP1 SWAP2 SUB SWAP1 REVERT JUMPDEST DUP1 PUSH20 0xFFFFFFFFFFFFFFFFFFFFFFFFFFFFFFFFFFFFFFFF AND PUSH32 0xA850AE9193F515CBAE8D35E8925BD2BE26627FC91BCE650B8652ED254E9CAB03 PUSH1 0x40 MLOAD PUSH1 0x40 MLOAD DUP1 SWAP2 SUB SWAP1 LOG2 POP JUMP JUMPDEST PUSH1 0x60 PUSH0 PUSH2 0x551 PUSH0 PUSH2 0x8F3 JUMP JUMPDEST SWAP1 POP PUSH0 DUP2 PUSH8 0xFFFFFFFFFFFFFFFF DUP2 GT ISZERO PUSH2 0x56E JUMPI PUSH2 0x56D PUSH2 0xEA9 JUMP JUMPDEST JUMPDEST PUSH1 0x40 MLOAD SWAP1 DUP1 DUP3 MSTORE DUP1 PUSH1 0x20 MUL PUSH1 0x20 ADD DUP3 ADD PUSH1 0x40 MSTORE DUP1 ISZERO PUSH2 0x59C JUMPI DUP2 PUSH1 0x20 ADD PUSH1 0x20 DUP3 MUL DUP1 CALLDATASIZE DUP4 CALLDATACOPY DUP1 DUP3 ADD SWAP2 POP POP SWAP1 POP JUMPDEST POP SWAP1 POP PUSH0 PUSH0 SWAP1 POP JUMPDEST DUP3 DUP2 LT ISZERO PUSH2 0x619 JUMPI PUSH2 0x5BF DUP2 PUSH0 PUSH2 0x66E SWAP1 SWAP2 SWAP1 PUSH4 0xFFFFFFFF AND JUMP JUMPDEST DUP3 DUP3 DUP2 MLOAD DUP2 LT PUSH2 0x5D2 JUMPI PUSH2 0x5D1 PUSH2 0xED6 JUMP JUMPDEST JUMPDEST PUSH1 0x20 MUL PUSH1 0x20 ADD ADD SWAP1 PUSH20 0xFFFFFFFFFFFFFFFFFFFFFFFFFFFFFFFFFFFFFFFF AND SWAP1 DUP2 PUSH20 0xFFFFFFFFFFFFFFFFFFFFFFFFFFFFFFFFFFFFFFFF AND DUP2 MSTORE POP POP DUP1 DUP1 PUSH1 0x1 ADD SWAP2 POP POP PUSH2 0x5A4 JUMP JUMPDEST POP DUP1 SWAP3 POP POP POP SWAP1 JUMP JUMPDEST PUSH0 PUSH0 DUP4 PUSH1 0x1 ADD PUSH0 DUP5 PUSH20 0xFFFFFFFFFFFFFFFFFFFFFFFFFFFFFFFFFFFFFFFF AND PUSH20 0xFFFFFFFFFFFFFFFFFFFFFFFFFFFFFFFFFFFFFFFF AND DUP2 MSTORE PUSH1 0x20 ADD SWAP1 DUP2 MSTORE PUSH1 0x20 ADD PUSH0 KECCAK256 SLOAD EQ ISZERO SWAP1 POP SWAP3 SWAP2 POP POP JUMP JUMPDEST PUSH0 DUP3 PUSH0 ADD DUP1 SLOAD SWAP1 POP DUP3 LT PUSH2 0x6B7 JUMPI PUSH1 0x40 MLOAD PUSH32 0x8C379A000000000000000000000000000000000000000000000000000000000 DUP2 MSTORE PUSH1 0x4 ADD PUSH2 0x6AE SWAP1 PUSH2 0xF4D JUMP JUMPDEST PUSH1 0x40 MLOAD DUP1 SWAP2 SUB SWAP1 REVERT JUMPDEST DUP3 PUSH0 ADD DUP3 DUP2 SLOAD DUP2 LT PUSH2 0x6CC JUMPI PUSH2 0x6CB PUSH2 0xED6 JUMP JUMPDEST JUMPDEST SWAP1 PUSH0 MSTORE PUSH1 0x20 PUSH0 KECCAK256 ADD PUSH0 SWAP1 SLOAD SWAP1 PUSH2 0x100 EXP SWAP1 DIV PUSH20 0xFFFFFFFFFFFFFFFFFFFFFFFFFFFFFFFFFFFFFFFF AND SWAP1 POP SWAP3 SWAP2 POP POP JUMP JUMPDEST PUSH0 PUSH0 DUP4 PUSH1 0x1 ADD PUSH0 DUP5 PUSH20 0xFFFFFFFFFFFFFFFFFFFFFFFFFFFFFFFFFFFFFFFF AND PUSH20 0xFFFFFFFFFFFFFFFFFFFFFFFFFFFFFFFFFFFFFFFF AND DUP2 MSTORE PUSH1 0x20 ADD SWAP1 DUP2 MSTORE PUSH1 0x20 ADD PUSH0 KECCAK256 SLOAD SWAP1 POP PUSH0 DUP2 SUB PUSH2 0x750 JUMPI PUSH0 SWAP2 POP POP PUSH2 0x8ED JUMP JUMPDEST PUSH0 PUSH1 0x1 DUP3 PUSH2 0x75E SWAP2 SWAP1 PUSH2 0xF98 JUMP JUMPDEST SWAP1 POP PUSH0 PUSH1 0x1 DUP7 PUSH0 ADD DUP1 SLOAD SWAP1 POP PUSH2 0x774 SWAP2 SWAP1 PUSH2 0xF98 JUMP JUMPDEST SWAP1 POP DUP1 DUP3 EQ PUSH2 0x85E JUMPI PUSH0 DUP7 PUSH0 ADD DUP3 DUP2 SLOAD DUP2 LT PUSH2 0x793 JUMPI PUSH2 0x792 PUSH2 0xED6 JUMP JUMPDEST JUMPDEST SWAP1 PUSH0 MSTORE PUSH1 0x20 PUSH0 KECCAK256 ADD PUSH0 SWAP1 SLOAD SWAP1 PUSH2 0x100 EXP SWAP1 DIV PUSH20 0xFFFFFFFFFFFFFFFFFFFFFFFFFFFFFFFFFFFFFFFF AND SWAP1 POP DUP1 DUP8 PUSH0 ADD DUP5 DUP2 SLOAD DUP2 LT PUSH2 0x7D3 JUMPI PUSH2 0x7D2 PUSH2 0xED6 JUMP JUMPDEST JUMPDEST SWAP1 PUSH0 MSTORE PUSH1 0x20 PUSH0 KECCAK256 ADD PUSH0 PUSH2 0x100 EXP DUP2 SLOAD DUP2 PUSH20 0xFFFFFFFFFFFFFFFFFFFFFFFFFFFFFFFFFFFFFFFF MUL NOT AND SWAP1 DUP4 PUSH20 0xFFFFFFFFFFFFFFFFFFFFFFFFFFFFFFFFFFFFFFFF AND MUL OR SWAP1 SSTORE POP DUP4 DUP8 PUSH1 0x1 ADD PUSH0 DUP4 PUSH20 0xFFFFFFFFFFFFFFFFFFFFFFFFFFFFFFFFFFFFFFFF AND PUSH20 0xFFFFFFFFFFFFFFFFFFFFFFFFFFFFFFFFFFFFFFFF AND DUP2 MSTORE PUSH1 0x20 ADD SWAP1 DUP2 MSTORE PUSH1 0x20 ADD PUSH0 KECCAK256 DUP2 SWAP1 SSTORE POP POP JUMPDEST DUP6 PUSH0 ADD DUP1 SLOAD DUP1 PUSH2 0x871 JUMPI PUSH2 0x870 PUSH2 0xFCB JUMP JUMPDEST JUMPDEST PUSH1 0x1 SWAP1 SUB DUP2 DUP2 SWAP1 PUSH0 MSTORE PUSH1 0x20 PUSH0 KECCAK256 ADD PUSH0 PUSH2 0x100 EXP DUP2 SLOAD SWAP1 PUSH20 0xFFFFFFFFFFFFFFFFFFFFFFFFFFFFFFFFFFFFFFFF MUL NOT AND SWAP1 SSTORE SWAP1 SSTORE DUP6 PUSH1 0x1 ADD PUSH0 DUP7 PUSH20 0xFFFFFFFFFFFFFFFFFFFFFFFFFFFFFFFFFFFFFFFF AND PUSH20 0xFFFFFFFFFFFFFFFFFFFFFFFFFFFFFFFFFFFFFFFF AND DUP2 MSTORE PUSH1 0x20 ADD SWAP1 DUP2 MSTORE PUSH1 0x20 ADD PUSH0 KECCAK256 PUSH0 SWAP1 SSTORE PUSH1 0x1 SWAP4 POP POP POP POP JUMPDEST SWAP3 SWAP2 POP POP JUMP JUMPDEST PUSH0 DUP2 PUSH0 ADD DUP1 SLOAD SWAP1 POP SWAP1 POP SWAP2 SWAP1 POP JUMP JUMPDEST PUSH0 PUSH2 0x90D DUP4 DUP4 PUSH2 0x622 JUMP JUMPDEST ISZERO PUSH2 0x91A JUMPI PUSH0 SWAP1 POP PUSH2 0x9CA JUMP JUMPDEST DUP3 PUSH0 ADD DUP3 SWAP1 DUP1 PUSH1 0x1 DUP2 SLOAD ADD DUP1 DUP3 SSTORE DUP1 SWAP2 POP POP PUSH1 0x1 SWAP1 SUB SWAP1 PUSH0 MSTORE PUSH1 0x20 PUSH0 KECCAK256 ADD PUSH0 SWAP1 SWAP2 SWAP1 SWAP2 SWAP1 SWAP2 PUSH2 0x100 EXP DUP2 SLOAD DUP2 PUSH20 0xFFFFFFFFFFFFFFFFFFFFFFFFFFFFFFFFFFFFFFFF MUL NOT AND SWAP1 DUP4 PUSH20 0xFFFFFFFFFFFFFFFFFFFFFFFFFFFFFFFFFFFFFFFF AND MUL OR SWAP1 SSTORE POP DUP3 PUSH0 ADD DUP1 SLOAD SWAP1 POP DUP4 PUSH1 0x1 ADD PUSH0 DUP5 PUSH20 0xFFFFFFFFFFFFFFFFFFFFFFFFFFFFFFFFFFFFFFFF AND PUSH20 0xFFFFFFFFFFFFFFFFFFFFFFFFFFFFFFFFFFFFFFFF AND DUP2 MSTORE PUSH1 0x20 ADD SWAP1 DUP2 MSTORE PUSH1 0x20 ADD PUSH0 KECCAK256 DUP2 SWAP1 SSTORE POP PUSH1 0x1 SWAP1 POP JUMPDEST SWAP3 SWAP2 POP POP JUMP JUMPDEST PUSH0 PUSH0 REVERT JUMPDEST PUSH0 PUSH20 0xFFFFFFFFFFFFFFFFFFFFFFFFFFFFFFFFFFFFFFFF DUP3 AND SWAP1 POP SWAP2 SWAP1 POP JUMP JUMPDEST PUSH0 PUSH2 0x9FD DUP3 PUSH2 0x9D4 JUMP JUMPDEST SWAP1 POP SWAP2 SWAP1 POP JUMP JUMPDEST PUSH2 0xA0D DUP2 PUSH2 0x9F3 JUMP JUMPDEST DUP2 EQ PUSH2 0xA17 JUMPI PUSH0 PUSH0 REVERT JUMPDEST POP JUMP JUMPDEST PUSH0 DUP2 CALLDATALOAD SWAP1 POP PUSH2 0xA28 DUP2 PUSH2 0xA04 JUMP JUMPDEST SWAP3 SWAP2 POP POP JUMP JUMPDEST PUSH0 PUSH1 0x20 DUP3 DUP5 SUB SLT ISZERO PUSH2 0xA43 JUMPI PUSH2 0xA42 PUSH2 0x9D0 JUMP JUMPDEST JUMPDEST PUSH0 PUSH2 0xA50 DUP5 DUP3 DUP6 ADD PUSH2 0xA1A JUMP JUMPDEST SWAP2 POP POP SWAP3 SWAP2 POP POP JUMP JUMPDEST PUSH0 DUP2 ISZERO ISZERO SWAP1 POP SWAP2 SWAP1 POP JUMP JUMPDEST PUSH2 0xA6D DUP2 PUSH2 0xA59 JUMP JUMPDEST DUP3 MSTORE POP POP JUMP JUMPDEST PUSH0 PUSH1 0x20 DUP3 ADD SWAP1 POP PUSH2 0xA86 PUSH0 DUP4 ADD DUP5 PUSH2 0xA64 JUMP JUMPDEST SWAP3 SWAP2 POP POP JUMP JUMPDEST PUSH0 DUP2 SWAP1 POP SWAP2 SWAP1 POP JUMP JUMPDEST PUSH2 0xA9E DUP2 PUSH2 0xA8C JUMP JUMPDEST DUP2 EQ PUSH2 0xAA8 JUMPI PUSH0 PUSH0 REVERT JUMPDEST POP JUMP JUMPDEST PUSH0 DUP2 CALLDATALOAD SWAP1 POP PUSH2 0xAB9 DUP2 PUSH2 0xA95 JUMP JUMPDEST SWAP3 SWAP2 POP POP JUMP JUMPDEST PUSH0 PUSH1 0x20 DUP3 DUP5 SUB SLT ISZERO PUSH2 0xAD4 JUMPI PUSH2 0xAD3 PUSH2 0x9D0 JUMP JUMPDEST JUMPDEST PUSH0 PUSH2 0xAE1 DUP5 DUP3 DUP6 ADD PUSH2 0xAAB JUMP JUMPDEST SWAP2 POP POP SWAP3 SWAP2 POP POP JUMP JUMPDEST PUSH2 0xAF3 DUP2 PUSH2 0x9F3 JUMP JUMPDEST DUP3 MSTORE POP POP JUMP JUMPDEST PUSH0 PUSH1 0x20 DUP3 ADD SWAP1 POP PUSH2 0xB0C PUSH0 DUP4 ADD DUP5 PUSH2 0xAEA JUMP JUMPDEST SWAP3 SWAP2 POP POP JUMP JUMPDEST PUSH0 DUP2 MLOAD SWAP1 POP SWAP2 SWAP1 POP JUMP JUMPDEST PUSH0 DUP3 DUP3 MSTORE PUSH1 0x20 DUP3 ADD SWAP1 POP SWAP3 SWAP2 POP POP JUMP JUMPDEST DUP3 DUP2 DUP4 MCOPY PUSH0 DUP4 DUP4 ADD MSTORE POP POP POP JUMP JUMPDEST PUSH0 PUSH1 0x1F NOT PUSH1 0x1F DUP4 ADD AND SWAP1 POP SWAP2 SWAP1 POP JUMP JUMPDEST PUSH0 PUSH2 0xB54 DUP3 PUSH2 0xB12 JUMP JUMPDEST PUSH2 0xB5E DUP2 DUP6 PUSH2 0xB1C JUMP JUMPDEST SWAP4 POP PUSH2 0xB6E DUP2 DUP6 PUSH1 0x20 DUP7 ADD PUSH2 0xB2C JUMP JUMPDEST PUSH2 0xB77 DUP2 PUSH2 0xB3A JUMP JUMPDEST DUP5 ADD SWAP2 POP POP SWAP3 SWAP2 POP POP JUMP JUMPDEST PUSH0 PUSH1 0x20 DUP3 ADD SWAP1 POP DUP2 DUP2 SUB PUSH0 DUP4 ADD MSTORE PUSH2 0xB9A DUP2 DUP5 PUSH2 0xB4A JUMP JUMPDEST SWAP1 POP SWAP3 SWAP2 POP POP JUMP JUMPDEST PUSH2 0xBAB DUP2 PUSH2 0xA8C JUMP JUMPDEST DUP3 MSTORE POP POP JUMP JUMPDEST PUSH0 PUSH1 0x20 DUP3 ADD SWAP1 POP PUSH2 0xBC4 PUSH0 DUP4 ADD DUP5 PUSH2 0xBA2 JUMP JUMPDEST SWAP3 SWAP2 POP POP JUMP JUMPDEST PUSH0 DUP2 MLOAD SWAP1 POP SWAP2 SWAP1 POP JUMP JUMPDEST PUSH0 DUP3 DUP3 MSTORE PUSH1 0x20 DUP3 ADD SWAP1 POP SWAP3 SWAP2 POP POP JUMP JUMPDEST PUSH0 DUP2 SWAP1 POP PUSH1 0x20 DUP3 ADD SWAP1 POP SWAP2 SWAP1 POP JUMP JUMPDEST PUSH2 0xBFC DUP2 PUSH2 0x9F3 JUMP JUMPDEST DUP3 MSTORE POP POP JUMP JUMPDEST PUSH0 PUSH2 0xC0D DUP4 DUP4 PUSH2 0xBF3 JUMP JUMPDEST PUSH1 0x20 DUP4 ADD SWAP1 POP SWAP3 SWAP2 POP POP JUMP JUMPDEST PUSH0 PUSH1 0x20 DUP3 ADD SWAP1 POP SWAP2 SWAP1 POP JUMP JUMPDEST PUSH0 PUSH2 0xC2F DUP3 PUSH2 0xBCA JUMP JUMPDEST PUSH2 0xC39 DUP2 DUP6 PUSH2 0xBD4 JUMP JUMPDEST SWAP4 POP PUSH2 0xC44 DUP4 PUSH2 0xBE4 JUMP JUMPDEST DUP1 PUSH0 JUMPDEST DUP4 DUP2 LT ISZERO PUSH2 0xC74 JUMPI DUP2 MLOAD PUSH2 0xC5B DUP9 DUP3 PUSH2 0xC02 JUMP JUMPDEST SWAP8 POP PUSH2 0xC66 DUP4 PUSH2 0xC19 JUMP JUMPDEST SWAP3 POP POP PUSH1 0x1 DUP2 ADD SWAP1 POP PUSH2 0xC47 JUMP JUMPDEST POP DUP6 SWAP4 POP POP POP POP SWAP3 SWAP2 POP POP JUMP JUMPDEST PUSH0 PUSH1 0x20 DUP3 ADD SWAP1 POP DUP2 DUP2 SUB PUSH0 DUP4 ADD MSTORE PUSH2 0xC99 DUP2 DUP5 PUSH2 0xC25 JUMP JUMPDEST SWAP1 POP SWAP3 SWAP2 POP POP JUMP JUMPDEST PUSH32 0x4E6F742077686974656C69737465640000000000000000000000000000000000 PUSH0 DUP3 ADD MSTORE POP JUMP JUMPDEST PUSH0 PUSH2 0xCD5 PUSH1 0xF DUP4 PUSH2 0xB1C JUMP JUMPDEST SWAP2 POP PUSH2 0xCE0 DUP3 PUSH2 0xCA1 JUMP JUMPDEST PUSH1 0x20 DUP3 ADD SWAP1 POP SWAP2 SWAP1 POP JUMP JUMPDEST PUSH0 PUSH1 0x20 DUP3 ADD SWAP1 POP DUP2 DUP2 SUB PUSH0 DUP4 ADD MSTORE PUSH2 0xD02 DUP2 PUSH2 0xCC9 JUMP JUMPDEST SWAP1 POP SWAP2 SWAP1 POP JUMP JUMPDEST PUSH32 0x4F6E6C79206F776E65722063616E2063616C6C20746869730000000000000000 PUSH0 DUP3 ADD MSTORE POP JUMP JUMPDEST PUSH0 PUSH2 0xD3D PUSH1 0x18 DUP4 PUSH2 0xB1C JUMP JUMPDEST SWAP2 POP PUSH2 0xD48 DUP3 PUSH2 0xD09 JUMP JUMPDEST PUSH1 0x20 DUP3 ADD SWAP1 POP SWAP2 SWAP1 POP JUMP JUMPDEST PUSH0 PUSH1 0x20 DUP3 ADD SWAP1 POP DUP2 DUP2 SUB PUSH0 DUP4 ADD MSTORE PUSH2 0xD6A DUP2 PUSH2 0xD31 JUMP JUMPDEST SWAP1 POP SWAP2 SWAP1 POP JUMP JUMPDEST PUSH32 0x41646472657373206E6F7420696E2077686974656C6973740000000000000000 PUSH0 DUP3 ADD MSTORE POP JUMP JUMPDEST PUSH0 PUSH2 0xDA5 PUSH1 0x18 DUP4 PUSH2 0xB1C JUMP JUMPDEST SWAP2 POP PUSH2 0xDB0 DUP3 PUSH2 0xD71 JUMP JUMPDEST PUSH1 0x20 DUP3 ADD SWAP1 POP SWAP2 SWAP1 POP JUMP JUMPDEST PUSH0 PUSH1 0x20 DUP3 ADD SWAP1 POP DUP2 DUP2 SUB PUSH0 DUP4 ADD MSTORE PUSH2 0xDD2 DUP2 PUSH2 0xD99 JUMP JUMPDEST SWAP1 POP SWAP2 SWAP1 POP JUMP JUMPDEST PUSH32 0x43616E6E6F7420616464207A65726F2061646472657373000000000000000000 PUSH0 DUP3 ADD MSTORE POP JUMP JUMPDEST PUSH0 PUSH2 0xE0D PUSH1 0x17 DUP4 PUSH2 0xB1C JUMP JUMPDEST SWAP2 POP PUSH2 0xE18 DUP3 PUSH2 0xDD9 JUMP JUMPDEST PUSH1 0x20 DUP3 ADD SWAP1 POP SWAP2 SWAP1 POP JUMP JUMPDEST PUSH0 PUSH1 0x20 DUP3 ADD SWAP1 POP DUP2 DUP2 SUB PUSH0 DUP4 ADD MSTORE PUSH2 0xE3A DUP2 PUSH2 0xE01 JUMP JUMPDEST SWAP1 POP SWAP2 SWAP1 POP JUMP JUMPDEST PUSH32 0x4164647265737320616C726561647920696E2077686974656C69737400000000 PUSH0 DUP3 ADD MSTORE POP JUMP JUMPDEST PUSH0 PUSH2 0xE75 PUSH1 0x1C DUP4 PUSH2 0xB1C JUMP JUMPDEST SWAP2 POP PUSH2 0xE80 DUP3 PUSH2 0xE41 JUMP JUMPDEST PUSH1 0x20 DUP3 ADD SWAP1 POP SWAP2 SWAP1 POP JUMP JUMPDEST PUSH0 PUSH1 0x20 DUP3 ADD SWAP1 POP DUP2 DUP2 SUB PUSH0 DUP4 ADD MSTORE PUSH2 0xEA2 DUP2 PUSH2 0xE69 JUMP JUMPDEST SWAP1 POP SWAP2 SWAP1 POP JUMP JUMPDEST PUSH32 0x4E487B7100000000000000000000000000000000000000000000000000000000 PUSH0 MSTORE PUSH1 0x41 PUSH1 0x4 MSTORE PUSH1 0x24 PUSH0 REVERT JUMPDEST PUSH32 0x4E487B7100000000000000000000000000000000000000000000000000000000 PUSH0 MSTORE PUSH1 0x32 PUSH1 0x4 MSTORE PUSH1 0x24 PUSH0 REVERT JUMPDEST PUSH32 0x416464726573735365743A20696E646578206F7574206F6620626F756E647300 PUSH0 DUP3 ADD MSTORE POP JUMP JUMPDEST PUSH0 PUSH2 0xF37 PUSH1 0x1F DUP4 PUSH2 0xB1C JUMP JUMPDEST SWAP2 POP PUSH2 0xF42 DUP3 PUSH2 0xF03 JUMP JUMPDEST PUSH1 0x20 DUP3 ADD SWAP1 POP SWAP2 SWAP1 POP JUMP JUMPDEST PUSH0 PUSH1 0x20 DUP3 ADD SWAP1 POP DUP2 DUP2 SUB PUSH0 DUP4 ADD MSTORE PUSH2 0xF64 DUP2 PUSH2 0xF2B JUMP JUMPDEST SWAP1 POP SWAP2 SWAP1 POP JUMP JUMPDEST PUSH32 0x4E487B7100000000000000000000000000000000000000000000000000000000 PUSH0 MSTORE PUSH1 0x11 PUSH1 0x4 MSTORE PUSH1 0x24 PUSH0 REVERT JUMPDEST PUSH0 PUSH2 0xFA2 DUP3 PUSH2 0xA8C JUMP JUMPDEST SWAP2 POP PUSH2 0xFAD DUP4 PUSH2 0xA8C JUMP JUMPDEST SWAP3 POP DUP3 DUP3 SUB SWAP1 POP DUP2 DUP2 GT ISZERO PUSH2 0xFC5 JUMPI PUSH2 0xFC4 PUSH2 0xF6B JUMP JUMPDEST JUMPDEST SWAP3 SWAP2 POP POP JUMP JUMPDEST PUSH32 0x4E487B7100000000000000000000000000000000000000000000000000000000 PUSH0 MSTORE PUSH1 0x31 PUSH1 0x4 MSTORE PUSH1 0x24 PUSH0 REVERT INVALID LOG2 PUSH5 0x6970667358 0x22 SLT KECCAK256 PUSH13 0xA5FC3C4C48D0E85525B8B72F56 PUSH12 0xAB3B80747F1A0D73C64BD136 DUP3 DUP13 SWAP14 DUP7 DELEGATECALL PUSH5 0x736F6C6343 STOP ADDMOD 0x1E STOP CALLER "
				},
				"gasEstimates": {
					"creation": {
						"codeDepositCost": "828400",
						"executionCost": "25127",
						"totalCost": "853527"
					},
					"external": {
						"addToWhitelist(address)": "infinite",
						"getAllWhitelistAddresses()": "infinite",
						"getWhitelistAddress(uint256)": "infinite",
						"getWhitelistSize()": "2508",
						"isWhitelisted(address)": "infinite",
						"owner()": "2508",
						"removeFromWhitelist(address)": "infinite",
						"restrictedFunction()": "infinite"
					}
				},
				"methodIdentifiers": {
					"addToWhitelist(address)": "e43252d7",
					"getAllWhitelistAddresses()": "f230bd7d",
					"getWhitelistAddress(uint256)": "565853af",
					"getWhitelistSize()": "99db89b5",
					"isWhitelisted(address)": "3af32abf",
					"owner()": "8da5cb5b",
					"removeFromWhitelist(address)": "8ab1d681",
					"restrictedFunction()": "777acf37"
				}
			},
			"storageLayout": {
				"storage": [
					{
						"astId": 194,
						"contract": "contracts/‎WhiteList.sol:WhiteList",
						"label": "whitelist",
						"offset": 0,
						"slot": "0",
						"type": "t_struct(Set)9_storage"
					},
					{
						"astId": 196,
						"contract": "contracts/‎WhiteList.sol:WhiteList",
						"label": "owner",
						"offset": 0,
						"slot": "2",
						"type": "t_address"
					}
				],
				"types": {
					"t_address": {
						"encoding": "inplace",
						"label": "address",
						"numberOfBytes": "20"
					},
					"t_array(t_address)dyn_storage": {
						"base": "t_address",
						"encoding": "dynamic_array",
						"label": "address[]",
						"numberOfBytes": "32"
					},
					"t_mapping(t_address,t_uint256)": {
						"encoding": "mapping",
						"key": "t_address",
						"label": "mapping(address => uint256)",
						"numberOfBytes": "32",
						"value": "t_uint256"
					},
					"t_struct(Set)9_storage": {
						"encoding": "inplace",
						"label": "struct AddressSet.Set",
						"members": [
							{
								"astId": 4,
								"contract": "contracts/‎WhiteList.sol:WhiteList",
								"label": "values",
								"offset": 0,
								"slot": "0",
								"type": "t_array(t_address)dyn_storage"
							},
							{
								"astId": 8,
								"contract": "contracts/‎WhiteList.sol:WhiteList",
								"label": "indexes",
								"offset": 0,
								"slot": "1",
								"type": "t_mapping(t_address,t_uint256)"
							}
						],
						"numberOfBytes": "64"
					},
					"t_uint256": {
						"encoding": "inplace",
						"label": "uint256",
						"numberOfBytes": "32"
					}
				}
			},
			"userdoc": {
				"kind": "user",
				"methods": {},
				"version": 1
			}
		}
	}
}