{
	"contracts/SafeCounter.sol": {
		"SafeCounter": {
			"abi": [
				{
					"inputs": [],
					"name": "count",
					"outputs": [
						{
							"internalType": "uint256",
							"name": "",
							"type": "uint256"
						}
					],
					"stateMutability": "view",
					"type": "function"
				},
				{
					"inputs": [],
					"name": "decrement",
					"outputs": [],
					"stateMutability": "nonpayable",
					"type": "function"
				},
				{
					"inputs": [],
					"name": "increment",
					"outputs": [],
					"stateMutability": "nonpayable",
					"type": "function"
				},
				{
					"inputs": [],
					"name": "safeDecrement",
					"outputs": [],
					"stateMutability": "nonpayable",
					"type": "function"
				}
			],
			"devdoc": {
				"kind": "dev",
				"methods": {},
				"version": 1
			},
			"evm": {
				"assembly": "    /* \"contracts/SafeCounter.sol\":58:643  contract SafeCounter {... */\n  mstore(0x40, 0x80)\n  callvalue\n  dup1\n  iszero\n  tag_1\n  jumpi\n  revert(0x00, 0x00)\ntag_1:\n  pop\n  dataSize(sub_0)\n  dup1\n  dataOffset(sub_0)\n  0x00\n  codecopy\n  0x00\n  return\nstop\n\nsub_0: assembly {\n        /* \"contracts/SafeCounter.sol\":58:643  contract SafeCounter {... */\n      mstore(0x40, 0x80)\n      callvalue\n      dup1\n      iszero\n      tag_1\n      jumpi\n      revert(0x00, 0x00)\n    tag_1:\n      pop\n      jumpi(tag_2, lt(calldatasize, 0x04))\n      shr(0xe0, calldataload(0x00))\n      dup1\n      0x06661abd\n      eq\n      tag_3\n      jumpi\n      dup1\n      0x2baeceb7\n      eq\n      tag_4\n      jumpi\n      dup1\n      0x33df49a3\n      eq\n      tag_5\n      jumpi\n      dup1\n      0xd09de08a\n      eq\n      tag_6\n      jumpi\n    tag_2:\n      revert(0x00, 0x00)\n        /* \"contracts/SafeCounter.sol\":85:105  uint256 public count */\n    tag_3:\n      tag_7\n      tag_8\n      jump\t// in\n    tag_7:\n      mload(0x40)\n      tag_9\n      swap2\n      swap1\n      tag_10\n      jump\t// in\n    tag_9:\n      mload(0x40)\n      dup1\n      swap2\n      sub\n      swap1\n      return\n        /* \"contracts/SafeCounter.sol\":341:488  function decrement() public {... */\n    tag_4:\n      tag_11\n      tag_12\n      jump\t// in\n    tag_11:\n      stop\n        /* \"contracts/SafeCounter.sol\":494:641  function safeDecrement() public {... */\n    tag_5:\n      tag_13\n      tag_14\n      jump\t// in\n    tag_13:\n      stop\n        /* \"contracts/SafeCounter.sol\":112:335  function increment() public {... */\n    tag_6:\n      tag_15\n      tag_16\n      jump\t// in\n    tag_15:\n      stop\n        /* \"contracts/SafeCounter.sol\":85:105  uint256 public count */\n    tag_8:\n      sload(0x00)\n      dup2\n      jump\t// out\n        /* \"contracts/SafeCounter.sol\":341:488  function decrement() public {... */\n    tag_12:\n        /* \"contracts/SafeCounter.sol\":395:396  1 */\n      0x01\n        /* \"contracts/SafeCounter.sol\":387:392  count */\n      sload(0x00)\n        /* \"contracts/SafeCounter.sol\":387:396  count - 1 */\n      tag_18\n      swap2\n      swap1\n      tag_19\n      jump\t// in\n    tag_18:\n        /* \"contracts/SafeCounter.sol\":379:384  count */\n      0x00\n        /* \"contracts/SafeCounter.sol\":379:396  count = count - 1 */\n      dup2\n      swap1\n      sstore\n      pop\n        /* \"contracts/SafeCounter.sol\":341:488  function decrement() public {... */\n      jump\t// out\n        /* \"contracts/SafeCounter.sol\":494:641  function safeDecrement() public {... */\n    tag_14:\n        /* \"contracts/SafeCounter.sol\":552:553  0 */\n      0x00\n        /* \"contracts/SafeCounter.sol\":544:549  count */\n      sload(0x00)\n        /* \"contracts/SafeCounter.sol\":544:553  count > 0 */\n      gt\n        /* \"contracts/SafeCounter.sol\":536:579  require(count > 0, \"Count is already zero\") */\n      tag_21\n      jumpi\n      mload(0x40)\n      0x08c379a000000000000000000000000000000000000000000000000000000000\n      dup2\n      mstore\n      0x04\n      add\n      tag_22\n      swap1\n      tag_23\n      jump\t// in\n    tag_22:\n      mload(0x40)\n      dup1\n      swap2\n      sub\n      swap1\n      revert\n    tag_21:\n        /* \"contracts/SafeCounter.sol\":605:606  1 */\n      0x01\n        /* \"contracts/SafeCounter.sol\":597:602  count */\n      sload(0x00)\n        /* \"contracts/SafeCounter.sol\":597:606  count - 1 */\n      tag_24\n      swap2\n      swap1\n      tag_19\n      jump\t// in\n    tag_24:\n        /* \"contracts/SafeCounter.sol\":589:594  count */\n      0x00\n        /* \"contracts/SafeCounter.sol\":589:606  count = count - 1 */\n      dup2\n      swap1\n      sstore\n      pop\n        /* \"contracts/SafeCounter.sol\":494:641  function safeDecrement() public {... */\n      jump\t// out\n        /* \"contracts/SafeCounter.sol\":112:335  function increment() public {... */\n    tag_16:\n        /* \"contracts/SafeCounter.sol\":166:167  1 */\n      0x01\n        /* \"contracts/SafeCounter.sol\":158:163  count */\n      sload(0x00)\n        /* \"contracts/SafeCounter.sol\":158:167  count + 1 */\n      tag_26\n      swap2\n      swap1\n      tag_27\n      jump\t// in\n    tag_26:\n        /* \"contracts/SafeCounter.sol\":150:155  count */\n      0x00\n        /* \"contracts/SafeCounter.sol\":150:167  count = count + 1 */\n      dup2\n      swap1\n      sstore\n      pop\n        /* \"contracts/SafeCounter.sol\":112:335  function increment() public {... */\n      jump\t// out\n        /* \"#utility.yul\":7:84   */\n    tag_28:\n        /* \"#utility.yul\":44:51   */\n      0x00\n        /* \"#utility.yul\":73:78   */\n      dup2\n        /* \"#utility.yul\":62:78   */\n      swap1\n      pop\n        /* \"#utility.yul\":7:84   */\n      swap2\n      swap1\n      pop\n      jump\t// out\n        /* \"#utility.yul\":90:208   */\n    tag_29:\n        /* \"#utility.yul\":177:201   */\n      tag_37\n        /* \"#utility.yul\":195:200   */\n      dup2\n        /* \"#utility.yul\":177:201   */\n      tag_28\n      jump\t// in\n    tag_37:\n        /* \"#utility.yul\":172:175   */\n      dup3\n        /* \"#utility.yul\":165:202   */\n      mstore\n        /* \"#utility.yul\":90:208   */\n      pop\n      pop\n      jump\t// out\n        /* \"#utility.yul\":214:436   */\n    tag_10:\n        /* \"#utility.yul\":307:311   */\n      0x00\n        /* \"#utility.yul\":345:347   */\n      0x20\n        /* \"#utility.yul\":334:343   */\n      dup3\n        /* \"#utility.yul\":330:348   */\n      add\n        /* \"#utility.yul\":322:348   */\n      swap1\n      pop\n        /* \"#utility.yul\":358:429   */\n      tag_39\n        /* \"#utility.yul\":426:427   */\n      0x00\n        /* \"#utility.yul\":415:424   */\n      dup4\n        /* \"#utility.yul\":411:428   */\n      add\n        /* \"#utility.yul\":402:408   */\n      dup5\n        /* \"#utility.yul\":358:429   */\n      tag_29\n      jump\t// in\n    tag_39:\n        /* \"#utility.yul\":214:436   */\n      swap3\n      swap2\n      pop\n      pop\n      jump\t// out\n        /* \"#utility.yul\":442:622   */\n    tag_30:\n        /* \"#utility.yul\":490:567   */\n      0x4e487b7100000000000000000000000000000000000000000000000000000000\n        /* \"#utility.yul\":487:488   */\n      0x00\n        /* \"#utility.yul\":480:568   */\n      mstore\n        /* \"#utility.yul\":587:591   */\n      0x11\n        /* \"#utility.yul\":584:585   */\n      0x04\n        /* \"#utility.yul\":577:592   */\n      mstore\n        /* \"#utility.yul\":611:615   */\n      0x24\n        /* \"#utility.yul\":608:609   */\n      0x00\n        /* \"#utility.yul\":601:616   */\n      revert\n        /* \"#utility.yul\":628:822   */\n    tag_19:\n        /* \"#utility.yul\":668:672   */\n      0x00\n        /* \"#utility.yul\":688:708   */\n      tag_42\n        /* \"#utility.yul\":706:707   */\n      dup3\n        /* \"#utility.yul\":688:708   */\n      tag_28\n      jump\t// in\n    tag_42:\n        /* \"#utility.yul\":683:708   */\n      swap2\n      pop\n        /* \"#utility.yul\":722:742   */\n      tag_43\n        /* \"#utility.yul\":740:741   */\n      dup4\n        /* \"#utility.yul\":722:742   */\n      tag_28\n      jump\t// in\n    tag_43:\n        /* \"#utility.yul\":717:742   */\n      swap3\n      pop\n        /* \"#utility.yul\":766:767   */\n      dup3\n        /* \"#utility.yul\":763:764   */\n      dup3\n        /* \"#utility.yul\":759:768   */\n      sub\n        /* \"#utility.yul\":751:768   */\n      swap1\n      pop\n        /* \"#utility.yul\":790:791   */\n      dup2\n        /* \"#utility.yul\":784:788   */\n      dup2\n        /* \"#utility.yul\":781:792   */\n      gt\n        /* \"#utility.yul\":778:815   */\n      iszero\n      tag_44\n      jumpi\n        /* \"#utility.yul\":795:813   */\n      tag_45\n      tag_30\n      jump\t// in\n    tag_45:\n        /* \"#utility.yul\":778:815   */\n    tag_44:\n        /* \"#utility.yul\":628:822   */\n      swap3\n      swap2\n      pop\n      pop\n      jump\t// out\n        /* \"#utility.yul\":828:997   */\n    tag_31:\n        /* \"#utility.yul\":912:923   */\n      0x00\n        /* \"#utility.yul\":946:952   */\n      dup3\n        /* \"#utility.yul\":941:944   */\n      dup3\n        /* \"#utility.yul\":934:953   */\n      mstore\n        /* \"#utility.yul\":986:990   */\n      0x20\n        /* \"#utility.yul\":981:984   */\n      dup3\n        /* \"#utility.yul\":977:991   */\n      add\n        /* \"#utility.yul\":962:991   */\n      swap1\n      pop\n        /* \"#utility.yul\":828:997   */\n      swap3\n      swap2\n      pop\n      pop\n      jump\t// out\n        /* \"#utility.yul\":1003:1174   */\n    tag_32:\n        /* \"#utility.yul\":1143:1166   */\n      0x436f756e7420697320616c7265616479207a65726f0000000000000000000000\n        /* \"#utility.yul\":1139:1140   */\n      0x00\n        /* \"#utility.yul\":1131:1137   */\n      dup3\n        /* \"#utility.yul\":1127:1141   */\n      add\n        /* \"#utility.yul\":1120:1167   */\n      mstore\n        /* \"#utility.yul\":1003:1174   */\n      pop\n      jump\t// out\n        /* \"#utility.yul\":1180:1546   */\n    tag_33:\n        /* \"#utility.yul\":1322:1325   */\n      0x00\n        /* \"#utility.yul\":1343:1410   */\n      tag_49\n        /* \"#utility.yul\":1407:1409   */\n      0x15\n        /* \"#utility.yul\":1402:1405   */\n      dup4\n        /* \"#utility.yul\":1343:1410   */\n      tag_31\n      jump\t// in\n    tag_49:\n        /* \"#utility.yul\":1336:1410   */\n      swap2\n      pop\n        /* \"#utility.yul\":1419:1512   */\n      tag_50\n        /* \"#utility.yul\":1508:1511   */\n      dup3\n        /* \"#utility.yul\":1419:1512   */\n      tag_32\n      jump\t// in\n    tag_50:\n        /* \"#utility.yul\":1537:1539   */\n      0x20\n        /* \"#utility.yul\":1532:1535   */\n      dup3\n        /* \"#utility.yul\":1528:1540   */\n      add\n        /* \"#utility.yul\":1521:1540   */\n      swap1\n      pop\n        /* \"#utility.yul\":1180:1546   */\n      swap2\n      swap1\n      pop\n      jump\t// out\n        /* \"#utility.yul\":1552:1971   */\n    tag_23:\n        /* \"#utility.yul\":1718:1722   */\n      0x00\n        /* \"#utility.yul\":1756:1758   */\n      0x20\n        /* \"#utility.yul\":1745:1754   */\n      dup3\n        /* \"#utility.yul\":1741:1759   */\n      add\n        /* \"#utility.yul\":1733:1759   */\n      swap1\n      pop\n        /* \"#utility.yul\":1805:1814   */\n      dup2\n        /* \"#utility.yul\":1799:1803   */\n      dup2\n        /* \"#utility.yul\":1795:1815   */\n      sub\n        /* \"#utility.yul\":1791:1792   */\n      0x00\n        /* \"#utility.yul\":1780:1789   */\n      dup4\n        /* \"#utility.yul\":1776:1793   */\n      add\n        /* \"#utility.yul\":1769:1816   */\n      mstore\n        /* \"#utility.yul\":1833:1964   */\n      tag_52\n        /* \"#utility.yul\":1959:1963   */\n      dup2\n        /* \"#utility.yul\":1833:1964   */\n      tag_33\n      jump\t// in\n    tag_52:\n        /* \"#utility.yul\":1825:1964   */\n      swap1\n      pop\n        /* \"#utility.yul\":1552:1971   */\n      swap2\n      swap1\n      pop\n      jump\t// out\n        /* \"#utility.yul\":1977:2168   */\n    tag_27:\n        /* \"#utility.yul\":2017:2020   */\n      0x00\n        /* \"#utility.yul\":2036:2056   */\n      tag_54\n        /* \"#utility.yul\":2054:2055   */\n      dup3\n        /* \"#utility.yul\":2036:2056   */\n      tag_28\n      jump\t// in\n    tag_54:\n        /* \"#utility.yul\":2031:2056   */\n      swap2\n      pop\n        /* \"#utility.yul\":2070:2090   */\n      tag_55\n        /* \"#utility.yul\":2088:2089   */\n      dup4\n        /* \"#utility.yul\":2070:2090   */\n      tag_28\n      jump\t// in\n    tag_55:\n        /* \"#utility.yul\":2065:2090   */\n      swap3\n      pop\n        /* \"#utility.yul\":2113:2114   */\n      dup3\n        /* \"#utility.yul\":2110:2111   */\n      dup3\n        /* \"#utility.yul\":2106:2115   */\n      add\n        /* \"#utility.yul\":2099:2115   */\n      swap1\n      pop\n        /* \"#utility.yul\":2134:2137   */\n      dup1\n        /* \"#utility.yul\":2131:2132   */\n      dup3\n        /* \"#utility.yul\":2128:2138   */\n      gt\n        /* \"#utility.yul\":2125:2161   */\n      iszero\n      tag_56\n      jumpi\n        /* \"#utility.yul\":2141:2159   */\n      tag_57\n      tag_30\n      jump\t// in\n    tag_57:\n        /* \"#utility.yul\":2125:2161   */\n    tag_56:\n        /* \"#utility.yul\":1977:2168   */\n      swap3\n      swap2\n      pop\n      pop\n      jump\t// out\n\n    auxdata: 0xa26469706673582212201581d9dd6ef3720ab6667977b3957508b6a642242201a00f2eedc3c0f109b67364736f6c634300081e0033\n}\n",
				"bytecode": {
					"linkReferences": {},
					"object": "6080604052348015600e575f5ffd5b506102838061001c5f395ff3fe608060405234801561000f575f5ffd5b506004361061004a575f3560e01c806306661abd1461004e5780632baeceb71461006c57806333df49a314610076578063d09de08a14610080575b5f5ffd5b61005661008a565b6040516100639190610129565b60405180910390f35b61007461008f565b005b61007e6100a4565b005b6100886100fc565b005b5f5481565b60015f5461009d919061016f565b5f81905550565b5f5f54116100e7576040517f08c379a00000000000000000000000000000000000000000000000000000000081526004016100de906101fc565b60405180910390fd5b60015f546100f5919061016f565b5f81905550565b60015f5461010a919061021a565b5f81905550565b5f819050919050565b61012381610111565b82525050565b5f60208201905061013c5f83018461011a565b92915050565b7f4e487b71000000000000000000000000000000000000000000000000000000005f52601160045260245ffd5b5f61017982610111565b915061018483610111565b925082820390508181111561019c5761019b610142565b5b92915050565b5f82825260208201905092915050565b7f436f756e7420697320616c7265616479207a65726f00000000000000000000005f82015250565b5f6101e66015836101a2565b91506101f1826101b2565b602082019050919050565b5f6020820190508181035f830152610213816101da565b9050919050565b5f61022482610111565b915061022f83610111565b925082820190508082111561024757610246610142565b5b9291505056fea26469706673582212201581d9dd6ef3720ab6667977b3957508b6a642242201a00f2eedc3c0f109b67364736f6c634300081e0033",
					"opcodes": "PUSH1 0x80 PUSH1 0x40 MSTORE CALLVALUE DUP1 ISZERO PUSH1 0xE JUMPI PUSH0 PUSH0 REVERT JUMPDEST POP PUSH2 0x283 DUP1 PUSH2 0x1C PUSH0 CODECOPY PUSH0 RETURN INVALID PUSH1 0x80 PUSH1 0x40 MSTORE CALLVALUE DUP1 ISZERO PUSH2 0xF JUMPI PUSH0 PUSH0 REVERT JUMPDEST POP PUSH1 0x4 CALLDATASIZE LT PUSH2 0x4A JUMPI PUSH0 CALLDATALOAD PUSH1 0xE0 SHR DUP1 PUSH4 0x6661ABD EQ PUSH2 0x4E JUMPI DUP1 PUSH4 0x2BAECEB7 EQ PUSH2 0x6C JUMPI DUP1 PUSH4 0x33DF49A3 EQ PUSH2 0x76 JUMPI DUP1 PUSH4 0xD09DE08A EQ PUSH2 0x80 JUMPI JUMPDEST PUSH0 PUSH0 REVERT JUMPDEST PUSH2 0x56 PUSH2 0x8A JUMP JUMPDEST PUSH1 0x40 MLOAD PUSH2 0x63 SWAP2 SWAP1 PUSH2 0x129 JUMP JUMPDEST PUSH1 0x40 MLOAD DUP1 SWAP2 SUB SWAP1 RETURN JUMPDEST PUSH2 0x74 PUSH2 0x8F JUMP JUMPDEST STOP JUMPDEST PUSH2 0x7E PUSH2 0xA4 JUMP JUMPDEST STOP JUMPDEST PUSH2 0x88 PUSH2 0xFC JUMP JUMPDEST STOP JUMPDEST PUSH0 SLOAD DUP2 JUMP JUMPDEST PUSH1 0x1 PUSH0 SLOAD PUSH2 0x9D SWAP2 SWAP1 PUSH2 0x16F JUMP JUMPDEST PUSH0 DUP2 SWAP1 SSTORE POP JUMP JUMPDEST PUSH0 PUSH0 SLOAD GT PUSH2 0xE7 JUMPI PUSH1 0x40 MLOAD PUSH32 0x8C379A000000000000000000000000000000000000000000000000000000000 DUP2 MSTORE PUSH1 0x4 ADD PUSH2 0xDE SWAP1 PUSH2 0x1FC JUMP JUMPDEST PUSH1 0x40 MLOAD DUP1 SWAP2 SUB SWAP1 REVERT JUMPDEST PUSH1 0x1 PUSH0 SLOAD PUSH2 0xF5 SWAP2 SWAP1 PUSH2 0x16F JUMP JUMPDEST PUSH0 DUP2 SWAP1 SSTORE POP JUMP JUMPDEST PUSH1 0x1 PUSH0 SLOAD PUSH2 0x10A SWAP2 SWAP1 PUSH2 0x21A JUMP JUMPDEST PUSH0 DUP2 SWAP1 SSTORE POP JUMP JUMPDEST PUSH0 DUP2 SWAP1 POP SWAP2 SWAP1 POP JUMP JUMPDEST PUSH2 0x123 DUP2 PUSH2 0x111 JUMP JUMPDEST DUP3 MSTORE POP POP JUMP JUMPDEST PUSH0 PUSH1 0x20 DUP3 ADD SWAP1 POP PUSH2 0x13C PUSH0 DUP4 ADD DUP5 PUSH2 0x11A JUMP JUMPDEST SWAP3 SWAP2 POP POP JUMP JUMPDEST PUSH32 0x4E487B7100000000000000000000000000000000000000000000000000000000 PUSH0 MSTORE PUSH1 0x11 PUSH1 0x4 MSTORE PUSH1 0x24 PUSH0 REVERT JUMPDEST PUSH0 PUSH2 0x179 DUP3 PUSH2 0x111 JUMP JUMPDEST SWAP2 POP PUSH2 0x184 DUP4 PUSH2 0x111 JUMP JUMPDEST SWAP3 POP DUP3 DUP3 SUB SWAP1 POP DUP2 DUP2 GT ISZERO PUSH2 0x19C JUMPI PUSH2 0x19B PUSH2 0x142 JUMP JUMPDEST JUMPDEST SWAP3 SWAP2 POP POP JUMP JUMPDEST PUSH0 DUP3 DUP3 MSTORE PUSH1 0x20 DUP3 ADD SWAP1 POP SWAP3 SWAP2 POP POP JUMP JUMPDEST PUSH32 0x436F756E7420697320616C7265616479207A65726F0000000000000000000000 PUSH0 DUP3 ADD MSTORE POP JUMP JUMPDEST PUSH0 PUSH2 0x1E6 PUSH1 0x15 DUP4 PUSH2 0x1A2 JUMP JUMPDEST SWAP2 POP PUSH2 0x1F1 DUP3 PUSH2 0x1B2 JUMP JUMPDEST PUSH1 0x20 DUP3 ADD SWAP1 POP SWAP2 SWAP1 POP JUMP JUMPDEST PUSH0 PUSH1 0x20 DUP3 ADD SWAP1 POP DUP2 DUP2 SUB PUSH0 DUP4 ADD MSTORE PUSH2 0x213 DUP2 PUSH2 0x1DA JUMP JUMPDEST SWAP1 POP SWAP2 SWAP1 POP JUMP JUMPDEST PUSH0 PUSH2 0x224 DUP3 PUSH2 0x111 JUMP JUMPDEST SWAP2 POP PUSH2 0x22F DUP4 PUSH2 0x111 JUMP JUMPDEST SWAP3 POP DUP3 DUP3 ADD SWAP1 POP DUP1 DUP3 GT ISZERO PUSH2 0x247 JUMPI PUSH2 0x246 PUSH2 0x142 JUMP JUMPDEST JUMPDEST SWAP3 SWAP2 POP POP JUMP INVALID LOG2 PUSH5 0x6970667358 0x22 SLT KECCAK256 ISZERO DUP2 0xD9 0xDD PUSH15 0xF3720AB6667977B3957508B6A64224 0x22 ADD LOG0 0xF 0x2E 0xED 0xC3 0xC0 CALL MULMOD 0xB6 PUSH20 0x64736F6C634300081E0033000000000000000000 "
				},
				"gasEstimates": {
					"creation": {
						"codeDepositCost": "128600",
						"executionCost": "175",
						"totalCost": "128775"
					},
					"external": {
						"count()": "2402",
						"decrement()": "infinite",
						"increment()": "infinite",
						"safeDecrement()": "infinite"
					}
				},
				"methodIdentifiers": {
					"count()": "06661abd",
					"decrement()": "2baeceb7",
					"increment()": "d09de08a",
					"safeDecrement()": "33df49a3"
				}
			},
			"storageLayout": {
				"storage": [
					{
						"astId": 3,
						"contract": "contracts/SafeCounter.sol:SafeCounter",
						"label": "count",
						"offset": 0,
						"slot": "0",
						"type": "t_uint256"
					}
				],
				"types": {
					"t_uint256": {
						"encoding": "inplace",
						"label": "uint256",
						"numberOfBytes": "32"
					}
				}
			},
			"userdoc": {
				"kind": "user",
				"methods": {},
				"version": 1
			}
		}
	}
}