{
	"contracts/MathCalculator.sol": {
		"MathCalculator_Tradition": {
			"abi": [
				{
					"inputs": [
						{
							"internalType": "uint256",
							"name": "x",
							"type": "uint256"
						},
						{
							"internalType": "uint256",
							"name": "y",
							"type": "uint256"
						}
					],
					"name": "calculate",
					"outputs": [
						{
							"internalType": "uint256",
							"name": "",
							"type": "uint256"
						}
					],
					"stateMutability": "pure",
					"type": "function"
				}
			],
			"devdoc": {
				"kind": "dev",
				"methods": {},
				"version": 1
			},
			"evm": {
				"assembly": "    /* \"contracts/MathCalculator.sol\":898:1181  contract MathCalculator_Tradition {... */\n  mstore(0x40, 0x80)\n  callvalue\n  dup1\n  iszero\n  tag_1\n  jumpi\n  revert(0x00, 0x00)\ntag_1:\n  pop\n  dataSize(sub_0)\n  dup1\n  dataOffset(sub_0)\n  0x00\n  codecopy\n  0x00\n  return\nstop\n\nsub_0: assembly {\n        /* \"contracts/MathCalculator.sol\":898:1181  contract MathCalculator_Tradition {... */\n      mstore(0x40, 0x80)\n      callvalue\n      dup1\n      iszero\n      tag_1\n      jumpi\n      revert(0x00, 0x00)\n    tag_1:\n      pop\n      jumpi(tag_2, lt(calldatasize, 0x04))\n      shr(0xe0, calldataload(0x00))\n      dup1\n      0x8dfa4363\n      eq\n      tag_3\n      jumpi\n    tag_2:\n      revert(0x00, 0x00)\n        /* \"contracts/MathCalculator.sol\":938:1179  function calculate(uint256 x, uint256 y) public pure returns (uint256) {... */\n    tag_3:\n      tag_4\n      0x04\n      dup1\n      calldatasize\n      sub\n      dup2\n      add\n      swap1\n      tag_5\n      swap2\n      swap1\n      tag_6\n      jump\t// in\n    tag_5:\n      tag_7\n      jump\t// in\n    tag_4:\n      mload(0x40)\n      tag_8\n      swap2\n      swap1\n      tag_9\n      jump\t// in\n    tag_8:\n      mload(0x40)\n      dup1\n      swap2\n      sub\n      swap1\n      return\n    tag_7:\n        /* \"contracts/MathCalculator.sol\":1000:1007  uint256 */\n      0x00\n        /* \"contracts/MathCalculator.sol\":1070:1081  uint256 sum */\n      0x00\n        /* \"contracts/MathCalculator.sol\":1084:1101  MathLib.add(x, y) */\n      tag_11\n        /* \"contracts/MathCalculator.sol\":1096:1097  x */\n      dup5\n        /* \"contracts/MathCalculator.sol\":1099:1100  y */\n      dup5\n        /* \"contracts/MathCalculator.sol\":1084:1095  MathLib.add */\n      tag_12\n        /* \"contracts/MathCalculator.sol\":1084:1101  MathLib.add(x, y) */\n      jump\t// in\n    tag_11:\n        /* \"contracts/MathCalculator.sol\":1070:1101  uint256 sum = MathLib.add(x, y) */\n      swap1\n      pop\n        /* \"contracts/MathCalculator.sol\":1111:1126  uint256 product */\n      0x00\n        /* \"contracts/MathCalculator.sol\":1129:1148  MathLib.mul(sum, 2) */\n      tag_13\n        /* \"contracts/MathCalculator.sol\":1141:1144  sum */\n      dup3\n        /* \"contracts/MathCalculator.sol\":1146:1147  2 */\n      0x02\n        /* \"contracts/MathCalculator.sol\":1129:1140  MathLib.mul */\n      tag_14\n        /* \"contracts/MathCalculator.sol\":1129:1148  MathLib.mul(sum, 2) */\n      jump\t// in\n    tag_13:\n        /* \"contracts/MathCalculator.sol\":1111:1148  uint256 product = MathLib.mul(sum, 2) */\n      swap1\n      pop\n        /* \"contracts/MathCalculator.sol\":1165:1172  product */\n      dup1\n        /* \"contracts/MathCalculator.sol\":1158:1172  return product */\n      swap3\n      pop\n      pop\n      pop\n        /* \"contracts/MathCalculator.sol\":938:1179  function calculate(uint256 x, uint256 y) public pure returns (uint256) {... */\n      swap3\n      swap2\n      pop\n      pop\n      jump\t// out\n        /* \"contracts/MathCalculator.sol\":100:274  function add(uint256 a, uint256 b) internal pure returns (uint256) {... */\n    tag_12:\n        /* \"contracts/MathCalculator.sol\":158:165  uint256 */\n      0x00\n        /* \"contracts/MathCalculator.sol\":177:186  uint256 c */\n      0x00\n        /* \"contracts/MathCalculator.sol\":193:194  b */\n      dup3\n        /* \"contracts/MathCalculator.sol\":189:190  a */\n      dup5\n        /* \"contracts/MathCalculator.sol\":189:194  a + b */\n      tag_16\n      swap2\n      swap1\n      tag_17\n      jump\t// in\n    tag_16:\n        /* \"contracts/MathCalculator.sol\":177:194  uint256 c = a + b */\n      swap1\n      pop\n        /* \"contracts/MathCalculator.sol\":217:218  a */\n      dup4\n        /* \"contracts/MathCalculator.sol\":212:213  c */\n      dup2\n        /* \"contracts/MathCalculator.sol\":212:218  c >= a */\n      lt\n      iszero\n        /* \"contracts/MathCalculator.sol\":204:249  require(c >= a, \"MathLib: addition overflow\") */\n      tag_18\n      jumpi\n      mload(0x40)\n      0x08c379a000000000000000000000000000000000000000000000000000000000\n      dup2\n      mstore\n      0x04\n      add\n      tag_19\n      swap1\n      tag_20\n      jump\t// in\n    tag_19:\n      mload(0x40)\n      dup1\n      swap2\n      sub\n      swap1\n      revert\n    tag_18:\n        /* \"contracts/MathCalculator.sol\":266:267  c */\n      dup1\n        /* \"contracts/MathCalculator.sol\":259:267  return c */\n      swap2\n      pop\n      pop\n        /* \"contracts/MathCalculator.sol\":100:274  function add(uint256 a, uint256 b) internal pure returns (uint256) {... */\n      swap3\n      swap2\n      pop\n      pop\n      jump\t// out\n        /* \"contracts/MathCalculator.sol\":481:719  function mul(uint256 a, uint256 b) internal pure returns (uint256) {... */\n    tag_14:\n        /* \"contracts/MathCalculator.sol\":539:546  uint256 */\n      0x00\n        /* \"contracts/MathCalculator.sol\":567:568  0 */\n      0x00\n        /* \"contracts/MathCalculator.sol\":562:563  a */\n      dup4\n        /* \"contracts/MathCalculator.sol\":562:568  a == 0 */\n      sub\n        /* \"contracts/MathCalculator.sol\":558:603  if (a == 0) {... */\n      tag_22\n      jumpi\n        /* \"contracts/MathCalculator.sol\":591:592  0 */\n      0x00\n        /* \"contracts/MathCalculator.sol\":584:592  return 0 */\n      swap1\n      pop\n      jump(tag_21)\n        /* \"contracts/MathCalculator.sol\":558:603  if (a == 0) {... */\n    tag_22:\n        /* \"contracts/MathCalculator.sol\":612:621  uint256 c */\n      0x00\n        /* \"contracts/MathCalculator.sol\":628:629  b */\n      dup3\n        /* \"contracts/MathCalculator.sol\":624:625  a */\n      dup5\n        /* \"contracts/MathCalculator.sol\":624:629  a * b */\n      tag_23\n      swap2\n      swap1\n      tag_24\n      jump\t// in\n    tag_23:\n        /* \"contracts/MathCalculator.sol\":612:629  uint256 c = a * b */\n      swap1\n      pop\n        /* \"contracts/MathCalculator.sol\":656:657  b */\n      dup3\n        /* \"contracts/MathCalculator.sol\":651:652  a */\n      dup5\n        /* \"contracts/MathCalculator.sol\":647:648  c */\n      dup3\n        /* \"contracts/MathCalculator.sol\":647:652  c / a */\n      tag_25\n      swap2\n      swap1\n      tag_26\n      jump\t// in\n    tag_25:\n        /* \"contracts/MathCalculator.sol\":647:657  c / a == b */\n      eq\n        /* \"contracts/MathCalculator.sol\":639:694  require(c / a == b, \"MathLib: multiplication overflow\") */\n      tag_27\n      jumpi\n      mload(0x40)\n      0x08c379a000000000000000000000000000000000000000000000000000000000\n      dup2\n      mstore\n      0x04\n      add\n      tag_28\n      swap1\n      tag_29\n      jump\t// in\n    tag_28:\n      mload(0x40)\n      dup1\n      swap2\n      sub\n      swap1\n      revert\n    tag_27:\n        /* \"contracts/MathCalculator.sol\":711:712  c */\n      dup1\n        /* \"contracts/MathCalculator.sol\":704:712  return c */\n      swap2\n      pop\n      pop\n        /* \"contracts/MathCalculator.sol\":481:719  function mul(uint256 a, uint256 b) internal pure returns (uint256) {... */\n    tag_21:\n      swap3\n      swap2\n      pop\n      pop\n      jump\t// out\n        /* \"#utility.yul\":88:205   */\n    tag_31:\n        /* \"#utility.yul\":197:198   */\n      0x00\n        /* \"#utility.yul\":194:195   */\n      0x00\n        /* \"#utility.yul\":187:199   */\n      revert\n        /* \"#utility.yul\":334:411   */\n    tag_33:\n        /* \"#utility.yul\":371:378   */\n      0x00\n        /* \"#utility.yul\":400:405   */\n      dup2\n        /* \"#utility.yul\":389:405   */\n      swap1\n      pop\n        /* \"#utility.yul\":334:411   */\n      swap2\n      swap1\n      pop\n      jump\t// out\n        /* \"#utility.yul\":417:539   */\n    tag_34:\n        /* \"#utility.yul\":490:514   */\n      tag_50\n        /* \"#utility.yul\":508:513   */\n      dup2\n        /* \"#utility.yul\":490:514   */\n      tag_33\n      jump\t// in\n    tag_50:\n        /* \"#utility.yul\":483:488   */\n      dup2\n        /* \"#utility.yul\":480:515   */\n      eq\n        /* \"#utility.yul\":470:533   */\n      tag_51\n      jumpi\n        /* \"#utility.yul\":529:530   */\n      0x00\n        /* \"#utility.yul\":526:527   */\n      0x00\n        /* \"#utility.yul\":519:531   */\n      revert\n        /* \"#utility.yul\":470:533   */\n    tag_51:\n        /* \"#utility.yul\":417:539   */\n      pop\n      jump\t// out\n        /* \"#utility.yul\":545:684   */\n    tag_35:\n        /* \"#utility.yul\":591:596   */\n      0x00\n        /* \"#utility.yul\":629:635   */\n      dup2\n        /* \"#utility.yul\":616:636   */\n      calldataload\n        /* \"#utility.yul\":607:636   */\n      swap1\n      pop\n        /* \"#utility.yul\":645:678   */\n      tag_53\n        /* \"#utility.yul\":672:677   */\n      dup2\n        /* \"#utility.yul\":645:678   */\n      tag_34\n      jump\t// in\n    tag_53:\n        /* \"#utility.yul\":545:684   */\n      swap3\n      swap2\n      pop\n      pop\n      jump\t// out\n        /* \"#utility.yul\":690:1164   */\n    tag_6:\n        /* \"#utility.yul\":758:764   */\n      0x00\n        /* \"#utility.yul\":766:772   */\n      0x00\n        /* \"#utility.yul\":815:817   */\n      0x40\n        /* \"#utility.yul\":803:812   */\n      dup4\n        /* \"#utility.yul\":794:801   */\n      dup6\n        /* \"#utility.yul\":790:813   */\n      sub\n        /* \"#utility.yul\":786:818   */\n      slt\n        /* \"#utility.yul\":783:902   */\n      iszero\n      tag_55\n      jumpi\n        /* \"#utility.yul\":821:900   */\n      tag_56\n      tag_31\n      jump\t// in\n    tag_56:\n        /* \"#utility.yul\":783:902   */\n    tag_55:\n        /* \"#utility.yul\":941:942   */\n      0x00\n        /* \"#utility.yul\":966:1019   */\n      tag_57\n        /* \"#utility.yul\":1011:1018   */\n      dup6\n        /* \"#utility.yul\":1002:1008   */\n      dup3\n        /* \"#utility.yul\":991:1000   */\n      dup7\n        /* \"#utility.yul\":987:1009   */\n      add\n        /* \"#utility.yul\":966:1019   */\n      tag_35\n      jump\t// in\n    tag_57:\n        /* \"#utility.yul\":956:1019   */\n      swap3\n      pop\n        /* \"#utility.yul\":912:1029   */\n      pop\n        /* \"#utility.yul\":1068:1070   */\n      0x20\n        /* \"#utility.yul\":1094:1147   */\n      tag_58\n        /* \"#utility.yul\":1139:1146   */\n      dup6\n        /* \"#utility.yul\":1130:1136   */\n      dup3\n        /* \"#utility.yul\":1119:1128   */\n      dup7\n        /* \"#utility.yul\":1115:1137   */\n      add\n        /* \"#utility.yul\":1094:1147   */\n      tag_35\n      jump\t// in\n    tag_58:\n        /* \"#utility.yul\":1084:1147   */\n      swap2\n      pop\n        /* \"#utility.yul\":1039:1157   */\n      pop\n        /* \"#utility.yul\":690:1164   */\n      swap3\n      pop\n      swap3\n      swap1\n      pop\n      jump\t// out\n        /* \"#utility.yul\":1170:1288   */\n    tag_36:\n        /* \"#utility.yul\":1257:1281   */\n      tag_60\n        /* \"#utility.yul\":1275:1280   */\n      dup2\n        /* \"#utility.yul\":1257:1281   */\n      tag_33\n      jump\t// in\n    tag_60:\n        /* \"#utility.yul\":1252:1255   */\n      dup3\n        /* \"#utility.yul\":1245:1282   */\n      mstore\n        /* \"#utility.yul\":1170:1288   */\n      pop\n      pop\n      jump\t// out\n        /* \"#utility.yul\":1294:1516   */\n    tag_9:\n        /* \"#utility.yul\":1387:1391   */\n      0x00\n        /* \"#utility.yul\":1425:1427   */\n      0x20\n        /* \"#utility.yul\":1414:1423   */\n      dup3\n        /* \"#utility.yul\":1410:1428   */\n      add\n        /* \"#utility.yul\":1402:1428   */\n      swap1\n      pop\n        /* \"#utility.yul\":1438:1509   */\n      tag_62\n        /* \"#utility.yul\":1506:1507   */\n      0x00\n        /* \"#utility.yul\":1495:1504   */\n      dup4\n        /* \"#utility.yul\":1491:1508   */\n      add\n        /* \"#utility.yul\":1482:1488   */\n      dup5\n        /* \"#utility.yul\":1438:1509   */\n      tag_36\n      jump\t// in\n    tag_62:\n        /* \"#utility.yul\":1294:1516   */\n      swap3\n      swap2\n      pop\n      pop\n      jump\t// out\n        /* \"#utility.yul\":1522:1702   */\n    tag_37:\n        /* \"#utility.yul\":1570:1647   */\n      0x4e487b7100000000000000000000000000000000000000000000000000000000\n        /* \"#utility.yul\":1567:1568   */\n      0x00\n        /* \"#utility.yul\":1560:1648   */\n      mstore\n        /* \"#utility.yul\":1667:1671   */\n      0x11\n        /* \"#utility.yul\":1664:1665   */\n      0x04\n        /* \"#utility.yul\":1657:1672   */\n      mstore\n        /* \"#utility.yul\":1691:1695   */\n      0x24\n        /* \"#utility.yul\":1688:1689   */\n      0x00\n        /* \"#utility.yul\":1681:1696   */\n      revert\n        /* \"#utility.yul\":1708:1899   */\n    tag_17:\n        /* \"#utility.yul\":1748:1751   */\n      0x00\n        /* \"#utility.yul\":1767:1787   */\n      tag_65\n        /* \"#utility.yul\":1785:1786   */\n      dup3\n        /* \"#utility.yul\":1767:1787   */\n      tag_33\n      jump\t// in\n    tag_65:\n        /* \"#utility.yul\":1762:1787   */\n      swap2\n      pop\n        /* \"#utility.yul\":1801:1821   */\n      tag_66\n        /* \"#utility.yul\":1819:1820   */\n      dup4\n        /* \"#utility.yul\":1801:1821   */\n      tag_33\n      jump\t// in\n    tag_66:\n        /* \"#utility.yul\":1796:1821   */\n      swap3\n      pop\n        /* \"#utility.yul\":1844:1845   */\n      dup3\n        /* \"#utility.yul\":1841:1842   */\n      dup3\n        /* \"#utility.yul\":1837:1846   */\n      add\n        /* \"#utility.yul\":1830:1846   */\n      swap1\n      pop\n        /* \"#utility.yul\":1865:1868   */\n      dup1\n        /* \"#utility.yul\":1862:1863   */\n      dup3\n        /* \"#utility.yul\":1859:1869   */\n      gt\n        /* \"#utility.yul\":1856:1892   */\n      iszero\n      tag_67\n      jumpi\n        /* \"#utility.yul\":1872:1890   */\n      tag_68\n      tag_37\n      jump\t// in\n    tag_68:\n        /* \"#utility.yul\":1856:1892   */\n    tag_67:\n        /* \"#utility.yul\":1708:1899   */\n      swap3\n      swap2\n      pop\n      pop\n      jump\t// out\n        /* \"#utility.yul\":1905:2074   */\n    tag_38:\n        /* \"#utility.yul\":1989:2000   */\n      0x00\n        /* \"#utility.yul\":2023:2029   */\n      dup3\n        /* \"#utility.yul\":2018:2021   */\n      dup3\n        /* \"#utility.yul\":2011:2030   */\n      mstore\n        /* \"#utility.yul\":2063:2067   */\n      0x20\n        /* \"#utility.yul\":2058:2061   */\n      dup3\n        /* \"#utility.yul\":2054:2068   */\n      add\n        /* \"#utility.yul\":2039:2068   */\n      swap1\n      pop\n        /* \"#utility.yul\":1905:2074   */\n      swap3\n      swap2\n      pop\n      pop\n      jump\t// out\n        /* \"#utility.yul\":2080:2256   */\n    tag_39:\n        /* \"#utility.yul\":2220:2248   */\n      0x4d6174684c69623a206164646974696f6e206f766572666c6f77000000000000\n        /* \"#utility.yul\":2216:2217   */\n      0x00\n        /* \"#utility.yul\":2208:2214   */\n      dup3\n        /* \"#utility.yul\":2204:2218   */\n      add\n        /* \"#utility.yul\":2197:2249   */\n      mstore\n        /* \"#utility.yul\":2080:2256   */\n      pop\n      jump\t// out\n        /* \"#utility.yul\":2262:2628   */\n    tag_40:\n        /* \"#utility.yul\":2404:2407   */\n      0x00\n        /* \"#utility.yul\":2425:2492   */\n      tag_72\n        /* \"#utility.yul\":2489:2491   */\n      0x1a\n        /* \"#utility.yul\":2484:2487   */\n      dup4\n        /* \"#utility.yul\":2425:2492   */\n      tag_38\n      jump\t// in\n    tag_72:\n        /* \"#utility.yul\":2418:2492   */\n      swap2\n      pop\n        /* \"#utility.yul\":2501:2594   */\n      tag_73\n        /* \"#utility.yul\":2590:2593   */\n      dup3\n        /* \"#utility.yul\":2501:2594   */\n      tag_39\n      jump\t// in\n    tag_73:\n        /* \"#utility.yul\":2619:2621   */\n      0x20\n        /* \"#utility.yul\":2614:2617   */\n      dup3\n        /* \"#utility.yul\":2610:2622   */\n      add\n        /* \"#utility.yul\":2603:2622   */\n      swap1\n      pop\n        /* \"#utility.yul\":2262:2628   */\n      swap2\n      swap1\n      pop\n      jump\t// out\n        /* \"#utility.yul\":2634:3053   */\n    tag_20:\n        /* \"#utility.yul\":2800:2804   */\n      0x00\n        /* \"#utility.yul\":2838:2840   */\n      0x20\n        /* \"#utility.yul\":2827:2836   */\n      dup3\n        /* \"#utility.yul\":2823:2841   */\n      add\n        /* \"#utility.yul\":2815:2841   */\n      swap1\n      pop\n        /* \"#utility.yul\":2887:2896   */\n      dup2\n        /* \"#utility.yul\":2881:2885   */\n      dup2\n        /* \"#utility.yul\":2877:2897   */\n      sub\n        /* \"#utility.yul\":2873:2874   */\n      0x00\n        /* \"#utility.yul\":2862:2871   */\n      dup4\n        /* \"#utility.yul\":2858:2875   */\n      add\n        /* \"#utility.yul\":2851:2898   */\n      mstore\n        /* \"#utility.yul\":2915:3046   */\n      tag_75\n        /* \"#utility.yul\":3041:3045   */\n      dup2\n        /* \"#utility.yul\":2915:3046   */\n      tag_40\n      jump\t// in\n    tag_75:\n        /* \"#utility.yul\":2907:3046   */\n      swap1\n      pop\n        /* \"#utility.yul\":2634:3053   */\n      swap2\n      swap1\n      pop\n      jump\t// out\n        /* \"#utility.yul\":3059:3469   */\n    tag_24:\n        /* \"#utility.yul\":3099:3106   */\n      0x00\n        /* \"#utility.yul\":3122:3142   */\n      tag_77\n        /* \"#utility.yul\":3140:3141   */\n      dup3\n        /* \"#utility.yul\":3122:3142   */\n      tag_33\n      jump\t// in\n    tag_77:\n        /* \"#utility.yul\":3117:3142   */\n      swap2\n      pop\n        /* \"#utility.yul\":3156:3176   */\n      tag_78\n        /* \"#utility.yul\":3174:3175   */\n      dup4\n        /* \"#utility.yul\":3156:3176   */\n      tag_33\n      jump\t// in\n    tag_78:\n        /* \"#utility.yul\":3151:3176   */\n      swap3\n      pop\n        /* \"#utility.yul\":3211:3212   */\n      dup3\n        /* \"#utility.yul\":3208:3209   */\n      dup3\n        /* \"#utility.yul\":3204:3213   */\n      mul\n        /* \"#utility.yul\":3233:3263   */\n      tag_79\n        /* \"#utility.yul\":3251:3262   */\n      dup2\n        /* \"#utility.yul\":3233:3263   */\n      tag_33\n      jump\t// in\n    tag_79:\n        /* \"#utility.yul\":3222:3263   */\n      swap2\n      pop\n        /* \"#utility.yul\":3412:3413   */\n      dup3\n        /* \"#utility.yul\":3403:3410   */\n      dup3\n        /* \"#utility.yul\":3399:3414   */\n      div\n        /* \"#utility.yul\":3396:3397   */\n      dup5\n        /* \"#utility.yul\":3393:3415   */\n      eq\n        /* \"#utility.yul\":3373:3374   */\n      dup4\n        /* \"#utility.yul\":3366:3375   */\n      iszero\n        /* \"#utility.yul\":3346:3429   */\n      or\n        /* \"#utility.yul\":3323:3462   */\n      tag_80\n      jumpi\n        /* \"#utility.yul\":3442:3460   */\n      tag_81\n      tag_37\n      jump\t// in\n    tag_81:\n        /* \"#utility.yul\":3323:3462   */\n    tag_80:\n        /* \"#utility.yul\":3107:3469   */\n      pop\n        /* \"#utility.yul\":3059:3469   */\n      swap3\n      swap2\n      pop\n      pop\n      jump\t// out\n        /* \"#utility.yul\":3475:3655   */\n    tag_41:\n        /* \"#utility.yul\":3523:3600   */\n      0x4e487b7100000000000000000000000000000000000000000000000000000000\n        /* \"#utility.yul\":3520:3521   */\n      0x00\n        /* \"#utility.yul\":3513:3601   */\n      mstore\n        /* \"#utility.yul\":3620:3624   */\n      0x12\n        /* \"#utility.yul\":3617:3618   */\n      0x04\n        /* \"#utility.yul\":3610:3625   */\n      mstore\n        /* \"#utility.yul\":3644:3648   */\n      0x24\n        /* \"#utility.yul\":3641:3642   */\n      0x00\n        /* \"#utility.yul\":3634:3649   */\n      revert\n        /* \"#utility.yul\":3661:3846   */\n    tag_26:\n        /* \"#utility.yul\":3701:3702   */\n      0x00\n        /* \"#utility.yul\":3718:3738   */\n      tag_84\n        /* \"#utility.yul\":3736:3737   */\n      dup3\n        /* \"#utility.yul\":3718:3738   */\n      tag_33\n      jump\t// in\n    tag_84:\n        /* \"#utility.yul\":3713:3738   */\n      swap2\n      pop\n        /* \"#utility.yul\":3752:3772   */\n      tag_85\n        /* \"#utility.yul\":3770:3771   */\n      dup4\n        /* \"#utility.yul\":3752:3772   */\n      tag_33\n      jump\t// in\n    tag_85:\n        /* \"#utility.yul\":3747:3772   */\n      swap3\n      pop\n        /* \"#utility.yul\":3791:3792   */\n      dup3\n        /* \"#utility.yul\":3781:3816   */\n      tag_86\n      jumpi\n        /* \"#utility.yul\":3796:3814   */\n      tag_87\n      tag_41\n      jump\t// in\n    tag_87:\n        /* \"#utility.yul\":3781:3816   */\n    tag_86:\n        /* \"#utility.yul\":3838:3839   */\n      dup3\n        /* \"#utility.yul\":3835:3836   */\n      dup3\n        /* \"#utility.yul\":3831:3840   */\n      div\n        /* \"#utility.yul\":3826:3840   */\n      swap1\n      pop\n        /* \"#utility.yul\":3661:3846   */\n      swap3\n      swap2\n      pop\n      pop\n      jump\t// out\n        /* \"#utility.yul\":3852:4034   */\n    tag_42:\n        /* \"#utility.yul\":3992:4026   */\n      0x4d6174684c69623a206d756c7469706c69636174696f6e206f766572666c6f77\n        /* \"#utility.yul\":3988:3989   */\n      0x00\n        /* \"#utility.yul\":3980:3986   */\n      dup3\n        /* \"#utility.yul\":3976:3990   */\n      add\n        /* \"#utility.yul\":3969:4027   */\n      mstore\n        /* \"#utility.yul\":3852:4034   */\n      pop\n      jump\t// out\n        /* \"#utility.yul\":4040:4406   */\n    tag_43:\n        /* \"#utility.yul\":4182:4185   */\n      0x00\n        /* \"#utility.yul\":4203:4270   */\n      tag_90\n        /* \"#utility.yul\":4267:4269   */\n      0x20\n        /* \"#utility.yul\":4262:4265   */\n      dup4\n        /* \"#utility.yul\":4203:4270   */\n      tag_38\n      jump\t// in\n    tag_90:\n        /* \"#utility.yul\":4196:4270   */\n      swap2\n      pop\n        /* \"#utility.yul\":4279:4372   */\n      tag_91\n        /* \"#utility.yul\":4368:4371   */\n      dup3\n        /* \"#utility.yul\":4279:4372   */\n      tag_42\n      jump\t// in\n    tag_91:\n        /* \"#utility.yul\":4397:4399   */\n      0x20\n        /* \"#utility.yul\":4392:4395   */\n      dup3\n        /* \"#utility.yul\":4388:4400   */\n      add\n        /* \"#utility.yul\":4381:4400   */\n      swap1\n      pop\n        /* \"#utility.yul\":4040:4406   */\n      swap2\n      swap1\n      pop\n      jump\t// out\n        /* \"#utility.yul\":4412:4831   */\n    tag_29:\n        /* \"#utility.yul\":4578:4582   */\n      0x00\n        /* \"#utility.yul\":4616:4618   */\n      0x20\n        /* \"#utility.yul\":4605:4614   */\n      dup3\n        /* \"#utility.yul\":4601:4619   */\n      add\n        /* \"#utility.yul\":4593:4619   */\n      swap1\n      pop\n        /* \"#utility.yul\":4665:4674   */\n      dup2\n        /* \"#utility.yul\":4659:4663   */\n      dup2\n        /* \"#utility.yul\":4655:4675   */\n      sub\n        /* \"#utility.yul\":4651:4652   */\n      0x00\n        /* \"#utility.yul\":4640:4649   */\n      dup4\n        /* \"#utility.yul\":4636:4653   */\n      add\n        /* \"#utility.yul\":4629:4676   */\n      mstore\n        /* \"#utility.yul\":4693:4824   */\n      tag_93\n        /* \"#utility.yul\":4819:4823   */\n      dup2\n        /* \"#utility.yul\":4693:4824   */\n      tag_43\n      jump\t// in\n    tag_93:\n        /* \"#utility.yul\":4685:4824   */\n      swap1\n      pop\n        /* \"#utility.yul\":4412:4831   */\n      swap2\n      swap1\n      pop\n      jump\t// out\n\n    auxdata: 0xa2646970667358221220d3896a9e9222f4eb20cb94f58b2b093e572f41fccf4dc599f54c60ee087d0ee664736f6c634300081e0033\n}\n",
				"bytecode": {
					"linkReferences": {},
					"object": "6080604052348015600e575f5ffd5b506104098061001c5f395ff3fe608060405234801561000f575f5ffd5b5060043610610029575f3560e01c80638dfa43631461002d575b5f5ffd5b6100476004803603810190610042919061018f565b61005d565b60405161005491906101dc565b60405180910390f35b5f5f6100698484610084565b90505f6100778260026100e1565b9050809250505092915050565b5f5f82846100929190610222565b9050838110156100d7576040517f08c379a00000000000000000000000000000000000000000000000000000000081526004016100ce906102af565b60405180910390fd5b8091505092915050565b5f5f83036100f1575f9050610152565b5f82846100fe91906102cd565b905082848261010d919061033b565b1461014d576040517f08c379a0000000000000000000000000000000000000000000000000000000008152600401610144906103b5565b60405180910390fd5b809150505b92915050565b5f5ffd5b5f819050919050565b61016e8161015c565b8114610178575f5ffd5b50565b5f8135905061018981610165565b92915050565b5f5f604083850312156101a5576101a4610158565b5b5f6101b28582860161017b565b92505060206101c38582860161017b565b9150509250929050565b6101d68161015c565b82525050565b5f6020820190506101ef5f8301846101cd565b92915050565b7f4e487b71000000000000000000000000000000000000000000000000000000005f52601160045260245ffd5b5f61022c8261015c565b91506102378361015c565b925082820190508082111561024f5761024e6101f5565b5b92915050565b5f82825260208201905092915050565b7f4d6174684c69623a206164646974696f6e206f766572666c6f770000000000005f82015250565b5f610299601a83610255565b91506102a482610265565b602082019050919050565b5f6020820190508181035f8301526102c68161028d565b9050919050565b5f6102d78261015c565b91506102e28361015c565b92508282026102f08161015c565b91508282048414831517610307576103066101f5565b5b5092915050565b7f4e487b71000000000000000000000000000000000000000000000000000000005f52601260045260245ffd5b5f6103458261015c565b91506103508361015c565b9250826103605761035f61030e565b5b828204905092915050565b7f4d6174684c69623a206d756c7469706c69636174696f6e206f766572666c6f775f82015250565b5f61039f602083610255565b91506103aa8261036b565b602082019050919050565b5f6020820190508181035f8301526103cc81610393565b905091905056fea2646970667358221220d3896a9e9222f4eb20cb94f58b2b093e572f41fccf4dc599f54c60ee087d0ee664736f6c634300081e0033",
					"opcodes": "PUSH1 0x80 PUSH1 0x40 MSTORE CALLVALUE DUP1 ISZERO PUSH1 0xE JUMPI PUSH0 PUSH0 REVERT JUMPDEST POP PUSH2 0x409 DUP1 PUSH2 0x1C PUSH0 CODECOPY PUSH0 RETURN INVALID PUSH1 0x80 PUSH1 0x40 MSTORE CALLVALUE DUP1 ISZERO PUSH2 0xF JUMPI PUSH0 PUSH0 REVERT JUMPDEST POP PUSH1 0x4 CALLDATASIZE LT PUSH2 0x29 JUMPI PUSH0 CALLDATALOAD PUSH1 0xE0 SHR DUP1 PUSH4 0x8DFA4363 EQ PUSH2 0x2D JUMPI JUMPDEST PUSH0 PUSH0 REVERT JUMPDEST PUSH2 0x47 PUSH1 0x4 DUP1 CALLDATASIZE SUB DUP2 ADD SWAP1 PUSH2 0x42 SWAP2 SWAP1 PUSH2 0x18F JUMP JUMPDEST PUSH2 0x5D JUMP JUMPDEST PUSH1 0x40 MLOAD PUSH2 0x54 SWAP2 SWAP1 PUSH2 0x1DC JUMP JUMPDEST PUSH1 0x40 MLOAD DUP1 SWAP2 SUB SWAP1 RETURN JUMPDEST PUSH0 PUSH0 PUSH2 0x69 DUP5 DUP5 PUSH2 0x84 JUMP JUMPDEST SWAP1 POP PUSH0 PUSH2 0x77 DUP3 PUSH1 0x2 PUSH2 0xE1 JUMP JUMPDEST SWAP1 POP DUP1 SWAP3 POP POP POP SWAP3 SWAP2 POP POP JUMP JUMPDEST PUSH0 PUSH0 DUP3 DUP5 PUSH2 0x92 SWAP2 SWAP1 PUSH2 0x222 JUMP JUMPDEST SWAP1 POP DUP4 DUP2 LT ISZERO PUSH2 0xD7 JUMPI PUSH1 0x40 MLOAD PUSH32 0x8C379A000000000000000000000000000000000000000000000000000000000 DUP2 MSTORE PUSH1 0x4 ADD PUSH2 0xCE SWAP1 PUSH2 0x2AF JUMP JUMPDEST PUSH1 0x40 MLOAD DUP1 SWAP2 SUB SWAP1 REVERT JUMPDEST DUP1 SWAP2 POP POP SWAP3 SWAP2 POP POP JUMP JUMPDEST PUSH0 PUSH0 DUP4 SUB PUSH2 0xF1 JUMPI PUSH0 SWAP1 POP PUSH2 0x152 JUMP JUMPDEST PUSH0 DUP3 DUP5 PUSH2 0xFE SWAP2 SWAP1 PUSH2 0x2CD JUMP JUMPDEST SWAP1 POP DUP3 DUP5 DUP3 PUSH2 0x10D SWAP2 SWAP1 PUSH2 0x33B JUMP JUMPDEST EQ PUSH2 0x14D JUMPI PUSH1 0x40 MLOAD PUSH32 0x8C379A000000000000000000000000000000000000000000000000000000000 DUP2 MSTORE PUSH1 0x4 ADD PUSH2 0x144 SWAP1 PUSH2 0x3B5 JUMP JUMPDEST PUSH1 0x40 MLOAD DUP1 SWAP2 SUB SWAP1 REVERT JUMPDEST DUP1 SWAP2 POP POP JUMPDEST SWAP3 SWAP2 POP POP JUMP JUMPDEST PUSH0 PUSH0 REVERT JUMPDEST PUSH0 DUP2 SWAP1 POP SWAP2 SWAP1 POP JUMP JUMPDEST PUSH2 0x16E DUP2 PUSH2 0x15C JUMP JUMPDEST DUP2 EQ PUSH2 0x178 JUMPI PUSH0 PUSH0 REVERT JUMPDEST POP JUMP JUMPDEST PUSH0 DUP2 CALLDATALOAD SWAP1 POP PUSH2 0x189 DUP2 PUSH2 0x165 JUMP JUMPDEST SWAP3 SWAP2 POP POP JUMP JUMPDEST PUSH0 PUSH0 PUSH1 0x40 DUP4 DUP6 SUB SLT ISZERO PUSH2 0x1A5 JUMPI PUSH2 0x1A4 PUSH2 0x158 JUMP JUMPDEST JUMPDEST PUSH0 PUSH2 0x1B2 DUP6 DUP3 DUP7 ADD PUSH2 0x17B JUMP JUMPDEST SWAP3 POP POP PUSH1 0x20 PUSH2 0x1C3 DUP6 DUP3 DUP7 ADD PUSH2 0x17B JUMP JUMPDEST SWAP2 POP POP SWAP3 POP SWAP3 SWAP1 POP JUMP JUMPDEST PUSH2 0x1D6 DUP2 PUSH2 0x15C JUMP JUMPDEST DUP3 MSTORE POP POP JUMP JUMPDEST PUSH0 PUSH1 0x20 DUP3 ADD SWAP1 POP PUSH2 0x1EF PUSH0 DUP4 ADD DUP5 PUSH2 0x1CD JUMP JUMPDEST SWAP3 SWAP2 POP POP JUMP JUMPDEST PUSH32 0x4E487B7100000000000000000000000000000000000000000000000000000000 PUSH0 MSTORE PUSH1 0x11 PUSH1 0x4 MSTORE PUSH1 0x24 PUSH0 REVERT JUMPDEST PUSH0 PUSH2 0x22C DUP3 PUSH2 0x15C JUMP JUMPDEST SWAP2 POP PUSH2 0x237 DUP4 PUSH2 0x15C JUMP JUMPDEST SWAP3 POP DUP3 DUP3 ADD SWAP1 POP DUP1 DUP3 GT ISZERO PUSH2 0x24F JUMPI PUSH2 0x24E PUSH2 0x1F5 JUMP JUMPDEST JUMPDEST SWAP3 SWAP2 POP POP JUMP JUMPDEST PUSH0 DUP3 DUP3 MSTORE PUSH1 0x20 DUP3 ADD SWAP1 POP SWAP3 SWAP2 POP POP JUMP JUMPDEST PUSH32 0x4D6174684C69623A206164646974696F6E206F766572666C6F77000000000000 PUSH0 DUP3 ADD MSTORE POP JUMP JUMPDEST PUSH0 PUSH2 0x299 PUSH1 0x1A DUP4 PUSH2 0x255 JUMP JUMPDEST SWAP2 POP PUSH2 0x2A4 DUP3 PUSH2 0x265 JUMP JUMPDEST PUSH1 0x20 DUP3 ADD SWAP1 POP SWAP2 SWAP1 POP JUMP JUMPDEST PUSH0 PUSH1 0x20 DUP3 ADD SWAP1 POP DUP2 DUP2 SUB PUSH0 DUP4 ADD MSTORE PUSH2 0x2C6 DUP2 PUSH2 0x28D JUMP JUMPDEST SWAP1 POP SWAP2 SWAP1 POP JUMP JUMPDEST PUSH0 PUSH2 0x2D7 DUP3 PUSH2 0x15C JUMP JUMPDEST SWAP2 POP PUSH2 0x2E2 DUP4 PUSH2 0x15C JUMP JUMPDEST SWAP3 POP DUP3 DUP3 MUL PUSH2 0x2F0 DUP2 PUSH2 0x15C JUMP JUMPDEST SWAP2 POP DUP3 DUP3 DIV DUP5 EQ DUP4 ISZERO OR PUSH2 0x307 JUMPI PUSH2 0x306 PUSH2 0x1F5 JUMP JUMPDEST JUMPDEST POP SWAP3 SWAP2 POP POP JUMP JUMPDEST PUSH32 0x4E487B7100000000000000000000000000000000000000000000000000000000 PUSH0 MSTORE PUSH1 0x12 PUSH1 0x4 MSTORE PUSH1 0x24 PUSH0 REVERT JUMPDEST PUSH0 PUSH2 0x345 DUP3 PUSH2 0x15C JUMP JUMPDEST SWAP2 POP PUSH2 0x350 DUP4 PUSH2 0x15C JUMP JUMPDEST SWAP3 POP DUP3 PUSH2 0x360 JUMPI PUSH2 0x35F PUSH2 0x30E JUMP JUMPDEST JUMPDEST DUP3 DUP3 DIV SWAP1 POP SWAP3 SWAP2 POP POP JUMP JUMPDEST PUSH32 0x4D6174684C69623A206D756C7469706C69636174696F6E206F766572666C6F77 PUSH0 DUP3 ADD MSTORE POP JUMP JUMPDEST PUSH0 PUSH2 0x39F PUSH1 0x20 DUP4 PUSH2 0x255 JUMP JUMPDEST SWAP2 POP PUSH2 0x3AA DUP3 PUSH2 0x36B JUMP JUMPDEST PUSH1 0x20 DUP3 ADD SWAP1 POP SWAP2 SWAP1 POP JUMP JUMPDEST PUSH0 PUSH1 0x20 DUP3 ADD SWAP1 POP DUP2 DUP2 SUB PUSH0 DUP4 ADD MSTORE PUSH2 0x3CC DUP2 PUSH2 0x393 JUMP JUMPDEST SWAP1 POP SWAP2 SWAP1 POP JUMP INVALID LOG2 PUSH5 0x6970667358 0x22 SLT KECCAK256 0xD3 DUP10 PUSH11 0x9E9222F4EB20CB94F58B2B MULMOD RETURNDATACOPY JUMPI 0x2F COINBASE 0xFC 0xCF 0x4D 0xC5 SWAP10 CREATE2 0x4C PUSH1 0xEE ADDMOD PUSH30 0xEE664736F6C634300081E00330000000000000000000000000000000000 "
				},
				"gasEstimates": {
					"creation": {
						"codeDepositCost": "206600",
						"executionCost": "249",
						"totalCost": "206849"
					},
					"external": {
						"calculate(uint256,uint256)": "infinite"
					}
				},
				"methodIdentifiers": {
					"calculate(uint256,uint256)": "8dfa4363"
				}
			},
			"storageLayout": {
				"storage": [],
				"types": null
			},
			"userdoc": {
				"kind": "user",
				"methods": {},
				"version": 1
			}
		}
	}
}