{
	"contracts/MathCalculator.sol": {
		"MathCalculator_UsingFor": {
			"abi": [
				{
					"inputs": [
						{
							"internalType": "uint256",
							"name": "x",
							"type": "uint256"
						},
						{
							"internalType": "uint256",
							"name": "y",
							"type": "uint256"
						}
					],
					"name": "calculate",
					"outputs": [
						{
							"internalType": "uint256",
							"name": "",
							"type": "uint256"
						}
					],
					"stateMutability": "pure",
					"type": "function"
				},
				{
					"inputs": [
						{
							"internalType": "uint256",
							"name": "a",
							"type": "uint256"
						},
						{
							"internalType": "uint256",
							"name": "b",
							"type": "uint256"
						},
						{
							"internalType": "uint256",
							"name": "c",
							"type": "uint256"
						}
					],
					"name": "complexCalculation",
					"outputs": [
						{
							"internalType": "uint256",
							"name": "",
							"type": "uint256"
						}
					],
					"stateMutability": "pure",
					"type": "function"
				}
			],
			"devdoc": {
				"kind": "dev",
				"methods": {},
				"version": 1
			},
			"evm": {
				"assembly": "    /* \"contracts/MathCalculator.sol\":1183:1661  contract MathCalculator_UsingFor {... */\n  mstore(0x40, 0x80)\n  callvalue\n  dup1\n  iszero\n  tag_1\n  jumpi\n  revert(0x00, 0x00)\ntag_1:\n  pop\n  dataSize(sub_0)\n  dup1\n  dataOffset(sub_0)\n  0x00\n  codecopy\n  0x00\n  return\nstop\n\nsub_0: assembly {\n        /* \"contracts/MathCalculator.sol\":1183:1661  contract MathCalculator_UsingFor {... */\n      mstore(0x40, 0x80)\n      callvalue\n      dup1\n      iszero\n      tag_1\n      jumpi\n      revert(0x00, 0x00)\n    tag_1:\n      pop\n      jumpi(tag_2, lt(calldatasize, 0x04))\n      shr(0xe0, calldataload(0x00))\n      dup1\n      0x8dfa4363\n      eq\n      tag_3\n      jumpi\n      dup1\n      0xfe0fb2f1\n      eq\n      tag_4\n      jumpi\n    tag_2:\n      revert(0x00, 0x00)\n        /* \"contracts/MathCalculator.sol\":1254:1462  function calculate(uint256 x, uint256 y) public pure returns (uint256) {... */\n    tag_3:\n      tag_5\n      0x04\n      dup1\n      calldatasize\n      sub\n      dup2\n      add\n      swap1\n      tag_6\n      swap2\n      swap1\n      tag_7\n      jump\t// in\n    tag_6:\n      tag_8\n      jump\t// in\n    tag_5:\n      mload(0x40)\n      tag_9\n      swap2\n      swap1\n      tag_10\n      jump\t// in\n    tag_9:\n      mload(0x40)\n      dup1\n      swap2\n      sub\n      swap1\n      return\n        /* \"contracts/MathCalculator.sol\":1468:1659  function complexCalculation(... */\n    tag_4:\n      tag_11\n      0x04\n      dup1\n      calldatasize\n      sub\n      dup2\n      add\n      swap1\n      tag_12\n      swap2\n      swap1\n      tag_13\n      jump\t// in\n    tag_12:\n      tag_14\n      jump\t// in\n    tag_11:\n      mload(0x40)\n      tag_15\n      swap2\n      swap1\n      tag_10\n      jump\t// in\n    tag_15:\n      mload(0x40)\n      dup1\n      swap2\n      sub\n      swap1\n      return\n        /* \"contracts/MathCalculator.sol\":1254:1462  function calculate(uint256 x, uint256 y) public pure returns (uint256) {... */\n    tag_8:\n        /* \"contracts/MathCalculator.sol\":1316:1323  uint256 */\n      0x00\n        /* \"contracts/MathCalculator.sol\":1371:1382  uint256 sum */\n      0x00\n        /* \"contracts/MathCalculator.sol\":1385:1393  x.add(y) */\n      tag_17\n        /* \"contracts/MathCalculator.sol\":1391:1392  y */\n      dup4\n        /* \"contracts/MathCalculator.sol\":1385:1386  x */\n      dup6\n        /* \"contracts/MathCalculator.sol\":1385:1390  x.add */\n      tag_18\n      swap1\n        /* \"contracts/MathCalculator.sol\":1385:1393  x.add(y) */\n      swap2\n      swap1\n      0xffffffff\n      and\n      jump\t// in\n    tag_17:\n        /* \"contracts/MathCalculator.sol\":1371:1393  uint256 sum = x.add(y) */\n      swap1\n      pop\n        /* \"contracts/MathCalculator.sol\":1403:1418  uint256 product */\n      0x00\n        /* \"contracts/MathCalculator.sol\":1421:1431  sum.mul(2) */\n      tag_19\n        /* \"contracts/MathCalculator.sol\":1429:1430  2 */\n      0x02\n        /* \"contracts/MathCalculator.sol\":1421:1424  sum */\n      dup4\n        /* \"contracts/MathCalculator.sol\":1421:1428  sum.mul */\n      tag_20\n      swap1\n        /* \"contracts/MathCalculator.sol\":1421:1431  sum.mul(2) */\n      swap2\n      swap1\n      0xffffffff\n      and\n      jump\t// in\n    tag_19:\n        /* \"contracts/MathCalculator.sol\":1403:1431  uint256 product = sum.mul(2) */\n      swap1\n      pop\n        /* \"contracts/MathCalculator.sol\":1448:1455  product */\n      dup1\n        /* \"contracts/MathCalculator.sol\":1441:1455  return product */\n      swap3\n      pop\n      pop\n      pop\n        /* \"contracts/MathCalculator.sol\":1254:1462  function calculate(uint256 x, uint256 y) public pure returns (uint256) {... */\n      swap3\n      swap2\n      pop\n      pop\n      jump\t// out\n        /* \"contracts/MathCalculator.sol\":1468:1659  function complexCalculation(... */\n    tag_14:\n        /* \"contracts/MathCalculator.sol\":1580:1587  uint256 */\n      0x00\n        /* \"contracts/MathCalculator.sol\":1630:1652  a.add(b).mul(c).div(2) */\n      tag_22\n        /* \"contracts/MathCalculator.sol\":1650:1651  2 */\n      0x02\n        /* \"contracts/MathCalculator.sol\":1630:1645  a.add(b).mul(c) */\n      tag_23\n        /* \"contracts/MathCalculator.sol\":1643:1644  c */\n      dup5\n        /* \"contracts/MathCalculator.sol\":1630:1638  a.add(b) */\n      tag_24\n        /* \"contracts/MathCalculator.sol\":1636:1637  b */\n      dup8\n        /* \"contracts/MathCalculator.sol\":1630:1631  a */\n      dup10\n        /* \"contracts/MathCalculator.sol\":1630:1635  a.add */\n      tag_18\n      swap1\n        /* \"contracts/MathCalculator.sol\":1630:1638  a.add(b) */\n      swap2\n      swap1\n      0xffffffff\n      and\n      jump\t// in\n    tag_24:\n        /* \"contracts/MathCalculator.sol\":1630:1642  a.add(b).mul */\n      tag_20\n      swap1\n        /* \"contracts/MathCalculator.sol\":1630:1645  a.add(b).mul(c) */\n      swap2\n      swap1\n      0xffffffff\n      and\n      jump\t// in\n    tag_23:\n        /* \"contracts/MathCalculator.sol\":1630:1649  a.add(b).mul(c).div */\n      tag_25\n      swap1\n        /* \"contracts/MathCalculator.sol\":1630:1652  a.add(b).mul(c).div(2) */\n      swap2\n      swap1\n      0xffffffff\n      and\n      jump\t// in\n    tag_22:\n        /* \"contracts/MathCalculator.sol\":1623:1652  return a.add(b).mul(c).div(2) */\n      swap1\n      pop\n        /* \"contracts/MathCalculator.sol\":1468:1659  function complexCalculation(... */\n      swap4\n      swap3\n      pop\n      pop\n      pop\n      jump\t// out\n        /* \"contracts/MathCalculator.sol\":100:274  function add(uint256 a, uint256 b) internal pure returns (uint256) {... */\n    tag_18:\n        /* \"contracts/MathCalculator.sol\":158:165  uint256 */\n      0x00\n        /* \"contracts/MathCalculator.sol\":177:186  uint256 c */\n      0x00\n        /* \"contracts/MathCalculator.sol\":193:194  b */\n      dup3\n        /* \"contracts/MathCalculator.sol\":189:190  a */\n      dup5\n        /* \"contracts/MathCalculator.sol\":189:194  a + b */\n      tag_27\n      swap2\n      swap1\n      tag_28\n      jump\t// in\n    tag_27:\n        /* \"contracts/MathCalculator.sol\":177:194  uint256 c = a + b */\n      swap1\n      pop\n        /* \"contracts/MathCalculator.sol\":217:218  a */\n      dup4\n        /* \"contracts/MathCalculator.sol\":212:213  c */\n      dup2\n        /* \"contracts/MathCalculator.sol\":212:218  c >= a */\n      lt\n      iszero\n        /* \"contracts/MathCalculator.sol\":204:249  require(c >= a, \"MathLib: addition overflow\") */\n      tag_29\n      jumpi\n      mload(0x40)\n      0x08c379a000000000000000000000000000000000000000000000000000000000\n      dup2\n      mstore\n      0x04\n      add\n      tag_30\n      swap1\n      tag_31\n      jump\t// in\n    tag_30:\n      mload(0x40)\n      dup1\n      swap2\n      sub\n      swap1\n      revert\n    tag_29:\n        /* \"contracts/MathCalculator.sol\":266:267  c */\n      dup1\n        /* \"contracts/MathCalculator.sol\":259:267  return c */\n      swap2\n      pop\n      pop\n        /* \"contracts/MathCalculator.sol\":100:274  function add(uint256 a, uint256 b) internal pure returns (uint256) {... */\n      swap3\n      swap2\n      pop\n      pop\n      jump\t// out\n        /* \"contracts/MathCalculator.sol\":481:719  function mul(uint256 a, uint256 b) internal pure returns (uint256) {... */\n    tag_20:\n        /* \"contracts/MathCalculator.sol\":539:546  uint256 */\n      0x00\n        /* \"contracts/MathCalculator.sol\":567:568  0 */\n      0x00\n        /* \"contracts/MathCalculator.sol\":562:563  a */\n      dup4\n        /* \"contracts/MathCalculator.sol\":562:568  a == 0 */\n      sub\n        /* \"contracts/MathCalculator.sol\":558:603  if (a == 0) {... */\n      tag_33\n      jumpi\n        /* \"contracts/MathCalculator.sol\":591:592  0 */\n      0x00\n        /* \"contracts/MathCalculator.sol\":584:592  return 0 */\n      swap1\n      pop\n      jump(tag_32)\n        /* \"contracts/MathCalculator.sol\":558:603  if (a == 0) {... */\n    tag_33:\n        /* \"contracts/MathCalculator.sol\":612:621  uint256 c */\n      0x00\n        /* \"contracts/MathCalculator.sol\":628:629  b */\n      dup3\n        /* \"contracts/MathCalculator.sol\":624:625  a */\n      dup5\n        /* \"contracts/MathCalculator.sol\":624:629  a * b */\n      tag_34\n      swap2\n      swap1\n      tag_35\n      jump\t// in\n    tag_34:\n        /* \"contracts/MathCalculator.sol\":612:629  uint256 c = a * b */\n      swap1\n      pop\n        /* \"contracts/MathCalculator.sol\":656:657  b */\n      dup3\n        /* \"contracts/MathCalculator.sol\":651:652  a */\n      dup5\n        /* \"contracts/MathCalculator.sol\":647:648  c */\n      dup3\n        /* \"contracts/MathCalculator.sol\":647:652  c / a */\n      tag_36\n      swap2\n      swap1\n      tag_37\n      jump\t// in\n    tag_36:\n        /* \"contracts/MathCalculator.sol\":647:657  c / a == b */\n      eq\n        /* \"contracts/MathCalculator.sol\":639:694  require(c / a == b, \"MathLib: multiplication overflow\") */\n      tag_38\n      jumpi\n      mload(0x40)\n      0x08c379a000000000000000000000000000000000000000000000000000000000\n      dup2\n      mstore\n      0x04\n      add\n      tag_39\n      swap1\n      tag_40\n      jump\t// in\n    tag_39:\n      mload(0x40)\n      dup1\n      swap2\n      sub\n      swap1\n      revert\n    tag_38:\n        /* \"contracts/MathCalculator.sol\":711:712  c */\n      dup1\n        /* \"contracts/MathCalculator.sol\":704:712  return c */\n      swap2\n      pop\n      pop\n        /* \"contracts/MathCalculator.sol\":481:719  function mul(uint256 a, uint256 b) internal pure returns (uint256) {... */\n    tag_32:\n      swap3\n      swap2\n      pop\n      pop\n      jump\t// out\n        /* \"contracts/MathCalculator.sol\":745:894  function div(uint256 a, uint256 b) internal pure returns (uint256) {... */\n    tag_25:\n        /* \"contracts/MathCalculator.sol\":803:810  uint256 */\n      0x00\n        /* \"contracts/MathCalculator.sol\":834:835  0 */\n      0x00\n        /* \"contracts/MathCalculator.sol\":830:831  b */\n      dup3\n        /* \"contracts/MathCalculator.sol\":830:835  b > 0 */\n      gt\n        /* \"contracts/MathCalculator.sol\":822:865  require(b > 0, \"MathLib: division by zero\") */\n      tag_42\n      jumpi\n      mload(0x40)\n      0x08c379a000000000000000000000000000000000000000000000000000000000\n      dup2\n      mstore\n      0x04\n      add\n      tag_43\n      swap1\n      tag_44\n      jump\t// in\n    tag_43:\n      mload(0x40)\n      dup1\n      swap2\n      sub\n      swap1\n      revert\n    tag_42:\n        /* \"contracts/MathCalculator.sol\":886:887  b */\n      dup2\n        /* \"contracts/MathCalculator.sol\":882:883  a */\n      dup4\n        /* \"contracts/MathCalculator.sol\":882:887  a / b */\n      tag_45\n      swap2\n      swap1\n      tag_37\n      jump\t// in\n    tag_45:\n        /* \"contracts/MathCalculator.sol\":875:887  return a / b */\n      swap1\n      pop\n        /* \"contracts/MathCalculator.sol\":745:894  function div(uint256 a, uint256 b) internal pure returns (uint256) {... */\n      swap3\n      swap2\n      pop\n      pop\n      jump\t// out\n        /* \"#utility.yul\":88:205   */\n    tag_47:\n        /* \"#utility.yul\":197:198   */\n      0x00\n        /* \"#utility.yul\":194:195   */\n      0x00\n        /* \"#utility.yul\":187:199   */\n      revert\n        /* \"#utility.yul\":334:411   */\n    tag_49:\n        /* \"#utility.yul\":371:378   */\n      0x00\n        /* \"#utility.yul\":400:405   */\n      dup2\n        /* \"#utility.yul\":389:405   */\n      swap1\n      pop\n        /* \"#utility.yul\":334:411   */\n      swap2\n      swap1\n      pop\n      jump\t// out\n        /* \"#utility.yul\":417:539   */\n    tag_50:\n        /* \"#utility.yul\":490:514   */\n      tag_68\n        /* \"#utility.yul\":508:513   */\n      dup2\n        /* \"#utility.yul\":490:514   */\n      tag_49\n      jump\t// in\n    tag_68:\n        /* \"#utility.yul\":483:488   */\n      dup2\n        /* \"#utility.yul\":480:515   */\n      eq\n        /* \"#utility.yul\":470:533   */\n      tag_69\n      jumpi\n        /* \"#utility.yul\":529:530   */\n      0x00\n        /* \"#utility.yul\":526:527   */\n      0x00\n        /* \"#utility.yul\":519:531   */\n      revert\n        /* \"#utility.yul\":470:533   */\n    tag_69:\n        /* \"#utility.yul\":417:539   */\n      pop\n      jump\t// out\n        /* \"#utility.yul\":545:684   */\n    tag_51:\n        /* \"#utility.yul\":591:596   */\n      0x00\n        /* \"#utility.yul\":629:635   */\n      dup2\n        /* \"#utility.yul\":616:636   */\n      calldataload\n        /* \"#utility.yul\":607:636   */\n      swap1\n      pop\n        /* \"#utility.yul\":645:678   */\n      tag_71\n        /* \"#utility.yul\":672:677   */\n      dup2\n        /* \"#utility.yul\":645:678   */\n      tag_50\n      jump\t// in\n    tag_71:\n        /* \"#utility.yul\":545:684   */\n      swap3\n      swap2\n      pop\n      pop\n      jump\t// out\n        /* \"#utility.yul\":690:1164   */\n    tag_7:\n        /* \"#utility.yul\":758:764   */\n      0x00\n        /* \"#utility.yul\":766:772   */\n      0x00\n        /* \"#utility.yul\":815:817   */\n      0x40\n        /* \"#utility.yul\":803:812   */\n      dup4\n        /* \"#utility.yul\":794:801   */\n      dup6\n        /* \"#utility.yul\":790:813   */\n      sub\n        /* \"#utility.yul\":786:818   */\n      slt\n        /* \"#utility.yul\":783:902   */\n      iszero\n      tag_73\n      jumpi\n        /* \"#utility.yul\":821:900   */\n      tag_74\n      tag_47\n      jump\t// in\n    tag_74:\n        /* \"#utility.yul\":783:902   */\n    tag_73:\n        /* \"#utility.yul\":941:942   */\n      0x00\n        /* \"#utility.yul\":966:1019   */\n      tag_75\n        /* \"#utility.yul\":1011:1018   */\n      dup6\n        /* \"#utility.yul\":1002:1008   */\n      dup3\n        /* \"#utility.yul\":991:1000   */\n      dup7\n        /* \"#utility.yul\":987:1009   */\n      add\n        /* \"#utility.yul\":966:1019   */\n      tag_51\n      jump\t// in\n    tag_75:\n        /* \"#utility.yul\":956:1019   */\n      swap3\n      pop\n        /* \"#utility.yul\":912:1029   */\n      pop\n        /* \"#utility.yul\":1068:1070   */\n      0x20\n        /* \"#utility.yul\":1094:1147   */\n      tag_76\n        /* \"#utility.yul\":1139:1146   */\n      dup6\n        /* \"#utility.yul\":1130:1136   */\n      dup3\n        /* \"#utility.yul\":1119:1128   */\n      dup7\n        /* \"#utility.yul\":1115:1137   */\n      add\n        /* \"#utility.yul\":1094:1147   */\n      tag_51\n      jump\t// in\n    tag_76:\n        /* \"#utility.yul\":1084:1147   */\n      swap2\n      pop\n        /* \"#utility.yul\":1039:1157   */\n      pop\n        /* \"#utility.yul\":690:1164   */\n      swap3\n      pop\n      swap3\n      swap1\n      pop\n      jump\t// out\n        /* \"#utility.yul\":1170:1288   */\n    tag_52:\n        /* \"#utility.yul\":1257:1281   */\n      tag_78\n        /* \"#utility.yul\":1275:1280   */\n      dup2\n        /* \"#utility.yul\":1257:1281   */\n      tag_49\n      jump\t// in\n    tag_78:\n        /* \"#utility.yul\":1252:1255   */\n      dup3\n        /* \"#utility.yul\":1245:1282   */\n      mstore\n        /* \"#utility.yul\":1170:1288   */\n      pop\n      pop\n      jump\t// out\n        /* \"#utility.yul\":1294:1516   */\n    tag_10:\n        /* \"#utility.yul\":1387:1391   */\n      0x00\n        /* \"#utility.yul\":1425:1427   */\n      0x20\n        /* \"#utility.yul\":1414:1423   */\n      dup3\n        /* \"#utility.yul\":1410:1428   */\n      add\n        /* \"#utility.yul\":1402:1428   */\n      swap1\n      pop\n        /* \"#utility.yul\":1438:1509   */\n      tag_80\n        /* \"#utility.yul\":1506:1507   */\n      0x00\n        /* \"#utility.yul\":1495:1504   */\n      dup4\n        /* \"#utility.yul\":1491:1508   */\n      add\n        /* \"#utility.yul\":1482:1488   */\n      dup5\n        /* \"#utility.yul\":1438:1509   */\n      tag_52\n      jump\t// in\n    tag_80:\n        /* \"#utility.yul\":1294:1516   */\n      swap3\n      swap2\n      pop\n      pop\n      jump\t// out\n        /* \"#utility.yul\":1522:2141   */\n    tag_13:\n        /* \"#utility.yul\":1599:1605   */\n      0x00\n        /* \"#utility.yul\":1607:1613   */\n      0x00\n        /* \"#utility.yul\":1615:1621   */\n      0x00\n        /* \"#utility.yul\":1664:1666   */\n      0x60\n        /* \"#utility.yul\":1652:1661   */\n      dup5\n        /* \"#utility.yul\":1643:1650   */\n      dup7\n        /* \"#utility.yul\":1639:1662   */\n      sub\n        /* \"#utility.yul\":1635:1667   */\n      slt\n        /* \"#utility.yul\":1632:1751   */\n      iszero\n      tag_82\n      jumpi\n        /* \"#utility.yul\":1670:1749   */\n      tag_83\n      tag_47\n      jump\t// in\n    tag_83:\n        /* \"#utility.yul\":1632:1751   */\n    tag_82:\n        /* \"#utility.yul\":1790:1791   */\n      0x00\n        /* \"#utility.yul\":1815:1868   */\n      tag_84\n        /* \"#utility.yul\":1860:1867   */\n      dup7\n        /* \"#utility.yul\":1851:1857   */\n      dup3\n        /* \"#utility.yul\":1840:1849   */\n      dup8\n        /* \"#utility.yul\":1836:1858   */\n      add\n        /* \"#utility.yul\":1815:1868   */\n      tag_51\n      jump\t// in\n    tag_84:\n        /* \"#utility.yul\":1805:1868   */\n      swap4\n      pop\n        /* \"#utility.yul\":1761:1878   */\n      pop\n        /* \"#utility.yul\":1917:1919   */\n      0x20\n        /* \"#utility.yul\":1943:1996   */\n      tag_85\n        /* \"#utility.yul\":1988:1995   */\n      dup7\n        /* \"#utility.yul\":1979:1985   */\n      dup3\n        /* \"#utility.yul\":1968:1977   */\n      dup8\n        /* \"#utility.yul\":1964:1986   */\n      add\n        /* \"#utility.yul\":1943:1996   */\n      tag_51\n      jump\t// in\n    tag_85:\n        /* \"#utility.yul\":1933:1996   */\n      swap3\n      pop\n        /* \"#utility.yul\":1888:2006   */\n      pop\n        /* \"#utility.yul\":2045:2047   */\n      0x40\n        /* \"#utility.yul\":2071:2124   */\n      tag_86\n        /* \"#utility.yul\":2116:2123   */\n      dup7\n        /* \"#utility.yul\":2107:2113   */\n      dup3\n        /* \"#utility.yul\":2096:2105   */\n      dup8\n        /* \"#utility.yul\":2092:2114   */\n      add\n        /* \"#utility.yul\":2071:2124   */\n      tag_51\n      jump\t// in\n    tag_86:\n        /* \"#utility.yul\":2061:2124   */\n      swap2\n      pop\n        /* \"#utility.yul\":2016:2134   */\n      pop\n        /* \"#utility.yul\":1522:2141   */\n      swap3\n      pop\n      swap3\n      pop\n      swap3\n      jump\t// out\n        /* \"#utility.yul\":2147:2327   */\n    tag_53:\n        /* \"#utility.yul\":2195:2272   */\n      0x4e487b7100000000000000000000000000000000000000000000000000000000\n        /* \"#utility.yul\":2192:2193   */\n      0x00\n        /* \"#utility.yul\":2185:2273   */\n      mstore\n        /* \"#utility.yul\":2292:2296   */\n      0x11\n        /* \"#utility.yul\":2289:2290   */\n      0x04\n        /* \"#utility.yul\":2282:2297   */\n      mstore\n        /* \"#utility.yul\":2316:2320   */\n      0x24\n        /* \"#utility.yul\":2313:2314   */\n      0x00\n        /* \"#utility.yul\":2306:2321   */\n      revert\n        /* \"#utility.yul\":2333:2524   */\n    tag_28:\n        /* \"#utility.yul\":2373:2376   */\n      0x00\n        /* \"#utility.yul\":2392:2412   */\n      tag_89\n        /* \"#utility.yul\":2410:2411   */\n      dup3\n        /* \"#utility.yul\":2392:2412   */\n      tag_49\n      jump\t// in\n    tag_89:\n        /* \"#utility.yul\":2387:2412   */\n      swap2\n      pop\n        /* \"#utility.yul\":2426:2446   */\n      tag_90\n        /* \"#utility.yul\":2444:2445   */\n      dup4\n        /* \"#utility.yul\":2426:2446   */\n      tag_49\n      jump\t// in\n    tag_90:\n        /* \"#utility.yul\":2421:2446   */\n      swap3\n      pop\n        /* \"#utility.yul\":2469:2470   */\n      dup3\n        /* \"#utility.yul\":2466:2467   */\n      dup3\n        /* \"#utility.yul\":2462:2471   */\n      add\n        /* \"#utility.yul\":2455:2471   */\n      swap1\n      pop\n        /* \"#utility.yul\":2490:2493   */\n      dup1\n        /* \"#utility.yul\":2487:2488   */\n      dup3\n        /* \"#utility.yul\":2484:2494   */\n      gt\n        /* \"#utility.yul\":2481:2517   */\n      iszero\n      tag_91\n      jumpi\n        /* \"#utility.yul\":2497:2515   */\n      tag_92\n      tag_53\n      jump\t// in\n    tag_92:\n        /* \"#utility.yul\":2481:2517   */\n    tag_91:\n        /* \"#utility.yul\":2333:2524   */\n      swap3\n      swap2\n      pop\n      pop\n      jump\t// out\n        /* \"#utility.yul\":2530:2699   */\n    tag_54:\n        /* \"#utility.yul\":2614:2625   */\n      0x00\n        /* \"#utility.yul\":2648:2654   */\n      dup3\n        /* \"#utility.yul\":2643:2646   */\n      dup3\n        /* \"#utility.yul\":2636:2655   */\n      mstore\n        /* \"#utility.yul\":2688:2692   */\n      0x20\n        /* \"#utility.yul\":2683:2686   */\n      dup3\n        /* \"#utility.yul\":2679:2693   */\n      add\n        /* \"#utility.yul\":2664:2693   */\n      swap1\n      pop\n        /* \"#utility.yul\":2530:2699   */\n      swap3\n      swap2\n      pop\n      pop\n      jump\t// out\n        /* \"#utility.yul\":2705:2881   */\n    tag_55:\n        /* \"#utility.yul\":2845:2873   */\n      0x4d6174684c69623a206164646974696f6e206f766572666c6f77000000000000\n        /* \"#utility.yul\":2841:2842   */\n      0x00\n        /* \"#utility.yul\":2833:2839   */\n      dup3\n        /* \"#utility.yul\":2829:2843   */\n      add\n        /* \"#utility.yul\":2822:2874   */\n      mstore\n        /* \"#utility.yul\":2705:2881   */\n      pop\n      jump\t// out\n        /* \"#utility.yul\":2887:3253   */\n    tag_56:\n        /* \"#utility.yul\":3029:3032   */\n      0x00\n        /* \"#utility.yul\":3050:3117   */\n      tag_96\n        /* \"#utility.yul\":3114:3116   */\n      0x1a\n        /* \"#utility.yul\":3109:3112   */\n      dup4\n        /* \"#utility.yul\":3050:3117   */\n      tag_54\n      jump\t// in\n    tag_96:\n        /* \"#utility.yul\":3043:3117   */\n      swap2\n      pop\n        /* \"#utility.yul\":3126:3219   */\n      tag_97\n        /* \"#utility.yul\":3215:3218   */\n      dup3\n        /* \"#utility.yul\":3126:3219   */\n      tag_55\n      jump\t// in\n    tag_97:\n        /* \"#utility.yul\":3244:3246   */\n      0x20\n        /* \"#utility.yul\":3239:3242   */\n      dup3\n        /* \"#utility.yul\":3235:3247   */\n      add\n        /* \"#utility.yul\":3228:3247   */\n      swap1\n      pop\n        /* \"#utility.yul\":2887:3253   */\n      swap2\n      swap1\n      pop\n      jump\t// out\n        /* \"#utility.yul\":3259:3678   */\n    tag_31:\n        /* \"#utility.yul\":3425:3429   */\n      0x00\n        /* \"#utility.yul\":3463:3465   */\n      0x20\n        /* \"#utility.yul\":3452:3461   */\n      dup3\n        /* \"#utility.yul\":3448:3466   */\n      add\n        /* \"#utility.yul\":3440:3466   */\n      swap1\n      pop\n        /* \"#utility.yul\":3512:3521   */\n      dup2\n        /* \"#utility.yul\":3506:3510   */\n      dup2\n        /* \"#utility.yul\":3502:3522   */\n      sub\n        /* \"#utility.yul\":3498:3499   */\n      0x00\n        /* \"#utility.yul\":3487:3496   */\n      dup4\n        /* \"#utility.yul\":3483:3500   */\n      add\n        /* \"#utility.yul\":3476:3523   */\n      mstore\n        /* \"#utility.yul\":3540:3671   */\n      tag_99\n        /* \"#utility.yul\":3666:3670   */\n      dup2\n        /* \"#utility.yul\":3540:3671   */\n      tag_56\n      jump\t// in\n    tag_99:\n        /* \"#utility.yul\":3532:3671   */\n      swap1\n      pop\n        /* \"#utility.yul\":3259:3678   */\n      swap2\n      swap1\n      pop\n      jump\t// out\n        /* \"#utility.yul\":3684:4094   */\n    tag_35:\n        /* \"#utility.yul\":3724:3731   */\n      0x00\n        /* \"#utility.yul\":3747:3767   */\n      tag_101\n        /* \"#utility.yul\":3765:3766   */\n      dup3\n        /* \"#utility.yul\":3747:3767   */\n      tag_49\n      jump\t// in\n    tag_101:\n        /* \"#utility.yul\":3742:3767   */\n      swap2\n      pop\n        /* \"#utility.yul\":3781:3801   */\n      tag_102\n        /* \"#utility.yul\":3799:3800   */\n      dup4\n        /* \"#utility.yul\":3781:3801   */\n      tag_49\n      jump\t// in\n    tag_102:\n        /* \"#utility.yul\":3776:3801   */\n      swap3\n      pop\n        /* \"#utility.yul\":3836:3837   */\n      dup3\n        /* \"#utility.yul\":3833:3834   */\n      dup3\n        /* \"#utility.yul\":3829:3838   */\n      mul\n        /* \"#utility.yul\":3858:3888   */\n      tag_103\n        /* \"#utility.yul\":3876:3887   */\n      dup2\n        /* \"#utility.yul\":3858:3888   */\n      tag_49\n      jump\t// in\n    tag_103:\n        /* \"#utility.yul\":3847:3888   */\n      swap2\n      pop\n        /* \"#utility.yul\":4037:4038   */\n      dup3\n        /* \"#utility.yul\":4028:4035   */\n      dup3\n        /* \"#utility.yul\":4024:4039   */\n      div\n        /* \"#utility.yul\":4021:4022   */\n      dup5\n        /* \"#utility.yul\":4018:4040   */\n      eq\n        /* \"#utility.yul\":3998:3999   */\n      dup4\n        /* \"#utility.yul\":3991:4000   */\n      iszero\n        /* \"#utility.yul\":3971:4054   */\n      or\n        /* \"#utility.yul\":3948:4087   */\n      tag_104\n      jumpi\n        /* \"#utility.yul\":4067:4085   */\n      tag_105\n      tag_53\n      jump\t// in\n    tag_105:\n        /* \"#utility.yul\":3948:4087   */\n    tag_104:\n        /* \"#utility.yul\":3732:4094   */\n      pop\n        /* \"#utility.yul\":3684:4094   */\n      swap3\n      swap2\n      pop\n      pop\n      jump\t// out\n        /* \"#utility.yul\":4100:4280   */\n    tag_57:\n        /* \"#utility.yul\":4148:4225   */\n      0x4e487b7100000000000000000000000000000000000000000000000000000000\n        /* \"#utility.yul\":4145:4146   */\n      0x00\n        /* \"#utility.yul\":4138:4226   */\n      mstore\n        /* \"#utility.yul\":4245:4249   */\n      0x12\n        /* \"#utility.yul\":4242:4243   */\n      0x04\n        /* \"#utility.yul\":4235:4250   */\n      mstore\n        /* \"#utility.yul\":4269:4273   */\n      0x24\n        /* \"#utility.yul\":4266:4267   */\n      0x00\n        /* \"#utility.yul\":4259:4274   */\n      revert\n        /* \"#utility.yul\":4286:4471   */\n    tag_37:\n        /* \"#utility.yul\":4326:4327   */\n      0x00\n        /* \"#utility.yul\":4343:4363   */\n      tag_108\n        /* \"#utility.yul\":4361:4362   */\n      dup3\n        /* \"#utility.yul\":4343:4363   */\n      tag_49\n      jump\t// in\n    tag_108:\n        /* \"#utility.yul\":4338:4363   */\n      swap2\n      pop\n        /* \"#utility.yul\":4377:4397   */\n      tag_109\n        /* \"#utility.yul\":4395:4396   */\n      dup4\n        /* \"#utility.yul\":4377:4397   */\n      tag_49\n      jump\t// in\n    tag_109:\n        /* \"#utility.yul\":4372:4397   */\n      swap3\n      pop\n        /* \"#utility.yul\":4416:4417   */\n      dup3\n        /* \"#utility.yul\":4406:4441   */\n      tag_110\n      jumpi\n        /* \"#utility.yul\":4421:4439   */\n      tag_111\n      tag_57\n      jump\t// in\n    tag_111:\n        /* \"#utility.yul\":4406:4441   */\n    tag_110:\n        /* \"#utility.yul\":4463:4464   */\n      dup3\n        /* \"#utility.yul\":4460:4461   */\n      dup3\n        /* \"#utility.yul\":4456:4465   */\n      div\n        /* \"#utility.yul\":4451:4465   */\n      swap1\n      pop\n        /* \"#utility.yul\":4286:4471   */\n      swap3\n      swap2\n      pop\n      pop\n      jump\t// out\n        /* \"#utility.yul\":4477:4659   */\n    tag_58:\n        /* \"#utility.yul\":4617:4651   */\n      0x4d6174684c69623a206d756c7469706c69636174696f6e206f766572666c6f77\n        /* \"#utility.yul\":4613:4614   */\n      0x00\n        /* \"#utility.yul\":4605:4611   */\n      dup3\n        /* \"#utility.yul\":4601:4615   */\n      add\n        /* \"#utility.yul\":4594:4652   */\n      mstore\n        /* \"#utility.yul\":4477:4659   */\n      pop\n      jump\t// out\n        /* \"#utility.yul\":4665:5031   */\n    tag_59:\n        /* \"#utility.yul\":4807:4810   */\n      0x00\n        /* \"#utility.yul\":4828:4895   */\n      tag_114\n        /* \"#utility.yul\":4892:4894   */\n      0x20\n        /* \"#utility.yul\":4887:4890   */\n      dup4\n        /* \"#utility.yul\":4828:4895   */\n      tag_54\n      jump\t// in\n    tag_114:\n        /* \"#utility.yul\":4821:4895   */\n      swap2\n      pop\n        /* \"#utility.yul\":4904:4997   */\n      tag_115\n        /* \"#utility.yul\":4993:4996   */\n      dup3\n        /* \"#utility.yul\":4904:4997   */\n      tag_58\n      jump\t// in\n    tag_115:\n        /* \"#utility.yul\":5022:5024   */\n      0x20\n        /* \"#utility.yul\":5017:5020   */\n      dup3\n        /* \"#utility.yul\":5013:5025   */\n      add\n        /* \"#utility.yul\":5006:5025   */\n      swap1\n      pop\n        /* \"#utility.yul\":4665:5031   */\n      swap2\n      swap1\n      pop\n      jump\t// out\n        /* \"#utility.yul\":5037:5456   */\n    tag_40:\n        /* \"#utility.yul\":5203:5207   */\n      0x00\n        /* \"#utility.yul\":5241:5243   */\n      0x20\n        /* \"#utility.yul\":5230:5239   */\n      dup3\n        /* \"#utility.yul\":5226:5244   */\n      add\n        /* \"#utility.yul\":5218:5244   */\n      swap1\n      pop\n        /* \"#utility.yul\":5290:5299   */\n      dup2\n        /* \"#utility.yul\":5284:5288   */\n      dup2\n        /* \"#utility.yul\":5280:5300   */\n      sub\n        /* \"#utility.yul\":5276:5277   */\n      0x00\n        /* \"#utility.yul\":5265:5274   */\n      dup4\n        /* \"#utility.yul\":5261:5278   */\n      add\n        /* \"#utility.yul\":5254:5301   */\n      mstore\n        /* \"#utility.yul\":5318:5449   */\n      tag_117\n        /* \"#utility.yul\":5444:5448   */\n      dup2\n        /* \"#utility.yul\":5318:5449   */\n      tag_59\n      jump\t// in\n    tag_117:\n        /* \"#utility.yul\":5310:5449   */\n      swap1\n      pop\n        /* \"#utility.yul\":5037:5456   */\n      swap2\n      swap1\n      pop\n      jump\t// out\n        /* \"#utility.yul\":5462:5637   */\n    tag_60:\n        /* \"#utility.yul\":5602:5629   */\n      0x4d6174684c69623a206469766973696f6e206279207a65726f00000000000000\n        /* \"#utility.yul\":5598:5599   */\n      0x00\n        /* \"#utility.yul\":5590:5596   */\n      dup3\n        /* \"#utility.yul\":5586:5600   */\n      add\n        /* \"#utility.yul\":5579:5630   */\n      mstore\n        /* \"#utility.yul\":5462:5637   */\n      pop\n      jump\t// out\n        /* \"#utility.yul\":5643:6009   */\n    tag_61:\n        /* \"#utility.yul\":5785:5788   */\n      0x00\n        /* \"#utility.yul\":5806:5873   */\n      tag_120\n        /* \"#utility.yul\":5870:5872   */\n      0x19\n        /* \"#utility.yul\":5865:5868   */\n      dup4\n        /* \"#utility.yul\":5806:5873   */\n      tag_54\n      jump\t// in\n    tag_120:\n        /* \"#utility.yul\":5799:5873   */\n      swap2\n      pop\n        /* \"#utility.yul\":5882:5975   */\n      tag_121\n        /* \"#utility.yul\":5971:5974   */\n      dup3\n        /* \"#utility.yul\":5882:5975   */\n      tag_60\n      jump\t// in\n    tag_121:\n        /* \"#utility.yul\":6000:6002   */\n      0x20\n        /* \"#utility.yul\":5995:5998   */\n      dup3\n        /* \"#utility.yul\":5991:6003   */\n      add\n        /* \"#utility.yul\":5984:6003   */\n      swap1\n      pop\n        /* \"#utility.yul\":5643:6009   */\n      swap2\n      swap1\n      pop\n      jump\t// out\n        /* \"#utility.yul\":6015:6434   */\n    tag_44:\n        /* \"#utility.yul\":6181:6185   */\n      0x00\n        /* \"#utility.yul\":6219:6221   */\n      0x20\n        /* \"#utility.yul\":6208:6217   */\n      dup3\n        /* \"#utility.yul\":6204:6222   */\n      add\n        /* \"#utility.yul\":6196:6222   */\n      swap1\n      pop\n        /* \"#utility.yul\":6268:6277   */\n      dup2\n        /* \"#utility.yul\":6262:6266   */\n      dup2\n        /* \"#utility.yul\":6258:6278   */\n      sub\n        /* \"#utility.yul\":6254:6255   */\n      0x00\n        /* \"#utility.yul\":6243:6252   */\n      dup4\n        /* \"#utility.yul\":6239:6256   */\n      add\n        /* \"#utility.yul\":6232:6279   */\n      mstore\n        /* \"#utility.yul\":6296:6427   */\n      tag_123\n        /* \"#utility.yul\":6422:6426   */\n      dup2\n        /* \"#utility.yul\":6296:6427   */\n      tag_61\n      jump\t// in\n    tag_123:\n        /* \"#utility.yul\":6288:6427   */\n      swap1\n      pop\n        /* \"#utility.yul\":6015:6434   */\n      swap2\n      swap1\n      pop\n      jump\t// out\n\n    auxdata: 0xa2646970667358221220c6e9b394b5a537ce5290cca41a07b5aa6803b237d6d12dfb6ec8923d0df6e99a64736f6c634300081e0033\n}\n",
				"bytecode": {
					"linkReferences": {},
					"object": "6080604052348015600e575f5ffd5b506105a78061001c5f395ff3fe608060405234801561000f575f5ffd5b5060043610610034575f3560e01c80638dfa436314610038578063fe0fb2f114610068575b5f5ffd5b610052600480360381019061004d9190610275565b610098565b60405161005f91906102c2565b60405180910390f35b610082600480360381019061007d91906102db565b6100d1565b60405161008f91906102c2565b60405180910390f35b5f5f6100ad838561011390919063ffffffff16565b90505f6100c460028361017090919063ffffffff16565b9050809250505092915050565b5f61010a60026100fc846100ee878961011390919063ffffffff16565b61017090919063ffffffff16565b6101e790919063ffffffff16565b90509392505050565b5f5f82846101219190610358565b905083811015610166576040517f08c379a000000000000000000000000000000000000000000000000000000000815260040161015d906103e5565b60405180910390fd5b8091505092915050565b5f5f8303610180575f90506101e1565b5f828461018d9190610403565b905082848261019c9190610471565b146101dc576040517f08c379a00000000000000000000000000000000000000000000000000000000081526004016101d3906104eb565b60405180910390fd5b809150505b92915050565b5f5f821161022a576040517f08c379a000000000000000000000000000000000000000000000000000000000815260040161022190610553565b60405180910390fd5b81836102369190610471565b905092915050565b5f5ffd5b5f819050919050565b61025481610242565b811461025e575f5ffd5b50565b5f8135905061026f8161024b565b92915050565b5f5f6040838503121561028b5761028a61023e565b5b5f61029885828601610261565b92505060206102a985828601610261565b9150509250929050565b6102bc81610242565b82525050565b5f6020820190506102d55f8301846102b3565b92915050565b5f5f5f606084860312156102f2576102f161023e565b5b5f6102ff86828701610261565b935050602061031086828701610261565b925050604061032186828701610261565b9150509250925092565b7f4e487b71000000000000000000000000000000000000000000000000000000005f52601160045260245ffd5b5f61036282610242565b915061036d83610242565b92508282019050808211156103855761038461032b565b5b92915050565b5f82825260208201905092915050565b7f4d6174684c69623a206164646974696f6e206f766572666c6f770000000000005f82015250565b5f6103cf601a8361038b565b91506103da8261039b565b602082019050919050565b5f6020820190508181035f8301526103fc816103c3565b9050919050565b5f61040d82610242565b915061041883610242565b925082820261042681610242565b9150828204841483151761043d5761043c61032b565b5b5092915050565b7f4e487b71000000000000000000000000000000000000000000000000000000005f52601260045260245ffd5b5f61047b82610242565b915061048683610242565b92508261049657610495610444565b5b828204905092915050565b7f4d6174684c69623a206d756c7469706c69636174696f6e206f766572666c6f775f82015250565b5f6104d560208361038b565b91506104e0826104a1565b602082019050919050565b5f6020820190508181035f830152610502816104c9565b9050919050565b7f4d6174684c69623a206469766973696f6e206279207a65726f000000000000005f82015250565b5f61053d60198361038b565b915061054882610509565b602082019050919050565b5f6020820190508181035f83015261056a81610531565b905091905056fea2646970667358221220c6e9b394b5a537ce5290cca41a07b5aa6803b237d6d12dfb6ec8923d0df6e99a64736f6c634300081e0033",
					"opcodes": "PUSH1 0x80 PUSH1 0x40 MSTORE CALLVALUE DUP1 ISZERO PUSH1 0xE JUMPI PUSH0 PUSH0 REVERT JUMPDEST POP PUSH2 0x5A7 DUP1 PUSH2 0x1C PUSH0 CODECOPY PUSH0 RETURN INVALID PUSH1 0x80 PUSH1 0x40 MSTORE CALLVALUE DUP1 ISZERO PUSH2 0xF JUMPI PUSH0 PUSH0 REVERT JUMPDEST POP PUSH1 0x4 CALLDATASIZE LT PUSH2 0x34 JUMPI PUSH0 CALLDATALOAD PUSH1 0xE0 SHR DUP1 PUSH4 0x8DFA4363 EQ PUSH2 0x38 JUMPI DUP1 PUSH4 0xFE0FB2F1 EQ PUSH2 0x68 JUMPI JUMPDEST PUSH0 PUSH0 REVERT JUMPDEST PUSH2 0x52 PUSH1 0x4 DUP1 CALLDATASIZE SUB DUP2 ADD SWAP1 PUSH2 0x4D SWAP2 SWAP1 PUSH2 0x275 JUMP JUMPDEST PUSH2 0x98 JUMP JUMPDEST PUSH1 0x40 MLOAD PUSH2 0x5F SWAP2 SWAP1 PUSH2 0x2C2 JUMP JUMPDEST PUSH1 0x40 MLOAD DUP1 SWAP2 SUB SWAP1 RETURN JUMPDEST PUSH2 0x82 PUSH1 0x4 DUP1 CALLDATASIZE SUB DUP2 ADD SWAP1 PUSH2 0x7D SWAP2 SWAP1 PUSH2 0x2DB JUMP JUMPDEST PUSH2 0xD1 JUMP JUMPDEST PUSH1 0x40 MLOAD PUSH2 0x8F SWAP2 SWAP1 PUSH2 0x2C2 JUMP JUMPDEST PUSH1 0x40 MLOAD DUP1 SWAP2 SUB SWAP1 RETURN JUMPDEST PUSH0 PUSH0 PUSH2 0xAD DUP4 DUP6 PUSH2 0x113 SWAP1 SWAP2 SWAP1 PUSH4 0xFFFFFFFF AND JUMP JUMPDEST SWAP1 POP PUSH0 PUSH2 0xC4 PUSH1 0x2 DUP4 PUSH2 0x170 SWAP1 SWAP2 SWAP1 PUSH4 0xFFFFFFFF AND JUMP JUMPDEST SWAP1 POP DUP1 SWAP3 POP POP POP SWAP3 SWAP2 POP POP JUMP JUMPDEST PUSH0 PUSH2 0x10A PUSH1 0x2 PUSH2 0xFC DUP5 PUSH2 0xEE DUP8 DUP10 PUSH2 0x113 SWAP1 SWAP2 SWAP1 PUSH4 0xFFFFFFFF AND JUMP JUMPDEST PUSH2 0x170 SWAP1 SWAP2 SWAP1 PUSH4 0xFFFFFFFF AND JUMP JUMPDEST PUSH2 0x1E7 SWAP1 SWAP2 SWAP1 PUSH4 0xFFFFFFFF AND JUMP JUMPDEST SWAP1 POP SWAP4 SWAP3 POP POP POP JUMP JUMPDEST PUSH0 PUSH0 DUP3 DUP5 PUSH2 0x121 SWAP2 SWAP1 PUSH2 0x358 JUMP JUMPDEST SWAP1 POP DUP4 DUP2 LT ISZERO PUSH2 0x166 JUMPI PUSH1 0x40 MLOAD PUSH32 0x8C379A000000000000000000000000000000000000000000000000000000000 DUP2 MSTORE PUSH1 0x4 ADD PUSH2 0x15D SWAP1 PUSH2 0x3E5 JUMP JUMPDEST PUSH1 0x40 MLOAD DUP1 SWAP2 SUB SWAP1 REVERT JUMPDEST DUP1 SWAP2 POP POP SWAP3 SWAP2 POP POP JUMP JUMPDEST PUSH0 PUSH0 DUP4 SUB PUSH2 0x180 JUMPI PUSH0 SWAP1 POP PUSH2 0x1E1 JUMP JUMPDEST PUSH0 DUP3 DUP5 PUSH2 0x18D SWAP2 SWAP1 PUSH2 0x403 JUMP JUMPDEST SWAP1 POP DUP3 DUP5 DUP3 PUSH2 0x19C SWAP2 SWAP1 PUSH2 0x471 JUMP JUMPDEST EQ PUSH2 0x1DC JUMPI PUSH1 0x40 MLOAD PUSH32 0x8C379A000000000000000000000000000000000000000000000000000000000 DUP2 MSTORE PUSH1 0x4 ADD PUSH2 0x1D3 SWAP1 PUSH2 0x4EB JUMP JUMPDEST PUSH1 0x40 MLOAD DUP1 SWAP2 SUB SWAP1 REVERT JUMPDEST DUP1 SWAP2 POP POP JUMPDEST SWAP3 SWAP2 POP POP JUMP JUMPDEST PUSH0 PUSH0 DUP3 GT PUSH2 0x22A JUMPI PUSH1 0x40 MLOAD PUSH32 0x8C379A000000000000000000000000000000000000000000000000000000000 DUP2 MSTORE PUSH1 0x4 ADD PUSH2 0x221 SWAP1 PUSH2 0x553 JUMP JUMPDEST PUSH1 0x40 MLOAD DUP1 SWAP2 SUB SWAP1 REVERT JUMPDEST DUP2 DUP4 PUSH2 0x236 SWAP2 SWAP1 PUSH2 0x471 JUMP JUMPDEST SWAP1 POP SWAP3 SWAP2 POP POP JUMP JUMPDEST PUSH0 PUSH0 REVERT JUMPDEST PUSH0 DUP2 SWAP1 POP SWAP2 SWAP1 POP JUMP JUMPDEST PUSH2 0x254 DUP2 PUSH2 0x242 JUMP JUMPDEST DUP2 EQ PUSH2 0x25E JUMPI PUSH0 PUSH0 REVERT JUMPDEST POP JUMP JUMPDEST PUSH0 DUP2 CALLDATALOAD SWAP1 POP PUSH2 0x26F DUP2 PUSH2 0x24B JUMP JUMPDEST SWAP3 SWAP2 POP POP JUMP JUMPDEST PUSH0 PUSH0 PUSH1 0x40 DUP4 DUP6 SUB SLT ISZERO PUSH2 0x28B JUMPI PUSH2 0x28A PUSH2 0x23E JUMP JUMPDEST JUMPDEST PUSH0 PUSH2 0x298 DUP6 DUP3 DUP7 ADD PUSH2 0x261 JUMP JUMPDEST SWAP3 POP POP PUSH1 0x20 PUSH2 0x2A9 DUP6 DUP3 DUP7 ADD PUSH2 0x261 JUMP JUMPDEST SWAP2 POP POP SWAP3 POP SWAP3 SWAP1 POP JUMP JUMPDEST PUSH2 0x2BC DUP2 PUSH2 0x242 JUMP JUMPDEST DUP3 MSTORE POP POP JUMP JUMPDEST PUSH0 PUSH1 0x20 DUP3 ADD SWAP1 POP PUSH2 0x2D5 PUSH0 DUP4 ADD DUP5 PUSH2 0x2B3 JUMP JUMPDEST SWAP3 SWAP2 POP POP JUMP JUMPDEST PUSH0 PUSH0 PUSH0 PUSH1 0x60 DUP5 DUP7 SUB SLT ISZERO PUSH2 0x2F2 JUMPI PUSH2 0x2F1 PUSH2 0x23E JUMP JUMPDEST JUMPDEST PUSH0 PUSH2 0x2FF DUP7 DUP3 DUP8 ADD PUSH2 0x261 JUMP JUMPDEST SWAP4 POP POP PUSH1 0x20 PUSH2 0x310 DUP7 DUP3 DUP8 ADD PUSH2 0x261 JUMP JUMPDEST SWAP3 POP POP PUSH1 0x40 PUSH2 0x321 DUP7 DUP3 DUP8 ADD PUSH2 0x261 JUMP JUMPDEST SWAP2 POP POP SWAP3 POP SWAP3 POP SWAP3 JUMP JUMPDEST PUSH32 0x4E487B7100000000000000000000000000000000000000000000000000000000 PUSH0 MSTORE PUSH1 0x11 PUSH1 0x4 MSTORE PUSH1 0x24 PUSH0 REVERT JUMPDEST PUSH0 PUSH2 0x362 DUP3 PUSH2 0x242 JUMP JUMPDEST SWAP2 POP PUSH2 0x36D DUP4 PUSH2 0x242 JUMP JUMPDEST SWAP3 POP DUP3 DUP3 ADD SWAP1 POP DUP1 DUP3 GT ISZERO PUSH2 0x385 JUMPI PUSH2 0x384 PUSH2 0x32B JUMP JUMPDEST JUMPDEST SWAP3 SWAP2 POP POP JUMP JUMPDEST PUSH0 DUP3 DUP3 MSTORE PUSH1 0x20 DUP3 ADD SWAP1 POP SWAP3 SWAP2 POP POP JUMP JUMPDEST PUSH32 0x4D6174684C69623A206164646974696F6E206F766572666C6F77000000000000 PUSH0 DUP3 ADD MSTORE POP JUMP JUMPDEST PUSH0 PUSH2 0x3CF PUSH1 0x1A DUP4 PUSH2 0x38B JUMP JUMPDEST SWAP2 POP PUSH2 0x3DA DUP3 PUSH2 0x39B JUMP JUMPDEST PUSH1 0x20 DUP3 ADD SWAP1 POP SWAP2 SWAP1 POP JUMP JUMPDEST PUSH0 PUSH1 0x20 DUP3 ADD SWAP1 POP DUP2 DUP2 SUB PUSH0 DUP4 ADD MSTORE PUSH2 0x3FC DUP2 PUSH2 0x3C3 JUMP JUMPDEST SWAP1 POP SWAP2 SWAP1 POP JUMP JUMPDEST PUSH0 PUSH2 0x40D DUP3 PUSH2 0x242 JUMP JUMPDEST SWAP2 POP PUSH2 0x418 DUP4 PUSH2 0x242 JUMP JUMPDEST SWAP3 POP DUP3 DUP3 MUL PUSH2 0x426 DUP2 PUSH2 0x242 JUMP JUMPDEST SWAP2 POP DUP3 DUP3 DIV DUP5 EQ DUP4 ISZERO OR PUSH2 0x43D JUMPI PUSH2 0x43C PUSH2 0x32B JUMP JUMPDEST JUMPDEST POP SWAP3 SWAP2 POP POP JUMP JUMPDEST PUSH32 0x4E487B7100000000000000000000000000000000000000000000000000000000 PUSH0 MSTORE PUSH1 0x12 PUSH1 0x4 MSTORE PUSH1 0x24 PUSH0 REVERT JUMPDEST PUSH0 PUSH2 0x47B DUP3 PUSH2 0x242 JUMP JUMPDEST SWAP2 POP PUSH2 0x486 DUP4 PUSH2 0x242 JUMP JUMPDEST SWAP3 POP DUP3 PUSH2 0x496 JUMPI PUSH2 0x495 PUSH2 0x444 JUMP JUMPDEST JUMPDEST DUP3 DUP3 DIV SWAP1 POP SWAP3 SWAP2 POP POP JUMP JUMPDEST PUSH32 0x4D6174684C69623A206D756C7469706C69636174696F6E206F766572666C6F77 PUSH0 DUP3 ADD MSTORE POP JUMP JUMPDEST PUSH0 PUSH2 0x4D5 PUSH1 0x20 DUP4 PUSH2 0x38B JUMP JUMPDEST SWAP2 POP PUSH2 0x4E0 DUP3 PUSH2 0x4A1 JUMP JUMPDEST PUSH1 0x20 DUP3 ADD SWAP1 POP SWAP2 SWAP1 POP JUMP JUMPDEST PUSH0 PUSH1 0x20 DUP3 ADD SWAP1 POP DUP2 DUP2 SUB PUSH0 DUP4 ADD MSTORE PUSH2 0x502 DUP2 PUSH2 0x4C9 JUMP JUMPDEST SWAP1 POP SWAP2 SWAP1 POP JUMP JUMPDEST PUSH32 0x4D6174684C69623A206469766973696F6E206279207A65726F00000000000000 PUSH0 DUP3 ADD MSTORE POP JUMP JUMPDEST PUSH0 PUSH2 0x53D PUSH1 0x19 DUP4 PUSH2 0x38B JUMP JUMPDEST SWAP2 POP PUSH2 0x548 DUP3 PUSH2 0x509 JUMP JUMPDEST PUSH1 0x20 DUP3 ADD SWAP1 POP SWAP2 SWAP1 POP JUMP JUMPDEST PUSH0 PUSH1 0x20 DUP3 ADD SWAP1 POP DUP2 DUP2 SUB PUSH0 DUP4 ADD MSTORE PUSH2 0x56A DUP2 PUSH2 0x531 JUMP JUMPDEST SWAP1 POP SWAP2 SWAP1 POP JUMP INVALID LOG2 PUSH5 0x6970667358 0x22 SLT KECCAK256 0xC6 0xE9 0xB3 SWAP5 0xB5 0xA5 CALLDATACOPY 0xCE MSTORE SWAP1 0xCC LOG4 BYTE SMOD 0xB5 0xAA PUSH9 0x3B237D6D12DFB6EC8 SWAP3 RETURNDATASIZE 0xD 0xF6 0xE9 SWAP11 PUSH5 0x736F6C6343 STOP ADDMOD 0x1E STOP CALLER "
				},
				"gasEstimates": {
					"creation": {
						"codeDepositCost": "289400",
						"executionCost": "329",
						"totalCost": "289729"
					},
					"external": {
						"calculate(uint256,uint256)": "infinite",
						"complexCalculation(uint256,uint256,uint256)": "infinite"
					}
				},
				"methodIdentifiers": {
					"calculate(uint256,uint256)": "8dfa4363",
					"complexCalculation(uint256,uint256,uint256)": "fe0fb2f1"
				}
			},
			"storageLayout": {
				"storage": [],
				"types": null
			},
			"userdoc": {
				"kind": "user",
				"methods": {},
				"version": 1
			}
		}
	}
}