{
	"contracts/LibUsers.sol": {
		"ExternalLibUser": {
			"abi": [
				{
					"inputs": [
						{
							"internalType": "string",
							"name": "str",
							"type": "string"
						}
					],
					"name": "convertToUpper",
					"outputs": [
						{
							"internalType": "string",
							"name": "",
							"type": "string"
						}
					],
					"stateMutability": "pure",
					"type": "function"
				}
			],
			"devdoc": {
				"kind": "dev",
				"methods": {},
				"version": 1
			},
			"evm": {
				"assembly": "    /* \"contracts/LibUsers.sol\":1475:1698  contract ExternalLibUser {... */\n  mstore(0x40, 0x80)\n  callvalue\n  dup1\n  iszero\n  tag_1\n  jumpi\n  revert(0x00, 0x00)\ntag_1:\n  pop\n  dataSize(sub_0)\n  dup1\n  dataOffset(sub_0)\n  0x00\n  codecopy\n  0x00\n  return\nstop\n\nsub_0: assembly {\n        /* \"contracts/LibUsers.sol\":1475:1698  contract ExternalLibUser {... */\n      mstore(0x40, 0x80)\n      callvalue\n      dup1\n      iszero\n      tag_1\n      jumpi\n      revert(0x00, 0x00)\n    tag_1:\n      pop\n      jumpi(tag_2, lt(calldatasize, 0x04))\n      shr(0xe0, calldataload(0x00))\n      dup1\n      0x530d88cf\n      eq\n      tag_3\n      jumpi\n    tag_2:\n      revert(0x00, 0x00)\n        /* \"contracts/LibUsers.sol\":1506:1696  function convertToUpper(... */\n    tag_3:\n      tag_4\n      0x04\n      dup1\n      calldatasize\n      sub\n      dup2\n      add\n      swap1\n      tag_5\n      swap2\n      swap1\n      tag_6\n      jump\t// in\n    tag_5:\n      tag_7\n      jump\t// in\n    tag_4:\n      mload(0x40)\n      tag_8\n      swap2\n      swap1\n      tag_9\n      jump\t// in\n    tag_8:\n      mload(0x40)\n      dup1\n      swap2\n      sub\n      swap1\n      return\n    tag_7:\n        /* \"contracts/LibUsers.sol\":1584:1597  string memory */\n      0x60\n        /* \"contracts/LibUsers.sol\":1655:1672  ExternalStringLib */\n      linkerSymbol(\"c594bcd3c4a4ea18ce991de936e4b081217d7e98cad65030f9b4c5213a3a2ae3\")\n        /* \"contracts/LibUsers.sol\":1655:1684  ExternalStringLib.toUpperCase */\n      0x6299a85b\n        /* \"contracts/LibUsers.sol\":1685:1688  str */\n      dup4\n        /* \"contracts/LibUsers.sol\":1655:1689  ExternalStringLib.toUpperCase(str) */\n      mload(0x40)\n      dup3\n      0xffffffff\n      and\n      0xe0\n      shl\n      dup2\n      mstore\n      0x04\n      add\n      tag_11\n      swap2\n      swap1\n      tag_12\n      jump\t// in\n    tag_11:\n      0x00\n      mload(0x40)\n      dup1\n      dup4\n      sub\n      dup2\n      dup7\n      gas\n      delegatecall\n      iszero\n      dup1\n      iszero\n      tag_14\n      jumpi\n      returndatacopy(0x00, 0x00, returndatasize)\n      revert(0x00, returndatasize)\n    tag_14:\n      pop\n      pop\n      pop\n      pop\n      mload(0x40)\n      returndatasize\n      0x00\n      dup3\n      returndatacopy\n      returndatasize\n      not(0x1f)\n      0x1f\n      dup3\n      add\n      and\n      dup3\n      add\n      dup1\n      0x40\n      mstore\n      pop\n      dup2\n      add\n      swap1\n      tag_15\n      swap2\n      swap1\n      tag_16\n      jump\t// in\n    tag_15:\n        /* \"contracts/LibUsers.sol\":1648:1689  return ExternalStringLib.toUpperCase(str) */\n      swap1\n      pop\n        /* \"contracts/LibUsers.sol\":1506:1696  function convertToUpper(... */\n      swap2\n      swap1\n      pop\n      jump\t// out\n        /* \"#utility.yul\":7:82   */\n    tag_17:\n        /* \"#utility.yul\":40:46   */\n      0x00\n        /* \"#utility.yul\":73:75   */\n      0x40\n        /* \"#utility.yul\":67:76   */\n      mload\n        /* \"#utility.yul\":57:76   */\n      swap1\n      pop\n        /* \"#utility.yul\":7:82   */\n      swap1\n      jump\t// out\n        /* \"#utility.yul\":88:205   */\n    tag_18:\n        /* \"#utility.yul\":197:198   */\n      0x00\n        /* \"#utility.yul\":194:195   */\n      0x00\n        /* \"#utility.yul\":187:199   */\n      revert\n        /* \"#utility.yul\":211:328   */\n    tag_19:\n        /* \"#utility.yul\":320:321   */\n      0x00\n        /* \"#utility.yul\":317:318   */\n      0x00\n        /* \"#utility.yul\":310:322   */\n      revert\n        /* \"#utility.yul\":334:451   */\n    tag_20:\n        /* \"#utility.yul\":443:444   */\n      0x00\n        /* \"#utility.yul\":440:441   */\n      0x00\n        /* \"#utility.yul\":433:445   */\n      revert\n        /* \"#utility.yul\":457:574   */\n    tag_21:\n        /* \"#utility.yul\":566:567   */\n      0x00\n        /* \"#utility.yul\":563:564   */\n      0x00\n        /* \"#utility.yul\":556:568   */\n      revert\n        /* \"#utility.yul\":580:682   */\n    tag_22:\n        /* \"#utility.yul\":621:627   */\n      0x00\n        /* \"#utility.yul\":672:674   */\n      0x1f\n        /* \"#utility.yul\":668:675   */\n      not\n        /* \"#utility.yul\":663:665   */\n      0x1f\n        /* \"#utility.yul\":656:661   */\n      dup4\n        /* \"#utility.yul\":652:666   */\n      add\n        /* \"#utility.yul\":648:676   */\n      and\n        /* \"#utility.yul\":638:676   */\n      swap1\n      pop\n        /* \"#utility.yul\":580:682   */\n      swap2\n      swap1\n      pop\n      jump\t// out\n        /* \"#utility.yul\":688:868   */\n    tag_23:\n        /* \"#utility.yul\":736:813   */\n      0x4e487b7100000000000000000000000000000000000000000000000000000000\n        /* \"#utility.yul\":733:734   */\n      0x00\n        /* \"#utility.yul\":726:814   */\n      mstore\n        /* \"#utility.yul\":833:837   */\n      0x41\n        /* \"#utility.yul\":830:831   */\n      0x04\n        /* \"#utility.yul\":823:838   */\n      mstore\n        /* \"#utility.yul\":857:861   */\n      0x24\n        /* \"#utility.yul\":854:855   */\n      0x00\n        /* \"#utility.yul\":847:862   */\n      revert\n        /* \"#utility.yul\":874:1155   */\n    tag_24:\n        /* \"#utility.yul\":957:984   */\n      tag_47\n        /* \"#utility.yul\":979:983   */\n      dup3\n        /* \"#utility.yul\":957:984   */\n      tag_22\n      jump\t// in\n    tag_47:\n        /* \"#utility.yul\":949:955   */\n      dup2\n        /* \"#utility.yul\":945:985   */\n      add\n        /* \"#utility.yul\":1087:1093   */\n      dup2\n        /* \"#utility.yul\":1075:1085   */\n      dup2\n        /* \"#utility.yul\":1072:1094   */\n      lt\n        /* \"#utility.yul\":1051:1069   */\n      0xffffffffffffffff\n        /* \"#utility.yul\":1039:1049   */\n      dup3\n        /* \"#utility.yul\":1036:1070   */\n      gt\n        /* \"#utility.yul\":1033:1095   */\n      or\n        /* \"#utility.yul\":1030:1118   */\n      iszero\n      tag_48\n      jumpi\n        /* \"#utility.yul\":1098:1116   */\n      tag_49\n      tag_23\n      jump\t// in\n    tag_49:\n        /* \"#utility.yul\":1030:1118   */\n    tag_48:\n        /* \"#utility.yul\":1138:1148   */\n      dup1\n        /* \"#utility.yul\":1134:1136   */\n      0x40\n        /* \"#utility.yul\":1127:1149   */\n      mstore\n        /* \"#utility.yul\":917:1155   */\n      pop\n        /* \"#utility.yul\":874:1155   */\n      pop\n      pop\n      jump\t// out\n        /* \"#utility.yul\":1161:1290   */\n    tag_25:\n        /* \"#utility.yul\":1195:1201   */\n      0x00\n        /* \"#utility.yul\":1222:1242   */\n      tag_51\n      tag_17\n      jump\t// in\n    tag_51:\n        /* \"#utility.yul\":1212:1242   */\n      swap1\n      pop\n        /* \"#utility.yul\":1251:1284   */\n      tag_52\n        /* \"#utility.yul\":1279:1283   */\n      dup3\n        /* \"#utility.yul\":1271:1277   */\n      dup3\n        /* \"#utility.yul\":1251:1284   */\n      tag_24\n      jump\t// in\n    tag_52:\n        /* \"#utility.yul\":1161:1290   */\n      swap2\n      swap1\n      pop\n      jump\t// out\n        /* \"#utility.yul\":1296:1604   */\n    tag_26:\n        /* \"#utility.yul\":1358:1362   */\n      0x00\n        /* \"#utility.yul\":1448:1466   */\n      0xffffffffffffffff\n        /* \"#utility.yul\":1440:1446   */\n      dup3\n        /* \"#utility.yul\":1437:1467   */\n      gt\n        /* \"#utility.yul\":1434:1490   */\n      iszero\n      tag_54\n      jumpi\n        /* \"#utility.yul\":1470:1488   */\n      tag_55\n      tag_23\n      jump\t// in\n    tag_55:\n        /* \"#utility.yul\":1434:1490   */\n    tag_54:\n        /* \"#utility.yul\":1508:1537   */\n      tag_56\n        /* \"#utility.yul\":1530:1536   */\n      dup3\n        /* \"#utility.yul\":1508:1537   */\n      tag_22\n      jump\t// in\n    tag_56:\n        /* \"#utility.yul\":1500:1537   */\n      swap1\n      pop\n        /* \"#utility.yul\":1592:1596   */\n      0x20\n        /* \"#utility.yul\":1586:1590   */\n      dup2\n        /* \"#utility.yul\":1582:1597   */\n      add\n        /* \"#utility.yul\":1574:1597   */\n      swap1\n      pop\n        /* \"#utility.yul\":1296:1604   */\n      swap2\n      swap1\n      pop\n      jump\t// out\n        /* \"#utility.yul\":1610:1758   */\n    tag_27:\n        /* \"#utility.yul\":1708:1714   */\n      dup3\n        /* \"#utility.yul\":1703:1706   */\n      dup2\n        /* \"#utility.yul\":1698:1701   */\n      dup4\n        /* \"#utility.yul\":1685:1715   */\n      calldatacopy\n        /* \"#utility.yul\":1749:1750   */\n      0x00\n        /* \"#utility.yul\":1740:1746   */\n      dup4\n        /* \"#utility.yul\":1735:1738   */\n      dup4\n        /* \"#utility.yul\":1731:1747   */\n      add\n        /* \"#utility.yul\":1724:1751   */\n      mstore\n        /* \"#utility.yul\":1610:1758   */\n      pop\n      pop\n      pop\n      jump\t// out\n        /* \"#utility.yul\":1764:2189   */\n    tag_28:\n        /* \"#utility.yul\":1842:1847   */\n      0x00\n        /* \"#utility.yul\":1867:1933   */\n      tag_59\n        /* \"#utility.yul\":1883:1932   */\n      tag_60\n        /* \"#utility.yul\":1925:1931   */\n      dup5\n        /* \"#utility.yul\":1883:1932   */\n      tag_26\n      jump\t// in\n    tag_60:\n        /* \"#utility.yul\":1867:1933   */\n      tag_25\n      jump\t// in\n    tag_59:\n        /* \"#utility.yul\":1858:1933   */\n      swap1\n      pop\n        /* \"#utility.yul\":1956:1962   */\n      dup3\n        /* \"#utility.yul\":1949:1954   */\n      dup2\n        /* \"#utility.yul\":1942:1963   */\n      mstore\n        /* \"#utility.yul\":1994:1998   */\n      0x20\n        /* \"#utility.yul\":1987:1992   */\n      dup2\n        /* \"#utility.yul\":1983:1999   */\n      add\n        /* \"#utility.yul\":2032:2035   */\n      dup5\n        /* \"#utility.yul\":2023:2029   */\n      dup5\n        /* \"#utility.yul\":2018:2021   */\n      dup5\n        /* \"#utility.yul\":2014:2030   */\n      add\n        /* \"#utility.yul\":2011:2036   */\n      gt\n        /* \"#utility.yul\":2008:2120   */\n      iszero\n      tag_61\n      jumpi\n        /* \"#utility.yul\":2039:2118   */\n      tag_62\n      tag_21\n      jump\t// in\n    tag_62:\n        /* \"#utility.yul\":2008:2120   */\n    tag_61:\n        /* \"#utility.yul\":2129:2183   */\n      tag_63\n        /* \"#utility.yul\":2176:2182   */\n      dup5\n        /* \"#utility.yul\":2171:2174   */\n      dup3\n        /* \"#utility.yul\":2166:2169   */\n      dup6\n        /* \"#utility.yul\":2129:2183   */\n      tag_27\n      jump\t// in\n    tag_63:\n        /* \"#utility.yul\":1848:2189   */\n      pop\n        /* \"#utility.yul\":1764:2189   */\n      swap4\n      swap3\n      pop\n      pop\n      pop\n      jump\t// out\n        /* \"#utility.yul\":2209:2549   */\n    tag_29:\n        /* \"#utility.yul\":2265:2270   */\n      0x00\n        /* \"#utility.yul\":2314:2317   */\n      dup3\n        /* \"#utility.yul\":2307:2311   */\n      0x1f\n        /* \"#utility.yul\":2299:2305   */\n      dup4\n        /* \"#utility.yul\":2295:2312   */\n      add\n        /* \"#utility.yul\":2291:2318   */\n      slt\n        /* \"#utility.yul\":2281:2403   */\n      tag_65\n      jumpi\n        /* \"#utility.yul\":2322:2401   */\n      tag_66\n      tag_20\n      jump\t// in\n    tag_66:\n        /* \"#utility.yul\":2281:2403   */\n    tag_65:\n        /* \"#utility.yul\":2439:2445   */\n      dup2\n        /* \"#utility.yul\":2426:2446   */\n      calldataload\n        /* \"#utility.yul\":2464:2543   */\n      tag_67\n        /* \"#utility.yul\":2539:2542   */\n      dup5\n        /* \"#utility.yul\":2531:2537   */\n      dup3\n        /* \"#utility.yul\":2524:2528   */\n      0x20\n        /* \"#utility.yul\":2516:2522   */\n      dup7\n        /* \"#utility.yul\":2512:2529   */\n      add\n        /* \"#utility.yul\":2464:2543   */\n      tag_28\n      jump\t// in\n    tag_67:\n        /* \"#utility.yul\":2455:2543   */\n      swap2\n      pop\n        /* \"#utility.yul\":2271:2549   */\n      pop\n        /* \"#utility.yul\":2209:2549   */\n      swap3\n      swap2\n      pop\n      pop\n      jump\t// out\n        /* \"#utility.yul\":2555:3064   */\n    tag_6:\n        /* \"#utility.yul\":2624:2630   */\n      0x00\n        /* \"#utility.yul\":2673:2675   */\n      0x20\n        /* \"#utility.yul\":2661:2670   */\n      dup3\n        /* \"#utility.yul\":2652:2659   */\n      dup5\n        /* \"#utility.yul\":2648:2671   */\n      sub\n        /* \"#utility.yul\":2644:2676   */\n      slt\n        /* \"#utility.yul\":2641:2760   */\n      iszero\n      tag_69\n      jumpi\n        /* \"#utility.yul\":2679:2758   */\n      tag_70\n      tag_18\n      jump\t// in\n    tag_70:\n        /* \"#utility.yul\":2641:2760   */\n    tag_69:\n        /* \"#utility.yul\":2827:2828   */\n      0x00\n        /* \"#utility.yul\":2816:2825   */\n      dup3\n        /* \"#utility.yul\":2812:2829   */\n      add\n        /* \"#utility.yul\":2799:2830   */\n      calldataload\n        /* \"#utility.yul\":2857:2875   */\n      0xffffffffffffffff\n        /* \"#utility.yul\":2849:2855   */\n      dup2\n        /* \"#utility.yul\":2846:2876   */\n      gt\n        /* \"#utility.yul\":2843:2960   */\n      iszero\n      tag_71\n      jumpi\n        /* \"#utility.yul\":2879:2958   */\n      tag_72\n      tag_19\n      jump\t// in\n    tag_72:\n        /* \"#utility.yul\":2843:2960   */\n    tag_71:\n        /* \"#utility.yul\":2984:3047   */\n      tag_73\n        /* \"#utility.yul\":3039:3046   */\n      dup5\n        /* \"#utility.yul\":3030:3036   */\n      dup3\n        /* \"#utility.yul\":3019:3028   */\n      dup6\n        /* \"#utility.yul\":3015:3037   */\n      add\n        /* \"#utility.yul\":2984:3047   */\n      tag_29\n      jump\t// in\n    tag_73:\n        /* \"#utility.yul\":2974:3047   */\n      swap2\n      pop\n        /* \"#utility.yul\":2770:3057   */\n      pop\n        /* \"#utility.yul\":2555:3064   */\n      swap3\n      swap2\n      pop\n      pop\n      jump\t// out\n        /* \"#utility.yul\":3070:3169   */\n    tag_30:\n        /* \"#utility.yul\":3122:3128   */\n      0x00\n        /* \"#utility.yul\":3156:3161   */\n      dup2\n        /* \"#utility.yul\":3150:3162   */\n      mload\n        /* \"#utility.yul\":3140:3162   */\n      swap1\n      pop\n        /* \"#utility.yul\":3070:3169   */\n      swap2\n      swap1\n      pop\n      jump\t// out\n        /* \"#utility.yul\":3175:3344   */\n    tag_31:\n        /* \"#utility.yul\":3259:3270   */\n      0x00\n        /* \"#utility.yul\":3293:3299   */\n      dup3\n        /* \"#utility.yul\":3288:3291   */\n      dup3\n        /* \"#utility.yul\":3281:3300   */\n      mstore\n        /* \"#utility.yul\":3333:3337   */\n      0x20\n        /* \"#utility.yul\":3328:3331   */\n      dup3\n        /* \"#utility.yul\":3324:3338   */\n      add\n        /* \"#utility.yul\":3309:3338   */\n      swap1\n      pop\n        /* \"#utility.yul\":3175:3344   */\n      swap3\n      swap2\n      pop\n      pop\n      jump\t// out\n        /* \"#utility.yul\":3350:3489   */\n    tag_32:\n        /* \"#utility.yul\":3439:3445   */\n      dup3\n        /* \"#utility.yul\":3434:3437   */\n      dup2\n        /* \"#utility.yul\":3429:3432   */\n      dup4\n        /* \"#utility.yul\":3423:3446   */\n      mcopy\n        /* \"#utility.yul\":3480:3481   */\n      0x00\n        /* \"#utility.yul\":3471:3477   */\n      dup4\n        /* \"#utility.yul\":3466:3469   */\n      dup4\n        /* \"#utility.yul\":3462:3478   */\n      add\n        /* \"#utility.yul\":3455:3482   */\n      mstore\n        /* \"#utility.yul\":3350:3489   */\n      pop\n      pop\n      pop\n      jump\t// out\n        /* \"#utility.yul\":3495:3872   */\n    tag_33:\n        /* \"#utility.yul\":3583:3586   */\n      0x00\n        /* \"#utility.yul\":3611:3650   */\n      tag_78\n        /* \"#utility.yul\":3644:3649   */\n      dup3\n        /* \"#utility.yul\":3611:3650   */\n      tag_30\n      jump\t// in\n    tag_78:\n        /* \"#utility.yul\":3666:3737   */\n      tag_79\n        /* \"#utility.yul\":3730:3736   */\n      dup2\n        /* \"#utility.yul\":3725:3728   */\n      dup6\n        /* \"#utility.yul\":3666:3737   */\n      tag_31\n      jump\t// in\n    tag_79:\n        /* \"#utility.yul\":3659:3737   */\n      swap4\n      pop\n        /* \"#utility.yul\":3746:3811   */\n      tag_80\n        /* \"#utility.yul\":3804:3810   */\n      dup2\n        /* \"#utility.yul\":3799:3802   */\n      dup6\n        /* \"#utility.yul\":3792:3796   */\n      0x20\n        /* \"#utility.yul\":3785:3790   */\n      dup7\n        /* \"#utility.yul\":3781:3797   */\n      add\n        /* \"#utility.yul\":3746:3811   */\n      tag_32\n      jump\t// in\n    tag_80:\n        /* \"#utility.yul\":3836:3865   */\n      tag_81\n        /* \"#utility.yul\":3858:3864   */\n      dup2\n        /* \"#utility.yul\":3836:3865   */\n      tag_22\n      jump\t// in\n    tag_81:\n        /* \"#utility.yul\":3831:3834   */\n      dup5\n        /* \"#utility.yul\":3827:3866   */\n      add\n        /* \"#utility.yul\":3820:3866   */\n      swap2\n      pop\n        /* \"#utility.yul\":3587:3872   */\n      pop\n        /* \"#utility.yul\":3495:3872   */\n      swap3\n      swap2\n      pop\n      pop\n      jump\t// out\n        /* \"#utility.yul\":3878:4191   */\n    tag_9:\n        /* \"#utility.yul\":3991:3995   */\n      0x00\n        /* \"#utility.yul\":4029:4031   */\n      0x20\n        /* \"#utility.yul\":4018:4027   */\n      dup3\n        /* \"#utility.yul\":4014:4032   */\n      add\n        /* \"#utility.yul\":4006:4032   */\n      swap1\n      pop\n        /* \"#utility.yul\":4078:4087   */\n      dup2\n        /* \"#utility.yul\":4072:4076   */\n      dup2\n        /* \"#utility.yul\":4068:4088   */\n      sub\n        /* \"#utility.yul\":4064:4065   */\n      0x00\n        /* \"#utility.yul\":4053:4062   */\n      dup4\n        /* \"#utility.yul\":4049:4066   */\n      add\n        /* \"#utility.yul\":4042:4089   */\n      mstore\n        /* \"#utility.yul\":4106:4184   */\n      tag_83\n        /* \"#utility.yul\":4179:4183   */\n      dup2\n        /* \"#utility.yul\":4170:4176   */\n      dup5\n        /* \"#utility.yul\":4106:4184   */\n      tag_33\n      jump\t// in\n    tag_83:\n        /* \"#utility.yul\":4098:4184   */\n      swap1\n      pop\n        /* \"#utility.yul\":3878:4191   */\n      swap3\n      swap2\n      pop\n      pop\n      jump\t// out\n        /* \"#utility.yul\":4197:4374   */\n    tag_34:\n        /* \"#utility.yul\":4289:4300   */\n      0x00\n        /* \"#utility.yul\":4323:4329   */\n      dup3\n        /* \"#utility.yul\":4318:4321   */\n      dup3\n        /* \"#utility.yul\":4311:4330   */\n      mstore\n        /* \"#utility.yul\":4363:4367   */\n      0x20\n        /* \"#utility.yul\":4358:4361   */\n      dup3\n        /* \"#utility.yul\":4354:4368   */\n      add\n        /* \"#utility.yul\":4339:4368   */\n      swap1\n      pop\n        /* \"#utility.yul\":4197:4374   */\n      swap3\n      swap2\n      pop\n      pop\n      jump\t// out\n        /* \"#utility.yul\":4380:4773   */\n    tag_35:\n        /* \"#utility.yul\":4476:4479   */\n      0x00\n        /* \"#utility.yul\":4504:4543   */\n      tag_86\n        /* \"#utility.yul\":4537:4542   */\n      dup3\n        /* \"#utility.yul\":4504:4543   */\n      tag_30\n      jump\t// in\n    tag_86:\n        /* \"#utility.yul\":4559:4638   */\n      tag_87\n        /* \"#utility.yul\":4631:4637   */\n      dup2\n        /* \"#utility.yul\":4626:4629   */\n      dup6\n        /* \"#utility.yul\":4559:4638   */\n      tag_34\n      jump\t// in\n    tag_87:\n        /* \"#utility.yul\":4552:4638   */\n      swap4\n      pop\n        /* \"#utility.yul\":4647:4712   */\n      tag_88\n        /* \"#utility.yul\":4705:4711   */\n      dup2\n        /* \"#utility.yul\":4700:4703   */\n      dup6\n        /* \"#utility.yul\":4693:4697   */\n      0x20\n        /* \"#utility.yul\":4686:4691   */\n      dup7\n        /* \"#utility.yul\":4682:4698   */\n      add\n        /* \"#utility.yul\":4647:4712   */\n      tag_32\n      jump\t// in\n    tag_88:\n        /* \"#utility.yul\":4737:4766   */\n      tag_89\n        /* \"#utility.yul\":4759:4765   */\n      dup2\n        /* \"#utility.yul\":4737:4766   */\n      tag_22\n      jump\t// in\n    tag_89:\n        /* \"#utility.yul\":4732:4735   */\n      dup5\n        /* \"#utility.yul\":4728:4767   */\n      add\n        /* \"#utility.yul\":4721:4767   */\n      swap2\n      pop\n        /* \"#utility.yul\":4480:4773   */\n      pop\n        /* \"#utility.yul\":4380:4773   */\n      swap3\n      swap2\n      pop\n      pop\n      jump\t// out\n        /* \"#utility.yul\":4779:5108   */\n    tag_12:\n        /* \"#utility.yul\":4900:4904   */\n      0x00\n        /* \"#utility.yul\":4938:4940   */\n      0x20\n        /* \"#utility.yul\":4927:4936   */\n      dup3\n        /* \"#utility.yul\":4923:4941   */\n      add\n        /* \"#utility.yul\":4915:4941   */\n      swap1\n      pop\n        /* \"#utility.yul\":4987:4996   */\n      dup2\n        /* \"#utility.yul\":4981:4985   */\n      dup2\n        /* \"#utility.yul\":4977:4997   */\n      sub\n        /* \"#utility.yul\":4973:4974   */\n      0x00\n        /* \"#utility.yul\":4962:4971   */\n      dup4\n        /* \"#utility.yul\":4958:4975   */\n      add\n        /* \"#utility.yul\":4951:4998   */\n      mstore\n        /* \"#utility.yul\":5015:5101   */\n      tag_91\n        /* \"#utility.yul\":5096:5100   */\n      dup2\n        /* \"#utility.yul\":5087:5093   */\n      dup5\n        /* \"#utility.yul\":5015:5101   */\n      tag_35\n      jump\t// in\n    tag_91:\n        /* \"#utility.yul\":5007:5101   */\n      swap1\n      pop\n        /* \"#utility.yul\":4779:5108   */\n      swap3\n      swap2\n      pop\n      pop\n      jump\t// out\n        /* \"#utility.yul\":5114:5548   */\n    tag_36:\n        /* \"#utility.yul\":5203:5208   */\n      0x00\n        /* \"#utility.yul\":5228:5294   */\n      tag_93\n        /* \"#utility.yul\":5244:5293   */\n      tag_94\n        /* \"#utility.yul\":5286:5292   */\n      dup5\n        /* \"#utility.yul\":5244:5293   */\n      tag_26\n      jump\t// in\n    tag_94:\n        /* \"#utility.yul\":5228:5294   */\n      tag_25\n      jump\t// in\n    tag_93:\n        /* \"#utility.yul\":5219:5294   */\n      swap1\n      pop\n        /* \"#utility.yul\":5317:5323   */\n      dup3\n        /* \"#utility.yul\":5310:5315   */\n      dup2\n        /* \"#utility.yul\":5303:5324   */\n      mstore\n        /* \"#utility.yul\":5355:5359   */\n      0x20\n        /* \"#utility.yul\":5348:5353   */\n      dup2\n        /* \"#utility.yul\":5344:5360   */\n      add\n        /* \"#utility.yul\":5393:5396   */\n      dup5\n        /* \"#utility.yul\":5384:5390   */\n      dup5\n        /* \"#utility.yul\":5379:5382   */\n      dup5\n        /* \"#utility.yul\":5375:5391   */\n      add\n        /* \"#utility.yul\":5372:5397   */\n      gt\n        /* \"#utility.yul\":5369:5481   */\n      iszero\n      tag_95\n      jumpi\n        /* \"#utility.yul\":5400:5479   */\n      tag_96\n      tag_21\n      jump\t// in\n    tag_96:\n        /* \"#utility.yul\":5369:5481   */\n    tag_95:\n        /* \"#utility.yul\":5490:5542   */\n      tag_97\n        /* \"#utility.yul\":5535:5541   */\n      dup5\n        /* \"#utility.yul\":5530:5533   */\n      dup3\n        /* \"#utility.yul\":5525:5528   */\n      dup6\n        /* \"#utility.yul\":5490:5542   */\n      tag_32\n      jump\t// in\n    tag_97:\n        /* \"#utility.yul\":5209:5548   */\n      pop\n        /* \"#utility.yul\":5114:5548   */\n      swap4\n      swap3\n      pop\n      pop\n      pop\n      jump\t// out\n        /* \"#utility.yul\":5568:5923   */\n    tag_37:\n        /* \"#utility.yul\":5635:5640   */\n      0x00\n        /* \"#utility.yul\":5684:5687   */\n      dup3\n        /* \"#utility.yul\":5677:5681   */\n      0x1f\n        /* \"#utility.yul\":5669:5675   */\n      dup4\n        /* \"#utility.yul\":5665:5682   */\n      add\n        /* \"#utility.yul\":5661:5688   */\n      slt\n        /* \"#utility.yul\":5651:5773   */\n      tag_99\n      jumpi\n        /* \"#utility.yul\":5692:5771   */\n      tag_100\n      tag_20\n      jump\t// in\n    tag_100:\n        /* \"#utility.yul\":5651:5773   */\n    tag_99:\n        /* \"#utility.yul\":5802:5808   */\n      dup2\n        /* \"#utility.yul\":5796:5809   */\n      mload\n        /* \"#utility.yul\":5827:5917   */\n      tag_101\n        /* \"#utility.yul\":5913:5916   */\n      dup5\n        /* \"#utility.yul\":5905:5911   */\n      dup3\n        /* \"#utility.yul\":5898:5902   */\n      0x20\n        /* \"#utility.yul\":5890:5896   */\n      dup7\n        /* \"#utility.yul\":5886:5903   */\n      add\n        /* \"#utility.yul\":5827:5917   */\n      tag_36\n      jump\t// in\n    tag_101:\n        /* \"#utility.yul\":5818:5917   */\n      swap2\n      pop\n        /* \"#utility.yul\":5641:5923   */\n      pop\n        /* \"#utility.yul\":5568:5923   */\n      swap3\n      swap2\n      pop\n      pop\n      jump\t// out\n        /* \"#utility.yul\":5929:6453   */\n    tag_16:\n        /* \"#utility.yul\":6009:6015   */\n      0x00\n        /* \"#utility.yul\":6058:6060   */\n      0x20\n        /* \"#utility.yul\":6046:6055   */\n      dup3\n        /* \"#utility.yul\":6037:6044   */\n      dup5\n        /* \"#utility.yul\":6033:6056   */\n      sub\n        /* \"#utility.yul\":6029:6061   */\n      slt\n        /* \"#utility.yul\":6026:6145   */\n      iszero\n      tag_103\n      jumpi\n        /* \"#utility.yul\":6064:6143   */\n      tag_104\n      tag_18\n      jump\t// in\n    tag_104:\n        /* \"#utility.yul\":6026:6145   */\n    tag_103:\n        /* \"#utility.yul\":6205:6206   */\n      0x00\n        /* \"#utility.yul\":6194:6203   */\n      dup3\n        /* \"#utility.yul\":6190:6207   */\n      add\n        /* \"#utility.yul\":6184:6208   */\n      mload\n        /* \"#utility.yul\":6235:6253   */\n      0xffffffffffffffff\n        /* \"#utility.yul\":6227:6233   */\n      dup2\n        /* \"#utility.yul\":6224:6254   */\n      gt\n        /* \"#utility.yul\":6221:6338   */\n      iszero\n      tag_105\n      jumpi\n        /* \"#utility.yul\":6257:6336   */\n      tag_106\n      tag_19\n      jump\t// in\n    tag_106:\n        /* \"#utility.yul\":6221:6338   */\n    tag_105:\n        /* \"#utility.yul\":6362:6436   */\n      tag_107\n        /* \"#utility.yul\":6428:6435   */\n      dup5\n        /* \"#utility.yul\":6419:6425   */\n      dup3\n        /* \"#utility.yul\":6408:6417   */\n      dup6\n        /* \"#utility.yul\":6404:6426   */\n      add\n        /* \"#utility.yul\":6362:6436   */\n      tag_37\n      jump\t// in\n    tag_107:\n        /* \"#utility.yul\":6352:6436   */\n      swap2\n      pop\n        /* \"#utility.yul\":6155:6446   */\n      pop\n        /* \"#utility.yul\":5929:6453   */\n      swap3\n      swap2\n      pop\n      pop\n      jump\t// out\n\n    auxdata: 0xa2646970667358221220fc36670a065a02460b4b59266bb50e215657e2d1010d842152b34e7b9c566e8164736f6c634300081e0033\n}\n",
				"bytecode": {
					"linkReferences": {
						"contracts/LibUsers.sol": {
							"ExternalStringLib": [
								{
									"length": 20,
									"start": 125
								}
							]
						}
					},
					"object": "6080604052348015600e575f5ffd5b506104468061001c5f395ff3fe608060405234801561000f575f5ffd5b5060043610610029575f3560e01c8063530d88cf1461002d575b5f5ffd5b6100476004803603810190610042919061022c565b61005d565b60405161005491906102d3565b60405180910390f35b606073__$c594bcd3c4a4ea18ce991de936e4b08121$__636299a85b836040518263ffffffff1660e01b8152600401610096919061033b565b5f60405180830381865af41580156100b0573d5f5f3e3d5ffd5b505050506040513d5f823e3d601f19601f820116820180604052508101906100d891906103c9565b9050919050565b5f604051905090565b5f5ffd5b5f5ffd5b5f5ffd5b5f5ffd5b5f601f19601f8301169050919050565b7f4e487b71000000000000000000000000000000000000000000000000000000005f52604160045260245ffd5b61013e826100f8565b810181811067ffffffffffffffff8211171561015d5761015c610108565b5b80604052505050565b5f61016f6100df565b905061017b8282610135565b919050565b5f67ffffffffffffffff82111561019a57610199610108565b5b6101a3826100f8565b9050602081019050919050565b828183375f83830152505050565b5f6101d06101cb84610180565b610166565b9050828152602081018484840111156101ec576101eb6100f4565b5b6101f78482856101b0565b509392505050565b5f82601f830112610213576102126100f0565b5b81356102238482602086016101be565b91505092915050565b5f60208284031215610241576102406100e8565b5b5f82013567ffffffffffffffff81111561025e5761025d6100ec565b5b61026a848285016101ff565b91505092915050565b5f81519050919050565b5f82825260208201905092915050565b8281835e5f83830152505050565b5f6102a582610273565b6102af818561027d565b93506102bf81856020860161028d565b6102c8816100f8565b840191505092915050565b5f6020820190508181035f8301526102eb818461029b565b905092915050565b5f82825260208201905092915050565b5f61030d82610273565b61031781856102f3565b935061032781856020860161028d565b610330816100f8565b840191505092915050565b5f6020820190508181035f8301526103538184610303565b905092915050565b5f61036d61036884610180565b610166565b905082815260208101848484011115610389576103886100f4565b5b61039484828561028d565b509392505050565b5f82601f8301126103b0576103af6100f0565b5b81516103c084826020860161035b565b91505092915050565b5f602082840312156103de576103dd6100e8565b5b5f82015167ffffffffffffffff8111156103fb576103fa6100ec565b5b6104078482850161039c565b9150509291505056fea2646970667358221220fc36670a065a02460b4b59266bb50e215657e2d1010d842152b34e7b9c566e8164736f6c634300081e0033",
					"opcodes": "PUSH1 0x80 PUSH1 0x40 MSTORE CALLVALUE DUP1 ISZERO PUSH1 0xE JUMPI PUSH0 PUSH0 REVERT JUMPDEST POP PUSH2 0x446 DUP1 PUSH2 0x1C PUSH0 CODECOPY PUSH0 RETURN INVALID PUSH1 0x80 PUSH1 0x40 MSTORE CALLVALUE DUP1 ISZERO PUSH2 0xF JUMPI PUSH0 PUSH0 REVERT JUMPDEST POP PUSH1 0x4 CALLDATASIZE LT PUSH2 0x29 JUMPI PUSH0 CALLDATALOAD PUSH1 0xE0 SHR DUP1 PUSH4 0x530D88CF EQ PUSH2 0x2D JUMPI JUMPDEST PUSH0 PUSH0 REVERT JUMPDEST PUSH2 0x47 PUSH1 0x4 DUP1 CALLDATASIZE SUB DUP2 ADD SWAP1 PUSH2 0x42 SWAP2 SWAP1 PUSH2 0x22C JUMP JUMPDEST PUSH2 0x5D JUMP JUMPDEST PUSH1 0x40 MLOAD PUSH2 0x54 SWAP2 SWAP1 PUSH2 0x2D3 JUMP JUMPDEST PUSH1 0x40 MLOAD DUP1 SWAP2 SUB SWAP1 RETURN JUMPDEST PUSH1 0x60 PUSH20 0x0 PUSH4 0x6299A85B DUP4 PUSH1 0x40 MLOAD DUP3 PUSH4 0xFFFFFFFF AND PUSH1 0xE0 SHL DUP2 MSTORE PUSH1 0x4 ADD PUSH2 0x96 SWAP2 SWAP1 PUSH2 0x33B JUMP JUMPDEST PUSH0 PUSH1 0x40 MLOAD DUP1 DUP4 SUB DUP2 DUP7 GAS DELEGATECALL ISZERO DUP1 ISZERO PUSH2 0xB0 JUMPI RETURNDATASIZE PUSH0 PUSH0 RETURNDATACOPY RETURNDATASIZE PUSH0 REVERT JUMPDEST POP POP POP POP PUSH1 0x40 MLOAD RETURNDATASIZE PUSH0 DUP3 RETURNDATACOPY RETURNDATASIZE PUSH1 0x1F NOT PUSH1 0x1F DUP3 ADD AND DUP3 ADD DUP1 PUSH1 0x40 MSTORE POP DUP2 ADD SWAP1 PUSH2 0xD8 SWAP2 SWAP1 PUSH2 0x3C9 JUMP JUMPDEST SWAP1 POP SWAP2 SWAP1 POP JUMP JUMPDEST PUSH0 PUSH1 0x40 MLOAD SWAP1 POP SWAP1 JUMP JUMPDEST PUSH0 PUSH0 REVERT JUMPDEST PUSH0 PUSH0 REVERT JUMPDEST PUSH0 PUSH0 REVERT JUMPDEST PUSH0 PUSH0 REVERT JUMPDEST PUSH0 PUSH1 0x1F NOT PUSH1 0x1F DUP4 ADD AND SWAP1 POP SWAP2 SWAP1 POP JUMP JUMPDEST PUSH32 0x4E487B7100000000000000000000000000000000000000000000000000000000 PUSH0 MSTORE PUSH1 0x41 PUSH1 0x4 MSTORE PUSH1 0x24 PUSH0 REVERT JUMPDEST PUSH2 0x13E DUP3 PUSH2 0xF8 JUMP JUMPDEST DUP2 ADD DUP2 DUP2 LT PUSH8 0xFFFFFFFFFFFFFFFF DUP3 GT OR ISZERO PUSH2 0x15D JUMPI PUSH2 0x15C PUSH2 0x108 JUMP JUMPDEST JUMPDEST DUP1 PUSH1 0x40 MSTORE POP POP POP JUMP JUMPDEST PUSH0 PUSH2 0x16F PUSH2 0xDF JUMP JUMPDEST SWAP1 POP PUSH2 0x17B DUP3 DUP3 PUSH2 0x135 JUMP JUMPDEST SWAP2 SWAP1 POP JUMP JUMPDEST PUSH0 PUSH8 0xFFFFFFFFFFFFFFFF DUP3 GT ISZERO PUSH2 0x19A JUMPI PUSH2 0x199 PUSH2 0x108 JUMP JUMPDEST JUMPDEST PUSH2 0x1A3 DUP3 PUSH2 0xF8 JUMP JUMPDEST SWAP1 POP PUSH1 0x20 DUP2 ADD SWAP1 POP SWAP2 SWAP1 POP JUMP JUMPDEST DUP3 DUP2 DUP4 CALLDATACOPY PUSH0 DUP4 DUP4 ADD MSTORE POP POP POP JUMP JUMPDEST PUSH0 PUSH2 0x1D0 PUSH2 0x1CB DUP5 PUSH2 0x180 JUMP JUMPDEST PUSH2 0x166 JUMP JUMPDEST SWAP1 POP DUP3 DUP2 MSTORE PUSH1 0x20 DUP2 ADD DUP5 DUP5 DUP5 ADD GT ISZERO PUSH2 0x1EC JUMPI PUSH2 0x1EB PUSH2 0xF4 JUMP JUMPDEST JUMPDEST PUSH2 0x1F7 DUP5 DUP3 DUP6 PUSH2 0x1B0 JUMP JUMPDEST POP SWAP4 SWAP3 POP POP POP JUMP JUMPDEST PUSH0 DUP3 PUSH1 0x1F DUP4 ADD SLT PUSH2 0x213 JUMPI PUSH2 0x212 PUSH2 0xF0 JUMP JUMPDEST JUMPDEST DUP2 CALLDATALOAD PUSH2 0x223 DUP5 DUP3 PUSH1 0x20 DUP7 ADD PUSH2 0x1BE JUMP JUMPDEST SWAP2 POP POP SWAP3 SWAP2 POP POP JUMP JUMPDEST PUSH0 PUSH1 0x20 DUP3 DUP5 SUB SLT ISZERO PUSH2 0x241 JUMPI PUSH2 0x240 PUSH2 0xE8 JUMP JUMPDEST JUMPDEST PUSH0 DUP3 ADD CALLDATALOAD PUSH8 0xFFFFFFFFFFFFFFFF DUP2 GT ISZERO PUSH2 0x25E JUMPI PUSH2 0x25D PUSH2 0xEC JUMP JUMPDEST JUMPDEST PUSH2 0x26A DUP5 DUP3 DUP6 ADD PUSH2 0x1FF JUMP JUMPDEST SWAP2 POP POP SWAP3 SWAP2 POP POP JUMP JUMPDEST PUSH0 DUP2 MLOAD SWAP1 POP SWAP2 SWAP1 POP JUMP JUMPDEST PUSH0 DUP3 DUP3 MSTORE PUSH1 0x20 DUP3 ADD SWAP1 POP SWAP3 SWAP2 POP POP JUMP JUMPDEST DUP3 DUP2 DUP4 MCOPY PUSH0 DUP4 DUP4 ADD MSTORE POP POP POP JUMP JUMPDEST PUSH0 PUSH2 0x2A5 DUP3 PUSH2 0x273 JUMP JUMPDEST PUSH2 0x2AF DUP2 DUP6 PUSH2 0x27D JUMP JUMPDEST SWAP4 POP PUSH2 0x2BF DUP2 DUP6 PUSH1 0x20 DUP7 ADD PUSH2 0x28D JUMP JUMPDEST PUSH2 0x2C8 DUP2 PUSH2 0xF8 JUMP JUMPDEST DUP5 ADD SWAP2 POP POP SWAP3 SWAP2 POP POP JUMP JUMPDEST PUSH0 PUSH1 0x20 DUP3 ADD SWAP1 POP DUP2 DUP2 SUB PUSH0 DUP4 ADD MSTORE PUSH2 0x2EB DUP2 DUP5 PUSH2 0x29B JUMP JUMPDEST SWAP1 POP SWAP3 SWAP2 POP POP JUMP JUMPDEST PUSH0 DUP3 DUP3 MSTORE PUSH1 0x20 DUP3 ADD SWAP1 POP SWAP3 SWAP2 POP POP JUMP JUMPDEST PUSH0 PUSH2 0x30D DUP3 PUSH2 0x273 JUMP JUMPDEST PUSH2 0x317 DUP2 DUP6 PUSH2 0x2F3 JUMP JUMPDEST SWAP4 POP PUSH2 0x327 DUP2 DUP6 PUSH1 0x20 DUP7 ADD PUSH2 0x28D JUMP JUMPDEST PUSH2 0x330 DUP2 PUSH2 0xF8 JUMP JUMPDEST DUP5 ADD SWAP2 POP POP SWAP3 SWAP2 POP POP JUMP JUMPDEST PUSH0 PUSH1 0x20 DUP3 ADD SWAP1 POP DUP2 DUP2 SUB PUSH0 DUP4 ADD MSTORE PUSH2 0x353 DUP2 DUP5 PUSH2 0x303 JUMP JUMPDEST SWAP1 POP SWAP3 SWAP2 POP POP JUMP JUMPDEST PUSH0 PUSH2 0x36D PUSH2 0x368 DUP5 PUSH2 0x180 JUMP JUMPDEST PUSH2 0x166 JUMP JUMPDEST SWAP1 POP DUP3 DUP2 MSTORE PUSH1 0x20 DUP2 ADD DUP5 DUP5 DUP5 ADD GT ISZERO PUSH2 0x389 JUMPI PUSH2 0x388 PUSH2 0xF4 JUMP JUMPDEST JUMPDEST PUSH2 0x394 DUP5 DUP3 DUP6 PUSH2 0x28D JUMP JUMPDEST POP SWAP4 SWAP3 POP POP POP JUMP JUMPDEST PUSH0 DUP3 PUSH1 0x1F DUP4 ADD SLT PUSH2 0x3B0 JUMPI PUSH2 0x3AF PUSH2 0xF0 JUMP JUMPDEST JUMPDEST DUP2 MLOAD PUSH2 0x3C0 DUP5 DUP3 PUSH1 0x20 DUP7 ADD PUSH2 0x35B JUMP JUMPDEST SWAP2 POP POP SWAP3 SWAP2 POP POP JUMP JUMPDEST PUSH0 PUSH1 0x20 DUP3 DUP5 SUB SLT ISZERO PUSH2 0x3DE JUMPI PUSH2 0x3DD PUSH2 0xE8 JUMP JUMPDEST JUMPDEST PUSH0 DUP3 ADD MLOAD PUSH8 0xFFFFFFFFFFFFFFFF DUP2 GT ISZERO PUSH2 0x3FB JUMPI PUSH2 0x3FA PUSH2 0xEC JUMP JUMPDEST JUMPDEST PUSH2 0x407 DUP5 DUP3 DUP6 ADD PUSH2 0x39C JUMP JUMPDEST SWAP2 POP POP SWAP3 SWAP2 POP POP JUMP INVALID LOG2 PUSH5 0x6970667358 0x22 SLT KECCAK256 0xFC CALLDATASIZE PUSH8 0xA065A02460B4B59 0x26 PUSH12 0xB50E215657E2D1010D842152 0xB3 0x4E PUSH28 0x9C566E8164736F6C634300081E003300000000000000000000000000 "
				},
				"gasEstimates": {
					"creation": {
						"codeDepositCost": "218800",
						"executionCost": "261",
						"totalCost": "219061"
					},
					"external": {
						"convertToUpper(string)": "infinite"
					}
				},
				"methodIdentifiers": {
					"convertToUpper(string)": "530d88cf"
				}
			},
			"storageLayout": {
				"storage": [],
				"types": null
			},
			"userdoc": {
				"kind": "user",
				"methods": {},
				"version": 1
			}
		}
	}
}