{
	"contracts/GasComparison.sol": {
		"GasComparison": {
			"abi": [
				{
					"inputs": [
						{
							"internalType": "uint256",
							"name": "current",
							"type": "uint256"
						},
						{
							"internalType": "uint256",
							"name": "max",
							"type": "uint256"
						}
					],
					"name": "ValueTooHigh",
					"type": "error"
				},
				{
					"inputs": [],
					"name": "ValueTooLow",
					"type": "error"
				},
				{
					"inputs": [
						{
							"internalType": "uint256",
							"name": "amount",
							"type": "uint256"
						}
					],
					"name": "testAssert",
					"outputs": [],
					"stateMutability": "nonpayable",
					"type": "function"
				},
				{
					"inputs": [
						{
							"internalType": "uint256",
							"name": "amount",
							"type": "uint256"
						}
					],
					"name": "testRequireCustomError",
					"outputs": [],
					"stateMutability": "nonpayable",
					"type": "function"
				},
				{
					"inputs": [
						{
							"internalType": "uint256",
							"name": "amount",
							"type": "uint256"
						}
					],
					"name": "testRequireString",
					"outputs": [],
					"stateMutability": "nonpayable",
					"type": "function"
				},
				{
					"inputs": [
						{
							"internalType": "uint256",
							"name": "amount",
							"type": "uint256"
						}
					],
					"name": "testRevertCustomError",
					"outputs": [],
					"stateMutability": "nonpayable",
					"type": "function"
				},
				{
					"inputs": [
						{
							"internalType": "uint256",
							"name": "amount",
							"type": "uint256"
						}
					],
					"name": "testRevertString",
					"outputs": [],
					"stateMutability": "nonpayable",
					"type": "function"
				},
				{
					"inputs": [],
					"name": "triggerAssert",
					"outputs": [],
					"stateMutability": "nonpayable",
					"type": "function"
				},
				{
					"inputs": [],
					"name": "triggerRequireCustomError",
					"outputs": [],
					"stateMutability": "nonpayable",
					"type": "function"
				},
				{
					"inputs": [],
					"name": "triggerRequireString",
					"outputs": [],
					"stateMutability": "nonpayable",
					"type": "function"
				},
				{
					"inputs": [],
					"name": "triggerRevertCustomError",
					"outputs": [],
					"stateMutability": "nonpayable",
					"type": "function"
				},
				{
					"inputs": [],
					"name": "triggerRevertString",
					"outputs": [],
					"stateMutability": "nonpayable",
					"type": "function"
				},
				{
					"inputs": [],
					"name": "value",
					"outputs": [
						{
							"internalType": "uint256",
							"name": "",
							"type": "uint256"
						}
					],
					"stateMutability": "view",
					"type": "function"
				}
			],
			"devdoc": {
				"kind": "dev",
				"methods": {},
				"version": 1
			},
			"evm": {
				"assembly": "    /* \"contracts/GasComparison.sol\":58:1487  contract GasComparison {... */\n  mstore(0x40, 0x80)\n    /* \"contracts/GasComparison.sol\":110:113  200 */\n  0xc8\n    /* \"contracts/GasComparison.sol\":87:113  uint256 public value = 200 */\n  0x00\n  sstore\n    /* \"contracts/GasComparison.sol\":58:1487  contract GasComparison {... */\n  callvalue\n  dup1\n  iszero\n  tag_1\n  jumpi\n  revert(0x00, 0x00)\ntag_1:\n  pop\n  dataSize(sub_0)\n  dup1\n  dataOffset(sub_0)\n  0x00\n  codecopy\n  0x00\n  return\nstop\n\nsub_0: assembly {\n        /* \"contracts/GasComparison.sol\":58:1487  contract GasComparison {... */\n      mstore(0x40, 0x80)\n      callvalue\n      dup1\n      iszero\n      tag_1\n      jumpi\n      revert(0x00, 0x00)\n    tag_1:\n      pop\n      jumpi(tag_2, lt(calldatasize, 0x04))\n      shr(0xe0, calldataload(0x00))\n      dup1\n      0x9dbea541\n      gt\n      tag_14\n      jumpi\n      dup1\n      0x9dbea541\n      eq\n      tag_8\n      jumpi\n      dup1\n      0xa1a02453\n      eq\n      tag_9\n      jumpi\n      dup1\n      0xa64f2337\n      eq\n      tag_10\n      jumpi\n      dup1\n      0xcf3fb0c9\n      eq\n      tag_11\n      jumpi\n      dup1\n      0xd1f81e05\n      eq\n      tag_12\n      jumpi\n      dup1\n      0xfc328873\n      eq\n      tag_13\n      jumpi\n      jump(tag_2)\n    tag_14:\n      dup1\n      0x246ce3f9\n      eq\n      tag_3\n      jumpi\n      dup1\n      0x3fa4f245\n      eq\n      tag_4\n      jumpi\n      dup1\n      0x41ff0dc1\n      eq\n      tag_5\n      jumpi\n      dup1\n      0x63eaaa86\n      eq\n      tag_6\n      jumpi\n      dup1\n      0x797f9dd5\n      eq\n      tag_7\n      jumpi\n    tag_2:\n      revert(0x00, 0x00)\n        /* \"contracts/GasComparison.sol\":569:674  function testAssert(uint256 amount) public {... */\n    tag_3:\n      tag_15\n      0x04\n      dup1\n      calldatasize\n      sub\n      dup2\n      add\n      swap1\n      tag_16\n      swap2\n      swap1\n      tag_17\n      jump\t// in\n    tag_16:\n      tag_18\n      jump\t// in\n    tag_15:\n      stop\n        /* \"contracts/GasComparison.sol\":87:113  uint256 public value = 200 */\n    tag_4:\n      tag_19\n      tag_20\n      jump\t// in\n    tag_19:\n      mload(0x40)\n      tag_21\n      swap2\n      swap1\n      tag_22\n      jump\t// in\n    tag_21:\n      mload(0x40)\n      dup1\n      swap2\n      sub\n      swap1\n      return\n        /* \"contracts/GasComparison.sol\":1399:1485  function triggerRevertCustomError() public {... */\n    tag_5:\n      tag_23\n      tag_24\n      jump\t// in\n    tag_23:\n      stop\n        /* \"contracts/GasComparison.sol\":399:549  function testRequireCustomError(uint256 amount) public {... */\n    tag_6:\n      tag_25\n      0x04\n      dup1\n      calldatasize\n      sub\n      dup2\n      add\n      swap1\n      tag_26\n      swap2\n      swap1\n      tag_17\n      jump\t// in\n    tag_26:\n      tag_27\n      jump\t// in\n    tag_25:\n      stop\n        /* \"contracts/GasComparison.sol\":1068:1146  function triggerRequireString() public {... */\n    tag_7:\n      tag_28\n      tag_29\n      jump\t// in\n    tag_28:\n      stop\n        /* \"contracts/GasComparison.sol\":1152:1240  function triggerRequireCustomError() public {... */\n    tag_8:\n      tag_30\n      tag_31\n      jump\t// in\n    tag_30:\n      stop\n        /* \"contracts/GasComparison.sol\":227:360  function testRequireString(uint256 amount) public {... */\n    tag_9:\n      tag_32\n      0x04\n      dup1\n      calldatasize\n      sub\n      dup2\n      add\n      swap1\n      tag_33\n      swap2\n      swap1\n      tag_17\n      jump\t// in\n    tag_33:\n      tag_34\n      jump\t// in\n    tag_32:\n      stop\n        /* \"contracts/GasComparison.sol\":1317:1393  function triggerRevertString() public {... */\n    tag_10:\n      tag_35\n      tag_36\n      jump\t// in\n    tag_35:\n      stop\n        /* \"contracts/GasComparison.sol\":706:840  function testRevertString(uint256 amount) public {... */\n    tag_11:\n      tag_37\n      0x04\n      dup1\n      calldatasize\n      sub\n      dup2\n      add\n      swap1\n      tag_38\n      swap2\n      swap1\n      tag_17\n      jump\t// in\n    tag_38:\n      tag_39\n      jump\t// in\n    tag_37:\n      stop\n        /* \"contracts/GasComparison.sol\":878:1027  function testRevertCustomError(uint256 amount) public {... */\n    tag_12:\n      tag_40\n      0x04\n      dup1\n      calldatasize\n      sub\n      dup2\n      add\n      swap1\n      tag_41\n      swap2\n      swap1\n      tag_17\n      jump\t// in\n    tag_41:\n      tag_42\n      jump\t// in\n    tag_40:\n      stop\n        /* \"contracts/GasComparison.sol\":1246:1311  function triggerAssert() public {... */\n    tag_13:\n      tag_43\n      tag_44\n      jump\t// in\n    tag_43:\n      stop\n        /* \"contracts/GasComparison.sol\":569:674  function testAssert(uint256 amount) public {... */\n    tag_18:\n        /* \"contracts/GasComparison.sol\":630:636  amount */\n      dup1\n        /* \"contracts/GasComparison.sol\":622:627  value */\n      0x00\n        /* \"contracts/GasComparison.sol\":622:636  value = amount */\n      dup2\n      swap1\n      sstore\n      pop\n        /* \"contracts/GasComparison.sol\":662:666  1000 */\n      0x03e8\n        /* \"contracts/GasComparison.sol\":653:658  value */\n      sload(0x00)\n        /* \"contracts/GasComparison.sol\":653:666  value <= 1000 */\n      gt\n      iszero\n        /* \"contracts/GasComparison.sol\":646:667  assert(value <= 1000) */\n      tag_46\n      jumpi\n      tag_47\n      tag_48\n      jump\t// in\n    tag_47:\n    tag_46:\n        /* \"contracts/GasComparison.sol\":569:674  function testAssert(uint256 amount) public {... */\n      pop\n      jump\t// out\n        /* \"contracts/GasComparison.sol\":87:113  uint256 public value = 200 */\n    tag_20:\n      sload(0x00)\n      dup2\n      jump\t// out\n        /* \"contracts/GasComparison.sol\":1399:1485  function triggerRevertCustomError() public {... */\n    tag_24:\n        /* \"contracts/GasComparison.sol\":1452:1478  testRevertCustomError(200) */\n      tag_50\n        /* \"contracts/GasComparison.sol\":1474:1477  200 */\n      0xc8\n        /* \"contracts/GasComparison.sol\":1452:1473  testRevertCustomError */\n      tag_42\n        /* \"contracts/GasComparison.sol\":1452:1478  testRevertCustomError(200) */\n      jump\t// in\n    tag_50:\n        /* \"contracts/GasComparison.sol\":1399:1485  function triggerRevertCustomError() public {... */\n      jump\t// out\n        /* \"contracts/GasComparison.sol\":399:549  function testRequireCustomError(uint256 amount) public {... */\n    tag_27:\n        /* \"contracts/GasComparison.sol\":477:482  value */\n      sload(0x00)\n        /* \"contracts/GasComparison.sol\":468:474  amount */\n      dup2\n        /* \"contracts/GasComparison.sol\":468:482  amount > value */\n      gt\n        /* \"contracts/GasComparison.sol\":464:518  if (amount > value) revert ValueTooHigh(value, amount) */\n      iszero\n      tag_52\n      jumpi\n        /* \"contracts/GasComparison.sol\":504:509  value */\n      sload(0x00)\n        /* \"contracts/GasComparison.sol\":511:517  amount */\n      dup2\n        /* \"contracts/GasComparison.sol\":491:518  ValueTooHigh(value, amount) */\n      mload(0x40)\n      0x7a0e198500000000000000000000000000000000000000000000000000000000\n      dup2\n      mstore\n      0x04\n      add\n      tag_53\n      swap3\n      swap2\n      swap1\n      tag_54\n      jump\t// in\n    tag_53:\n      mload(0x40)\n      dup1\n      swap2\n      sub\n      swap1\n      revert\n        /* \"contracts/GasComparison.sol\":464:518  if (amount > value) revert ValueTooHigh(value, amount) */\n    tag_52:\n        /* \"contracts/GasComparison.sol\":536:542  amount */\n      dup1\n        /* \"contracts/GasComparison.sol\":528:533  value */\n      0x00\n        /* \"contracts/GasComparison.sol\":528:542  value = amount */\n      dup2\n      swap1\n      sstore\n      pop\n        /* \"contracts/GasComparison.sol\":399:549  function testRequireCustomError(uint256 amount) public {... */\n      pop\n      jump\t// out\n        /* \"contracts/GasComparison.sol\":1068:1146  function triggerRequireString() public {... */\n    tag_29:\n        /* \"contracts/GasComparison.sol\":1117:1139  testRequireString(200) */\n      tag_56\n        /* \"contracts/GasComparison.sol\":1135:1138  200 */\n      0xc8\n        /* \"contracts/GasComparison.sol\":1117:1134  testRequireString */\n      tag_34\n        /* \"contracts/GasComparison.sol\":1117:1139  testRequireString(200) */\n      jump\t// in\n    tag_56:\n        /* \"contracts/GasComparison.sol\":1068:1146  function triggerRequireString() public {... */\n      jump\t// out\n        /* \"contracts/GasComparison.sol\":1152:1240  function triggerRequireCustomError() public {... */\n    tag_31:\n        /* \"contracts/GasComparison.sol\":1206:1233  testRequireCustomError(200) */\n      tag_58\n        /* \"contracts/GasComparison.sol\":1229:1232  200 */\n      0xc8\n        /* \"contracts/GasComparison.sol\":1206:1228  testRequireCustomError */\n      tag_27\n        /* \"contracts/GasComparison.sol\":1206:1233  testRequireCustomError(200) */\n      jump\t// in\n    tag_58:\n        /* \"contracts/GasComparison.sol\":1152:1240  function triggerRequireCustomError() public {... */\n      jump\t// out\n        /* \"contracts/GasComparison.sol\":227:360  function testRequireString(uint256 amount) public {... */\n    tag_34:\n        /* \"contracts/GasComparison.sol\":305:310  value */\n      sload(0x00)\n        /* \"contracts/GasComparison.sol\":295:301  amount */\n      dup2\n        /* \"contracts/GasComparison.sol\":295:310  amount <= value */\n      gt\n      iszero\n        /* \"contracts/GasComparison.sol\":287:329  require(amount <= value, \"Value too high\") */\n      tag_60\n      jumpi\n      mload(0x40)\n      0x08c379a000000000000000000000000000000000000000000000000000000000\n      dup2\n      mstore\n      0x04\n      add\n      tag_61\n      swap1\n      tag_62\n      jump\t// in\n    tag_61:\n      mload(0x40)\n      dup1\n      swap2\n      sub\n      swap1\n      revert\n    tag_60:\n        /* \"contracts/GasComparison.sol\":347:353  amount */\n      dup1\n        /* \"contracts/GasComparison.sol\":339:344  value */\n      0x00\n        /* \"contracts/GasComparison.sol\":339:353  value = amount */\n      dup2\n      swap1\n      sstore\n      pop\n        /* \"contracts/GasComparison.sol\":227:360  function testRequireString(uint256 amount) public {... */\n      pop\n      jump\t// out\n        /* \"contracts/GasComparison.sol\":1317:1393  function triggerRevertString() public {... */\n    tag_36:\n        /* \"contracts/GasComparison.sol\":1365:1386  testRevertString(200) */\n      tag_64\n        /* \"contracts/GasComparison.sol\":1382:1385  200 */\n      0xc8\n        /* \"contracts/GasComparison.sol\":1365:1381  testRevertString */\n      tag_39\n        /* \"contracts/GasComparison.sol\":1365:1386  testRevertString(200) */\n      jump\t// in\n    tag_64:\n        /* \"contracts/GasComparison.sol\":1317:1393  function triggerRevertString() public {... */\n      jump\t// out\n        /* \"contracts/GasComparison.sol\":706:840  function testRevertString(uint256 amount) public {... */\n    tag_39:\n        /* \"contracts/GasComparison.sol\":778:783  value */\n      sload(0x00)\n        /* \"contracts/GasComparison.sol\":769:775  amount */\n      dup2\n        /* \"contracts/GasComparison.sol\":769:783  amount > value */\n      gt\n        /* \"contracts/GasComparison.sol\":765:809  if (amount > value) revert(\"Value too high\") */\n      iszero\n      tag_66\n      jumpi\n        /* \"contracts/GasComparison.sol\":785:809  revert(\"Value too high\") */\n      mload(0x40)\n      0x08c379a000000000000000000000000000000000000000000000000000000000\n      dup2\n      mstore\n      0x04\n      add\n      tag_67\n      swap1\n      tag_62\n      jump\t// in\n    tag_67:\n      mload(0x40)\n      dup1\n      swap2\n      sub\n      swap1\n      revert\n        /* \"contracts/GasComparison.sol\":765:809  if (amount > value) revert(\"Value too high\") */\n    tag_66:\n        /* \"contracts/GasComparison.sol\":827:833  amount */\n      dup1\n        /* \"contracts/GasComparison.sol\":819:824  value */\n      0x00\n        /* \"contracts/GasComparison.sol\":819:833  value = amount */\n      dup2\n      swap1\n      sstore\n      pop\n        /* \"contracts/GasComparison.sol\":706:840  function testRevertString(uint256 amount) public {... */\n      pop\n      jump\t// out\n        /* \"contracts/GasComparison.sol\":878:1027  function testRevertCustomError(uint256 amount) public {... */\n    tag_42:\n        /* \"contracts/GasComparison.sol\":955:960  value */\n      sload(0x00)\n        /* \"contracts/GasComparison.sol\":946:952  amount */\n      dup2\n        /* \"contracts/GasComparison.sol\":946:960  amount > value */\n      gt\n        /* \"contracts/GasComparison.sol\":942:996  if (amount > value) revert ValueTooHigh(value, amount) */\n      iszero\n      tag_69\n      jumpi\n        /* \"contracts/GasComparison.sol\":982:987  value */\n      sload(0x00)\n        /* \"contracts/GasComparison.sol\":989:995  amount */\n      dup2\n        /* \"contracts/GasComparison.sol\":969:996  ValueTooHigh(value, amount) */\n      mload(0x40)\n      0x7a0e198500000000000000000000000000000000000000000000000000000000\n      dup2\n      mstore\n      0x04\n      add\n      tag_70\n      swap3\n      swap2\n      swap1\n      tag_54\n      jump\t// in\n    tag_70:\n      mload(0x40)\n      dup1\n      swap2\n      sub\n      swap1\n      revert\n        /* \"contracts/GasComparison.sol\":942:996  if (amount > value) revert ValueTooHigh(value, amount) */\n    tag_69:\n        /* \"contracts/GasComparison.sol\":1014:1020  amount */\n      dup1\n        /* \"contracts/GasComparison.sol\":1006:1011  value */\n      0x00\n        /* \"contracts/GasComparison.sol\":1006:1020  value = amount */\n      dup2\n      swap1\n      sstore\n      pop\n        /* \"contracts/GasComparison.sol\":878:1027  function testRevertCustomError(uint256 amount) public {... */\n      pop\n      jump\t// out\n        /* \"contracts/GasComparison.sol\":1246:1311  function triggerAssert() public {... */\n    tag_44:\n        /* \"contracts/GasComparison.sol\":1288:1304  testAssert(2000) */\n      tag_72\n        /* \"contracts/GasComparison.sol\":1299:1303  2000 */\n      0x07d0\n        /* \"contracts/GasComparison.sol\":1288:1298  testAssert */\n      tag_18\n        /* \"contracts/GasComparison.sol\":1288:1304  testAssert(2000) */\n      jump\t// in\n    tag_72:\n        /* \"contracts/GasComparison.sol\":1246:1311  function triggerAssert() public {... */\n      jump\t// out\n        /* \"#utility.yul\":88:205   */\n    tag_74:\n        /* \"#utility.yul\":197:198   */\n      0x00\n        /* \"#utility.yul\":194:195   */\n      0x00\n        /* \"#utility.yul\":187:199   */\n      revert\n        /* \"#utility.yul\":334:411   */\n    tag_76:\n        /* \"#utility.yul\":371:378   */\n      0x00\n        /* \"#utility.yul\":400:405   */\n      dup2\n        /* \"#utility.yul\":389:405   */\n      swap1\n      pop\n        /* \"#utility.yul\":334:411   */\n      swap2\n      swap1\n      pop\n      jump\t// out\n        /* \"#utility.yul\":417:539   */\n    tag_77:\n        /* \"#utility.yul\":490:514   */\n      tag_89\n        /* \"#utility.yul\":508:513   */\n      dup2\n        /* \"#utility.yul\":490:514   */\n      tag_76\n      jump\t// in\n    tag_89:\n        /* \"#utility.yul\":483:488   */\n      dup2\n        /* \"#utility.yul\":480:515   */\n      eq\n        /* \"#utility.yul\":470:533   */\n      tag_90\n      jumpi\n        /* \"#utility.yul\":529:530   */\n      0x00\n        /* \"#utility.yul\":526:527   */\n      0x00\n        /* \"#utility.yul\":519:531   */\n      revert\n        /* \"#utility.yul\":470:533   */\n    tag_90:\n        /* \"#utility.yul\":417:539   */\n      pop\n      jump\t// out\n        /* \"#utility.yul\":545:684   */\n    tag_78:\n        /* \"#utility.yul\":591:596   */\n      0x00\n        /* \"#utility.yul\":629:635   */\n      dup2\n        /* \"#utility.yul\":616:636   */\n      calldataload\n        /* \"#utility.yul\":607:636   */\n      swap1\n      pop\n        /* \"#utility.yul\":645:678   */\n      tag_92\n        /* \"#utility.yul\":672:677   */\n      dup2\n        /* \"#utility.yul\":645:678   */\n      tag_77\n      jump\t// in\n    tag_92:\n        /* \"#utility.yul\":545:684   */\n      swap3\n      swap2\n      pop\n      pop\n      jump\t// out\n        /* \"#utility.yul\":690:1019   */\n    tag_17:\n        /* \"#utility.yul\":749:755   */\n      0x00\n        /* \"#utility.yul\":798:800   */\n      0x20\n        /* \"#utility.yul\":786:795   */\n      dup3\n        /* \"#utility.yul\":777:784   */\n      dup5\n        /* \"#utility.yul\":773:796   */\n      sub\n        /* \"#utility.yul\":769:801   */\n      slt\n        /* \"#utility.yul\":766:885   */\n      iszero\n      tag_94\n      jumpi\n        /* \"#utility.yul\":804:883   */\n      tag_95\n      tag_74\n      jump\t// in\n    tag_95:\n        /* \"#utility.yul\":766:885   */\n    tag_94:\n        /* \"#utility.yul\":924:925   */\n      0x00\n        /* \"#utility.yul\":949:1002   */\n      tag_96\n        /* \"#utility.yul\":994:1001   */\n      dup5\n        /* \"#utility.yul\":985:991   */\n      dup3\n        /* \"#utility.yul\":974:983   */\n      dup6\n        /* \"#utility.yul\":970:992   */\n      add\n        /* \"#utility.yul\":949:1002   */\n      tag_78\n      jump\t// in\n    tag_96:\n        /* \"#utility.yul\":939:1002   */\n      swap2\n      pop\n        /* \"#utility.yul\":895:1012   */\n      pop\n        /* \"#utility.yul\":690:1019   */\n      swap3\n      swap2\n      pop\n      pop\n      jump\t// out\n        /* \"#utility.yul\":1025:1143   */\n    tag_79:\n        /* \"#utility.yul\":1112:1136   */\n      tag_98\n        /* \"#utility.yul\":1130:1135   */\n      dup2\n        /* \"#utility.yul\":1112:1136   */\n      tag_76\n      jump\t// in\n    tag_98:\n        /* \"#utility.yul\":1107:1110   */\n      dup3\n        /* \"#utility.yul\":1100:1137   */\n      mstore\n        /* \"#utility.yul\":1025:1143   */\n      pop\n      pop\n      jump\t// out\n        /* \"#utility.yul\":1149:1371   */\n    tag_22:\n        /* \"#utility.yul\":1242:1246   */\n      0x00\n        /* \"#utility.yul\":1280:1282   */\n      0x20\n        /* \"#utility.yul\":1269:1278   */\n      dup3\n        /* \"#utility.yul\":1265:1283   */\n      add\n        /* \"#utility.yul\":1257:1283   */\n      swap1\n      pop\n        /* \"#utility.yul\":1293:1364   */\n      tag_100\n        /* \"#utility.yul\":1361:1362   */\n      0x00\n        /* \"#utility.yul\":1350:1359   */\n      dup4\n        /* \"#utility.yul\":1346:1363   */\n      add\n        /* \"#utility.yul\":1337:1343   */\n      dup5\n        /* \"#utility.yul\":1293:1364   */\n      tag_79\n      jump\t// in\n    tag_100:\n        /* \"#utility.yul\":1149:1371   */\n      swap3\n      swap2\n      pop\n      pop\n      jump\t// out\n        /* \"#utility.yul\":1377:1557   */\n    tag_48:\n        /* \"#utility.yul\":1425:1502   */\n      0x4e487b7100000000000000000000000000000000000000000000000000000000\n        /* \"#utility.yul\":1422:1423   */\n      0x00\n        /* \"#utility.yul\":1415:1503   */\n      mstore\n        /* \"#utility.yul\":1522:1526   */\n      0x01\n        /* \"#utility.yul\":1519:1520   */\n      0x04\n        /* \"#utility.yul\":1512:1527   */\n      mstore\n        /* \"#utility.yul\":1546:1550   */\n      0x24\n        /* \"#utility.yul\":1543:1544   */\n      0x00\n        /* \"#utility.yul\":1536:1551   */\n      revert\n        /* \"#utility.yul\":1563:1895   */\n    tag_54:\n        /* \"#utility.yul\":1684:1688   */\n      0x00\n        /* \"#utility.yul\":1722:1724   */\n      0x40\n        /* \"#utility.yul\":1711:1720   */\n      dup3\n        /* \"#utility.yul\":1707:1725   */\n      add\n        /* \"#utility.yul\":1699:1725   */\n      swap1\n      pop\n        /* \"#utility.yul\":1735:1806   */\n      tag_103\n        /* \"#utility.yul\":1803:1804   */\n      0x00\n        /* \"#utility.yul\":1792:1801   */\n      dup4\n        /* \"#utility.yul\":1788:1805   */\n      add\n        /* \"#utility.yul\":1779:1785   */\n      dup6\n        /* \"#utility.yul\":1735:1806   */\n      tag_79\n      jump\t// in\n    tag_103:\n        /* \"#utility.yul\":1816:1888   */\n      tag_104\n        /* \"#utility.yul\":1884:1886   */\n      0x20\n        /* \"#utility.yul\":1873:1882   */\n      dup4\n        /* \"#utility.yul\":1869:1887   */\n      add\n        /* \"#utility.yul\":1860:1866   */\n      dup5\n        /* \"#utility.yul\":1816:1888   */\n      tag_79\n      jump\t// in\n    tag_104:\n        /* \"#utility.yul\":1563:1895   */\n      swap4\n      swap3\n      pop\n      pop\n      pop\n      jump\t// out\n        /* \"#utility.yul\":1901:2070   */\n    tag_80:\n        /* \"#utility.yul\":1985:1996   */\n      0x00\n        /* \"#utility.yul\":2019:2025   */\n      dup3\n        /* \"#utility.yul\":2014:2017   */\n      dup3\n        /* \"#utility.yul\":2007:2026   */\n      mstore\n        /* \"#utility.yul\":2059:2063   */\n      0x20\n        /* \"#utility.yul\":2054:2057   */\n      dup3\n        /* \"#utility.yul\":2050:2064   */\n      add\n        /* \"#utility.yul\":2035:2064   */\n      swap1\n      pop\n        /* \"#utility.yul\":1901:2070   */\n      swap3\n      swap2\n      pop\n      pop\n      jump\t// out\n        /* \"#utility.yul\":2076:2240   */\n    tag_81:\n        /* \"#utility.yul\":2216:2232   */\n      0x56616c756520746f6f2068696768000000000000000000000000000000000000\n        /* \"#utility.yul\":2212:2213   */\n      0x00\n        /* \"#utility.yul\":2204:2210   */\n      dup3\n        /* \"#utility.yul\":2200:2214   */\n      add\n        /* \"#utility.yul\":2193:2233   */\n      mstore\n        /* \"#utility.yul\":2076:2240   */\n      pop\n      jump\t// out\n        /* \"#utility.yul\":2246:2612   */\n    tag_82:\n        /* \"#utility.yul\":2388:2391   */\n      0x00\n        /* \"#utility.yul\":2409:2476   */\n      tag_108\n        /* \"#utility.yul\":2473:2475   */\n      0x0e\n        /* \"#utility.yul\":2468:2471   */\n      dup4\n        /* \"#utility.yul\":2409:2476   */\n      tag_80\n      jump\t// in\n    tag_108:\n        /* \"#utility.yul\":2402:2476   */\n      swap2\n      pop\n        /* \"#utility.yul\":2485:2578   */\n      tag_109\n        /* \"#utility.yul\":2574:2577   */\n      dup3\n        /* \"#utility.yul\":2485:2578   */\n      tag_81\n      jump\t// in\n    tag_109:\n        /* \"#utility.yul\":2603:2605   */\n      0x20\n        /* \"#utility.yul\":2598:2601   */\n      dup3\n        /* \"#utility.yul\":2594:2606   */\n      add\n        /* \"#utility.yul\":2587:2606   */\n      swap1\n      pop\n        /* \"#utility.yul\":2246:2612   */\n      swap2\n      swap1\n      pop\n      jump\t// out\n        /* \"#utility.yul\":2618:3037   */\n    tag_62:\n        /* \"#utility.yul\":2784:2788   */\n      0x00\n        /* \"#utility.yul\":2822:2824   */\n      0x20\n        /* \"#utility.yul\":2811:2820   */\n      dup3\n        /* \"#utility.yul\":2807:2825   */\n      add\n        /* \"#utility.yul\":2799:2825   */\n      swap1\n      pop\n        /* \"#utility.yul\":2871:2880   */\n      dup2\n        /* \"#utility.yul\":2865:2869   */\n      dup2\n        /* \"#utility.yul\":2861:2881   */\n      sub\n        /* \"#utility.yul\":2857:2858   */\n      0x00\n        /* \"#utility.yul\":2846:2855   */\n      dup4\n        /* \"#utility.yul\":2842:2859   */\n      add\n        /* \"#utility.yul\":2835:2882   */\n      mstore\n        /* \"#utility.yul\":2899:3030   */\n      tag_111\n        /* \"#utility.yul\":3025:3029   */\n      dup2\n        /* \"#utility.yul\":2899:3030   */\n      tag_82\n      jump\t// in\n    tag_111:\n        /* \"#utility.yul\":2891:3030   */\n      swap1\n      pop\n        /* \"#utility.yul\":2618:3037   */\n      swap2\n      swap1\n      pop\n      jump\t// out\n\n    auxdata: 0xa26469706673582212205360b2aa669710711bca2f6fd190d14df651c187e4dfdc7404471ca7657b5d3764736f6c634300081e0033\n}\n",
				"bytecode": {
					"linkReferences": {},
					"object": "608060405260c85f553480156012575f5ffd5b506104b0806100205f395ff3fe608060405234801561000f575f5ffd5b50600436106100a7575f3560e01c80639dbea5411161006f5780639dbea54114610115578063a1a024531461011f578063a64f23371461013b578063cf3fb0c914610145578063d1f81e0514610161578063fc3288731461017d576100a7565b8063246ce3f9146100ab5780633fa4f245146100c757806341ff0dc1146100e557806363eaaa86146100ef578063797f9dd51461010b575b5f5ffd5b6100c560048036038101906100c0919061035b565b610187565b005b6100cf6101a4565b6040516100dc9190610395565b60405180910390f35b6100ed6101a9565b005b6101096004803603810190610104919061035b565b6101b5565b005b610113610207565b005b61011d610213565b005b6101396004803603810190610134919061035b565b61021f565b005b61014361026c565b005b61015f600480360381019061015a919061035b565b610278565b005b61017b6004803603810190610176919061035b565b6102c5565b005b610185610317565b005b805f819055506103e85f5411156101a1576101a06103ae565b5b50565b5f5481565b6101b360c86102c5565b565b5f548111156101fe575f54816040517f7a0e19850000000000000000000000000000000000000000000000000000000081526004016101f59291906103db565b60405180910390fd5b805f8190555050565b61021160c861021f565b565b61021d60c86101b5565b565b5f54811115610263576040517f08c379a000000000000000000000000000000000000000000000000000000000815260040161025a9061045c565b60405180910390fd5b805f8190555050565b61027660c8610278565b565b5f548111156102bc576040517f08c379a00000000000000000000000000000000000000000000000000000000081526004016102b39061045c565b60405180910390fd5b805f8190555050565b5f5481111561030e575f54816040517f7a0e19850000000000000000000000000000000000000000000000000000000081526004016103059291906103db565b60405180910390fd5b805f8190555050565b6103226107d0610187565b565b5f5ffd5b5f819050919050565b61033a81610328565b8114610344575f5ffd5b50565b5f8135905061035581610331565b92915050565b5f602082840312156103705761036f610324565b5b5f61037d84828501610347565b91505092915050565b61038f81610328565b82525050565b5f6020820190506103a85f830184610386565b92915050565b7f4e487b71000000000000000000000000000000000000000000000000000000005f52600160045260245ffd5b5f6040820190506103ee5f830185610386565b6103fb6020830184610386565b9392505050565b5f82825260208201905092915050565b7f56616c756520746f6f20686967680000000000000000000000000000000000005f82015250565b5f610446600e83610402565b915061045182610412565b602082019050919050565b5f6020820190508181035f8301526104738161043a565b905091905056fea26469706673582212205360b2aa669710711bca2f6fd190d14df651c187e4dfdc7404471ca7657b5d3764736f6c634300081e0033",
					"opcodes": "PUSH1 0x80 PUSH1 0x40 MSTORE PUSH1 0xC8 PUSH0 SSTORE CALLVALUE DUP1 ISZERO PUSH1 0x12 JUMPI PUSH0 PUSH0 REVERT JUMPDEST POP PUSH2 0x4B0 DUP1 PUSH2 0x20 PUSH0 CODECOPY PUSH0 RETURN INVALID PUSH1 0x80 PUSH1 0x40 MSTORE CALLVALUE DUP1 ISZERO PUSH2 0xF JUMPI PUSH0 PUSH0 REVERT JUMPDEST POP PUSH1 0x4 CALLDATASIZE LT PUSH2 0xA7 JUMPI PUSH0 CALLDATALOAD PUSH1 0xE0 SHR DUP1 PUSH4 0x9DBEA541 GT PUSH2 0x6F JUMPI DUP1 PUSH4 0x9DBEA541 EQ PUSH2 0x115 JUMPI DUP1 PUSH4 0xA1A02453 EQ PUSH2 0x11F JUMPI DUP1 PUSH4 0xA64F2337 EQ PUSH2 0x13B JUMPI DUP1 PUSH4 0xCF3FB0C9 EQ PUSH2 0x145 JUMPI DUP1 PUSH4 0xD1F81E05 EQ PUSH2 0x161 JUMPI DUP1 PUSH4 0xFC328873 EQ PUSH2 0x17D JUMPI PUSH2 0xA7 JUMP JUMPDEST DUP1 PUSH4 0x246CE3F9 EQ PUSH2 0xAB JUMPI DUP1 PUSH4 0x3FA4F245 EQ PUSH2 0xC7 JUMPI DUP1 PUSH4 0x41FF0DC1 EQ PUSH2 0xE5 JUMPI DUP1 PUSH4 0x63EAAA86 EQ PUSH2 0xEF JUMPI DUP1 PUSH4 0x797F9DD5 EQ PUSH2 0x10B JUMPI JUMPDEST PUSH0 PUSH0 REVERT JUMPDEST PUSH2 0xC5 PUSH1 0x4 DUP1 CALLDATASIZE SUB DUP2 ADD SWAP1 PUSH2 0xC0 SWAP2 SWAP1 PUSH2 0x35B JUMP JUMPDEST PUSH2 0x187 JUMP JUMPDEST STOP JUMPDEST PUSH2 0xCF PUSH2 0x1A4 JUMP JUMPDEST PUSH1 0x40 MLOAD PUSH2 0xDC SWAP2 SWAP1 PUSH2 0x395 JUMP JUMPDEST PUSH1 0x40 MLOAD DUP1 SWAP2 SUB SWAP1 RETURN JUMPDEST PUSH2 0xED PUSH2 0x1A9 JUMP JUMPDEST STOP JUMPDEST PUSH2 0x109 PUSH1 0x4 DUP1 CALLDATASIZE SUB DUP2 ADD SWAP1 PUSH2 0x104 SWAP2 SWAP1 PUSH2 0x35B JUMP JUMPDEST PUSH2 0x1B5 JUMP JUMPDEST STOP JUMPDEST PUSH2 0x113 PUSH2 0x207 JUMP JUMPDEST STOP JUMPDEST PUSH2 0x11D PUSH2 0x213 JUMP JUMPDEST STOP JUMPDEST PUSH2 0x139 PUSH1 0x4 DUP1 CALLDATASIZE SUB DUP2 ADD SWAP1 PUSH2 0x134 SWAP2 SWAP1 PUSH2 0x35B JUMP JUMPDEST PUSH2 0x21F JUMP JUMPDEST STOP JUMPDEST PUSH2 0x143 PUSH2 0x26C JUMP JUMPDEST STOP JUMPDEST PUSH2 0x15F PUSH1 0x4 DUP1 CALLDATASIZE SUB DUP2 ADD SWAP1 PUSH2 0x15A SWAP2 SWAP1 PUSH2 0x35B JUMP JUMPDEST PUSH2 0x278 JUMP JUMPDEST STOP JUMPDEST PUSH2 0x17B PUSH1 0x4 DUP1 CALLDATASIZE SUB DUP2 ADD SWAP1 PUSH2 0x176 SWAP2 SWAP1 PUSH2 0x35B JUMP JUMPDEST PUSH2 0x2C5 JUMP JUMPDEST STOP JUMPDEST PUSH2 0x185 PUSH2 0x317 JUMP JUMPDEST STOP JUMPDEST DUP1 PUSH0 DUP2 SWAP1 SSTORE POP PUSH2 0x3E8 PUSH0 SLOAD GT ISZERO PUSH2 0x1A1 JUMPI PUSH2 0x1A0 PUSH2 0x3AE JUMP JUMPDEST JUMPDEST POP JUMP JUMPDEST PUSH0 SLOAD DUP2 JUMP JUMPDEST PUSH2 0x1B3 PUSH1 0xC8 PUSH2 0x2C5 JUMP JUMPDEST JUMP JUMPDEST PUSH0 SLOAD DUP2 GT ISZERO PUSH2 0x1FE JUMPI PUSH0 SLOAD DUP2 PUSH1 0x40 MLOAD PUSH32 0x7A0E198500000000000000000000000000000000000000000000000000000000 DUP2 MSTORE PUSH1 0x4 ADD PUSH2 0x1F5 SWAP3 SWAP2 SWAP1 PUSH2 0x3DB JUMP JUMPDEST PUSH1 0x40 MLOAD DUP1 SWAP2 SUB SWAP1 REVERT JUMPDEST DUP1 PUSH0 DUP2 SWAP1 SSTORE POP POP JUMP JUMPDEST PUSH2 0x211 PUSH1 0xC8 PUSH2 0x21F JUMP JUMPDEST JUMP JUMPDEST PUSH2 0x21D PUSH1 0xC8 PUSH2 0x1B5 JUMP JUMPDEST JUMP JUMPDEST PUSH0 SLOAD DUP2 GT ISZERO PUSH2 0x263 JUMPI PUSH1 0x40 MLOAD PUSH32 0x8C379A000000000000000000000000000000000000000000000000000000000 DUP2 MSTORE PUSH1 0x4 ADD PUSH2 0x25A SWAP1 PUSH2 0x45C JUMP JUMPDEST PUSH1 0x40 MLOAD DUP1 SWAP2 SUB SWAP1 REVERT JUMPDEST DUP1 PUSH0 DUP2 SWAP1 SSTORE POP POP JUMP JUMPDEST PUSH2 0x276 PUSH1 0xC8 PUSH2 0x278 JUMP JUMPDEST JUMP JUMPDEST PUSH0 SLOAD DUP2 GT ISZERO PUSH2 0x2BC JUMPI PUSH1 0x40 MLOAD PUSH32 0x8C379A000000000000000000000000000000000000000000000000000000000 DUP2 MSTORE PUSH1 0x4 ADD PUSH2 0x2B3 SWAP1 PUSH2 0x45C JUMP JUMPDEST PUSH1 0x40 MLOAD DUP1 SWAP2 SUB SWAP1 REVERT JUMPDEST DUP1 PUSH0 DUP2 SWAP1 SSTORE POP POP JUMP JUMPDEST PUSH0 SLOAD DUP2 GT ISZERO PUSH2 0x30E JUMPI PUSH0 SLOAD DUP2 PUSH1 0x40 MLOAD PUSH32 0x7A0E198500000000000000000000000000000000000000000000000000000000 DUP2 MSTORE PUSH1 0x4 ADD PUSH2 0x305 SWAP3 SWAP2 SWAP1 PUSH2 0x3DB JUMP JUMPDEST PUSH1 0x40 MLOAD DUP1 SWAP2 SUB SWAP1 REVERT JUMPDEST DUP1 PUSH0 DUP2 SWAP1 SSTORE POP POP JUMP JUMPDEST PUSH2 0x322 PUSH2 0x7D0 PUSH2 0x187 JUMP JUMPDEST JUMP JUMPDEST PUSH0 PUSH0 REVERT JUMPDEST PUSH0 DUP2 SWAP1 POP SWAP2 SWAP1 POP JUMP JUMPDEST PUSH2 0x33A DUP2 PUSH2 0x328 JUMP JUMPDEST DUP2 EQ PUSH2 0x344 JUMPI PUSH0 PUSH0 REVERT JUMPDEST POP JUMP JUMPDEST PUSH0 DUP2 CALLDATALOAD SWAP1 POP PUSH2 0x355 DUP2 PUSH2 0x331 JUMP JUMPDEST SWAP3 SWAP2 POP POP JUMP JUMPDEST PUSH0 PUSH1 0x20 DUP3 DUP5 SUB SLT ISZERO PUSH2 0x370 JUMPI PUSH2 0x36F PUSH2 0x324 JUMP JUMPDEST JUMPDEST PUSH0 PUSH2 0x37D DUP5 DUP3 DUP6 ADD PUSH2 0x347 JUMP JUMPDEST SWAP2 POP POP SWAP3 SWAP2 POP POP JUMP JUMPDEST PUSH2 0x38F DUP2 PUSH2 0x328 JUMP JUMPDEST DUP3 MSTORE POP POP JUMP JUMPDEST PUSH0 PUSH1 0x20 DUP3 ADD SWAP1 POP PUSH2 0x3A8 PUSH0 DUP4 ADD DUP5 PUSH2 0x386 JUMP JUMPDEST SWAP3 SWAP2 POP POP JUMP JUMPDEST PUSH32 0x4E487B7100000000000000000000000000000000000000000000000000000000 PUSH0 MSTORE PUSH1 0x1 PUSH1 0x4 MSTORE PUSH1 0x24 PUSH0 REVERT JUMPDEST PUSH0 PUSH1 0x40 DUP3 ADD SWAP1 POP PUSH2 0x3EE PUSH0 DUP4 ADD DUP6 PUSH2 0x386 JUMP JUMPDEST PUSH2 0x3FB PUSH1 0x20 DUP4 ADD DUP5 PUSH2 0x386 JUMP JUMPDEST SWAP4 SWAP3 POP POP POP JUMP JUMPDEST PUSH0 DUP3 DUP3 MSTORE PUSH1 0x20 DUP3 ADD SWAP1 POP SWAP3 SWAP2 POP POP JUMP JUMPDEST PUSH32 0x56616C756520746F6F2068696768000000000000000000000000000000000000 PUSH0 DUP3 ADD MSTORE POP JUMP JUMPDEST PUSH0 PUSH2 0x446 PUSH1 0xE DUP4 PUSH2 0x402 JUMP JUMPDEST SWAP2 POP PUSH2 0x451 DUP3 PUSH2 0x412 JUMP JUMPDEST PUSH1 0x20 DUP3 ADD SWAP1 POP SWAP2 SWAP1 POP JUMP JUMPDEST PUSH0 PUSH1 0x20 DUP3 ADD SWAP1 POP DUP2 DUP2 SUB PUSH0 DUP4 ADD MSTORE PUSH2 0x473 DUP2 PUSH2 0x43A JUMP JUMPDEST SWAP1 POP SWAP2 SWAP1 POP JUMP INVALID LOG2 PUSH5 0x6970667358 0x22 SLT KECCAK256 MSTORE8 PUSH1 0xB2 0xAA PUSH7 0x9710711BCA2F6F DATALOADN 0x90D1 0x4D 0xF6 MLOAD 0xC1 DUP8 RETF 0xDF 0xDC PUSH21 0x4471CA7657B5D3764736F6C634300081E00330000 "
				},
				"gasEstimates": {
					"creation": {
						"codeDepositCost": "240000",
						"executionCost": "22384",
						"totalCost": "262384"
					},
					"external": {
						"testAssert(uint256)": "24665",
						"testRequireCustomError(uint256)": "infinite",
						"testRequireString(uint256)": "24661",
						"testRevertCustomError(uint256)": "infinite",
						"testRevertString(uint256)": "24705",
						"triggerAssert()": "24536",
						"triggerRequireCustomError()": "infinite",
						"triggerRequireString()": "24499",
						"triggerRevertCustomError()": "infinite",
						"triggerRevertString()": "24454",
						"value()": "2447"
					}
				},
				"methodIdentifiers": {
					"testAssert(uint256)": "246ce3f9",
					"testRequireCustomError(uint256)": "63eaaa86",
					"testRequireString(uint256)": "a1a02453",
					"testRevertCustomError(uint256)": "d1f81e05",
					"testRevertString(uint256)": "cf3fb0c9",
					"triggerAssert()": "fc328873",
					"triggerRequireCustomError()": "9dbea541",
					"triggerRequireString()": "797f9dd5",
					"triggerRevertCustomError()": "41ff0dc1",
					"triggerRevertString()": "a64f2337",
					"value()": "3fa4f245"
				}
			},
			"storageLayout": {
				"storage": [
					{
						"astId": 4,
						"contract": "contracts/GasComparison.sol:GasComparison",
						"label": "value",
						"offset": 0,
						"slot": "0",
						"type": "t_uint256"
					}
				],
				"types": {
					"t_uint256": {
						"encoding": "inplace",
						"label": "uint256",
						"numberOfBytes": "32"
					}
				}
			},
			"userdoc": {
				"kind": "user",
				"methods": {},
				"version": 1
			}
		}
	}
}