{
	"contracts/ReverseString.sol": {
		"ReverseString": {
			"abi": [
				{
					"inputs": [
						{
							"internalType": "string",
							"name": "input",
							"type": "string"
						}
					],
					"name": "reverse",
					"outputs": [
						{
							"internalType": "string",
							"name": "",
							"type": "string"
						}
					],
					"stateMutability": "pure",
					"type": "function"
				},
				{
					"inputs": [
						{
							"internalType": "string",
							"name": "input",
							"type": "string"
						}
					],
					"name": "reverseString",
					"outputs": [
						{
							"internalType": "string",
							"name": "",
							"type": "string"
						}
					],
					"stateMutability": "pure",
					"type": "function"
				},
				{
					"inputs": [
						{
							"internalType": "string",
							"name": "input",
							"type": "string"
						}
					],
					"name": "reverseStringAlternative",
					"outputs": [
						{
							"internalType": "string",
							"name": "",
							"type": "string"
						}
					],
					"stateMutability": "pure",
					"type": "function"
				}
			],
			"devdoc": {
				"kind": "dev",
				"methods": {},
				"version": 1
			},
			"evm": {
				"assembly": "    /* \"contracts/ReverseString.sol\":58:1835  contract ReverseString {... */\n  mstore(0x40, 0x80)\n  callvalue\n  dup1\n  iszero\n  tag_1\n  jumpi\n  revert(0x00, 0x00)\ntag_1:\n  pop\n  dataSize(sub_0)\n  dup1\n  dataOffset(sub_0)\n  0x00\n  codecopy\n  0x00\n  return\nstop\n\nsub_0: assembly {\n        /* \"contracts/ReverseString.sol\":58:1835  contract ReverseString {... */\n      mstore(0x40, 0x80)\n      callvalue\n      dup1\n      iszero\n      tag_1\n      jumpi\n      revert(0x00, 0x00)\n    tag_1:\n      pop\n      jumpi(tag_2, lt(calldatasize, 0x04))\n      shr(0xe0, calldataload(0x00))\n      dup1\n      0x064767aa\n      eq\n      tag_3\n      jumpi\n      dup1\n      0x5729c211\n      eq\n      tag_4\n      jumpi\n      dup1\n      0xc403b235\n      eq\n      tag_5\n      jumpi\n    tag_2:\n      revert(0x00, 0x00)\n        /* \"contracts/ReverseString.sol\":1474:1833  function reverse(string memory input) public pure returns (string memory) {... */\n    tag_3:\n      tag_6\n      0x04\n      dup1\n      calldatasize\n      sub\n      dup2\n      add\n      swap1\n      tag_7\n      swap2\n      swap1\n      tag_8\n      jump\t// in\n    tag_7:\n      tag_9\n      jump\t// in\n    tag_6:\n      mload(0x40)\n      tag_10\n      swap2\n      swap1\n      tag_11\n      jump\t// in\n    tag_10:\n      mload(0x40)\n      dup1\n      swap2\n      sub\n      swap1\n      return\n        /* \"contracts/ReverseString.sol\":87:815  function reverseString(... */\n    tag_4:\n      tag_12\n      0x04\n      dup1\n      calldatasize\n      sub\n      dup2\n      add\n      swap1\n      tag_13\n      swap2\n      swap1\n      tag_8\n      jump\t// in\n    tag_13:\n      tag_14\n      jump\t// in\n    tag_12:\n      mload(0x40)\n      tag_15\n      swap2\n      swap1\n      tag_11\n      jump\t// in\n    tag_15:\n      mload(0x40)\n      dup1\n      swap2\n      sub\n      swap1\n      return\n        /* \"contracts/ReverseString.sol\":821:1445  function reverseStringAlternative(... */\n    tag_5:\n      tag_16\n      0x04\n      dup1\n      calldatasize\n      sub\n      dup2\n      add\n      swap1\n      tag_17\n      swap2\n      swap1\n      tag_8\n      jump\t// in\n    tag_17:\n      tag_18\n      jump\t// in\n    tag_16:\n      mload(0x40)\n      tag_19\n      swap2\n      swap1\n      tag_11\n      jump\t// in\n    tag_19:\n      mload(0x40)\n      dup1\n      swap2\n      sub\n      swap1\n      return\n        /* \"contracts/ReverseString.sol\":1474:1833  function reverse(string memory input) public pure returns (string memory) {... */\n    tag_9:\n        /* \"contracts/ReverseString.sol\":1533:1546  string memory */\n      0x60\n        /* \"contracts/ReverseString.sol\":1558:1579  bytes memory strBytes */\n      0x00\n        /* \"contracts/ReverseString.sol\":1588:1593  input */\n      dup3\n        /* \"contracts/ReverseString.sol\":1558:1594  bytes memory strBytes = bytes(input) */\n      swap1\n      pop\n        /* \"contracts/ReverseString.sol\":1604:1615  uint length */\n      0x00\n        /* \"contracts/ReverseString.sol\":1618:1626  strBytes */\n      dup2\n        /* \"contracts/ReverseString.sol\":1618:1633  strBytes.length */\n      mload\n        /* \"contracts/ReverseString.sol\":1604:1633  uint length = strBytes.length */\n      swap1\n      pop\n        /* \"contracts/ReverseString.sol\":1644:1665  bytes memory reversed */\n      0x00\n        /* \"contracts/ReverseString.sol\":1678:1684  length */\n      dup2\n        /* \"contracts/ReverseString.sol\":1668:1685  new bytes(length) */\n      0xffffffffffffffff\n      dup2\n      gt\n      iszero\n      tag_21\n      jumpi\n      tag_22\n      tag_23\n      jump\t// in\n    tag_22:\n    tag_21:\n      mload(0x40)\n      swap1\n      dup1\n      dup3\n      mstore\n      dup1\n      0x1f\n      add\n      not(0x1f)\n      and\n      0x20\n      add\n      dup3\n      add\n      0x40\n      mstore\n      dup1\n      iszero\n      tag_24\n      jumpi\n      dup2\n      0x20\n      add\n      0x01\n      dup3\n      mul\n      dup1\n      calldatasize\n      dup4\n      calldatacopy\n      dup1\n      dup3\n      add\n      swap2\n      pop\n      pop\n      swap1\n      pop\n    tag_24:\n      pop\n        /* \"contracts/ReverseString.sol\":1644:1685  bytes memory reversed = new bytes(length) */\n      swap1\n      pop\n        /* \"contracts/ReverseString.sol\":1701:1707  uint i */\n      0x00\n        /* \"contracts/ReverseString.sol\":1710:1711  0 */\n      0x00\n        /* \"contracts/ReverseString.sol\":1701:1711  uint i = 0 */\n      swap1\n      pop\n        /* \"contracts/ReverseString.sol\":1696:1793  for (uint i = 0; i < length; i++) {... */\n    tag_25:\n        /* \"contracts/ReverseString.sol\":1717:1723  length */\n      dup3\n        /* \"contracts/ReverseString.sol\":1713:1714  i */\n      dup2\n        /* \"contracts/ReverseString.sol\":1713:1723  i < length */\n      lt\n        /* \"contracts/ReverseString.sol\":1696:1793  for (uint i = 0; i < length; i++) {... */\n      iszero\n      tag_26\n      jumpi\n        /* \"contracts/ReverseString.sol\":1758:1766  strBytes */\n      dup4\n        /* \"contracts/ReverseString.sol\":1780:1781  i */\n      dup2\n        /* \"contracts/ReverseString.sol\":1776:1777  1 */\n      0x01\n        /* \"contracts/ReverseString.sol\":1767:1773  length */\n      dup6\n        /* \"contracts/ReverseString.sol\":1767:1777  length - 1 */\n      tag_28\n      swap2\n      swap1\n      tag_29\n      jump\t// in\n    tag_28:\n        /* \"contracts/ReverseString.sol\":1767:1781  length - 1 - i */\n      tag_30\n      swap2\n      swap1\n      tag_29\n      jump\t// in\n    tag_30:\n        /* \"contracts/ReverseString.sol\":1758:1782  strBytes[length - 1 - i] */\n      dup2\n      mload\n      dup2\n      lt\n      tag_31\n      jumpi\n      tag_32\n      tag_33\n      jump\t// in\n    tag_32:\n    tag_31:\n      0x20\n      add\n      add\n      mload\n      0xf8\n      shr\n      0xf8\n      shl\n        /* \"contracts/ReverseString.sol\":1744:1752  reversed */\n      dup3\n        /* \"contracts/ReverseString.sol\":1753:1754  i */\n      dup3\n        /* \"contracts/ReverseString.sol\":1744:1755  reversed[i] */\n      dup2\n      mload\n      dup2\n      lt\n      tag_34\n      jumpi\n      tag_35\n      tag_33\n      jump\t// in\n    tag_35:\n    tag_34:\n      0x20\n      add\n      add\n        /* \"contracts/ReverseString.sol\":1744:1782  reversed[i] = strBytes[length - 1 - i] */\n      swap1\n      not(0xffffffffffffffffffffffffffffffffffffffffffffffffffffffffffffff)\n      and\n      swap1\n      dup2\n      0x00\n      byte\n      swap1\n      mstore8\n      pop\n        /* \"contracts/ReverseString.sol\":1725:1728  i++ */\n      dup1\n      dup1\n      0x01\n      add\n      swap2\n      pop\n      pop\n        /* \"contracts/ReverseString.sol\":1696:1793  for (uint i = 0; i < length; i++) {... */\n      jump(tag_25)\n    tag_26:\n      pop\n        /* \"contracts/ReverseString.sol\":1817:1825  reversed */\n      dup1\n        /* \"contracts/ReverseString.sol\":1803:1826  return string(reversed) */\n      swap4\n      pop\n      pop\n      pop\n      pop\n        /* \"contracts/ReverseString.sol\":1474:1833  function reverse(string memory input) public pure returns (string memory) {... */\n      swap2\n      swap1\n      pop\n      jump\t// out\n        /* \"contracts/ReverseString.sol\":87:815  function reverseString(... */\n    tag_14:\n        /* \"contracts/ReverseString.sol\":166:179  string memory */\n      0x60\n        /* \"contracts/ReverseString.sol\":236:259  bytes memory inputBytes */\n      0x00\n        /* \"contracts/ReverseString.sol\":268:273  input */\n      dup3\n        /* \"contracts/ReverseString.sol\":236:274  bytes memory inputBytes = bytes(input) */\n      swap1\n      pop\n        /* \"contracts/ReverseString.sol\":284:298  uint256 length */\n      0x00\n        /* \"contracts/ReverseString.sol\":301:311  inputBytes */\n      dup2\n        /* \"contracts/ReverseString.sol\":301:318  inputBytes.length */\n      mload\n        /* \"contracts/ReverseString.sol\":284:318  uint256 length = inputBytes.length */\n      swap1\n      pop\n        /* \"contracts/ReverseString.sol\":412:413  1 */\n      0x01\n        /* \"contracts/ReverseString.sol\":402:408  length */\n      dup2\n        /* \"contracts/ReverseString.sol\":402:413  length <= 1 */\n      gt\n        /* \"contracts/ReverseString.sol\":398:452  if (length <= 1) {... */\n      tag_37\n      jumpi\n        /* \"contracts/ReverseString.sol\":436:441  input */\n      dup4\n        /* \"contracts/ReverseString.sol\":429:441  return input */\n      swap3\n      pop\n      pop\n      pop\n      jump(tag_36)\n        /* \"contracts/ReverseString.sol\":398:452  if (length <= 1) {... */\n    tag_37:\n        /* \"contracts/ReverseString.sol\":522:548  bytes memory reversedBytes */\n      0x00\n        /* \"contracts/ReverseString.sol\":561:567  length */\n      dup2\n        /* \"contracts/ReverseString.sol\":551:568  new bytes(length) */\n      0xffffffffffffffff\n      dup2\n      gt\n      iszero\n      tag_38\n      jumpi\n      tag_39\n      tag_23\n      jump\t// in\n    tag_39:\n    tag_38:\n      mload(0x40)\n      swap1\n      dup1\n      dup3\n      mstore\n      dup1\n      0x1f\n      add\n      not(0x1f)\n      and\n      0x20\n      add\n      dup3\n      add\n      0x40\n      mstore\n      dup1\n      iszero\n      tag_40\n      jumpi\n      dup2\n      0x20\n      add\n      0x01\n      dup3\n      mul\n      dup1\n      calldatasize\n      dup4\n      calldatacopy\n      dup1\n      dup3\n      add\n      swap2\n      pop\n      pop\n      swap1\n      pop\n    tag_40:\n      pop\n        /* \"contracts/ReverseString.sol\":522:568  bytes memory reversedBytes = new bytes(length) */\n      swap1\n      pop\n        /* \"contracts/ReverseString.sol\":614:623  uint256 i */\n      0x00\n        /* \"contracts/ReverseString.sol\":626:627  0 */\n      0x00\n        /* \"contracts/ReverseString.sol\":614:627  uint256 i = 0 */\n      swap1\n      pop\n        /* \"contracts/ReverseString.sol\":609:716  for (uint256 i = 0; i < length; i++) {... */\n    tag_41:\n        /* \"contracts/ReverseString.sol\":633:639  length */\n      dup3\n        /* \"contracts/ReverseString.sol\":629:630  i */\n      dup2\n        /* \"contracts/ReverseString.sol\":629:639  i < length */\n      lt\n        /* \"contracts/ReverseString.sol\":609:716  for (uint256 i = 0; i < length; i++) {... */\n      iszero\n      tag_42\n      jumpi\n        /* \"contracts/ReverseString.sol\":679:689  inputBytes */\n      dup4\n        /* \"contracts/ReverseString.sol\":703:704  i */\n      dup2\n        /* \"contracts/ReverseString.sol\":699:700  1 */\n      0x01\n        /* \"contracts/ReverseString.sol\":690:696  length */\n      dup6\n        /* \"contracts/ReverseString.sol\":690:700  length - 1 */\n      tag_44\n      swap2\n      swap1\n      tag_29\n      jump\t// in\n    tag_44:\n        /* \"contracts/ReverseString.sol\":690:704  length - 1 - i */\n      tag_45\n      swap2\n      swap1\n      tag_29\n      jump\t// in\n    tag_45:\n        /* \"contracts/ReverseString.sol\":679:705  inputBytes[length - 1 - i] */\n      dup2\n      mload\n      dup2\n      lt\n      tag_46\n      jumpi\n      tag_47\n      tag_33\n      jump\t// in\n    tag_47:\n    tag_46:\n      0x20\n      add\n      add\n      mload\n      0xf8\n      shr\n      0xf8\n      shl\n        /* \"contracts/ReverseString.sol\":660:673  reversedBytes */\n      dup3\n        /* \"contracts/ReverseString.sol\":674:675  i */\n      dup3\n        /* \"contracts/ReverseString.sol\":660:676  reversedBytes[i] */\n      dup2\n      mload\n      dup2\n      lt\n      tag_48\n      jumpi\n      tag_49\n      tag_33\n      jump\t// in\n    tag_49:\n    tag_48:\n      0x20\n      add\n      add\n        /* \"contracts/ReverseString.sol\":660:705  reversedBytes[i] = inputBytes[length - 1 - i] */\n      swap1\n      not(0xffffffffffffffffffffffffffffffffffffffffffffffffffffffffffffff)\n      and\n      swap1\n      dup2\n      0x00\n      byte\n      swap1\n      mstore8\n      pop\n        /* \"contracts/ReverseString.sol\":641:644  i++ */\n      dup1\n      dup1\n      0x01\n      add\n      swap2\n      pop\n      pop\n        /* \"contracts/ReverseString.sol\":609:716  for (uint256 i = 0; i < length; i++) {... */\n      jump(tag_41)\n    tag_42:\n      pop\n        /* \"contracts/ReverseString.sol\":794:807  reversedBytes */\n      dup1\n        /* \"contracts/ReverseString.sol\":780:808  return string(reversedBytes) */\n      swap4\n      pop\n      pop\n      pop\n      pop\n        /* \"contracts/ReverseString.sol\":87:815  function reverseString(... */\n    tag_36:\n      swap2\n      swap1\n      pop\n      jump\t// out\n        /* \"contracts/ReverseString.sol\":821:1445  function reverseStringAlternative(... */\n    tag_18:\n        /* \"contracts/ReverseString.sol\":911:924  string memory */\n      0x60\n        /* \"contracts/ReverseString.sol\":936:957  bytes memory strBytes */\n      0x00\n        /* \"contracts/ReverseString.sol\":966:971  input */\n      dup3\n        /* \"contracts/ReverseString.sol\":936:972  bytes memory strBytes = bytes(input) */\n      swap1\n      pop\n        /* \"contracts/ReverseString.sol\":982:993  uint256 len */\n      0x00\n        /* \"contracts/ReverseString.sol\":996:1004  strBytes */\n      dup2\n        /* \"contracts/ReverseString.sol\":996:1011  strBytes.length */\n      mload\n        /* \"contracts/ReverseString.sol\":982:1011  uint256 len = strBytes.length */\n      swap1\n      pop\n        /* \"contracts/ReverseString.sol\":1033:1034  1 */\n      0x01\n        /* \"contracts/ReverseString.sol\":1026:1029  len */\n      dup2\n        /* \"contracts/ReverseString.sol\":1026:1034  len <= 1 */\n      gt\n        /* \"contracts/ReverseString.sol\":1022:1073  if (len <= 1) {... */\n      tag_51\n      jumpi\n        /* \"contracts/ReverseString.sol\":1057:1062  input */\n      dup4\n        /* \"contracts/ReverseString.sol\":1050:1062  return input */\n      swap3\n      pop\n      pop\n      pop\n      jump(tag_50)\n        /* \"contracts/ReverseString.sol\":1022:1073  if (len <= 1) {... */\n    tag_51:\n        /* \"contracts/ReverseString.sol\":1119:1131  uint256 left */\n      0x00\n        /* \"contracts/ReverseString.sol\":1134:1135  0 */\n      0x00\n        /* \"contracts/ReverseString.sol\":1119:1135  uint256 left = 0 */\n      swap1\n      pop\n        /* \"contracts/ReverseString.sol\":1145:1158  uint256 right */\n      0x00\n        /* \"contracts/ReverseString.sol\":1167:1168  1 */\n      0x01\n        /* \"contracts/ReverseString.sol\":1161:1164  len */\n      dup4\n        /* \"contracts/ReverseString.sol\":1161:1168  len - 1 */\n      tag_52\n      swap2\n      swap1\n      tag_29\n      jump\t// in\n    tag_52:\n        /* \"contracts/ReverseString.sol\":1145:1168  uint256 right = len - 1 */\n      swap1\n      pop\n        /* \"contracts/ReverseString.sol\":1179:1405  while (left < right) {... */\n    tag_53:\n        /* \"contracts/ReverseString.sol\":1193:1198  right */\n      dup1\n        /* \"contracts/ReverseString.sol\":1186:1190  left */\n      dup3\n        /* \"contracts/ReverseString.sol\":1186:1198  left < right */\n      lt\n        /* \"contracts/ReverseString.sol\":1179:1405  while (left < right) {... */\n      iszero\n      tag_54\n      jumpi\n        /* \"contracts/ReverseString.sol\":1242:1253  bytes1 temp */\n      0x00\n        /* \"contracts/ReverseString.sol\":1256:1264  strBytes */\n      dup5\n        /* \"contracts/ReverseString.sol\":1265:1269  left */\n      dup4\n        /* \"contracts/ReverseString.sol\":1256:1270  strBytes[left] */\n      dup2\n      mload\n      dup2\n      lt\n      tag_55\n      jumpi\n      tag_56\n      tag_33\n      jump\t// in\n    tag_56:\n    tag_55:\n      0x20\n      add\n      add\n      mload\n      0xf8\n      shr\n      0xf8\n      shl\n        /* \"contracts/ReverseString.sol\":1242:1270  bytes1 temp = strBytes[left] */\n      swap1\n      pop\n        /* \"contracts/ReverseString.sol\":1301:1309  strBytes */\n      dup5\n        /* \"contracts/ReverseString.sol\":1310:1315  right */\n      dup3\n        /* \"contracts/ReverseString.sol\":1301:1316  strBytes[right] */\n      dup2\n      mload\n      dup2\n      lt\n      tag_57\n      jumpi\n      tag_58\n      tag_33\n      jump\t// in\n    tag_58:\n    tag_57:\n      0x20\n      add\n      add\n      mload\n      0xf8\n      shr\n      0xf8\n      shl\n        /* \"contracts/ReverseString.sol\":1284:1292  strBytes */\n      dup6\n        /* \"contracts/ReverseString.sol\":1293:1297  left */\n      dup5\n        /* \"contracts/ReverseString.sol\":1284:1298  strBytes[left] */\n      dup2\n      mload\n      dup2\n      lt\n      tag_59\n      jumpi\n      tag_60\n      tag_33\n      jump\t// in\n    tag_60:\n    tag_59:\n      0x20\n      add\n      add\n        /* \"contracts/ReverseString.sol\":1284:1316  strBytes[left] = strBytes[right] */\n      swap1\n      not(0xffffffffffffffffffffffffffffffffffffffffffffffffffffffffffffff)\n      and\n      swap1\n      dup2\n      0x00\n      byte\n      swap1\n      mstore8\n      pop\n        /* \"contracts/ReverseString.sol\":1348:1352  temp */\n      dup1\n        /* \"contracts/ReverseString.sol\":1330:1338  strBytes */\n      dup6\n        /* \"contracts/ReverseString.sol\":1339:1344  right */\n      dup4\n        /* \"contracts/ReverseString.sol\":1330:1345  strBytes[right] */\n      dup2\n      mload\n      dup2\n      lt\n      tag_61\n      jumpi\n      tag_62\n      tag_33\n      jump\t// in\n    tag_62:\n    tag_61:\n      0x20\n      add\n      add\n        /* \"contracts/ReverseString.sol\":1330:1352  strBytes[right] = temp */\n      swap1\n      not(0xffffffffffffffffffffffffffffffffffffffffffffffffffffffffffffff)\n      and\n      swap1\n      dup2\n      0x00\n      byte\n      swap1\n      mstore8\n      pop\n        /* \"contracts/ReverseString.sol\":1367:1373  left++ */\n      dup3\n      dup1\n      tag_63\n      swap1\n      tag_64\n      jump\t// in\n    tag_63:\n      swap4\n      pop\n      pop\n        /* \"contracts/ReverseString.sol\":1387:1394  right-- */\n      dup2\n      dup1\n      tag_65\n      swap1\n      tag_66\n      jump\t// in\n    tag_65:\n      swap3\n      pop\n      pop\n        /* \"contracts/ReverseString.sol\":1200:1405  {... */\n      pop\n        /* \"contracts/ReverseString.sol\":1179:1405  while (left < right) {... */\n      jump(tag_53)\n    tag_54:\n        /* \"contracts/ReverseString.sol\":1429:1437  strBytes */\n      dup4\n        /* \"contracts/ReverseString.sol\":1415:1438  return string(strBytes) */\n      swap5\n      pop\n      pop\n      pop\n      pop\n      pop\n        /* \"contracts/ReverseString.sol\":821:1445  function reverseStringAlternative(... */\n    tag_50:\n      swap2\n      swap1\n      pop\n      jump\t// out\n        /* \"#utility.yul\":7:82   */\n    tag_67:\n        /* \"#utility.yul\":40:46   */\n      0x00\n        /* \"#utility.yul\":73:75   */\n      0x40\n        /* \"#utility.yul\":67:76   */\n      mload\n        /* \"#utility.yul\":57:76   */\n      swap1\n      pop\n        /* \"#utility.yul\":7:82   */\n      swap1\n      jump\t// out\n        /* \"#utility.yul\":88:205   */\n    tag_68:\n        /* \"#utility.yul\":197:198   */\n      0x00\n        /* \"#utility.yul\":194:195   */\n      0x00\n        /* \"#utility.yul\":187:199   */\n      revert\n        /* \"#utility.yul\":211:328   */\n    tag_69:\n        /* \"#utility.yul\":320:321   */\n      0x00\n        /* \"#utility.yul\":317:318   */\n      0x00\n        /* \"#utility.yul\":310:322   */\n      revert\n        /* \"#utility.yul\":334:451   */\n    tag_70:\n        /* \"#utility.yul\":443:444   */\n      0x00\n        /* \"#utility.yul\":440:441   */\n      0x00\n        /* \"#utility.yul\":433:445   */\n      revert\n        /* \"#utility.yul\":457:574   */\n    tag_71:\n        /* \"#utility.yul\":566:567   */\n      0x00\n        /* \"#utility.yul\":563:564   */\n      0x00\n        /* \"#utility.yul\":556:568   */\n      revert\n        /* \"#utility.yul\":580:682   */\n    tag_72:\n        /* \"#utility.yul\":621:627   */\n      0x00\n        /* \"#utility.yul\":672:674   */\n      0x1f\n        /* \"#utility.yul\":668:675   */\n      not\n        /* \"#utility.yul\":663:665   */\n      0x1f\n        /* \"#utility.yul\":656:661   */\n      dup4\n        /* \"#utility.yul\":652:666   */\n      add\n        /* \"#utility.yul\":648:676   */\n      and\n        /* \"#utility.yul\":638:676   */\n      swap1\n      pop\n        /* \"#utility.yul\":580:682   */\n      swap2\n      swap1\n      pop\n      jump\t// out\n        /* \"#utility.yul\":688:868   */\n    tag_23:\n        /* \"#utility.yul\":736:813   */\n      0x4e487b7100000000000000000000000000000000000000000000000000000000\n        /* \"#utility.yul\":733:734   */\n      0x00\n        /* \"#utility.yul\":726:814   */\n      mstore\n        /* \"#utility.yul\":833:837   */\n      0x41\n        /* \"#utility.yul\":830:831   */\n      0x04\n        /* \"#utility.yul\":823:838   */\n      mstore\n        /* \"#utility.yul\":857:861   */\n      0x24\n        /* \"#utility.yul\":854:855   */\n      0x00\n        /* \"#utility.yul\":847:862   */\n      revert\n        /* \"#utility.yul\":874:1155   */\n    tag_73:\n        /* \"#utility.yul\":957:984   */\n      tag_94\n        /* \"#utility.yul\":979:983   */\n      dup3\n        /* \"#utility.yul\":957:984   */\n      tag_72\n      jump\t// in\n    tag_94:\n        /* \"#utility.yul\":949:955   */\n      dup2\n        /* \"#utility.yul\":945:985   */\n      add\n        /* \"#utility.yul\":1087:1093   */\n      dup2\n        /* \"#utility.yul\":1075:1085   */\n      dup2\n        /* \"#utility.yul\":1072:1094   */\n      lt\n        /* \"#utility.yul\":1051:1069   */\n      0xffffffffffffffff\n        /* \"#utility.yul\":1039:1049   */\n      dup3\n        /* \"#utility.yul\":1036:1070   */\n      gt\n        /* \"#utility.yul\":1033:1095   */\n      or\n        /* \"#utility.yul\":1030:1118   */\n      iszero\n      tag_95\n      jumpi\n        /* \"#utility.yul\":1098:1116   */\n      tag_96\n      tag_23\n      jump\t// in\n    tag_96:\n        /* \"#utility.yul\":1030:1118   */\n    tag_95:\n        /* \"#utility.yul\":1138:1148   */\n      dup1\n        /* \"#utility.yul\":1134:1136   */\n      0x40\n        /* \"#utility.yul\":1127:1149   */\n      mstore\n        /* \"#utility.yul\":917:1155   */\n      pop\n        /* \"#utility.yul\":874:1155   */\n      pop\n      pop\n      jump\t// out\n        /* \"#utility.yul\":1161:1290   */\n    tag_74:\n        /* \"#utility.yul\":1195:1201   */\n      0x00\n        /* \"#utility.yul\":1222:1242   */\n      tag_98\n      tag_67\n      jump\t// in\n    tag_98:\n        /* \"#utility.yul\":1212:1242   */\n      swap1\n      pop\n        /* \"#utility.yul\":1251:1284   */\n      tag_99\n        /* \"#utility.yul\":1279:1283   */\n      dup3\n        /* \"#utility.yul\":1271:1277   */\n      dup3\n        /* \"#utility.yul\":1251:1284   */\n      tag_73\n      jump\t// in\n    tag_99:\n        /* \"#utility.yul\":1161:1290   */\n      swap2\n      swap1\n      pop\n      jump\t// out\n        /* \"#utility.yul\":1296:1604   */\n    tag_75:\n        /* \"#utility.yul\":1358:1362   */\n      0x00\n        /* \"#utility.yul\":1448:1466   */\n      0xffffffffffffffff\n        /* \"#utility.yul\":1440:1446   */\n      dup3\n        /* \"#utility.yul\":1437:1467   */\n      gt\n        /* \"#utility.yul\":1434:1490   */\n      iszero\n      tag_101\n      jumpi\n        /* \"#utility.yul\":1470:1488   */\n      tag_102\n      tag_23\n      jump\t// in\n    tag_102:\n        /* \"#utility.yul\":1434:1490   */\n    tag_101:\n        /* \"#utility.yul\":1508:1537   */\n      tag_103\n        /* \"#utility.yul\":1530:1536   */\n      dup3\n        /* \"#utility.yul\":1508:1537   */\n      tag_72\n      jump\t// in\n    tag_103:\n        /* \"#utility.yul\":1500:1537   */\n      swap1\n      pop\n        /* \"#utility.yul\":1592:1596   */\n      0x20\n        /* \"#utility.yul\":1586:1590   */\n      dup2\n        /* \"#utility.yul\":1582:1597   */\n      add\n        /* \"#utility.yul\":1574:1597   */\n      swap1\n      pop\n        /* \"#utility.yul\":1296:1604   */\n      swap2\n      swap1\n      pop\n      jump\t// out\n        /* \"#utility.yul\":1610:1758   */\n    tag_76:\n        /* \"#utility.yul\":1708:1714   */\n      dup3\n        /* \"#utility.yul\":1703:1706   */\n      dup2\n        /* \"#utility.yul\":1698:1701   */\n      dup4\n        /* \"#utility.yul\":1685:1715   */\n      calldatacopy\n        /* \"#utility.yul\":1749:1750   */\n      0x00\n        /* \"#utility.yul\":1740:1746   */\n      dup4\n        /* \"#utility.yul\":1735:1738   */\n      dup4\n        /* \"#utility.yul\":1731:1747   */\n      add\n        /* \"#utility.yul\":1724:1751   */\n      mstore\n        /* \"#utility.yul\":1610:1758   */\n      pop\n      pop\n      pop\n      jump\t// out\n        /* \"#utility.yul\":1764:2189   */\n    tag_77:\n        /* \"#utility.yul\":1842:1847   */\n      0x00\n        /* \"#utility.yul\":1867:1933   */\n      tag_106\n        /* \"#utility.yul\":1883:1932   */\n      tag_107\n        /* \"#utility.yul\":1925:1931   */\n      dup5\n        /* \"#utility.yul\":1883:1932   */\n      tag_75\n      jump\t// in\n    tag_107:\n        /* \"#utility.yul\":1867:1933   */\n      tag_74\n      jump\t// in\n    tag_106:\n        /* \"#utility.yul\":1858:1933   */\n      swap1\n      pop\n        /* \"#utility.yul\":1956:1962   */\n      dup3\n        /* \"#utility.yul\":1949:1954   */\n      dup2\n        /* \"#utility.yul\":1942:1963   */\n      mstore\n        /* \"#utility.yul\":1994:1998   */\n      0x20\n        /* \"#utility.yul\":1987:1992   */\n      dup2\n        /* \"#utility.yul\":1983:1999   */\n      add\n        /* \"#utility.yul\":2032:2035   */\n      dup5\n        /* \"#utility.yul\":2023:2029   */\n      dup5\n        /* \"#utility.yul\":2018:2021   */\n      dup5\n        /* \"#utility.yul\":2014:2030   */\n      add\n        /* \"#utility.yul\":2011:2036   */\n      gt\n        /* \"#utility.yul\":2008:2120   */\n      iszero\n      tag_108\n      jumpi\n        /* \"#utility.yul\":2039:2118   */\n      tag_109\n      tag_71\n      jump\t// in\n    tag_109:\n        /* \"#utility.yul\":2008:2120   */\n    tag_108:\n        /* \"#utility.yul\":2129:2183   */\n      tag_110\n        /* \"#utility.yul\":2176:2182   */\n      dup5\n        /* \"#utility.yul\":2171:2174   */\n      dup3\n        /* \"#utility.yul\":2166:2169   */\n      dup6\n        /* \"#utility.yul\":2129:2183   */\n      tag_76\n      jump\t// in\n    tag_110:\n        /* \"#utility.yul\":1848:2189   */\n      pop\n        /* \"#utility.yul\":1764:2189   */\n      swap4\n      swap3\n      pop\n      pop\n      pop\n      jump\t// out\n        /* \"#utility.yul\":2209:2549   */\n    tag_78:\n        /* \"#utility.yul\":2265:2270   */\n      0x00\n        /* \"#utility.yul\":2314:2317   */\n      dup3\n        /* \"#utility.yul\":2307:2311   */\n      0x1f\n        /* \"#utility.yul\":2299:2305   */\n      dup4\n        /* \"#utility.yul\":2295:2312   */\n      add\n        /* \"#utility.yul\":2291:2318   */\n      slt\n        /* \"#utility.yul\":2281:2403   */\n      tag_112\n      jumpi\n        /* \"#utility.yul\":2322:2401   */\n      tag_113\n      tag_70\n      jump\t// in\n    tag_113:\n        /* \"#utility.yul\":2281:2403   */\n    tag_112:\n        /* \"#utility.yul\":2439:2445   */\n      dup2\n        /* \"#utility.yul\":2426:2446   */\n      calldataload\n        /* \"#utility.yul\":2464:2543   */\n      tag_114\n        /* \"#utility.yul\":2539:2542   */\n      dup5\n        /* \"#utility.yul\":2531:2537   */\n      dup3\n        /* \"#utility.yul\":2524:2528   */\n      0x20\n        /* \"#utility.yul\":2516:2522   */\n      dup7\n        /* \"#utility.yul\":2512:2529   */\n      add\n        /* \"#utility.yul\":2464:2543   */\n      tag_77\n      jump\t// in\n    tag_114:\n        /* \"#utility.yul\":2455:2543   */\n      swap2\n      pop\n        /* \"#utility.yul\":2271:2549   */\n      pop\n        /* \"#utility.yul\":2209:2549   */\n      swap3\n      swap2\n      pop\n      pop\n      jump\t// out\n        /* \"#utility.yul\":2555:3064   */\n    tag_8:\n        /* \"#utility.yul\":2624:2630   */\n      0x00\n        /* \"#utility.yul\":2673:2675   */\n      0x20\n        /* \"#utility.yul\":2661:2670   */\n      dup3\n        /* \"#utility.yul\":2652:2659   */\n      dup5\n        /* \"#utility.yul\":2648:2671   */\n      sub\n        /* \"#utility.yul\":2644:2676   */\n      slt\n        /* \"#utility.yul\":2641:2760   */\n      iszero\n      tag_116\n      jumpi\n        /* \"#utility.yul\":2679:2758   */\n      tag_117\n      tag_68\n      jump\t// in\n    tag_117:\n        /* \"#utility.yul\":2641:2760   */\n    tag_116:\n        /* \"#utility.yul\":2827:2828   */\n      0x00\n        /* \"#utility.yul\":2816:2825   */\n      dup3\n        /* \"#utility.yul\":2812:2829   */\n      add\n        /* \"#utility.yul\":2799:2830   */\n      calldataload\n        /* \"#utility.yul\":2857:2875   */\n      0xffffffffffffffff\n        /* \"#utility.yul\":2849:2855   */\n      dup2\n        /* \"#utility.yul\":2846:2876   */\n      gt\n        /* \"#utility.yul\":2843:2960   */\n      iszero\n      tag_118\n      jumpi\n        /* \"#utility.yul\":2879:2958   */\n      tag_119\n      tag_69\n      jump\t// in\n    tag_119:\n        /* \"#utility.yul\":2843:2960   */\n    tag_118:\n        /* \"#utility.yul\":2984:3047   */\n      tag_120\n        /* \"#utility.yul\":3039:3046   */\n      dup5\n        /* \"#utility.yul\":3030:3036   */\n      dup3\n        /* \"#utility.yul\":3019:3028   */\n      dup6\n        /* \"#utility.yul\":3015:3037   */\n      add\n        /* \"#utility.yul\":2984:3047   */\n      tag_78\n      jump\t// in\n    tag_120:\n        /* \"#utility.yul\":2974:3047   */\n      swap2\n      pop\n        /* \"#utility.yul\":2770:3057   */\n      pop\n        /* \"#utility.yul\":2555:3064   */\n      swap3\n      swap2\n      pop\n      pop\n      jump\t// out\n        /* \"#utility.yul\":3070:3169   */\n    tag_79:\n        /* \"#utility.yul\":3122:3128   */\n      0x00\n        /* \"#utility.yul\":3156:3161   */\n      dup2\n        /* \"#utility.yul\":3150:3162   */\n      mload\n        /* \"#utility.yul\":3140:3162   */\n      swap1\n      pop\n        /* \"#utility.yul\":3070:3169   */\n      swap2\n      swap1\n      pop\n      jump\t// out\n        /* \"#utility.yul\":3175:3344   */\n    tag_80:\n        /* \"#utility.yul\":3259:3270   */\n      0x00\n        /* \"#utility.yul\":3293:3299   */\n      dup3\n        /* \"#utility.yul\":3288:3291   */\n      dup3\n        /* \"#utility.yul\":3281:3300   */\n      mstore\n        /* \"#utility.yul\":3333:3337   */\n      0x20\n        /* \"#utility.yul\":3328:3331   */\n      dup3\n        /* \"#utility.yul\":3324:3338   */\n      add\n        /* \"#utility.yul\":3309:3338   */\n      swap1\n      pop\n        /* \"#utility.yul\":3175:3344   */\n      swap3\n      swap2\n      pop\n      pop\n      jump\t// out\n        /* \"#utility.yul\":3350:3489   */\n    tag_81:\n        /* \"#utility.yul\":3439:3445   */\n      dup3\n        /* \"#utility.yul\":3434:3437   */\n      dup2\n        /* \"#utility.yul\":3429:3432   */\n      dup4\n        /* \"#utility.yul\":3423:3446   */\n      mcopy\n        /* \"#utility.yul\":3480:3481   */\n      0x00\n        /* \"#utility.yul\":3471:3477   */\n      dup4\n        /* \"#utility.yul\":3466:3469   */\n      dup4\n        /* \"#utility.yul\":3462:3478   */\n      add\n        /* \"#utility.yul\":3455:3482   */\n      mstore\n        /* \"#utility.yul\":3350:3489   */\n      pop\n      pop\n      pop\n      jump\t// out\n        /* \"#utility.yul\":3495:3872   */\n    tag_82:\n        /* \"#utility.yul\":3583:3586   */\n      0x00\n        /* \"#utility.yul\":3611:3650   */\n      tag_125\n        /* \"#utility.yul\":3644:3649   */\n      dup3\n        /* \"#utility.yul\":3611:3650   */\n      tag_79\n      jump\t// in\n    tag_125:\n        /* \"#utility.yul\":3666:3737   */\n      tag_126\n        /* \"#utility.yul\":3730:3736   */\n      dup2\n        /* \"#utility.yul\":3725:3728   */\n      dup6\n        /* \"#utility.yul\":3666:3737   */\n      tag_80\n      jump\t// in\n    tag_126:\n        /* \"#utility.yul\":3659:3737   */\n      swap4\n      pop\n        /* \"#utility.yul\":3746:3811   */\n      tag_127\n        /* \"#utility.yul\":3804:3810   */\n      dup2\n        /* \"#utility.yul\":3799:3802   */\n      dup6\n        /* \"#utility.yul\":3792:3796   */\n      0x20\n        /* \"#utility.yul\":3785:3790   */\n      dup7\n        /* \"#utility.yul\":3781:3797   */\n      add\n        /* \"#utility.yul\":3746:3811   */\n      tag_81\n      jump\t// in\n    tag_127:\n        /* \"#utility.yul\":3836:3865   */\n      tag_128\n        /* \"#utility.yul\":3858:3864   */\n      dup2\n        /* \"#utility.yul\":3836:3865   */\n      tag_72\n      jump\t// in\n    tag_128:\n        /* \"#utility.yul\":3831:3834   */\n      dup5\n        /* \"#utility.yul\":3827:3866   */\n      add\n        /* \"#utility.yul\":3820:3866   */\n      swap2\n      pop\n        /* \"#utility.yul\":3587:3872   */\n      pop\n        /* \"#utility.yul\":3495:3872   */\n      swap3\n      swap2\n      pop\n      pop\n      jump\t// out\n        /* \"#utility.yul\":3878:4191   */\n    tag_11:\n        /* \"#utility.yul\":3991:3995   */\n      0x00\n        /* \"#utility.yul\":4029:4031   */\n      0x20\n        /* \"#utility.yul\":4018:4027   */\n      dup3\n        /* \"#utility.yul\":4014:4032   */\n      add\n        /* \"#utility.yul\":4006:4032   */\n      swap1\n      pop\n        /* \"#utility.yul\":4078:4087   */\n      dup2\n        /* \"#utility.yul\":4072:4076   */\n      dup2\n        /* \"#utility.yul\":4068:4088   */\n      sub\n        /* \"#utility.yul\":4064:4065   */\n      0x00\n        /* \"#utility.yul\":4053:4062   */\n      dup4\n        /* \"#utility.yul\":4049:4066   */\n      add\n        /* \"#utility.yul\":4042:4089   */\n      mstore\n        /* \"#utility.yul\":4106:4184   */\n      tag_130\n        /* \"#utility.yul\":4179:4183   */\n      dup2\n        /* \"#utility.yul\":4170:4176   */\n      dup5\n        /* \"#utility.yul\":4106:4184   */\n      tag_82\n      jump\t// in\n    tag_130:\n        /* \"#utility.yul\":4098:4184   */\n      swap1\n      pop\n        /* \"#utility.yul\":3878:4191   */\n      swap3\n      swap2\n      pop\n      pop\n      jump\t// out\n        /* \"#utility.yul\":4197:4274   */\n    tag_83:\n        /* \"#utility.yul\":4234:4241   */\n      0x00\n        /* \"#utility.yul\":4263:4268   */\n      dup2\n        /* \"#utility.yul\":4252:4268   */\n      swap1\n      pop\n        /* \"#utility.yul\":4197:4274   */\n      swap2\n      swap1\n      pop\n      jump\t// out\n        /* \"#utility.yul\":4280:4460   */\n    tag_84:\n        /* \"#utility.yul\":4328:4405   */\n      0x4e487b7100000000000000000000000000000000000000000000000000000000\n        /* \"#utility.yul\":4325:4326   */\n      0x00\n        /* \"#utility.yul\":4318:4406   */\n      mstore\n        /* \"#utility.yul\":4425:4429   */\n      0x11\n        /* \"#utility.yul\":4422:4423   */\n      0x04\n        /* \"#utility.yul\":4415:4430   */\n      mstore\n        /* \"#utility.yul\":4449:4453   */\n      0x24\n        /* \"#utility.yul\":4446:4447   */\n      0x00\n        /* \"#utility.yul\":4439:4454   */\n      revert\n        /* \"#utility.yul\":4466:4660   */\n    tag_29:\n        /* \"#utility.yul\":4506:4510   */\n      0x00\n        /* \"#utility.yul\":4526:4546   */\n      tag_134\n        /* \"#utility.yul\":4544:4545   */\n      dup3\n        /* \"#utility.yul\":4526:4546   */\n      tag_83\n      jump\t// in\n    tag_134:\n        /* \"#utility.yul\":4521:4546   */\n      swap2\n      pop\n        /* \"#utility.yul\":4560:4580   */\n      tag_135\n        /* \"#utility.yul\":4578:4579   */\n      dup4\n        /* \"#utility.yul\":4560:4580   */\n      tag_83\n      jump\t// in\n    tag_135:\n        /* \"#utility.yul\":4555:4580   */\n      swap3\n      pop\n        /* \"#utility.yul\":4604:4605   */\n      dup3\n        /* \"#utility.yul\":4601:4602   */\n      dup3\n        /* \"#utility.yul\":4597:4606   */\n      sub\n        /* \"#utility.yul\":4589:4606   */\n      swap1\n      pop\n        /* \"#utility.yul\":4628:4629   */\n      dup2\n        /* \"#utility.yul\":4622:4626   */\n      dup2\n        /* \"#utility.yul\":4619:4630   */\n      gt\n        /* \"#utility.yul\":4616:4653   */\n      iszero\n      tag_136\n      jumpi\n        /* \"#utility.yul\":4633:4651   */\n      tag_137\n      tag_84\n      jump\t// in\n    tag_137:\n        /* \"#utility.yul\":4616:4653   */\n    tag_136:\n        /* \"#utility.yul\":4466:4660   */\n      swap3\n      swap2\n      pop\n      pop\n      jump\t// out\n        /* \"#utility.yul\":4666:4846   */\n    tag_33:\n        /* \"#utility.yul\":4714:4791   */\n      0x4e487b7100000000000000000000000000000000000000000000000000000000\n        /* \"#utility.yul\":4711:4712   */\n      0x00\n        /* \"#utility.yul\":4704:4792   */\n      mstore\n        /* \"#utility.yul\":4811:4815   */\n      0x32\n        /* \"#utility.yul\":4808:4809   */\n      0x04\n        /* \"#utility.yul\":4801:4816   */\n      mstore\n        /* \"#utility.yul\":4835:4839   */\n      0x24\n        /* \"#utility.yul\":4832:4833   */\n      0x00\n        /* \"#utility.yul\":4825:4840   */\n      revert\n        /* \"#utility.yul\":4852:5085   */\n    tag_64:\n        /* \"#utility.yul\":4891:4894   */\n      0x00\n        /* \"#utility.yul\":4914:4938   */\n      tag_140\n        /* \"#utility.yul\":4932:4937   */\n      dup3\n        /* \"#utility.yul\":4914:4938   */\n      tag_83\n      jump\t// in\n    tag_140:\n        /* \"#utility.yul\":4905:4938   */\n      swap2\n      pop\n        /* \"#utility.yul\":4960:5026   */\n      0xffffffffffffffffffffffffffffffffffffffffffffffffffffffffffffffff\n        /* \"#utility.yul\":4953:4958   */\n      dup3\n        /* \"#utility.yul\":4950:5027   */\n      sub\n        /* \"#utility.yul\":4947:5050   */\n      tag_141\n      jumpi\n        /* \"#utility.yul\":5030:5048   */\n      tag_142\n      tag_84\n      jump\t// in\n    tag_142:\n        /* \"#utility.yul\":4947:5050   */\n    tag_141:\n        /* \"#utility.yul\":5077:5078   */\n      0x01\n        /* \"#utility.yul\":5070:5075   */\n      dup3\n        /* \"#utility.yul\":5066:5079   */\n      add\n        /* \"#utility.yul\":5059:5079   */\n      swap1\n      pop\n        /* \"#utility.yul\":4852:5085   */\n      swap2\n      swap1\n      pop\n      jump\t// out\n        /* \"#utility.yul\":5091:5262   */\n    tag_66:\n        /* \"#utility.yul\":5130:5133   */\n      0x00\n        /* \"#utility.yul\":5153:5177   */\n      tag_144\n        /* \"#utility.yul\":5171:5176   */\n      dup3\n        /* \"#utility.yul\":5153:5177   */\n      tag_83\n      jump\t// in\n    tag_144:\n        /* \"#utility.yul\":5144:5177   */\n      swap2\n      pop\n        /* \"#utility.yul\":5199:5203   */\n      0x00\n        /* \"#utility.yul\":5192:5197   */\n      dup3\n        /* \"#utility.yul\":5189:5204   */\n      sub\n        /* \"#utility.yul\":5186:5227   */\n      tag_145\n      jumpi\n        /* \"#utility.yul\":5207:5225   */\n      tag_146\n      tag_84\n      jump\t// in\n    tag_146:\n        /* \"#utility.yul\":5186:5227   */\n    tag_145:\n        /* \"#utility.yul\":5254:5255   */\n      0x01\n        /* \"#utility.yul\":5247:5252   */\n      dup3\n        /* \"#utility.yul\":5243:5256   */\n      sub\n        /* \"#utility.yul\":5236:5256   */\n      swap1\n      pop\n        /* \"#utility.yul\":5091:5262   */\n      swap2\n      swap1\n      pop\n      jump\t// out\n\n    auxdata: 0xa2646970667358221220f4cd5aab2af325a30d2bb0fe693d6bfecd8b7743d2df5db3ec97d49839a681e164736f6c634300081e0033\n}\n",
				"bytecode": {
					"linkReferences": {},
					"object": "6080604052348015600e575f5ffd5b5061074d8061001c5f395ff3fe608060405234801561000f575f5ffd5b506004361061003f575f3560e01c8063064767aa146100435780635729c21114610073578063c403b235146100a3575b5f5ffd5b61005d6004803603810190610058919061054c565b6100d3565b60405161006a91906105f3565b60405180910390f35b61008d6004803603810190610088919061054c565b6101ca565b60405161009a91906105f3565b60405180910390f35b6100bd60048036038101906100b8919061054c565b6102d4565b6040516100ca91906105f3565b60405180910390f35b60605f8290505f815190505f8167ffffffffffffffff8111156100f9576100f8610428565b5b6040519080825280601f01601f19166020018201604052801561012b5781602001600182028036833780820191505090505b5090505f5f90505b828110156101be57838160018561014a9190610649565b6101549190610649565b815181106101655761016461067c565b5b602001015160f81c60f81b8282815181106101835761018261067c565b5b60200101907effffffffffffffffffffffffffffffffffffffffffffffffffffffffffffff191690815f1a9053508080600101915050610133565b50809350505050919050565b60605f8290505f81519050600181116101e75783925050506102cf565b5f8167ffffffffffffffff81111561020257610201610428565b5b6040519080825280601f01601f1916602001820160405280156102345781602001600182028036833780820191505090505b5090505f5f90505b828110156102c75783816001856102539190610649565b61025d9190610649565b8151811061026e5761026d61067c565b5b602001015160f81c60f81b82828151811061028c5761028b61067c565b5b60200101907effffffffffffffffffffffffffffffffffffffffffffffffffffffffffffff191690815f1a905350808060010191505061023c565b508093505050505b919050565b60605f8290505f81519050600181116102f15783925050506103fa565b5f5f90505f6001836103039190610649565b90505b808210156103f2575f8483815181106103225761032161067c565b5b602001015160f81c60f81b90508482815181106103425761034161067c565b5b602001015160f81c60f81b8584815181106103605761035f61067c565b5b60200101907effffffffffffffffffffffffffffffffffffffffffffffffffffffffffffff191690815f1a905350808583815181106103a2576103a161067c565b5b60200101907effffffffffffffffffffffffffffffffffffffffffffffffffffffffffffff191690815f1a90535082806103db906106a9565b93505081806103e9906106f0565b92505050610306565b839450505050505b919050565b5f604051905090565b5f5ffd5b5f5ffd5b5f5ffd5b5f5ffd5b5f601f19601f8301169050919050565b7f4e487b71000000000000000000000000000000000000000000000000000000005f52604160045260245ffd5b61045e82610418565b810181811067ffffffffffffffff8211171561047d5761047c610428565b5b80604052505050565b5f61048f6103ff565b905061049b8282610455565b919050565b5f67ffffffffffffffff8211156104ba576104b9610428565b5b6104c382610418565b9050602081019050919050565b828183375f83830152505050565b5f6104f06104eb846104a0565b610486565b90508281526020810184848401111561050c5761050b610414565b5b6105178482856104d0565b509392505050565b5f82601f83011261053357610532610410565b5b81356105438482602086016104de565b91505092915050565b5f6020828403121561056157610560610408565b5b5f82013567ffffffffffffffff81111561057e5761057d61040c565b5b61058a8482850161051f565b91505092915050565b5f81519050919050565b5f82825260208201905092915050565b8281835e5f83830152505050565b5f6105c582610593565b6105cf818561059d565b93506105df8185602086016105ad565b6105e881610418565b840191505092915050565b5f6020820190508181035f83015261060b81846105bb565b905092915050565b5f819050919050565b7f4e487b71000000000000000000000000000000000000000000000000000000005f52601160045260245ffd5b5f61065382610613565b915061065e83610613565b92508282039050818111156106765761067561061c565b5b92915050565b7f4e487b71000000000000000000000000000000000000000000000000000000005f52603260045260245ffd5b5f6106b382610613565b91507fffffffffffffffffffffffffffffffffffffffffffffffffffffffffffffffff82036106e5576106e461061c565b5b600182019050919050565b5f6106fa82610613565b91505f820361070c5761070b61061c565b5b60018203905091905056fea2646970667358221220f4cd5aab2af325a30d2bb0fe693d6bfecd8b7743d2df5db3ec97d49839a681e164736f6c634300081e0033",
					"opcodes": "PUSH1 0x80 PUSH1 0x40 MSTORE CALLVALUE DUP1 ISZERO PUSH1 0xE JUMPI PUSH0 PUSH0 REVERT JUMPDEST POP PUSH2 0x74D DUP1 PUSH2 0x1C PUSH0 CODECOPY PUSH0 RETURN INVALID PUSH1 0x80 PUSH1 0x40 MSTORE CALLVALUE DUP1 ISZERO PUSH2 0xF JUMPI PUSH0 PUSH0 REVERT JUMPDEST POP PUSH1 0x4 CALLDATASIZE LT PUSH2 0x3F JUMPI PUSH0 CALLDATALOAD PUSH1 0xE0 SHR DUP1 PUSH4 0x64767AA EQ PUSH2 0x43 JUMPI DUP1 PUSH4 0x5729C211 EQ PUSH2 0x73 JUMPI DUP1 PUSH4 0xC403B235 EQ PUSH2 0xA3 JUMPI JUMPDEST PUSH0 PUSH0 REVERT JUMPDEST PUSH2 0x5D PUSH1 0x4 DUP1 CALLDATASIZE SUB DUP2 ADD SWAP1 PUSH2 0x58 SWAP2 SWAP1 PUSH2 0x54C JUMP JUMPDEST PUSH2 0xD3 JUMP JUMPDEST PUSH1 0x40 MLOAD PUSH2 0x6A SWAP2 SWAP1 PUSH2 0x5F3 JUMP JUMPDEST PUSH1 0x40 MLOAD DUP1 SWAP2 SUB SWAP1 RETURN JUMPDEST PUSH2 0x8D PUSH1 0x4 DUP1 CALLDATASIZE SUB DUP2 ADD SWAP1 PUSH2 0x88 SWAP2 SWAP1 PUSH2 0x54C JUMP JUMPDEST PUSH2 0x1CA JUMP JUMPDEST PUSH1 0x40 MLOAD PUSH2 0x9A SWAP2 SWAP1 PUSH2 0x5F3 JUMP JUMPDEST PUSH1 0x40 MLOAD DUP1 SWAP2 SUB SWAP1 RETURN JUMPDEST PUSH2 0xBD PUSH1 0x4 DUP1 CALLDATASIZE SUB DUP2 ADD SWAP1 PUSH2 0xB8 SWAP2 SWAP1 PUSH2 0x54C JUMP JUMPDEST PUSH2 0x2D4 JUMP JUMPDEST PUSH1 0x40 MLOAD PUSH2 0xCA SWAP2 SWAP1 PUSH2 0x5F3 JUMP JUMPDEST PUSH1 0x40 MLOAD DUP1 SWAP2 SUB SWAP1 RETURN JUMPDEST PUSH1 0x60 PUSH0 DUP3 SWAP1 POP PUSH0 DUP2 MLOAD SWAP1 POP PUSH0 DUP2 PUSH8 0xFFFFFFFFFFFFFFFF DUP2 GT ISZERO PUSH2 0xF9 JUMPI PUSH2 0xF8 PUSH2 0x428 JUMP JUMPDEST JUMPDEST PUSH1 0x40 MLOAD SWAP1 DUP1 DUP3 MSTORE DUP1 PUSH1 0x1F ADD PUSH1 0x1F NOT AND PUSH1 0x20 ADD DUP3 ADD PUSH1 0x40 MSTORE DUP1 ISZERO PUSH2 0x12B JUMPI DUP2 PUSH1 0x20 ADD PUSH1 0x1 DUP3 MUL DUP1 CALLDATASIZE DUP4 CALLDATACOPY DUP1 DUP3 ADD SWAP2 POP POP SWAP1 POP JUMPDEST POP SWAP1 POP PUSH0 PUSH0 SWAP1 POP JUMPDEST DUP3 DUP2 LT ISZERO PUSH2 0x1BE JUMPI DUP4 DUP2 PUSH1 0x1 DUP6 PUSH2 0x14A SWAP2 SWAP1 PUSH2 0x649 JUMP JUMPDEST PUSH2 0x154 SWAP2 SWAP1 PUSH2 0x649 JUMP JUMPDEST DUP2 MLOAD DUP2 LT PUSH2 0x165 JUMPI PUSH2 0x164 PUSH2 0x67C JUMP JUMPDEST JUMPDEST PUSH1 0x20 ADD ADD MLOAD PUSH1 0xF8 SHR PUSH1 0xF8 SHL DUP3 DUP3 DUP2 MLOAD DUP2 LT PUSH2 0x183 JUMPI PUSH2 0x182 PUSH2 0x67C JUMP JUMPDEST JUMPDEST PUSH1 0x20 ADD ADD SWAP1 PUSH31 0xFFFFFFFFFFFFFFFFFFFFFFFFFFFFFFFFFFFFFFFFFFFFFFFFFFFFFFFFFFFFFF NOT AND SWAP1 DUP2 PUSH0 BYTE SWAP1 MSTORE8 POP DUP1 DUP1 PUSH1 0x1 ADD SWAP2 POP POP PUSH2 0x133 JUMP JUMPDEST POP DUP1 SWAP4 POP POP POP POP SWAP2 SWAP1 POP JUMP JUMPDEST PUSH1 0x60 PUSH0 DUP3 SWAP1 POP PUSH0 DUP2 MLOAD SWAP1 POP PUSH1 0x1 DUP2 GT PUSH2 0x1E7 JUMPI DUP4 SWAP3 POP POP POP PUSH2 0x2CF JUMP JUMPDEST PUSH0 DUP2 PUSH8 0xFFFFFFFFFFFFFFFF DUP2 GT ISZERO PUSH2 0x202 JUMPI PUSH2 0x201 PUSH2 0x428 JUMP JUMPDEST JUMPDEST PUSH1 0x40 MLOAD SWAP1 DUP1 DUP3 MSTORE DUP1 PUSH1 0x1F ADD PUSH1 0x1F NOT AND PUSH1 0x20 ADD DUP3 ADD PUSH1 0x40 MSTORE DUP1 ISZERO PUSH2 0x234 JUMPI DUP2 PUSH1 0x20 ADD PUSH1 0x1 DUP3 MUL DUP1 CALLDATASIZE DUP4 CALLDATACOPY DUP1 DUP3 ADD SWAP2 POP POP SWAP1 POP JUMPDEST POP SWAP1 POP PUSH0 PUSH0 SWAP1 POP JUMPDEST DUP3 DUP2 LT ISZERO PUSH2 0x2C7 JUMPI DUP4 DUP2 PUSH1 0x1 DUP6 PUSH2 0x253 SWAP2 SWAP1 PUSH2 0x649 JUMP JUMPDEST PUSH2 0x25D SWAP2 SWAP1 PUSH2 0x649 JUMP JUMPDEST DUP2 MLOAD DUP2 LT PUSH2 0x26E JUMPI PUSH2 0x26D PUSH2 0x67C JUMP JUMPDEST JUMPDEST PUSH1 0x20 ADD ADD MLOAD PUSH1 0xF8 SHR PUSH1 0xF8 SHL DUP3 DUP3 DUP2 MLOAD DUP2 LT PUSH2 0x28C JUMPI PUSH2 0x28B PUSH2 0x67C JUMP JUMPDEST JUMPDEST PUSH1 0x20 ADD ADD SWAP1 PUSH31 0xFFFFFFFFFFFFFFFFFFFFFFFFFFFFFFFFFFFFFFFFFFFFFFFFFFFFFFFFFFFFFF NOT AND SWAP1 DUP2 PUSH0 BYTE SWAP1 MSTORE8 POP DUP1 DUP1 PUSH1 0x1 ADD SWAP2 POP POP PUSH2 0x23C JUMP JUMPDEST POP DUP1 SWAP4 POP POP POP POP JUMPDEST SWAP2 SWAP1 POP JUMP JUMPDEST PUSH1 0x60 PUSH0 DUP3 SWAP1 POP PUSH0 DUP2 MLOAD SWAP1 POP PUSH1 0x1 DUP2 GT PUSH2 0x2F1 JUMPI DUP4 SWAP3 POP POP POP PUSH2 0x3FA JUMP JUMPDEST PUSH0 PUSH0 SWAP1 POP PUSH0 PUSH1 0x1 DUP4 PUSH2 0x303 SWAP2 SWAP1 PUSH2 0x649 JUMP JUMPDEST SWAP1 POP JUMPDEST DUP1 DUP3 LT ISZERO PUSH2 0x3F2 JUMPI PUSH0 DUP5 DUP4 DUP2 MLOAD DUP2 LT PUSH2 0x322 JUMPI PUSH2 0x321 PUSH2 0x67C JUMP JUMPDEST JUMPDEST PUSH1 0x20 ADD ADD MLOAD PUSH1 0xF8 SHR PUSH1 0xF8 SHL SWAP1 POP DUP5 DUP3 DUP2 MLOAD DUP2 LT PUSH2 0x342 JUMPI PUSH2 0x341 PUSH2 0x67C JUMP JUMPDEST JUMPDEST PUSH1 0x20 ADD ADD MLOAD PUSH1 0xF8 SHR PUSH1 0xF8 SHL DUP6 DUP5 DUP2 MLOAD DUP2 LT PUSH2 0x360 JUMPI PUSH2 0x35F PUSH2 0x67C JUMP JUMPDEST JUMPDEST PUSH1 0x20 ADD ADD SWAP1 PUSH31 0xFFFFFFFFFFFFFFFFFFFFFFFFFFFFFFFFFFFFFFFFFFFFFFFFFFFFFFFFFFFFFF NOT AND SWAP1 DUP2 PUSH0 BYTE SWAP1 MSTORE8 POP DUP1 DUP6 DUP4 DUP2 MLOAD DUP2 LT PUSH2 0x3A2 JUMPI PUSH2 0x3A1 PUSH2 0x67C JUMP JUMPDEST JUMPDEST PUSH1 0x20 ADD ADD SWAP1 PUSH31 0xFFFFFFFFFFFFFFFFFFFFFFFFFFFFFFFFFFFFFFFFFFFFFFFFFFFFFFFFFFFFFF NOT AND SWAP1 DUP2 PUSH0 BYTE SWAP1 MSTORE8 POP DUP3 DUP1 PUSH2 0x3DB SWAP1 PUSH2 0x6A9 JUMP JUMPDEST SWAP4 POP POP DUP2 DUP1 PUSH2 0x3E9 SWAP1 PUSH2 0x6F0 JUMP JUMPDEST SWAP3 POP POP POP PUSH2 0x306 JUMP JUMPDEST DUP4 SWAP5 POP POP POP POP POP JUMPDEST SWAP2 SWAP1 POP JUMP JUMPDEST PUSH0 PUSH1 0x40 MLOAD SWAP1 POP SWAP1 JUMP JUMPDEST PUSH0 PUSH0 REVERT JUMPDEST PUSH0 PUSH0 REVERT JUMPDEST PUSH0 PUSH0 REVERT JUMPDEST PUSH0 PUSH0 REVERT JUMPDEST PUSH0 PUSH1 0x1F NOT PUSH1 0x1F DUP4 ADD AND SWAP1 POP SWAP2 SWAP1 POP JUMP JUMPDEST PUSH32 0x4E487B7100000000000000000000000000000000000000000000000000000000 PUSH0 MSTORE PUSH1 0x41 PUSH1 0x4 MSTORE PUSH1 0x24 PUSH0 REVERT JUMPDEST PUSH2 0x45E DUP3 PUSH2 0x418 JUMP JUMPDEST DUP2 ADD DUP2 DUP2 LT PUSH8 0xFFFFFFFFFFFFFFFF DUP3 GT OR ISZERO PUSH2 0x47D JUMPI PUSH2 0x47C PUSH2 0x428 JUMP JUMPDEST JUMPDEST DUP1 PUSH1 0x40 MSTORE POP POP POP JUMP JUMPDEST PUSH0 PUSH2 0x48F PUSH2 0x3FF JUMP JUMPDEST SWAP1 POP PUSH2 0x49B DUP3 DUP3 PUSH2 0x455 JUMP JUMPDEST SWAP2 SWAP1 POP JUMP JUMPDEST PUSH0 PUSH8 0xFFFFFFFFFFFFFFFF DUP3 GT ISZERO PUSH2 0x4BA JUMPI PUSH2 0x4B9 PUSH2 0x428 JUMP JUMPDEST JUMPDEST PUSH2 0x4C3 DUP3 PUSH2 0x418 JUMP JUMPDEST SWAP1 POP PUSH1 0x20 DUP2 ADD SWAP1 POP SWAP2 SWAP1 POP JUMP JUMPDEST DUP3 DUP2 DUP4 CALLDATACOPY PUSH0 DUP4 DUP4 ADD MSTORE POP POP POP JUMP JUMPDEST PUSH0 PUSH2 0x4F0 PUSH2 0x4EB DUP5 PUSH2 0x4A0 JUMP JUMPDEST PUSH2 0x486 JUMP JUMPDEST SWAP1 POP DUP3 DUP2 MSTORE PUSH1 0x20 DUP2 ADD DUP5 DUP5 DUP5 ADD GT ISZERO PUSH2 0x50C JUMPI PUSH2 0x50B PUSH2 0x414 JUMP JUMPDEST JUMPDEST PUSH2 0x517 DUP5 DUP3 DUP6 PUSH2 0x4D0 JUMP JUMPDEST POP SWAP4 SWAP3 POP POP POP JUMP JUMPDEST PUSH0 DUP3 PUSH1 0x1F DUP4 ADD SLT PUSH2 0x533 JUMPI PUSH2 0x532 PUSH2 0x410 JUMP JUMPDEST JUMPDEST DUP2 CALLDATALOAD PUSH2 0x543 DUP5 DUP3 PUSH1 0x20 DUP7 ADD PUSH2 0x4DE JUMP JUMPDEST SWAP2 POP POP SWAP3 SWAP2 POP POP JUMP JUMPDEST PUSH0 PUSH1 0x20 DUP3 DUP5 SUB SLT ISZERO PUSH2 0x561 JUMPI PUSH2 0x560 PUSH2 0x408 JUMP JUMPDEST JUMPDEST PUSH0 DUP3 ADD CALLDATALOAD PUSH8 0xFFFFFFFFFFFFFFFF DUP2 GT ISZERO PUSH2 0x57E JUMPI PUSH2 0x57D PUSH2 0x40C JUMP JUMPDEST JUMPDEST PUSH2 0x58A DUP5 DUP3 DUP6 ADD PUSH2 0x51F JUMP JUMPDEST SWAP2 POP POP SWAP3 SWAP2 POP POP JUMP JUMPDEST PUSH0 DUP2 MLOAD SWAP1 POP SWAP2 SWAP1 POP JUMP JUMPDEST PUSH0 DUP3 DUP3 MSTORE PUSH1 0x20 DUP3 ADD SWAP1 POP SWAP3 SWAP2 POP POP JUMP JUMPDEST DUP3 DUP2 DUP4 MCOPY PUSH0 DUP4 DUP4 ADD MSTORE POP POP POP JUMP JUMPDEST PUSH0 PUSH2 0x5C5 DUP3 PUSH2 0x593 JUMP JUMPDEST PUSH2 0x5CF DUP2 DUP6 PUSH2 0x59D JUMP JUMPDEST SWAP4 POP PUSH2 0x5DF DUP2 DUP6 PUSH1 0x20 DUP7 ADD PUSH2 0x5AD JUMP JUMPDEST PUSH2 0x5E8 DUP2 PUSH2 0x418 JUMP JUMPDEST DUP5 ADD SWAP2 POP POP SWAP3 SWAP2 POP POP JUMP JUMPDEST PUSH0 PUSH1 0x20 DUP3 ADD SWAP1 POP DUP2 DUP2 SUB PUSH0 DUP4 ADD MSTORE PUSH2 0x60B DUP2 DUP5 PUSH2 0x5BB JUMP JUMPDEST SWAP1 POP SWAP3 SWAP2 POP POP JUMP JUMPDEST PUSH0 DUP2 SWAP1 POP SWAP2 SWAP1 POP JUMP JUMPDEST PUSH32 0x4E487B7100000000000000000000000000000000000000000000000000000000 PUSH0 MSTORE PUSH1 0x11 PUSH1 0x4 MSTORE PUSH1 0x24 PUSH0 REVERT JUMPDEST PUSH0 PUSH2 0x653 DUP3 PUSH2 0x613 JUMP JUMPDEST SWAP2 POP PUSH2 0x65E DUP4 PUSH2 0x613 JUMP JUMPDEST SWAP3 POP DUP3 DUP3 SUB SWAP1 POP DUP2 DUP2 GT ISZERO PUSH2 0x676 JUMPI PUSH2 0x675 PUSH2 0x61C JUMP JUMPDEST JUMPDEST SWAP3 SWAP2 POP POP JUMP JUMPDEST PUSH32 0x4E487B7100000000000000000000000000000000000000000000000000000000 PUSH0 MSTORE PUSH1 0x32 PUSH1 0x4 MSTORE PUSH1 0x24 PUSH0 REVERT JUMPDEST PUSH0 PUSH2 0x6B3 DUP3 PUSH2 0x613 JUMP JUMPDEST SWAP2 POP PUSH32 0xFFFFFFFFFFFFFFFFFFFFFFFFFFFFFFFFFFFFFFFFFFFFFFFFFFFFFFFFFFFFFFFF DUP3 SUB PUSH2 0x6E5 JUMPI PUSH2 0x6E4 PUSH2 0x61C JUMP JUMPDEST JUMPDEST PUSH1 0x1 DUP3 ADD SWAP1 POP SWAP2 SWAP1 POP JUMP JUMPDEST PUSH0 PUSH2 0x6FA DUP3 PUSH2 0x613 JUMP JUMPDEST SWAP2 POP PUSH0 DUP3 SUB PUSH2 0x70C JUMPI PUSH2 0x70B PUSH2 0x61C JUMP JUMPDEST JUMPDEST PUSH1 0x1 DUP3 SUB SWAP1 POP SWAP2 SWAP1 POP JUMP INVALID LOG2 PUSH5 0x6970667358 0x22 SLT KECCAK256 DELEGATECALL 0xCD GAS 0xAB 0x2A RETURN 0x25 LOG3 0xD 0x2B 0xB0 INVALID PUSH10 0x3D6BFECD8B7743D2DF5D 0xB3 EOFCREATE 0x97 0xD4 SWAP9 CODECOPY 0xA6 DUP2 RJUMPI 0x6473 PUSH16 0x6C634300081E00330000000000000000 "
				},
				"gasEstimates": {
					"creation": {
						"codeDepositCost": "373800",
						"executionCost": "409",
						"totalCost": "374209"
					},
					"external": {
						"reverse(string)": "infinite",
						"reverseString(string)": "infinite",
						"reverseStringAlternative(string)": "infinite"
					}
				},
				"methodIdentifiers": {
					"reverse(string)": "064767aa",
					"reverseString(string)": "5729c211",
					"reverseStringAlternative(string)": "c403b235"
				}
			},
			"storageLayout": {
				"storage": [],
				"types": null
			},
			"userdoc": {
				"kind": "user",
				"methods": {},
				"version": 1
			}
		}
	}
}