{
	"contracts/Votting.sol": {
		"Votting": {
			"abi": [
				{
					"inputs": [],
					"stateMutability": "nonpayable",
					"type": "constructor"
				},
				{
					"inputs": [],
					"name": "getAllCandidates",
					"outputs": [
						{
							"internalType": "string[]",
							"name": "",
							"type": "string[]"
						}
					],
					"stateMutability": "view",
					"type": "function"
				},
				{
					"inputs": [
						{
							"internalType": "string",
							"name": "candidate",
							"type": "string"
						}
					],
					"name": "getVotes",
					"outputs": [
						{
							"internalType": "uint256",
							"name": "",
							"type": "uint256"
						}
					],
					"stateMutability": "view",
					"type": "function"
				},
				{
					"inputs": [],
					"name": "owner",
					"outputs": [
						{
							"internalType": "address",
							"name": "",
							"type": "address"
						}
					],
					"stateMutability": "view",
					"type": "function"
				},
				{
					"inputs": [],
					"name": "resetVotes",
					"outputs": [],
					"stateMutability": "nonpayable",
					"type": "function"
				},
				{
					"inputs": [
						{
							"internalType": "string",
							"name": "candidate",
							"type": "string"
						}
					],
					"name": "vote",
					"outputs": [],
					"stateMutability": "nonpayable",
					"type": "function"
				}
			],
			"devdoc": {
				"kind": "dev",
				"methods": {},
				"version": 1
			},
			"evm": {
				"assembly": "    /* \"contracts/Votting.sol\":58:1320  contract Votting {... */\n  mstore(0x40, 0x80)\n    /* \"contracts/Votting.sol\":369:418  constructor() {... */\n  callvalue\n  dup1\n  iszero\n  tag_1\n  jumpi\n  revert(0x00, 0x00)\ntag_1:\n  pop\n    /* \"contracts/Votting.sol\":401:411  msg.sender */\n  caller\n    /* \"contracts/Votting.sol\":393:398  owner */\n  0x03\n  0x00\n    /* \"contracts/Votting.sol\":393:411  owner = msg.sender */\n  0x0100\n  exp\n  dup2\n  sload\n  dup2\n  0xffffffffffffffffffffffffffffffffffffffff\n  mul\n  not\n  and\n  swap1\n  dup4\n  0xffffffffffffffffffffffffffffffffffffffff\n  and\n  mul\n  or\n  swap1\n  sstore\n  pop\n    /* \"contracts/Votting.sol\":58:1320  contract Votting {... */\n  dataSize(sub_0)\n  dup1\n  dataOffset(sub_0)\n  0x00\n  codecopy\n  0x00\n  return\nstop\n\nsub_0: assembly {\n        /* \"contracts/Votting.sol\":58:1320  contract Votting {... */\n      mstore(0x40, 0x80)\n      callvalue\n      dup1\n      iszero\n      tag_1\n      jumpi\n      revert(0x00, 0x00)\n    tag_1:\n      pop\n      jumpi(tag_2, lt(calldatasize, 0x04))\n      shr(0xe0, calldataload(0x00))\n      dup1\n      0x2e6997fe\n      eq\n      tag_3\n      jumpi\n      dup1\n      0x805265e5\n      eq\n      tag_4\n      jumpi\n      dup1\n      0x8da5cb5b\n      eq\n      tag_5\n      jumpi\n      dup1\n      0xb9830ff1\n      eq\n      tag_6\n      jumpi\n      dup1\n      0xfc36e15b\n      eq\n      tag_7\n      jumpi\n    tag_2:\n      revert(0x00, 0x00)\n        /* \"contracts/Votting.sol\":1218:1318  function getAllCandidates() public view returns (string[] memory) {... */\n    tag_3:\n      tag_8\n      tag_9\n      jump\t// in\n    tag_8:\n      mload(0x40)\n      tag_10\n      swap2\n      swap1\n      tag_11\n      jump\t// in\n    tag_10:\n      mload(0x40)\n      dup1\n      swap2\n      sub\n      swap1\n      return\n        /* \"contracts/Votting.sol\":742:855  function getVotes(string memory candidate) public view returns (uint256) {... */\n    tag_4:\n      tag_12\n      0x04\n      dup1\n      calldatasize\n      sub\n      dup2\n      add\n      swap1\n      tag_13\n      swap2\n      swap1\n      tag_14\n      jump\t// in\n    tag_13:\n      tag_15\n      jump\t// in\n    tag_12:\n      mload(0x40)\n      tag_16\n      swap2\n      swap1\n      tag_17\n      jump\t// in\n    tag_16:\n      mload(0x40)\n      dup1\n      swap2\n      sub\n      swap1\n      return\n        /* \"contracts/Votting.sol\":342:362  address public owner */\n    tag_5:\n      tag_18\n      tag_19\n      jump\t// in\n    tag_18:\n      mload(0x40)\n      tag_20\n      swap2\n      swap1\n      tag_21\n      jump\t// in\n    tag_20:\n      mload(0x40)\n      dup1\n      swap2\n      sub\n      swap1\n      return\n        /* \"contracts/Votting.sol\":923:1183  function resetVotes() public {... */\n    tag_6:\n      tag_22\n      tag_23\n      jump\t// in\n    tag_22:\n      stop\n        /* \"contracts/Votting.sol\":441:713  function vote(string memory candidate) public {... */\n    tag_7:\n      tag_24\n      0x04\n      dup1\n      calldatasize\n      sub\n      dup2\n      add\n      swap1\n      tag_25\n      swap2\n      swap1\n      tag_14\n      jump\t// in\n    tag_25:\n      tag_26\n      jump\t// in\n    tag_24:\n      stop\n        /* \"contracts/Votting.sol\":1218:1318  function getAllCandidates() public view returns (string[] memory) {... */\n    tag_9:\n        /* \"contracts/Votting.sol\":1267:1282  string[] memory */\n      0x60\n        /* \"contracts/Votting.sol\":1301:1311  candidates */\n      0x01\n        /* \"contracts/Votting.sol\":1294:1311  return candidates */\n      dup1\n      sload\n      dup1\n      0x20\n      mul\n      0x20\n      add\n      mload(0x40)\n      swap1\n      dup2\n      add\n      0x40\n      mstore\n      dup1\n      swap3\n      swap2\n      swap1\n      dup2\n      dup2\n      mstore\n      0x20\n      add\n      0x00\n      swap1\n    tag_28:\n      dup3\n      dup3\n      lt\n      iszero\n      tag_29\n      jumpi\n      dup4\n      dup3\n      swap1\n      0x00\n      mstore\n      keccak256(0x00, 0x20)\n      add\n      dup1\n      sload\n      tag_31\n      swap1\n      tag_32\n      jump\t// in\n    tag_31:\n      dup1\n      0x1f\n      add\n      0x20\n      dup1\n      swap2\n      div\n      mul\n      0x20\n      add\n      mload(0x40)\n      swap1\n      dup2\n      add\n      0x40\n      mstore\n      dup1\n      swap3\n      swap2\n      swap1\n      dup2\n      dup2\n      mstore\n      0x20\n      add\n      dup3\n      dup1\n      sload\n      tag_33\n      swap1\n      tag_32\n      jump\t// in\n    tag_33:\n      dup1\n      iszero\n      tag_34\n      jumpi\n      dup1\n      0x1f\n      lt\n      tag_35\n      jumpi\n      0x0100\n      dup1\n      dup4\n      sload\n      div\n      mul\n      dup4\n      mstore\n      swap2\n      0x20\n      add\n      swap2\n      jump(tag_34)\n    tag_35:\n      dup3\n      add\n      swap2\n      swap1\n      0x00\n      mstore\n      keccak256(0x00, 0x20)\n      swap1\n    tag_36:\n      dup2\n      sload\n      dup2\n      mstore\n      swap1\n      0x01\n      add\n      swap1\n      0x20\n      add\n      dup1\n      dup4\n      gt\n      tag_36\n      jumpi\n      dup3\n      swap1\n      sub\n      0x1f\n      and\n      dup3\n      add\n      swap2\n    tag_34:\n      pop\n      pop\n      pop\n      pop\n      pop\n      dup2\n      mstore\n      0x20\n      add\n      swap1\n      0x01\n      add\n      swap1\n      jump(tag_28)\n    tag_29:\n      pop\n      pop\n      pop\n      pop\n      swap1\n      pop\n        /* \"contracts/Votting.sol\":1218:1318  function getAllCandidates() public view returns (string[] memory) {... */\n      swap1\n      jump\t// out\n        /* \"contracts/Votting.sol\":742:855  function getVotes(string memory candidate) public view returns (uint256) {... */\n    tag_15:\n        /* \"contracts/Votting.sol\":806:813  uint256 */\n      0x00\n        /* \"contracts/Votting.sol\":832:837  votes */\n      0x00\n        /* \"contracts/Votting.sol\":838:847  candidate */\n      dup3\n        /* \"contracts/Votting.sol\":832:848  votes[candidate] */\n      mload(0x40)\n      tag_38\n      swap2\n      swap1\n      tag_39\n      jump\t// in\n    tag_38:\n      swap1\n      dup2\n      mstore\n      0x20\n      add\n      mload(0x40)\n      dup1\n      swap2\n      sub\n      swap1\n      keccak256\n      sload\n        /* \"contracts/Votting.sol\":825:848  return votes[candidate] */\n      swap1\n      pop\n        /* \"contracts/Votting.sol\":742:855  function getVotes(string memory candidate) public view returns (uint256) {... */\n      swap2\n      swap1\n      pop\n      jump\t// out\n        /* \"contracts/Votting.sol\":342:362  address public owner */\n    tag_19:\n      0x03\n      0x00\n      swap1\n      sload\n      swap1\n      0x0100\n      exp\n      swap1\n      div\n      0xffffffffffffffffffffffffffffffffffffffff\n      and\n      dup2\n      jump\t// out\n        /* \"contracts/Votting.sol\":923:1183  function resetVotes() public {... */\n    tag_23:\n        /* \"contracts/Votting.sol\":984:989  owner */\n      0x03\n      0x00\n      swap1\n      sload\n      swap1\n      0x0100\n      exp\n      swap1\n      div\n      0xffffffffffffffffffffffffffffffffffffffff\n      and\n        /* \"contracts/Votting.sol\":970:989  msg.sender == owner */\n      0xffffffffffffffffffffffffffffffffffffffff\n      and\n        /* \"contracts/Votting.sol\":970:980  msg.sender */\n      caller\n        /* \"contracts/Votting.sol\":970:989  msg.sender == owner */\n      0xffffffffffffffffffffffffffffffffffffffff\n      and\n      eq\n        /* \"contracts/Votting.sol\":962:1020  require(msg.sender == owner, \"Only owner can reset votes\") */\n      tag_41\n      jumpi\n      mload(0x40)\n      0x08c379a000000000000000000000000000000000000000000000000000000000\n      dup2\n      mstore\n      0x04\n      add\n      tag_42\n      swap1\n      tag_43\n      jump\t// in\n    tag_42:\n      mload(0x40)\n      dup1\n      swap2\n      sub\n      swap1\n      revert\n    tag_41:\n        /* \"contracts/Votting.sol\":1036:1045  uint256 i */\n      0x00\n        /* \"contracts/Votting.sol\":1048:1049  0 */\n      0x00\n        /* \"contracts/Votting.sol\":1036:1049  uint256 i = 0 */\n      swap1\n      pop\n        /* \"contracts/Votting.sol\":1031:1177  for (uint256 i = 0; i < candidates.length; i++) {... */\n    tag_44:\n        /* \"contracts/Votting.sol\":1055:1065  candidates */\n      0x01\n        /* \"contracts/Votting.sol\":1055:1072  candidates.length */\n      dup1\n      sload\n      swap1\n      pop\n        /* \"contracts/Votting.sol\":1051:1052  i */\n      dup2\n        /* \"contracts/Votting.sol\":1051:1072  i < candidates.length */\n      lt\n        /* \"contracts/Votting.sol\":1031:1177  for (uint256 i = 0; i < candidates.length; i++) {... */\n      iszero\n      tag_45\n      jumpi\n        /* \"contracts/Votting.sol\":1093:1116  string memory candidate */\n      0x00\n        /* \"contracts/Votting.sol\":1119:1129  candidates */\n      0x01\n        /* \"contracts/Votting.sol\":1130:1131  i */\n      dup3\n        /* \"contracts/Votting.sol\":1119:1132  candidates[i] */\n      dup2\n      sload\n      dup2\n      lt\n      tag_47\n      jumpi\n      tag_48\n      tag_49\n      jump\t// in\n    tag_48:\n    tag_47:\n      swap1\n      0x00\n      mstore\n      keccak256(0x00, 0x20)\n      add\n        /* \"contracts/Votting.sol\":1093:1132  string memory candidate = candidates[i] */\n      dup1\n      sload\n      tag_51\n      swap1\n      tag_32\n      jump\t// in\n    tag_51:\n      dup1\n      0x1f\n      add\n      0x20\n      dup1\n      swap2\n      div\n      mul\n      0x20\n      add\n      mload(0x40)\n      swap1\n      dup2\n      add\n      0x40\n      mstore\n      dup1\n      swap3\n      swap2\n      swap1\n      dup2\n      dup2\n      mstore\n      0x20\n      add\n      dup3\n      dup1\n      sload\n      tag_52\n      swap1\n      tag_32\n      jump\t// in\n    tag_52:\n      dup1\n      iszero\n      tag_53\n      jumpi\n      dup1\n      0x1f\n      lt\n      tag_54\n      jumpi\n      0x0100\n      dup1\n      dup4\n      sload\n      div\n      mul\n      dup4\n      mstore\n      swap2\n      0x20\n      add\n      swap2\n      jump(tag_53)\n    tag_54:\n      dup3\n      add\n      swap2\n      swap1\n      0x00\n      mstore\n      keccak256(0x00, 0x20)\n      swap1\n    tag_55:\n      dup2\n      sload\n      dup2\n      mstore\n      swap1\n      0x01\n      add\n      swap1\n      0x20\n      add\n      dup1\n      dup4\n      gt\n      tag_55\n      jumpi\n      dup3\n      swap1\n      sub\n      0x1f\n      and\n      dup3\n      add\n      swap2\n    tag_53:\n      pop\n      pop\n      pop\n      pop\n      pop\n      swap1\n      pop\n        /* \"contracts/Votting.sol\":1165:1166  0 */\n      0x00\n        /* \"contracts/Votting.sol\":1146:1151  votes */\n      0x00\n        /* \"contracts/Votting.sol\":1152:1161  candidate */\n      dup3\n        /* \"contracts/Votting.sol\":1146:1162  votes[candidate] */\n      mload(0x40)\n      tag_56\n      swap2\n      swap1\n      tag_39\n      jump\t// in\n    tag_56:\n      swap1\n      dup2\n      mstore\n      0x20\n      add\n      mload(0x40)\n      dup1\n      swap2\n      sub\n      swap1\n      keccak256\n        /* \"contracts/Votting.sol\":1146:1166  votes[candidate] = 0 */\n      dup2\n      swap1\n      sstore\n      pop\n        /* \"contracts/Votting.sol\":1079:1177  {... */\n      pop\n        /* \"contracts/Votting.sol\":1074:1077  i++ */\n      dup1\n      dup1\n      0x01\n      add\n      swap2\n      pop\n      pop\n        /* \"contracts/Votting.sol\":1031:1177  for (uint256 i = 0; i < candidates.length; i++) {... */\n      jump(tag_44)\n    tag_45:\n      pop\n        /* \"contracts/Votting.sol\":923:1183  function resetVotes() public {... */\n      jump\t// out\n        /* \"contracts/Votting.sol\":441:713  function vote(string memory candidate) public {... */\n    tag_26:\n        /* \"contracts/Votting.sol\":550:565  candidateExists */\n      0x02\n        /* \"contracts/Votting.sol\":566:575  candidate */\n      dup2\n        /* \"contracts/Votting.sol\":550:576  candidateExists[candidate] */\n      mload(0x40)\n      tag_58\n      swap2\n      swap1\n      tag_39\n      jump\t// in\n    tag_58:\n      swap1\n      dup2\n      mstore\n      0x20\n      add\n      mload(0x40)\n      dup1\n      swap2\n      sub\n      swap1\n      keccak256\n      0x00\n      swap1\n      sload\n      swap1\n      0x0100\n      exp\n      swap1\n      div\n      0xff\n      and\n        /* \"contracts/Votting.sol\":545:676  if (!candidateExists[candidate]) {... */\n      tag_59\n      jumpi\n        /* \"contracts/Votting.sol\":592:602  candidates */\n      0x01\n        /* \"contracts/Votting.sol\":608:617  candidate */\n      dup2\n        /* \"contracts/Votting.sol\":592:618  candidates.push(candidate) */\n      swap1\n      dup1\n      0x01\n      dup2\n      sload\n      add\n      dup1\n      dup3\n      sstore\n      dup1\n      swap2\n      pop\n      pop\n      0x01\n      swap1\n      sub\n      swap1\n      0x00\n      mstore\n      keccak256(0x00, 0x20)\n      add\n      0x00\n      swap1\n      swap2\n      swap1\n      swap2\n      swap1\n      swap2\n      pop\n      swap1\n      dup2\n      tag_61\n      swap2\n      swap1\n      tag_62\n      jump\t// in\n    tag_61:\n      pop\n        /* \"contracts/Votting.sol\":661:665  true */\n      0x01\n        /* \"contracts/Votting.sol\":632:647  candidateExists */\n      0x02\n        /* \"contracts/Votting.sol\":648:657  candidate */\n      dup3\n        /* \"contracts/Votting.sol\":632:658  candidateExists[candidate] */\n      mload(0x40)\n      tag_63\n      swap2\n      swap1\n      tag_39\n      jump\t// in\n    tag_63:\n      swap1\n      dup2\n      mstore\n      0x20\n      add\n      mload(0x40)\n      dup1\n      swap2\n      sub\n      swap1\n      keccak256\n      0x00\n        /* \"contracts/Votting.sol\":632:665  candidateExists[candidate] = true */\n      0x0100\n      exp\n      dup2\n      sload\n      dup2\n      0xff\n      mul\n      not\n      and\n      swap1\n      dup4\n      iszero\n      iszero\n      mul\n      or\n      swap1\n      sstore\n      pop\n        /* \"contracts/Votting.sol\":545:676  if (!candidateExists[candidate]) {... */\n    tag_59:\n        /* \"contracts/Votting.sol\":705:706  1 */\n      0x01\n        /* \"contracts/Votting.sol\":685:690  votes */\n      0x00\n        /* \"contracts/Votting.sol\":691:700  candidate */\n      dup3\n        /* \"contracts/Votting.sol\":685:701  votes[candidate] */\n      mload(0x40)\n      tag_64\n      swap2\n      swap1\n      tag_39\n      jump\t// in\n    tag_64:\n      swap1\n      dup2\n      mstore\n      0x20\n      add\n      mload(0x40)\n      dup1\n      swap2\n      sub\n      swap1\n      keccak256\n      0x00\n        /* \"contracts/Votting.sol\":685:706  votes[candidate] += 1 */\n      dup3\n      dup3\n      sload\n      tag_65\n      swap2\n      swap1\n      tag_66\n      jump\t// in\n    tag_65:\n      swap3\n      pop\n      pop\n      dup2\n      swap1\n      sstore\n      pop\n        /* \"contracts/Votting.sol\":441:713  function vote(string memory candidate) public {... */\n      pop\n      jump\t// out\n        /* \"#utility.yul\":7:131   */\n    tag_67:\n        /* \"#utility.yul\":84:90   */\n      0x00\n        /* \"#utility.yul\":118:123   */\n      dup2\n        /* \"#utility.yul\":112:124   */\n      mload\n        /* \"#utility.yul\":102:124   */\n      swap1\n      pop\n        /* \"#utility.yul\":7:131   */\n      swap2\n      swap1\n      pop\n      jump\t// out\n        /* \"#utility.yul\":137:331   */\n    tag_68:\n        /* \"#utility.yul\":246:257   */\n      0x00\n        /* \"#utility.yul\":280:286   */\n      dup3\n        /* \"#utility.yul\":275:278   */\n      dup3\n        /* \"#utility.yul\":268:287   */\n      mstore\n        /* \"#utility.yul\":320:324   */\n      0x20\n        /* \"#utility.yul\":315:318   */\n      dup3\n        /* \"#utility.yul\":311:325   */\n      add\n        /* \"#utility.yul\":296:325   */\n      swap1\n      pop\n        /* \"#utility.yul\":137:331   */\n      swap3\n      swap2\n      pop\n      pop\n      jump\t// out\n        /* \"#utility.yul\":337:479   */\n    tag_69:\n        /* \"#utility.yul\":414:418   */\n      0x00\n        /* \"#utility.yul\":437:440   */\n      dup2\n        /* \"#utility.yul\":429:440   */\n      swap1\n      pop\n        /* \"#utility.yul\":467:471   */\n      0x20\n        /* \"#utility.yul\":462:465   */\n      dup3\n        /* \"#utility.yul\":458:472   */\n      add\n        /* \"#utility.yul\":450:472   */\n      swap1\n      pop\n        /* \"#utility.yul\":337:479   */\n      swap2\n      swap1\n      pop\n      jump\t// out\n        /* \"#utility.yul\":485:584   */\n    tag_70:\n        /* \"#utility.yul\":537:543   */\n      0x00\n        /* \"#utility.yul\":571:576   */\n      dup2\n        /* \"#utility.yul\":565:577   */\n      mload\n        /* \"#utility.yul\":555:577   */\n      swap1\n      pop\n        /* \"#utility.yul\":485:584   */\n      swap2\n      swap1\n      pop\n      jump\t// out\n        /* \"#utility.yul\":590:749   */\n    tag_71:\n        /* \"#utility.yul\":664:675   */\n      0x00\n        /* \"#utility.yul\":698:704   */\n      dup3\n        /* \"#utility.yul\":693:696   */\n      dup3\n        /* \"#utility.yul\":686:705   */\n      mstore\n        /* \"#utility.yul\":738:742   */\n      0x20\n        /* \"#utility.yul\":733:736   */\n      dup3\n        /* \"#utility.yul\":729:743   */\n      add\n        /* \"#utility.yul\":714:743   */\n      swap1\n      pop\n        /* \"#utility.yul\":590:749   */\n      swap3\n      swap2\n      pop\n      pop\n      jump\t// out\n        /* \"#utility.yul\":755:894   */\n    tag_72:\n        /* \"#utility.yul\":844:850   */\n      dup3\n        /* \"#utility.yul\":839:842   */\n      dup2\n        /* \"#utility.yul\":834:837   */\n      dup4\n        /* \"#utility.yul\":828:851   */\n      mcopy\n        /* \"#utility.yul\":885:886   */\n      0x00\n        /* \"#utility.yul\":876:882   */\n      dup4\n        /* \"#utility.yul\":871:874   */\n      dup4\n        /* \"#utility.yul\":867:883   */\n      add\n        /* \"#utility.yul\":860:887   */\n      mstore\n        /* \"#utility.yul\":755:894   */\n      pop\n      pop\n      pop\n      jump\t// out\n        /* \"#utility.yul\":900:1002   */\n    tag_73:\n        /* \"#utility.yul\":941:947   */\n      0x00\n        /* \"#utility.yul\":992:994   */\n      0x1f\n        /* \"#utility.yul\":988:995   */\n      not\n        /* \"#utility.yul\":983:985   */\n      0x1f\n        /* \"#utility.yul\":976:981   */\n      dup4\n        /* \"#utility.yul\":972:986   */\n      add\n        /* \"#utility.yul\":968:996   */\n      and\n        /* \"#utility.yul\":958:996   */\n      swap1\n      pop\n        /* \"#utility.yul\":900:1002   */\n      swap2\n      swap1\n      pop\n      jump\t// out\n        /* \"#utility.yul\":1008:1365   */\n    tag_74:\n        /* \"#utility.yul\":1086:1089   */\n      0x00\n        /* \"#utility.yul\":1114:1153   */\n      tag_126\n        /* \"#utility.yul\":1147:1152   */\n      dup3\n        /* \"#utility.yul\":1114:1153   */\n      tag_70\n      jump\t// in\n    tag_126:\n        /* \"#utility.yul\":1169:1230   */\n      tag_127\n        /* \"#utility.yul\":1223:1229   */\n      dup2\n        /* \"#utility.yul\":1218:1221   */\n      dup6\n        /* \"#utility.yul\":1169:1230   */\n      tag_71\n      jump\t// in\n    tag_127:\n        /* \"#utility.yul\":1162:1230   */\n      swap4\n      pop\n        /* \"#utility.yul\":1239:1304   */\n      tag_128\n        /* \"#utility.yul\":1297:1303   */\n      dup2\n        /* \"#utility.yul\":1292:1295   */\n      dup6\n        /* \"#utility.yul\":1285:1289   */\n      0x20\n        /* \"#utility.yul\":1278:1283   */\n      dup7\n        /* \"#utility.yul\":1274:1290   */\n      add\n        /* \"#utility.yul\":1239:1304   */\n      tag_72\n      jump\t// in\n    tag_128:\n        /* \"#utility.yul\":1329:1358   */\n      tag_129\n        /* \"#utility.yul\":1351:1357   */\n      dup2\n        /* \"#utility.yul\":1329:1358   */\n      tag_73\n      jump\t// in\n    tag_129:\n        /* \"#utility.yul\":1324:1327   */\n      dup5\n        /* \"#utility.yul\":1320:1359   */\n      add\n        /* \"#utility.yul\":1313:1359   */\n      swap2\n      pop\n        /* \"#utility.yul\":1090:1365   */\n      pop\n        /* \"#utility.yul\":1008:1365   */\n      swap3\n      swap2\n      pop\n      pop\n      jump\t// out\n        /* \"#utility.yul\":1371:1567   */\n    tag_75:\n        /* \"#utility.yul\":1460:1470   */\n      0x00\n        /* \"#utility.yul\":1495:1561   */\n      tag_131\n        /* \"#utility.yul\":1557:1560   */\n      dup4\n        /* \"#utility.yul\":1549:1555   */\n      dup4\n        /* \"#utility.yul\":1495:1561   */\n      tag_74\n      jump\t// in\n    tag_131:\n        /* \"#utility.yul\":1481:1561   */\n      swap1\n      pop\n        /* \"#utility.yul\":1371:1567   */\n      swap3\n      swap2\n      pop\n      pop\n      jump\t// out\n        /* \"#utility.yul\":1573:1696   */\n    tag_76:\n        /* \"#utility.yul\":1653:1657   */\n      0x00\n        /* \"#utility.yul\":1685:1689   */\n      0x20\n        /* \"#utility.yul\":1680:1683   */\n      dup3\n        /* \"#utility.yul\":1676:1690   */\n      add\n        /* \"#utility.yul\":1668:1690   */\n      swap1\n      pop\n        /* \"#utility.yul\":1573:1696   */\n      swap2\n      swap1\n      pop\n      jump\t// out\n        /* \"#utility.yul\":1730:2721   */\n    tag_77:\n        /* \"#utility.yul\":1869:1872   */\n      0x00\n        /* \"#utility.yul\":1898:1962   */\n      tag_134\n        /* \"#utility.yul\":1956:1961   */\n      dup3\n        /* \"#utility.yul\":1898:1962   */\n      tag_67\n      jump\t// in\n    tag_134:\n        /* \"#utility.yul\":1978:2074   */\n      tag_135\n        /* \"#utility.yul\":2067:2073   */\n      dup2\n        /* \"#utility.yul\":2062:2065   */\n      dup6\n        /* \"#utility.yul\":1978:2074   */\n      tag_68\n      jump\t// in\n    tag_135:\n        /* \"#utility.yul\":1971:2074   */\n      swap4\n      pop\n        /* \"#utility.yul\":2100:2103   */\n      dup4\n        /* \"#utility.yul\":2145:2149   */\n      0x20\n        /* \"#utility.yul\":2137:2143   */\n      dup3\n        /* \"#utility.yul\":2133:2150   */\n      mul\n        /* \"#utility.yul\":2128:2131   */\n      dup6\n        /* \"#utility.yul\":2124:2151   */\n      add\n        /* \"#utility.yul\":2175:2241   */\n      tag_136\n        /* \"#utility.yul\":2235:2240   */\n      dup6\n        /* \"#utility.yul\":2175:2241   */\n      tag_69\n      jump\t// in\n    tag_136:\n        /* \"#utility.yul\":2264:2271   */\n      dup1\n        /* \"#utility.yul\":2295:2296   */\n      0x00\n        /* \"#utility.yul\":2280:2676   */\n    tag_137:\n        /* \"#utility.yul\":2305:2311   */\n      dup6\n        /* \"#utility.yul\":2302:2303   */\n      dup2\n        /* \"#utility.yul\":2299:2312   */\n      lt\n        /* \"#utility.yul\":2280:2676   */\n      iszero\n      tag_139\n      jumpi\n        /* \"#utility.yul\":2376:2385   */\n      dup5\n        /* \"#utility.yul\":2370:2374   */\n      dup5\n        /* \"#utility.yul\":2366:2386   */\n      sub\n        /* \"#utility.yul\":2361:2364   */\n      dup10\n        /* \"#utility.yul\":2354:2387   */\n      mstore\n        /* \"#utility.yul\":2427:2433   */\n      dup2\n        /* \"#utility.yul\":2421:2434   */\n      mload\n        /* \"#utility.yul\":2455:2539   */\n      tag_140\n        /* \"#utility.yul\":2534:2538   */\n      dup6\n        /* \"#utility.yul\":2519:2532   */\n      dup3\n        /* \"#utility.yul\":2455:2539   */\n      tag_75\n      jump\t// in\n    tag_140:\n        /* \"#utility.yul\":2447:2539   */\n      swap5\n      pop\n        /* \"#utility.yul\":2562:2632   */\n      tag_141\n        /* \"#utility.yul\":2625:2631   */\n      dup4\n        /* \"#utility.yul\":2562:2632   */\n      tag_76\n      jump\t// in\n    tag_141:\n        /* \"#utility.yul\":2552:2632   */\n      swap3\n      pop\n        /* \"#utility.yul\":2661:2665   */\n      0x20\n        /* \"#utility.yul\":2656:2659   */\n      dup11\n        /* \"#utility.yul\":2652:2666   */\n      add\n        /* \"#utility.yul\":2645:2666   */\n      swap10\n      pop\n        /* \"#utility.yul\":2340:2676   */\n      pop\n        /* \"#utility.yul\":2327:2328   */\n      0x01\n        /* \"#utility.yul\":2324:2325   */\n      dup2\n        /* \"#utility.yul\":2320:2329   */\n      add\n        /* \"#utility.yul\":2315:2329   */\n      swap1\n      pop\n        /* \"#utility.yul\":2280:2676   */\n      jump(tag_137)\n    tag_139:\n        /* \"#utility.yul\":2284:2298   */\n      pop\n        /* \"#utility.yul\":2692:2696   */\n      dup3\n        /* \"#utility.yul\":2685:2696   */\n      swap8\n      pop\n        /* \"#utility.yul\":2712:2715   */\n      dup8\n        /* \"#utility.yul\":2705:2715   */\n      swap6\n      pop\n        /* \"#utility.yul\":1874:2721   */\n      pop\n      pop\n      pop\n      pop\n      pop\n        /* \"#utility.yul\":1730:2721   */\n      swap3\n      swap2\n      pop\n      pop\n      jump\t// out\n        /* \"#utility.yul\":2727:3140   */\n    tag_11:\n        /* \"#utility.yul\":2890:2894   */\n      0x00\n        /* \"#utility.yul\":2928:2930   */\n      0x20\n        /* \"#utility.yul\":2917:2926   */\n      dup3\n        /* \"#utility.yul\":2913:2931   */\n      add\n        /* \"#utility.yul\":2905:2931   */\n      swap1\n      pop\n        /* \"#utility.yul\":2977:2986   */\n      dup2\n        /* \"#utility.yul\":2971:2975   */\n      dup2\n        /* \"#utility.yul\":2967:2987   */\n      sub\n        /* \"#utility.yul\":2963:2964   */\n      0x00\n        /* \"#utility.yul\":2952:2961   */\n      dup4\n        /* \"#utility.yul\":2948:2965   */\n      add\n        /* \"#utility.yul\":2941:2988   */\n      mstore\n        /* \"#utility.yul\":3005:3133   */\n      tag_143\n        /* \"#utility.yul\":3128:3132   */\n      dup2\n        /* \"#utility.yul\":3119:3125   */\n      dup5\n        /* \"#utility.yul\":3005:3133   */\n      tag_77\n      jump\t// in\n    tag_143:\n        /* \"#utility.yul\":2997:3133   */\n      swap1\n      pop\n        /* \"#utility.yul\":2727:3140   */\n      swap3\n      swap2\n      pop\n      pop\n      jump\t// out\n        /* \"#utility.yul\":3146:3221   */\n    tag_78:\n        /* \"#utility.yul\":3179:3185   */\n      0x00\n        /* \"#utility.yul\":3212:3214   */\n      0x40\n        /* \"#utility.yul\":3206:3215   */\n      mload\n        /* \"#utility.yul\":3196:3215   */\n      swap1\n      pop\n        /* \"#utility.yul\":3146:3221   */\n      swap1\n      jump\t// out\n        /* \"#utility.yul\":3227:3344   */\n    tag_79:\n        /* \"#utility.yul\":3336:3337   */\n      0x00\n        /* \"#utility.yul\":3333:3334   */\n      0x00\n        /* \"#utility.yul\":3326:3338   */\n      revert\n        /* \"#utility.yul\":3350:3467   */\n    tag_80:\n        /* \"#utility.yul\":3459:3460   */\n      0x00\n        /* \"#utility.yul\":3456:3457   */\n      0x00\n        /* \"#utility.yul\":3449:3461   */\n      revert\n        /* \"#utility.yul\":3473:3590   */\n    tag_81:\n        /* \"#utility.yul\":3582:3583   */\n      0x00\n        /* \"#utility.yul\":3579:3580   */\n      0x00\n        /* \"#utility.yul\":3572:3584   */\n      revert\n        /* \"#utility.yul\":3596:3713   */\n    tag_82:\n        /* \"#utility.yul\":3705:3706   */\n      0x00\n        /* \"#utility.yul\":3702:3703   */\n      0x00\n        /* \"#utility.yul\":3695:3707   */\n      revert\n        /* \"#utility.yul\":3719:3899   */\n    tag_83:\n        /* \"#utility.yul\":3767:3844   */\n      0x4e487b7100000000000000000000000000000000000000000000000000000000\n        /* \"#utility.yul\":3764:3765   */\n      0x00\n        /* \"#utility.yul\":3757:3845   */\n      mstore\n        /* \"#utility.yul\":3864:3868   */\n      0x41\n        /* \"#utility.yul\":3861:3862   */\n      0x04\n        /* \"#utility.yul\":3854:3869   */\n      mstore\n        /* \"#utility.yul\":3888:3892   */\n      0x24\n        /* \"#utility.yul\":3885:3886   */\n      0x00\n        /* \"#utility.yul\":3878:3893   */\n      revert\n        /* \"#utility.yul\":3905:4186   */\n    tag_84:\n        /* \"#utility.yul\":3988:4015   */\n      tag_151\n        /* \"#utility.yul\":4010:4014   */\n      dup3\n        /* \"#utility.yul\":3988:4015   */\n      tag_73\n      jump\t// in\n    tag_151:\n        /* \"#utility.yul\":3980:3986   */\n      dup2\n        /* \"#utility.yul\":3976:4016   */\n      add\n        /* \"#utility.yul\":4118:4124   */\n      dup2\n        /* \"#utility.yul\":4106:4116   */\n      dup2\n        /* \"#utility.yul\":4103:4125   */\n      lt\n        /* \"#utility.yul\":4082:4100   */\n      0xffffffffffffffff\n        /* \"#utility.yul\":4070:4080   */\n      dup3\n        /* \"#utility.yul\":4067:4101   */\n      gt\n        /* \"#utility.yul\":4064:4126   */\n      or\n        /* \"#utility.yul\":4061:4149   */\n      iszero\n      tag_152\n      jumpi\n        /* \"#utility.yul\":4129:4147   */\n      tag_153\n      tag_83\n      jump\t// in\n    tag_153:\n        /* \"#utility.yul\":4061:4149   */\n    tag_152:\n        /* \"#utility.yul\":4169:4179   */\n      dup1\n        /* \"#utility.yul\":4165:4167   */\n      0x40\n        /* \"#utility.yul\":4158:4180   */\n      mstore\n        /* \"#utility.yul\":3948:4186   */\n      pop\n        /* \"#utility.yul\":3905:4186   */\n      pop\n      pop\n      jump\t// out\n        /* \"#utility.yul\":4192:4321   */\n    tag_85:\n        /* \"#utility.yul\":4226:4232   */\n      0x00\n        /* \"#utility.yul\":4253:4273   */\n      tag_155\n      tag_78\n      jump\t// in\n    tag_155:\n        /* \"#utility.yul\":4243:4273   */\n      swap1\n      pop\n        /* \"#utility.yul\":4282:4315   */\n      tag_156\n        /* \"#utility.yul\":4310:4314   */\n      dup3\n        /* \"#utility.yul\":4302:4308   */\n      dup3\n        /* \"#utility.yul\":4282:4315   */\n      tag_84\n      jump\t// in\n    tag_156:\n        /* \"#utility.yul\":4192:4321   */\n      swap2\n      swap1\n      pop\n      jump\t// out\n        /* \"#utility.yul\":4327:4635   */\n    tag_86:\n        /* \"#utility.yul\":4389:4393   */\n      0x00\n        /* \"#utility.yul\":4479:4497   */\n      0xffffffffffffffff\n        /* \"#utility.yul\":4471:4477   */\n      dup3\n        /* \"#utility.yul\":4468:4498   */\n      gt\n        /* \"#utility.yul\":4465:4521   */\n      iszero\n      tag_158\n      jumpi\n        /* \"#utility.yul\":4501:4519   */\n      tag_159\n      tag_83\n      jump\t// in\n    tag_159:\n        /* \"#utility.yul\":4465:4521   */\n    tag_158:\n        /* \"#utility.yul\":4539:4568   */\n      tag_160\n        /* \"#utility.yul\":4561:4567   */\n      dup3\n        /* \"#utility.yul\":4539:4568   */\n      tag_73\n      jump\t// in\n    tag_160:\n        /* \"#utility.yul\":4531:4568   */\n      swap1\n      pop\n        /* \"#utility.yul\":4623:4627   */\n      0x20\n        /* \"#utility.yul\":4617:4621   */\n      dup2\n        /* \"#utility.yul\":4613:4628   */\n      add\n        /* \"#utility.yul\":4605:4628   */\n      swap1\n      pop\n        /* \"#utility.yul\":4327:4635   */\n      swap2\n      swap1\n      pop\n      jump\t// out\n        /* \"#utility.yul\":4641:4789   */\n    tag_87:\n        /* \"#utility.yul\":4739:4745   */\n      dup3\n        /* \"#utility.yul\":4734:4737   */\n      dup2\n        /* \"#utility.yul\":4729:4732   */\n      dup4\n        /* \"#utility.yul\":4716:4746   */\n      calldatacopy\n        /* \"#utility.yul\":4780:4781   */\n      0x00\n        /* \"#utility.yul\":4771:4777   */\n      dup4\n        /* \"#utility.yul\":4766:4769   */\n      dup4\n        /* \"#utility.yul\":4762:4778   */\n      add\n        /* \"#utility.yul\":4755:4782   */\n      mstore\n        /* \"#utility.yul\":4641:4789   */\n      pop\n      pop\n      pop\n      jump\t// out\n        /* \"#utility.yul\":4795:5220   */\n    tag_88:\n        /* \"#utility.yul\":4873:4878   */\n      0x00\n        /* \"#utility.yul\":4898:4964   */\n      tag_163\n        /* \"#utility.yul\":4914:4963   */\n      tag_164\n        /* \"#utility.yul\":4956:4962   */\n      dup5\n        /* \"#utility.yul\":4914:4963   */\n      tag_86\n      jump\t// in\n    tag_164:\n        /* \"#utility.yul\":4898:4964   */\n      tag_85\n      jump\t// in\n    tag_163:\n        /* \"#utility.yul\":4889:4964   */\n      swap1\n      pop\n        /* \"#utility.yul\":4987:4993   */\n      dup3\n        /* \"#utility.yul\":4980:4985   */\n      dup2\n        /* \"#utility.yul\":4973:4994   */\n      mstore\n        /* \"#utility.yul\":5025:5029   */\n      0x20\n        /* \"#utility.yul\":5018:5023   */\n      dup2\n        /* \"#utility.yul\":5014:5030   */\n      add\n        /* \"#utility.yul\":5063:5066   */\n      dup5\n        /* \"#utility.yul\":5054:5060   */\n      dup5\n        /* \"#utility.yul\":5049:5052   */\n      dup5\n        /* \"#utility.yul\":5045:5061   */\n      add\n        /* \"#utility.yul\":5042:5067   */\n      gt\n        /* \"#utility.yul\":5039:5151   */\n      iszero\n      tag_165\n      jumpi\n        /* \"#utility.yul\":5070:5149   */\n      tag_166\n      tag_82\n      jump\t// in\n    tag_166:\n        /* \"#utility.yul\":5039:5151   */\n    tag_165:\n        /* \"#utility.yul\":5160:5214   */\n      tag_167\n        /* \"#utility.yul\":5207:5213   */\n      dup5\n        /* \"#utility.yul\":5202:5205   */\n      dup3\n        /* \"#utility.yul\":5197:5200   */\n      dup6\n        /* \"#utility.yul\":5160:5214   */\n      tag_87\n      jump\t// in\n    tag_167:\n        /* \"#utility.yul\":4879:5220   */\n      pop\n        /* \"#utility.yul\":4795:5220   */\n      swap4\n      swap3\n      pop\n      pop\n      pop\n      jump\t// out\n        /* \"#utility.yul\":5240:5580   */\n    tag_89:\n        /* \"#utility.yul\":5296:5301   */\n      0x00\n        /* \"#utility.yul\":5345:5348   */\n      dup3\n        /* \"#utility.yul\":5338:5342   */\n      0x1f\n        /* \"#utility.yul\":5330:5336   */\n      dup4\n        /* \"#utility.yul\":5326:5343   */\n      add\n        /* \"#utility.yul\":5322:5349   */\n      slt\n        /* \"#utility.yul\":5312:5434   */\n      tag_169\n      jumpi\n        /* \"#utility.yul\":5353:5432   */\n      tag_170\n      tag_81\n      jump\t// in\n    tag_170:\n        /* \"#utility.yul\":5312:5434   */\n    tag_169:\n        /* \"#utility.yul\":5470:5476   */\n      dup2\n        /* \"#utility.yul\":5457:5477   */\n      calldataload\n        /* \"#utility.yul\":5495:5574   */\n      tag_171\n        /* \"#utility.yul\":5570:5573   */\n      dup5\n        /* \"#utility.yul\":5562:5568   */\n      dup3\n        /* \"#utility.yul\":5555:5559   */\n      0x20\n        /* \"#utility.yul\":5547:5553   */\n      dup7\n        /* \"#utility.yul\":5543:5560   */\n      add\n        /* \"#utility.yul\":5495:5574   */\n      tag_88\n      jump\t// in\n    tag_171:\n        /* \"#utility.yul\":5486:5574   */\n      swap2\n      pop\n        /* \"#utility.yul\":5302:5580   */\n      pop\n        /* \"#utility.yul\":5240:5580   */\n      swap3\n      swap2\n      pop\n      pop\n      jump\t// out\n        /* \"#utility.yul\":5586:6095   */\n    tag_14:\n        /* \"#utility.yul\":5655:5661   */\n      0x00\n        /* \"#utility.yul\":5704:5706   */\n      0x20\n        /* \"#utility.yul\":5692:5701   */\n      dup3\n        /* \"#utility.yul\":5683:5690   */\n      dup5\n        /* \"#utility.yul\":5679:5702   */\n      sub\n        /* \"#utility.yul\":5675:5707   */\n      slt\n        /* \"#utility.yul\":5672:5791   */\n      iszero\n      tag_173\n      jumpi\n        /* \"#utility.yul\":5710:5789   */\n      tag_174\n      tag_79\n      jump\t// in\n    tag_174:\n        /* \"#utility.yul\":5672:5791   */\n    tag_173:\n        /* \"#utility.yul\":5858:5859   */\n      0x00\n        /* \"#utility.yul\":5847:5856   */\n      dup3\n        /* \"#utility.yul\":5843:5860   */\n      add\n        /* \"#utility.yul\":5830:5861   */\n      calldataload\n        /* \"#utility.yul\":5888:5906   */\n      0xffffffffffffffff\n        /* \"#utility.yul\":5880:5886   */\n      dup2\n        /* \"#utility.yul\":5877:5907   */\n      gt\n        /* \"#utility.yul\":5874:5991   */\n      iszero\n      tag_175\n      jumpi\n        /* \"#utility.yul\":5910:5989   */\n      tag_176\n      tag_80\n      jump\t// in\n    tag_176:\n        /* \"#utility.yul\":5874:5991   */\n    tag_175:\n        /* \"#utility.yul\":6015:6078   */\n      tag_177\n        /* \"#utility.yul\":6070:6077   */\n      dup5\n        /* \"#utility.yul\":6061:6067   */\n      dup3\n        /* \"#utility.yul\":6050:6059   */\n      dup6\n        /* \"#utility.yul\":6046:6068   */\n      add\n        /* \"#utility.yul\":6015:6078   */\n      tag_89\n      jump\t// in\n    tag_177:\n        /* \"#utility.yul\":6005:6078   */\n      swap2\n      pop\n        /* \"#utility.yul\":5801:6088   */\n      pop\n        /* \"#utility.yul\":5586:6095   */\n      swap3\n      swap2\n      pop\n      pop\n      jump\t// out\n        /* \"#utility.yul\":6101:6178   */\n    tag_90:\n        /* \"#utility.yul\":6138:6145   */\n      0x00\n        /* \"#utility.yul\":6167:6172   */\n      dup2\n        /* \"#utility.yul\":6156:6172   */\n      swap1\n      pop\n        /* \"#utility.yul\":6101:6178   */\n      swap2\n      swap1\n      pop\n      jump\t// out\n        /* \"#utility.yul\":6184:6302   */\n    tag_91:\n        /* \"#utility.yul\":6271:6295   */\n      tag_180\n        /* \"#utility.yul\":6289:6294   */\n      dup2\n        /* \"#utility.yul\":6271:6295   */\n      tag_90\n      jump\t// in\n    tag_180:\n        /* \"#utility.yul\":6266:6269   */\n      dup3\n        /* \"#utility.yul\":6259:6296   */\n      mstore\n        /* \"#utility.yul\":6184:6302   */\n      pop\n      pop\n      jump\t// out\n        /* \"#utility.yul\":6308:6530   */\n    tag_17:\n        /* \"#utility.yul\":6401:6405   */\n      0x00\n        /* \"#utility.yul\":6439:6441   */\n      0x20\n        /* \"#utility.yul\":6428:6437   */\n      dup3\n        /* \"#utility.yul\":6424:6442   */\n      add\n        /* \"#utility.yul\":6416:6442   */\n      swap1\n      pop\n        /* \"#utility.yul\":6452:6523   */\n      tag_182\n        /* \"#utility.yul\":6520:6521   */\n      0x00\n        /* \"#utility.yul\":6509:6518   */\n      dup4\n        /* \"#utility.yul\":6505:6522   */\n      add\n        /* \"#utility.yul\":6496:6502   */\n      dup5\n        /* \"#utility.yul\":6452:6523   */\n      tag_91\n      jump\t// in\n    tag_182:\n        /* \"#utility.yul\":6308:6530   */\n      swap3\n      swap2\n      pop\n      pop\n      jump\t// out\n        /* \"#utility.yul\":6536:6662   */\n    tag_92:\n        /* \"#utility.yul\":6573:6580   */\n      0x00\n        /* \"#utility.yul\":6613:6655   */\n      0xffffffffffffffffffffffffffffffffffffffff\n        /* \"#utility.yul\":6606:6611   */\n      dup3\n        /* \"#utility.yul\":6602:6656   */\n      and\n        /* \"#utility.yul\":6591:6656   */\n      swap1\n      pop\n        /* \"#utility.yul\":6536:6662   */\n      swap2\n      swap1\n      pop\n      jump\t// out\n        /* \"#utility.yul\":6668:6764   */\n    tag_93:\n        /* \"#utility.yul\":6705:6712   */\n      0x00\n        /* \"#utility.yul\":6734:6758   */\n      tag_185\n        /* \"#utility.yul\":6752:6757   */\n      dup3\n        /* \"#utility.yul\":6734:6758   */\n      tag_92\n      jump\t// in\n    tag_185:\n        /* \"#utility.yul\":6723:6758   */\n      swap1\n      pop\n        /* \"#utility.yul\":6668:6764   */\n      swap2\n      swap1\n      pop\n      jump\t// out\n        /* \"#utility.yul\":6770:6888   */\n    tag_94:\n        /* \"#utility.yul\":6857:6881   */\n      tag_187\n        /* \"#utility.yul\":6875:6880   */\n      dup2\n        /* \"#utility.yul\":6857:6881   */\n      tag_93\n      jump\t// in\n    tag_187:\n        /* \"#utility.yul\":6852:6855   */\n      dup3\n        /* \"#utility.yul\":6845:6882   */\n      mstore\n        /* \"#utility.yul\":6770:6888   */\n      pop\n      pop\n      jump\t// out\n        /* \"#utility.yul\":6894:7116   */\n    tag_21:\n        /* \"#utility.yul\":6987:6991   */\n      0x00\n        /* \"#utility.yul\":7025:7027   */\n      0x20\n        /* \"#utility.yul\":7014:7023   */\n      dup3\n        /* \"#utility.yul\":7010:7028   */\n      add\n        /* \"#utility.yul\":7002:7028   */\n      swap1\n      pop\n        /* \"#utility.yul\":7038:7109   */\n      tag_189\n        /* \"#utility.yul\":7106:7107   */\n      0x00\n        /* \"#utility.yul\":7095:7104   */\n      dup4\n        /* \"#utility.yul\":7091:7108   */\n      add\n        /* \"#utility.yul\":7082:7088   */\n      dup5\n        /* \"#utility.yul\":7038:7109   */\n      tag_94\n      jump\t// in\n    tag_189:\n        /* \"#utility.yul\":6894:7116   */\n      swap3\n      swap2\n      pop\n      pop\n      jump\t// out\n        /* \"#utility.yul\":7122:7302   */\n    tag_95:\n        /* \"#utility.yul\":7170:7247   */\n      0x4e487b7100000000000000000000000000000000000000000000000000000000\n        /* \"#utility.yul\":7167:7168   */\n      0x00\n        /* \"#utility.yul\":7160:7248   */\n      mstore\n        /* \"#utility.yul\":7267:7271   */\n      0x22\n        /* \"#utility.yul\":7264:7265   */\n      0x04\n        /* \"#utility.yul\":7257:7272   */\n      mstore\n        /* \"#utility.yul\":7291:7295   */\n      0x24\n        /* \"#utility.yul\":7288:7289   */\n      0x00\n        /* \"#utility.yul\":7281:7296   */\n      revert\n        /* \"#utility.yul\":7308:7628   */\n    tag_32:\n        /* \"#utility.yul\":7352:7358   */\n      0x00\n        /* \"#utility.yul\":7389:7390   */\n      0x02\n        /* \"#utility.yul\":7383:7387   */\n      dup3\n        /* \"#utility.yul\":7379:7391   */\n      div\n        /* \"#utility.yul\":7369:7391   */\n      swap1\n      pop\n        /* \"#utility.yul\":7436:7437   */\n      0x01\n        /* \"#utility.yul\":7430:7434   */\n      dup3\n        /* \"#utility.yul\":7426:7438   */\n      and\n        /* \"#utility.yul\":7457:7475   */\n      dup1\n        /* \"#utility.yul\":7447:7528   */\n      tag_192\n      jumpi\n        /* \"#utility.yul\":7513:7517   */\n      0x7f\n        /* \"#utility.yul\":7505:7511   */\n      dup3\n        /* \"#utility.yul\":7501:7518   */\n      and\n        /* \"#utility.yul\":7491:7518   */\n      swap2\n      pop\n        /* \"#utility.yul\":7447:7528   */\n    tag_192:\n        /* \"#utility.yul\":7575:7577   */\n      0x20\n        /* \"#utility.yul\":7567:7573   */\n      dup3\n        /* \"#utility.yul\":7564:7578   */\n      lt\n        /* \"#utility.yul\":7544:7562   */\n      dup2\n        /* \"#utility.yul\":7541:7579   */\n      sub\n        /* \"#utility.yul\":7538:7622   */\n      tag_193\n      jumpi\n        /* \"#utility.yul\":7594:7612   */\n      tag_194\n      tag_95\n      jump\t// in\n    tag_194:\n        /* \"#utility.yul\":7538:7622   */\n    tag_193:\n        /* \"#utility.yul\":7359:7628   */\n      pop\n        /* \"#utility.yul\":7308:7628   */\n      swap2\n      swap1\n      pop\n      jump\t// out\n        /* \"#utility.yul\":7634:7782   */\n    tag_96:\n        /* \"#utility.yul\":7736:7747   */\n      0x00\n        /* \"#utility.yul\":7773:7776   */\n      dup2\n        /* \"#utility.yul\":7758:7776   */\n      swap1\n      pop\n        /* \"#utility.yul\":7634:7782   */\n      swap3\n      swap2\n      pop\n      pop\n      jump\t// out\n        /* \"#utility.yul\":7788:8178   */\n    tag_97:\n        /* \"#utility.yul\":7894:7897   */\n      0x00\n        /* \"#utility.yul\":7922:7961   */\n      tag_197\n        /* \"#utility.yul\":7955:7960   */\n      dup3\n        /* \"#utility.yul\":7922:7961   */\n      tag_70\n      jump\t// in\n    tag_197:\n        /* \"#utility.yul\":7977:8066   */\n      tag_198\n        /* \"#utility.yul\":8059:8065   */\n      dup2\n        /* \"#utility.yul\":8054:8057   */\n      dup6\n        /* \"#utility.yul\":7977:8066   */\n      tag_96\n      jump\t// in\n    tag_198:\n        /* \"#utility.yul\":7970:8066   */\n      swap4\n      pop\n        /* \"#utility.yul\":8075:8140   */\n      tag_199\n        /* \"#utility.yul\":8133:8139   */\n      dup2\n        /* \"#utility.yul\":8128:8131   */\n      dup6\n        /* \"#utility.yul\":8121:8125   */\n      0x20\n        /* \"#utility.yul\":8114:8119   */\n      dup7\n        /* \"#utility.yul\":8110:8126   */\n      add\n        /* \"#utility.yul\":8075:8140   */\n      tag_72\n      jump\t// in\n    tag_199:\n        /* \"#utility.yul\":8165:8171   */\n      dup1\n        /* \"#utility.yul\":8160:8163   */\n      dup5\n        /* \"#utility.yul\":8156:8172   */\n      add\n        /* \"#utility.yul\":8149:8172   */\n      swap2\n      pop\n        /* \"#utility.yul\":7898:8178   */\n      pop\n        /* \"#utility.yul\":7788:8178   */\n      swap3\n      swap2\n      pop\n      pop\n      jump\t// out\n        /* \"#utility.yul\":8184:8459   */\n    tag_39:\n        /* \"#utility.yul\":8316:8319   */\n      0x00\n        /* \"#utility.yul\":8338:8433   */\n      tag_201\n        /* \"#utility.yul\":8429:8432   */\n      dup3\n        /* \"#utility.yul\":8420:8426   */\n      dup5\n        /* \"#utility.yul\":8338:8433   */\n      tag_97\n      jump\t// in\n    tag_201:\n        /* \"#utility.yul\":8331:8433   */\n      swap2\n      pop\n        /* \"#utility.yul\":8450:8453   */\n      dup2\n        /* \"#utility.yul\":8443:8453   */\n      swap1\n      pop\n        /* \"#utility.yul\":8184:8459   */\n      swap3\n      swap2\n      pop\n      pop\n      jump\t// out\n        /* \"#utility.yul\":8465:8634   */\n    tag_98:\n        /* \"#utility.yul\":8549:8560   */\n      0x00\n        /* \"#utility.yul\":8583:8589   */\n      dup3\n        /* \"#utility.yul\":8578:8581   */\n      dup3\n        /* \"#utility.yul\":8571:8590   */\n      mstore\n        /* \"#utility.yul\":8623:8627   */\n      0x20\n        /* \"#utility.yul\":8618:8621   */\n      dup3\n        /* \"#utility.yul\":8614:8628   */\n      add\n        /* \"#utility.yul\":8599:8628   */\n      swap1\n      pop\n        /* \"#utility.yul\":8465:8634   */\n      swap3\n      swap2\n      pop\n      pop\n      jump\t// out\n        /* \"#utility.yul\":8640:8816   */\n    tag_99:\n        /* \"#utility.yul\":8780:8808   */\n      0x4f6e6c79206f776e65722063616e20726573657420766f746573000000000000\n        /* \"#utility.yul\":8776:8777   */\n      0x00\n        /* \"#utility.yul\":8768:8774   */\n      dup3\n        /* \"#utility.yul\":8764:8778   */\n      add\n        /* \"#utility.yul\":8757:8809   */\n      mstore\n        /* \"#utility.yul\":8640:8816   */\n      pop\n      jump\t// out\n        /* \"#utility.yul\":8822:9188   */\n    tag_100:\n        /* \"#utility.yul\":8964:8967   */\n      0x00\n        /* \"#utility.yul\":8985:9052   */\n      tag_205\n        /* \"#utility.yul\":9049:9051   */\n      0x1a\n        /* \"#utility.yul\":9044:9047   */\n      dup4\n        /* \"#utility.yul\":8985:9052   */\n      tag_98\n      jump\t// in\n    tag_205:\n        /* \"#utility.yul\":8978:9052   */\n      swap2\n      pop\n        /* \"#utility.yul\":9061:9154   */\n      tag_206\n        /* \"#utility.yul\":9150:9153   */\n      dup3\n        /* \"#utility.yul\":9061:9154   */\n      tag_99\n      jump\t// in\n    tag_206:\n        /* \"#utility.yul\":9179:9181   */\n      0x20\n        /* \"#utility.yul\":9174:9177   */\n      dup3\n        /* \"#utility.yul\":9170:9182   */\n      add\n        /* \"#utility.yul\":9163:9182   */\n      swap1\n      pop\n        /* \"#utility.yul\":8822:9188   */\n      swap2\n      swap1\n      pop\n      jump\t// out\n        /* \"#utility.yul\":9194:9613   */\n    tag_43:\n        /* \"#utility.yul\":9360:9364   */\n      0x00\n        /* \"#utility.yul\":9398:9400   */\n      0x20\n        /* \"#utility.yul\":9387:9396   */\n      dup3\n        /* \"#utility.yul\":9383:9401   */\n      add\n        /* \"#utility.yul\":9375:9401   */\n      swap1\n      pop\n        /* \"#utility.yul\":9447:9456   */\n      dup2\n        /* \"#utility.yul\":9441:9445   */\n      dup2\n        /* \"#utility.yul\":9437:9457   */\n      sub\n        /* \"#utility.yul\":9433:9434   */\n      0x00\n        /* \"#utility.yul\":9422:9431   */\n      dup4\n        /* \"#utility.yul\":9418:9435   */\n      add\n        /* \"#utility.yul\":9411:9458   */\n      mstore\n        /* \"#utility.yul\":9475:9606   */\n      tag_208\n        /* \"#utility.yul\":9601:9605   */\n      dup2\n        /* \"#utility.yul\":9475:9606   */\n      tag_100\n      jump\t// in\n    tag_208:\n        /* \"#utility.yul\":9467:9606   */\n      swap1\n      pop\n        /* \"#utility.yul\":9194:9613   */\n      swap2\n      swap1\n      pop\n      jump\t// out\n        /* \"#utility.yul\":9619:9799   */\n    tag_49:\n        /* \"#utility.yul\":9667:9744   */\n      0x4e487b7100000000000000000000000000000000000000000000000000000000\n        /* \"#utility.yul\":9664:9665   */\n      0x00\n        /* \"#utility.yul\":9657:9745   */\n      mstore\n        /* \"#utility.yul\":9764:9768   */\n      0x32\n        /* \"#utility.yul\":9761:9762   */\n      0x04\n        /* \"#utility.yul\":9754:9769   */\n      mstore\n        /* \"#utility.yul\":9788:9792   */\n      0x24\n        /* \"#utility.yul\":9785:9786   */\n      0x00\n        /* \"#utility.yul\":9778:9793   */\n      revert\n        /* \"#utility.yul\":9805:9946   */\n    tag_101:\n        /* \"#utility.yul\":9854:9858   */\n      0x00\n        /* \"#utility.yul\":9877:9880   */\n      dup2\n        /* \"#utility.yul\":9869:9880   */\n      swap1\n      pop\n        /* \"#utility.yul\":9900:9903   */\n      dup2\n        /* \"#utility.yul\":9897:9898   */\n      0x00\n        /* \"#utility.yul\":9890:9904   */\n      mstore\n        /* \"#utility.yul\":9934:9938   */\n      0x20\n        /* \"#utility.yul\":9931:9932   */\n      0x00\n        /* \"#utility.yul\":9921:9939   */\n      keccak256\n        /* \"#utility.yul\":9913:9939   */\n      swap1\n      pop\n        /* \"#utility.yul\":9805:9946   */\n      swap2\n      swap1\n      pop\n      jump\t// out\n        /* \"#utility.yul\":9952:10045   */\n    tag_102:\n        /* \"#utility.yul\":9989:9995   */\n      0x00\n        /* \"#utility.yul\":10036:10038   */\n      0x20\n        /* \"#utility.yul\":10031:10033   */\n      0x1f\n        /* \"#utility.yul\":10024:10029   */\n      dup4\n        /* \"#utility.yul\":10020:10034   */\n      add\n        /* \"#utility.yul\":10016:10039   */\n      div\n        /* \"#utility.yul\":10006:10039   */\n      swap1\n      pop\n        /* \"#utility.yul\":9952:10045   */\n      swap2\n      swap1\n      pop\n      jump\t// out\n        /* \"#utility.yul\":10051:10158   */\n    tag_103:\n        /* \"#utility.yul\":10095:10103   */\n      0x00\n        /* \"#utility.yul\":10145:10150   */\n      dup3\n        /* \"#utility.yul\":10139:10143   */\n      dup3\n        /* \"#utility.yul\":10135:10151   */\n      shl\n        /* \"#utility.yul\":10114:10151   */\n      swap1\n      pop\n        /* \"#utility.yul\":10051:10158   */\n      swap3\n      swap2\n      pop\n      pop\n      jump\t// out\n        /* \"#utility.yul\":10164:10557   */\n    tag_104:\n        /* \"#utility.yul\":10233:10239   */\n      0x00\n        /* \"#utility.yul\":10283:10284   */\n      0x08\n        /* \"#utility.yul\":10271:10281   */\n      dup4\n        /* \"#utility.yul\":10267:10285   */\n      mul\n        /* \"#utility.yul\":10306:10403   */\n      tag_214\n        /* \"#utility.yul\":10336:10402   */\n      0xffffffffffffffffffffffffffffffffffffffffffffffffffffffffffffffff\n        /* \"#utility.yul\":10325:10334   */\n      dup3\n        /* \"#utility.yul\":10306:10403   */\n      tag_103\n      jump\t// in\n    tag_214:\n        /* \"#utility.yul\":10424:10463   */\n      tag_215\n        /* \"#utility.yul\":10454:10462   */\n      dup7\n        /* \"#utility.yul\":10443:10452   */\n      dup4\n        /* \"#utility.yul\":10424:10463   */\n      tag_103\n      jump\t// in\n    tag_215:\n        /* \"#utility.yul\":10412:10463   */\n      swap6\n      pop\n        /* \"#utility.yul\":10496:10500   */\n      dup1\n        /* \"#utility.yul\":10492:10501   */\n      not\n        /* \"#utility.yul\":10485:10490   */\n      dup5\n        /* \"#utility.yul\":10481:10502   */\n      and\n        /* \"#utility.yul\":10472:10502   */\n      swap4\n      pop\n        /* \"#utility.yul\":10545:10549   */\n      dup1\n        /* \"#utility.yul\":10535:10543   */\n      dup7\n        /* \"#utility.yul\":10531:10550   */\n      and\n        /* \"#utility.yul\":10524:10529   */\n      dup5\n        /* \"#utility.yul\":10521:10551   */\n      or\n        /* \"#utility.yul\":10511:10551   */\n      swap3\n      pop\n        /* \"#utility.yul\":10240:10557   */\n      pop\n      pop\n        /* \"#utility.yul\":10164:10557   */\n      swap4\n      swap3\n      pop\n      pop\n      pop\n      jump\t// out\n        /* \"#utility.yul\":10563:10623   */\n    tag_105:\n        /* \"#utility.yul\":10591:10594   */\n      0x00\n        /* \"#utility.yul\":10612:10617   */\n      dup2\n        /* \"#utility.yul\":10605:10617   */\n      swap1\n      pop\n        /* \"#utility.yul\":10563:10623   */\n      swap2\n      swap1\n      pop\n      jump\t// out\n        /* \"#utility.yul\":10629:10771   */\n    tag_106:\n        /* \"#utility.yul\":10679:10688   */\n      0x00\n        /* \"#utility.yul\":10712:10765   */\n      tag_218\n        /* \"#utility.yul\":10730:10764   */\n      tag_219\n        /* \"#utility.yul\":10739:10763   */\n      tag_220\n        /* \"#utility.yul\":10757:10762   */\n      dup5\n        /* \"#utility.yul\":10739:10763   */\n      tag_90\n      jump\t// in\n    tag_220:\n        /* \"#utility.yul\":10730:10764   */\n      tag_105\n      jump\t// in\n    tag_219:\n        /* \"#utility.yul\":10712:10765   */\n      tag_90\n      jump\t// in\n    tag_218:\n        /* \"#utility.yul\":10699:10765   */\n      swap1\n      pop\n        /* \"#utility.yul\":10629:10771   */\n      swap2\n      swap1\n      pop\n      jump\t// out\n        /* \"#utility.yul\":10777:10852   */\n    tag_107:\n        /* \"#utility.yul\":10820:10823   */\n      0x00\n        /* \"#utility.yul\":10841:10846   */\n      dup2\n        /* \"#utility.yul\":10834:10846   */\n      swap1\n      pop\n        /* \"#utility.yul\":10777:10852   */\n      swap2\n      swap1\n      pop\n      jump\t// out\n        /* \"#utility.yul\":10858:11127   */\n    tag_108:\n        /* \"#utility.yul\":10968:11007   */\n      tag_223\n        /* \"#utility.yul\":10999:11006   */\n      dup4\n        /* \"#utility.yul\":10968:11007   */\n      tag_106\n      jump\t// in\n    tag_223:\n        /* \"#utility.yul\":11029:11120   */\n      tag_224\n        /* \"#utility.yul\":11078:11119   */\n      tag_225\n        /* \"#utility.yul\":11102:11118   */\n      dup3\n        /* \"#utility.yul\":11078:11119   */\n      tag_107\n      jump\t// in\n    tag_225:\n        /* \"#utility.yul\":11070:11076   */\n      dup5\n        /* \"#utility.yul\":11063:11067   */\n      dup5\n        /* \"#utility.yul\":11057:11068   */\n      sload\n        /* \"#utility.yul\":11029:11120   */\n      tag_104\n      jump\t// in\n    tag_224:\n        /* \"#utility.yul\":11023:11027   */\n      dup3\n        /* \"#utility.yul\":11016:11121   */\n      sstore\n        /* \"#utility.yul\":10934:11127   */\n      pop\n        /* \"#utility.yul\":10858:11127   */\n      pop\n      pop\n      pop\n      jump\t// out\n        /* \"#utility.yul\":11133:11206   */\n    tag_109:\n        /* \"#utility.yul\":11178:11181   */\n      0x00\n        /* \"#utility.yul\":11199:11200   */\n      0x00\n        /* \"#utility.yul\":11192:11200   */\n      swap1\n      pop\n        /* \"#utility.yul\":11133:11206   */\n      swap1\n      jump\t// out\n        /* \"#utility.yul\":11212:11401   */\n    tag_110:\n        /* \"#utility.yul\":11289:11321   */\n      tag_228\n      tag_109\n      jump\t// in\n    tag_228:\n        /* \"#utility.yul\":11330:11395   */\n      tag_229\n        /* \"#utility.yul\":11388:11394   */\n      dup2\n        /* \"#utility.yul\":11380:11386   */\n      dup5\n        /* \"#utility.yul\":11374:11378   */\n      dup5\n        /* \"#utility.yul\":11330:11395   */\n      tag_108\n      jump\t// in\n    tag_229:\n        /* \"#utility.yul\":11265:11401   */\n      pop\n        /* \"#utility.yul\":11212:11401   */\n      pop\n      pop\n      jump\t// out\n        /* \"#utility.yul\":11407:11593   */\n    tag_111:\n        /* \"#utility.yul\":11467:11587   */\n    tag_231:\n        /* \"#utility.yul\":11484:11487   */\n      dup2\n        /* \"#utility.yul\":11477:11482   */\n      dup2\n        /* \"#utility.yul\":11474:11488   */\n      lt\n        /* \"#utility.yul\":11467:11587   */\n      iszero\n      tag_233\n      jumpi\n        /* \"#utility.yul\":11538:11577   */\n      tag_234\n        /* \"#utility.yul\":11575:11576   */\n      0x00\n        /* \"#utility.yul\":11568:11573   */\n      dup3\n        /* \"#utility.yul\":11538:11577   */\n      tag_110\n      jump\t// in\n    tag_234:\n        /* \"#utility.yul\":11511:11512   */\n      0x01\n        /* \"#utility.yul\":11504:11509   */\n      dup2\n        /* \"#utility.yul\":11500:11513   */\n      add\n        /* \"#utility.yul\":11491:11513   */\n      swap1\n      pop\n        /* \"#utility.yul\":11467:11587   */\n      jump(tag_231)\n    tag_233:\n        /* \"#utility.yul\":11407:11593   */\n      pop\n      pop\n      jump\t// out\n        /* \"#utility.yul\":11599:12142   */\n    tag_112:\n        /* \"#utility.yul\":11700:11702   */\n      0x1f\n        /* \"#utility.yul\":11695:11698   */\n      dup3\n        /* \"#utility.yul\":11692:11703   */\n      gt\n        /* \"#utility.yul\":11689:12135   */\n      iszero\n      tag_236\n      jumpi\n        /* \"#utility.yul\":11734:11772   */\n      tag_237\n        /* \"#utility.yul\":11766:11771   */\n      dup2\n        /* \"#utility.yul\":11734:11772   */\n      tag_101\n      jump\t// in\n    tag_237:\n        /* \"#utility.yul\":11818:11847   */\n      tag_238\n        /* \"#utility.yul\":11836:11846   */\n      dup5\n        /* \"#utility.yul\":11818:11847   */\n      tag_102\n      jump\t// in\n    tag_238:\n        /* \"#utility.yul\":11808:11816   */\n      dup2\n        /* \"#utility.yul\":11804:11848   */\n      add\n        /* \"#utility.yul\":12001:12003   */\n      0x20\n        /* \"#utility.yul\":11989:11999   */\n      dup6\n        /* \"#utility.yul\":11986:12004   */\n      lt\n        /* \"#utility.yul\":11983:12032   */\n      iszero\n      tag_239\n      jumpi\n        /* \"#utility.yul\":12022:12030   */\n      dup2\n        /* \"#utility.yul\":12007:12030   */\n      swap1\n      pop\n        /* \"#utility.yul\":11983:12032   */\n    tag_239:\n        /* \"#utility.yul\":12045:12125   */\n      tag_240\n        /* \"#utility.yul\":12101:12123   */\n      tag_241\n        /* \"#utility.yul\":12119:12122   */\n      dup6\n        /* \"#utility.yul\":12101:12123   */\n      tag_102\n      jump\t// in\n    tag_241:\n        /* \"#utility.yul\":12091:12099   */\n      dup4\n        /* \"#utility.yul\":12087:12124   */\n      add\n        /* \"#utility.yul\":12074:12085   */\n      dup3\n        /* \"#utility.yul\":12045:12125   */\n      tag_111\n      jump\t// in\n    tag_240:\n        /* \"#utility.yul\":11704:12135   */\n      pop\n      pop\n        /* \"#utility.yul\":11689:12135   */\n    tag_236:\n        /* \"#utility.yul\":11599:12142   */\n      pop\n      pop\n      pop\n      jump\t// out\n        /* \"#utility.yul\":12148:12265   */\n    tag_113:\n        /* \"#utility.yul\":12202:12210   */\n      0x00\n        /* \"#utility.yul\":12252:12257   */\n      dup3\n        /* \"#utility.yul\":12246:12250   */\n      dup3\n        /* \"#utility.yul\":12242:12258   */\n      shr\n        /* \"#utility.yul\":12221:12258   */\n      swap1\n      pop\n        /* \"#utility.yul\":12148:12265   */\n      swap3\n      swap2\n      pop\n      pop\n      jump\t// out\n        /* \"#utility.yul\":12271:12440   */\n    tag_114:\n        /* \"#utility.yul\":12315:12321   */\n      0x00\n        /* \"#utility.yul\":12348:12399   */\n      tag_244\n        /* \"#utility.yul\":12396:12397   */\n      0x00\n        /* \"#utility.yul\":12392:12398   */\n      not\n        /* \"#utility.yul\":12384:12389   */\n      dup5\n        /* \"#utility.yul\":12381:12382   */\n      0x08\n        /* \"#utility.yul\":12377:12390   */\n      mul\n        /* \"#utility.yul\":12348:12399   */\n      tag_113\n      jump\t// in\n    tag_244:\n        /* \"#utility.yul\":12344:12400   */\n      not\n        /* \"#utility.yul\":12429:12433   */\n      dup1\n        /* \"#utility.yul\":12423:12427   */\n      dup4\n        /* \"#utility.yul\":12419:12434   */\n      and\n        /* \"#utility.yul\":12409:12434   */\n      swap2\n      pop\n        /* \"#utility.yul\":12322:12440   */\n      pop\n        /* \"#utility.yul\":12271:12440   */\n      swap3\n      swap2\n      pop\n      pop\n      jump\t// out\n        /* \"#utility.yul\":12445:12740   */\n    tag_115:\n        /* \"#utility.yul\":12521:12525   */\n      0x00\n        /* \"#utility.yul\":12667:12696   */\n      tag_246\n        /* \"#utility.yul\":12692:12695   */\n      dup4\n        /* \"#utility.yul\":12686:12690   */\n      dup4\n        /* \"#utility.yul\":12667:12696   */\n      tag_114\n      jump\t// in\n    tag_246:\n        /* \"#utility.yul\":12659:12696   */\n      swap2\n      pop\n        /* \"#utility.yul\":12729:12732   */\n      dup3\n        /* \"#utility.yul\":12726:12727   */\n      0x02\n        /* \"#utility.yul\":12722:12733   */\n      mul\n        /* \"#utility.yul\":12716:12720   */\n      dup3\n        /* \"#utility.yul\":12713:12734   */\n      or\n        /* \"#utility.yul\":12705:12734   */\n      swap1\n      pop\n        /* \"#utility.yul\":12445:12740   */\n      swap3\n      swap2\n      pop\n      pop\n      jump\t// out\n        /* \"#utility.yul\":12745:14140   */\n    tag_62:\n        /* \"#utility.yul\":12862:12899   */\n      tag_248\n        /* \"#utility.yul\":12895:12898   */\n      dup3\n        /* \"#utility.yul\":12862:12899   */\n      tag_70\n      jump\t// in\n    tag_248:\n        /* \"#utility.yul\":12964:12982   */\n      0xffffffffffffffff\n        /* \"#utility.yul\":12956:12962   */\n      dup2\n        /* \"#utility.yul\":12953:12983   */\n      gt\n        /* \"#utility.yul\":12950:13006   */\n      iszero\n      tag_249\n      jumpi\n        /* \"#utility.yul\":12986:13004   */\n      tag_250\n      tag_83\n      jump\t// in\n    tag_250:\n        /* \"#utility.yul\":12950:13006   */\n    tag_249:\n        /* \"#utility.yul\":13030:13068   */\n      tag_251\n        /* \"#utility.yul\":13062:13066   */\n      dup3\n        /* \"#utility.yul\":13056:13067   */\n      sload\n        /* \"#utility.yul\":13030:13068   */\n      tag_32\n      jump\t// in\n    tag_251:\n        /* \"#utility.yul\":13115:13182   */\n      tag_252\n        /* \"#utility.yul\":13175:13181   */\n      dup3\n        /* \"#utility.yul\":13167:13173   */\n      dup3\n        /* \"#utility.yul\":13161:13165   */\n      dup6\n        /* \"#utility.yul\":13115:13182   */\n      tag_112\n      jump\t// in\n    tag_252:\n        /* \"#utility.yul\":13209:13210   */\n      0x00\n        /* \"#utility.yul\":13233:13237   */\n      0x20\n        /* \"#utility.yul\":13220:13237   */\n      swap1\n      pop\n        /* \"#utility.yul\":13265:13267   */\n      0x1f\n        /* \"#utility.yul\":13257:13263   */\n      dup4\n        /* \"#utility.yul\":13254:13268   */\n      gt\n        /* \"#utility.yul\":13282:13283   */\n      0x01\n        /* \"#utility.yul\":13277:13895   */\n      dup2\n      eq\n      tag_254\n      jumpi\n        /* \"#utility.yul\":13939:13940   */\n      0x00\n        /* \"#utility.yul\":13956:13962   */\n      dup5\n        /* \"#utility.yul\":13953:14030   */\n      iszero\n      tag_255\n      jumpi\n        /* \"#utility.yul\":14005:14014   */\n      dup3\n        /* \"#utility.yul\":14000:14003   */\n      dup8\n        /* \"#utility.yul\":13996:14015   */\n      add\n        /* \"#utility.yul\":13990:14016   */\n      mload\n        /* \"#utility.yul\":13981:14016   */\n      swap1\n      pop\n        /* \"#utility.yul\":13953:14030   */\n    tag_255:\n        /* \"#utility.yul\":14056:14123   */\n      tag_256\n        /* \"#utility.yul\":14116:14122   */\n      dup6\n        /* \"#utility.yul\":14109:14114   */\n      dup3\n        /* \"#utility.yul\":14056:14123   */\n      tag_115\n      jump\t// in\n    tag_256:\n        /* \"#utility.yul\":14050:14054   */\n      dup7\n        /* \"#utility.yul\":14043:14124   */\n      sstore\n        /* \"#utility.yul\":13912:14134   */\n      pop\n        /* \"#utility.yul\":13247:14134   */\n      jump(tag_253)\n        /* \"#utility.yul\":13277:13895   */\n    tag_254:\n        /* \"#utility.yul\":13329:13333   */\n      0x1f\n        /* \"#utility.yul\":13325:13334   */\n      not\n        /* \"#utility.yul\":13317:13323   */\n      dup5\n        /* \"#utility.yul\":13313:13335   */\n      and\n        /* \"#utility.yul\":13363:13400   */\n      tag_257\n        /* \"#utility.yul\":13395:13399   */\n      dup7\n        /* \"#utility.yul\":13363:13400   */\n      tag_101\n      jump\t// in\n    tag_257:\n        /* \"#utility.yul\":13422:13423   */\n      0x00\n        /* \"#utility.yul\":13436:13644   */\n    tag_258:\n        /* \"#utility.yul\":13450:13457   */\n      dup3\n        /* \"#utility.yul\":13447:13448   */\n      dup2\n        /* \"#utility.yul\":13444:13458   */\n      lt\n        /* \"#utility.yul\":13436:13644   */\n      iszero\n      tag_260\n      jumpi\n        /* \"#utility.yul\":13529:13538   */\n      dup5\n        /* \"#utility.yul\":13524:13527   */\n      dup10\n        /* \"#utility.yul\":13520:13539   */\n      add\n        /* \"#utility.yul\":13514:13540   */\n      mload\n        /* \"#utility.yul\":13506:13512   */\n      dup3\n        /* \"#utility.yul\":13499:13541   */\n      sstore\n        /* \"#utility.yul\":13580:13581   */\n      0x01\n        /* \"#utility.yul\":13572:13578   */\n      dup3\n        /* \"#utility.yul\":13568:13582   */\n      add\n        /* \"#utility.yul\":13558:13582   */\n      swap2\n      pop\n        /* \"#utility.yul\":13627:13629   */\n      0x20\n        /* \"#utility.yul\":13616:13625   */\n      dup6\n        /* \"#utility.yul\":13612:13630   */\n      add\n        /* \"#utility.yul\":13599:13630   */\n      swap5\n      pop\n        /* \"#utility.yul\":13473:13477   */\n      0x20\n        /* \"#utility.yul\":13470:13471   */\n      dup2\n        /* \"#utility.yul\":13466:13478   */\n      add\n        /* \"#utility.yul\":13461:13478   */\n      swap1\n      pop\n        /* \"#utility.yul\":13436:13644   */\n      jump(tag_258)\n    tag_260:\n        /* \"#utility.yul\":13672:13678   */\n      dup7\n        /* \"#utility.yul\":13663:13670   */\n      dup4\n        /* \"#utility.yul\":13660:13679   */\n      lt\n        /* \"#utility.yul\":13657:13836   */\n      iszero\n      tag_261\n      jumpi\n        /* \"#utility.yul\":13730:13739   */\n      dup5\n        /* \"#utility.yul\":13725:13728   */\n      dup10\n        /* \"#utility.yul\":13721:13740   */\n      add\n        /* \"#utility.yul\":13715:13741   */\n      mload\n        /* \"#utility.yul\":13773:13821   */\n      tag_262\n        /* \"#utility.yul\":13815:13819   */\n      0x1f\n        /* \"#utility.yul\":13807:13813   */\n      dup10\n        /* \"#utility.yul\":13803:13820   */\n      and\n        /* \"#utility.yul\":13792:13801   */\n      dup3\n        /* \"#utility.yul\":13773:13821   */\n      tag_114\n      jump\t// in\n    tag_262:\n        /* \"#utility.yul\":13765:13771   */\n      dup4\n        /* \"#utility.yul\":13758:13822   */\n      sstore\n        /* \"#utility.yul\":13680:13836   */\n      pop\n        /* \"#utility.yul\":13657:13836   */\n    tag_261:\n        /* \"#utility.yul\":13882:13883   */\n      0x01\n        /* \"#utility.yul\":13878:13879   */\n      0x02\n        /* \"#utility.yul\":13870:13876   */\n      dup9\n        /* \"#utility.yul\":13866:13880   */\n      mul\n        /* \"#utility.yul\":13862:13884   */\n      add\n        /* \"#utility.yul\":13856:13860   */\n      dup9\n        /* \"#utility.yul\":13849:13885   */\n      sstore\n        /* \"#utility.yul\":13284:13895   */\n      pop\n      pop\n      pop\n        /* \"#utility.yul\":13247:14134   */\n    tag_253:\n      pop\n        /* \"#utility.yul\":12837:14140   */\n      pop\n      pop\n      pop\n        /* \"#utility.yul\":12745:14140   */\n      pop\n      pop\n      jump\t// out\n        /* \"#utility.yul\":14146:14326   */\n    tag_116:\n        /* \"#utility.yul\":14194:14271   */\n      0x4e487b7100000000000000000000000000000000000000000000000000000000\n        /* \"#utility.yul\":14191:14192   */\n      0x00\n        /* \"#utility.yul\":14184:14272   */\n      mstore\n        /* \"#utility.yul\":14291:14295   */\n      0x11\n        /* \"#utility.yul\":14288:14289   */\n      0x04\n        /* \"#utility.yul\":14281:14296   */\n      mstore\n        /* \"#utility.yul\":14315:14319   */\n      0x24\n        /* \"#utility.yul\":14312:14313   */\n      0x00\n        /* \"#utility.yul\":14305:14320   */\n      revert\n        /* \"#utility.yul\":14332:14523   */\n    tag_66:\n        /* \"#utility.yul\":14372:14375   */\n      0x00\n        /* \"#utility.yul\":14391:14411   */\n      tag_265\n        /* \"#utility.yul\":14409:14410   */\n      dup3\n        /* \"#utility.yul\":14391:14411   */\n      tag_90\n      jump\t// in\n    tag_265:\n        /* \"#utility.yul\":14386:14411   */\n      swap2\n      pop\n        /* \"#utility.yul\":14425:14445   */\n      tag_266\n        /* \"#utility.yul\":14443:14444   */\n      dup4\n        /* \"#utility.yul\":14425:14445   */\n      tag_90\n      jump\t// in\n    tag_266:\n        /* \"#utility.yul\":14420:14445   */\n      swap3\n      pop\n        /* \"#utility.yul\":14468:14469   */\n      dup3\n        /* \"#utility.yul\":14465:14466   */\n      dup3\n        /* \"#utility.yul\":14461:14470   */\n      add\n        /* \"#utility.yul\":14454:14470   */\n      swap1\n      pop\n        /* \"#utility.yul\":14489:14492   */\n      dup1\n        /* \"#utility.yul\":14486:14487   */\n      dup3\n        /* \"#utility.yul\":14483:14493   */\n      gt\n        /* \"#utility.yul\":14480:14516   */\n      iszero\n      tag_267\n      jumpi\n        /* \"#utility.yul\":14496:14514   */\n      tag_268\n      tag_116\n      jump\t// in\n    tag_268:\n        /* \"#utility.yul\":14480:14516   */\n    tag_267:\n        /* \"#utility.yul\":14332:14523   */\n      swap3\n      swap2\n      pop\n      pop\n      jump\t// out\n\n    auxdata: 0xa2646970667358221220bc393e580f36ce33be624dc63cab4c52c79268687d110fd995a7810ab2474b1164736f6c634300081e0033\n}\n",
				"bytecode": {
					"linkReferences": {},
					"object": "6080604052348015600e575f5ffd5b503360035f6101000a81548173ffffffffffffffffffffffffffffffffffffffff021916908373ffffffffffffffffffffffffffffffffffffffff160217905550610c028061005c5f395ff3fe608060405234801561000f575f5ffd5b5060043610610055575f3560e01c80632e6997fe14610059578063805265e5146100775780638da5cb5b146100a7578063b9830ff1146100c5578063fc36e15b146100cf575b5f5ffd5b6100616100eb565b60405161006e919061057e565b60405180910390f35b610091600480360381019061008c91906106db565b6101bf565b60405161009e919061073a565b60405180910390f35b6100af6101e5565b6040516100bc9190610792565b60405180910390f35b6100cd61020a565b005b6100e960048036038101906100e491906106db565b610384565b005b60606001805480602002602001604051908101604052809291908181526020015f905b828210156101b6578382905f5260205f2001805461012b906107d8565b80601f0160208091040260200160405190810160405280929190818152602001828054610157906107d8565b80156101a25780601f10610179576101008083540402835291602001916101a2565b820191905f5260205f20905b81548152906001019060200180831161018557829003601f168201915b50505050508152602001906001019061010e565b50505050905090565b5f5f826040516101cf9190610842565b9081526020016040518091039020549050919050565b60035f9054906101000a900473ffffffffffffffffffffffffffffffffffffffff1681565b60035f9054906101000a900473ffffffffffffffffffffffffffffffffffffffff1673ffffffffffffffffffffffffffffffffffffffff163373ffffffffffffffffffffffffffffffffffffffff1614610299576040517f08c379a0000000000000000000000000000000000000000000000000000000008152600401610290906108b2565b60405180910390fd5b5f5f90505b600180549050811015610381575f600182815481106102c0576102bf6108d0565b5b905f5260205f200180546102d3906107d8565b80601f01602080910402602001604051908101604052809291908181526020018280546102ff906107d8565b801561034a5780601f106103215761010080835404028352916020019161034a565b820191905f5260205f20905b81548152906001019060200180831161032d57829003601f168201915b505050505090505f5f826040516103619190610842565b90815260200160405180910390208190555050808060010191505061029e565b50565b6002816040516103949190610842565b90815260200160405180910390205f9054906101000a900460ff1661041c57600181908060018154018082558091505060019003905f5260205f20015f9091909190915090816103e49190610a9d565b5060016002826040516103f79190610842565b90815260200160405180910390205f6101000a81548160ff0219169083151502179055505b60015f8260405161042d9190610842565b90815260200160405180910390205f8282546104499190610b99565b9250508190555050565b5f81519050919050565b5f82825260208201905092915050565b5f819050602082019050919050565b5f81519050919050565b5f82825260208201905092915050565b8281835e5f83830152505050565b5f601f19601f8301169050919050565b5f6104be8261047c565b6104c88185610486565b93506104d8818560208601610496565b6104e1816104a4565b840191505092915050565b5f6104f783836104b4565b905092915050565b5f602082019050919050565b5f61051582610453565b61051f818561045d565b9350836020820285016105318561046d565b805f5b8581101561056c578484038952815161054d85826104ec565b9450610558836104ff565b925060208a01995050600181019050610534565b50829750879550505050505092915050565b5f6020820190508181035f830152610596818461050b565b905092915050565b5f604051905090565b5f5ffd5b5f5ffd5b5f5ffd5b5f5ffd5b7f4e487b71000000000000000000000000000000000000000000000000000000005f52604160045260245ffd5b6105ed826104a4565b810181811067ffffffffffffffff8211171561060c5761060b6105b7565b5b80604052505050565b5f61061e61059e565b905061062a82826105e4565b919050565b5f67ffffffffffffffff821115610649576106486105b7565b5b610652826104a4565b9050602081019050919050565b828183375f83830152505050565b5f61067f61067a8461062f565b610615565b90508281526020810184848401111561069b5761069a6105b3565b5b6106a684828561065f565b509392505050565b5f82601f8301126106c2576106c16105af565b5b81356106d284826020860161066d565b91505092915050565b5f602082840312156106f0576106ef6105a7565b5b5f82013567ffffffffffffffff81111561070d5761070c6105ab565b5b610719848285016106ae565b91505092915050565b5f819050919050565b61073481610722565b82525050565b5f60208201905061074d5f83018461072b565b92915050565b5f73ffffffffffffffffffffffffffffffffffffffff82169050919050565b5f61077c82610753565b9050919050565b61078c81610772565b82525050565b5f6020820190506107a55f830184610783565b92915050565b7f4e487b71000000000000000000000000000000000000000000000000000000005f52602260045260245ffd5b5f60028204905060018216806107ef57607f821691505b602082108103610802576108016107ab565b5b50919050565b5f81905092915050565b5f61081c8261047c565b6108268185610808565b9350610836818560208601610496565b80840191505092915050565b5f61084d8284610812565b915081905092915050565b5f82825260208201905092915050565b7f4f6e6c79206f776e65722063616e20726573657420766f7465730000000000005f82015250565b5f61089c601a83610858565b91506108a782610868565b602082019050919050565b5f6020820190508181035f8301526108c981610890565b9050919050565b7f4e487b71000000000000000000000000000000000000000000000000000000005f52603260045260245ffd5b5f819050815f5260205f209050919050565b5f6020601f8301049050919050565b5f82821b905092915050565b5f600883026109597fffffffffffffffffffffffffffffffffffffffffffffffffffffffffffffffff8261091e565b610963868361091e565b95508019841693508086168417925050509392505050565b5f819050919050565b5f61099e61099961099484610722565b61097b565b610722565b9050919050565b5f819050919050565b6109b783610984565b6109cb6109c3826109a5565b84845461092a565b825550505050565b5f5f905090565b6109e26109d3565b6109ed8184846109ae565b505050565b5b81811015610a1057610a055f826109da565b6001810190506109f3565b5050565b601f821115610a5557610a26816108fd565b610a2f8461090f565b81016020851015610a3e578190505b610a52610a4a8561090f565b8301826109f2565b50505b505050565b5f82821c905092915050565b5f610a755f1984600802610a5a565b1980831691505092915050565b5f610a8d8383610a66565b9150826002028217905092915050565b610aa68261047c565b67ffffffffffffffff811115610abf57610abe6105b7565b5b610ac982546107d8565b610ad4828285610a14565b5f60209050601f831160018114610b05575f8415610af3578287015190505b610afd8582610a82565b865550610b64565b601f198416610b13866108fd565b5f5b82811015610b3a57848901518255600182019150602085019450602081019050610b15565b86831015610b575784890151610b53601f891682610a66565b8355505b6001600288020188555050505b505050505050565b7f4e487b71000000000000000000000000000000000000000000000000000000005f52601160045260245ffd5b5f610ba382610722565b9150610bae83610722565b9250828201905080821115610bc657610bc5610b6c565b5b9291505056fea2646970667358221220bc393e580f36ce33be624dc63cab4c52c79268687d110fd995a7810ab2474b1164736f6c634300081e0033",
					"opcodes": "PUSH1 0x80 PUSH1 0x40 MSTORE CALLVALUE DUP1 ISZERO PUSH1 0xE JUMPI PUSH0 PUSH0 REVERT JUMPDEST POP CALLER PUSH1 0x3 PUSH0 PUSH2 0x100 EXP DUP2 SLOAD DUP2 PUSH20 0xFFFFFFFFFFFFFFFFFFFFFFFFFFFFFFFFFFFFFFFF MUL NOT AND SWAP1 DUP4 PUSH20 0xFFFFFFFFFFFFFFFFFFFFFFFFFFFFFFFFFFFFFFFF AND MUL OR SWAP1 SSTORE POP PUSH2 0xC02 DUP1 PUSH2 0x5C PUSH0 CODECOPY PUSH0 RETURN INVALID PUSH1 0x80 PUSH1 0x40 MSTORE CALLVALUE DUP1 ISZERO PUSH2 0xF JUMPI PUSH0 PUSH0 REVERT JUMPDEST POP PUSH1 0x4 CALLDATASIZE LT PUSH2 0x55 JUMPI PUSH0 CALLDATALOAD PUSH1 0xE0 SHR DUP1 PUSH4 0x2E6997FE EQ PUSH2 0x59 JUMPI DUP1 PUSH4 0x805265E5 EQ PUSH2 0x77 JUMPI DUP1 PUSH4 0x8DA5CB5B EQ PUSH2 0xA7 JUMPI DUP1 PUSH4 0xB9830FF1 EQ PUSH2 0xC5 JUMPI DUP1 PUSH4 0xFC36E15B EQ PUSH2 0xCF JUMPI JUMPDEST PUSH0 PUSH0 REVERT JUMPDEST PUSH2 0x61 PUSH2 0xEB JUMP JUMPDEST PUSH1 0x40 MLOAD PUSH2 0x6E SWAP2 SWAP1 PUSH2 0x57E JUMP JUMPDEST PUSH1 0x40 MLOAD DUP1 SWAP2 SUB SWAP1 RETURN JUMPDEST PUSH2 0x91 PUSH1 0x4 DUP1 CALLDATASIZE SUB DUP2 ADD SWAP1 PUSH2 0x8C SWAP2 SWAP1 PUSH2 0x6DB JUMP JUMPDEST PUSH2 0x1BF JUMP JUMPDEST PUSH1 0x40 MLOAD PUSH2 0x9E SWAP2 SWAP1 PUSH2 0x73A JUMP JUMPDEST PUSH1 0x40 MLOAD DUP1 SWAP2 SUB SWAP1 RETURN JUMPDEST PUSH2 0xAF PUSH2 0x1E5 JUMP JUMPDEST PUSH1 0x40 MLOAD PUSH2 0xBC SWAP2 SWAP1 PUSH2 0x792 JUMP JUMPDEST PUSH1 0x40 MLOAD DUP1 SWAP2 SUB SWAP1 RETURN JUMPDEST PUSH2 0xCD PUSH2 0x20A JUMP JUMPDEST STOP JUMPDEST PUSH2 0xE9 PUSH1 0x4 DUP1 CALLDATASIZE SUB DUP2 ADD SWAP1 PUSH2 0xE4 SWAP2 SWAP1 PUSH2 0x6DB JUMP JUMPDEST PUSH2 0x384 JUMP JUMPDEST STOP JUMPDEST PUSH1 0x60 PUSH1 0x1 DUP1 SLOAD DUP1 PUSH1 0x20 MUL PUSH1 0x20 ADD PUSH1 0x40 MLOAD SWAP1 DUP2 ADD PUSH1 0x40 MSTORE DUP1 SWAP3 SWAP2 SWAP1 DUP2 DUP2 MSTORE PUSH1 0x20 ADD PUSH0 SWAP1 JUMPDEST DUP3 DUP3 LT ISZERO PUSH2 0x1B6 JUMPI DUP4 DUP3 SWAP1 PUSH0 MSTORE PUSH1 0x20 PUSH0 KECCAK256 ADD DUP1 SLOAD PUSH2 0x12B SWAP1 PUSH2 0x7D8 JUMP JUMPDEST DUP1 PUSH1 0x1F ADD PUSH1 0x20 DUP1 SWAP2 DIV MUL PUSH1 0x20 ADD PUSH1 0x40 MLOAD SWAP1 DUP2 ADD PUSH1 0x40 MSTORE DUP1 SWAP3 SWAP2 SWAP1 DUP2 DUP2 MSTORE PUSH1 0x20 ADD DUP3 DUP1 SLOAD PUSH2 0x157 SWAP1 PUSH2 0x7D8 JUMP JUMPDEST DUP1 ISZERO PUSH2 0x1A2 JUMPI DUP1 PUSH1 0x1F LT PUSH2 0x179 JUMPI PUSH2 0x100 DUP1 DUP4 SLOAD DIV MUL DUP4 MSTORE SWAP2 PUSH1 0x20 ADD SWAP2 PUSH2 0x1A2 JUMP JUMPDEST DUP3 ADD SWAP2 SWAP1 PUSH0 MSTORE PUSH1 0x20 PUSH0 KECCAK256 SWAP1 JUMPDEST DUP2 SLOAD DUP2 MSTORE SWAP1 PUSH1 0x1 ADD SWAP1 PUSH1 0x20 ADD DUP1 DUP4 GT PUSH2 0x185 JUMPI DUP3 SWAP1 SUB PUSH1 0x1F AND DUP3 ADD SWAP2 JUMPDEST POP POP POP POP POP DUP2 MSTORE PUSH1 0x20 ADD SWAP1 PUSH1 0x1 ADD SWAP1 PUSH2 0x10E JUMP JUMPDEST POP POP POP POP SWAP1 POP SWAP1 JUMP JUMPDEST PUSH0 PUSH0 DUP3 PUSH1 0x40 MLOAD PUSH2 0x1CF SWAP2 SWAP1 PUSH2 0x842 JUMP JUMPDEST SWAP1 DUP2 MSTORE PUSH1 0x20 ADD PUSH1 0x40 MLOAD DUP1 SWAP2 SUB SWAP1 KECCAK256 SLOAD SWAP1 POP SWAP2 SWAP1 POP JUMP JUMPDEST PUSH1 0x3 PUSH0 SWAP1 SLOAD SWAP1 PUSH2 0x100 EXP SWAP1 DIV PUSH20 0xFFFFFFFFFFFFFFFFFFFFFFFFFFFFFFFFFFFFFFFF AND DUP2 JUMP JUMPDEST PUSH1 0x3 PUSH0 SWAP1 SLOAD SWAP1 PUSH2 0x100 EXP SWAP1 DIV PUSH20 0xFFFFFFFFFFFFFFFFFFFFFFFFFFFFFFFFFFFFFFFF AND PUSH20 0xFFFFFFFFFFFFFFFFFFFFFFFFFFFFFFFFFFFFFFFF AND CALLER PUSH20 0xFFFFFFFFFFFFFFFFFFFFFFFFFFFFFFFFFFFFFFFF AND EQ PUSH2 0x299 JUMPI PUSH1 0x40 MLOAD PUSH32 0x8C379A000000000000000000000000000000000000000000000000000000000 DUP2 MSTORE PUSH1 0x4 ADD PUSH2 0x290 SWAP1 PUSH2 0x8B2 JUMP JUMPDEST PUSH1 0x40 MLOAD DUP1 SWAP2 SUB SWAP1 REVERT JUMPDEST PUSH0 PUSH0 SWAP1 POP JUMPDEST PUSH1 0x1 DUP1 SLOAD SWAP1 POP DUP2 LT ISZERO PUSH2 0x381 JUMPI PUSH0 PUSH1 0x1 DUP3 DUP2 SLOAD DUP2 LT PUSH2 0x2C0 JUMPI PUSH2 0x2BF PUSH2 0x8D0 JUMP JUMPDEST JUMPDEST SWAP1 PUSH0 MSTORE PUSH1 0x20 PUSH0 KECCAK256 ADD DUP1 SLOAD PUSH2 0x2D3 SWAP1 PUSH2 0x7D8 JUMP JUMPDEST DUP1 PUSH1 0x1F ADD PUSH1 0x20 DUP1 SWAP2 DIV MUL PUSH1 0x20 ADD PUSH1 0x40 MLOAD SWAP1 DUP2 ADD PUSH1 0x40 MSTORE DUP1 SWAP3 SWAP2 SWAP1 DUP2 DUP2 MSTORE PUSH1 0x20 ADD DUP3 DUP1 SLOAD PUSH2 0x2FF SWAP1 PUSH2 0x7D8 JUMP JUMPDEST DUP1 ISZERO PUSH2 0x34A JUMPI DUP1 PUSH1 0x1F LT PUSH2 0x321 JUMPI PUSH2 0x100 DUP1 DUP4 SLOAD DIV MUL DUP4 MSTORE SWAP2 PUSH1 0x20 ADD SWAP2 PUSH2 0x34A JUMP JUMPDEST DUP3 ADD SWAP2 SWAP1 PUSH0 MSTORE PUSH1 0x20 PUSH0 KECCAK256 SWAP1 JUMPDEST DUP2 SLOAD DUP2 MSTORE SWAP1 PUSH1 0x1 ADD SWAP1 PUSH1 0x20 ADD DUP1 DUP4 GT PUSH2 0x32D JUMPI DUP3 SWAP1 SUB PUSH1 0x1F AND DUP3 ADD SWAP2 JUMPDEST POP POP POP POP POP SWAP1 POP PUSH0 PUSH0 DUP3 PUSH1 0x40 MLOAD PUSH2 0x361 SWAP2 SWAP1 PUSH2 0x842 JUMP JUMPDEST SWAP1 DUP2 MSTORE PUSH1 0x20 ADD PUSH1 0x40 MLOAD DUP1 SWAP2 SUB SWAP1 KECCAK256 DUP2 SWAP1 SSTORE POP POP DUP1 DUP1 PUSH1 0x1 ADD SWAP2 POP POP PUSH2 0x29E JUMP JUMPDEST POP JUMP JUMPDEST PUSH1 0x2 DUP2 PUSH1 0x40 MLOAD PUSH2 0x394 SWAP2 SWAP1 PUSH2 0x842 JUMP JUMPDEST SWAP1 DUP2 MSTORE PUSH1 0x20 ADD PUSH1 0x40 MLOAD DUP1 SWAP2 SUB SWAP1 KECCAK256 PUSH0 SWAP1 SLOAD SWAP1 PUSH2 0x100 EXP SWAP1 DIV PUSH1 0xFF AND PUSH2 0x41C JUMPI PUSH1 0x1 DUP2 SWAP1 DUP1 PUSH1 0x1 DUP2 SLOAD ADD DUP1 DUP3 SSTORE DUP1 SWAP2 POP POP PUSH1 0x1 SWAP1 SUB SWAP1 PUSH0 MSTORE PUSH1 0x20 PUSH0 KECCAK256 ADD PUSH0 SWAP1 SWAP2 SWAP1 SWAP2 SWAP1 SWAP2 POP SWAP1 DUP2 PUSH2 0x3E4 SWAP2 SWAP1 PUSH2 0xA9D JUMP JUMPDEST POP PUSH1 0x1 PUSH1 0x2 DUP3 PUSH1 0x40 MLOAD PUSH2 0x3F7 SWAP2 SWAP1 PUSH2 0x842 JUMP JUMPDEST SWAP1 DUP2 MSTORE PUSH1 0x20 ADD PUSH1 0x40 MLOAD DUP1 SWAP2 SUB SWAP1 KECCAK256 PUSH0 PUSH2 0x100 EXP DUP2 SLOAD DUP2 PUSH1 0xFF MUL NOT AND SWAP1 DUP4 ISZERO ISZERO MUL OR SWAP1 SSTORE POP JUMPDEST PUSH1 0x1 PUSH0 DUP3 PUSH1 0x40 MLOAD PUSH2 0x42D SWAP2 SWAP1 PUSH2 0x842 JUMP JUMPDEST SWAP1 DUP2 MSTORE PUSH1 0x20 ADD PUSH1 0x40 MLOAD DUP1 SWAP2 SUB SWAP1 KECCAK256 PUSH0 DUP3 DUP3 SLOAD PUSH2 0x449 SWAP2 SWAP1 PUSH2 0xB99 JUMP JUMPDEST SWAP3 POP POP DUP2 SWAP1 SSTORE POP POP JUMP JUMPDEST PUSH0 DUP2 MLOAD SWAP1 POP SWAP2 SWAP1 POP JUMP JUMPDEST PUSH0 DUP3 DUP3 MSTORE PUSH1 0x20 DUP3 ADD SWAP1 POP SWAP3 SWAP2 POP POP JUMP JUMPDEST PUSH0 DUP2 SWAP1 POP PUSH1 0x20 DUP3 ADD SWAP1 POP SWAP2 SWAP1 POP JUMP JUMPDEST PUSH0 DUP2 MLOAD SWAP1 POP SWAP2 SWAP1 POP JUMP JUMPDEST PUSH0 DUP3 DUP3 MSTORE PUSH1 0x20 DUP3 ADD SWAP1 POP SWAP3 SWAP2 POP POP JUMP JUMPDEST DUP3 DUP2 DUP4 MCOPY PUSH0 DUP4 DUP4 ADD MSTORE POP POP POP JUMP JUMPDEST PUSH0 PUSH1 0x1F NOT PUSH1 0x1F DUP4 ADD AND SWAP1 POP SWAP2 SWAP1 POP JUMP JUMPDEST PUSH0 PUSH2 0x4BE DUP3 PUSH2 0x47C JUMP JUMPDEST PUSH2 0x4C8 DUP2 DUP6 PUSH2 0x486 JUMP JUMPDEST SWAP4 POP PUSH2 0x4D8 DUP2 DUP6 PUSH1 0x20 DUP7 ADD PUSH2 0x496 JUMP JUMPDEST PUSH2 0x4E1 DUP2 PUSH2 0x4A4 JUMP JUMPDEST DUP5 ADD SWAP2 POP POP SWAP3 SWAP2 POP POP JUMP JUMPDEST PUSH0 PUSH2 0x4F7 DUP4 DUP4 PUSH2 0x4B4 JUMP JUMPDEST SWAP1 POP SWAP3 SWAP2 POP POP JUMP JUMPDEST PUSH0 PUSH1 0x20 DUP3 ADD SWAP1 POP SWAP2 SWAP1 POP JUMP JUMPDEST PUSH0 PUSH2 0x515 DUP3 PUSH2 0x453 JUMP JUMPDEST PUSH2 0x51F DUP2 DUP6 PUSH2 0x45D JUMP JUMPDEST SWAP4 POP DUP4 PUSH1 0x20 DUP3 MUL DUP6 ADD PUSH2 0x531 DUP6 PUSH2 0x46D JUMP JUMPDEST DUP1 PUSH0 JUMPDEST DUP6 DUP2 LT ISZERO PUSH2 0x56C JUMPI DUP5 DUP5 SUB DUP10 MSTORE DUP2 MLOAD PUSH2 0x54D DUP6 DUP3 PUSH2 0x4EC JUMP JUMPDEST SWAP5 POP PUSH2 0x558 DUP4 PUSH2 0x4FF JUMP JUMPDEST SWAP3 POP PUSH1 0x20 DUP11 ADD SWAP10 POP POP PUSH1 0x1 DUP2 ADD SWAP1 POP PUSH2 0x534 JUMP JUMPDEST POP DUP3 SWAP8 POP DUP8 SWAP6 POP POP POP POP POP POP SWAP3 SWAP2 POP POP JUMP JUMPDEST PUSH0 PUSH1 0x20 DUP3 ADD SWAP1 POP DUP2 DUP2 SUB PUSH0 DUP4 ADD MSTORE PUSH2 0x596 DUP2 DUP5 PUSH2 0x50B JUMP JUMPDEST SWAP1 POP SWAP3 SWAP2 POP POP JUMP JUMPDEST PUSH0 PUSH1 0x40 MLOAD SWAP1 POP SWAP1 JUMP JUMPDEST PUSH0 PUSH0 REVERT JUMPDEST PUSH0 PUSH0 REVERT JUMPDEST PUSH0 PUSH0 REVERT JUMPDEST PUSH0 PUSH0 REVERT JUMPDEST PUSH32 0x4E487B7100000000000000000000000000000000000000000000000000000000 PUSH0 MSTORE PUSH1 0x41 PUSH1 0x4 MSTORE PUSH1 0x24 PUSH0 REVERT JUMPDEST PUSH2 0x5ED DUP3 PUSH2 0x4A4 JUMP JUMPDEST DUP2 ADD DUP2 DUP2 LT PUSH8 0xFFFFFFFFFFFFFFFF DUP3 GT OR ISZERO PUSH2 0x60C JUMPI PUSH2 0x60B PUSH2 0x5B7 JUMP JUMPDEST JUMPDEST DUP1 PUSH1 0x40 MSTORE POP POP POP JUMP JUMPDEST PUSH0 PUSH2 0x61E PUSH2 0x59E JUMP JUMPDEST SWAP1 POP PUSH2 0x62A DUP3 DUP3 PUSH2 0x5E4 JUMP JUMPDEST SWAP2 SWAP1 POP JUMP JUMPDEST PUSH0 PUSH8 0xFFFFFFFFFFFFFFFF DUP3 GT ISZERO PUSH2 0x649 JUMPI PUSH2 0x648 PUSH2 0x5B7 JUMP JUMPDEST JUMPDEST PUSH2 0x652 DUP3 PUSH2 0x4A4 JUMP JUMPDEST SWAP1 POP PUSH1 0x20 DUP2 ADD SWAP1 POP SWAP2 SWAP1 POP JUMP JUMPDEST DUP3 DUP2 DUP4 CALLDATACOPY PUSH0 DUP4 DUP4 ADD MSTORE POP POP POP JUMP JUMPDEST PUSH0 PUSH2 0x67F PUSH2 0x67A DUP5 PUSH2 0x62F JUMP JUMPDEST PUSH2 0x615 JUMP JUMPDEST SWAP1 POP DUP3 DUP2 MSTORE PUSH1 0x20 DUP2 ADD DUP5 DUP5 DUP5 ADD GT ISZERO PUSH2 0x69B JUMPI PUSH2 0x69A PUSH2 0x5B3 JUMP JUMPDEST JUMPDEST PUSH2 0x6A6 DUP5 DUP3 DUP6 PUSH2 0x65F JUMP JUMPDEST POP SWAP4 SWAP3 POP POP POP JUMP JUMPDEST PUSH0 DUP3 PUSH1 0x1F DUP4 ADD SLT PUSH2 0x6C2 JUMPI PUSH2 0x6C1 PUSH2 0x5AF JUMP JUMPDEST JUMPDEST DUP2 CALLDATALOAD PUSH2 0x6D2 DUP5 DUP3 PUSH1 0x20 DUP7 ADD PUSH2 0x66D JUMP JUMPDEST SWAP2 POP POP SWAP3 SWAP2 POP POP JUMP JUMPDEST PUSH0 PUSH1 0x20 DUP3 DUP5 SUB SLT ISZERO PUSH2 0x6F0 JUMPI PUSH2 0x6EF PUSH2 0x5A7 JUMP JUMPDEST JUMPDEST PUSH0 DUP3 ADD CALLDATALOAD PUSH8 0xFFFFFFFFFFFFFFFF DUP2 GT ISZERO PUSH2 0x70D JUMPI PUSH2 0x70C PUSH2 0x5AB JUMP JUMPDEST JUMPDEST PUSH2 0x719 DUP5 DUP3 DUP6 ADD PUSH2 0x6AE JUMP JUMPDEST SWAP2 POP POP SWAP3 SWAP2 POP POP JUMP JUMPDEST PUSH0 DUP2 SWAP1 POP SWAP2 SWAP1 POP JUMP JUMPDEST PUSH2 0x734 DUP2 PUSH2 0x722 JUMP JUMPDEST DUP3 MSTORE POP POP JUMP JUMPDEST PUSH0 PUSH1 0x20 DUP3 ADD SWAP1 POP PUSH2 0x74D PUSH0 DUP4 ADD DUP5 PUSH2 0x72B JUMP JUMPDEST SWAP3 SWAP2 POP POP JUMP JUMPDEST PUSH0 PUSH20 0xFFFFFFFFFFFFFFFFFFFFFFFFFFFFFFFFFFFFFFFF DUP3 AND SWAP1 POP SWAP2 SWAP1 POP JUMP JUMPDEST PUSH0 PUSH2 0x77C DUP3 PUSH2 0x753 JUMP JUMPDEST SWAP1 POP SWAP2 SWAP1 POP JUMP JUMPDEST PUSH2 0x78C DUP2 PUSH2 0x772 JUMP JUMPDEST DUP3 MSTORE POP POP JUMP JUMPDEST PUSH0 PUSH1 0x20 DUP3 ADD SWAP1 POP PUSH2 0x7A5 PUSH0 DUP4 ADD DUP5 PUSH2 0x783 JUMP JUMPDEST SWAP3 SWAP2 POP POP JUMP JUMPDEST PUSH32 0x4E487B7100000000000000000000000000000000000000000000000000000000 PUSH0 MSTORE PUSH1 0x22 PUSH1 0x4 MSTORE PUSH1 0x24 PUSH0 REVERT JUMPDEST PUSH0 PUSH1 0x2 DUP3 DIV SWAP1 POP PUSH1 0x1 DUP3 AND DUP1 PUSH2 0x7EF JUMPI PUSH1 0x7F DUP3 AND SWAP2 POP JUMPDEST PUSH1 0x20 DUP3 LT DUP2 SUB PUSH2 0x802 JUMPI PUSH2 0x801 PUSH2 0x7AB JUMP JUMPDEST JUMPDEST POP SWAP2 SWAP1 POP JUMP JUMPDEST PUSH0 DUP2 SWAP1 POP SWAP3 SWAP2 POP POP JUMP JUMPDEST PUSH0 PUSH2 0x81C DUP3 PUSH2 0x47C JUMP JUMPDEST PUSH2 0x826 DUP2 DUP6 PUSH2 0x808 JUMP JUMPDEST SWAP4 POP PUSH2 0x836 DUP2 DUP6 PUSH1 0x20 DUP7 ADD PUSH2 0x496 JUMP JUMPDEST DUP1 DUP5 ADD SWAP2 POP POP SWAP3 SWAP2 POP POP JUMP JUMPDEST PUSH0 PUSH2 0x84D DUP3 DUP5 PUSH2 0x812 JUMP JUMPDEST SWAP2 POP DUP2 SWAP1 POP SWAP3 SWAP2 POP POP JUMP JUMPDEST PUSH0 DUP3 DUP3 MSTORE PUSH1 0x20 DUP3 ADD SWAP1 POP SWAP3 SWAP2 POP POP JUMP JUMPDEST PUSH32 0x4F6E6C79206F776E65722063616E20726573657420766F746573000000000000 PUSH0 DUP3 ADD MSTORE POP JUMP JUMPDEST PUSH0 PUSH2 0x89C PUSH1 0x1A DUP4 PUSH2 0x858 JUMP JUMPDEST SWAP2 POP PUSH2 0x8A7 DUP3 PUSH2 0x868 JUMP JUMPDEST PUSH1 0x20 DUP3 ADD SWAP1 POP SWAP2 SWAP1 POP JUMP JUMPDEST PUSH0 PUSH1 0x20 DUP3 ADD SWAP1 POP DUP2 DUP2 SUB PUSH0 DUP4 ADD MSTORE PUSH2 0x8C9 DUP2 PUSH2 0x890 JUMP JUMPDEST SWAP1 POP SWAP2 SWAP1 POP JUMP JUMPDEST PUSH32 0x4E487B7100000000000000000000000000000000000000000000000000000000 PUSH0 MSTORE PUSH1 0x32 PUSH1 0x4 MSTORE PUSH1 0x24 PUSH0 REVERT JUMPDEST PUSH0 DUP2 SWAP1 POP DUP2 PUSH0 MSTORE PUSH1 0x20 PUSH0 KECCAK256 SWAP1 POP SWAP2 SWAP1 POP JUMP JUMPDEST PUSH0 PUSH1 0x20 PUSH1 0x1F DUP4 ADD DIV SWAP1 POP SWAP2 SWAP1 POP JUMP JUMPDEST PUSH0 DUP3 DUP3 SHL SWAP1 POP SWAP3 SWAP2 POP POP JUMP JUMPDEST PUSH0 PUSH1 0x8 DUP4 MUL PUSH2 0x959 PUSH32 0xFFFFFFFFFFFFFFFFFFFFFFFFFFFFFFFFFFFFFFFFFFFFFFFFFFFFFFFFFFFFFFFF DUP3 PUSH2 0x91E JUMP JUMPDEST PUSH2 0x963 DUP7 DUP4 PUSH2 0x91E JUMP JUMPDEST SWAP6 POP DUP1 NOT DUP5 AND SWAP4 POP DUP1 DUP7 AND DUP5 OR SWAP3 POP POP POP SWAP4 SWAP3 POP POP POP JUMP JUMPDEST PUSH0 DUP2 SWAP1 POP SWAP2 SWAP1 POP JUMP JUMPDEST PUSH0 PUSH2 0x99E PUSH2 0x999 PUSH2 0x994 DUP5 PUSH2 0x722 JUMP JUMPDEST PUSH2 0x97B JUMP JUMPDEST PUSH2 0x722 JUMP JUMPDEST SWAP1 POP SWAP2 SWAP1 POP JUMP JUMPDEST PUSH0 DUP2 SWAP1 POP SWAP2 SWAP1 POP JUMP JUMPDEST PUSH2 0x9B7 DUP4 PUSH2 0x984 JUMP JUMPDEST PUSH2 0x9CB PUSH2 0x9C3 DUP3 PUSH2 0x9A5 JUMP JUMPDEST DUP5 DUP5 SLOAD PUSH2 0x92A JUMP JUMPDEST DUP3 SSTORE POP POP POP POP JUMP JUMPDEST PUSH0 PUSH0 SWAP1 POP SWAP1 JUMP JUMPDEST PUSH2 0x9E2 PUSH2 0x9D3 JUMP JUMPDEST PUSH2 0x9ED DUP2 DUP5 DUP5 PUSH2 0x9AE JUMP JUMPDEST POP POP POP JUMP JUMPDEST JUMPDEST DUP2 DUP2 LT ISZERO PUSH2 0xA10 JUMPI PUSH2 0xA05 PUSH0 DUP3 PUSH2 0x9DA JUMP JUMPDEST PUSH1 0x1 DUP2 ADD SWAP1 POP PUSH2 0x9F3 JUMP JUMPDEST POP POP JUMP JUMPDEST PUSH1 0x1F DUP3 GT ISZERO PUSH2 0xA55 JUMPI PUSH2 0xA26 DUP2 PUSH2 0x8FD JUMP JUMPDEST PUSH2 0xA2F DUP5 PUSH2 0x90F JUMP JUMPDEST DUP2 ADD PUSH1 0x20 DUP6 LT ISZERO PUSH2 0xA3E JUMPI DUP2 SWAP1 POP JUMPDEST PUSH2 0xA52 PUSH2 0xA4A DUP6 PUSH2 0x90F JUMP JUMPDEST DUP4 ADD DUP3 PUSH2 0x9F2 JUMP JUMPDEST POP POP JUMPDEST POP POP POP JUMP JUMPDEST PUSH0 DUP3 DUP3 SHR SWAP1 POP SWAP3 SWAP2 POP POP JUMP JUMPDEST PUSH0 PUSH2 0xA75 PUSH0 NOT DUP5 PUSH1 0x8 MUL PUSH2 0xA5A JUMP JUMPDEST NOT DUP1 DUP4 AND SWAP2 POP POP SWAP3 SWAP2 POP POP JUMP JUMPDEST PUSH0 PUSH2 0xA8D DUP4 DUP4 PUSH2 0xA66 JUMP JUMPDEST SWAP2 POP DUP3 PUSH1 0x2 MUL DUP3 OR SWAP1 POP SWAP3 SWAP2 POP POP JUMP JUMPDEST PUSH2 0xAA6 DUP3 PUSH2 0x47C JUMP JUMPDEST PUSH8 0xFFFFFFFFFFFFFFFF DUP2 GT ISZERO PUSH2 0xABF JUMPI PUSH2 0xABE PUSH2 0x5B7 JUMP JUMPDEST JUMPDEST PUSH2 0xAC9 DUP3 SLOAD PUSH2 0x7D8 JUMP JUMPDEST PUSH2 0xAD4 DUP3 DUP3 DUP6 PUSH2 0xA14 JUMP JUMPDEST PUSH0 PUSH1 0x20 SWAP1 POP PUSH1 0x1F DUP4 GT PUSH1 0x1 DUP2 EQ PUSH2 0xB05 JUMPI PUSH0 DUP5 ISZERO PUSH2 0xAF3 JUMPI DUP3 DUP8 ADD MLOAD SWAP1 POP JUMPDEST PUSH2 0xAFD DUP6 DUP3 PUSH2 0xA82 JUMP JUMPDEST DUP7 SSTORE POP PUSH2 0xB64 JUMP JUMPDEST PUSH1 0x1F NOT DUP5 AND PUSH2 0xB13 DUP7 PUSH2 0x8FD JUMP JUMPDEST PUSH0 JUMPDEST DUP3 DUP2 LT ISZERO PUSH2 0xB3A JUMPI DUP5 DUP10 ADD MLOAD DUP3 SSTORE PUSH1 0x1 DUP3 ADD SWAP2 POP PUSH1 0x20 DUP6 ADD SWAP5 POP PUSH1 0x20 DUP2 ADD SWAP1 POP PUSH2 0xB15 JUMP JUMPDEST DUP7 DUP4 LT ISZERO PUSH2 0xB57 JUMPI DUP5 DUP10 ADD MLOAD PUSH2 0xB53 PUSH1 0x1F DUP10 AND DUP3 PUSH2 0xA66 JUMP JUMPDEST DUP4 SSTORE POP JUMPDEST PUSH1 0x1 PUSH1 0x2 DUP9 MUL ADD DUP9 SSTORE POP POP POP JUMPDEST POP POP POP POP POP POP JUMP JUMPDEST PUSH32 0x4E487B7100000000000000000000000000000000000000000000000000000000 PUSH0 MSTORE PUSH1 0x11 PUSH1 0x4 MSTORE PUSH1 0x24 PUSH0 REVERT JUMPDEST PUSH0 PUSH2 0xBA3 DUP3 PUSH2 0x722 JUMP JUMPDEST SWAP2 POP PUSH2 0xBAE DUP4 PUSH2 0x722 JUMP JUMPDEST SWAP3 POP DUP3 DUP3 ADD SWAP1 POP DUP1 DUP3 GT ISZERO PUSH2 0xBC6 JUMPI PUSH2 0xBC5 PUSH2 0xB6C JUMP JUMPDEST JUMPDEST SWAP3 SWAP2 POP POP JUMP INVALID LOG2 PUSH5 0x6970667358 0x22 SLT KECCAK256 0xBC CODECOPY RETURNDATACOPY PC 0xF CALLDATASIZE 0xCE CALLER 0xBE PUSH3 0x4DC63C 0xAB 0x4C MSTORE 0xC7 SWAP3 PUSH9 0x687D110FD995A7810A 0xB2 SELFBALANCE 0x4B GT PUSH5 0x736F6C6343 STOP ADDMOD 0x1E STOP CALLER "
				},
				"gasEstimates": {
					"creation": {
						"codeDepositCost": "614800",
						"executionCost": "24914",
						"totalCost": "639714"
					},
					"external": {
						"getAllCandidates()": "infinite",
						"getVotes(string)": "infinite",
						"owner()": "2530",
						"resetVotes()": "infinite",
						"vote(string)": "infinite"
					}
				},
				"methodIdentifiers": {
					"getAllCandidates()": "2e6997fe",
					"getVotes(string)": "805265e5",
					"owner()": "8da5cb5b",
					"resetVotes()": "b9830ff1",
					"vote(string)": "fc36e15b"
				}
			},
			"storageLayout": {
				"storage": [
					{
						"astId": 5,
						"contract": "contracts/Votting.sol:Votting",
						"label": "votes",
						"offset": 0,
						"slot": "0",
						"type": "t_mapping(t_string_memory_ptr,t_uint256)"
					},
					{
						"astId": 8,
						"contract": "contracts/Votting.sol:Votting",
						"label": "candidates",
						"offset": 0,
						"slot": "1",
						"type": "t_array(t_string_storage)dyn_storage"
					},
					{
						"astId": 12,
						"contract": "contracts/Votting.sol:Votting",
						"label": "candidateExists",
						"offset": 0,
						"slot": "2",
						"type": "t_mapping(t_string_memory_ptr,t_bool)"
					},
					{
						"astId": 14,
						"contract": "contracts/Votting.sol:Votting",
						"label": "owner",
						"offset": 0,
						"slot": "3",
						"type": "t_address"
					}
				],
				"types": {
					"t_address": {
						"encoding": "inplace",
						"label": "address",
						"numberOfBytes": "20"
					},
					"t_array(t_string_storage)dyn_storage": {
						"base": "t_string_storage",
						"encoding": "dynamic_array",
						"label": "string[]",
						"numberOfBytes": "32"
					},
					"t_bool": {
						"encoding": "inplace",
						"label": "bool",
						"numberOfBytes": "1"
					},
					"t_mapping(t_string_memory_ptr,t_bool)": {
						"encoding": "mapping",
						"key": "t_string_memory_ptr",
						"label": "mapping(string => bool)",
						"numberOfBytes": "32",
						"value": "t_bool"
					},
					"t_mapping(t_string_memory_ptr,t_uint256)": {
						"encoding": "mapping",
						"key": "t_string_memory_ptr",
						"label": "mapping(string => uint256)",
						"numberOfBytes": "32",
						"value": "t_uint256"
					},
					"t_string_memory_ptr": {
						"encoding": "bytes",
						"label": "string",
						"numberOfBytes": "32"
					},
					"t_string_storage": {
						"encoding": "bytes",
						"label": "string",
						"numberOfBytes": "32"
					},
					"t_uint256": {
						"encoding": "inplace",
						"label": "uint256",
						"numberOfBytes": "32"
					}
				}
			},
			"userdoc": {
				"kind": "user",
				"methods": {},
				"version": 1
			}
		}
	}
}