{
	"contracts/BankAccount.sol": {
		"BankAccount": {
			"abi": [
				{
					"anonymous": false,
					"inputs": [
						{
							"indexed": true,
							"internalType": "address",
							"name": "user",
							"type": "address"
						},
						{
							"indexed": false,
							"internalType": "uint256",
							"name": "amount",
							"type": "uint256"
						}
					],
					"name": "Deposit",
					"type": "event"
				},
				{
					"anonymous": false,
					"inputs": [
						{
							"indexed": true,
							"internalType": "address",
							"name": "from",
							"type": "address"
						},
						{
							"indexed": true,
							"internalType": "address",
							"name": "to",
							"type": "address"
						},
						{
							"indexed": false,
							"internalType": "uint256",
							"name": "amount",
							"type": "uint256"
						}
					],
					"name": "Transfer",
					"type": "event"
				},
				{
					"anonymous": false,
					"inputs": [
						{
							"indexed": true,
							"internalType": "address",
							"name": "user",
							"type": "address"
						},
						{
							"indexed": false,
							"internalType": "uint256",
							"name": "amount",
							"type": "uint256"
						}
					],
					"name": "Withdraw",
					"type": "event"
				},
				{
					"inputs": [
						{
							"internalType": "address",
							"name": "",
							"type": "address"
						}
					],
					"name": "balances",
					"outputs": [
						{
							"internalType": "uint256",
							"name": "",
							"type": "uint256"
						}
					],
					"stateMutability": "view",
					"type": "function"
				},
				{
					"inputs": [
						{
							"internalType": "address",
							"name": "user",
							"type": "address"
						},
						{
							"internalType": "uint256",
							"name": "rate",
							"type": "uint256"
						}
					],
					"name": "calculateInterest",
					"outputs": [
						{
							"internalType": "uint256",
							"name": "",
							"type": "uint256"
						}
					],
					"stateMutability": "view",
					"type": "function"
				},
				{
					"inputs": [],
					"name": "deposit",
					"outputs": [],
					"stateMutability": "payable",
					"type": "function"
				},
				{
					"inputs": [
						{
							"internalType": "address",
							"name": "to",
							"type": "address"
						},
						{
							"internalType": "uint256",
							"name": "amount",
							"type": "uint256"
						}
					],
					"name": "transfer",
					"outputs": [],
					"stateMutability": "nonpayable",
					"type": "function"
				},
				{
					"inputs": [
						{
							"internalType": "uint256",
							"name": "amount",
							"type": "uint256"
						}
					],
					"name": "withdraw",
					"outputs": [],
					"stateMutability": "nonpayable",
					"type": "function"
				}
			],
			"devdoc": {
				"kind": "dev",
				"methods": {},
				"version": 1
			},
			"evm": {
				"assembly": "    /* \"contracts/BankAccount.sol\":1053:2482  contract BankAccount {... */\n  mstore(0x40, 0x80)\n  callvalue\n  dup1\n  iszero\n  tag_1\n  jumpi\n  revert(0x00, 0x00)\ntag_1:\n  pop\n  dataSize(sub_0)\n  dup1\n  dataOffset(sub_0)\n  0x00\n  codecopy\n  0x00\n  return\nstop\n\nsub_0: assembly {\n        /* \"contracts/BankAccount.sol\":1053:2482  contract BankAccount {... */\n      mstore(0x40, 0x80)\n      jumpi(tag_1, lt(calldatasize, 0x04))\n      shr(0xe0, calldataload(0x00))\n      dup1\n      0x27e235e3\n      eq\n      tag_2\n      jumpi\n      dup1\n      0x2e1a7d4d\n      eq\n      tag_3\n      jumpi\n      dup1\n      0xa9059cbb\n      eq\n      tag_4\n      jumpi\n      dup1\n      0xd0e30db0\n      eq\n      tag_5\n      jumpi\n      dup1\n      0xd7dc6203\n      eq\n      tag_6\n      jumpi\n    tag_1:\n      revert(0x00, 0x00)\n        /* \"contracts/BankAccount.sol\":1113:1156  mapping(address => uint256) public balances */\n    tag_2:\n      callvalue\n      dup1\n      iszero\n      tag_7\n      jumpi\n      revert(0x00, 0x00)\n    tag_7:\n      pop\n      tag_8\n      0x04\n      dup1\n      calldatasize\n      sub\n      dup2\n      add\n      swap1\n      tag_9\n      swap2\n      swap1\n      tag_10\n      jump\t// in\n    tag_9:\n      tag_11\n      jump\t// in\n    tag_8:\n      mload(0x40)\n      tag_12\n      swap2\n      swap1\n      tag_13\n      jump\t// in\n    tag_12:\n      mload(0x40)\n      dup1\n      swap2\n      sub\n      swap1\n      return\n        /* \"contracts/BankAccount.sol\":1618:1891  function withdraw(uint256 amount) public {... */\n    tag_3:\n      callvalue\n      dup1\n      iszero\n      tag_14\n      jumpi\n      revert(0x00, 0x00)\n    tag_14:\n      pop\n      tag_15\n      0x04\n      dup1\n      calldatasize\n      sub\n      dup2\n      add\n      swap1\n      tag_16\n      swap2\n      swap1\n      tag_17\n      jump\t// in\n    tag_16:\n      tag_18\n      jump\t// in\n    tag_15:\n      stop\n        /* \"contracts/BankAccount.sol\":1911:2275  function transfer(address to, uint256 amount) public {... */\n    tag_4:\n      callvalue\n      dup1\n      iszero\n      tag_19\n      jumpi\n      revert(0x00, 0x00)\n    tag_19:\n      pop\n      tag_20\n      0x04\n      dup1\n      calldatasize\n      sub\n      dup2\n      add\n      swap1\n      tag_21\n      swap2\n      swap1\n      tag_22\n      jump\t// in\n    tag_21:\n      tag_23\n      jump\t// in\n    tag_20:\n      stop\n        /* \"contracts/BankAccount.sol\":1371:1598  function deposit() public payable {... */\n    tag_5:\n      tag_24\n      tag_25\n      jump\t// in\n    tag_24:\n      stop\n        /* \"contracts/BankAccount.sol\":2316:2480  function calculateInterest(... */\n    tag_6:\n      callvalue\n      dup1\n      iszero\n      tag_26\n      jumpi\n      revert(0x00, 0x00)\n    tag_26:\n      pop\n      tag_27\n      0x04\n      dup1\n      calldatasize\n      sub\n      dup2\n      add\n      swap1\n      tag_28\n      swap2\n      swap1\n      tag_22\n      jump\t// in\n    tag_28:\n      tag_29\n      jump\t// in\n    tag_27:\n      mload(0x40)\n      tag_30\n      swap2\n      swap1\n      tag_13\n      jump\t// in\n    tag_30:\n      mload(0x40)\n      dup1\n      swap2\n      sub\n      swap1\n      return\n        /* \"contracts/BankAccount.sol\":1113:1156  mapping(address => uint256) public balances */\n    tag_11:\n      mstore(0x20, 0x00)\n      dup1\n      0x00\n      mstore\n      keccak256(0x00, 0x40)\n      0x00\n      swap2\n      pop\n      swap1\n      pop\n      sload\n      dup2\n      jump\t// out\n        /* \"contracts/BankAccount.sol\":1618:1891  function withdraw(uint256 amount) public {... */\n    tag_18:\n        /* \"contracts/BankAccount.sol\":1686:1687  0 */\n      0x00\n        /* \"contracts/BankAccount.sol\":1677:1683  amount */\n      dup2\n        /* \"contracts/BankAccount.sol\":1677:1687  amount > 0 */\n      gt\n        /* \"contracts/BankAccount.sol\":1669:1730  require(amount > 0, \"Withdraw amount must be greater than 0\") */\n      tag_32\n      jumpi\n      mload(0x40)\n      0x08c379a000000000000000000000000000000000000000000000000000000000\n      dup2\n      mstore\n      0x04\n      add\n      tag_33\n      swap1\n      tag_34\n      jump\t// in\n    tag_33:\n      mload(0x40)\n      dup1\n      swap2\n      sub\n      swap1\n      revert\n    tag_32:\n        /* \"contracts/BankAccount.sol\":1763:1795  balances[msg.sender].sub(amount) */\n      tag_35\n        /* \"contracts/BankAccount.sol\":1788:1794  amount */\n      dup2\n        /* \"contracts/BankAccount.sol\":1763:1771  balances */\n      0x00\n        /* \"contracts/BankAccount.sol\":1763:1783  balances[msg.sender] */\n      0x00\n        /* \"contracts/BankAccount.sol\":1772:1782  msg.sender */\n      caller\n        /* \"contracts/BankAccount.sol\":1763:1783  balances[msg.sender] */\n      0xffffffffffffffffffffffffffffffffffffffff\n      and\n      0xffffffffffffffffffffffffffffffffffffffff\n      and\n      dup2\n      mstore\n      0x20\n      add\n      swap1\n      dup2\n      mstore\n      0x20\n      add\n      0x00\n      keccak256\n      sload\n        /* \"contracts/BankAccount.sol\":1763:1787  balances[msg.sender].sub */\n      tag_36\n      swap1\n        /* \"contracts/BankAccount.sol\":1763:1795  balances[msg.sender].sub(amount) */\n      swap2\n      swap1\n      0xffffffff\n      and\n      jump\t// in\n    tag_35:\n        /* \"contracts/BankAccount.sol\":1740:1748  balances */\n      0x00\n        /* \"contracts/BankAccount.sol\":1740:1760  balances[msg.sender] */\n      0x00\n        /* \"contracts/BankAccount.sol\":1749:1759  msg.sender */\n      caller\n        /* \"contracts/BankAccount.sol\":1740:1760  balances[msg.sender] */\n      0xffffffffffffffffffffffffffffffffffffffff\n      and\n      0xffffffffffffffffffffffffffffffffffffffff\n      and\n      dup2\n      mstore\n      0x20\n      add\n      swap1\n      dup2\n      mstore\n      0x20\n      add\n      0x00\n      keccak256\n        /* \"contracts/BankAccount.sol\":1740:1795  balances[msg.sender] = balances[msg.sender].sub(amount) */\n      dup2\n      swap1\n      sstore\n      pop\n        /* \"contracts/BankAccount.sol\":1813:1823  msg.sender */\n      caller\n        /* \"contracts/BankAccount.sol\":1805:1833  payable(msg.sender).transfer */\n      0xffffffffffffffffffffffffffffffffffffffff\n      and\n        /* \"contracts/BankAccount.sol\":1805:1841  payable(msg.sender).transfer(amount) */\n      0x08fc\n        /* \"contracts/BankAccount.sol\":1834:1840  amount */\n      dup3\n        /* \"contracts/BankAccount.sol\":1805:1841  payable(msg.sender).transfer(amount) */\n      swap1\n      dup2\n      iszero\n      mul\n      swap1\n      mload(0x40)\n      0x00\n      mload(0x40)\n      dup1\n      dup4\n      sub\n      dup2\n      dup6\n      dup9\n      dup9\n      call\n      swap4\n      pop\n      pop\n      pop\n      pop\n      iszero\n      dup1\n      iszero\n      tag_38\n      jumpi\n      returndatacopy(0x00, 0x00, returndatasize)\n      revert(0x00, returndatasize)\n    tag_38:\n      pop\n        /* \"contracts/BankAccount.sol\":1865:1875  msg.sender */\n      caller\n        /* \"contracts/BankAccount.sol\":1856:1884  Withdraw(msg.sender, amount) */\n      0xffffffffffffffffffffffffffffffffffffffff\n      and\n      0x884edad9ce6fa2440d8a54cc123490eb96d2768479d49ff9c7366125a9424364\n        /* \"contracts/BankAccount.sol\":1877:1883  amount */\n      dup3\n        /* \"contracts/BankAccount.sol\":1856:1884  Withdraw(msg.sender, amount) */\n      mload(0x40)\n      tag_39\n      swap2\n      swap1\n      tag_13\n      jump\t// in\n    tag_39:\n      mload(0x40)\n      dup1\n      swap2\n      sub\n      swap1\n      log2\n        /* \"contracts/BankAccount.sol\":1618:1891  function withdraw(uint256 amount) public {... */\n      pop\n      jump\t// out\n        /* \"contracts/BankAccount.sol\":1911:2275  function transfer(address to, uint256 amount) public {... */\n    tag_23:\n        /* \"contracts/BankAccount.sol\":1996:1997  0 */\n      0x00\n        /* \"contracts/BankAccount.sol\":1982:1998  to != address(0) */\n      0xffffffffffffffffffffffffffffffffffffffff\n      and\n        /* \"contracts/BankAccount.sol\":1982:1984  to */\n      dup3\n        /* \"contracts/BankAccount.sol\":1982:1998  to != address(0) */\n      0xffffffffffffffffffffffffffffffffffffffff\n      and\n      sub\n        /* \"contracts/BankAccount.sol\":1974:2034  require(to != address(0), \"Cannot transfer to zero address\") */\n      tag_41\n      jumpi\n      mload(0x40)\n      0x08c379a000000000000000000000000000000000000000000000000000000000\n      dup2\n      mstore\n      0x04\n      add\n      tag_42\n      swap1\n      tag_43\n      jump\t// in\n    tag_42:\n      mload(0x40)\n      dup1\n      swap2\n      sub\n      swap1\n      revert\n    tag_41:\n        /* \"contracts/BankAccount.sol\":2061:2062  0 */\n      0x00\n        /* \"contracts/BankAccount.sol\":2052:2058  amount */\n      dup2\n        /* \"contracts/BankAccount.sol\":2052:2062  amount > 0 */\n      gt\n        /* \"contracts/BankAccount.sol\":2044:2105  require(amount > 0, \"Transfer amount must be greater than 0\") */\n      tag_44\n      jumpi\n      mload(0x40)\n      0x08c379a000000000000000000000000000000000000000000000000000000000\n      dup2\n      mstore\n      0x04\n      add\n      tag_45\n      swap1\n      tag_46\n      jump\t// in\n    tag_45:\n      mload(0x40)\n      dup1\n      swap2\n      sub\n      swap1\n      revert\n    tag_44:\n        /* \"contracts/BankAccount.sol\":2139:2171  balances[msg.sender].sub(amount) */\n      tag_47\n        /* \"contracts/BankAccount.sol\":2164:2170  amount */\n      dup2\n        /* \"contracts/BankAccount.sol\":2139:2147  balances */\n      0x00\n        /* \"contracts/BankAccount.sol\":2139:2159  balances[msg.sender] */\n      0x00\n        /* \"contracts/BankAccount.sol\":2148:2158  msg.sender */\n      caller\n        /* \"contracts/BankAccount.sol\":2139:2159  balances[msg.sender] */\n      0xffffffffffffffffffffffffffffffffffffffff\n      and\n      0xffffffffffffffffffffffffffffffffffffffff\n      and\n      dup2\n      mstore\n      0x20\n      add\n      swap1\n      dup2\n      mstore\n      0x20\n      add\n      0x00\n      keccak256\n      sload\n        /* \"contracts/BankAccount.sol\":2139:2163  balances[msg.sender].sub */\n      tag_36\n      swap1\n        /* \"contracts/BankAccount.sol\":2139:2171  balances[msg.sender].sub(amount) */\n      swap2\n      swap1\n      0xffffffff\n      and\n      jump\t// in\n    tag_47:\n        /* \"contracts/BankAccount.sol\":2116:2124  balances */\n      0x00\n        /* \"contracts/BankAccount.sol\":2116:2136  balances[msg.sender] */\n      0x00\n        /* \"contracts/BankAccount.sol\":2125:2135  msg.sender */\n      caller\n        /* \"contracts/BankAccount.sol\":2116:2136  balances[msg.sender] */\n      0xffffffffffffffffffffffffffffffffffffffff\n      and\n      0xffffffffffffffffffffffffffffffffffffffff\n      and\n      dup2\n      mstore\n      0x20\n      add\n      swap1\n      dup2\n      mstore\n      0x20\n      add\n      0x00\n      keccak256\n        /* \"contracts/BankAccount.sol\":2116:2171  balances[msg.sender] = balances[msg.sender].sub(amount) */\n      dup2\n      swap1\n      sstore\n      pop\n        /* \"contracts/BankAccount.sol\":2196:2220  balances[to].add(amount) */\n      tag_48\n        /* \"contracts/BankAccount.sol\":2213:2219  amount */\n      dup2\n        /* \"contracts/BankAccount.sol\":2196:2204  balances */\n      0x00\n        /* \"contracts/BankAccount.sol\":2196:2208  balances[to] */\n      0x00\n        /* \"contracts/BankAccount.sol\":2205:2207  to */\n      dup6\n        /* \"contracts/BankAccount.sol\":2196:2208  balances[to] */\n      0xffffffffffffffffffffffffffffffffffffffff\n      and\n      0xffffffffffffffffffffffffffffffffffffffff\n      and\n      dup2\n      mstore\n      0x20\n      add\n      swap1\n      dup2\n      mstore\n      0x20\n      add\n      0x00\n      keccak256\n      sload\n        /* \"contracts/BankAccount.sol\":2196:2212  balances[to].add */\n      tag_49\n      swap1\n        /* \"contracts/BankAccount.sol\":2196:2220  balances[to].add(amount) */\n      swap2\n      swap1\n      0xffffffff\n      and\n      jump\t// in\n    tag_48:\n        /* \"contracts/BankAccount.sol\":2181:2189  balances */\n      0x00\n        /* \"contracts/BankAccount.sol\":2181:2193  balances[to] */\n      0x00\n        /* \"contracts/BankAccount.sol\":2190:2192  to */\n      dup5\n        /* \"contracts/BankAccount.sol\":2181:2193  balances[to] */\n      0xffffffffffffffffffffffffffffffffffffffff\n      and\n      0xffffffffffffffffffffffffffffffffffffffff\n      and\n      dup2\n      mstore\n      0x20\n      add\n      swap1\n      dup2\n      mstore\n      0x20\n      add\n      0x00\n      keccak256\n        /* \"contracts/BankAccount.sol\":2181:2220  balances[to] = balances[to].add(amount) */\n      dup2\n      swap1\n      sstore\n      pop\n        /* \"contracts/BankAccount.sol\":2257:2259  to */\n      dup2\n        /* \"contracts/BankAccount.sol\":2236:2268  Transfer(msg.sender, to, amount) */\n      0xffffffffffffffffffffffffffffffffffffffff\n      and\n        /* \"contracts/BankAccount.sol\":2245:2255  msg.sender */\n      caller\n        /* \"contracts/BankAccount.sol\":2236:2268  Transfer(msg.sender, to, amount) */\n      0xffffffffffffffffffffffffffffffffffffffff\n      and\n      0xddf252ad1be2c89b69c2b068fc378daa952ba7f163c4a11628f55a4df523b3ef\n        /* \"contracts/BankAccount.sol\":2261:2267  amount */\n      dup4\n        /* \"contracts/BankAccount.sol\":2236:2268  Transfer(msg.sender, to, amount) */\n      mload(0x40)\n      tag_50\n      swap2\n      swap1\n      tag_13\n      jump\t// in\n    tag_50:\n      mload(0x40)\n      dup1\n      swap2\n      sub\n      swap1\n      log3\n        /* \"contracts/BankAccount.sol\":1911:2275  function transfer(address to, uint256 amount) public {... */\n      pop\n      pop\n      jump\t// out\n        /* \"contracts/BankAccount.sol\":1371:1598  function deposit() public payable {... */\n    tag_25:\n        /* \"contracts/BankAccount.sol\":1435:1436  0 */\n      0x00\n        /* \"contracts/BankAccount.sol\":1423:1432  msg.value */\n      callvalue\n        /* \"contracts/BankAccount.sol\":1423:1436  msg.value > 0 */\n      gt\n        /* \"contracts/BankAccount.sol\":1415:1478  require(msg.value > 0, \"Deposit amount must be greater than 0\") */\n      tag_52\n      jumpi\n      mload(0x40)\n      0x08c379a000000000000000000000000000000000000000000000000000000000\n      dup2\n      mstore\n      0x04\n      add\n      tag_53\n      swap1\n      tag_54\n      jump\t// in\n    tag_53:\n      mload(0x40)\n      dup1\n      swap2\n      sub\n      swap1\n      revert\n    tag_52:\n        /* \"contracts/BankAccount.sol\":1511:1546  balances[msg.sender].add(msg.value) */\n      tag_55\n        /* \"contracts/BankAccount.sol\":1536:1545  msg.value */\n      callvalue\n        /* \"contracts/BankAccount.sol\":1511:1519  balances */\n      0x00\n        /* \"contracts/BankAccount.sol\":1511:1531  balances[msg.sender] */\n      0x00\n        /* \"contracts/BankAccount.sol\":1520:1530  msg.sender */\n      caller\n        /* \"contracts/BankAccount.sol\":1511:1531  balances[msg.sender] */\n      0xffffffffffffffffffffffffffffffffffffffff\n      and\n      0xffffffffffffffffffffffffffffffffffffffff\n      and\n      dup2\n      mstore\n      0x20\n      add\n      swap1\n      dup2\n      mstore\n      0x20\n      add\n      0x00\n      keccak256\n      sload\n        /* \"contracts/BankAccount.sol\":1511:1535  balances[msg.sender].add */\n      tag_49\n      swap1\n        /* \"contracts/BankAccount.sol\":1511:1546  balances[msg.sender].add(msg.value) */\n      swap2\n      swap1\n      0xffffffff\n      and\n      jump\t// in\n    tag_55:\n        /* \"contracts/BankAccount.sol\":1488:1496  balances */\n      0x00\n        /* \"contracts/BankAccount.sol\":1488:1508  balances[msg.sender] */\n      0x00\n        /* \"contracts/BankAccount.sol\":1497:1507  msg.sender */\n      caller\n        /* \"contracts/BankAccount.sol\":1488:1508  balances[msg.sender] */\n      0xffffffffffffffffffffffffffffffffffffffff\n      and\n      0xffffffffffffffffffffffffffffffffffffffff\n      and\n      dup2\n      mstore\n      0x20\n      add\n      swap1\n      dup2\n      mstore\n      0x20\n      add\n      0x00\n      keccak256\n        /* \"contracts/BankAccount.sol\":1488:1546  balances[msg.sender] = balances[msg.sender].add(msg.value) */\n      dup2\n      swap1\n      sstore\n      pop\n        /* \"contracts/BankAccount.sol\":1569:1579  msg.sender */\n      caller\n        /* \"contracts/BankAccount.sol\":1561:1591  Deposit(msg.sender, msg.value) */\n      0xffffffffffffffffffffffffffffffffffffffff\n      and\n      0xe1fffcc4923d04b559f4d29a8bfc6cda04eb5b0d3c460751c2402c5c5cc9109c\n        /* \"contracts/BankAccount.sol\":1581:1590  msg.value */\n      callvalue\n        /* \"contracts/BankAccount.sol\":1561:1591  Deposit(msg.sender, msg.value) */\n      mload(0x40)\n      tag_56\n      swap2\n      swap1\n      tag_13\n      jump\t// in\n    tag_56:\n      mload(0x40)\n      dup1\n      swap2\n      sub\n      swap1\n      log2\n        /* \"contracts/BankAccount.sol\":1371:1598  function deposit() public payable {... */\n      jump\t// out\n        /* \"contracts/BankAccount.sol\":2316:2480  function calculateInterest(... */\n    tag_29:\n        /* \"contracts/BankAccount.sol\":2414:2421  uint256 */\n      0x00\n        /* \"contracts/BankAccount.sol\":2440:2473  balances[user].mul(rate).div(100) */\n      tag_58\n        /* \"contracts/BankAccount.sol\":2469:2472  100 */\n      0x64\n        /* \"contracts/BankAccount.sol\":2440:2464  balances[user].mul(rate) */\n      tag_59\n        /* \"contracts/BankAccount.sol\":2459:2463  rate */\n      dup5\n        /* \"contracts/BankAccount.sol\":2440:2448  balances */\n      0x00\n        /* \"contracts/BankAccount.sol\":2440:2454  balances[user] */\n      0x00\n        /* \"contracts/BankAccount.sol\":2449:2453  user */\n      dup9\n        /* \"contracts/BankAccount.sol\":2440:2454  balances[user] */\n      0xffffffffffffffffffffffffffffffffffffffff\n      and\n      0xffffffffffffffffffffffffffffffffffffffff\n      and\n      dup2\n      mstore\n      0x20\n      add\n      swap1\n      dup2\n      mstore\n      0x20\n      add\n      0x00\n      keccak256\n      sload\n        /* \"contracts/BankAccount.sol\":2440:2458  balances[user].mul */\n      tag_60\n      swap1\n        /* \"contracts/BankAccount.sol\":2440:2464  balances[user].mul(rate) */\n      swap2\n      swap1\n      0xffffffff\n      and\n      jump\t// in\n    tag_59:\n        /* \"contracts/BankAccount.sol\":2440:2468  balances[user].mul(rate).div */\n      tag_61\n      swap1\n        /* \"contracts/BankAccount.sol\":2440:2473  balances[user].mul(rate).div(100) */\n      swap2\n      swap1\n      0xffffffff\n      and\n      jump\t// in\n    tag_58:\n        /* \"contracts/BankAccount.sol\":2433:2473  return balances[user].mul(rate).div(100) */\n      swap1\n      pop\n        /* \"contracts/BankAccount.sol\":2316:2480  function calculateInterest(... */\n      swap3\n      swap2\n      pop\n      pop\n      jump\t// out\n        /* \"contracts/BankAccount.sol\":292:471  function sub(uint256 a, uint256 b) internal pure returns (uint256) {... */\n    tag_36:\n        /* \"contracts/BankAccount.sol\":350:357  uint256 */\n      0x00\n        /* \"contracts/BankAccount.sol\":382:383  a */\n      dup3\n        /* \"contracts/BankAccount.sol\":377:378  b */\n      dup3\n        /* \"contracts/BankAccount.sol\":377:383  b <= a */\n      gt\n      iszero\n        /* \"contracts/BankAccount.sol\":369:419  require(b <= a, \"SafeMath: subtraction underflow\") */\n      tag_63\n      jumpi\n      mload(0x40)\n      0x08c379a000000000000000000000000000000000000000000000000000000000\n      dup2\n      mstore\n      0x04\n      add\n      tag_64\n      swap1\n      tag_65\n      jump\t// in\n    tag_64:\n      mload(0x40)\n      dup1\n      swap2\n      sub\n      swap1\n      revert\n    tag_63:\n        /* \"contracts/BankAccount.sol\":429:438  uint256 c */\n      0x00\n        /* \"contracts/BankAccount.sol\":445:446  b */\n      dup3\n        /* \"contracts/BankAccount.sol\":441:442  a */\n      dup5\n        /* \"contracts/BankAccount.sol\":441:446  a - b */\n      tag_66\n      swap2\n      swap1\n      tag_67\n      jump\t// in\n    tag_66:\n        /* \"contracts/BankAccount.sol\":429:446  uint256 c = a - b */\n      swap1\n      pop\n        /* \"contracts/BankAccount.sol\":463:464  c */\n      dup1\n        /* \"contracts/BankAccount.sol\":456:464  return c */\n      swap2\n      pop\n      pop\n        /* \"contracts/BankAccount.sol\":292:471  function sub(uint256 a, uint256 b) internal pure returns (uint256) {... */\n      swap3\n      swap2\n      pop\n      pop\n      jump\t// out\n        /* \"contracts/BankAccount.sol\":111:286  function add(uint256 a, uint256 b) internal pure returns (uint256) {... */\n    tag_49:\n        /* \"contracts/BankAccount.sol\":169:176  uint256 */\n      0x00\n        /* \"contracts/BankAccount.sol\":188:197  uint256 c */\n      0x00\n        /* \"contracts/BankAccount.sol\":204:205  b */\n      dup3\n        /* \"contracts/BankAccount.sol\":200:201  a */\n      dup5\n        /* \"contracts/BankAccount.sol\":200:205  a + b */\n      tag_69\n      swap2\n      swap1\n      tag_70\n      jump\t// in\n    tag_69:\n        /* \"contracts/BankAccount.sol\":188:205  uint256 c = a + b */\n      swap1\n      pop\n        /* \"contracts/BankAccount.sol\":228:229  a */\n      dup4\n        /* \"contracts/BankAccount.sol\":223:224  c */\n      dup2\n        /* \"contracts/BankAccount.sol\":223:229  c >= a */\n      lt\n      iszero\n        /* \"contracts/BankAccount.sol\":215:261  require(c >= a, \"SafeMath: addition overflow\") */\n      tag_71\n      jumpi\n      mload(0x40)\n      0x08c379a000000000000000000000000000000000000000000000000000000000\n      dup2\n      mstore\n      0x04\n      add\n      tag_72\n      swap1\n      tag_73\n      jump\t// in\n    tag_72:\n      mload(0x40)\n      dup1\n      swap2\n      sub\n      swap1\n      revert\n    tag_71:\n        /* \"contracts/BankAccount.sol\":278:279  c */\n      dup1\n        /* \"contracts/BankAccount.sol\":271:279  return c */\n      swap2\n      pop\n      pop\n        /* \"contracts/BankAccount.sol\":111:286  function add(uint256 a, uint256 b) internal pure returns (uint256) {... */\n      swap3\n      swap2\n      pop\n      pop\n      jump\t// out\n        /* \"contracts/BankAccount.sol\":477:716  function mul(uint256 a, uint256 b) internal pure returns (uint256) {... */\n    tag_60:\n        /* \"contracts/BankAccount.sol\":535:542  uint256 */\n      0x00\n        /* \"contracts/BankAccount.sol\":563:564  0 */\n      0x00\n        /* \"contracts/BankAccount.sol\":558:559  a */\n      dup4\n        /* \"contracts/BankAccount.sol\":558:564  a == 0 */\n      sub\n        /* \"contracts/BankAccount.sol\":554:599  if (a == 0) {... */\n      tag_75\n      jumpi\n        /* \"contracts/BankAccount.sol\":587:588  0 */\n      0x00\n        /* \"contracts/BankAccount.sol\":580:588  return 0 */\n      swap1\n      pop\n      jump(tag_74)\n        /* \"contracts/BankAccount.sol\":554:599  if (a == 0) {... */\n    tag_75:\n        /* \"contracts/BankAccount.sol\":608:617  uint256 c */\n      0x00\n        /* \"contracts/BankAccount.sol\":624:625  b */\n      dup3\n        /* \"contracts/BankAccount.sol\":620:621  a */\n      dup5\n        /* \"contracts/BankAccount.sol\":620:625  a * b */\n      tag_76\n      swap2\n      swap1\n      tag_77\n      jump\t// in\n    tag_76:\n        /* \"contracts/BankAccount.sol\":608:625  uint256 c = a * b */\n      swap1\n      pop\n        /* \"contracts/BankAccount.sol\":652:653  b */\n      dup3\n        /* \"contracts/BankAccount.sol\":647:648  a */\n      dup5\n        /* \"contracts/BankAccount.sol\":643:644  c */\n      dup3\n        /* \"contracts/BankAccount.sol\":643:648  c / a */\n      tag_78\n      swap2\n      swap1\n      tag_79\n      jump\t// in\n    tag_78:\n        /* \"contracts/BankAccount.sol\":643:653  c / a == b */\n      eq\n        /* \"contracts/BankAccount.sol\":635:691  require(c / a == b, \"SafeMath: multiplication overflow\") */\n      tag_80\n      jumpi\n      mload(0x40)\n      0x08c379a000000000000000000000000000000000000000000000000000000000\n      dup2\n      mstore\n      0x04\n      add\n      tag_81\n      swap1\n      tag_82\n      jump\t// in\n    tag_81:\n      mload(0x40)\n      dup1\n      swap2\n      sub\n      swap1\n      revert\n    tag_80:\n        /* \"contracts/BankAccount.sol\":708:709  c */\n      dup1\n        /* \"contracts/BankAccount.sol\":701:709  return c */\n      swap2\n      pop\n      pop\n        /* \"contracts/BankAccount.sol\":477:716  function mul(uint256 a, uint256 b) internal pure returns (uint256) {... */\n    tag_74:\n      swap3\n      swap2\n      pop\n      pop\n      jump\t// out\n        /* \"contracts/BankAccount.sol\":722:895  function div(uint256 a, uint256 b) internal pure returns (uint256) {... */\n    tag_61:\n        /* \"contracts/BankAccount.sol\":780:787  uint256 */\n      0x00\n        /* \"contracts/BankAccount.sol\":811:812  0 */\n      0x00\n        /* \"contracts/BankAccount.sol\":807:808  b */\n      dup3\n        /* \"contracts/BankAccount.sol\":807:812  b > 0 */\n      gt\n        /* \"contracts/BankAccount.sol\":799:843  require(b > 0, \"SafeMath: division by zero\") */\n      tag_84\n      jumpi\n      mload(0x40)\n      0x08c379a000000000000000000000000000000000000000000000000000000000\n      dup2\n      mstore\n      0x04\n      add\n      tag_85\n      swap1\n      tag_86\n      jump\t// in\n    tag_85:\n      mload(0x40)\n      dup1\n      swap2\n      sub\n      swap1\n      revert\n    tag_84:\n        /* \"contracts/BankAccount.sol\":853:862  uint256 c */\n      0x00\n        /* \"contracts/BankAccount.sol\":869:870  b */\n      dup3\n        /* \"contracts/BankAccount.sol\":865:866  a */\n      dup5\n        /* \"contracts/BankAccount.sol\":865:870  a / b */\n      tag_87\n      swap2\n      swap1\n      tag_79\n      jump\t// in\n    tag_87:\n        /* \"contracts/BankAccount.sol\":853:870  uint256 c = a / b */\n      swap1\n      pop\n        /* \"contracts/BankAccount.sol\":887:888  c */\n      dup1\n        /* \"contracts/BankAccount.sol\":880:888  return c */\n      swap2\n      pop\n      pop\n        /* \"contracts/BankAccount.sol\":722:895  function div(uint256 a, uint256 b) internal pure returns (uint256) {... */\n      swap3\n      swap2\n      pop\n      pop\n      jump\t// out\n        /* \"#utility.yul\":88:205   */\n    tag_89:\n        /* \"#utility.yul\":197:198   */\n      0x00\n        /* \"#utility.yul\":194:195   */\n      0x00\n        /* \"#utility.yul\":187:199   */\n      revert\n        /* \"#utility.yul\":334:460   */\n    tag_91:\n        /* \"#utility.yul\":371:378   */\n      0x00\n        /* \"#utility.yul\":411:453   */\n      0xffffffffffffffffffffffffffffffffffffffff\n        /* \"#utility.yul\":404:409   */\n      dup3\n        /* \"#utility.yul\":400:454   */\n      and\n        /* \"#utility.yul\":389:454   */\n      swap1\n      pop\n        /* \"#utility.yul\":334:460   */\n      swap2\n      swap1\n      pop\n      jump\t// out\n        /* \"#utility.yul\":466:562   */\n    tag_92:\n        /* \"#utility.yul\":503:510   */\n      0x00\n        /* \"#utility.yul\":532:556   */\n      tag_124\n        /* \"#utility.yul\":550:555   */\n      dup3\n        /* \"#utility.yul\":532:556   */\n      tag_91\n      jump\t// in\n    tag_124:\n        /* \"#utility.yul\":521:556   */\n      swap1\n      pop\n        /* \"#utility.yul\":466:562   */\n      swap2\n      swap1\n      pop\n      jump\t// out\n        /* \"#utility.yul\":568:690   */\n    tag_93:\n        /* \"#utility.yul\":641:665   */\n      tag_126\n        /* \"#utility.yul\":659:664   */\n      dup2\n        /* \"#utility.yul\":641:665   */\n      tag_92\n      jump\t// in\n    tag_126:\n        /* \"#utility.yul\":634:639   */\n      dup2\n        /* \"#utility.yul\":631:666   */\n      eq\n        /* \"#utility.yul\":621:684   */\n      tag_127\n      jumpi\n        /* \"#utility.yul\":680:681   */\n      0x00\n        /* \"#utility.yul\":677:678   */\n      0x00\n        /* \"#utility.yul\":670:682   */\n      revert\n        /* \"#utility.yul\":621:684   */\n    tag_127:\n        /* \"#utility.yul\":568:690   */\n      pop\n      jump\t// out\n        /* \"#utility.yul\":696:835   */\n    tag_94:\n        /* \"#utility.yul\":742:747   */\n      0x00\n        /* \"#utility.yul\":780:786   */\n      dup2\n        /* \"#utility.yul\":767:787   */\n      calldataload\n        /* \"#utility.yul\":758:787   */\n      swap1\n      pop\n        /* \"#utility.yul\":796:829   */\n      tag_129\n        /* \"#utility.yul\":823:828   */\n      dup2\n        /* \"#utility.yul\":796:829   */\n      tag_93\n      jump\t// in\n    tag_129:\n        /* \"#utility.yul\":696:835   */\n      swap3\n      swap2\n      pop\n      pop\n      jump\t// out\n        /* \"#utility.yul\":841:1170   */\n    tag_10:\n        /* \"#utility.yul\":900:906   */\n      0x00\n        /* \"#utility.yul\":949:951   */\n      0x20\n        /* \"#utility.yul\":937:946   */\n      dup3\n        /* \"#utility.yul\":928:935   */\n      dup5\n        /* \"#utility.yul\":924:947   */\n      sub\n        /* \"#utility.yul\":920:952   */\n      slt\n        /* \"#utility.yul\":917:1036   */\n      iszero\n      tag_131\n      jumpi\n        /* \"#utility.yul\":955:1034   */\n      tag_132\n      tag_89\n      jump\t// in\n    tag_132:\n        /* \"#utility.yul\":917:1036   */\n    tag_131:\n        /* \"#utility.yul\":1075:1076   */\n      0x00\n        /* \"#utility.yul\":1100:1153   */\n      tag_133\n        /* \"#utility.yul\":1145:1152   */\n      dup5\n        /* \"#utility.yul\":1136:1142   */\n      dup3\n        /* \"#utility.yul\":1125:1134   */\n      dup6\n        /* \"#utility.yul\":1121:1143   */\n      add\n        /* \"#utility.yul\":1100:1153   */\n      tag_94\n      jump\t// in\n    tag_133:\n        /* \"#utility.yul\":1090:1153   */\n      swap2\n      pop\n        /* \"#utility.yul\":1046:1163   */\n      pop\n        /* \"#utility.yul\":841:1170   */\n      swap3\n      swap2\n      pop\n      pop\n      jump\t// out\n        /* \"#utility.yul\":1176:1253   */\n    tag_95:\n        /* \"#utility.yul\":1213:1220   */\n      0x00\n        /* \"#utility.yul\":1242:1247   */\n      dup2\n        /* \"#utility.yul\":1231:1247   */\n      swap1\n      pop\n        /* \"#utility.yul\":1176:1253   */\n      swap2\n      swap1\n      pop\n      jump\t// out\n        /* \"#utility.yul\":1259:1377   */\n    tag_96:\n        /* \"#utility.yul\":1346:1370   */\n      tag_136\n        /* \"#utility.yul\":1364:1369   */\n      dup2\n        /* \"#utility.yul\":1346:1370   */\n      tag_95\n      jump\t// in\n    tag_136:\n        /* \"#utility.yul\":1341:1344   */\n      dup3\n        /* \"#utility.yul\":1334:1371   */\n      mstore\n        /* \"#utility.yul\":1259:1377   */\n      pop\n      pop\n      jump\t// out\n        /* \"#utility.yul\":1383:1605   */\n    tag_13:\n        /* \"#utility.yul\":1476:1480   */\n      0x00\n        /* \"#utility.yul\":1514:1516   */\n      0x20\n        /* \"#utility.yul\":1503:1512   */\n      dup3\n        /* \"#utility.yul\":1499:1517   */\n      add\n        /* \"#utility.yul\":1491:1517   */\n      swap1\n      pop\n        /* \"#utility.yul\":1527:1598   */\n      tag_138\n        /* \"#utility.yul\":1595:1596   */\n      0x00\n        /* \"#utility.yul\":1584:1593   */\n      dup4\n        /* \"#utility.yul\":1580:1597   */\n      add\n        /* \"#utility.yul\":1571:1577   */\n      dup5\n        /* \"#utility.yul\":1527:1598   */\n      tag_96\n      jump\t// in\n    tag_138:\n        /* \"#utility.yul\":1383:1605   */\n      swap3\n      swap2\n      pop\n      pop\n      jump\t// out\n        /* \"#utility.yul\":1611:1733   */\n    tag_97:\n        /* \"#utility.yul\":1684:1708   */\n      tag_140\n        /* \"#utility.yul\":1702:1707   */\n      dup2\n        /* \"#utility.yul\":1684:1708   */\n      tag_95\n      jump\t// in\n    tag_140:\n        /* \"#utility.yul\":1677:1682   */\n      dup2\n        /* \"#utility.yul\":1674:1709   */\n      eq\n        /* \"#utility.yul\":1664:1727   */\n      tag_141\n      jumpi\n        /* \"#utility.yul\":1723:1724   */\n      0x00\n        /* \"#utility.yul\":1720:1721   */\n      0x00\n        /* \"#utility.yul\":1713:1725   */\n      revert\n        /* \"#utility.yul\":1664:1727   */\n    tag_141:\n        /* \"#utility.yul\":1611:1733   */\n      pop\n      jump\t// out\n        /* \"#utility.yul\":1739:1878   */\n    tag_98:\n        /* \"#utility.yul\":1785:1790   */\n      0x00\n        /* \"#utility.yul\":1823:1829   */\n      dup2\n        /* \"#utility.yul\":1810:1830   */\n      calldataload\n        /* \"#utility.yul\":1801:1830   */\n      swap1\n      pop\n        /* \"#utility.yul\":1839:1872   */\n      tag_143\n        /* \"#utility.yul\":1866:1871   */\n      dup2\n        /* \"#utility.yul\":1839:1872   */\n      tag_97\n      jump\t// in\n    tag_143:\n        /* \"#utility.yul\":1739:1878   */\n      swap3\n      swap2\n      pop\n      pop\n      jump\t// out\n        /* \"#utility.yul\":1884:2213   */\n    tag_17:\n        /* \"#utility.yul\":1943:1949   */\n      0x00\n        /* \"#utility.yul\":1992:1994   */\n      0x20\n        /* \"#utility.yul\":1980:1989   */\n      dup3\n        /* \"#utility.yul\":1971:1978   */\n      dup5\n        /* \"#utility.yul\":1967:1990   */\n      sub\n        /* \"#utility.yul\":1963:1995   */\n      slt\n        /* \"#utility.yul\":1960:2079   */\n      iszero\n      tag_145\n      jumpi\n        /* \"#utility.yul\":1998:2077   */\n      tag_146\n      tag_89\n      jump\t// in\n    tag_146:\n        /* \"#utility.yul\":1960:2079   */\n    tag_145:\n        /* \"#utility.yul\":2118:2119   */\n      0x00\n        /* \"#utility.yul\":2143:2196   */\n      tag_147\n        /* \"#utility.yul\":2188:2195   */\n      dup5\n        /* \"#utility.yul\":2179:2185   */\n      dup3\n        /* \"#utility.yul\":2168:2177   */\n      dup6\n        /* \"#utility.yul\":2164:2186   */\n      add\n        /* \"#utility.yul\":2143:2196   */\n      tag_98\n      jump\t// in\n    tag_147:\n        /* \"#utility.yul\":2133:2196   */\n      swap2\n      pop\n        /* \"#utility.yul\":2089:2206   */\n      pop\n        /* \"#utility.yul\":1884:2213   */\n      swap3\n      swap2\n      pop\n      pop\n      jump\t// out\n        /* \"#utility.yul\":2219:2693   */\n    tag_22:\n        /* \"#utility.yul\":2287:2293   */\n      0x00\n        /* \"#utility.yul\":2295:2301   */\n      0x00\n        /* \"#utility.yul\":2344:2346   */\n      0x40\n        /* \"#utility.yul\":2332:2341   */\n      dup4\n        /* \"#utility.yul\":2323:2330   */\n      dup6\n        /* \"#utility.yul\":2319:2342   */\n      sub\n        /* \"#utility.yul\":2315:2347   */\n      slt\n        /* \"#utility.yul\":2312:2431   */\n      iszero\n      tag_149\n      jumpi\n        /* \"#utility.yul\":2350:2429   */\n      tag_150\n      tag_89\n      jump\t// in\n    tag_150:\n        /* \"#utility.yul\":2312:2431   */\n    tag_149:\n        /* \"#utility.yul\":2470:2471   */\n      0x00\n        /* \"#utility.yul\":2495:2548   */\n      tag_151\n        /* \"#utility.yul\":2540:2547   */\n      dup6\n        /* \"#utility.yul\":2531:2537   */\n      dup3\n        /* \"#utility.yul\":2520:2529   */\n      dup7\n        /* \"#utility.yul\":2516:2538   */\n      add\n        /* \"#utility.yul\":2495:2548   */\n      tag_94\n      jump\t// in\n    tag_151:\n        /* \"#utility.yul\":2485:2548   */\n      swap3\n      pop\n        /* \"#utility.yul\":2441:2558   */\n      pop\n        /* \"#utility.yul\":2597:2599   */\n      0x20\n        /* \"#utility.yul\":2623:2676   */\n      tag_152\n        /* \"#utility.yul\":2668:2675   */\n      dup6\n        /* \"#utility.yul\":2659:2665   */\n      dup3\n        /* \"#utility.yul\":2648:2657   */\n      dup7\n        /* \"#utility.yul\":2644:2666   */\n      add\n        /* \"#utility.yul\":2623:2676   */\n      tag_98\n      jump\t// in\n    tag_152:\n        /* \"#utility.yul\":2613:2676   */\n      swap2\n      pop\n        /* \"#utility.yul\":2568:2686   */\n      pop\n        /* \"#utility.yul\":2219:2693   */\n      swap3\n      pop\n      swap3\n      swap1\n      pop\n      jump\t// out\n        /* \"#utility.yul\":2699:2868   */\n    tag_99:\n        /* \"#utility.yul\":2783:2794   */\n      0x00\n        /* \"#utility.yul\":2817:2823   */\n      dup3\n        /* \"#utility.yul\":2812:2815   */\n      dup3\n        /* \"#utility.yul\":2805:2824   */\n      mstore\n        /* \"#utility.yul\":2857:2861   */\n      0x20\n        /* \"#utility.yul\":2852:2855   */\n      dup3\n        /* \"#utility.yul\":2848:2862   */\n      add\n        /* \"#utility.yul\":2833:2862   */\n      swap1\n      pop\n        /* \"#utility.yul\":2699:2868   */\n      swap3\n      swap2\n      pop\n      pop\n      jump\t// out\n        /* \"#utility.yul\":2874:3099   */\n    tag_100:\n        /* \"#utility.yul\":3014:3048   */\n      0x576974686472617720616d6f756e74206d757374206265206772656174657220\n        /* \"#utility.yul\":3010:3011   */\n      0x00\n        /* \"#utility.yul\":3002:3008   */\n      dup3\n        /* \"#utility.yul\":2998:3012   */\n      add\n        /* \"#utility.yul\":2991:3049   */\n      mstore\n        /* \"#utility.yul\":3083:3091   */\n      0x7468616e20300000000000000000000000000000000000000000000000000000\n        /* \"#utility.yul\":3078:3080   */\n      0x20\n        /* \"#utility.yul\":3070:3076   */\n      dup3\n        /* \"#utility.yul\":3066:3081   */\n      add\n        /* \"#utility.yul\":3059:3092   */\n      mstore\n        /* \"#utility.yul\":2874:3099   */\n      pop\n      jump\t// out\n        /* \"#utility.yul\":3105:3471   */\n    tag_101:\n        /* \"#utility.yul\":3247:3250   */\n      0x00\n        /* \"#utility.yul\":3268:3335   */\n      tag_156\n        /* \"#utility.yul\":3332:3334   */\n      0x26\n        /* \"#utility.yul\":3327:3330   */\n      dup4\n        /* \"#utility.yul\":3268:3335   */\n      tag_99\n      jump\t// in\n    tag_156:\n        /* \"#utility.yul\":3261:3335   */\n      swap2\n      pop\n        /* \"#utility.yul\":3344:3437   */\n      tag_157\n        /* \"#utility.yul\":3433:3436   */\n      dup3\n        /* \"#utility.yul\":3344:3437   */\n      tag_100\n      jump\t// in\n    tag_157:\n        /* \"#utility.yul\":3462:3464   */\n      0x40\n        /* \"#utility.yul\":3457:3460   */\n      dup3\n        /* \"#utility.yul\":3453:3465   */\n      add\n        /* \"#utility.yul\":3446:3465   */\n      swap1\n      pop\n        /* \"#utility.yul\":3105:3471   */\n      swap2\n      swap1\n      pop\n      jump\t// out\n        /* \"#utility.yul\":3477:3896   */\n    tag_34:\n        /* \"#utility.yul\":3643:3647   */\n      0x00\n        /* \"#utility.yul\":3681:3683   */\n      0x20\n        /* \"#utility.yul\":3670:3679   */\n      dup3\n        /* \"#utility.yul\":3666:3684   */\n      add\n        /* \"#utility.yul\":3658:3684   */\n      swap1\n      pop\n        /* \"#utility.yul\":3730:3739   */\n      dup2\n        /* \"#utility.yul\":3724:3728   */\n      dup2\n        /* \"#utility.yul\":3720:3740   */\n      sub\n        /* \"#utility.yul\":3716:3717   */\n      0x00\n        /* \"#utility.yul\":3705:3714   */\n      dup4\n        /* \"#utility.yul\":3701:3718   */\n      add\n        /* \"#utility.yul\":3694:3741   */\n      mstore\n        /* \"#utility.yul\":3758:3889   */\n      tag_159\n        /* \"#utility.yul\":3884:3888   */\n      dup2\n        /* \"#utility.yul\":3758:3889   */\n      tag_101\n      jump\t// in\n    tag_159:\n        /* \"#utility.yul\":3750:3889   */\n      swap1\n      pop\n        /* \"#utility.yul\":3477:3896   */\n      swap2\n      swap1\n      pop\n      jump\t// out\n        /* \"#utility.yul\":3902:4083   */\n    tag_102:\n        /* \"#utility.yul\":4042:4075   */\n      0x43616e6e6f74207472616e7366657220746f207a65726f206164647265737300\n        /* \"#utility.yul\":4038:4039   */\n      0x00\n        /* \"#utility.yul\":4030:4036   */\n      dup3\n        /* \"#utility.yul\":4026:4040   */\n      add\n        /* \"#utility.yul\":4019:4076   */\n      mstore\n        /* \"#utility.yul\":3902:4083   */\n      pop\n      jump\t// out\n        /* \"#utility.yul\":4089:4455   */\n    tag_103:\n        /* \"#utility.yul\":4231:4234   */\n      0x00\n        /* \"#utility.yul\":4252:4319   */\n      tag_162\n        /* \"#utility.yul\":4316:4318   */\n      0x1f\n        /* \"#utility.yul\":4311:4314   */\n      dup4\n        /* \"#utility.yul\":4252:4319   */\n      tag_99\n      jump\t// in\n    tag_162:\n        /* \"#utility.yul\":4245:4319   */\n      swap2\n      pop\n        /* \"#utility.yul\":4328:4421   */\n      tag_163\n        /* \"#utility.yul\":4417:4420   */\n      dup3\n        /* \"#utility.yul\":4328:4421   */\n      tag_102\n      jump\t// in\n    tag_163:\n        /* \"#utility.yul\":4446:4448   */\n      0x20\n        /* \"#utility.yul\":4441:4444   */\n      dup3\n        /* \"#utility.yul\":4437:4449   */\n      add\n        /* \"#utility.yul\":4430:4449   */\n      swap1\n      pop\n        /* \"#utility.yul\":4089:4455   */\n      swap2\n      swap1\n      pop\n      jump\t// out\n        /* \"#utility.yul\":4461:4880   */\n    tag_43:\n        /* \"#utility.yul\":4627:4631   */\n      0x00\n        /* \"#utility.yul\":4665:4667   */\n      0x20\n        /* \"#utility.yul\":4654:4663   */\n      dup3\n        /* \"#utility.yul\":4650:4668   */\n      add\n        /* \"#utility.yul\":4642:4668   */\n      swap1\n      pop\n        /* \"#utility.yul\":4714:4723   */\n      dup2\n        /* \"#utility.yul\":4708:4712   */\n      dup2\n        /* \"#utility.yul\":4704:4724   */\n      sub\n        /* \"#utility.yul\":4700:4701   */\n      0x00\n        /* \"#utility.yul\":4689:4698   */\n      dup4\n        /* \"#utility.yul\":4685:4702   */\n      add\n        /* \"#utility.yul\":4678:4725   */\n      mstore\n        /* \"#utility.yul\":4742:4873   */\n      tag_165\n        /* \"#utility.yul\":4868:4872   */\n      dup2\n        /* \"#utility.yul\":4742:4873   */\n      tag_103\n      jump\t// in\n    tag_165:\n        /* \"#utility.yul\":4734:4873   */\n      swap1\n      pop\n        /* \"#utility.yul\":4461:4880   */\n      swap2\n      swap1\n      pop\n      jump\t// out\n        /* \"#utility.yul\":4886:5111   */\n    tag_104:\n        /* \"#utility.yul\":5026:5060   */\n      0x5472616e7366657220616d6f756e74206d757374206265206772656174657220\n        /* \"#utility.yul\":5022:5023   */\n      0x00\n        /* \"#utility.yul\":5014:5020   */\n      dup3\n        /* \"#utility.yul\":5010:5024   */\n      add\n        /* \"#utility.yul\":5003:5061   */\n      mstore\n        /* \"#utility.yul\":5095:5103   */\n      0x7468616e20300000000000000000000000000000000000000000000000000000\n        /* \"#utility.yul\":5090:5092   */\n      0x20\n        /* \"#utility.yul\":5082:5088   */\n      dup3\n        /* \"#utility.yul\":5078:5093   */\n      add\n        /* \"#utility.yul\":5071:5104   */\n      mstore\n        /* \"#utility.yul\":4886:5111   */\n      pop\n      jump\t// out\n        /* \"#utility.yul\":5117:5483   */\n    tag_105:\n        /* \"#utility.yul\":5259:5262   */\n      0x00\n        /* \"#utility.yul\":5280:5347   */\n      tag_168\n        /* \"#utility.yul\":5344:5346   */\n      0x26\n        /* \"#utility.yul\":5339:5342   */\n      dup4\n        /* \"#utility.yul\":5280:5347   */\n      tag_99\n      jump\t// in\n    tag_168:\n        /* \"#utility.yul\":5273:5347   */\n      swap2\n      pop\n        /* \"#utility.yul\":5356:5449   */\n      tag_169\n        /* \"#utility.yul\":5445:5448   */\n      dup3\n        /* \"#utility.yul\":5356:5449   */\n      tag_104\n      jump\t// in\n    tag_169:\n        /* \"#utility.yul\":5474:5476   */\n      0x40\n        /* \"#utility.yul\":5469:5472   */\n      dup3\n        /* \"#utility.yul\":5465:5477   */\n      add\n        /* \"#utility.yul\":5458:5477   */\n      swap1\n      pop\n        /* \"#utility.yul\":5117:5483   */\n      swap2\n      swap1\n      pop\n      jump\t// out\n        /* \"#utility.yul\":5489:5908   */\n    tag_46:\n        /* \"#utility.yul\":5655:5659   */\n      0x00\n        /* \"#utility.yul\":5693:5695   */\n      0x20\n        /* \"#utility.yul\":5682:5691   */\n      dup3\n        /* \"#utility.yul\":5678:5696   */\n      add\n        /* \"#utility.yul\":5670:5696   */\n      swap1\n      pop\n        /* \"#utility.yul\":5742:5751   */\n      dup2\n        /* \"#utility.yul\":5736:5740   */\n      dup2\n        /* \"#utility.yul\":5732:5752   */\n      sub\n        /* \"#utility.yul\":5728:5729   */\n      0x00\n        /* \"#utility.yul\":5717:5726   */\n      dup4\n        /* \"#utility.yul\":5713:5730   */\n      add\n        /* \"#utility.yul\":5706:5753   */\n      mstore\n        /* \"#utility.yul\":5770:5901   */\n      tag_171\n        /* \"#utility.yul\":5896:5900   */\n      dup2\n        /* \"#utility.yul\":5770:5901   */\n      tag_105\n      jump\t// in\n    tag_171:\n        /* \"#utility.yul\":5762:5901   */\n      swap1\n      pop\n        /* \"#utility.yul\":5489:5908   */\n      swap2\n      swap1\n      pop\n      jump\t// out\n        /* \"#utility.yul\":5914:6138   */\n    tag_106:\n        /* \"#utility.yul\":6054:6088   */\n      0x4465706f73697420616d6f756e74206d75737420626520677265617465722074\n        /* \"#utility.yul\":6050:6051   */\n      0x00\n        /* \"#utility.yul\":6042:6048   */\n      dup3\n        /* \"#utility.yul\":6038:6052   */\n      add\n        /* \"#utility.yul\":6031:6089   */\n      mstore\n        /* \"#utility.yul\":6123:6130   */\n      0x68616e2030000000000000000000000000000000000000000000000000000000\n        /* \"#utility.yul\":6118:6120   */\n      0x20\n        /* \"#utility.yul\":6110:6116   */\n      dup3\n        /* \"#utility.yul\":6106:6121   */\n      add\n        /* \"#utility.yul\":6099:6131   */\n      mstore\n        /* \"#utility.yul\":5914:6138   */\n      pop\n      jump\t// out\n        /* \"#utility.yul\":6144:6510   */\n    tag_107:\n        /* \"#utility.yul\":6286:6289   */\n      0x00\n        /* \"#utility.yul\":6307:6374   */\n      tag_174\n        /* \"#utility.yul\":6371:6373   */\n      0x25\n        /* \"#utility.yul\":6366:6369   */\n      dup4\n        /* \"#utility.yul\":6307:6374   */\n      tag_99\n      jump\t// in\n    tag_174:\n        /* \"#utility.yul\":6300:6374   */\n      swap2\n      pop\n        /* \"#utility.yul\":6383:6476   */\n      tag_175\n        /* \"#utility.yul\":6472:6475   */\n      dup3\n        /* \"#utility.yul\":6383:6476   */\n      tag_106\n      jump\t// in\n    tag_175:\n        /* \"#utility.yul\":6501:6503   */\n      0x40\n        /* \"#utility.yul\":6496:6499   */\n      dup3\n        /* \"#utility.yul\":6492:6504   */\n      add\n        /* \"#utility.yul\":6485:6504   */\n      swap1\n      pop\n        /* \"#utility.yul\":6144:6510   */\n      swap2\n      swap1\n      pop\n      jump\t// out\n        /* \"#utility.yul\":6516:6935   */\n    tag_54:\n        /* \"#utility.yul\":6682:6686   */\n      0x00\n        /* \"#utility.yul\":6720:6722   */\n      0x20\n        /* \"#utility.yul\":6709:6718   */\n      dup3\n        /* \"#utility.yul\":6705:6723   */\n      add\n        /* \"#utility.yul\":6697:6723   */\n      swap1\n      pop\n        /* \"#utility.yul\":6769:6778   */\n      dup2\n        /* \"#utility.yul\":6763:6767   */\n      dup2\n        /* \"#utility.yul\":6759:6779   */\n      sub\n        /* \"#utility.yul\":6755:6756   */\n      0x00\n        /* \"#utility.yul\":6744:6753   */\n      dup4\n        /* \"#utility.yul\":6740:6757   */\n      add\n        /* \"#utility.yul\":6733:6780   */\n      mstore\n        /* \"#utility.yul\":6797:6928   */\n      tag_177\n        /* \"#utility.yul\":6923:6927   */\n      dup2\n        /* \"#utility.yul\":6797:6928   */\n      tag_107\n      jump\t// in\n    tag_177:\n        /* \"#utility.yul\":6789:6928   */\n      swap1\n      pop\n        /* \"#utility.yul\":6516:6935   */\n      swap2\n      swap1\n      pop\n      jump\t// out\n        /* \"#utility.yul\":6941:7122   */\n    tag_108:\n        /* \"#utility.yul\":7081:7114   */\n      0x536166654d6174683a207375627472616374696f6e20756e646572666c6f7700\n        /* \"#utility.yul\":7077:7078   */\n      0x00\n        /* \"#utility.yul\":7069:7075   */\n      dup3\n        /* \"#utility.yul\":7065:7079   */\n      add\n        /* \"#utility.yul\":7058:7115   */\n      mstore\n        /* \"#utility.yul\":6941:7122   */\n      pop\n      jump\t// out\n        /* \"#utility.yul\":7128:7494   */\n    tag_109:\n        /* \"#utility.yul\":7270:7273   */\n      0x00\n        /* \"#utility.yul\":7291:7358   */\n      tag_180\n        /* \"#utility.yul\":7355:7357   */\n      0x1f\n        /* \"#utility.yul\":7350:7353   */\n      dup4\n        /* \"#utility.yul\":7291:7358   */\n      tag_99\n      jump\t// in\n    tag_180:\n        /* \"#utility.yul\":7284:7358   */\n      swap2\n      pop\n        /* \"#utility.yul\":7367:7460   */\n      tag_181\n        /* \"#utility.yul\":7456:7459   */\n      dup3\n        /* \"#utility.yul\":7367:7460   */\n      tag_108\n      jump\t// in\n    tag_181:\n        /* \"#utility.yul\":7485:7487   */\n      0x20\n        /* \"#utility.yul\":7480:7483   */\n      dup3\n        /* \"#utility.yul\":7476:7488   */\n      add\n        /* \"#utility.yul\":7469:7488   */\n      swap1\n      pop\n        /* \"#utility.yul\":7128:7494   */\n      swap2\n      swap1\n      pop\n      jump\t// out\n        /* \"#utility.yul\":7500:7919   */\n    tag_65:\n        /* \"#utility.yul\":7666:7670   */\n      0x00\n        /* \"#utility.yul\":7704:7706   */\n      0x20\n        /* \"#utility.yul\":7693:7702   */\n      dup3\n        /* \"#utility.yul\":7689:7707   */\n      add\n        /* \"#utility.yul\":7681:7707   */\n      swap1\n      pop\n        /* \"#utility.yul\":7753:7762   */\n      dup2\n        /* \"#utility.yul\":7747:7751   */\n      dup2\n        /* \"#utility.yul\":7743:7763   */\n      sub\n        /* \"#utility.yul\":7739:7740   */\n      0x00\n        /* \"#utility.yul\":7728:7737   */\n      dup4\n        /* \"#utility.yul\":7724:7741   */\n      add\n        /* \"#utility.yul\":7717:7764   */\n      mstore\n        /* \"#utility.yul\":7781:7912   */\n      tag_183\n        /* \"#utility.yul\":7907:7911   */\n      dup2\n        /* \"#utility.yul\":7781:7912   */\n      tag_109\n      jump\t// in\n    tag_183:\n        /* \"#utility.yul\":7773:7912   */\n      swap1\n      pop\n        /* \"#utility.yul\":7500:7919   */\n      swap2\n      swap1\n      pop\n      jump\t// out\n        /* \"#utility.yul\":7925:8105   */\n    tag_110:\n        /* \"#utility.yul\":7973:8050   */\n      0x4e487b7100000000000000000000000000000000000000000000000000000000\n        /* \"#utility.yul\":7970:7971   */\n      0x00\n        /* \"#utility.yul\":7963:8051   */\n      mstore\n        /* \"#utility.yul\":8070:8074   */\n      0x11\n        /* \"#utility.yul\":8067:8068   */\n      0x04\n        /* \"#utility.yul\":8060:8075   */\n      mstore\n        /* \"#utility.yul\":8094:8098   */\n      0x24\n        /* \"#utility.yul\":8091:8092   */\n      0x00\n        /* \"#utility.yul\":8084:8099   */\n      revert\n        /* \"#utility.yul\":8111:8305   */\n    tag_67:\n        /* \"#utility.yul\":8151:8155   */\n      0x00\n        /* \"#utility.yul\":8171:8191   */\n      tag_186\n        /* \"#utility.yul\":8189:8190   */\n      dup3\n        /* \"#utility.yul\":8171:8191   */\n      tag_95\n      jump\t// in\n    tag_186:\n        /* \"#utility.yul\":8166:8191   */\n      swap2\n      pop\n        /* \"#utility.yul\":8205:8225   */\n      tag_187\n        /* \"#utility.yul\":8223:8224   */\n      dup4\n        /* \"#utility.yul\":8205:8225   */\n      tag_95\n      jump\t// in\n    tag_187:\n        /* \"#utility.yul\":8200:8225   */\n      swap3\n      pop\n        /* \"#utility.yul\":8249:8250   */\n      dup3\n        /* \"#utility.yul\":8246:8247   */\n      dup3\n        /* \"#utility.yul\":8242:8251   */\n      sub\n        /* \"#utility.yul\":8234:8251   */\n      swap1\n      pop\n        /* \"#utility.yul\":8273:8274   */\n      dup2\n        /* \"#utility.yul\":8267:8271   */\n      dup2\n        /* \"#utility.yul\":8264:8275   */\n      gt\n        /* \"#utility.yul\":8261:8298   */\n      iszero\n      tag_188\n      jumpi\n        /* \"#utility.yul\":8278:8296   */\n      tag_189\n      tag_110\n      jump\t// in\n    tag_189:\n        /* \"#utility.yul\":8261:8298   */\n    tag_188:\n        /* \"#utility.yul\":8111:8305   */\n      swap3\n      swap2\n      pop\n      pop\n      jump\t// out\n        /* \"#utility.yul\":8311:8502   */\n    tag_70:\n        /* \"#utility.yul\":8351:8354   */\n      0x00\n        /* \"#utility.yul\":8370:8390   */\n      tag_191\n        /* \"#utility.yul\":8388:8389   */\n      dup3\n        /* \"#utility.yul\":8370:8390   */\n      tag_95\n      jump\t// in\n    tag_191:\n        /* \"#utility.yul\":8365:8390   */\n      swap2\n      pop\n        /* \"#utility.yul\":8404:8424   */\n      tag_192\n        /* \"#utility.yul\":8422:8423   */\n      dup4\n        /* \"#utility.yul\":8404:8424   */\n      tag_95\n      jump\t// in\n    tag_192:\n        /* \"#utility.yul\":8399:8424   */\n      swap3\n      pop\n        /* \"#utility.yul\":8447:8448   */\n      dup3\n        /* \"#utility.yul\":8444:8445   */\n      dup3\n        /* \"#utility.yul\":8440:8449   */\n      add\n        /* \"#utility.yul\":8433:8449   */\n      swap1\n      pop\n        /* \"#utility.yul\":8468:8471   */\n      dup1\n        /* \"#utility.yul\":8465:8466   */\n      dup3\n        /* \"#utility.yul\":8462:8472   */\n      gt\n        /* \"#utility.yul\":8459:8495   */\n      iszero\n      tag_193\n      jumpi\n        /* \"#utility.yul\":8475:8493   */\n      tag_194\n      tag_110\n      jump\t// in\n    tag_194:\n        /* \"#utility.yul\":8459:8495   */\n    tag_193:\n        /* \"#utility.yul\":8311:8502   */\n      swap3\n      swap2\n      pop\n      pop\n      jump\t// out\n        /* \"#utility.yul\":8508:8685   */\n    tag_111:\n        /* \"#utility.yul\":8648:8677   */\n      0x536166654d6174683a206164646974696f6e206f766572666c6f770000000000\n        /* \"#utility.yul\":8644:8645   */\n      0x00\n        /* \"#utility.yul\":8636:8642   */\n      dup3\n        /* \"#utility.yul\":8632:8646   */\n      add\n        /* \"#utility.yul\":8625:8678   */\n      mstore\n        /* \"#utility.yul\":8508:8685   */\n      pop\n      jump\t// out\n        /* \"#utility.yul\":8691:9057   */\n    tag_112:\n        /* \"#utility.yul\":8833:8836   */\n      0x00\n        /* \"#utility.yul\":8854:8921   */\n      tag_197\n        /* \"#utility.yul\":8918:8920   */\n      0x1b\n        /* \"#utility.yul\":8913:8916   */\n      dup4\n        /* \"#utility.yul\":8854:8921   */\n      tag_99\n      jump\t// in\n    tag_197:\n        /* \"#utility.yul\":8847:8921   */\n      swap2\n      pop\n        /* \"#utility.yul\":8930:9023   */\n      tag_198\n        /* \"#utility.yul\":9019:9022   */\n      dup3\n        /* \"#utility.yul\":8930:9023   */\n      tag_111\n      jump\t// in\n    tag_198:\n        /* \"#utility.yul\":9048:9050   */\n      0x20\n        /* \"#utility.yul\":9043:9046   */\n      dup3\n        /* \"#utility.yul\":9039:9051   */\n      add\n        /* \"#utility.yul\":9032:9051   */\n      swap1\n      pop\n        /* \"#utility.yul\":8691:9057   */\n      swap2\n      swap1\n      pop\n      jump\t// out\n        /* \"#utility.yul\":9063:9482   */\n    tag_73:\n        /* \"#utility.yul\":9229:9233   */\n      0x00\n        /* \"#utility.yul\":9267:9269   */\n      0x20\n        /* \"#utility.yul\":9256:9265   */\n      dup3\n        /* \"#utility.yul\":9252:9270   */\n      add\n        /* \"#utility.yul\":9244:9270   */\n      swap1\n      pop\n        /* \"#utility.yul\":9316:9325   */\n      dup2\n        /* \"#utility.yul\":9310:9314   */\n      dup2\n        /* \"#utility.yul\":9306:9326   */\n      sub\n        /* \"#utility.yul\":9302:9303   */\n      0x00\n        /* \"#utility.yul\":9291:9300   */\n      dup4\n        /* \"#utility.yul\":9287:9304   */\n      add\n        /* \"#utility.yul\":9280:9327   */\n      mstore\n        /* \"#utility.yul\":9344:9475   */\n      tag_200\n        /* \"#utility.yul\":9470:9474   */\n      dup2\n        /* \"#utility.yul\":9344:9475   */\n      tag_112\n      jump\t// in\n    tag_200:\n        /* \"#utility.yul\":9336:9475   */\n      swap1\n      pop\n        /* \"#utility.yul\":9063:9482   */\n      swap2\n      swap1\n      pop\n      jump\t// out\n        /* \"#utility.yul\":9488:9898   */\n    tag_77:\n        /* \"#utility.yul\":9528:9535   */\n      0x00\n        /* \"#utility.yul\":9551:9571   */\n      tag_202\n        /* \"#utility.yul\":9569:9570   */\n      dup3\n        /* \"#utility.yul\":9551:9571   */\n      tag_95\n      jump\t// in\n    tag_202:\n        /* \"#utility.yul\":9546:9571   */\n      swap2\n      pop\n        /* \"#utility.yul\":9585:9605   */\n      tag_203\n        /* \"#utility.yul\":9603:9604   */\n      dup4\n        /* \"#utility.yul\":9585:9605   */\n      tag_95\n      jump\t// in\n    tag_203:\n        /* \"#utility.yul\":9580:9605   */\n      swap3\n      pop\n        /* \"#utility.yul\":9640:9641   */\n      dup3\n        /* \"#utility.yul\":9637:9638   */\n      dup3\n        /* \"#utility.yul\":9633:9642   */\n      mul\n        /* \"#utility.yul\":9662:9692   */\n      tag_204\n        /* \"#utility.yul\":9680:9691   */\n      dup2\n        /* \"#utility.yul\":9662:9692   */\n      tag_95\n      jump\t// in\n    tag_204:\n        /* \"#utility.yul\":9651:9692   */\n      swap2\n      pop\n        /* \"#utility.yul\":9841:9842   */\n      dup3\n        /* \"#utility.yul\":9832:9839   */\n      dup3\n        /* \"#utility.yul\":9828:9843   */\n      div\n        /* \"#utility.yul\":9825:9826   */\n      dup5\n        /* \"#utility.yul\":9822:9844   */\n      eq\n        /* \"#utility.yul\":9802:9803   */\n      dup4\n        /* \"#utility.yul\":9795:9804   */\n      iszero\n        /* \"#utility.yul\":9775:9858   */\n      or\n        /* \"#utility.yul\":9752:9891   */\n      tag_205\n      jumpi\n        /* \"#utility.yul\":9871:9889   */\n      tag_206\n      tag_110\n      jump\t// in\n    tag_206:\n        /* \"#utility.yul\":9752:9891   */\n    tag_205:\n        /* \"#utility.yul\":9536:9898   */\n      pop\n        /* \"#utility.yul\":9488:9898   */\n      swap3\n      swap2\n      pop\n      pop\n      jump\t// out\n        /* \"#utility.yul\":9904:10084   */\n    tag_113:\n        /* \"#utility.yul\":9952:10029   */\n      0x4e487b7100000000000000000000000000000000000000000000000000000000\n        /* \"#utility.yul\":9949:9950   */\n      0x00\n        /* \"#utility.yul\":9942:10030   */\n      mstore\n        /* \"#utility.yul\":10049:10053   */\n      0x12\n        /* \"#utility.yul\":10046:10047   */\n      0x04\n        /* \"#utility.yul\":10039:10054   */\n      mstore\n        /* \"#utility.yul\":10073:10077   */\n      0x24\n        /* \"#utility.yul\":10070:10071   */\n      0x00\n        /* \"#utility.yul\":10063:10078   */\n      revert\n        /* \"#utility.yul\":10090:10275   */\n    tag_79:\n        /* \"#utility.yul\":10130:10131   */\n      0x00\n        /* \"#utility.yul\":10147:10167   */\n      tag_209\n        /* \"#utility.yul\":10165:10166   */\n      dup3\n        /* \"#utility.yul\":10147:10167   */\n      tag_95\n      jump\t// in\n    tag_209:\n        /* \"#utility.yul\":10142:10167   */\n      swap2\n      pop\n        /* \"#utility.yul\":10181:10201   */\n      tag_210\n        /* \"#utility.yul\":10199:10200   */\n      dup4\n        /* \"#utility.yul\":10181:10201   */\n      tag_95\n      jump\t// in\n    tag_210:\n        /* \"#utility.yul\":10176:10201   */\n      swap3\n      pop\n        /* \"#utility.yul\":10220:10221   */\n      dup3\n        /* \"#utility.yul\":10210:10245   */\n      tag_211\n      jumpi\n        /* \"#utility.yul\":10225:10243   */\n      tag_212\n      tag_113\n      jump\t// in\n    tag_212:\n        /* \"#utility.yul\":10210:10245   */\n    tag_211:\n        /* \"#utility.yul\":10267:10268   */\n      dup3\n        /* \"#utility.yul\":10264:10265   */\n      dup3\n        /* \"#utility.yul\":10260:10269   */\n      div\n        /* \"#utility.yul\":10255:10269   */\n      swap1\n      pop\n        /* \"#utility.yul\":10090:10275   */\n      swap3\n      swap2\n      pop\n      pop\n      jump\t// out\n        /* \"#utility.yul\":10281:10501   */\n    tag_114:\n        /* \"#utility.yul\":10421:10455   */\n      0x536166654d6174683a206d756c7469706c69636174696f6e206f766572666c6f\n        /* \"#utility.yul\":10417:10418   */\n      0x00\n        /* \"#utility.yul\":10409:10415   */\n      dup3\n        /* \"#utility.yul\":10405:10419   */\n      add\n        /* \"#utility.yul\":10398:10456   */\n      mstore\n        /* \"#utility.yul\":10490:10493   */\n      0x7700000000000000000000000000000000000000000000000000000000000000\n        /* \"#utility.yul\":10485:10487   */\n      0x20\n        /* \"#utility.yul\":10477:10483   */\n      dup3\n        /* \"#utility.yul\":10473:10488   */\n      add\n        /* \"#utility.yul\":10466:10494   */\n      mstore\n        /* \"#utility.yul\":10281:10501   */\n      pop\n      jump\t// out\n        /* \"#utility.yul\":10507:10873   */\n    tag_115:\n        /* \"#utility.yul\":10649:10652   */\n      0x00\n        /* \"#utility.yul\":10670:10737   */\n      tag_215\n        /* \"#utility.yul\":10734:10736   */\n      0x21\n        /* \"#utility.yul\":10729:10732   */\n      dup4\n        /* \"#utility.yul\":10670:10737   */\n      tag_99\n      jump\t// in\n    tag_215:\n        /* \"#utility.yul\":10663:10737   */\n      swap2\n      pop\n        /* \"#utility.yul\":10746:10839   */\n      tag_216\n        /* \"#utility.yul\":10835:10838   */\n      dup3\n        /* \"#utility.yul\":10746:10839   */\n      tag_114\n      jump\t// in\n    tag_216:\n        /* \"#utility.yul\":10864:10866   */\n      0x40\n        /* \"#utility.yul\":10859:10862   */\n      dup3\n        /* \"#utility.yul\":10855:10867   */\n      add\n        /* \"#utility.yul\":10848:10867   */\n      swap1\n      pop\n        /* \"#utility.yul\":10507:10873   */\n      swap2\n      swap1\n      pop\n      jump\t// out\n        /* \"#utility.yul\":10879:11298   */\n    tag_82:\n        /* \"#utility.yul\":11045:11049   */\n      0x00\n        /* \"#utility.yul\":11083:11085   */\n      0x20\n        /* \"#utility.yul\":11072:11081   */\n      dup3\n        /* \"#utility.yul\":11068:11086   */\n      add\n        /* \"#utility.yul\":11060:11086   */\n      swap1\n      pop\n        /* \"#utility.yul\":11132:11141   */\n      dup2\n        /* \"#utility.yul\":11126:11130   */\n      dup2\n        /* \"#utility.yul\":11122:11142   */\n      sub\n        /* \"#utility.yul\":11118:11119   */\n      0x00\n        /* \"#utility.yul\":11107:11116   */\n      dup4\n        /* \"#utility.yul\":11103:11120   */\n      add\n        /* \"#utility.yul\":11096:11143   */\n      mstore\n        /* \"#utility.yul\":11160:11291   */\n      tag_218\n        /* \"#utility.yul\":11286:11290   */\n      dup2\n        /* \"#utility.yul\":11160:11291   */\n      tag_115\n      jump\t// in\n    tag_218:\n        /* \"#utility.yul\":11152:11291   */\n      swap1\n      pop\n        /* \"#utility.yul\":10879:11298   */\n      swap2\n      swap1\n      pop\n      jump\t// out\n        /* \"#utility.yul\":11304:11480   */\n    tag_116:\n        /* \"#utility.yul\":11444:11472   */\n      0x536166654d6174683a206469766973696f6e206279207a65726f000000000000\n        /* \"#utility.yul\":11440:11441   */\n      0x00\n        /* \"#utility.yul\":11432:11438   */\n      dup3\n        /* \"#utility.yul\":11428:11442   */\n      add\n        /* \"#utility.yul\":11421:11473   */\n      mstore\n        /* \"#utility.yul\":11304:11480   */\n      pop\n      jump\t// out\n        /* \"#utility.yul\":11486:11852   */\n    tag_117:\n        /* \"#utility.yul\":11628:11631   */\n      0x00\n        /* \"#utility.yul\":11649:11716   */\n      tag_221\n        /* \"#utility.yul\":11713:11715   */\n      0x1a\n        /* \"#utility.yul\":11708:11711   */\n      dup4\n        /* \"#utility.yul\":11649:11716   */\n      tag_99\n      jump\t// in\n    tag_221:\n        /* \"#utility.yul\":11642:11716   */\n      swap2\n      pop\n        /* \"#utility.yul\":11725:11818   */\n      tag_222\n        /* \"#utility.yul\":11814:11817   */\n      dup3\n        /* \"#utility.yul\":11725:11818   */\n      tag_116\n      jump\t// in\n    tag_222:\n        /* \"#utility.yul\":11843:11845   */\n      0x20\n        /* \"#utility.yul\":11838:11841   */\n      dup3\n        /* \"#utility.yul\":11834:11846   */\n      add\n        /* \"#utility.yul\":11827:11846   */\n      swap1\n      pop\n        /* \"#utility.yul\":11486:11852   */\n      swap2\n      swap1\n      pop\n      jump\t// out\n        /* \"#utility.yul\":11858:12277   */\n    tag_86:\n        /* \"#utility.yul\":12024:12028   */\n      0x00\n        /* \"#utility.yul\":12062:12064   */\n      0x20\n        /* \"#utility.yul\":12051:12060   */\n      dup3\n        /* \"#utility.yul\":12047:12065   */\n      add\n        /* \"#utility.yul\":12039:12065   */\n      swap1\n      pop\n        /* \"#utility.yul\":12111:12120   */\n      dup2\n        /* \"#utility.yul\":12105:12109   */\n      dup2\n        /* \"#utility.yul\":12101:12121   */\n      sub\n        /* \"#utility.yul\":12097:12098   */\n      0x00\n        /* \"#utility.yul\":12086:12095   */\n      dup4\n        /* \"#utility.yul\":12082:12099   */\n      add\n        /* \"#utility.yul\":12075:12122   */\n      mstore\n        /* \"#utility.yul\":12139:12270   */\n      tag_224\n        /* \"#utility.yul\":12265:12269   */\n      dup2\n        /* \"#utility.yul\":12139:12270   */\n      tag_117\n      jump\t// in\n    tag_224:\n        /* \"#utility.yul\":12131:12270   */\n      swap1\n      pop\n        /* \"#utility.yul\":11858:12277   */\n      swap2\n      swap1\n      pop\n      jump\t// out\n\n    auxdata: 0xa2646970667358221220a550d1fc8348b9962030292d06a4dee47b9594bad852a693cfbe579f869ca00e64736f6c634300081e0033\n}\n",
				"bytecode": {
					"linkReferences": {},
					"object": "6080604052348015600e575f5ffd5b50610e858061001c5f395ff3fe608060405260043610610049575f3560e01c806327e235e31461004d5780632e1a7d4d14610089578063a9059cbb146100b1578063d0e30db0146100d9578063d7dc6203146100e3575b5f5ffd5b348015610058575f5ffd5b50610073600480360381019061006e9190610847565b61011f565b604051610080919061088a565b60405180910390f35b348015610094575f5ffd5b506100af60048036038101906100aa91906108cd565b610133565b005b3480156100bc575f5ffd5b506100d760048036038101906100d291906108f8565b610299565b005b6100e16104d0565b005b3480156100ee575f5ffd5b50610109600480360381019061010491906108f8565b6105f1565b604051610116919061088a565b60405180910390f35b5f602052805f5260405f205f915090505481565b5f8111610175576040517f08c379a000000000000000000000000000000000000000000000000000000000815260040161016c906109b6565b60405180910390fd5b6101c4815f5f3373ffffffffffffffffffffffffffffffffffffffff1673ffffffffffffffffffffffffffffffffffffffff1681526020019081526020015f205461065c90919063ffffffff16565b5f5f3373ffffffffffffffffffffffffffffffffffffffff1673ffffffffffffffffffffffffffffffffffffffff1681526020019081526020015f20819055503373ffffffffffffffffffffffffffffffffffffffff166108fc8290811502906040515f60405180830381858888f19350505050158015610247573d5f5f3e3d5ffd5b503373ffffffffffffffffffffffffffffffffffffffff167f884edad9ce6fa2440d8a54cc123490eb96d2768479d49ff9c7366125a94243648260405161028e919061088a565b60405180910390a250565b5f73ffffffffffffffffffffffffffffffffffffffff168273ffffffffffffffffffffffffffffffffffffffff1603610307576040517f08c379a00000000000000000000000000000000000000000000000000000000081526004016102fe90610a1e565b60405180910390fd5b5f8111610349576040517f08c379a000000000000000000000000000000000000000000000000000000000815260040161034090610aac565b60405180910390fd5b610398815f5f3373ffffffffffffffffffffffffffffffffffffffff1673ffffffffffffffffffffffffffffffffffffffff1681526020019081526020015f205461065c90919063ffffffff16565b5f5f3373ffffffffffffffffffffffffffffffffffffffff1673ffffffffffffffffffffffffffffffffffffffff1681526020019081526020015f2081905550610427815f5f8573ffffffffffffffffffffffffffffffffffffffff1673ffffffffffffffffffffffffffffffffffffffff1681526020019081526020015f20546106b990919063ffffffff16565b5f5f8473ffffffffffffffffffffffffffffffffffffffff1673ffffffffffffffffffffffffffffffffffffffff1681526020019081526020015f20819055508173ffffffffffffffffffffffffffffffffffffffff163373ffffffffffffffffffffffffffffffffffffffff167fddf252ad1be2c89b69c2b068fc378daa952ba7f163c4a11628f55a4df523b3ef836040516104c4919061088a565b60405180910390a35050565b5f3411610512576040517f08c379a000000000000000000000000000000000000000000000000000000000815260040161050990610b3a565b60405180910390fd5b610561345f5f3373ffffffffffffffffffffffffffffffffffffffff1673ffffffffffffffffffffffffffffffffffffffff1681526020019081526020015f20546106b990919063ffffffff16565b5f5f3373ffffffffffffffffffffffffffffffffffffffff1673ffffffffffffffffffffffffffffffffffffffff1681526020019081526020015f20819055503373ffffffffffffffffffffffffffffffffffffffff167fe1fffcc4923d04b559f4d29a8bfc6cda04eb5b0d3c460751c2402c5c5cc9109c346040516105e7919061088a565b60405180910390a2565b5f6106546064610646845f5f8873ffffffffffffffffffffffffffffffffffffffff1673ffffffffffffffffffffffffffffffffffffffff1681526020019081526020015f205461071690919063ffffffff16565b61078d90919063ffffffff16565b905092915050565b5f828211156106a0576040517f08c379a000000000000000000000000000000000000000000000000000000000815260040161069790610ba2565b60405180910390fd5b5f82846106ad9190610bed565b90508091505092915050565b5f5f82846106c79190610c20565b90508381101561070c576040517f08c379a000000000000000000000000000000000000000000000000000000000815260040161070390610c9d565b60405180910390fd5b8091505092915050565b5f5f8303610726575f9050610787565b5f82846107339190610cbb565b90508284826107429190610d29565b14610782576040517f08c379a000000000000000000000000000000000000000000000000000000000815260040161077990610dc9565b60405180910390fd5b809150505b92915050565b5f5f82116107d0576040517f08c379a00000000000000000000000000000000000000000000000000000000081526004016107c790610e31565b60405180910390fd5b5f82846107dd9190610d29565b90508091505092915050565b5f5ffd5b5f73ffffffffffffffffffffffffffffffffffffffff82169050919050565b5f610816826107ed565b9050919050565b6108268161080c565b8114610830575f5ffd5b50565b5f813590506108418161081d565b92915050565b5f6020828403121561085c5761085b6107e9565b5b5f61086984828501610833565b91505092915050565b5f819050919050565b61088481610872565b82525050565b5f60208201905061089d5f83018461087b565b92915050565b6108ac81610872565b81146108b6575f5ffd5b50565b5f813590506108c7816108a3565b92915050565b5f602082840312156108e2576108e16107e9565b5b5f6108ef848285016108b9565b91505092915050565b5f5f6040838503121561090e5761090d6107e9565b5b5f61091b85828601610833565b925050602061092c858286016108b9565b9150509250929050565b5f82825260208201905092915050565b7f576974686472617720616d6f756e74206d7573742062652067726561746572205f8201527f7468616e20300000000000000000000000000000000000000000000000000000602082015250565b5f6109a0602683610936565b91506109ab82610946565b604082019050919050565b5f6020820190508181035f8301526109cd81610994565b9050919050565b7f43616e6e6f74207472616e7366657220746f207a65726f2061646472657373005f82015250565b5f610a08601f83610936565b9150610a13826109d4565b602082019050919050565b5f6020820190508181035f830152610a35816109fc565b9050919050565b7f5472616e7366657220616d6f756e74206d7573742062652067726561746572205f8201527f7468616e20300000000000000000000000000000000000000000000000000000602082015250565b5f610a96602683610936565b9150610aa182610a3c565b604082019050919050565b5f6020820190508181035f830152610ac381610a8a565b9050919050565b7f4465706f73697420616d6f756e74206d757374206265206772656174657220745f8201527f68616e2030000000000000000000000000000000000000000000000000000000602082015250565b5f610b24602583610936565b9150610b2f82610aca565b604082019050919050565b5f6020820190508181035f830152610b5181610b18565b9050919050565b7f536166654d6174683a207375627472616374696f6e20756e646572666c6f77005f82015250565b5f610b8c601f83610936565b9150610b9782610b58565b602082019050919050565b5f6020820190508181035f830152610bb981610b80565b9050919050565b7f4e487b71000000000000000000000000000000000000000000000000000000005f52601160045260245ffd5b5f610bf782610872565b9150610c0283610872565b9250828203905081811115610c1a57610c19610bc0565b5b92915050565b5f610c2a82610872565b9150610c3583610872565b9250828201905080821115610c4d57610c4c610bc0565b5b92915050565b7f536166654d6174683a206164646974696f6e206f766572666c6f7700000000005f82015250565b5f610c87601b83610936565b9150610c9282610c53565b602082019050919050565b5f6020820190508181035f830152610cb481610c7b565b9050919050565b5f610cc582610872565b9150610cd083610872565b9250828202610cde81610872565b91508282048414831517610cf557610cf4610bc0565b5b5092915050565b7f4e487b71000000000000000000000000000000000000000000000000000000005f52601260045260245ffd5b5f610d3382610872565b9150610d3e83610872565b925082610d4e57610d4d610cfc565b5b828204905092915050565b7f536166654d6174683a206d756c7469706c69636174696f6e206f766572666c6f5f8201527f7700000000000000000000000000000000000000000000000000000000000000602082015250565b5f610db3602183610936565b9150610dbe82610d59565b604082019050919050565b5f6020820190508181035f830152610de081610da7565b9050919050565b7f536166654d6174683a206469766973696f6e206279207a65726f0000000000005f82015250565b5f610e1b601a83610936565b9150610e2682610de7565b602082019050919050565b5f6020820190508181035f830152610e4881610e0f565b905091905056fea2646970667358221220a550d1fc8348b9962030292d06a4dee47b9594bad852a693cfbe579f869ca00e64736f6c634300081e0033",
					"opcodes": "PUSH1 0x80 PUSH1 0x40 MSTORE CALLVALUE DUP1 ISZERO PUSH1 0xE JUMPI PUSH0 PUSH0 REVERT JUMPDEST POP PUSH2 0xE85 DUP1 PUSH2 0x1C PUSH0 CODECOPY PUSH0 RETURN INVALID PUSH1 0x80 PUSH1 0x40 MSTORE PUSH1 0x4 CALLDATASIZE LT PUSH2 0x49 JUMPI PUSH0 CALLDATALOAD PUSH1 0xE0 SHR DUP1 PUSH4 0x27E235E3 EQ PUSH2 0x4D JUMPI DUP1 PUSH4 0x2E1A7D4D EQ PUSH2 0x89 JUMPI DUP1 PUSH4 0xA9059CBB EQ PUSH2 0xB1 JUMPI DUP1 PUSH4 0xD0E30DB0 EQ PUSH2 0xD9 JUMPI DUP1 PUSH4 0xD7DC6203 EQ PUSH2 0xE3 JUMPI JUMPDEST PUSH0 PUSH0 REVERT JUMPDEST CALLVALUE DUP1 ISZERO PUSH2 0x58 JUMPI PUSH0 PUSH0 REVERT JUMPDEST POP PUSH2 0x73 PUSH1 0x4 DUP1 CALLDATASIZE SUB DUP2 ADD SWAP1 PUSH2 0x6E SWAP2 SWAP1 PUSH2 0x847 JUMP JUMPDEST PUSH2 0x11F JUMP JUMPDEST PUSH1 0x40 MLOAD PUSH2 0x80 SWAP2 SWAP1 PUSH2 0x88A JUMP JUMPDEST PUSH1 0x40 MLOAD DUP1 SWAP2 SUB SWAP1 RETURN JUMPDEST CALLVALUE DUP1 ISZERO PUSH2 0x94 JUMPI PUSH0 PUSH0 REVERT JUMPDEST POP PUSH2 0xAF PUSH1 0x4 DUP1 CALLDATASIZE SUB DUP2 ADD SWAP1 PUSH2 0xAA SWAP2 SWAP1 PUSH2 0x8CD JUMP JUMPDEST PUSH2 0x133 JUMP JUMPDEST STOP JUMPDEST CALLVALUE DUP1 ISZERO PUSH2 0xBC JUMPI PUSH0 PUSH0 REVERT JUMPDEST POP PUSH2 0xD7 PUSH1 0x4 DUP1 CALLDATASIZE SUB DUP2 ADD SWAP1 PUSH2 0xD2 SWAP2 SWAP1 PUSH2 0x8F8 JUMP JUMPDEST PUSH2 0x299 JUMP JUMPDEST STOP JUMPDEST PUSH2 0xE1 PUSH2 0x4D0 JUMP JUMPDEST STOP JUMPDEST CALLVALUE DUP1 ISZERO PUSH2 0xEE JUMPI PUSH0 PUSH0 REVERT JUMPDEST POP PUSH2 0x109 PUSH1 0x4 DUP1 CALLDATASIZE SUB DUP2 ADD SWAP1 PUSH2 0x104 SWAP2 SWAP1 PUSH2 0x8F8 JUMP JUMPDEST PUSH2 0x5F1 JUMP JUMPDEST PUSH1 0x40 MLOAD PUSH2 0x116 SWAP2 SWAP1 PUSH2 0x88A JUMP JUMPDEST PUSH1 0x40 MLOAD DUP1 SWAP2 SUB SWAP1 RETURN JUMPDEST PUSH0 PUSH1 0x20 MSTORE DUP1 PUSH0 MSTORE PUSH1 0x40 PUSH0 KECCAK256 PUSH0 SWAP2 POP SWAP1 POP SLOAD DUP2 JUMP JUMPDEST PUSH0 DUP2 GT PUSH2 0x175 JUMPI PUSH1 0x40 MLOAD PUSH32 0x8C379A000000000000000000000000000000000000000000000000000000000 DUP2 MSTORE PUSH1 0x4 ADD PUSH2 0x16C SWAP1 PUSH2 0x9B6 JUMP JUMPDEST PUSH1 0x40 MLOAD DUP1 SWAP2 SUB SWAP1 REVERT JUMPDEST PUSH2 0x1C4 DUP2 PUSH0 PUSH0 CALLER PUSH20 0xFFFFFFFFFFFFFFFFFFFFFFFFFFFFFFFFFFFFFFFF AND PUSH20 0xFFFFFFFFFFFFFFFFFFFFFFFFFFFFFFFFFFFFFFFF AND DUP2 MSTORE PUSH1 0x20 ADD SWAP1 DUP2 MSTORE PUSH1 0x20 ADD PUSH0 KECCAK256 SLOAD PUSH2 0x65C SWAP1 SWAP2 SWAP1 PUSH4 0xFFFFFFFF AND JUMP JUMPDEST PUSH0 PUSH0 CALLER PUSH20 0xFFFFFFFFFFFFFFFFFFFFFFFFFFFFFFFFFFFFFFFF AND PUSH20 0xFFFFFFFFFFFFFFFFFFFFFFFFFFFFFFFFFFFFFFFF AND DUP2 MSTORE PUSH1 0x20 ADD SWAP1 DUP2 MSTORE PUSH1 0x20 ADD PUSH0 KECCAK256 DUP2 SWAP1 SSTORE POP CALLER PUSH20 0xFFFFFFFFFFFFFFFFFFFFFFFFFFFFFFFFFFFFFFFF AND PUSH2 0x8FC DUP3 SWAP1 DUP2 ISZERO MUL SWAP1 PUSH1 0x40 MLOAD PUSH0 PUSH1 0x40 MLOAD DUP1 DUP4 SUB DUP2 DUP6 DUP9 DUP9 CALL SWAP4 POP POP POP POP ISZERO DUP1 ISZERO PUSH2 0x247 JUMPI RETURNDATASIZE PUSH0 PUSH0 RETURNDATACOPY RETURNDATASIZE PUSH0 REVERT JUMPDEST POP CALLER PUSH20 0xFFFFFFFFFFFFFFFFFFFFFFFFFFFFFFFFFFFFFFFF AND PUSH32 0x884EDAD9CE6FA2440D8A54CC123490EB96D2768479D49FF9C7366125A9424364 DUP3 PUSH1 0x40 MLOAD PUSH2 0x28E SWAP2 SWAP1 PUSH2 0x88A JUMP JUMPDEST PUSH1 0x40 MLOAD DUP1 SWAP2 SUB SWAP1 LOG2 POP JUMP JUMPDEST PUSH0 PUSH20 0xFFFFFFFFFFFFFFFFFFFFFFFFFFFFFFFFFFFFFFFF AND DUP3 PUSH20 0xFFFFFFFFFFFFFFFFFFFFFFFFFFFFFFFFFFFFFFFF AND SUB PUSH2 0x307 JUMPI PUSH1 0x40 MLOAD PUSH32 0x8C379A000000000000000000000000000000000000000000000000000000000 DUP2 MSTORE PUSH1 0x4 ADD PUSH2 0x2FE SWAP1 PUSH2 0xA1E JUMP JUMPDEST PUSH1 0x40 MLOAD DUP1 SWAP2 SUB SWAP1 REVERT JUMPDEST PUSH0 DUP2 GT PUSH2 0x349 JUMPI PUSH1 0x40 MLOAD PUSH32 0x8C379A000000000000000000000000000000000000000000000000000000000 DUP2 MSTORE PUSH1 0x4 ADD PUSH2 0x340 SWAP1 PUSH2 0xAAC JUMP JUMPDEST PUSH1 0x40 MLOAD DUP1 SWAP2 SUB SWAP1 REVERT JUMPDEST PUSH2 0x398 DUP2 PUSH0 PUSH0 CALLER PUSH20 0xFFFFFFFFFFFFFFFFFFFFFFFFFFFFFFFFFFFFFFFF AND PUSH20 0xFFFFFFFFFFFFFFFFFFFFFFFFFFFFFFFFFFFFFFFF AND DUP2 MSTORE PUSH1 0x20 ADD SWAP1 DUP2 MSTORE PUSH1 0x20 ADD PUSH0 KECCAK256 SLOAD PUSH2 0x65C SWAP1 SWAP2 SWAP1 PUSH4 0xFFFFFFFF AND JUMP JUMPDEST PUSH0 PUSH0 CALLER PUSH20 0xFFFFFFFFFFFFFFFFFFFFFFFFFFFFFFFFFFFFFFFF AND PUSH20 0xFFFFFFFFFFFFFFFFFFFFFFFFFFFFFFFFFFFFFFFF AND DUP2 MSTORE PUSH1 0x20 ADD SWAP1 DUP2 MSTORE PUSH1 0x20 ADD PUSH0 KECCAK256 DUP2 SWAP1 SSTORE POP PUSH2 0x427 DUP2 PUSH0 PUSH0 DUP6 PUSH20 0xFFFFFFFFFFFFFFFFFFFFFFFFFFFFFFFFFFFFFFFF AND PUSH20 0xFFFFFFFFFFFFFFFFFFFFFFFFFFFFFFFFFFFFFFFF AND DUP2 MSTORE PUSH1 0x20 ADD SWAP1 DUP2 MSTORE PUSH1 0x20 ADD PUSH0 KECCAK256 SLOAD PUSH2 0x6B9 SWAP1 SWAP2 SWAP1 PUSH4 0xFFFFFFFF AND JUMP JUMPDEST PUSH0 PUSH0 DUP5 PUSH20 0xFFFFFFFFFFFFFFFFFFFFFFFFFFFFFFFFFFFFFFFF AND PUSH20 0xFFFFFFFFFFFFFFFFFFFFFFFFFFFFFFFFFFFFFFFF AND DUP2 MSTORE PUSH1 0x20 ADD SWAP1 DUP2 MSTORE PUSH1 0x20 ADD PUSH0 KECCAK256 DUP2 SWAP1 SSTORE POP DUP2 PUSH20 0xFFFFFFFFFFFFFFFFFFFFFFFFFFFFFFFFFFFFFFFF AND CALLER PUSH20 0xFFFFFFFFFFFFFFFFFFFFFFFFFFFFFFFFFFFFFFFF AND PUSH32 0xDDF252AD1BE2C89B69C2B068FC378DAA952BA7F163C4A11628F55A4DF523B3EF DUP4 PUSH1 0x40 MLOAD PUSH2 0x4C4 SWAP2 SWAP1 PUSH2 0x88A JUMP JUMPDEST PUSH1 0x40 MLOAD DUP1 SWAP2 SUB SWAP1 LOG3 POP POP JUMP JUMPDEST PUSH0 CALLVALUE GT PUSH2 0x512 JUMPI PUSH1 0x40 MLOAD PUSH32 0x8C379A000000000000000000000000000000000000000000000000000000000 DUP2 MSTORE PUSH1 0x4 ADD PUSH2 0x509 SWAP1 PUSH2 0xB3A JUMP JUMPDEST PUSH1 0x40 MLOAD DUP1 SWAP2 SUB SWAP1 REVERT JUMPDEST PUSH2 0x561 CALLVALUE PUSH0 PUSH0 CALLER PUSH20 0xFFFFFFFFFFFFFFFFFFFFFFFFFFFFFFFFFFFFFFFF AND PUSH20 0xFFFFFFFFFFFFFFFFFFFFFFFFFFFFFFFFFFFFFFFF AND DUP2 MSTORE PUSH1 0x20 ADD SWAP1 DUP2 MSTORE PUSH1 0x20 ADD PUSH0 KECCAK256 SLOAD PUSH2 0x6B9 SWAP1 SWAP2 SWAP1 PUSH4 0xFFFFFFFF AND JUMP JUMPDEST PUSH0 PUSH0 CALLER PUSH20 0xFFFFFFFFFFFFFFFFFFFFFFFFFFFFFFFFFFFFFFFF AND PUSH20 0xFFFFFFFFFFFFFFFFFFFFFFFFFFFFFFFFFFFFFFFF AND DUP2 MSTORE PUSH1 0x20 ADD SWAP1 DUP2 MSTORE PUSH1 0x20 ADD PUSH0 KECCAK256 DUP2 SWAP1 SSTORE POP CALLER PUSH20 0xFFFFFFFFFFFFFFFFFFFFFFFFFFFFFFFFFFFFFFFF AND PUSH32 0xE1FFFCC4923D04B559F4D29A8BFC6CDA04EB5B0D3C460751C2402C5C5CC9109C CALLVALUE PUSH1 0x40 MLOAD PUSH2 0x5E7 SWAP2 SWAP1 PUSH2 0x88A JUMP JUMPDEST PUSH1 0x40 MLOAD DUP1 SWAP2 SUB SWAP1 LOG2 JUMP JUMPDEST PUSH0 PUSH2 0x654 PUSH1 0x64 PUSH2 0x646 DUP5 PUSH0 PUSH0 DUP9 PUSH20 0xFFFFFFFFFFFFFFFFFFFFFFFFFFFFFFFFFFFFFFFF AND PUSH20 0xFFFFFFFFFFFFFFFFFFFFFFFFFFFFFFFFFFFFFFFF AND DUP2 MSTORE PUSH1 0x20 ADD SWAP1 DUP2 MSTORE PUSH1 0x20 ADD PUSH0 KECCAK256 SLOAD PUSH2 0x716 SWAP1 SWAP2 SWAP1 PUSH4 0xFFFFFFFF AND JUMP JUMPDEST PUSH2 0x78D SWAP1 SWAP2 SWAP1 PUSH4 0xFFFFFFFF AND JUMP JUMPDEST SWAP1 POP SWAP3 SWAP2 POP POP JUMP JUMPDEST PUSH0 DUP3 DUP3 GT ISZERO PUSH2 0x6A0 JUMPI PUSH1 0x40 MLOAD PUSH32 0x8C379A000000000000000000000000000000000000000000000000000000000 DUP2 MSTORE PUSH1 0x4 ADD PUSH2 0x697 SWAP1 PUSH2 0xBA2 JUMP JUMPDEST PUSH1 0x40 MLOAD DUP1 SWAP2 SUB SWAP1 REVERT JUMPDEST PUSH0 DUP3 DUP5 PUSH2 0x6AD SWAP2 SWAP1 PUSH2 0xBED JUMP JUMPDEST SWAP1 POP DUP1 SWAP2 POP POP SWAP3 SWAP2 POP POP JUMP JUMPDEST PUSH0 PUSH0 DUP3 DUP5 PUSH2 0x6C7 SWAP2 SWAP1 PUSH2 0xC20 JUMP JUMPDEST SWAP1 POP DUP4 DUP2 LT ISZERO PUSH2 0x70C JUMPI PUSH1 0x40 MLOAD PUSH32 0x8C379A000000000000000000000000000000000000000000000000000000000 DUP2 MSTORE PUSH1 0x4 ADD PUSH2 0x703 SWAP1 PUSH2 0xC9D JUMP JUMPDEST PUSH1 0x40 MLOAD DUP1 SWAP2 SUB SWAP1 REVERT JUMPDEST DUP1 SWAP2 POP POP SWAP3 SWAP2 POP POP JUMP JUMPDEST PUSH0 PUSH0 DUP4 SUB PUSH2 0x726 JUMPI PUSH0 SWAP1 POP PUSH2 0x787 JUMP JUMPDEST PUSH0 DUP3 DUP5 PUSH2 0x733 SWAP2 SWAP1 PUSH2 0xCBB JUMP JUMPDEST SWAP1 POP DUP3 DUP5 DUP3 PUSH2 0x742 SWAP2 SWAP1 PUSH2 0xD29 JUMP JUMPDEST EQ PUSH2 0x782 JUMPI PUSH1 0x40 MLOAD PUSH32 0x8C379A000000000000000000000000000000000000000000000000000000000 DUP2 MSTORE PUSH1 0x4 ADD PUSH2 0x779 SWAP1 PUSH2 0xDC9 JUMP JUMPDEST PUSH1 0x40 MLOAD DUP1 SWAP2 SUB SWAP1 REVERT JUMPDEST DUP1 SWAP2 POP POP JUMPDEST SWAP3 SWAP2 POP POP JUMP JUMPDEST PUSH0 PUSH0 DUP3 GT PUSH2 0x7D0 JUMPI PUSH1 0x40 MLOAD PUSH32 0x8C379A000000000000000000000000000000000000000000000000000000000 DUP2 MSTORE PUSH1 0x4 ADD PUSH2 0x7C7 SWAP1 PUSH2 0xE31 JUMP JUMPDEST PUSH1 0x40 MLOAD DUP1 SWAP2 SUB SWAP1 REVERT JUMPDEST PUSH0 DUP3 DUP5 PUSH2 0x7DD SWAP2 SWAP1 PUSH2 0xD29 JUMP JUMPDEST SWAP1 POP DUP1 SWAP2 POP POP SWAP3 SWAP2 POP POP JUMP JUMPDEST PUSH0 PUSH0 REVERT JUMPDEST PUSH0 PUSH20 0xFFFFFFFFFFFFFFFFFFFFFFFFFFFFFFFFFFFFFFFF DUP3 AND SWAP1 POP SWAP2 SWAP1 POP JUMP JUMPDEST PUSH0 PUSH2 0x816 DUP3 PUSH2 0x7ED JUMP JUMPDEST SWAP1 POP SWAP2 SWAP1 POP JUMP JUMPDEST PUSH2 0x826 DUP2 PUSH2 0x80C JUMP JUMPDEST DUP2 EQ PUSH2 0x830 JUMPI PUSH0 PUSH0 REVERT JUMPDEST POP JUMP JUMPDEST PUSH0 DUP2 CALLDATALOAD SWAP1 POP PUSH2 0x841 DUP2 PUSH2 0x81D JUMP JUMPDEST SWAP3 SWAP2 POP POP JUMP JUMPDEST PUSH0 PUSH1 0x20 DUP3 DUP5 SUB SLT ISZERO PUSH2 0x85C JUMPI PUSH2 0x85B PUSH2 0x7E9 JUMP JUMPDEST JUMPDEST PUSH0 PUSH2 0x869 DUP5 DUP3 DUP6 ADD PUSH2 0x833 JUMP JUMPDEST SWAP2 POP POP SWAP3 SWAP2 POP POP JUMP JUMPDEST PUSH0 DUP2 SWAP1 POP SWAP2 SWAP1 POP JUMP JUMPDEST PUSH2 0x884 DUP2 PUSH2 0x872 JUMP JUMPDEST DUP3 MSTORE POP POP JUMP JUMPDEST PUSH0 PUSH1 0x20 DUP3 ADD SWAP1 POP PUSH2 0x89D PUSH0 DUP4 ADD DUP5 PUSH2 0x87B JUMP JUMPDEST SWAP3 SWAP2 POP POP JUMP JUMPDEST PUSH2 0x8AC DUP2 PUSH2 0x872 JUMP JUMPDEST DUP2 EQ PUSH2 0x8B6 JUMPI PUSH0 PUSH0 REVERT JUMPDEST POP JUMP JUMPDEST PUSH0 DUP2 CALLDATALOAD SWAP1 POP PUSH2 0x8C7 DUP2 PUSH2 0x8A3 JUMP JUMPDEST SWAP3 SWAP2 POP POP JUMP JUMPDEST PUSH0 PUSH1 0x20 DUP3 DUP5 SUB SLT ISZERO PUSH2 0x8E2 JUMPI PUSH2 0x8E1 PUSH2 0x7E9 JUMP JUMPDEST JUMPDEST PUSH0 PUSH2 0x8EF DUP5 DUP3 DUP6 ADD PUSH2 0x8B9 JUMP JUMPDEST SWAP2 POP POP SWAP3 SWAP2 POP POP JUMP JUMPDEST PUSH0 PUSH0 PUSH1 0x40 DUP4 DUP6 SUB SLT ISZERO PUSH2 0x90E JUMPI PUSH2 0x90D PUSH2 0x7E9 JUMP JUMPDEST JUMPDEST PUSH0 PUSH2 0x91B DUP6 DUP3 DUP7 ADD PUSH2 0x833 JUMP JUMPDEST SWAP3 POP POP PUSH1 0x20 PUSH2 0x92C DUP6 DUP3 DUP7 ADD PUSH2 0x8B9 JUMP JUMPDEST SWAP2 POP POP SWAP3 POP SWAP3 SWAP1 POP JUMP JUMPDEST PUSH0 DUP3 DUP3 MSTORE PUSH1 0x20 DUP3 ADD SWAP1 POP SWAP3 SWAP2 POP POP JUMP JUMPDEST PUSH32 0x576974686472617720616D6F756E74206D757374206265206772656174657220 PUSH0 DUP3 ADD MSTORE PUSH32 0x7468616E20300000000000000000000000000000000000000000000000000000 PUSH1 0x20 DUP3 ADD MSTORE POP JUMP JUMPDEST PUSH0 PUSH2 0x9A0 PUSH1 0x26 DUP4 PUSH2 0x936 JUMP JUMPDEST SWAP2 POP PUSH2 0x9AB DUP3 PUSH2 0x946 JUMP JUMPDEST PUSH1 0x40 DUP3 ADD SWAP1 POP SWAP2 SWAP1 POP JUMP JUMPDEST PUSH0 PUSH1 0x20 DUP3 ADD SWAP1 POP DUP2 DUP2 SUB PUSH0 DUP4 ADD MSTORE PUSH2 0x9CD DUP2 PUSH2 0x994 JUMP JUMPDEST SWAP1 POP SWAP2 SWAP1 POP JUMP JUMPDEST PUSH32 0x43616E6E6F74207472616E7366657220746F207A65726F206164647265737300 PUSH0 DUP3 ADD MSTORE POP JUMP JUMPDEST PUSH0 PUSH2 0xA08 PUSH1 0x1F DUP4 PUSH2 0x936 JUMP JUMPDEST SWAP2 POP PUSH2 0xA13 DUP3 PUSH2 0x9D4 JUMP JUMPDEST PUSH1 0x20 DUP3 ADD SWAP1 POP SWAP2 SWAP1 POP JUMP JUMPDEST PUSH0 PUSH1 0x20 DUP3 ADD SWAP1 POP DUP2 DUP2 SUB PUSH0 DUP4 ADD MSTORE PUSH2 0xA35 DUP2 PUSH2 0x9FC JUMP JUMPDEST SWAP1 POP SWAP2 SWAP1 POP JUMP JUMPDEST PUSH32 0x5472616E7366657220616D6F756E74206D757374206265206772656174657220 PUSH0 DUP3 ADD MSTORE PUSH32 0x7468616E20300000000000000000000000000000000000000000000000000000 PUSH1 0x20 DUP3 ADD MSTORE POP JUMP JUMPDEST PUSH0 PUSH2 0xA96 PUSH1 0x26 DUP4 PUSH2 0x936 JUMP JUMPDEST SWAP2 POP PUSH2 0xAA1 DUP3 PUSH2 0xA3C JUMP JUMPDEST PUSH1 0x40 DUP3 ADD SWAP1 POP SWAP2 SWAP1 POP JUMP JUMPDEST PUSH0 PUSH1 0x20 DUP3 ADD SWAP1 POP DUP2 DUP2 SUB PUSH0 DUP4 ADD MSTORE PUSH2 0xAC3 DUP2 PUSH2 0xA8A JUMP JUMPDEST SWAP1 POP SWAP2 SWAP1 POP JUMP JUMPDEST PUSH32 0x4465706F73697420616D6F756E74206D75737420626520677265617465722074 PUSH0 DUP3 ADD MSTORE PUSH32 0x68616E2030000000000000000000000000000000000000000000000000000000 PUSH1 0x20 DUP3 ADD MSTORE POP JUMP JUMPDEST PUSH0 PUSH2 0xB24 PUSH1 0x25 DUP4 PUSH2 0x936 JUMP JUMPDEST SWAP2 POP PUSH2 0xB2F DUP3 PUSH2 0xACA JUMP JUMPDEST PUSH1 0x40 DUP3 ADD SWAP1 POP SWAP2 SWAP1 POP JUMP JUMPDEST PUSH0 PUSH1 0x20 DUP3 ADD SWAP1 POP DUP2 DUP2 SUB PUSH0 DUP4 ADD MSTORE PUSH2 0xB51 DUP2 PUSH2 0xB18 JUMP JUMPDEST SWAP1 POP SWAP2 SWAP1 POP JUMP JUMPDEST PUSH32 0x536166654D6174683A207375627472616374696F6E20756E646572666C6F7700 PUSH0 DUP3 ADD MSTORE POP JUMP JUMPDEST PUSH0 PUSH2 0xB8C PUSH1 0x1F DUP4 PUSH2 0x936 JUMP JUMPDEST SWAP2 POP PUSH2 0xB97 DUP3 PUSH2 0xB58 JUMP JUMPDEST PUSH1 0x20 DUP3 ADD SWAP1 POP SWAP2 SWAP1 POP JUMP JUMPDEST PUSH0 PUSH1 0x20 DUP3 ADD SWAP1 POP DUP2 DUP2 SUB PUSH0 DUP4 ADD MSTORE PUSH2 0xBB9 DUP2 PUSH2 0xB80 JUMP JUMPDEST SWAP1 POP SWAP2 SWAP1 POP JUMP JUMPDEST PUSH32 0x4E487B7100000000000000000000000000000000000000000000000000000000 PUSH0 MSTORE PUSH1 0x11 PUSH1 0x4 MSTORE PUSH1 0x24 PUSH0 REVERT JUMPDEST PUSH0 PUSH2 0xBF7 DUP3 PUSH2 0x872 JUMP JUMPDEST SWAP2 POP PUSH2 0xC02 DUP4 PUSH2 0x872 JUMP JUMPDEST SWAP3 POP DUP3 DUP3 SUB SWAP1 POP DUP2 DUP2 GT ISZERO PUSH2 0xC1A JUMPI PUSH2 0xC19 PUSH2 0xBC0 JUMP JUMPDEST JUMPDEST SWAP3 SWAP2 POP POP JUMP JUMPDEST PUSH0 PUSH2 0xC2A DUP3 PUSH2 0x872 JUMP JUMPDEST SWAP2 POP PUSH2 0xC35 DUP4 PUSH2 0x872 JUMP JUMPDEST SWAP3 POP DUP3 DUP3 ADD SWAP1 POP DUP1 DUP3 GT ISZERO PUSH2 0xC4D JUMPI PUSH2 0xC4C PUSH2 0xBC0 JUMP JUMPDEST JUMPDEST SWAP3 SWAP2 POP POP JUMP JUMPDEST PUSH32 0x536166654D6174683A206164646974696F6E206F766572666C6F770000000000 PUSH0 DUP3 ADD MSTORE POP JUMP JUMPDEST PUSH0 PUSH2 0xC87 PUSH1 0x1B DUP4 PUSH2 0x936 JUMP JUMPDEST SWAP2 POP PUSH2 0xC92 DUP3 PUSH2 0xC53 JUMP JUMPDEST PUSH1 0x20 DUP3 ADD SWAP1 POP SWAP2 SWAP1 POP JUMP JUMPDEST PUSH0 PUSH1 0x20 DUP3 ADD SWAP1 POP DUP2 DUP2 SUB PUSH0 DUP4 ADD MSTORE PUSH2 0xCB4 DUP2 PUSH2 0xC7B JUMP JUMPDEST SWAP1 POP SWAP2 SWAP1 POP JUMP JUMPDEST PUSH0 PUSH2 0xCC5 DUP3 PUSH2 0x872 JUMP JUMPDEST SWAP2 POP PUSH2 0xCD0 DUP4 PUSH2 0x872 JUMP JUMPDEST SWAP3 POP DUP3 DUP3 MUL PUSH2 0xCDE DUP2 PUSH2 0x872 JUMP JUMPDEST SWAP2 POP DUP3 DUP3 DIV DUP5 EQ DUP4 ISZERO OR PUSH2 0xCF5 JUMPI PUSH2 0xCF4 PUSH2 0xBC0 JUMP JUMPDEST JUMPDEST POP SWAP3 SWAP2 POP POP JUMP JUMPDEST PUSH32 0x4E487B7100000000000000000000000000000000000000000000000000000000 PUSH0 MSTORE PUSH1 0x12 PUSH1 0x4 MSTORE PUSH1 0x24 PUSH0 REVERT JUMPDEST PUSH0 PUSH2 0xD33 DUP3 PUSH2 0x872 JUMP JUMPDEST SWAP2 POP PUSH2 0xD3E DUP4 PUSH2 0x872 JUMP JUMPDEST SWAP3 POP DUP3 PUSH2 0xD4E JUMPI PUSH2 0xD4D PUSH2 0xCFC JUMP JUMPDEST JUMPDEST DUP3 DUP3 DIV SWAP1 POP SWAP3 SWAP2 POP POP JUMP JUMPDEST PUSH32 0x536166654D6174683A206D756C7469706C69636174696F6E206F766572666C6F PUSH0 DUP3 ADD MSTORE PUSH32 0x7700000000000000000000000000000000000000000000000000000000000000 PUSH1 0x20 DUP3 ADD MSTORE POP JUMP JUMPDEST PUSH0 PUSH2 0xDB3 PUSH1 0x21 DUP4 PUSH2 0x936 JUMP JUMPDEST SWAP2 POP PUSH2 0xDBE DUP3 PUSH2 0xD59 JUMP JUMPDEST PUSH1 0x40 DUP3 ADD SWAP1 POP SWAP2 SWAP1 POP JUMP JUMPDEST PUSH0 PUSH1 0x20 DUP3 ADD SWAP1 POP DUP2 DUP2 SUB PUSH0 DUP4 ADD MSTORE PUSH2 0xDE0 DUP2 PUSH2 0xDA7 JUMP JUMPDEST SWAP1 POP SWAP2 SWAP1 POP JUMP JUMPDEST PUSH32 0x536166654D6174683A206469766973696F6E206279207A65726F000000000000 PUSH0 DUP3 ADD MSTORE POP JUMP JUMPDEST PUSH0 PUSH2 0xE1B PUSH1 0x1A DUP4 PUSH2 0x936 JUMP JUMPDEST SWAP2 POP PUSH2 0xE26 DUP3 PUSH2 0xDE7 JUMP JUMPDEST PUSH1 0x20 DUP3 ADD SWAP1 POP SWAP2 SWAP1 POP JUMP JUMPDEST PUSH0 PUSH1 0x20 DUP3 ADD SWAP1 POP DUP2 DUP2 SUB PUSH0 DUP4 ADD MSTORE PUSH2 0xE48 DUP2 PUSH2 0xE0F JUMP JUMPDEST SWAP1 POP SWAP2 SWAP1 POP JUMP INVALID LOG2 PUSH5 0x6970667358 0x22 SLT KECCAK256 0xA5 POP DATALOADN 0xFC83 BASEFEE 0xB9 SWAP7 KECCAK256 ADDRESS 0x29 0x2D MOD LOG4 0xDE RETF PUSH28 0x9594BAD852A693CFBE579F869CA00E64736F6C634300081E00330000 "
				},
				"gasEstimates": {
					"creation": {
						"codeDepositCost": "743400",
						"executionCost": "777",
						"totalCost": "744177"
					},
					"external": {
						"balances(address)": "2779",
						"calculateInterest(address,uint256)": "infinite",
						"deposit()": "infinite",
						"transfer(address,uint256)": "infinite",
						"withdraw(uint256)": "infinite"
					}
				},
				"methodIdentifiers": {
					"balances(address)": "27e235e3",
					"calculateInterest(address,uint256)": "d7dc6203",
					"deposit()": "d0e30db0",
					"transfer(address,uint256)": "a9059cbb",
					"withdraw(uint256)": "2e1a7d4d"
				}
			},
			"storageLayout": {
				"storage": [
					{
						"astId": 139,
						"contract": "contracts/BankAccount.sol:BankAccount",
						"label": "balances",
						"offset": 0,
						"slot": "0",
						"type": "t_mapping(t_address,t_uint256)"
					}
				],
				"types": {
					"t_address": {
						"encoding": "inplace",
						"label": "address",
						"numberOfBytes": "20"
					},
					"t_mapping(t_address,t_uint256)": {
						"encoding": "mapping",
						"key": "t_address",
						"label": "mapping(address => uint256)",
						"numberOfBytes": "32",
						"value": "t_uint256"
					},
					"t_uint256": {
						"encoding": "inplace",
						"label": "uint256",
						"numberOfBytes": "32"
					}
				}
			},
			"userdoc": {
				"kind": "user",
				"methods": {},
				"version": 1
			}
		}
	}
}