{
	"data": {
		"bytecode": {
			"linkReferences": {},
			"object": "6080604052348015600e575f5ffd5b506105318061001c5f395ff3fe608060405234801561000f575f5ffd5b5060043610610029575f3560e01c8063066a7e601461002d575b5f5ffd5b61004760048036038101906100429190610309565b61005d565b6040516100549190610372565b60405180910390f35b5f5f83510361008e577fffffffffffffffffffffffffffffffffffffffffffffffffffffffffffffffff905061016f565b5f5f90505f600185516100a191906103b8565b90505b808213610149575f600283836100ba91906103b8565b6100c49190610425565b836100cf919061048d565b9050848682815181106100e5576100e46104ce565b5b6020026020010151036100fd5780935050505061016f565b84868281518110610111576101106104ce565b5b602002602001015112156101335760018161012c919061048d565b9250610143565b60018161014091906103b8565b91505b506100a4565b7fffffffffffffffffffffffffffffffffffffffffffffffffffffffffffffffff925050505b92915050565b5f604051905090565b5f5ffd5b5f5ffd5b5f5ffd5b5f601f19601f8301169050919050565b7f4e487b71000000000000000000000000000000000000000000000000000000005f52604160045260245ffd5b6101d08261018a565b810181811067ffffffffffffffff821117156101ef576101ee61019a565b5b80604052505050565b5f610201610175565b905061020d82826101c7565b919050565b5f67ffffffffffffffff82111561022c5761022b61019a565b5b602082029050602081019050919050565b5f5ffd5b5f819050919050565b61025381610241565b811461025d575f5ffd5b50565b5f8135905061026e8161024a565b92915050565b5f61028661028184610212565b6101f8565b905080838252602082019050602084028301858111156102a9576102a861023d565b5b835b818110156102d257806102be8882610260565b8452602084019350506020810190506102ab565b5050509392505050565b5f82601f8301126102f0576102ef610186565b5b8135610300848260208601610274565b91505092915050565b5f5f6040838503121561031f5761031e61017e565b5b5f83013567ffffffffffffffff81111561033c5761033b610182565b5b610348858286016102dc565b925050602061035985828601610260565b9150509250929050565b61036c81610241565b82525050565b5f6020820190506103855f830184610363565b92915050565b7f4e487b71000000000000000000000000000000000000000000000000000000005f52601160045260245ffd5b5f6103c282610241565b91506103cd83610241565b925082820390508181125f8412168282135f8512151617156103f2576103f161038b565b5b92915050565b7f4e487b71000000000000000000000000000000000000000000000000000000005f52601260045260245ffd5b5f61042f82610241565b915061043a83610241565b92508261044a576104496103f8565b5b60015f0383147f8000000000000000000000000000000000000000000000000000000000000000831416156104825761048161038b565b5b828205905092915050565b5f61049782610241565b91506104a283610241565b92508282019050828112155f8312168382125f8412151617156104c8576104c761038b565b5b92915050565b7f4e487b71000000000000000000000000000000000000000000000000000000005f52603260045260245ffdfea2646970667358221220b7914afce152f38efcf18a4c365ff65bf568f8d049e65b9dec41f4b0d7d19a4e64736f6c634300081e0033",
			"opcodes": "PUSH1 0x80 PUSH1 0x40 MSTORE CALLVALUE DUP1 ISZERO PUSH1 0xE JUMPI PUSH0 PUSH0 REVERT JUMPDEST POP PUSH2 0x531 DUP1 PUSH2 0x1C PUSH0 CODECOPY PUSH0 RETURN INVALID PUSH1 0x80 PUSH1 0x40 MSTORE CALLVALUE DUP1 ISZERO PUSH2 0xF JUMPI PUSH0 PUSH0 REVERT JUMPDEST POP PUSH1 0x4 CALLDATASIZE LT PUSH2 0x29 JUMPI PUSH0 CALLDATALOAD PUSH1 0xE0 SHR DUP1 PUSH4 0x66A7E60 EQ PUSH2 0x2D JUMPI JUMPDEST PUSH0 PUSH0 REVERT JUMPDEST PUSH2 0x47 PUSH1 0x4 DUP1 CALLDATASIZE SUB DUP2 ADD SWAP1 PUSH2 0x42 SWAP2 SWAP1 PUSH2 0x309 JUMP JUMPDEST PUSH2 0x5D JUMP JUMPDEST PUSH1 0x40 MLOAD PUSH2 0x54 SWAP2 SWAP1 PUSH2 0x372 JUMP JUMPDEST PUSH1 0x40 MLOAD DUP1 SWAP2 SUB SWAP1 RETURN JUMPDEST PUSH0 PUSH0 DUP4 MLOAD SUB PUSH2 0x8E JUMPI PUSH32 0xFFFFFFFFFFFFFFFFFFFFFFFFFFFFFFFFFFFFFFFFFFFFFFFFFFFFFFFFFFFFFFFF SWAP1 POP PUSH2 0x16F JUMP JUMPDEST PUSH0 PUSH0 SWAP1 POP PUSH0 PUSH1 0x1 DUP6 MLOAD PUSH2 0xA1 SWAP2 SWAP1 PUSH2 0x3B8 JUMP JUMPDEST SWAP1 POP JUMPDEST DUP1 DUP3 SGT PUSH2 0x149 JUMPI PUSH0 PUSH1 0x2 DUP4 DUP4 PUSH2 0xBA SWAP2 SWAP1 PUSH2 0x3B8 JUMP JUMPDEST PUSH2 0xC4 SWAP2 SWAP1 PUSH2 0x425 JUMP JUMPDEST DUP4 PUSH2 0xCF SWAP2 SWAP1 PUSH2 0x48D JUMP JUMPDEST SWAP1 POP DUP5 DUP7 DUP3 DUP2 MLOAD DUP2 LT PUSH2 0xE5 JUMPI PUSH2 0xE4 PUSH2 0x4CE JUMP JUMPDEST JUMPDEST PUSH1 0x20 MUL PUSH1 0x20 ADD ADD MLOAD SUB PUSH2 0xFD JUMPI DUP1 SWAP4 POP POP POP POP PUSH2 0x16F JUMP JUMPDEST DUP5 DUP7 DUP3 DUP2 MLOAD DUP2 LT PUSH2 0x111 JUMPI PUSH2 0x110 PUSH2 0x4CE JUMP JUMPDEST JUMPDEST PUSH1 0x20 MUL PUSH1 0x20 ADD ADD MLOAD SLT ISZERO PUSH2 0x133 JUMPI PUSH1 0x1 DUP2 PUSH2 0x12C SWAP2 SWAP1 PUSH2 0x48D JUMP JUMPDEST SWAP3 POP PUSH2 0x143 JUMP JUMPDEST PUSH1 0x1 DUP2 PUSH2 0x140 SWAP2 SWAP1 PUSH2 0x3B8 JUMP JUMPDEST SWAP2 POP JUMPDEST POP PUSH2 0xA4 JUMP JUMPDEST PUSH32 0xFFFFFFFFFFFFFFFFFFFFFFFFFFFFFFFFFFFFFFFFFFFFFFFFFFFFFFFFFFFFFFFF SWAP3 POP POP POP JUMPDEST SWAP3 SWAP2 POP POP JUMP JUMPDEST PUSH0 PUSH1 0x40 MLOAD SWAP1 POP SWAP1 JUMP JUMPDEST PUSH0 PUSH0 REVERT JUMPDEST PUSH0 PUSH0 REVERT JUMPDEST PUSH0 PUSH0 REVERT JUMPDEST PUSH0 PUSH1 0x1F NOT PUSH1 0x1F DUP4 ADD AND SWAP1 POP SWAP2 SWAP1 POP JUMP JUMPDEST PUSH32 0x4E487B7100000000000000000000000000000000000000000000000000000000 PUSH0 MSTORE PUSH1 0x41 PUSH1 0x4 MSTORE PUSH1 0x24 PUSH0 REVERT JUMPDEST PUSH2 0x1D0 DUP3 PUSH2 0x18A JUMP JUMPDEST DUP2 ADD DUP2 DUP2 LT PUSH8 0xFFFFFFFFFFFFFFFF DUP3 GT OR ISZERO PUSH2 0x1EF JUMPI PUSH2 0x1EE PUSH2 0x19A JUMP JUMPDEST JUMPDEST DUP1 PUSH1 0x40 MSTORE POP POP POP JUMP JUMPDEST PUSH0 PUSH2 0x201 PUSH2 0x175 JUMP JUMPDEST SWAP1 POP PUSH2 0x20D DUP3 DUP3 PUSH2 0x1C7 JUMP JUMPDEST SWAP2 SWAP1 POP JUMP JUMPDEST PUSH0 PUSH8 0xFFFFFFFFFFFFFFFF DUP3 GT ISZERO PUSH2 0x22C JUMPI PUSH2 0x22B PUSH2 0x19A JUMP JUMPDEST JUMPDEST PUSH1 0x20 DUP3 MUL SWAP1 POP PUSH1 0x20 DUP2 ADD SWAP1 POP SWAP2 SWAP1 POP JUMP JUMPDEST PUSH0 PUSH0 REVERT JUMPDEST PUSH0 DUP2 SWAP1 POP SWAP2 SWAP1 POP JUMP JUMPDEST PUSH2 0x253 DUP2 PUSH2 0x241 JUMP JUMPDEST DUP2 EQ PUSH2 0x25D JUMPI PUSH0 PUSH0 REVERT JUMPDEST POP JUMP JUMPDEST PUSH0 DUP2 CALLDATALOAD SWAP1 POP PUSH2 0x26E DUP2 PUSH2 0x24A JUMP JUMPDEST SWAP3 SWAP2 POP POP JUMP JUMPDEST PUSH0 PUSH2 0x286 PUSH2 0x281 DUP5 PUSH2 0x212 JUMP JUMPDEST PUSH2 0x1F8 JUMP JUMPDEST SWAP1 POP DUP1 DUP4 DUP3 MSTORE PUSH1 0x20 DUP3 ADD SWAP1 POP PUSH1 0x20 DUP5 MUL DUP4 ADD DUP6 DUP2 GT ISZERO PUSH2 0x2A9 JUMPI PUSH2 0x2A8 PUSH2 0x23D JUMP JUMPDEST JUMPDEST DUP4 JUMPDEST DUP2 DUP2 LT ISZERO PUSH2 0x2D2 JUMPI DUP1 PUSH2 0x2BE DUP9 DUP3 PUSH2 0x260 JUMP JUMPDEST DUP5 MSTORE PUSH1 0x20 DUP5 ADD SWAP4 POP POP PUSH1 0x20 DUP2 ADD SWAP1 POP PUSH2 0x2AB JUMP JUMPDEST POP POP POP SWAP4 SWAP3 POP POP POP JUMP JUMPDEST PUSH0 DUP3 PUSH1 0x1F DUP4 ADD SLT PUSH2 0x2F0 JUMPI PUSH2 0x2EF PUSH2 0x186 JUMP JUMPDEST JUMPDEST DUP2 CALLDATALOAD PUSH2 0x300 DUP5 DUP3 PUSH1 0x20 DUP7 ADD PUSH2 0x274 JUMP JUMPDEST SWAP2 POP POP SWAP3 SWAP2 POP POP JUMP JUMPDEST PUSH0 PUSH0 PUSH1 0x40 DUP4 DUP6 SUB SLT ISZERO PUSH2 0x31F JUMPI PUSH2 0x31E PUSH2 0x17E JUMP JUMPDEST JUMPDEST PUSH0 DUP4 ADD CALLDATALOAD PUSH8 0xFFFFFFFFFFFFFFFF DUP2 GT ISZERO PUSH2 0x33C JUMPI PUSH2 0x33B PUSH2 0x182 JUMP JUMPDEST JUMPDEST PUSH2 0x348 DUP6 DUP3 DUP7 ADD PUSH2 0x2DC JUMP JUMPDEST SWAP3 POP POP PUSH1 0x20 PUSH2 0x359 DUP6 DUP3 DUP7 ADD PUSH2 0x260 JUMP JUMPDEST SWAP2 POP POP SWAP3 POP SWAP3 SWAP1 POP JUMP JUMPDEST PUSH2 0x36C DUP2 PUSH2 0x241 JUMP JUMPDEST DUP3 MSTORE POP POP JUMP JUMPDEST PUSH0 PUSH1 0x20 DUP3 ADD SWAP1 POP PUSH2 0x385 PUSH0 DUP4 ADD DUP5 PUSH2 0x363 JUMP JUMPDEST SWAP3 SWAP2 POP POP JUMP JUMPDEST PUSH32 0x4E487B7100000000000000000000000000000000000000000000000000000000 PUSH0 MSTORE PUSH1 0x11 PUSH1 0x4 MSTORE PUSH1 0x24 PUSH0 REVERT JUMPDEST PUSH0 PUSH2 0x3C2 DUP3 PUSH2 0x241 JUMP JUMPDEST SWAP2 POP PUSH2 0x3CD DUP4 PUSH2 0x241 JUMP JUMPDEST SWAP3 POP DUP3 DUP3 SUB SWAP1 POP DUP2 DUP2 SLT PUSH0 DUP5 SLT AND DUP3 DUP3 SGT PUSH0 DUP6 SLT ISZERO AND OR ISZERO PUSH2 0x3F2 JUMPI PUSH2 0x3F1 PUSH2 0x38B JUMP JUMPDEST JUMPDEST SWAP3 SWAP2 POP POP JUMP JUMPDEST PUSH32 0x4E487B7100000000000000000000000000000000000000000000000000000000 PUSH0 MSTORE PUSH1 0x12 PUSH1 0x4 MSTORE PUSH1 0x24 PUSH0 REVERT JUMPDEST PUSH0 PUSH2 0x42F DUP3 PUSH2 0x241 JUMP JUMPDEST SWAP2 POP PUSH2 0x43A DUP4 PUSH2 0x241 JUMP JUMPDEST SWAP3 POP DUP3 PUSH2 0x44A JUMPI PUSH2 0x449 PUSH2 0x3F8 JUMP JUMPDEST JUMPDEST PUSH1 0x1 PUSH0 SUB DUP4 EQ PUSH32 0x8000000000000000000000000000000000000000000000000000000000000000 DUP4 EQ AND ISZERO PUSH2 0x482 JUMPI PUSH2 0x481 PUSH2 0x38B JUMP JUMPDEST JUMPDEST DUP3 DUP3 SDIV SWAP1 POP SWAP3 SWAP2 POP POP JUMP JUMPDEST PUSH0 PUSH2 0x497 DUP3 PUSH2 0x241 JUMP JUMPDEST SWAP2 POP PUSH2 0x4A2 DUP4 PUSH2 0x241 JUMP JUMPDEST SWAP3 POP DUP3 DUP3 ADD SWAP1 POP DUP3 DUP2 SLT ISZERO PUSH0 DUP4 SLT AND DUP4 DUP3 SLT PUSH0 DUP5 SLT ISZERO AND OR ISZERO PUSH2 0x4C8 JUMPI PUSH2 0x4C7 PUSH2 0x38B JUMP JUMPDEST JUMPDEST SWAP3 SWAP2 POP POP JUMP JUMPDEST PUSH32 0x4E487B7100000000000000000000000000000000000000000000000000000000 PUSH0 MSTORE PUSH1 0x32 PUSH1 0x4 MSTORE PUSH1 0x24 PUSH0 REVERT INVALID LOG2 PUSH5 0x6970667358 0x22 SLT KECCAK256 0xB7 SWAP2 BLOBBASEFEE 0xFC RJUMPI 0x52F3 DUP15 0xFC CALL DUP11 0x4C CALLDATASIZE PUSH0 0xF6 JUMPDEST CREATE2 PUSH9 0xF8D049E65B9DEC41F4 0xB0 0xD7 DATALOADN 0x9A4E PUSH5 0x736F6C6343 STOP ADDMOD 0x1E STOP CALLER "
		},
		"gasEstimates": {
			"creation": {
				"codeDepositCost": "265800",
				"executionCost": "304",
				"totalCost": "266104"
			},
			"external": {
				"search(int256[],int256)": "infinite"
			}
		},
		"methodIdentifiers": {
			"search(int256[],int256)": "066a7e60"
		}
	},
	"abi": [
		{
			"inputs": [
				{
					"internalType": "int256[]",
					"name": "nums",
					"type": "int256[]"
				},
				{
					"internalType": "int256",
					"name": "target",
					"type": "int256"
				}
			],
			"name": "search",
			"outputs": [
				{
					"internalType": "int256",
					"name": "",
					"type": "int256"
				}
			],
			"stateMutability": "pure",
			"type": "function"
		}
	]
}