{
	"data": {
		"bytecode": {
			"linkReferences": {},
			"object": "608060405260c85f553480156012575f5ffd5b506104b0806100205f395ff3fe608060405234801561000f575f5ffd5b50600436106100a7575f3560e01c80639dbea5411161006f5780639dbea54114610115578063a1a024531461011f578063a64f23371461013b578063cf3fb0c914610145578063d1f81e0514610161578063fc3288731461017d576100a7565b8063246ce3f9146100ab5780633fa4f245146100c757806341ff0dc1146100e557806363eaaa86146100ef578063797f9dd51461010b575b5f5ffd5b6100c560048036038101906100c0919061035b565b610187565b005b6100cf6101a4565b6040516100dc9190610395565b60405180910390f35b6100ed6101a9565b005b6101096004803603810190610104919061035b565b6101b5565b005b610113610207565b005b61011d610213565b005b6101396004803603810190610134919061035b565b61021f565b005b61014361026c565b005b61015f600480360381019061015a919061035b565b610278565b005b61017b6004803603810190610176919061035b565b6102c5565b005b610185610317565b005b805f819055506103e85f5411156101a1576101a06103ae565b5b50565b5f5481565b6101b360c86102c5565b565b5f548111156101fe575f54816040517f7a0e19850000000000000000000000000000000000000000000000000000000081526004016101f59291906103db565b60405180910390fd5b805f8190555050565b61021160c861021f565b565b61021d60c86101b5565b565b5f54811115610263576040517f08c379a000000000000000000000000000000000000000000000000000000000815260040161025a9061045c565b60405180910390fd5b805f8190555050565b61027660c8610278565b565b5f548111156102bc576040517f08c379a00000000000000000000000000000000000000000000000000000000081526004016102b39061045c565b60405180910390fd5b805f8190555050565b5f5481111561030e575f54816040517f7a0e19850000000000000000000000000000000000000000000000000000000081526004016103059291906103db565b60405180910390fd5b805f8190555050565b6103226107d0610187565b565b5f5ffd5b5f819050919050565b61033a81610328565b8114610344575f5ffd5b50565b5f8135905061035581610331565b92915050565b5f602082840312156103705761036f610324565b5b5f61037d84828501610347565b91505092915050565b61038f81610328565b82525050565b5f6020820190506103a85f830184610386565b92915050565b7f4e487b71000000000000000000000000000000000000000000000000000000005f52600160045260245ffd5b5f6040820190506103ee5f830185610386565b6103fb6020830184610386565b9392505050565b5f82825260208201905092915050565b7f56616c756520746f6f20686967680000000000000000000000000000000000005f82015250565b5f610446600e83610402565b915061045182610412565b602082019050919050565b5f6020820190508181035f8301526104738161043a565b905091905056fea26469706673582212205360b2aa669710711bca2f6fd190d14df651c187e4dfdc7404471ca7657b5d3764736f6c634300081e0033",
			"opcodes": "PUSH1 0x80 PUSH1 0x40 MSTORE PUSH1 0xC8 PUSH0 SSTORE CALLVALUE DUP1 ISZERO PUSH1 0x12 JUMPI PUSH0 PUSH0 REVERT JUMPDEST POP PUSH2 0x4B0 DUP1 PUSH2 0x20 PUSH0 CODECOPY PUSH0 RETURN INVALID PUSH1 0x80 PUSH1 0x40 MSTORE CALLVALUE DUP1 ISZERO PUSH2 0xF JUMPI PUSH0 PUSH0 REVERT JUMPDEST POP PUSH1 0x4 CALLDATASIZE LT PUSH2 0xA7 JUMPI PUSH0 CALLDATALOAD PUSH1 0xE0 SHR DUP1 PUSH4 0x9DBEA541 GT PUSH2 0x6F JUMPI DUP1 PUSH4 0x9DBEA541 EQ PUSH2 0x115 JUMPI DUP1 PUSH4 0xA1A02453 EQ PUSH2 0x11F JUMPI DUP1 PUSH4 0xA64F2337 EQ PUSH2 0x13B JUMPI DUP1 PUSH4 0xCF3FB0C9 EQ PUSH2 0x145 JUMPI DUP1 PUSH4 0xD1F81E05 EQ PUSH2 0x161 JUMPI DUP1 PUSH4 0xFC328873 EQ PUSH2 0x17D JUMPI PUSH2 0xA7 JUMP JUMPDEST DUP1 PUSH4 0x246CE3F9 EQ PUSH2 0xAB JUMPI DUP1 PUSH4 0x3FA4F245 EQ PUSH2 0xC7 JUMPI DUP1 PUSH4 0x41FF0DC1 EQ PUSH2 0xE5 JUMPI DUP1 PUSH4 0x63EAAA86 EQ PUSH2 0xEF JUMPI DUP1 PUSH4 0x797F9DD5 EQ PUSH2 0x10B JUMPI JUMPDEST PUSH0 PUSH0 REVERT JUMPDEST PUSH2 0xC5 PUSH1 0x4 DUP1 CALLDATASIZE SUB DUP2 ADD SWAP1 PUSH2 0xC0 SWAP2 SWAP1 PUSH2 0x35B JUMP JUMPDEST PUSH2 0x187 JUMP JUMPDEST STOP JUMPDEST PUSH2 0xCF PUSH2 0x1A4 JUMP JUMPDEST PUSH1 0x40 MLOAD PUSH2 0xDC SWAP2 SWAP1 PUSH2 0x395 JUMP JUMPDEST PUSH1 0x40 MLOAD DUP1 SWAP2 SUB SWAP1 RETURN JUMPDEST PUSH2 0xED PUSH2 0x1A9 JUMP JUMPDEST STOP JUMPDEST PUSH2 0x109 PUSH1 0x4 DUP1 CALLDATASIZE SUB DUP2 ADD SWAP1 PUSH2 0x104 SWAP2 SWAP1 PUSH2 0x35B JUMP JUMPDEST PUSH2 0x1B5 JUMP JUMPDEST STOP JUMPDEST PUSH2 0x113 PUSH2 0x207 JUMP JUMPDEST STOP JUMPDEST PUSH2 0x11D PUSH2 0x213 JUMP JUMPDEST STOP JUMPDEST PUSH2 0x139 PUSH1 0x4 DUP1 CALLDATASIZE SUB DUP2 ADD SWAP1 PUSH2 0x134 SWAP2 SWAP1 PUSH2 0x35B JUMP JUMPDEST PUSH2 0x21F JUMP JUMPDEST STOP JUMPDEST PUSH2 0x143 PUSH2 0x26C JUMP JUMPDEST STOP JUMPDEST PUSH2 0x15F PUSH1 0x4 DUP1 CALLDATASIZE SUB DUP2 ADD SWAP1 PUSH2 0x15A SWAP2 SWAP1 PUSH2 0x35B JUMP JUMPDEST PUSH2 0x278 JUMP JUMPDEST STOP JUMPDEST PUSH2 0x17B PUSH1 0x4 DUP1 CALLDATASIZE SUB DUP2 ADD SWAP1 PUSH2 0x176 SWAP2 SWAP1 PUSH2 0x35B JUMP JUMPDEST PUSH2 0x2C5 JUMP JUMPDEST STOP JUMPDEST PUSH2 0x185 PUSH2 0x317 JUMP JUMPDEST STOP JUMPDEST DUP1 PUSH0 DUP2 SWAP1 SSTORE POP PUSH2 0x3E8 PUSH0 SLOAD GT ISZERO PUSH2 0x1A1 JUMPI PUSH2 0x1A0 PUSH2 0x3AE JUMP JUMPDEST JUMPDEST POP JUMP JUMPDEST PUSH0 SLOAD DUP2 JUMP JUMPDEST PUSH2 0x1B3 PUSH1 0xC8 PUSH2 0x2C5 JUMP JUMPDEST JUMP JUMPDEST PUSH0 SLOAD DUP2 GT ISZERO PUSH2 0x1FE JUMPI PUSH0 SLOAD DUP2 PUSH1 0x40 MLOAD PUSH32 0x7A0E198500000000000000000000000000000000000000000000000000000000 DUP2 MSTORE PUSH1 0x4 ADD PUSH2 0x1F5 SWAP3 SWAP2 SWAP1 PUSH2 0x3DB JUMP JUMPDEST PUSH1 0x40 MLOAD DUP1 SWAP2 SUB SWAP1 REVERT JUMPDEST DUP1 PUSH0 DUP2 SWAP1 SSTORE POP POP JUMP JUMPDEST PUSH2 0x211 PUSH1 0xC8 PUSH2 0x21F JUMP JUMPDEST JUMP JUMPDEST PUSH2 0x21D PUSH1 0xC8 PUSH2 0x1B5 JUMP JUMPDEST JUMP JUMPDEST PUSH0 SLOAD DUP2 GT ISZERO PUSH2 0x263 JUMPI PUSH1 0x40 MLOAD PUSH32 0x8C379A000000000000000000000000000000000000000000000000000000000 DUP2 MSTORE PUSH1 0x4 ADD PUSH2 0x25A SWAP1 PUSH2 0x45C JUMP JUMPDEST PUSH1 0x40 MLOAD DUP1 SWAP2 SUB SWAP1 REVERT JUMPDEST DUP1 PUSH0 DUP2 SWAP1 SSTORE POP POP JUMP JUMPDEST PUSH2 0x276 PUSH1 0xC8 PUSH2 0x278 JUMP JUMPDEST JUMP JUMPDEST PUSH0 SLOAD DUP2 GT ISZERO PUSH2 0x2BC JUMPI PUSH1 0x40 MLOAD PUSH32 0x8C379A000000000000000000000000000000000000000000000000000000000 DUP2 MSTORE PUSH1 0x4 ADD PUSH2 0x2B3 SWAP1 PUSH2 0x45C JUMP JUMPDEST PUSH1 0x40 MLOAD DUP1 SWAP2 SUB SWAP1 REVERT JUMPDEST DUP1 PUSH0 DUP2 SWAP1 SSTORE POP POP JUMP JUMPDEST PUSH0 SLOAD DUP2 GT ISZERO PUSH2 0x30E JUMPI PUSH0 SLOAD DUP2 PUSH1 0x40 MLOAD PUSH32 0x7A0E198500000000000000000000000000000000000000000000000000000000 DUP2 MSTORE PUSH1 0x4 ADD PUSH2 0x305 SWAP3 SWAP2 SWAP1 PUSH2 0x3DB JUMP JUMPDEST PUSH1 0x40 MLOAD DUP1 SWAP2 SUB SWAP1 REVERT JUMPDEST DUP1 PUSH0 DUP2 SWAP1 SSTORE POP POP JUMP JUMPDEST PUSH2 0x322 PUSH2 0x7D0 PUSH2 0x187 JUMP JUMPDEST JUMP JUMPDEST PUSH0 PUSH0 REVERT JUMPDEST PUSH0 DUP2 SWAP1 POP SWAP2 SWAP1 POP JUMP JUMPDEST PUSH2 0x33A DUP2 PUSH2 0x328 JUMP JUMPDEST DUP2 EQ PUSH2 0x344 JUMPI PUSH0 PUSH0 REVERT JUMPDEST POP JUMP JUMPDEST PUSH0 DUP2 CALLDATALOAD SWAP1 POP PUSH2 0x355 DUP2 PUSH2 0x331 JUMP JUMPDEST SWAP3 SWAP2 POP POP JUMP JUMPDEST PUSH0 PUSH1 0x20 DUP3 DUP5 SUB SLT ISZERO PUSH2 0x370 JUMPI PUSH2 0x36F PUSH2 0x324 JUMP JUMPDEST JUMPDEST PUSH0 PUSH2 0x37D DUP5 DUP3 DUP6 ADD PUSH2 0x347 JUMP JUMPDEST SWAP2 POP POP SWAP3 SWAP2 POP POP JUMP JUMPDEST PUSH2 0x38F DUP2 PUSH2 0x328 JUMP JUMPDEST DUP3 MSTORE POP POP JUMP JUMPDEST PUSH0 PUSH1 0x20 DUP3 ADD SWAP1 POP PUSH2 0x3A8 PUSH0 DUP4 ADD DUP5 PUSH2 0x386 JUMP JUMPDEST SWAP3 SWAP2 POP POP JUMP JUMPDEST PUSH32 0x4E487B7100000000000000000000000000000000000000000000000000000000 PUSH0 MSTORE PUSH1 0x1 PUSH1 0x4 MSTORE PUSH1 0x24 PUSH0 REVERT JUMPDEST PUSH0 PUSH1 0x40 DUP3 ADD SWAP1 POP PUSH2 0x3EE PUSH0 DUP4 ADD DUP6 PUSH2 0x386 JUMP JUMPDEST PUSH2 0x3FB PUSH1 0x20 DUP4 ADD DUP5 PUSH2 0x386 JUMP JUMPDEST SWAP4 SWAP3 POP POP POP JUMP JUMPDEST PUSH0 DUP3 DUP3 MSTORE PUSH1 0x20 DUP3 ADD SWAP1 POP SWAP3 SWAP2 POP POP JUMP JUMPDEST PUSH32 0x56616C756520746F6F2068696768000000000000000000000000000000000000 PUSH0 DUP3 ADD MSTORE POP JUMP JUMPDEST PUSH0 PUSH2 0x446 PUSH1 0xE DUP4 PUSH2 0x402 JUMP JUMPDEST SWAP2 POP PUSH2 0x451 DUP3 PUSH2 0x412 JUMP JUMPDEST PUSH1 0x20 DUP3 ADD SWAP1 POP SWAP2 SWAP1 POP JUMP JUMPDEST PUSH0 PUSH1 0x20 DUP3 ADD SWAP1 POP DUP2 DUP2 SUB PUSH0 DUP4 ADD MSTORE PUSH2 0x473 DUP2 PUSH2 0x43A JUMP JUMPDEST SWAP1 POP SWAP2 SWAP1 POP JUMP INVALID LOG2 PUSH5 0x6970667358 0x22 SLT KECCAK256 MSTORE8 PUSH1 0xB2 0xAA PUSH7 0x9710711BCA2F6F DATALOADN 0x90D1 0x4D 0xF6 MLOAD 0xC1 DUP8 RETF 0xDF 0xDC PUSH21 0x4471CA7657B5D3764736F6C634300081E00330000 "
		},
		"gasEstimates": {
			"creation": {
				"codeDepositCost": "240000",
				"executionCost": "22384",
				"totalCost": "262384"
			},
			"external": {
				"testAssert(uint256)": "24665",
				"testRequireCustomError(uint256)": "infinite",
				"testRequireString(uint256)": "24661",
				"testRevertCustomError(uint256)": "infinite",
				"testRevertString(uint256)": "24705",
				"triggerAssert()": "24536",
				"triggerRequireCustomError()": "infinite",
				"triggerRequireString()": "24499",
				"triggerRevertCustomError()": "infinite",
				"triggerRevertString()": "24454",
				"value()": "2447"
			}
		},
		"methodIdentifiers": {
			"testAssert(uint256)": "246ce3f9",
			"testRequireCustomError(uint256)": "63eaaa86",
			"testRequireString(uint256)": "a1a02453",
			"testRevertCustomError(uint256)": "d1f81e05",
			"testRevertString(uint256)": "cf3fb0c9",
			"triggerAssert()": "fc328873",
			"triggerRequireCustomError()": "9dbea541",
			"triggerRequireString()": "797f9dd5",
			"triggerRevertCustomError()": "41ff0dc1",
			"triggerRevertString()": "a64f2337",
			"value()": "3fa4f245"
		}
	},
	"abi": [
		{
			"inputs": [
				{
					"internalType": "uint256",
					"name": "current",
					"type": "uint256"
				},
				{
					"internalType": "uint256",
					"name": "max",
					"type": "uint256"
				}
			],
			"name": "ValueTooHigh",
			"type": "error"
		},
		{
			"inputs": [],
			"name": "ValueTooLow",
			"type": "error"
		},
		{
			"inputs": [
				{
					"internalType": "uint256",
					"name": "amount",
					"type": "uint256"
				}
			],
			"name": "testAssert",
			"outputs": [],
			"stateMutability": "nonpayable",
			"type": "function"
		},
		{
			"inputs": [
				{
					"internalType": "uint256",
					"name": "amount",
					"type": "uint256"
				}
			],
			"name": "testRequireCustomError",
			"outputs": [],
			"stateMutability": "nonpayable",
			"type": "function"
		},
		{
			"inputs": [
				{
					"internalType": "uint256",
					"name": "amount",
					"type": "uint256"
				}
			],
			"name": "testRequireString",
			"outputs": [],
			"stateMutability": "nonpayable",
			"type": "function"
		},
		{
			"inputs": [
				{
					"internalType": "uint256",
					"name": "amount",
					"type": "uint256"
				}
			],
			"name": "testRevertCustomError",
			"outputs": [],
			"stateMutability": "nonpayable",
			"type": "function"
		},
		{
			"inputs": [
				{
					"internalType": "uint256",
					"name": "amount",
					"type": "uint256"
				}
			],
			"name": "testRevertString",
			"outputs": [],
			"stateMutability": "nonpayable",
			"type": "function"
		},
		{
			"inputs": [],
			"name": "triggerAssert",
			"outputs": [],
			"stateMutability": "nonpayable",
			"type": "function"
		},
		{
			"inputs": [],
			"name": "triggerRequireCustomError",
			"outputs": [],
			"stateMutability": "nonpayable",
			"type": "function"
		},
		{
			"inputs": [],
			"name": "triggerRequireString",
			"outputs": [],
			"stateMutability": "nonpayable",
			"type": "function"
		},
		{
			"inputs": [],
			"name": "triggerRevertCustomError",
			"outputs": [],
			"stateMutability": "nonpayable",
			"type": "function"
		},
		{
			"inputs": [],
			"name": "triggerRevertString",
			"outputs": [],
			"stateMutability": "nonpayable",
			"type": "function"
		},
		{
			"inputs": [],
			"name": "value",
			"outputs": [
				{
					"internalType": "uint256",
					"name": "",
					"type": "uint256"
				}
			],
			"stateMutability": "view",
			"type": "function"
		}
	]
}